:020000040800F2
:1000000048D4002069020008F95200087D45000824
:10001000F752000801190008397C000800000000B0
:10002000000000000000000000000000CD75000886
:10003000E91A000800000000EB02000881770008C0
:10004000830200088302000883020008830200087C
:10005000830200088302000883020008830200086C
:10006000830200088302000883020008830200085C
:10007000830200088302000883020008830200084C
:10008000830200088302000883020008830200083C
:10009000830200088302000883020008E91B0008AD
:1000A000830200088302000883020008830200081C
:1000B0000178000883020008A9780008830200087C
:1000C00083020008830200088302000883020008FC
:1000D000830200088302000883020008D17A000826
:1000E000ED1A00088302000883020008830200085A
:1000F00083020008830200088302000883020008CC
:1001000083020008830200088302000883020008BB
:10011000FD790008830200088302000883020008BA
:10012000830200088302000883020008830200089B
:10013000830200088302000883020008830200088B
:10014000830200088302000883020008830200087B
:10015000830200088302000883020008830200086B
:10016000830200088302000883020008830200085B
:10017000830200088302000883020008830200084B
:10018000830200088302000800F002F800F05CF827
:100190000AA090E8000C82448344AAF10107DA45E2
:1001A00001D100F051F8AFF2090EBAE80F0013F0D8
:1001B000010F18BFFB1A43F001031847E447010081
:1001C000044801000A444FF0000C10F8013B13F002
:1001D000070408BF10F8014B1D1108BF10F8015BA0
:1001E000641E05D010F8016B641E01F8016BF9D193
:1001F00013F0080F1EBF10F8014BAD1C0C1B09D1EA
:100200006D1E58BF01F801CBFAD505E014F8016B5B
:1002100001F8016B6D1EF9D59142D6D370470000ED
:100220000023002400250026103A28BF78C1FBD8FF
:10023000520728BF30C148BF0B6070471FB50DF093
:10024000A6FF1FBD10B510BD00F054FF1146FFF70B
:10025000F5FF0CF099FE00F072FF03B4FFF7F2FF18
:1002600003BC00F073FF00000948804709480047BD
:10027000FEE7FEE7FEE7FEE7FEE7FEE7FEE7FEE756
:10028000FEE7FEE704480549054A064B70470000B3
:10029000A57700088901000848CE002048D4002036
:1002A00048D0002048D00020EFF3108072B670478D
:1002B00080F3108870471D484FF0FF010170002047
:1002C00080F309881A48012101701A484FF08051C3
:1002D000016062B6FEE717484FF080510160704739
:1002E00014484FF080510160704772B6EFF30980F7
:1002F00028B1203880E8F00F0F490968086000B580
:100300000E4880475DF804EB0D480E490A780270EC
:1003100009480D490A680260106890E8F00F203023
:1003200080F309884EF0040E62B6704722ED00E0BB
:10033000AF00002004ED00E0C8000020415C000890
:10034000AC000020AD000020D000002072B6704745
:1003500062B67047EFF3108072B6704780F3108872
:100360007047B0FA80F0704790FAA0F0704730BF45
:10037000704720BF70470000DFED2E0AB5EEC00ABF
:1003800060EE200ABDEEE01A11EE100AF1EE10FA4E
:1003900038BF401E00EE100ADFED271AF7EE005AB4
:1003A000B8EEC00ADFED274A244930EEC01A21EE2C
:1003B000210AFCEEC00A10EE900A00EE900A01EB52
:1003C0008000B8EE600ADFED1E0AF0EC012A11EEA3
:1003D000210AF6EE001AB0EC013AF0EC013A20EEF8
:1003E000001A20EE216A40EE615A20EE245A21EED6
:1003F000212A90ED004A00EE602A66EE010A40EEE6
:10040000400A05EE412A70EEA55AF0EE400A41EE90
:10041000210A46EE410A25EE011A00EE641A22EE88
:10042000820A63EEA00A03EE250A44EE010A30EECA
:10043000200A704783F9223E00008043F4E200085E
:10044000ABAAAA3EABAA2A3E9FED3A0A5FEA920CFB
:1004500053D000BFB0EC011A0B1DF0EC010A21EEE5
:10046000011A00EEA01AB5EEC01AF1EE10FAC6BFDE
:10047000F1EEC10AC1ED000A81ED000AF0EC010ABB
:10048000191DB0EC011A60EEA00A41EE010AF5EE6A
:10049000C00AF1EE10FAC6BFF1EEE00AC3ED000AA1
:1004A00083ED000AB0EC011A0B1DF0EC010A21EEFD
:1004B000011A00EEA01AB5EEC01AF1EE10FAC6BF8E
:1004C000F1EEC10AC1ED000A81ED000AB0EC011A9B
:1004D000191DF0EC010A21EE011A00EEA01AB5EE8A
:1004E000C01AF1EE10FAC6BFF1EEC10AC3ED000A60
:1004F00083ED000ABCF1010CACD112F0030208BF7D
:10050000704700BFF0EC010A0B46B0EC011A091D60
:1005100060EEA00A41EE010AF5EEC00AF1EE10FA13
:10052000C6BFF1EEE00AC3ED000A83ED000A521ED9
:10053000E8D17047000000002DE9F00700EBC10989
:10054000DDE90778D0F800A0C9F800A007EB011496
:10055000D0F804A0251FA9F10406C9F804A003EBF4
:10056000C80907F1080C00F1080402EBC8024B1E91
:1005700031D000BFF2EC011A96ED002A92ED001A7C
:1005800002EBC802B4EC010A121FF4EC012A60EE7F
:10059000210A20EE010A32EE823A02EEA10AD9EDDA
:1005A000001A43EE410A09EBC80902EE610A16ED92
:1005B000012A083E42EE210A02EE410AECEC010A51
:1005C000ACEC010AB1EE400A85ED000A45ED010AE6
:1005D000083D5B1ECED190ED000AD0ED010A07EB7D
:1005E000C10130EE600A81ED000A9FED5D0A81EDE8
:1005F000010AD0ED000A90ED011A70EE810AC7EDF4
:10060000000A87ED010ABDE8F007704770B400EBFF
:10061000C105DDE903C42D1D002904BF70BC70476E
:10062000F2EC011A95ED002A92ED001A02EBC402D9
:10063000B0EC010A121FF0EC012A60EE210A20EE54
:10064000410A32EE823A02EEA10AD3ED001A43EEDD
:10065000010A03EBC40302EE610A15ED012A083D0D
:10066000491E42EE210A02EE010AECEC010AACEC52
:10067000010AD5D170BC70472DE9F04305464469A5
:10068000807983B00F461646012809D0A3892188B6
:100690003846626800F036F9E87901284ED053E018
:1006A000AA88D5E9030307EBC20CD5F808803146C8
:1006B0000CF1040C5AB300BFB0EC011A9CED002AF7
:1006C000D0ED001A00EBC800B7EC010A001FF7ECF0
:1006D000012A521E60EE010A20EE610A32EE823AD1
:1006E00002EE810A93ED001A43EE210A03EBC803E0
:1006F00002EE410A1CED012AACF1080C42EE010A9F
:1007000002EE210AE1EC010AA1EC010AD4D194ED38
:10071000040AA38921883046626800F095FAE879D6
:1007200001281CBF03B0BDE8F083E2892188A368DB
:1007300003B03046BDE8F04300F08CB8E289218870
:100740003846A36800F086F8A868CDE90060D5E9CE
:100750000323A9883846FFF7EFFE03B0BDE8F08316
:100760000000000070B592B2DDF810C055080260BC
:100770008580184EC66006F50056DBB2066100247F
:10078000837180F807C0802A04BF102282600BD0DA
:10079000B2F5007F08BF042212D0B2F5006F14BF7B
:1007A0004FF0FF3401220BD0002B8C4641614FF0FB
:1007B000000307D001222946604600F015FC06E040
:1007C0008260F1E700222946604600F00DFC2046D9
:1007D00070BD000000E7000870B40025B0EC010A0D
:1007E000A1F1010CF0EC010AB4EEE00AF1EE10FA0E
:1007F0003CBFB0EE600A0125ACF10104A446B4F19F
:10080000004F0ED3F0EC010AB4EEE00AF1EE10FA5C
:100810003CBFB0EE600AA1EB0C05BCF1010CF1D1BC
:1008200013E0002CC8BF00260FDD00BFF0EC010A6A
:10083000B4EEE00AF1EE10FA04D2ACEB0605B0EE2D
:10084000600A4D1B761C641EF0D182ED000A1D600B
:1008500070BC70472DE9F0014E0801244FF0000CE8
:1008600004EB51076146A6F102082CE061452AD24B
:1008700000EBCC0500EBC104D5ED000A94ED000AB5
:10088000C4ED000A85ED000AD5ED010A94ED010AD8
:10089000C4ED010A85ED010A0CEB0705CC1900EB4C
:1008A000C50500EBC404D5ED000A94ED000AC4EDC3
:1008B000000A85ED000AD5ED010A94ED010AC4EDA8
:1008C000010A85ED010A00EBC104B44400EBCC0C35
:1008D00094ED020ADCED000A891CC4ED020A8CEDDD
:1008E000000A94ED030ADCF80450E5608CED010A7F
:1008F000B3F800C089B203EB42034145B6D9BDE865
:10090000F00170472DE9F04F4FEA910C4FF00008CD
:100910004746644608EB0C0505EB0C0909EB0C0691
:1009200000EBC80A00EBC9099AED000AD9ED000AEC
:1009300099ED012A00EBC50530EE201A30EE600A71
:10094000DAED010A00EBC60608F1010870EE821A22
:1009500070EEC20A95ED002AD6ED002A641E32EE32
:10096000222A71EE022A31EE421ACAED002A95EDD2
:10097000012AD6ED012A32EE222A71EE822A71EE88
:10098000C21ACAED012A95ED012AD6ED012A96ED8B
:10099000003A4FEA470A32EE622AD5ED002A02EB0E
:1009A000CA0B72EEC32A9BED003ADBED013A21EE51
:1009B000034A01EEA34A61EE831A41EE631A85ED04
:1009C000004A30EE021A30EE420AC5ED011A02EB7F
:1009D000C70570EEE21A95ED002A70EEA20AD5ED79
:1009E000012A21EE023A0AEB070502EBC5051F4476
:1009F00001EEA23A61EE821A41EE621A89ED003AE6
:100A0000C9ED011AD5ED001A95ED011A20EE212A43
:100A100000EE812A60EEA10A40EE410A86ED002A2E
:100A2000C6ED010A7FF476AF9B044FEA134BE6460E
:100A3000BCF1040F7DD9E0464FEA9C0C4FF0000951
:100A4000CA46BCF1000F75D94FEA490404EB09030B
:100A500002EBC90502EBC40402EBC30395ED001AD7
:100A6000D5ED011A94ED000AD4ED010A93ED002AA8
:100A7000D3ED012AD94453468A4573D203EB0C04C3
:100A800004EB0C0606EB0C0500EBC30700EBC606F7
:100A900097ED003AD6ED003A96ED015A00EBC4040A
:100AA00073EE234A33EE633AD7ED013A00EBC50506
:100AB00033EE854A73EEC53A94ED005AD5ED005AEF
:100AC00035EE255A74EE855A74EEC54AC7ED005AC4
:100AD00094ED015AD5ED015A35EE255A74EE055ABA
:100AE00034EE454AC7ED015A94ED015AD5ED015A4D
:100AF00095ED006A35EE655AD4ED005A75EEC65A8A
:100B000024EE806A04EE206A24EE004A04EEE04AF5
:100B100084ED006A73EEE54A73EEA53A84ED014A6E
:100B200033EE054A33EE453A24EE015A04EEA15A5B
:100B300001E026E01BE064EE814A86ED005A434462
:100B40008B4244EE614A23EE024A03EEA24A63EE70
:100B5000823AC6ED014A43EE623A85ED004AC5EDA0
:100B6000013A8BD30AF1010AE245FFF46DAF4FEA77
:100B70008B434FEA9E0E4FEA134BBEF1040F3FF634
:100B80005AAFA1EB0C0100224B1C4FEA9C04002B36
:100B90008CBF1F46BDE8F08F11190E19331900EBF9
:100BA000C20500EBC60695ED000AD6ED000A95EDEC
:100BB000012A96ED011A70EE201A70EE600A32EEEC
:100BC000010A00EBC10100EBC30332EE411A91EDC3
:100BD000002AD3ED002A6244974232EE222A71EEB7
:100BE000822A31EEC22AC5ED002AD1ED011AD3EDD9
:100BF000012A71EEA21A70EE212AC5ED012A70EECB
:100C0000612A91ED010AD3ED011A93ED003A70EEDD
:100C1000611A91ED000A81ED002AC1ED012A30EE42
:100C2000430A30EEA12A70EEE10A71EE401A31EE6D
:100C3000000A86ED002AC6ED011AC3ED000A83ED15
:100C4000010AA9D8BDE8F08F2DE9F04F4FEA910CC9
:100C50004FF000084746644608EB0C0505EB0C0A0C
:100C60000AEB0C0600EBC80900EBCA0AD9ED000A32
:100C70009AED001ADAED012A00EBC50570EE811A33
:100C800070EEC10A99ED011A00EBC60608F10108E1
:100C900031EE222A31EE621AD5ED002A96ED003AA5
:100CA000641E72EE832A31EEA23A71EEE21A89EDE9
:100CB000003AD5ED012A96ED013A72EE832A32EE22
:100CC000223A32EE622A89ED013AD5ED012A96EDFB
:100CD000013AD6ED003A4FEA470972EEC32A95ED84
:100CE000003A02EBC90B33EE633ADBED003A9BEDC1
:100CF000014A61EEA34A42EE444A22EE232A01EE63
:100D0000842AC5ED004A70EEE21A70EEA20A85ED63
:100D1000012A02EBC70531EE032AD5ED002A31EE98
:100D2000431A95ED013A61EEA23A09EB070502EB91
:100D3000C5051F4442EE433A22EE222A01EE832AE1
:100D4000CAED003A8AED012AD5ED001A95ED012A87
:100D500060EEA12A41EE422A21EE211A00EE821A0B
:100D6000C6ED002A86ED011A7FF476AF9B044FEAA8
:100D7000134BE646BCF1040F7DD9E0464FEA9C0CCC
:100D80004FF00009CA46BCF1000F75D94FEA49047B
:100D900004EB090302EBC90502EBC40402EBC30335
:100DA000D5ED001A95ED012AD4ED000A94ED011A53
:100DB000D3ED002A93ED013AD94453468A4573D2C4
:100DC00003EB0C0404EB0C0606EB0C0500EBC3076D
:100DD00000EBC606D7ED003A96ED004AD6ED015A73
:100DE00000EBC40433EE845A73EEC43A97ED014A23
:100DF00000EBC50574EE254A34EE654AD4ED005A81
:100E000095ED006A75EE865A35EE256A35EE655A1F
:100E100087ED006AD4ED015A95ED016A75EE865AA8
:100E200034EEA56A74EEE54A87ED016AD4ED015A05
:100E300095ED016AD5ED006A75EEC65A94ED006A2B
:100E400036EE666A65EE206A44EEC16A64EEA04A38
:100E500045EE014AC4ED006A34EE065A34EE464AC5
:100E6000C4ED014A73EEE54A73EEA53A64EEA15A69
:100E700045EE425A01E026E01BE025EE215AC6ED80
:100E8000005A43448B4204EE825A63EEA24A44EE77
:100E9000434A24EE224A86ED015A03EE834AC5ED09
:100EA000004A85ED014A8BD30AF1010AE245FFF4BD
:100EB0006DAF4FEA8B434FEA9E0E4FEA134BBEF1E4
:100EC000040F3FF65AAFA1EB0C0100224B1C4FEA76
:100ED0009C06002B8CBF1F46BDE8F08F91198D1921
:100EE000AB1900EBC20400EBC505D4ED000AD5ED4B
:100EF000001AD4ED012A95ED012A30EEA11A70EE08
:100F0000E11A72EE820A00EBC10100EBC30332EE7C
:100F1000C22AD1ED002A93ED003A6244974272EE64
:100F2000832A31EE223A71EE622A23EE003A62EE13
:100F3000802A84ED003A91ED011A93ED013A31EEE9
:100F4000031A30EE813A23EE003A84ED013A30EE96
:100F5000C13AD1ED010A93ED011AD3ED003A30EE1A
:100F6000C11AD1ED000AC1ED002A63EE002A70EE2D
:100F7000E30AC1ED012A71EEC12A31EE811A72EE47
:100F8000201A72EE600A22EE802A21EE001A61EE2B
:100F9000801A85ED002A60EE800AC5ED011A83ED06
:100FA000001AC3ED010A99D8BDE8F08F30B50446A8
:100FB0000D4680782188A389626801280DD02846D3
:100FC000FFF7A0FCE078012818BF30BDE289218836
:100FD0002846A368BDE830403CE494ED040A284666
:100FE000FFF732FEEEE7000010B401801B4C4460B6
:100FF00082704FF0000CC370102925D040291BD0FF
:10100000B1F5807F10D0B1F5806F18BF4FF0FF3C75
:1010100002D010BC6046704701218181C181104916
:101020009FED100A816016E004218181C1810E4983
:101030009FED0E0A81600EE010218181C1810C4973
:101040009FED0C0A816006E040218181C1810A493F
:101050009FED0A0A816080ED040ADAE700270108A3
:10106000004701080000803A064701080000803B65
:101070001E4701080000803C7E4701080000803DBB
:1010800010B5203AC0F00B80B1E81850203AA0E823
:101090001850B1E81850A0E81850BFF4F5AF5FEA57
:1010A000027C24BFB1E81850A0E8185044BF18C90A
:1010B00018C0BDE810405FEA827C24BF51F8043BB1
:1010C00040F8043B08BF7047D20728BF31F8023B05
:1010D00048BF11F8012B28BF20F8023B48BF00F899
:1010E000012B7047704770477047000000487047F9
:1010F000E4CD00207546FFF7F9FFAE4605006946CE
:10110000534620F00700854618B020B5FFF7BAF81F
:10111000BDE820404FF000064FF000074FF00008F8
:101120004FF0000B21F00701AC46ACE8C009ACE879
:10113000C009ACE8C009ACE8C0098D467047044658
:10114000AFF300802046FFF788F870470149182068
:10115000ABBEFEE72600020010B5064C01220023BC
:101160001146204600F030F92046BDE8104000F05E
:1011700065B900000020014010B5064C0023012293
:101180000C21204600F020F92046BDE8104000F078
:1011900055B900000020014010B5064C0023012283
:1011A0000421204600F010F92046BDE8104000F070
:1011B00045B900000020014010B5064C0023012273
:1011C0000721204600F000F92046BDE8104000F05D
:1011D00035B900000020014070B59CB001212F48B6
:1011E00006F0B0F801214FF4E06006F0CFF84FF0C0
:1011F000007000902A4801902A4802A90024012585
:1012000031C1E802CDE90640800008904011099004
:101210000AA90594400231C1234E0D946946304617
:101220000E9400F037FC0121304600F029FC032029
:101230008DF8680019958DF86B4019A91B4800F0CE
:1012400001FE15941694179415A8189400F06AF8E6
:101250000F948DF8404011941394114C8DF8415027
:101260004C3C8DF850500FA9204600F087F8002321
:1012700001220821204600F0A7F80121204600F0B5
:1012800073F80121204600F065F80121204600F0A6
:101290003FF8204600F0D2F81CB070BD02004000BC
:1012A0004C2101401600002040640240000402402E
:1012B00010B5064C002301220A21204600F084F8D4
:1012C0002046BDE8104000F0B9B8000000220140FF
:1012D00010B5064C002301220B21204600F074F8C3
:1012E0002046BDE8104000F0A9B8000000220140EF
:1012F00010B5064C002301220C21204600F064F8B2
:101300002046BDE8104000F099B8000000220140DE
:101310000029816802D041F0010101E021F00101C2
:1013200081607047094B10B51A68094902EA010249
:10133000D0E9001441EA0401D0E9024044EA000483
:1013400041EA040141EA0201196010BD0423014091
:10135000E030FCFF0029816802D041F4807101E097
:1013600021F48071816070470029816802D041F4C6
:10137000007101E021F400718160704730B542686E
:101380000F4B0C791A400B6842EA04221343436066
:1013900082680C4B4D791A40D1E9034323438C6892
:1013A00044EA4504234313438360C26A097D22F45F
:1013B0007002491EC9B242EA0151C16230BD00004B
:1013C000FFFEFFFCFDF7FFC070B5072509290AD90C
:1013D000C468A1F10A0606EB4606B540AC43B3402B
:1013E0001C43C46007E0046901EB4106B540AC430F
:1013F000B3401C4304611F23072A09D2446B521EC9
:1014000002EB820293409C4391400C43446370BDC5
:101410000D2A09D2046BD21F02EB820293409C4337
:1014200091400C43046370BDC46A0D3A02EB820222
:1014300093409C4391400C43C46270BD816841F06D
:1014400080418160704703F0C5B810B5044603F0D1
:1014500089F9A02003F048F903F0D8F9200A03F035
:1014600043F903F0D3F9E0B203F03EF903F0CEF90B
:1014700003F078F9A12003F037F903F0C7F9002051
:1014800003F0F6F8044603F097F9204610BD70B556
:1014900004460D4603F066F9A02003F025F903F099
:1014A000B5F9200A03F020F903F0B0F9E0B203F037
:1014B0001BF903F0ABF9284603F016F903F0A6F97F
:1014C00003F07AF9BDE870400A200AF057BF704770
:1014D00038B5002004F030F8174C2066002004F0E6
:1014E0002BF86066002004F019F9E066002004F093
:1014F00023F8A066002004F011F920676A460FA1C6
:101500000A2004F097FA03230F4A00210F4804F041
:10151000EBF902230E4A00210E4804F0E5F90123FD
:101520000D4A00210D4804F0DFF900230C4A19464A
:101530000C4804F0D9F938BD0000002053746172E2
:1015400074205461736B00001C1500207115000895
:101550001CB50020991800081CB60020A917000827
:101560001CB7002089D6000804F0A6BD7047000013
:1015700008B5894F894EDFF828B28A4D05F036F953
:10158000387801287BD14FF400594946304600F0A5
:10159000A7FC00284FD1687B696F07F025FA044645
:1015A00001282DD15A46687BDBF8101007F01CFA91
:1015B0000346687B116807F017FA8446A87313B1D5
:1015C000012B15D01CE09046687B516807F00CFA9F
:1015D0000246687BD8F8081007F006FA0346687BD5
:1015E000D8F80C1007F000FA0090697BA87B05E0A2
:1015F0000220009003460246697B604603F05CFCD3
:10160000687B401C68734946304600F069FC00283E
:10161000F9D0687B202801D901206873C2B208E0A4
:101620001046696F07F0E0F9044601280BD0521C00
:10163000D2B2202AF4D94FF400694946304600F06E
:101640004FFC20B152E06A7300206885F3E7687BA5
:10165000696F07F0C9F9044601282DD1D846687B87
:10166000DBF8101007F0C0F90246687BD8F80010CC
:1016700007F0BAF9A8731AB1012A16D01CE086E067
:10168000687BD8F8041007F0AFF90246687BD8F8F9
:10169000081007F0A9F90346687BD8F80C1007F08A
:1016A000A3F90090697BA87B04E002210B460A465F
:1016B0000091697B03F000FC687B401E687349461B
:1016C000304600F00DFC0028F9D0687B08B92020D6
:1016D0006873C2B208E01046696F07F085F90446E6
:1016E000012806D0521ED2B2002AF4D1012C03D018
:1016F0004DE06A7300206885D846687BDBF81010DF
:1017000007F072F90246687BD8F8001007F06CF910
:101710008446A87312B1012A24D038E0687BD8F837
:10172000041007F061F98246687BD8F8081007F0CA
:101730005BF98146687BD8F80C1007F055F98046B4
:10174000A879012807D1CDF800804B465246697B25
:10175000A87B03F0B1FBA879C8B94B465246CDF837
:10176000008010E0A879012807D1022000900346EC
:101770000246697B604603F09FFBA87938B90220D6
:10178000034602460090697BA87B03F087F964203A
:101790000AF0F4FDF2E6000038010020000C0240DF
:1017A00020B70020000000201CB52F26304FDFF8A6
:1017B000C4904FF4FA68002599F80B004C460128B4
:1017C00051D1E06E04F030F84FF480712A4800F0F7
:1017D00087FBE08DF0B3401EE085CDE90056012384
:1017E000A14678781A4600210BF03EFC444640465C
:1017F0000AF0E2FDCDE900567878022301220021AB
:101800000BF032FC20460AF0D7FD0124CDE900564A
:10181000012378781A4621460AF068FC40460AF00F
:10182000CBFDCDE9005678780223012221460AF04B
:101830005DFC40460AF0C0FDCDE9005678780323F0
:10184000012221460AF052FC40460AF0B5FD641C14
:10185000E4B200E007E0092CD8D3B9F82E10012932
:1018600001D1A9F82E5064200AF088FDA4E70000F9
:1018700042B70020000000200010024010B504F024
:1018800017F8FFF725FEBDE810400A2004F080B9E4
:10189000704704F019BC000008B5154C154D002622
:1018A0006A460021E06E03F05FFFE07B012803D170
:1018B00011480BF0F3FAE6730F4BA3F1140202F197
:1018C0002801A1F1F0000BF045FC0B491439A1F1FE
:1018D000C8000BF08FF828780028E1D1064BA3F15F
:1018E000140202F12801A1F1F00007F083F8D7E714
:1018F00000000020380100201802002004F0F6BB90
:10190000FEE700002DE9F0470646481E0C46052874
:1019100021D8374F00254FF400794FF48078F00735
:101920004946384602D000F0E4FA01E000F0DFFA60
:101930004146384600F0DBFA760804200AF03CFD08
:101940004146384600F0D5FA04200AF035FD6D1CFA
:10195000EDB20C2DE3D3274D012C19D0022C20D051
:10196000032C27D0042C2ED0052C35D0062C3CD1AE
:101970002021284600F0BDFA04200AF01DFD202198
:10198000284600F0B4FABDE8F04704200AF014BD80
:101990000121284600F0ADFA04200AF00DFD0121D6
:1019A000EEE70221284600F0A4FA04200AF004FD24
:1019B0000221E5E70421284600F09BFA04200AF002
:1019C000FBFC0421DCE70821284600F092FA042001
:1019D0000AF0F2FC0821D3E71021284600F089FA2A
:1019E00004200AF0E9FC1021CAE7BDE8F0870000F6
:1019F00000040240000C02407CB50121022005F0E9
:101A0000A1FC01244FF440708DF8044000250090A3
:101A10008DF8065002268DF8056069460E4800F0E4
:101A200011FA0121082005F08DFC3F208DF80440BB
:101A300000908DF806508DF805606946074800F063
:101A400001FA40F2014521462846FFF75BFF641C7E
:101A5000E4B2052CF7D97CBD00040240000C024022
:101A600070B5002500240021284606F00DF9641CFD
:101A7000E4B2042CF7D36D1CEDB2202DF2D370BD6F
:101A80000029016802D041F0010101E021F00101CB
:101A90000160704730B50368124ACC6813400A6889
:101AA0002243D1E905452C432243CC6922430C6AE9
:101AB00022434C6A22438C6A22434C6B22438C6B38
:101AC00022431A430260426922F00703D1E90B2442
:101AD00022431A4342610A6942604A688260896807
:101AE000C16030BD3F801CF0704700002DE9FC470D
:101AF00003F0E8FC4FF4805A504600F059F9DFF843
:101B0000DC80374E374C4FF000092F2518B398F87A
:101B1000000001281FD1A07B012811D1CDE900953B
:101B200001234F4670781A46617B0BF09DFACDE990
:101B30000075707802230122617B0BF095FA6785AE
:101B4000A07B40B91720CDE90005012370781A4623
:101B5000617B0AF0CBFA504600F086F84FF4804AD9
:101B6000504600F025F988B398F8000001282DD1DF
:101B7000A07B01281FD1A18D608D4FF0010751EA94
:101B8000000202D001290AD015E0CDE90075012339
:101B900070781A46617B0BF067FAA7850AE050B9A6
:101BA000CDE90075707802230122617B0BF05CFAAD
:101BB000A4F82C906785A07B40B92020CDE90005D2
:101BC000012370781A46617B0AF090FA504600F0C3
:101BD0004BF8BDE8FC4703F081BC00003801002051
:101BE00042B70020000000202DE9FC4103F06AFC10
:101BF0004FF48074204600F0DBF810B11749142030
:101C0000C885204600F030F84FF40077384600F0E1
:101C1000CFF8D8B14FF47A700AF0CEFB39461048AD
:101C200000F05EF990B900252F240E4ECDE9005446
:101C3000012370781A4629460BF016FACDE90054B4
:101C400070780223012200210BF00EFA384600F0D2
:101C50000BF8BDE8FC4103F041BC0000000000208F
:101C6000000C024042B700200149086070470000A4
:101C7000143C01402DE9F0434FF4804985B0012127
:101C8000484605F083FB0121102005F05BFB4FF473
:101C90008077002503978DF8105003A93F4800F086
:101CA000D1F80821042005F093FC8DF804500C268F
:101CB0008DF80560012400978DF80640684600F015
:101CC00087F84FF017088DF8088002208DF809007A
:101CD0008DF80A008DF80B4002A803F013FB38467C
:101CE00000F05EF80921032005F072FC8DF8045025
:101CF00067028DF8056000978DF80640684600F091
:101D000067F88DF808808DF809408DF80A408DF845
:101D10000B4002A803F0F6FA384600F041F80C2117
:101D2000032005F055FC8DF8045027038DF805605D
:101D300000978DF80640684600F04AF84FF02808F2
:101D40008DF808808DF809408DF80A408DF80B4019
:101D500002A803F0D7FA384600F022F80E2103203B
:101D600005F036FC8DF804508DF80560CDF8009034
:101D70008DF80640684600F02BF88DF808808DF845
:101D800009408DF80A408DF80B4002A803F0BAFA1A
:101D9000484600F005F805B0BDE8F08300100240A9
:101DA00002490A6802430A6070470000103C014083
:101DB000064A014600201268044B0A4014331B688F
:101DC0000B4202D0002A00D001207047003C0140A5
:101DD00030B51B498379026863B30B6893430B608A
:101DE0000A1D13680468A343136002790A44136848
:101DF000046823431360124A083213680468A3433B
:101E00001360131D1C680568AC431C6090F805C086
:101E1000BCF1100F05D061440A68006802430A60F3
:101E200030BD1168046821431160196800680143DE
:101E3000196030BD0079084401689143016030BDEC
:101E4000003C0140F0B5002201234FF0030C00BF1D
:101E50000D6803FA02F42540A5422DD1066854000E
:101E60000CFA04F5AE4306600E790768A6403E43BF
:101E700006600E79012E01D0022E12D18668AE4383
:101E800086604D798668A54035438560456803FACC
:101E900002F6B543456045688E799640B6B2354343
:101EA0004560C56856000CFA06F7BD43C560CD799C
:101EB000A540C4682543C560521C102AC8D3F0BD94
:101EC0004B07DB0E9A40C90810B500EB8100016A90
:101ED0000F249C40A1430162016A1143016210BDBD
:101EE0000246002012690A4200D001207047418357
:101EF000704701837047000070B58AB00446142211
:101F000022A16846FFF7BCF8142225A105A8FFF717
:101F1000B7F801211C2005F0B7FE01211F2005F0B4
:101F2000B3FE0121192005F0AFFE224D287818B923
:101F30000A211F2005F0A8FE2878012803D10C21D2
:101F40001F2005F0A1FE6421B4FBF1F001FB10425B
:101F50000A21B2FBF1F5B4FBF1F201FB12446E462B
:101F600006EB40010222082005F068FE06EB450161
:101F700002220A2005F062FE05A800EB44010222BD
:101F80000C2005F05BFE0AB070BD0000050F0006D6
:101F9000060B020F0306030D070D0007070F030FC3
:101FA0000D0F08060E0B0A0F0B060B0D0F0D080781
:101FB0000F0F0B0F380100202DE9F04F99B00646A6
:101FC0000D461446142286A105A8FFF759F81422DD
:101FD00088A16846FFF754F814228BA10FA8FFF7D9
:101FE0004FF814228DA10AA8FFF74AF801211C20FE
:101FF00005F04AFE01211F2005F046FE8C4F38787F
:1020000018B90821182005F03FFE3878012803D1BF
:102010000C21182005F038FE3878022803D10A2157
:10202000182005F031FE3878032803D10921182043
:1020300005F02AFE08211B2005F026FE4FF47A7BCE
:10204000B6FBFBF2D1B20BFB12626420B2FBF0F2E2
:10205000D7B2B6FBF0F200FB12620A20B2FBF0F836
:10206000B6FBF0F2DFF8CC9100FB126699F80000A5
:102070000DF1140A012805D10AEB410102221620B4
:1020800005F0DCFD99F8000018B90221172005F0D1
:10209000FBFD0FA800EB47010222142005F0CEFD46
:1020A00005AF07EB48010222122005F0C7FD07EB40
:1020B00046010222102005F0C1FDB5FBFBF10BFB30
:1020C00011534FF0640AB3FBFAF202F0FF0C0A233B
:1020D000B5FBF3F203FB12520AAF07EB420852467C
:1020E000B5FBF2F70AFB1757B7FBF3F36E4606EBA7
:1020F0004307C8B24FF47A7303FB1151B1FBFAF1F5
:10210000C9B2D94606EB410538B105A901EB40013A
:1021100002220E2005F092FD02E0BCF1000F04D077
:1021200002222946082005F089FD022239460A20AC
:1021300005F084FD022241460C2005F07FFDB4FB32
:10214000F9F1CDB209FB1141B1FBFAF03A4F00F0C1
:10215000FF08387818B90A211F2005F095FD387856
:10216000012803D10C211F2005F08EFD0A23B4FBAA
:10217000F3F003FB1041684600EB41096421B4FB16
:10218000F1F201FB1242B2FBF3F200EB42074FF413
:102190007A72B4FBF2F302FB1342B2FBF1F1C9B263
:1021A00000EB410435B106EB45010222002005F0A9
:1021B00045FD02E0B8F1000F04D00222214610468E
:1021C00005F03CFD02223946042005F037FD0222CD
:1021D0004946062005F032FD19B0BDE8F08F000039
:1021E0000F0506000B060F0206030D030D0707007F
:1021F0000F070F03050F0006060B020F0306030D62
:10220000070D0007070F030F0F0D06080B0E0F0A2F
:10221000060B0D0B0D0F07080F0F0F0B0D0F080608
:102220000E0B0A0F0B060B0D0F0D08070F0F0B0FF0
:102230000400002008000020380100202DE9F04FA4
:1022400099B006460D461446142286A105A8FEF74D
:1022500017FF142288A16846FEF712FF14228BA1F3
:102260000FA8FEF70DFF14228DA10AA8FEF708FFA4
:1022700001211C2005F008FD01211F2005F004FDAF
:102280000A211B2005F000FD8A4F387818B900217B
:10229000182005F0F9FC3878012803D10421182012
:1022A00005F0F2FC3878022803D10221182005F04D
:1022B000EBFC3878032803D10121182005F0E4FC59
:1022C0004FF47A7BB6FBFBF2D1B20BFB12626420B7
:1022D000B2FBF0F2D7B2B6FBF0F200FB12620A20BA
:1022E000B2FBF0F8B6FBF0F2DFF8CC9100FB12661F
:1022F00099F800000DF1140A012805D10AEB4101FB
:102300000222162005F09AFC99F8000018B9022163
:10231000172005F0B9FC0FA800EB4701022214209A
:1023200005F08CFC05AF07EB48010222122005F0F6
:1023300085FC07EB46010222102005F07FFCB5FB6F
:10234000FBF10BFB11534FF0640AB3FBFAF202F0FE
:10235000FF0C0A23B5FBF3F203FB12520AAF07EBA3
:1023600042085246B5FBF2F70AFB1757B7FBF3F3E7
:102370006E4606EB4307C8B24FF47A7303FB115164
:10238000B1FBFAF1C9B2D94606EB410538B105A94E
:1023900001EB400102220E2005F050FC02E0BCF1EE
:1023A000000F04D002222946082005F047FC022233
:1023B00039460A2005F042FC022241460C2005F075
:1023C0003DFCB4FBF9F1CDB209FB1141B1FBFAF0D0
:1023D0003A4F00F0FF08387818B90A211F2005F09D
:1023E00053FC3878012803D10C211F2005F04CFC48
:1023F0000A23B4FBF3F003FB1041684600EB4109EC
:102400006421B4FBF1F201FB1242B2FBF3F200EBE8
:1024100042074FF47A72B4FBF2F302FB1342B2FBB1
:10242000F1F1C9B200EB410435B106EB45010222DE
:10243000002005F003FC02E0B8F1000F04D00222F6
:102440002146104605F0FAFB02223946042005F029
:10245000F5FB02224946062005F0F0FB19B0BDE865
:10246000F08F00000F0506000B060F0206030D0398
:102470000D0707000F070F03050F0006060B020FDD
:102480000306030D070D0007070F030F0F0D0608C6
:102490000B0E0F0A060B0D0B0D0F07080F0F0F0B7E
:1024A0000D0F08060E0B0A0F0B060B0D0F0D08077C
:1024B0000F0F0B0F0400002008000020380100203F
:1024C0002DE9F04F99B006460D461446142286A118
:1024D00005A8FEF7D5FD142288A16846FEF7D0FDB9
:1024E00014228BA10FA8FEF7CBFD14228DA10AA800
:1024F000FEF7C6FD01211C2005F0C6FB01211F20AF
:1025000005F0C2FB0C211B2005F0BEFB8A4F38787A
:1025100018B90021182005F0B7FB3878012803D13D
:102520000421182005F0B0FB3878022803D10221DD
:10253000182005F0A9FB3878032803D101211820C1
:1025400005F0A2FB4FF47A7BB6FBFBF2D1B20BFB9A
:1025500012626420B2FBF0F2D7B2B6FBF0F200FBDD
:1025600012620A20B2FBF0F8B6FBF0F2DFF8CC9171
:1025700000FB126699F800000DF1140A012805D13C
:102580000AEB41010222162005F058FB99F80000E1
:1025900018B90221172005F077FB0FA800EB4701BF
:1025A0000222142005F04AFB05AF07EB4801022286
:1025B000122005F043FB07EB46010222102005F034
:1025C0003DFBB5FBFBF10BFB11534FF0640AB3FB72
:1025D000FAF202F0FF0C0A23B5FBF3F203FB1252EE
:1025E0000AAF07EB42085246B5FBF2F70AFB175752
:1025F000B7FBF3F36E4606EB4307C8B24FF47A73AA
:1026000003FB1151B1FBFAF1C9B2D94606EB410502
:1026100038B105A901EB400102220E2005F00EFBA6
:1026200002E0BCF1000F04D002222946082005F088
:1026300005FB022239460A2005F000FB0222414632
:102640000C2005F0FBFAB4FBF9F1CDB209FB114106
:10265000B1FBFAF03A4F00F0FF08387818B90A21B8
:102660001F2005F011FB3878012803D10C211F2011
:1026700005F00AFB0A23B4FBF3F003FB10416846A4
:1026800000EB41096421B4FBF1F201FB1242B2FB01
:10269000F3F200EB42074FF47A72B4FBF2F302FB61
:1026A0001342B2FBF1F1C9B200EB410435B106EBC4
:1026B00045010222002005F0C1FA02E0B8F1000F46
:1026C00004D002222146104605F0B8FA022239460B
:1026D000042005F0B3FA02224946062005F0AEFABE
:1026E00019B0BDE8F08F00000F0506000B060F02C1
:1026F00006030D030D0707000F070F03050F000664
:10270000060B020F0306030D070D0007070F030F4B
:102710000F0D06080B0E0F0A060B0D0B0D0F070809
:102720000F0F0F0B0D0F08060E0B0A0F0B060B0DEC
:102730000F0D08070F0F0B0F0400002008000020EA
:10274000380100202DE9F04F99B006460D46144699
:10275000142288A105A8FEF793FC14228AA16846DA
:10276000FEF78EFC14228DA10FA8FEF789FC14221F
:102770008FA10AA8FEF784FC01211C2005F084FA31
:1027800001211F2005F080FA04211A2005F07CFAAF
:102790008C4F387818B90021182005F075FA387870
:1027A000012803D10421182005F06EFA3878022898
:1027B00003D10221182005F067FA3878032803D1E5
:1027C0000121182005F060FA08211B2005F05CFAB1
:1027D0004FF47A7BB6FBFBF2D1B20BFB12626420A2
:1027E000B2FBF0F2D7B2B6FBF0F200FB12620A20A5
:1027F000B2FBF0F8B6FBF0F2DFF8CC9100FB12660A
:1028000099F800000DF1140A012805D10AEB4101E5
:102810000222162005F012FA99F8000018B90221D8
:10282000172005F031FA0FA800EB4701022214200F
:1028300005F004FA05AF07EB48010222122005F06B
:10284000FDF907EB46010222102005F0F7F9B5FB70
:10285000FBF10BFB11534FF0640AB3FBFAF202F0E9
:10286000FF0C0A23B5FBF3F203FB12520AAF07EB8E
:1028700042085246B5FBF2F70AFB1757B7FBF3F3D2
:102880006E4606EB4307C8B24FF47A7303FB11514F
:10289000B1FBFAF1C9B2D94606EB410538B105A939
:1028A00001EB400102220E2005F0C8F902E0BCF164
:1028B000000F04D002222946082005F0BFF90222A9
:1028C00039460A2005F0BAF9022241460C2005F0EB
:1028D000B5F9B4FBF9F1CDB209FB1141B1FBFAF046
:1028E0003A4F00F0FF08387818B90A211F2005F088
:1028F000CBF93878012803D10C211F2005F0C4F949
:102900000A23B4FBF3F003FB1041684600EB4109D6
:102910006421B4FBF1F201FB1242B2FBF3F200EBD3
:1029200042074FF47A72B4FBF2F302FB1342B2FB9C
:10293000F1F1C9B200EB410435B106EB45010222C9
:10294000002005F07BF902E0B8F1000F04D002226C
:102950002146104605F072F902223946042005F09E
:102960006DF902224946062005F068F919B0BDE864
:10297000F08F00000F0506000B060F0206030D0383
:102980000D0707000F070F03050F0006060B020FC8
:102990000306030D070D0007070F030F0F0D0608B1
:1029A0000B0E0F0A060B0D0B0D0F07080F0F0F0B69
:1029B0000D0F08060E0B0A0F0B060B0D0F0D080767
:1029C0000F0F0B0F0400002008000020380100202A
:1029D0002DE9F04F97B006460C461546142284A107
:1029E00005A8FEF74DFB142286A16846FEF748FBBA
:1029F00001211C2005F048F901211F2005F044F9B0
:102A0000854F387818B90A211F2005F03DF938782C
:102A1000012803D10C211F2005F036F94FF47A72FA
:102A2000B6FBF2F002FB10676423B7FBF3F707F085
:102A3000FF0EB6FBF3F703FB176C4FF00A08BCFB65
:102A4000F8F71397B4FBF2F707F0FF0C02FB1747F8
:102A5000B7FBF3F707F0FF0BB4FBF3F7CDF83CC07F
:102A600003FB174CCDF850B0BCFBF8FBB5FBF2FCF8
:102A700002FB1C52B2FBF3F2D2B20E92B5FBF3F2A0
:102A80000CF0FF0A03FB125CC146B6FBF9F3BCFB7A
:102A9000F8F209FB136305AF07EB43086423B6FBA9
:102AA000F3FC03FB1C6C0C92BCFBF9F207EB420934
:102AB000C1B24FF47A7202FB1060B0FBF3F0C0B207
:102AC00007EB400631B107EB41010222162005F069
:102AD000B5F802E0BEF1000F05D002223146142005
:102AE00005F0ACF801E0139820B10222494612200B
:102AF00005F0A4F802224146102005F09FF80A20B4
:102B0000B4FBF0F100FB1146694601EB4609642174
:102B1000B4FBF1F601FB1646B6FBF0F6684600EB97
:102B200046084FF47A70B4FBF0F600FB1640B0FB99
:102B3000F1F0C1B268460F9B00EB410433B107EBE3
:102B4000430102220E2005F079F801E0149828B123
:102B500002222146082005F071F802E0BBF1000FC7
:102B600004D0022241460A2005F068F802224946B4
:102B70000C2005F063F80A23B5FBF3F003FB1051BA
:102B8000684600EB41076421B5FBF1F401FB1454E6
:102B9000B4FBF3F300EB43064FF47A73B5FBF3F4A5
:102BA00003FB1453B3FBF1F1C9B200EB4104BAF1DA
:102BB000000F06D000EB4A010222002005F03EF88B
:102BC00001E00E9828B102222146104605F036F8A1
:102BD00001E00C9820B102223146042005F02EF8C5
:102BE00002223946062005F029F817B0BDE8F08F1B
:102BF0000F0506000B060F0206030D030D07070065
:102C00000F070F03050F0006060B020F0306030D47
:102C1000070D0007070F030F380100202DE9F04FC3
:102C2000FBA02DED028B93B000680E901422F9A149
:102C300009A8FEF725FA1422FBA16846FEF720FA40
:102C4000FE48FF4EFF4D00784FF0010B78B3B414EF
:102C500021463046FFF744F988B9287920B96878C9
:102C6000401C687001F00CFF21463046FFF738F930
:102C70000028F9D06878062801D985F801B04FF40A
:102C8000804421463046FFF72BF980B9287920B9D6
:102C90006878401E687001F0F3FE21463046FFF769
:102CA0001FF90028F9D0687808B90620687068789C
:102CB000E54FE64C4FF0030807287DD2DFE800F02F
:102CC000CC04D1FDFCFBFA0080213846FFF708F95F
:102CD00080B9FEF7C5FEDE48DF4A0088126800EBC7
:102CE00080004004010CDB48007800EB80004000CD
:102CF000FFF762F980213846FFF7F2F801285BD12F
:102D0000470339463046FFF7EBF888B9287978B998
:102D100001F0B6FEA878401CA87039463046FFF78F
:102D2000DFF80028F9D0A878032801D985F802B087
:102D30004FF40061C248FFF7D3F8C84EDFF8209384
:102D4000DFF820A3C84FDFF824B380B9287970B921
:102D500001F096FEA878401E85F802004FF400614D
:102D6000B748FFF7BDF80028F8D0A87818B1A878C0
:102D7000012803D02DE085F8028043E0207880B957
:102D8000FEF76EFE30889AF8003000EB80004004B9
:102D9000010C99F800003A6800EB80004000FFF752
:102DA0004DFA2078012814D1FEF75AFEBBF8000036
:102DB00000EB8000400400E04EE0010CAD4AAC485E
:102DC00013780078AC4A00EB800040001268FFF7EF
:102DD000B9FCA878022812D1FEF742FEA748A94AFA
:102DE0000088137800EB80004004010CA448A64A38
:102DF0000078126800EB80004000FFF761FBA878C4
:102E0000032829D12078012810D1FEF729FE308827
:102E10009AF8003000EB80004004010C99F80000A3
:102E20003A6800EB80004000FFF708FA207800289D
:102E300012D1FEF715FEBBF800008E4A00EB8000B1
:102E40004004010C8A4813788B4A007800EB80001C
:102E500040001268FFF776FC13B0BDEC028BBDE8B2
:102E6000F08F8021B9463846FFF73AF8874F40B9CE
:102E7000FEF7F6FD864840F2F5123988008800F02A
:102E800071FA80214846FFF72BF80128E4D14FF46E
:102E9000005949463046FFF723F8B0B92879A0B960
:102EA00001F0EEFDE878401CE87049463046FFF737
:102EB00017F803E045E297E190E156E00028F4D0EE
:102EC000E878032801D985F803B04FF4006B594620
:102ED000B2463046FFF704F86E4EDFF8BC9170B989
:102EE000287960B901F0CCFDE878401EE8705946B9
:102EF0005046FEF7F5FF0028F9D0E87818B1E878D9
:102F0000012803D00DE085F803801EE0FEF7A8FD40
:102F10002078398840F2F51238B1B9F8000000F095
:102F200089FDE878022804D00CE0308800F03AFBF4
:102F3000F7E7FEF795FD594840F2F5123988008809
:102F400000F054FCE878032886D1FEF789FD20784C
:102F5000398840F2F51218B1308800F023FB7BE786
:102F6000B9F8000000F066FD76E780213846FEF7EC
:102F7000B7FFB2EE048AC0B9FEF772FD484890ED83
:102F8000000A20EE080ABCEEC00A10EE100A82B257
:102F9000444890ED000A20EE080ABCEEC00A10EE8C
:102FA000100A81B2002000F069FE80213846FEF749
:102FB00097FF0128D3D1470339463046FEF790FFEB
:102FC00088B9287978B901F05BFDE878401CE87091
:102FD00039463046FEF784FF0028F9D0E878032808
:102FE00001D985F803B04FF400613046FEF778FF51
:102FF0002D4E2E4FDFF8B890DFF8B8A030B9287901
:1030000020B901F03DFDE878401E55E05FE000008A
:10301000000209050F0506000B060F0206030D034B
:103020000D0707000F070F03050F0006060B020F21
:103030000306030D070D0007070F030F0C00002008
:10304000000C024034010020001002400A00002061
:103050001800002000000020500000201E0000206A
:103060000100002007000020540000202200002062
:1030700003000020090000205C0000202000002048
:103080000200002008000020580000201C00002042
:103090001A00002024000020280000202600002024
:1030A00034000020300000203C00002038000020C8
:1030B0004C00002048000020E8704FF4006B594697
:1030C000A448FEF70DFF0028F9D0E87818B1E87899
:1030D000012803D01BE085F803804FE0FEF7C0FC19
:1030E0002078C0B199ED000A20EE080ABCEEC00AB3
:1030F00010EE100A9AED000A82B220EE080ABCEE29
:10310000C00A10EE100A81B2002001F0F5F8E8784C
:10311000022816D02EE096ED000A20EE080ABCEE3A
:10312000C00A10EE100A97ED000A82B220EE080ADB
:10313000BCEEC00A10EE100A81B2002000F0B0FE12
:10314000E5E7FEF78DFC844890ED000A20EE080AC2
:10315000BCEEC00A10EE100A82B2804890ED000A60
:1031600020EE080ABCEEC00A10EE100A81B2002060
:1031700000F0ACFFE87803287FF4F1AEFEF770FCB6
:103180002078A8B196ED000A20EE080ABCEEC00A2D
:1031900010EE100A97ED000A82B220EE080ABCEE8B
:1031A000C00A10EE100A81B2002000F079FE53E64A
:1031B00099ED000A20EE080ABCEEC00A10EE100AD3
:1031C0009AED000A82B220EE080ABCEEC00A10EEA8
:1031D000100A81B2002001F08FF83DE6FEF740FCB6
:1031E0000220FEF789FE37E6FEF73AFC01211C209B
:1031F00004F04AFD01211F2004F046FD287918B98A
:103200000A211F2004F040FD2879012803D10C2158
:103210001F2004F039FD524968790422014411F855
:10322000011CA9714E49203108440EA910F8010C67
:10323000E871142004F002FD6A790A20B2FBF0F173
:1032400000FB1127AA79B2FBF0F400FB142AEA79FB
:10325000B2FBF0F800FB182909A800EB410102229B
:10326000122004F0EBFC09A800EB47010222102019
:1032700004F0E4FC6F4607EB440102220A2004F04C
:10328000DDFC07EB4A0102220C2004F0D7FC07EB1F
:1032900048010222042004F0D1FC07EB490102227C
:1032A000062004F0CBFC4FF4005421463046FEF7D4
:1032B00017FEF0B92879E0B901F0E2FB6879401C0B
:1032C000687121463046FEF70BFE0028F9D0687978
:1032D000202802D9584685F805B02149C0B20144DA
:1032E00011F8011CA9711E492031084410F8010C85
:1032F000E8714FF4006421463046FEF7F1FD0028E6
:103300007FF42DAE28790028FAD101F0B9FB687955
:10331000401E687121463046FEF7E2FD0028F9D0D4
:10332000687908B9202068710D49C0B2014411F8CC
:10333000011CA9710A492031084410F8010CE871F8
:103340008AE5FEF78DFB002211461046FFF740FB91
:1033500082E50000000C02404400002040000020F4
:10336000A4CD00202DE9F04F95B004460D46164639
:10337000142276A16846FDF783FE142278A105A8E1
:10338000FDF77EFE14227BA10FA8FDF779FE142223
:103390007DA10AA8FDF774FE01211C2004F074FC35
:1033A00001211F2004F070FC7C4F387818B90821E7
:1033B000182004F069FC3878012803D10C2118206A
:1033C00004F062FC3878022803D10A21182004F0A6
:1033D0005BFC3878032803D10921182004F054FC41
:1033E0000821192004F050FC6D4F387818B90A21D3
:1033F0001F2004F049FC3878012803D10C211F203C
:1034000004F042FC4FF47A7BB4FBFBFC0BFB1C4248
:103410006420B2FBF0F000F0FF0A0A20B4FBF0F2E7
:1034200000FB12426F4607EB42096422B4FBF2F341
:1034300002FB1343B3FBF0F007EB4008584600FBD8
:103440001C40B0FBF2F0C0B20CF0FF0107EB4004EF
:1034500031B107EB41010222162004F0EFFB02E03C
:10346000BAF1000F04D002222146142004F0E6FB3A
:1034700002224146122004F0E1FB022249461020BC
:1034800004F0DCFBB5FBFBF10BFB11534FF0640BBD
:10349000B3FBFBF202F0FF0C0A23B5FBF3F203FBD4
:1034A00012540DF1140A0AEB44085A46B5FBF2F423
:1034B0000BFB1454B4FBF3F4C8B24FF47A7303FB60
:1034C0001151B1FBFBF10AEB4409CAB20AEB420409
:1034D00030B107EB400102220E2004F0AFFB02E006
:1034E000BCF1000F04D002222146082004F0A6FB04
:1034F000022249460A2004F0A1FB022241460C2088
:1035000004F09CFBB6FBFBF2D1B20BFB12620A206B
:10351000B2FBF0F5B6FBF0F200FB12640222564655
:103520000AEB4101104604F089FB06EB450102223B
:10353000042004F083FB0AA800EB440102220620C9
:1035400004F07CFB15B0BDE8F08F00000F0506000D
:103550000B060F0206030D030D0707000F070F03ED
:10356000050F0006060B020F0306030D070D0007EB
:10357000070F030F0F0D06080B0E0F0A060B0D0B9E
:103580000D0F07080F0F0F0B0D0F08060E0B0A0F7C
:103590000B060B0D0F0D08070F0F0B0F040000207B
:1035A000380100202DE9F04F95B004460D4616462F
:1035B000142278A16846FDF763FD14227AA105A8BC
:1035C000FDF75EFD14227DA10FA8FDF759FD142221
:1035D0007FA10AA8FDF754FD01211C2004F054FB33
:1035E00001211F2004F050FB02211B2004F04CFBA2
:1035F0007C4F387818B90021182004F045FB387842
:10360000012803D10421182004F03EFB3878022859
:1036100003D10221182004F037FB3878032803D1A6
:103620000121182004F030FB0821192004F02CFBA4
:103630006D4F387818B90A211F2004F025FB38781F
:10364000012803D10C211F2004F01EFB4FF47A7BCC
:10365000B4FBFBFC0BFB1C426420B2FBF0F000F05F
:10366000FF0A0A20B4FBF0F200FB12426F4607EBA0
:1036700042096422B4FBF2F302FB1343B3FBF0F004
:1036800007EB4008584600FB1C40B0FBF2F0C0B20C
:103690000CF0FF0107EB400431B107EB41010222BE
:1036A000162004F0CBFA02E0BAF1000F04D0022297
:1036B0002146142004F0C2FA02224146122004F0EE
:1036C000BDFA02224946102004F0B8FAB5FBFBF11E
:1036D0000BFB11534FF0640BB3FBFBF202F0FF0C3A
:1036E0000A23B5FBF3F203FB12540DF1140A0AEBA3
:1036F00044085A46B5FBF2F40BFB1454B4FBF3F444
:10370000C8B24FF47A7303FB1151B1FBFBF10AEB22
:103710004409CAB20AEB420430B107EB400102226D
:103720000E2004F08BFA02E0BCF1000F04D002225C
:103730002146082004F082FA022249460A2004F0B9
:103740007DFA022241460C2004F078FAB6FBFBF227
:10375000D1B20BFB12620A20B2FBF0F5B6FBF0F21D
:1037600000FB1264022256460AEB4101104604F0A7
:1037700065FA06EB45010222042004F05FFA0AA86C
:1037800000EB44010222062004F058FA15B0BDE80F
:10379000F08F00000F0506000B060F0206030D0355
:1037A0000D0707000F070F03050F0006060B020F9A
:1037B0000306030D070D0007070F030F0F0D060883
:1037C0000B0E0F0A060B0D0B0D0F07080F0F0F0B3B
:1037D0000D0F08060E0B0A0F0B060B0D0F0D080739
:1037E0000F0F0B0F04000020380100202DE9F04FCF
:1037F00095B004460D461646142278A16846FDF79A
:103800003FFC14227AA105A8FDF73AFC14227DA101
:103810000FA8FDF735FC14227FA10AA8FDF730FCA4
:1038200001211C2004F030FA01211F2004F02CFAA1
:1038300004211B2004F028FA7C4F387818B90021A5
:10384000182004F021FA3878012803D10421182027
:1038500004F01AFA3878022803D10221182004F063
:1038600013FA3878032803D10121182004F00CFA48
:103870000821192004F008FA6D4F387818B90A2188
:103880001F2004F001FA3878012803D10C211F20F1
:1038900004F0FAF94FF47A7BB4FBFBFC0BFB1C42FF
:1038A0006420B2FBF0F000F0FF0A0A20B4FBF0F253
:1038B00000FB12426F4607EB42096422B4FBF2F3AD
:1038C00002FB1343B3FBF0F007EB4008584600FB44
:1038D0001C40B0FBF2F0C0B20CF0FF0107EB40045B
:1038E00031B107EB41010222162004F0A7F902E0F2
:1038F000BAF1000F04D002222146142004F09EF9F0
:1039000002224146122004F099F902224946102071
:1039100004F094F9B5FBFBF10BFB11534FF0640B72
:10392000B3FBFBF202F0FF0C0A23B5FBF3F203FB3F
:1039300012540DF1140A0AEB44085A46B5FBF2F48E
:103940000BFB1454B4FBF3F4C8B24FF47A7303FBCB
:103950001151B1FBFBF10AEB4409CAB20AEB420474
:1039600030B107EB400102220E2004F067F902E0BB
:10397000BCF1000F04D002222146082004F05EF9B9
:10398000022249460A2004F059F9022241460C203D
:1039900004F054F9B6FBFBF2D1B20BFB12620A2021
:1039A000B2FBF0F5B6FBF0F200FB126402225646C1
:1039B0000AEB4101104604F041F906EB45010222F1
:1039C000042004F03BF90AA800EB4401022206207F
:1039D00004F034F915B0BDE8F08F00000F050600C3
:1039E0000B060F0206030D030D0707000F070F0359
:1039F000050F0006060B020F0306030D070D000757
:103A0000070F030F0F0D06080B0E0F0A060B0D0B09
:103A10000D0F07080F0F0F0B0D0F08060E0B0A0FE7
:103A20000B060B0D0F0D08070F0F0B0F04000020E6
:103A3000380100202DE9F04F95B004460D4616469A
:103A4000142278A16846FDF71BFB14227AA105A871
:103A5000FDF716FB14227DA10FA8FDF711FB142220
:103A60007FA10AA8FDF70CFB01211C2004F00CF932
:103A700001211F2004F008F904211A2004F004F9A0
:103A80007C4F387818B90021182004F0FDF83878F8
:103A9000012803D10421182004F0F6F83878022810
:103AA00003D10221182004F0EFF83878032803D15D
:103AB0000121182004F0E8F80821192004F0E4F8A6
:103AC0006D4F387818B90A211F2004F0DDF83878D6
:103AD000012803D10C211F2004F0D6F84FF47A7B83
:103AE000B4FBFBFC0BFB1C426420B2FBF0F000F0CB
:103AF000FF0A0A20B4FBF0F200FB12426F4607EB0C
:103B000042096422B4FBF2F302FB1343B3FBF0F06F
:103B100007EB4008584600FB1C40B0FBF2F0C0B277
:103B20000CF0FF0107EB400431B107EB4101022229
:103B3000162004F083F802E0BAF1000F04D002224C
:103B40002146142004F07AF802224146122004F0A3
:103B500075F802224946102004F070F8B5FBFBF11D
:103B60000BFB11534FF0640BB3FBFBF202F0FF0CA5
:103B70000A23B5FBF3F203FB12540DF1140A0AEB0E
:103B800044085A46B5FBF2F40BFB1454B4FBF3F4AF
:103B9000C8B24FF47A7303FB1151B1FBFBF10AEB8E
:103BA0004409CAB20AEB420430B107EB40010222D9
:103BB0000E2004F043F802E0BCF1000F04D0022212
:103BC0002146082004F03AF8022249460A2004F06F
:103BD00035F8022241460C2004F030F8B6FBFBF227
:103BE000D1B20BFB12620A20B2FBF0F5B6FBF0F289
:103BF00000FB1264022256460AEB4101104604F013
:103C00001DF806EB45010222042004F017F80AA86B
:103C100000EB44010222062004F010F815B0BDE8C4
:103C2000F08F00000F0506000B060F0206030D03C0
:103C30000D0707000F070F03050F0006060B020F05
:103C40000306030D070D0007070F030F0F0D0608EE
:103C50000B0E0F0A060B0D0B0D0F07080F0F0F0BA6
:103C60000D0F08060E0B0A0F0B060B0D0F0D0807A4
:103C70000F0F0B0F04000020380100202DE9F04742
:103C80009AB004460D46164614226FA105A8FDF70A
:103C9000F7F9142271A16846FDF7F2F9142274A114
:103CA0000FA8FDF7EDF9142276A10AA8FDF7E8F9AF
:103CB00001211C2003F0E8FF01211F2003F0E4FF95
:103CC000754F387818B90821182003F0DDFF3878CF
:103CD000012803D10C21182003F0D6FF38780228E0
:103CE00003D10A21182003F0CFFF3878032803D12D
:103CF0000921182003F0C8FF08211A2003F0C4FF8F
:103D0000664F387818B90A211F2003F0BDFF3878B4
:103D1000012803D10C211F2003F0B6FF4FF47A7164
:103D2000B4FBF1F001FB10434FF0640AB3FBFAF16E
:103D300001F0FF090A21B4FBF1F301FB13430FAFBC
:103D400007EB43085346B4FBF3F70AFB1747B7FBEF
:103D5000F1F10DF1140C0CEB4107C2B24FF47A7182
:103D600001FB1040B0FBFAF0C0B20CEB400432B1E2
:103D70000CEB42010222162003F060FF02E0B9F1D1
:103D8000000F04D002222146142003F057FF022224
:103D90003946122003F052FF02224146102003F060
:103DA0004DFF4FF00A00B5FBF0F3D146B5FBF9F734
:103DB00000FB13530AA901EB43084FF0640101FB18
:103DC0001751B1FBF0F06C4617F0FF0204EB400511
:103DD00005D004EB42010222082003F02FFF02224B
:103DE00029460A2003F02AFF022241460C2003F054
:103DF00025FF4FF00A01B6FBF1F3B6FBF9F201FB28
:103E000013630AAD05EB430712F0FF004FF06403A4
:103E100003FB1262B2FBF1F16A4602EB410505D0E9
:103E200004EB40010222104603F008FF022229465B
:103E3000042003F003FF02223946062003F0FEFEB1
:103E40001AB0BDE8F08700000F0506000B060F0250
:103E500006030D030D0707000F070F03050F0006EC
:103E6000060B020F0306030D070D0007070F030FD4
:103E70000F0D06080B0E0F0A060B0D0B0D0F070892
:103E80000F0F0F0B0D0F08060E0B0A0F0B060B0D75
:103E90000F0D08070F0F0B0F040000203801002042
:103EA0002DE9F0479AB004460D461646142271A13A
:103EB00005A8FDF7E5F8142273A16846FDF7E0F8C0
:103EC000142276A10FA8FDF7DBF8142278A10AA826
:103ED000FDF7D6F801211C2003F0D6FE01211F209A
:103EE00003F0D2FE02211B2003F0CEFE754F38787E
:103EF00018B90021182003F0C7FE3878012803D133
:103F00000421182003F0C0FE3878022803D10221D2
:103F1000182003F0B9FE3878032803D101211820B6
:103F200003F0B2FE08211A2003F0AEFE664F387887
:103F300018B90A211F2003F0A7FE3878012803D101
:103F40000C211F2003F0A0FE4FF47A71B4FBF1F0B6
:103F500001FB10434FF0640AB3FBFAF101F0FF09D3
:103F60000A21B4FBF1F301FB13430FAF07EB430846
:103F70005346B4FBF3F70AFB1747B7FBF1F10DF11A
:103F8000140C0CEB4107C2B24FF47A7101FB1040E4
:103F9000B0FBFAF0C0B20CEB400432B10CEB4201C2
:103FA0000222162003F04AFE02E0B9F1000F04D00D
:103FB00002222146142003F041FE0222394612203B
:103FC00003F03CFE02224146102003F037FE4FF082
:103FD0000A00B5FBF0F3D146B5FBF9F700FB13532C
:103FE0000AA901EB43084FF0640101FB1751B1FB33
:103FF000F0F06C4617F0FF0204EB400505D004EB2F
:1040000042010222082003F019FE022229460A205A
:1040100003F014FE022241460C2003F00FFE4FF085
:104020000A01B6FBF1F3B6FBF9F201FB13630AAD2B
:1040300005EB430712F0FF004FF0640303FB12622D
:10404000B2FBF1F16A4602EB410505D004EB4001F9
:104050000222104603F0F2FD02222946042003F05A
:10406000EDFD02223946062003F0E8FD1AB0BDE856
:10407000F08700000F0506000B060F0206030D0374
:104080000D0707000F070F03050F0006060B020FB1
:104090000306030D070D0007070F030F0F0D06089A
:1040A0000B0E0F0A060B0D0B0D0F07080F0F0F0B52
:1040B0000D0F08060E0B0A0F0B060B0D0F0D080750
:1040C0000F0F0B0F04000020380100202DE9F047EE
:1040D0009AB004460D461646142271A105A8FCF7B5
:1040E000CFFF142273A16846FCF7CAFF142276A101
:1040F0000FA8FCF7C5FF142278A10AA8FCF7C0FF9F
:1041000001211C2003F0C0FD01211F2003F0BCFD94
:1041100004211B2003F0B8FD754F387818B9002131
:10412000182003F0B1FD3878012803D104211820AC
:1041300003F0AAFD3878022803D10221182003F0E9
:10414000A3FD3878032803D10121182003F09CFD3A
:1041500008211A2003F098FD664F387818B90A2113
:104160001F2003F091FD3878012803D10C211F2076
:1041700003F08AFD4FF47A71B4FBF1F001FB1043B8
:104180004FF0640AB3FBFAF101F0FF090A21B4FB16
:10419000F1F301FB13430FAF07EB43085346B4FBA6
:1041A000F3F70AFB1747B7FBF1F10DF1140C0CEB19
:1041B0004107C2B24FF47A7101FB1040B0FBFAF034
:1041C000C0B20CEB400432B10CEB420102221620CB
:1041D00003F034FD02E0B9F1000F04D002222146C1
:1041E000142003F02BFD02223946122003F026FD95
:1041F00002224146102003F021FD4FF00A00B5FBDA
:10420000F0F3D146B5FBF9F700FB13530AA901EB14
:1042100043084FF0640101FB1751B1FBF0F06C460D
:1042200017F0FF0204EB400505D004EB4201022227
:10423000082003F003FD022229460A2003F0FEFCB9
:10424000022241460C2003F0F9FC4FF00A01B6FBB4
:10425000F1F3B6FBF9F201FB13630AAD05EB43077B
:1042600012F0FF004FF0640303FB1262B2FBF1F1A6
:104270006A4602EB410505D004EB400102221046DC
:1042800003F0DCFC02222946042003F0D7FC0222C2
:104290003946062003F0D2FC1AB0BDE8F0870000D2
:1042A0000F0506000B060F0206030D030D0707009E
:1042B0000F070F03050F0006060B020F0306030D81
:1042C000070D0007070F030F0F0D06080B0E0F0A4F
:1042D000060B0D0B0D0F07080F0F0F0B0D0F080628
:1042E0000E0B0A0F0B060B0D0F0D08070F0F0B0F10
:1042F00004000020380100202DE9F0479AB0044660
:104300000D46164614226FA105A8FCF7B9FE14222B
:1043100071A16846FCF7B4FE142274A10FA8FCF743
:10432000AFFE142276A10AA8FCF7AAFE01211C20E8
:1043300003F0AAFC01211F2003F0A6FC0C211A2087
:1043400003F0A2FC734F387818B90021182003F04D
:104350009BFC3878012803D10421182003F094FC39
:104360003878022803D10221182003F08DFC387818
:10437000032803D10121182003F086FC664F38780A
:1043800018B90A211F2003F07FFC3878012803D1D7
:104390000C211F2003F078FC4FF47A71B4FBF1F08C
:1043A00001FB10434FF0640AB3FBFAF101F0FF097F
:1043B0000A21B4FBF1F301FB13430FAF07EB4308F2
:1043C0005346B4FBF3F70AFB1747B7FBF1F10DF1C6
:1043D000140C0CEB4107C2B24FF47A7101FB104090
:1043E000B0FBFAF0C0B20CEB400432B10CEB42016E
:1043F0000222162003F022FC02E0B9F1000F04D0E3
:1044000002222146142003F019FC02223946122010
:1044100003F014FC02224146102003F00FFC4FF081
:104420000A00B5FBF0F3D146B5FBF9F700FB1353D7
:104430000AA901EB43084FF0640101FB1751B1FBDE
:10444000F0F06C4617F0FF0204EB400505D004EBDA
:1044500042010222082003F0F1FB022229460A2031
:1044600003F0ECFB022241460C2003F0E7FB4FF087
:104470000A01B6FBF1F3B6FBF9F201FB13630AADD7
:1044800005EB430712F0FF004FF0640303FB1262D9
:10449000B2FBF1F16A4602EB410505D004EB4001A5
:1044A0000222104603F0CAFB02222946042003F030
:1044B000C5FB02223946062003F0C0FB1AB0BDE856
:1044C000F08700000F0506000B060F0206030D0320
:1044D0000D0707000F070F03050F0006060B020F5D
:1044E0000306030D070D0007070F030F0F0D060846
:1044F0000B0E0F0A060B0D0B0D0F07080F0F0F0BFE
:104500000D0F08060E0B0A0F0B060B0D0F0D0807FB
:104510000F0F0B0F04000020380100201CB50121F3
:10452000022002F00FFFE020009001208DF804002F
:1045300000208DF8060002200F4C8DF8050069461A
:104540002046FDF77FFC20212046FDF7D2FC4021CC
:104550002046FDF7CEFC80212046FDF7CAFC022054
:1045600003F074F8292003F071F8012003F06EF8CD
:10457000032003F06BF81CBD00040240FEE70000BE
:104580007CB5134E4FF4005529463046FDF7AFFC7D
:1045900001208DF8040002206C008DF805000094C5
:1045A00069463046FDF74EFC21463046FDF79FFC3C
:1045B000022007F001FF29463046FDF79AFC022051
:1045C00007F0FAFE29463046FDF791FC7CBD00005D
:1045D000000402401CB50121022002F0B3FE4FF49A
:1045E000E040009001208DF8040002200A4C8DF874
:1045F000050069462046FDF725FCA1142046FDF77D
:1046000076FC4FF400512046FDF773FC4FF48041D7
:104610002046FDF76EFC1CBD000402407CB5134E25
:104620004FF4005529463046FDF761FC01208DF816
:10463000040002206C008DF80500009469463046A5
:10464000FDF700FC21463046FDF753FC022007F041
:10465000B3FE29463046FDF74CFC022007F0ACFEC5
:1046600029463046FDF743FC7CBD000000040240B3
:104670002DE9FC4700241B4E80464FF480478DF8FF
:10468000044000978DF8074069463046FDF7DAFB95
:104690000025B9467F1039463046FDF728FC022038
:1046A00007F08AFE39463046FDF723FC6006040E0B
:1046B00049463046FDF714FC08B1641CE4B2012001
:1046C00007F07AFE6D1CEDB2082DE4D3B8F1000FAF
:1046D00004D0FFF755FF2046BDE8FC87FFF79EFF9B
:1046E000F9E70000000402402DE9FC4705460120DF
:1046F0008DF8040002201A4E4FF480478DF8050013
:10470000009769463046FDF79DFB4FF4005841463F
:104710003046FDF7ECFBB9460024474628064946DB
:10472000304602D4FDF7E3FB01E0FDF7E2FB68064B
:10473000050E022007F040FE39463046FDF7D9FB52
:10474000022007F039FE39463046FDF7D0FB022043
:1047500007F032FE641CE4B2082CDFD3BDE8FC870E
:10476000000402407CB501208DF804000220114DA8
:104770004FF480448DF80500009469462846FDF703
:1047800061FB21462846FDF7B4FB661031462846FA
:10479000FDF7AFFB032007F00FFE21462846FDF78B
:1047A000A6FB032007F008FE31462846FDF79FFBD5
:1047B0007CBD0000000402407CB501208DF804009F
:1047C0000220114D4FF480448DF805000094694695
:1047D0002846FDF737FB661031462846FDF787FB74
:1047E00021462846FDF783FB032007F0E5FD31460F
:1047F0002846FDF77EFB21462846FDF77AFB03207D
:1048000007F0DAFD7CBD0000000402402DE9FC4108
:104810000024184E4FF480458DF8044000958DF823
:10482000074069463046FDF70DFB29463046FDF747
:1048300060FB012007F0C0FD6F1039463046FDF7E0
:1048400058FB012007F0B8FD08E0641CE4B2FA2C24
:1048500004D9FFF7B1FF0120BDE8FC8129463046AD
:10486000FDF73EFB0028F0D139463046FDF73FFB0F
:104870000020F1E70004024002494AF6AA2008603D
:1048800070470000003000402DE9F0479CB0012146
:104890005E4802F057FD01214FF4E06002F076FD22
:1048A0004FF0806000905A4801900125594802A9B4
:1048B000002431C106A8EE026F034FF480784FF454
:1048C00000390594A0E8D003CDE90B45DFF848A1F5
:1048D0000D94694650460E94FDF7DCF801215046D0
:1048E000FDF7CEF84D4802A9CDE900404948DFF870
:1048F00028A1801C31C106A80594A0E8D003CDE909
:104900000B45AAF1180A0D94694650460E94FDF71E
:10491000C1F801215046FDF7B3F868060090404801
:1049200001903C4802A9001D31C106A80594A0E8E9
:10493000D003394ECDE90B4518360D946946304603
:104940000E94FDF7A7F801213046FDF799F83F20B6
:10495000032615908DF858608DF85B4015A93148F5
:10496000FDF770FA922015908DF858608DF85B4035
:1049700015A92D48FDF766FA17941894199417A8ED
:104980001A94FCF7CFFC0F948DF8404011941394C7
:104990001F4C8DF841504C3C8DF850500FA92046CB
:1049A000FCF7ECFC1E4D0FA94C3D2846FCF7E6FC3D
:1049B0001A4E0FA94C3E3046FCF7E0FC0121204680
:1049C000FCF7D2FC01212846FCF7CEFC0121304641
:1049D000FCF7CAFC01212046FCF7BCFC012128465B
:1049E000FCF7B8FC01213046FCF7B4FC012120465D
:1049F000FCF78EFC01212846FCF78AFC0121304699
:104A0000FCF786FC1CB0BDE8F08700000500400004
:104A10004C22014012000020286402404C2001403A
:104A20004C21014000080240000002401CB5012159
:104A3000082002F087FC4FF4FE40002400908DF81F
:104A4000044069460848FDF7FDF90121102002F0F5
:104A500079FC4FF4607000908DF80440694603487B
:104A6000FDF7F0F91CBD0000000C024000100240F0
:104A70004FF400410148FDF73ABA0000000C024033
:104A800010B54FF400410348FDF733FA02496420A2
:104A9000087310BD000C0240000000202DE9F04713
:104AA0000C46F9A1904699468CB091E82C00C96853
:104AB000DDF850A0CDE90251F7A1CDE9002391E83E
:104AC0002C00C968CDE90423CDE90651F6A104AE56
:104AD00091E82C00C96808AFCDE90A51611E6D4606
:104AE000CDE9082340B101287DD10F297CD8CCB273
:104AF000B8F1000F79D0D4E00F2974D8CCB2B8F156
:104B0000000F11D1385D012140F4E070FCF7FAFE8E
:104B1000285D012140F4E070FCF7F4FE305D0121D6
:104B200040F4E070FCF7EEFEB9F1000F11D1385DF2
:104B3000022140F4E070FCF7E5FE285D022140F41C
:104B4000E070FCF7DFFE305D022140F4E070FCF71E
:104B5000D9FEBAF1000F11D1385D032140F4E070A5
:104B6000FCF7D0FE285D032140F4E070FCF7CAFE9C
:104B7000305D032140F4E070FCF7C4FEB8F1010F92
:104B800011D1305D012140F4E070FCF7BBFE285DDF
:104B9000012140F4E070FCF7B5FE385D012140F4DE
:104BA000E070FCF7AFFEB9F1010F11D1305D0221C9
:104BB00040F4E070FCF7A6FE285D022140F4E070AE
:104BC000FCF7A0FE385D022140F4E070FCF79AFE8D
:104BD000BAF1010F15D1305D032140F4E070FCF70C
:104BE00091FE285D02E0B7E0C6E048E040F4E070E6
:104BF0000321FCF787FE385D032140F4E070FCF7E9
:104C000081FEB8F1020F11D1385D012140F4E0704E
:104C1000FCF778FE305D012140F4E070FCF772FE95
:104C2000285D012140F4E070FCF76CFEB9F1020F41
:104C300011D1385D022140F4E070FCF763FE305D75
:104C4000022140F4E070FCF75DFE285D022140F493
:104C5000E070FCF757FEBAF1020F7DD1385D0321F9
:104C600040F4E070FCF74EFE305D032140F4E0704C
:104C7000FCF748FE285D032140F4E070FCE0385D5D
:104C8000012140F4E070FCF73DFE285D012140F475
:104C9000E070FCF737FE305D012140F4E070FCF776
:104CA00031FEB9F1000F11D1385D022140F4E070FE
:104CB000FCF728FE285D022140F4E070FCF722FE9C
:104CC000305D022140F4E070FCF71CFEB8F1010FEA
:104CD00011D1305D012140F4E070FCF713FE285D36
:104CE000012140F4E070FCF70DFE385D012140F435
:104CF000E070FCF707FEB9F1010F11D1305D022120
:104D000040F4E070FCF7FEFD285D022140F4E07005
:104D1000FCF7F8FD385D022140F4E070FCF7F2FD8D
:104D2000B8F1020F11D1385D012140F4E070FCF7B9
:104D3000E9FD305D012140F4E070FCF7E3FD285D02
:104D4000012140F4E070FCF7DDFDB9F1020F13D151
:104D5000385D40F4E07000E08FE00221FCF7D2FD06
:104D6000305D022140F4E070FCF7CCFD285D0221AB
:104D700040F4E070FCF7C6FD113C0F2C7DD8E4B286
:104D8000B8F1000F11D1385D042140F4E070FCF758
:104D9000B9FD285D042140F4E070FCF7B3FD305DFF
:104DA000042140F4E070FCF7ADFDB9F1000F11D122
:104DB000385D052140F4E070FCF7A4FD285D052175
:104DC00040F4E070FCF79EFD305D052140F4E0709A
:104DD000FCF798FDB8F1010F11D1305D042140F4CA
:104DE000E070FCF78FFD285D042140F4E070FCF7D3
:104DF00089FD385D042140F4E070FCF783FDB9F1D2
:104E0000010F11D1305D052140F4E070FCF77AFD0F
:104E1000285D052140F4E070FCF774FD385D052144
:104E200040F4E070FCF76EFDB8F1020F11D1385D6F
:104E3000042140F4E070FCF765FD305D042140F48E
:104E4000E070FCF75FFD285D042140F4E070FCF7A2
:104E500059FDB9F1020F13D1385D052140F4E0701E
:104E6000FCF750FD305D052140F4E070FCF74AFD91
:104E7000285D052140F4E07000E001E0FCF742FD10
:104E80000CB0BDE8F0870000383B3033282B2023DE
:104E9000181B1013080B0003393C3134292C212432
:104EA000191C1114090C01043A3D32352A2D222512
:104EB0001A1D12150A0D02052DE9F0478EB00C4699
:104EC00015469846FEA1DDF8589091E84C00C96857
:104ED000CDE90823CDE90A61FDA10DF1200A91E891
:104EE0004C00C968CDE90023CDE90261FCA104AF03
:104EF00091E84C00C968CDE90423CDE90661611E43
:104F00006E4648B101287CD10F297BD8CCB2002D48
:104F100079D0032D77D0CDE00F2972D8CCB20DB166
:104F2000032D12D1385D012140F4E070FCF7EAFC5A
:104F30001AF80400012140F4E070FCF7E3FC305D56
:104F4000012140F4C070FCF7DDFCB8F1000F02D085
:104F5000B8F1030F12D1385D022140F4E070FCF784
:104F6000D1FC1AF80400022140F4E070FCF7CAFCFE
:104F7000305D022140F4C070FCF7C4FCB9F1000FB1
:104F800002D0B9F1030F12D1385D032140F4E07073
:104F9000FCF7B8FC1AF80400032140F4E070FCF7B9
:104FA000B1FC305D032140F4C070FCF7ABFC012D77
:104FB00012D1305D012140F4E070FCF7A3FC1AF837
:104FC0000400012140F4E070FCF79CFC385D0121F5
:104FD00040F4C070FCF796FCB8F1010F16D1305DBB
:104FE000022140F4E070FCF78DFC1AF80400022165
:104FF00040F4E070FCF786FC385D022140F4C0709C
:1050000002E0B7E0CCE042E0FCF77CFCB9F1010F34
:1050100012D1305D032140F4E070FCF773FC1AF804
:105020000400032140F4E070FCF76CFC385D0321C0
:1050300040F4C070FCF766FC022D0BD1385D0121F5
:1050400040F4C070FCF75EFC305D012140F4C0709C
:10505000FCF758FCB8F1020F0BD1385D022140F487
:10506000C070FCF74FFC305D022140F4C070FCF7CB
:1050700049FCB9F1020F7DD1385D032140F4C070C5
:10508000FCF740FC305D032140F4C07015E1385D51
:10509000012140F4E070FCF735FC1AF8040001210E
:1050A00040F4E070FCF72EFC305D012140F4C0704C
:1050B000FCF728FCB8F1000F02D0B8F1030F12D1B1
:1050C000385D022140F4E070FCF71CFC1AF8040083
:1050D000022140F4E070FCF715FC305D022140F441
:1050E000C070FCF70FFC012D12D1305D012140F49E
:1050F000E070FCF707FC1AF80400012140F4E070AE
:10510000FCF700FC385D012140F4C070FCF7FAFBAD
:10511000B8F1010F12D1305D022140F4E070FCF7CC
:10512000F1FB1AF80400022140F4E070FCF7EAFBFE
:10513000385D022140F4C070FCF7E4FB022D0BD176
:10514000385D012140F4C070FCF7DCFB305D0121CB
:1051500040F4C070FCF7D6FBB8F1020F0DD1385DFA
:10516000022140F4C070FCF7CDFB305D022140F419
:10517000C07000E095E0FCF7C5FB385D032140F40A
:10518000E070FCF7BFFB1AF80400032140F4E07064
:10519000FCF7B8FB305D032140F4E070FCF7B2FB94
:1051A000113C0F2C7DD8E4B20DB1032D12D1385D26
:1051B000042140F4E070FCF7A5FB1AF80400042178
:1051C00040F4E070FCF79EFB305D042140F4C070B9
:1051D000FCF798FBB8F1000F01D0032D12D1385D18
:1051E000052140F4E070FCF78DFB1AF8040005215E
:1051F00040F4E070FCF786FB305D052140F4C070A0
:10520000FCF780FB012D12D1305D042140F4E070E9
:10521000FCF778FB1AF80400042140F4E070FCF776
:1052200071FB385D042140F4C070FCF76BFBB8F1F2
:10523000010F12D1305D052140F4E070FCF762FBF4
:105240001AF80400052140F4E070FCF75BFB385DC0
:10525000052140F4C070FCF755FB022D0BD1385DE1
:10526000042140F4C070FCF74DFB305D042140F494
:10527000C070FCF747FBB8F1020F0BD1385D052178
:1052800040F4C070FCF73EFB305D052140F4C07077
:10529000FCF738FB385D062140F4E070FCF732FB88
:1052A00000E00CE01AF80400062140F4E070FCF77E
:1052B00029FB305D062140F4E070FCF723FB17E08A
:1052C000383B3033282B2023181B1013080B000306
:1052D000393C3134292C2124191C1114090C0104E6
:1052E0003A3D32352A2D22251A1D12150A0D0205C6
:1052F0000EB0BDE8F087FEE770474FF4A06000F005
:1053000033B8000070B50F21C478027801234FF044
:10531000E026E4B1124C246804F4E064C4F5E064CF
:10532000C4F30724C4F10405E1404478AC40857817
:105330000D4025430B4C29011155007800F01F0149
:105340008B40400906EB8000C0F8003170BD02F0D0
:105350001F008340500906EB8000C0F8803170BD0B
:105360000CED00E000E400E0024908430249086057
:10537000704700000000FA050CED00E070470000E7
:1053800070B505000E46144605D036B10E4880783B
:1053900028B112200DE004200BE00C2009E0287851
:1053A000012808D0022806D0032804D0042802D0FF
:1053B0000120107070BDFAF777FF6E61FAF778FF81
:1053C0000020207070BD0000A800002030B587B01C
:1053D00000F070F82A48002404638470C4700472DA
:1053E000C471C460C46184614461447084712146A5
:1053F00000F134025454491CC9B20829FAD304718B
:1054000044718462046201F049F801F01BF800F075
:10541000F3FF01F085F801F0A9F802AA0325202086
:1054200031C218494FF6FF70CDE9000101F17C024D
:105430003F230021144800F09FFA05AA13A13F2042
:1054400000F0F8FA02AA402031C214494FF6FE706B
:10545000CDE9000101F1FC023E230021104800F0DB
:105460008BFA05AA0FA13E2000F0E4FA00F090FCB0
:1054700000F026F807B0BDE83040FFF77FBF00001E
:10548000A80000202CBA00202967000875432F4F80
:10549000532D49492049646C650000002CB9002057
:1054A0004567000875432F4F532D494920537461B8
:1054B000740000000149002008807047A40000200B
:1054C000704700000449C879012804D18878FF2872
:1054D00001D2401C88707047A800002070B5144DA0
:1054E000E879012822D1FAF7DFFE0446A87820B136
:1054F000401E10F0FF00A87013D1E87888B901F0C1
:1055000079F80C48697950F82100A8622A7991420B
:1055100007D0C16B491CC163E868401CE860FAF71A
:10552000DFFE2046BDE87040FAF7C2BE70BD000045
:10553000A8000020ACBA002070B505460E480078DF
:1055400008B1002070BDFAF7AFFE01460B480468B1
:105550000CB1626802600846FAF7AAFE4CB101205D
:1055600020700020208106A065606061204600F068
:1055700039FF204670BD0000AA000020B8000020BE
:105580003F0000002DE9F04705008846144604D08E
:105590002878012803D001200AE0042008E02C48E4
:1055A000007808B1022003E02A48007820B10D20DD
:1055B00010700020BDE8F087FAF776FE6E680746A7
:1055C00000213EB1884638466960FAF771FE84F8DA
:1055D00000803AE0DFF880A08946DAF8000010F891
:1055E000342F42F002020270417040F8048C2846C9
:1055F00000F0CAFE3846FAF75BFE00F0D7FFFAF774
:1056000053FE0746DAF8000090F8351031B1022950
:1056100008D0294600F088FE0A2004E0466A84F893
:10562000009001E00E202070DAF80010384601F1F9
:105630001C0181F8189081F81990C1F80090C1F808
:105640000490C1F80890FAF733FE3046B2E7000044
:10565000AA000020AB000020C800002070B50400A4
:105660000D4605D035B12078012805D0012070BD48
:10567000042070BD032070BDFAF716FE0646A07A1E
:1056800058B1002302222946204600F011FE304680
:10569000FAF70EFE00F08AFF0AE0606820B130469B
:1056A000FAF706FE142070BD30466560FAF700FE7A
:1056B000002070BD10B5094CE07901280CD1FAF733
:1056C000F3FDA17821B9E178FF2901D2491CE170ED
:1056D000BDE81040FAF7ECBD10BD0000A8000020A6
:1056E00010B50D4CE079012814D1FAF7DDFDE17811
:1056F00031B1491E11F0FF01E17001D1A17819B15A
:10570000BDE81040FAF7D4BDFAF7D2FDBDE810406D
:1057100000F04CBF10BD0000A800002070B5054689
:105720000E48007808B1002070BDFAF7BDFD0146B3
:105730000B4804680CB1626802600846FAF7B8FDCD
:105740004CB10320207025810020606005A06061BD
:10575000204600F047FE204670BD0000AA00002051
:10576000B80000203F0000002DE9F0470500884602
:10577000144604D02878032803D001200AE004202E
:1057800008E02648007808B1022003E024480078A9
:1057900018B10D201070BDE8F087FAF785FD0646B8
:1057A0002889002730B1401E28813046FAF780FD55
:1057B0002770F0E7DFF86C90D9F8000010F8341F7C
:1057C00041F001010170477040F8048C284600F058
:1057D000DBFD3046FAF76CFD00F0E8FEFAF764FDF9
:1057E0000646D9F8000090F8351031B1022906D0EC
:1057F000294600F099FD0A2002E0277001E00E2002
:105800002070D9F8000000F11C0007764776076089
:1058100047603046BDE8F047FAF74ABDAA000020CD
:10582000AB000020C800002070B5040004D0207830
:10583000032803D0012070BD042070BDFAF734FDA9
:105840000546A07A58B1002301221946204600F0EF
:105850002FFD2846FAF72CFD00F0A8FE09E020896C
:105860004FF6FF71884206D2401C20812846FAF785
:105870001FFD002070BD2846FAF71AFD332070BDC9
:1058800010B5094CE07900280CD100F0B3FE607926
:105890000649207151F82000A0622062BDE8104046
:1058A000FAF709BD10BD0000A8000020ACBA002026
:1058B00010B5022000F0C6F9FAF7F6FC084C0021FA
:1058C000E161FAF7F5FC642000F0BCF9FAF7ECFCB2
:1058D000E169616101216170BDE81040FAF7E8BC3F
:1058E000A8000020FBF7F3BD2DE9FE4305460F4657
:1058F00090461C463F2B02D92A20BDE8FE83FAF7CA
:10590000D3FC1A49097819B1FAF7D2FC3C20F4E724
:10591000174E56F8241019B1FAF7CAFC2820ECE704
:10592000012146F82410FAF7C3FC00234246394609
:10593000284600F0FBF800270146009701973B46F8
:105940003A462046029700F065FE050007D0FAF7B8
:10595000ABFC46F82470FAF7ABFC2846CDE70548C7
:1059600000780128F9D100F021FEF6E7AA00002016
:10597000ACBA0020AF0000202DE9F04F81462DED9C
:10598000028B83B08A46DDE90F879DED118A129D57
:1059900093461C463F2B05D92A2003B0BDEC028B51
:1059A000BDE8F08FFAF780FC1D49097819B1FAF7C4
:1059B0007FFC3C20F1E71B4E56F8241019B1FAF792
:1059C00077FC2820E9E7012146F82410FAF770FC5B
:1059D0002A463946404600F0FDFE2B465A465146BF
:1059E000484600F0A3F800978DED018A0146029524
:1059F000424620460E9B00F00DFE050008D0FAF747
:105A000053FC002146F82410FAF752FC2846C4E75C
:105A1000054800780128F9D100F0C8FDF6E700003C
:105A2000AA000020ACBA0020AF000020FBF79CBD0C
:105A3000FBF79CBD70B505460E4614463F2803D9BA
:105A4000FF2D01D02A2004E02EB11248007820B1A9
:105A50001220107070BD0C20FBE7FAF725FC014600
:105A6000FF2D03D10C48006890F836500B4850F8D1
:105A70002500432540B1012806D006650846FAF7FF
:105A800017FC0020207070BD0846FAF711FC257045
:105A900070BD0000AA000020C8000020ACBA0020A1
:105AA000FBF7F6BE2DE9F04104460D463F2804D928
:105AB000FF2C02D02A20BDE8F08145B100202860EB
:105AC0006860FAF7F1FB0146FF2C02D005E00920DF
:105AD000F1E71448006890F83640134850F8240065
