:020000040800F2
:1000000070D40020290200083F5C0008C94E000897
:100010003D5C0008A51800085D860008000000008F
:10002000000000000000000000000000F57F000854
:100030008D1A000800000000AB020008A98100082A
:10004000430200084302000843020008430200087C
:10005000430200084302000843020008430200086C
:10006000430200084302000843020008430200085C
:10007000430200084302000843020008430200084C
:10008000430200084302000843020008430200083C
:100090004302000843020008430200089D1B0008B9
:1000A000430200084302000843020008430200081C
:1000B0002982000843020008D18200084302000898
:1000C00043020008430200084302000843020008FC
:1000D000430200084302000825840008F584000854
:1000E000911A000843020008430200084302000876
:1000F00043020008430200084302000843020008CC
:1001000043020008430200084302000843020008BB
:1001100043020008430200084302000843020008AB
:10012000430200084302000843020008430200089B
:10013000430200084302000843020008430200088B
:10014000430200084302000843020008430200087B
:10015000430200084302000843020008430200086B
:10016000430200084302000843020008430200085B
:10017000430200084302000843020008430200084B
:10018000430200084302000800F002F800F03CF8C7
:100190000AA090E8000C82448344AAF10107DA45E2
:1001A00001D100F031F8AFF2090EBAE80F0013F0F8
:1001B000010F18BFFB1A43F001031847CC49010097
:1001C000EC490100103A24BF78C878C1FAD8520728
:1001D00024BF30C830C144BF04680C6070470000C1
:1001E0000023002400250026103A28BF78C1FBD840
:1001F000520728BF30C148BF0B6070471FB50EF0D3
:10020000B0F81FBD10B510BD00F054FF1146FFF748
:10021000F5FF0CF0FDFF00F072FF03B4FFF7F2FFF3
:1002200003BC00F073FF00000948804709480047FD
:10023000FEE7FEE7FEE7FEE7FEE7FEE7FEE7FEE796
:10024000FEE7FEE704480549054A064B70470000F3
:10025000CD8100088901000870CE002070D40020F4
:1002600070D0002070D00020EFF3108072B670477D
:1002700080F3108870471D484FF0FF010170002087
:1002800080F309881A48012101701A484FF0805103
:10029000016062B6FEE717484FF080510160704779
:1002A00014484FF080510160704772B6EFF3098037
:1002B00028B1203880E8F00F0F490968086000B5C0
:1002C0000E4880475DF804EB0D480E490A7802702D
:1002D00009480D490A680260106890E8F00F203064
:1002E00080F309884EF0040E62B6704722ED00E0FC
:1002F0008F00002004ED00E0A800002085650008C4
:100300008C0000208D000020B000002072B67047E5
:1003100062B67047EFF3108072B6704780F31088B2
:100320007047B0FA80F0704790FAA0F0704730BF85
:10033000704720BF70470000DFED2E0AB5EEC00AFF
:1003400060EE200ABDEEE01A11EE100AF1EE10FA8E
:1003500038BF401E00EE100ADFED271AF7EE005AF4
:10036000B8EEC00ADFED274A244930EEC01A21EE6C
:10037000210AFCEEC00A10EE900A00EE900A01EB92
:100380008000B8EE600ADFED1E0AF0EC012A11EEE3
:10039000210AF6EE001AB0EC013AF0EC013A20EE38
:1003A000001A20EE216A40EE615A20EE245A21EE16
:1003B000212A90ED004A00EE602A66EE010A40EE26
:1003C000400A05EE412A70EEA55AF0EE400A41EED1
:1003D000210A46EE410A25EE011A00EE641A22EEC9
:1003E000820A63EEA00A03EE250A44EE010A30EE0B
:1003F000200A704783F9223E00008043D8E40008B9
:10040000ABAAAA3EABAA2A3E9FED3A0A5FEA920C3B
:1004100053D000BFB0EC011A0B1DF0EC010A21EE25
:10042000011A00EEA01AB5EEC01AF1EE10FAC6BF1E
:10043000F1EEC10AC1ED000A81ED000AF0EC010AFB
:10044000191DB0EC011A60EEA00A41EE010AF5EEAA
:10045000C00AF1EE10FAC6BFF1EEE00AC3ED000AE1
:1004600083ED000AB0EC011A0B1DF0EC010A21EE3D
:10047000011A00EEA01AB5EEC01AF1EE10FAC6BFCE
:10048000F1EEC10AC1ED000A81ED000AB0EC011ADB
:10049000191DF0EC010A21EE011A00EEA01AB5EECA
:1004A000C01AF1EE10FAC6BFF1EEC10AC3ED000AA0
:1004B00083ED000ABCF1010CACD112F0030208BFBD
:1004C000704700BFF0EC010A0B46B0EC011A091DA1
:1004D00060EEA00A41EE010AF5EEC00AF1EE10FA54
:1004E000C6BFF1EEE00AC3ED000A83ED000A521E1A
:1004F000E8D17047000000002DE9F00700EBC109CA
:10050000DDE90778D0F800A0C9F800A007EB0114D6
:10051000D0F804A0251FA9F10406C9F804A003EB34
:10052000C80907F1080C00F1080402EBC8024B1ED1
:1005300031D000BFF2EC011A96ED002A92ED001ABC
:1005400002EBC802B4EC010A121FF4EC012A60EEBF
:10055000210A20EE010A32EE823A02EEA10AD9ED1A
:10056000001A43EE410A09EBC80902EE610A16EDD2
:10057000012A083E42EE210A02EE410AECEC010A91
:10058000ACEC010AB1EE400A85ED000A45ED010A26
:10059000083D5B1ECED190ED000AD0ED010A07EBBD
:1005A000C10130EE600A81ED000A9FED5D0A81ED28
:1005B000010AD0ED000A90ED011A70EE810AC7ED34
:1005C000000A87ED010ABDE8F007704770B400EB40
:1005D000C105DDE903C42D1D002904BF70BC7047AF
:1005E000F2EC011A95ED002A92ED001A02EBC4021A
:1005F000B0EC010A121FF0EC012A60EE210A20EE95
:10060000410A32EE823A02EEA10AD3ED001A43EE1D
:10061000010A03EBC40302EE610A15ED012A083D4D
:10062000491E42EE210A02EE010AECEC010AACEC92
:10063000010AD5D170BC70472DE9F04305464469E5
:10064000807983B00F461646012809D0A3892188F6
:100650003846626800F036F9E87901284ED053E058
:10066000AA88D5E9030307EBC20CD5F80880314608
:100670000CF1040C5AB300BFB0EC011A9CED002A37
:10068000D0ED001A00EBC800B7EC010A001FF7EC30
:10069000012A521E60EE010A20EE610A32EE823A11
:1006A00002EE810A93ED001A43EE210A03EBC80320
:1006B00002EE410A1CED012AACF1080C42EE010ADF
:1006C00002EE210AE1EC010AA1EC010AD4D194ED79
:1006D000040AA38921883046626800F095FAE87917
:1006E00001281CBF03B0BDE8F083E2892188A3681C
:1006F00003B03046BDE8F04300F08CB8E2892188B1
:100700003846A36800F086F8A868CDE90060D5E90E
:100710000323A9883846FFF7EFFE03B0BDE8F08356
:100720000000000070B592B2DDF810C055080260FC
:100730008580184EC66006F50056DBB206610024BF
:10074000837180F807C0802A04BF102282600BD01A
:10075000B2F5007F08BF042212D0B2F5006F14BFBB
:100760004FF0FF3401220BD0002B8C4641614FF03B
:10077000000307D001222946604600F015FC06E080
:100780008260F1E700222946604600F00DFC204619
:1007900070BD0000E4E8000870B40025B0EC010A68
:1007A000A1F1010CF0EC010AB4EEE00AF1EE10FA4E
:1007B0003CBFB0EE600A0125ACF10104A446B4F1DF
:1007C000004F0ED3F0EC010AB4EEE00AF1EE10FA9D
:1007D0003CBFB0EE600AA1EB0C05BCF1010CF1D1FD
:1007E00013E0002CC8BF00260FDD00BFF0EC010AAB
:1007F000B4EEE00AF1EE10FA04D2ACEB0605B0EE6E
:10080000600A4D1B761C641EF0D182ED000A1D604B
:1008100070BC70472DE9F0014E0801244FF0000C28
:1008200004EB51076146A6F102082CE061452AD28B
:1008300000EBCC0500EBC104D5ED000A94ED000AF5
:10084000C4ED000A85ED000AD5ED010A94ED010A18
:10085000C4ED010A85ED010A0CEB0705CC1900EB8C
:10086000C50500EBC404D5ED000A94ED000AC4ED03
:10087000000A85ED000AD5ED010A94ED010AC4EDE8
:10088000010A85ED010A00EBC104B44400EBCC0C75
:1008900094ED020ADCED000A891CC4ED020A8CED1D
:1008A000000A94ED030ADCF80450E5608CED010ABF
:1008B000B3F800C089B203EB42034145B6D9BDE8A5
:1008C000F00170472DE9F04F4FEA910C4FF000080E
:1008D0004746644608EB0C0505EB0C0909EB0C06D2
:1008E00000EBC80A00EBC9099AED000AD9ED000A2D
:1008F00099ED012A00EBC50530EE201A30EE600AB2
:10090000DAED010A00EBC60608F1010870EE821A62
:1009100070EEC20A95ED002AD6ED002A641E32EE72
:10092000222A71EE022A31EE421ACAED002A95ED12
:10093000012AD6ED012A32EE222A71EE822A71EEC8
:10094000C21ACAED012A95ED012AD6ED012A96EDCB
:10095000003A4FEA470A32EE622AD5ED002A02EB4E
:10096000CA0B72EEC32A9BED003ADBED013A21EE91
:10097000034A01EEA34A61EE831A41EE631A85ED44
:10098000004A30EE021A30EE420AC5ED011A02EBBF
:10099000C70570EEE21A95ED002A70EEA20AD5EDB9
:1009A000012A21EE023A0AEB070502EBC5051F44B6
:1009B00001EEA23A61EE821A41EE621A89ED003A26
:1009C000C9ED011AD5ED001A95ED011A20EE212A84
:1009D00000EE812A60EEA10A40EE410A86ED002A6F
:1009E000C6ED010A7FF476AF9B044FEA134BE6464F
:1009F000BCF1040F7DD9E0464FEA9C0C4FF0000992
:100A0000CA46BCF1000F75D94FEA490404EB09034B
:100A100002EBC90502EBC40402EBC30395ED001A17
:100A2000D5ED011A94ED000AD4ED010A93ED002AE8
:100A3000D3ED012AD94453468A4573D203EB0C0403
:100A400004EB0C0606EB0C0500EBC30700EBC60637
:100A500097ED003AD6ED003A96ED015A00EBC4044A
:100A600073EE234A33EE633AD7ED013A00EBC50546
:100A700033EE854A73EEC53A94ED005AD5ED005A2F
:100A800035EE255A74EE855A74EEC54AC7ED005A04
:100A900094ED015AD5ED015A35EE255A74EE055AFA
:100AA00034EE454AC7ED015A94ED015AD5ED015A8D
:100AB00095ED006A35EE655AD4ED005A75EEC65ACA
:100AC00024EE806A04EE206A24EE004A04EEE04A36
:100AD00084ED006A73EEE54A73EEA53A84ED014AAF
:100AE00033EE054A33EE453A24EE015A04EEA15A9C
:100AF00001E026E01BE064EE814A86ED005A4344A3
:100B00008B4244EE614A23EE024A03EEA24A63EEB0
:100B1000823AC6ED014A43EE623A85ED004AC5EDE0
:100B2000013A8BD30AF1010AE245FFF46DAF4FEAB7
:100B30008B434FEA9E0E4FEA134BBEF1040F3FF674
:100B40005AAFA1EB0C0100224B1C4FEA9C04002B76
:100B50008CBF1F46BDE8F08F11190E19331900EB39
:100B6000C20500EBC60695ED000AD6ED000A95ED2C
:100B7000012A96ED011A70EE201A70EE600A32EE2C
:100B8000010A00EBC10100EBC30332EE411A91ED03
:100B9000002AD3ED002A6244974232EE222A71EEF7
:100BA000822A31EEC22AC5ED002AD1ED011AD3ED19
:100BB000012A71EEA21A70EE212AC5ED012A70EE0B
:100BC000612A91ED010AD3ED011A93ED003A70EE1E
:100BD000611A91ED000A81ED002AC1ED012A30EE83
:100BE000430A30EEA12A70EEE10A71EE401A31EEAE
:100BF000000A86ED002AC6ED011AC3ED000A83ED56
:100C0000010AA9D8BDE8F08F2DE9F04F4FEA910C09
:100C10004FF000084746644608EB0C0505EB0C0A4C
:100C20000AEB0C0600EBC80900EBCA0AD9ED000A72
:100C30009AED001ADAED012A00EBC50570EE811A73
:100C400070EEC10A99ED011A00EBC60608F1010821
:100C500031EE222A31EE621AD5ED002A96ED003AE5
:100C6000641E72EE832A31EEA23A71EEE21A89ED29
:100C7000003AD5ED012A96ED013A72EE832A32EE62
:100C8000223A32EE622A89ED013AD5ED012A96ED3B
:100C9000013AD6ED003A4FEA470972EEC32A95EDC4
:100CA000003A02EBC90B33EE633ADBED003A9BED01
:100CB000014A61EEA34A42EE444A22EE232A01EEA3
:100CC000842AC5ED004A70EEE21A70EEA20A85EDA4
:100CD000012A02EBC70531EE032AD5ED002A31EED9
:100CE000431A95ED013A61EEA23A09EB070502EBD2
:100CF000C5051F4442EE433A22EE222A01EE832A22
:100D0000CAED003A8AED012AD5ED001A95ED012AC7
:100D100060EEA12A41EE422A21EE211A00EE821A4B
:100D2000C6ED002A86ED011A7FF476AF9B044FEAE8
:100D3000134BE646BCF1040F7DD9E0464FEA9C0C0C
:100D40004FF00009CA46BCF1000F75D94FEA4904BB
:100D500004EB090302EBC90502EBC40402EBC30375
:100D6000D5ED001A95ED012AD4ED000A94ED011A93
:100D7000D3ED002A93ED013AD94453468A4573D204
:100D800003EB0C0404EB0C0606EB0C0500EBC307AD
:100D900000EBC606D7ED003A96ED004AD6ED015AB3
:100DA00000EBC40433EE845A73EEC43A97ED014A63
:100DB00000EBC50574EE254A34EE654AD4ED005AC1
:100DC00095ED006A75EE865A35EE256A35EE655A60
:100DD00087ED006AD4ED015A95ED016A75EE865AE9
:100DE00034EEA56A74EEE54A87ED016AD4ED015A46
:100DF00095ED016AD5ED006A75EEC65A94ED006A6C
:100E000036EE666A65EE206A44EEC16A64EEA04A78
:100E100045EE014AC4ED006A34EE065A34EE464A05
:100E2000C4ED014A73EEE54A73EEA53A64EEA15AA9
:100E300045EE425A01E026E01BE025EE215AC6EDC0
:100E4000005A43448B4204EE825A63EEA24A44EEB7
:100E5000434A24EE224A86ED015A03EE834AC5ED49
:100E6000004A85ED014A8BD30AF1010AE245FFF4FD
:100E70006DAF4FEA8B434FEA9E0E4FEA134BBEF124
:100E8000040F3FF65AAFA1EB0C0100224B1C4FEAB6
:100E90009C06002B8CBF1F46BDE8F08F91198D1961
:100EA000AB1900EBC20400EBC505D4ED000AD5ED8B
:100EB000001AD4ED012A95ED012A30EEA11A70EE48
:100EC000E11A72EE820A00EBC10100EBC30332EEBD
:100ED000C22AD1ED002A93ED003A6244974272EEA5
:100EE000832A31EE223A71EE622A23EE003A62EE54
:100EF000802A84ED003A91ED011A93ED013A31EE2A
:100F0000031A30EE813A23EE003A84ED013A30EED6
:100F1000C13AD1ED010A93ED011AD3ED003A30EE5A
:100F2000C11AD1ED000AC1ED002A63EE002A70EE6D
:100F3000E30AC1ED012A71EEC12A31EE811A72EE87
:100F4000201A72EE600A22EE802A21EE001A61EE6B
:100F5000801A85ED002A60EE800AC5ED011A83ED46
:100F6000001AC3ED010A99D8BDE8F08F30B50446E8
:100F70000D4680782188A389626801280DD0284613
:100F8000FFF7A0FCE078012818BF30BDE289218876
:100F90002846A368BDE830403CE494ED040A2846A6
:100FA000FFF732FEEEE7000010B401801B4C4460F6
:100FB00082704FF0000CC370102925D040291BD03F
:100FC000B1F5807F10D0B1F5806F18BF4FF0FF3CB6
:100FD00002D010BC6046704701218181C181104957
:100FE0009FED100A816016E004218181C1810E49C4
:100FF0009FED0E0A81600EE010218181C1810C49B4
:101000009FED0C0A816006E040218181C1810A497F
:101010009FED0A0A816080ED040ADAE7E4280108FE
:10102000E44801080000803AEA4801080000803BDB
:10103000024901080000803C624901080000803D2F
:1010400010B5203AC0F00B80B1E81850203AA0E863
:101050001850B1E81850A0E81850BFF4F5AF5FEA97
:10106000027C24BFB1E81850A0E8185044BF18C94A
:1010700018C0BDE810405FEA827C24BF51F8043BF1
:1010800040F8043B08BF7047D20728BF31F8023B45
:1010900048BF11F8012B28BF20F8023B48BF00F8D9
:1010A000012B704770477047704700000048704739
:1010B0000CCE00207546FFF7F9FFAE4605006946E5
:1010C000534620F00700854618B020B5FFF7BAF860
:1010D000BDE820404FF000064FF000074FF0000839
:1010E0004FF0000B21F00701AC46ACE8C009ACE8BA
:1010F000C009ACE8C009ACE8C0098D467047044699
:10110000AFF300802046FFF788F8704701491820A8
:10111000ABBEFEE72600020010B5064C01220023FC
:101120001146204600F030F92046BDE8104000F09E
:1011300065B900000020014010B5064C00230122D3
:101140000C21204600F020F92046BDE8104000F0B8
:1011500055B900000020014010B5064C00230122C3
:101160000421204600F010F92046BDE8104000F0B0
:1011700045B900000020014010B5064C00230122B3
:101180000721204600F000F92046BDE8104000F09D
:1011900035B900000020014070B59CB001212F48F6
:1011A00006F0E2FD01214FF4E06006F001FE4FF091
:1011B000007000902A4801902A4802A900240125C5
:1011C00031C1E802CDE90640800008904011099045
:1011D0000AA90594400231C1234E0D946946304658
:1011E0000E9400F029FC0121304600F01BFC032086
:1011F0008DF8680019958DF86B4019A91B4800F00F
:1012000039FE15941694179415A8189400F06AF8EE
:101210000F948DF8404011941394114C8DF8415067
:101220004C3C8DF850500FA9204600F087F8002361
:1012300001220821204600F0A7F80121204600F0F5
:1012400073F80121204600F065F80121204600F0E6
:101250003FF8204600F0D2F81CB070BD02004000FC
:101260004C21014012000020406402400004024072
:1012700010B5064C002301220A21204600F084F814
:101280002046BDE8104000F0B9B80000002201403F
:1012900010B5064C002301220B21204600F074F803
:1012A0002046BDE8104000F0A9B80000002201402F
:1012B00010B5064C002301220C21204600F064F8F2
:1012C0002046BDE8104000F099B80000002201401F
:1012D0000029816802D041F0010101E021F0010103
:1012E00081607047094B10B51A68094902EA01028A
:1012F000D0E9001441EA0401D0E9024044EA0004C4
:1013000041EA040141EA0201196010BD04230140D1
:10131000E030FCFF0029816802D041F4807101E0D7
:1013200021F48071816070470029816802D041F406
:10133000007101E021F400718160704730B54268AE
:101340000F4B0C791A400B6842EA042213434360A6
:1013500082680C4B4D791A40D1E9034323438C68D2
:1013600044EA4504234313438360C26A097D22F49F
:101370007002491EC9B242EA0151C16230BD00008B
:10138000FFFEFFFCFDF7FFC070B5072509290AD94C
:10139000C468A1F10A0606EB4606B540AC43B3406B
:1013A0001C43C46007E0046901EB4106B540AC434F
:1013B000B3401C4304611F23072A09D2446B521E09
:1013C00002EB820293409C4391400C43446370BD06
:1013D0000D2A09D2046BD21F02EB820293409C4378
:1013E00091400C43046370BDC46A0D3A02EB820263
:1013F00093409C4391400C43C46270BD816841F0AE
:1014000080418160704703F08BBD10B5044603F046
:101410004FFEA02003F00EFE03F09EFE200A03F014
:1014200009FE03F099FEE0B203F004FE03F094FE1F
:1014300003F03EFEA12003F0FDFD03F08DFE002031
:1014400003F0BCFD044603F05DFE204610BD70B500
:1014500004460D4603F02CFEA02003F0EBFD03F044
:101460007BFE200A03F0E6FD03F076FEE0B203F017
:10147000E1FD03F071FE284603F0DCFD03F06CFE95
:1014800003F040FEBDE870400A200BF0DDB9704764
:1014900038B5002004F0F2FC174C2064002004F062
:1014A000EDFC6064002004F0DBFDE064002004F04B
:1014B000E5FCA064002004F0D3FD20656A460FA17E
:1014C0000A2004F059FF03230F4A00210F4804F0BB
:1014D000ADFE02230E4A00210E4804F0A7FE0123B0
:1014E0000D4A00210D4804F0A1FE00230C4A1946C4
:1014F0000C4804F09BFE38BD00000020537461725C
:1015000074205461736B00004415002031150008ED
:1015100044B500201118000844B6002071170008D7
:1015200044B700205DD8000805F068BA7047000095
:1015300008B58B4F8B4EDFF830B28C4D05F0F8FDBF
:10154000387801287DD14FF400594946304600F0E3
:10155000DFFC00284FD1287B696D08F031FA044682
:1015600001282DD15A46287BDBF8101008F028FA04
:101570000346287B116808F023FA8446687313B188
:10158000012B15D01CE09046287B516808F018FA12
:101590000246287BD8F8081008F012FA0346287B88
:1015A000D8F80C1008F00CFA0090297B687B05E055
:1015B0000220009003460246297B604604F030F981
:1015C000287B401C28734946304600F0A1FC0028C7
:1015D000F9D0287B202801D901202873C2B208E065
:1015E0001046696D08F0ECF9044601280BD0521C36
:1015F000D2B2202AF4D94FF400694946304600F0AF
:1016000087FC30B154E05848002114302A734173EC
:10161000F1E7287B696D08F0D3F9044601282DD144
:10162000D846287BDBF8101008F0CAF90246287B60
:10163000D8F8001008F0C4F968731AB1012A16D05E
:101640001CE088E0287BD8F8041008F0B9F90246BD
:10165000287BD8F8081008F0B3F90346287BD8F89F
:101660000C1008F0ADF90090297B687B04E00221A2
:101670000B460A460091297B04F0D2F8287B401ED5
:1016800028734946304600F043FC0028F9D0287BF7
:1016900008B920202873C2B208E01046696D08F02E
:1016A0008FF90446012806D0521ED2B2002AF4D186
:1016B000012C05D04FE02C49002014312A734873C7
:1016C000D846287BDBF8101008F07AF90246287B10
:1016D000D8F8001008F074F98446687312B1012A32
:1016E00024D038E0287BD8F8041008F069F9824645
:1016F000287BD8F8081008F063F98146287BD8F8D1
:101700000C1008F05DF98046A879012807D1CDF8C2
:1017100000804B465246297B687B04F081F8A8790B
:10172000C8B94B465246CDF8008010E0A879012890
:1017300007D10220009003460246297B604604F050
:101740006FF8A87938B90220034602460090297B39
:10175000687B03F057FE64200BF076F8EEE600009D
:1017600022010020000C024048B7002000000020A9
:101770001CB51D4F1D4C4FF480760025A07A012822
:101780002ED1E06C04F0F2FC3146384600F0C0FB8C
:10179000012801D1022060723146384600F0B8FBC2
:1017A000F0B9E08DE0B1401EE0854FF02F08DFF882
:1017B0004090CDE90058012399F801001A46002114
:1017C0000BF064FDCDE9005899F8010002230122D5
:1017D00000210BF05BFDE08D012801D16572E585EC
:1017E00064200BF031F8C9E700100240000000202F
:1017F0006AB7002010B504F0FDFCFFF749FEBDE814
:1018000010400A2004F066BE704705F0FFB80000E3
:101810001CB5204D0126DFF88080204C022701AA4C
:101820000021E86C04F042FC1C4B0094143B03F1D3
:10183000EE02A2F1C601A1F5B9700BF0C9FD174B7C
:101840000096A3F1140202F12801A1F5B9700BF082
:1018500045F8124B0097A3F1140202F1EE01A1F535
:101860000E700BF03BF80D491439A1F5A5700BF083
:10187000ADF998F800000028D1D1084B0094143B32
:1018800003F1EE02A2F1C601A1F5B97008F09EF8CD
:10189000C5E7000000000020220100208602002091
:1018A00005F0C6B8FEE700002DE9F0470646481EE1
:1018B0000C46052821D8374F00254FF400794FF406
:1018C0008078F0074946384602D000F02AFB01E054
:1018D00000F025FB4146384600F021FB7608042045
:1018E0000AF0D0FF4146384600F01BFB04200AF006
:1018F000C9FF6D1CEDB20C2DE3D3274D012C19D07F
:10190000022C20D0032C27D0042C2ED0052C35D02F
:10191000062C3CD12021284600F003FB04200AF0CD
:10192000B1FF2021284600F0FAFABDE8F047042074
:101930000AF0A8BF0121284600F0F3FA04200AF0BB
:10194000A1FF0121EEE70221284600F0EAFA042077
:101950000AF098FF0221E5E70421284600F0E1FAA9
:1019600004200AF08FFF0421DCE70821284600F05C
:10197000D8FA04200AF086FF0821D3E71021284670
:1019800000F0CFFA04200AF07DFF1021CAE7BDE87D
:10199000F087000000040240000C02407CB50121E9
:1019A000022006F0E1F901244FF440708DF8044064
:1019B000002500908DF8065002268DF805606946D6
:1019C0000E4800F057FA0121082006F0CDF93F201B
:1019D0008DF8044000908DF806508DF8056069463A
:1019E000074800F047FA40F2014521462846FFF734
:1019F0005BFF641CE4B2052CF7D97CBD00040240F7
:101A0000000C024070B5002500240021284606F095
:101A10004DFE641CE4B2042CF7D36D1CEDB2202DF6
:101A2000F2D370BD0029016802D041F0010101E04C
:101A300021F001010160704730B50368124ACC689B
:101A400013400A682243D1E905452C432243CC695F
:101A500022430C6A22434C6A22438C6A22434C6B19
:101A600022438C6B22431A430260426922F007032F
:101A7000D1E90B2422431A4342610A6942604A6851
:101A800082608968C16030BD3F801CF070470000F3
:101A90002DE9FC5F04F0B8F94FF4805B584600F084
:101AA00061F9DFF8F090DFF8E8803B4C4FF0000A76
:101AB0002F2509F10E0620B398F80000012820D147
:101AC000607B012812D1CDE900A50123574670782B
:101AD0001A46217B0BF0DAFBCDE900757078022302
:101AE0000122217B0BF0D2FB89F80D70607B40B99D
:101AF0000620CDE90005012370781A46217B0AF003
:101B000025FE584600F08AF84FF4804B584600F006
:101B100029F9A8B398F80000012831D1607B012889
:101B200023D199F80C004F464FF0010810B101285D
:101B30000DD01AE0787B18BBCDE9008501237078C1
:101B40001A46217B0BF0A2FB87F80C800BE0787B18
:101B500058B9CDE90085707802230122217B0BF072
:101B600095FB87F80CA087F80D80607B40B90720B3
:101B7000CDE90005012370781A46217B0AF0E6FDC5
:101B8000584600F04BF8BDE8FC5F04F049B900008E
:101B9000220100205CB70020000000202DE9FC415C
:101BA00004F032F94FF48074204600F0DBF810B1F5
:101BB00017491420C885204600F030F84FF400770C
:101BC000384600F0CFF8D8B14FF47A700AF05AFED8
:101BD0003946104800F09CF990B900252F240E4E8C
:101BE000CDE90054012370781A4629460BF04EFBCC
:101BF000CDE9005470780223012200210BF046FB4E
:101C0000384600F00BF8BDE8FC4104F009B90000CB
:101C100000000020000C02406AB700200149086063
:101C200070470000143C01402DE9F0434FF4804917
:101C300085B00121484606F0BBF80121102006F0CE
:101C400093F84FF48077002503978DF8105003A97F
:101C50003F4800F00FF90821042006F0CDF98DF877
:101C600004500C268DF80560012400978DF806407D
:101C7000684600F087F84FF017088DF808800220BA
:101C80008DF809008DF80A008DF80B4002A803F0CA
:101C9000DBFF384600F05EF80921032006F0ACF9BE
:101CA0008DF8045067028DF8056000978DF80640A6
:101CB000684600F067F88DF808808DF809408DF8C7
:101CC0000A408DF80B4002A803F0BEFF384600F032
:101CD00041F80C21032006F08FF98DF804502703FA
:101CE0008DF8056000978DF80640684600F04AF8C8
:101CF0004FF028088DF808808DF809408DF80A40CB
:101D00008DF80B4002A803F09FFF384600F022F840
:101D10000E21032006F070F98DF804508DF805604F
:101D2000CDF800908DF80640684600F02BF88DF84D
:101D300008808DF809408DF80A408DF80B4002A804
:101D400003F082FF484600F005F805B0BDE8F083D7
:101D50000010024002490A6802430A60704700000E
:101D6000103C0140064A014600201268044B0A401C
:101D700014331B680B4202D0002A00D001207047A8
:101D8000003C014030B51B498379026863B30B689E
:101D900093430B600A1D13680468A3431360027920
:101DA0000A441368046823431360124A0832136814
:101DB0000468A3431360131D1C680568AC431C60D2
:101DC00090F805C0BCF1100F05D061440A680068A6
:101DD00002430A6030BD116804682143116019682C
:101DE00000680143196030BD0079084401689143DF
:101DF000016030BD003C01401CB50121082005F008
:101E0000B3FF4FF43F40009001208DF80400002103
:101E10008DF8061003218DF805108DF8070069462E
:101E2000134800F027F803F01FF8FFF7ECFA03F06F
:101E3000B1FAFFF7B3FDFFF7AFF903F0D9F94FF4AB
:101E4000165006F00DF840F27121042003F0C2F99B
:101E500041F61F44214641F2873006F04FFA2146F1
:101E600040F69F7006F004FAFFF7DEFE1CBD00008E
:101E7000000C0240F0B5002201234FF0030C00BF1C
:101E80000D6803FA02F42540A5422DD106685400DE
:101E90000CFA04F5AE4306600E790768A6403E438F
:101EA00006600E79012E01D0022E12D18668AE4353
:101EB00086604D798668A54035438560456803FA9C
:101EC00002F6B543456045688E799640B6B2354313
:101ED0004560C56856000CFA06F7BD43C560CD796C
:101EE000A540C4682543C560521C102AC8D3F0BD64
:101EF0004B07DB0E9A40C90810B500EB8100016A60
:101F00000F249C40A1430162016A1143016210BD8C
:101F10000246002012690A4200D001207047418326
:101F20007047018370470000F0B58BB0044614225F
:101F300022A16846FFF784F8142225A105A8FFF71F
:101F40007FF80121042006F0B1FB0121102006F0EA
:101F5000ADFB01211C2006F0A9FB6420B4FBF0F5C9
:101F600000FB15410A20B1FBF0F6B4FBF0F11D4F68
:101F700000FB1144387818B90121042006F096FBC3
:101F80003878012803D10121022006F08FFB6F462B
:101F900007EB450102220A2006F062FB07EB46012F
:101FA0000222082006F05CFB05A800EB4401022297
:101FB0000E2006F055FB0BB0F0BD00000F0506002B
:101FC0000B060F0206030D030D0707000F070F0393
:101FD0000D0F08060E0B0A0F0B060B0D0F0D080751
:101FE0000F0F0B0F220100202DE9F04FC1B0064664
:101FF0000D4614461422A5A16846FFF721F81422C5
:10200000A7A105A8FFF71CF82022AAA10AA8FFF79C
:1020100017F81422AFA117A8FFF712F82022B2A1D7
:102020001CA8FFF70DF81422B7A139A8FFF708F88C
:102030001422B5A112A8FFF703F82022B7A12FA8F8
:10204000FEF7FEFF2022BDA124A8FEF7F9FFC3A0E2
:10205000012200683E903EA91C2006F001FB4FF4CF
:102060007A79B6FBF9F2D1B209FB12624FF0640A39
:102070005046B2FBF0F2D7B2B6FBFAF20AFB12629C
:102080000A20B2FBF0F8B6FBF0F2DFF8D4B200FBA6
:1020900012669BF80000012807D101EB41010AA854
:1020A00001440322192006F0DBFA9BF8000018B95E
:1020B00002211A2006F0FAFA07EB47001CA9014496
:1020C0000322162006F0CCFA08EB480024A90144AC
:1020D0000322132006F0C4FA06EB46010AA80144C5
:1020E0000322102006F0BCFAB5FBF9F109FB1153ED
:1020F000B3FBFAF04FF00A0B5E46B5FBF6F30BFBB1
:10210000135317AF07EB43086423B5FBF3F703FB47
:102110001757B7FBFBF6CAB24FF47A7707FB11519A
:10212000B1FBF3F100F0FF0C05A8C9B200EB4606C5
:1021300000EB410532B100EB420102220C2006F017
:102140008FFA02E0BCF1000F04D0022229460A20D7
:1021500006F086FA02223146082006F081FA0222B1
:1021600041460E2006F07CFAB4FBF9F1CDB209FB32
:1021700011415046B1FBF0F1CEB2B4FBFAF10AFBCB
:1021800011415846B1FBF0F8B4FBFBF1754F0BFB66
:102190001149387818B90121042006F087FA3878F7
:1021A000012803D10121022006F080FA684600EBE5
:1021B000460A02225146104606F052FA684600EBE3
:1021C000480B02225946042006F04AFA684600EB02
:1021D000490902224946062006F042FA4FF47A7075
:1021E000B4FBF0F100FB11416420B1FBF0F1CAB285
:1021F00012A901EB4208B4FBF0F100FB11400A21E7
:10220000B0FBF1F112A800EB4104EDB1684600EB20
:1022100045010222002006F023FA16E00222514670
:10222000104606F01DFA02222146042006F018FA94
:102230000EE00222414620E002224946062006F036
:102240000FFA41B0BDE8F08F36B138780028E5D0FC
:1022500038780128F0D1ECE7387848B9022269468D
:10226000104606F0FDF902222146042006F0F8F996
:1022700038780128E0D112A90222022006F0F0F9F4
:1022800002225946042006F0EBF9D5E70A0F0006B2
:10229000060D040F0C060C0B0E0B000E0E0F0C0F90
:1022A0000F0506000B060F0206030D030D070700BE
:1022B0000F070F03060506060000040702060700C5
:1022C00006020402070402070606040006070606C3
:1022D000070400000D0F08060E0B0A0F0B060B0D6E
:1022E0000F0D08070F0F0B0F060507060001040767
:1022F0000306070106020502070502070706040197
:1023000006070706070500000B0F0106070D050F5E
:102310000D060D0B0F0B010E0F0F0D0F0E0D060E00
:1023200008000C0F020E0F000E0A040A0F040A0F19
:10233000060E0C000E0F060E0F040000060D06061A
:102340000800040F02060F00060A04020F04020F21
:1023500006060C00060F06060F0400000905030020
:1023600007000020220100202DE9F04FB1B0064601
:102370000C46154614229BA16846FEF761FE142206
:102380009DA10DA8FEF75CFE2022A0A105A8FEF7E6
:1023900057FE1422A5A117A8FEF752FE1422A8A1E9
:1023A00028A8FEF74DFE1422A5A112A8FEF748FEAC
:1023B0002022A8A11CA8FEF743FEAEA001220068BF
:1023C0002E902EA91C2006F04BF94FF47A79B6FB1B
:1023D000F9F2D1B209FB12624FF0640A5046B2FB27
:1023E000F0F202F0FF08B6FBFAF20AFB12620A20D2
:1023F000B2FBF0F7B6FBF0F2DFF87CB200FB12663E
:102400009BF80000012807D101EB410105A8014418
:102410000322192006F024F99BF8000018B90221C4
:102420001A2006F043F908EB48001CA901440322D6
:10243000162006F015F907EB470005AFC119032276
:10244000132006F00DF906EB4600C11903221020F7
:1024500006F006F9B4FBF9F109FB1143B3FBFAF0FE
:102460004FF00A0B5E46B4FBF6F30BFB134317AFBA
:1024700007EB43086423B4FBF3F703FB1747B7FBF1
:10248000FBF6CAB24FF47A7707FB1141B1FBF3F1C7
:1024900000F0FF0C0DA8C9B200EB460600EB4104AA
:1024A00032B100EB420102220C2006F0D9F802E022
:1024B000BCF1000F04D0022221460A2006F0D0F819
:1024C00002223146082006F0CBF8022241460E20B7
:1024D00006F0C6F8B5FBF9F709FB17515046B1FBFA
:1024E000F0F1CEB2B5FBFAF10AFB11515846B1FB3F
:1024F000F0F8B5FBFBF168460BFB115900EB460AFF
:102500000222FCB25146104606F0AAF8684600EBDB
:10251000480B02225946042006F0A2F8684600EB58
:10252000490802224146062006F09AF84FF47A70D4
:1025300000FB17516420B1FBF0F1CAB212A901EB04
:102540004207B5FBF0F100FB11500A21B0FBF1F19D
:10255000DFF8289112A800EB4105ECB1684600EBCA
:1025600044010222002006F07BF816E002225146C8
:10257000104606F075F802222946042006F070F88D
:1025800010E00222394624E002224146062006F0ED
:1025900067F831B0BDE8F08F46B199F800004C46BD
:1025A0000028E3D020780128EED1EAE799F800006E
:1025B0004C4648B902226946104606F051F80222FC
:1025C0002946042006F04CF820780128DCD112A915
:1025D0000222022006F044F802225946042006F0A6
:1025E0003FF8D1E70A0F0006060D040F0C060C0B8E
:1025F0000E0B000E0E0F0C0F0F0506000B060F0240
:1026000006030D030D0707000F070F030605060657
:10261000000004070206070006020402070402077E
:102620000606040006070606070400000D0F08064C
:102630000E0B0A0F0B060B0D0F0D08070F0F0B0FDC
:102640000B0F0106070D050F0D060D0B0F0B010EED
:102650000F0F0D0F060D07060801040F03060F01EB
:10266000060A05020F05020F07060C01060F0706F2
:102670000F050000090503000700002022010020CB
:102680002DE9F04FB1B006460C46154614229BA129
:102690006846FEF7D5FC14229DA10DA8FEF7D0FCDC
:1026A0002022A0A105A8FEF7CBFC1422A5A117A803
:1026B000FEF7C6FC1422A8A128A8FEF7C1FC14222C
:1026C000A5A112A8FEF7BCFC2022A8A11CA8FEF719
:1026D000B7FCAEA0012200682E902EA91C2005F0A8
:1026E000BFFF4FF47A79B6FBF9F2D1B209FB12625F
:1026F0004FF0640A5046B2FBF0F202F0FF08B6FB5E
:10270000FAF20AFB12620A20B2FBF0F7B6FBF0F213
:10271000DFF87CB200FB12669BF80000012807D1AD
:1027200001EB410105A801440322192005F098FF9F
:102730009BF8000018B902211A2005F0B7FF08EB3A
:1027400048001CA901440322162005F089FF07EB6D
:10275000470005AFC1190322132005F081FF06EBE6
:102760004600C1190322102005F07AFFB4FBF9F1ED
:1027700009FB1143B3FBFAF04FF00A0B5E46B4FBC2
:10278000F6F30BFB134317AF07EB43086423B4FBCB
:10279000F3F703FB1747B7FBFBF6CAB24FF47A77A0
:1027A00007FB1141B1FBF3F100F0FF0C0DA8C9B21A
:1027B00000EB460600EB410432B100EB420102227D
:1027C0000C2005F04DFF02E0BCF1000F04D0022206
:1027D00021460A2005F044FF02223146082005F078
:1027E0003FFF022241460E2005F03AFFB5FBF9F704
:1027F00009FB17515046B1FBF0F1CEB2B5FBFAF12F
:102800000AFB11515846B1FBF0F8B5FBFBF16846E5
:102810000BFB115900EB460A0222FCB2514610464E
:1028200005F01EFF684600EB480B022259460420C3
:1028300005F016FF684600EB4908022241460620D3
:1028400005F00EFF4FF47A7000FB17516420B1FBC6
:10285000F0F1CAB212A901EB4207B5FBF0F100FB9F
:1028600011500A21B0FBF1F1DFF8289112A800EB1A
:102870004105ECB1684600EB44010222002005F05E
:10288000EFFE16E002225146104605F0E9FE022254
:102890002946042005F0E4FE10E00222394624E037
:1028A00002224146062005F0DBFE31B0BDE8F08F84
:1028B00046B199F800004C460028E3D02078012862
:1028C000EED1EAE799F800004C4648B90222694681
:1028D000104605F0C5FE02222946042005F0C0FE80
:1028E00020780128DCD112A90222022005F0B8FECE
:1028F00002225946042005F0B3FED1E70A0F000674
:10290000060D040F0C060C0B0E0B000E0E0F0C0F19
:102910000F0506000B060F0206030D030D07070047
:102920000F070F030605060600000407020607004E
:10293000060204020704020706060400060706064C
:10294000070400000D0F08060E0B0A0F0B060B0DF7
:102950000F0D08070F0F0B0F0B0F0106070D050FCB
:102960000D060D0B0F0B010E0F0F0D0F0E05070EB1
:1029700000010C07030E07010E02050A07050A07EE
:10298000070E04010E07070E0705000009050300E6
:1029900007000020220100202DE9F04FB9B00646C3
:1029A0000C46154614229EA16846FEF749FB1422E8
:1029B000A0A105A8FEF744FB2022A3A10AA8FEF7C8
:1029C0003FFB1422A8A117A8FEF73AFB1422ABA1E3
:1029D00030A8FEF735FB1422A8A112A8FEF730FBA1
:1029E0002022ABA11CA8FEF72BFB2022B0A124A81B
:1029F000FEF726FBB6A0012200682D902DA91C2011
:102A000005F02EFE4FF47A79B6FBF9F2D1B209FB4C
:102A100012624FF0640A5046B2FBF0F202F0FF0877
:102A2000B6FBFAF20AFB12620A20B2FBF0F7B6FB21
:102A3000F0F2DFF8A0B200FB12669BF8000001285C
:102A400007D101EB41010AA801440322192005F036
:102A500007FE9BF8000018B902211A2005F026FE97
:102A600008EB480024A901440322162005F0F8FDD4
:102A700007EB47001CA901440322132005F0F0FDD9
:102A800006EB46010AA801440322102005F0E8FDE8
:102A9000B4FBF9F109FB1143B3FBFAF04FF00A0B59
:102AA0005E46B4FBF6F30BFB134317AF07EB43088B
:102AB0006423B4FBF3F703FB1747B7FBFBF6CAB27B
:102AC0004FF47A7707FB1141B1FBF3F100F0FF0CF3
:102AD00005A8C9B200EB460600EB410432B100EB99
:102AE000420102220C2005F0BBFD02E0BCF1000F08
:102AF00004D0022221460A2005F0B2FD022231460E
:102B0000082005F0ADFD022241460E2005F0A8FD8B
:102B1000B5FBF9F709FB17515046B1FBF0F1CEB206
:102B2000B5FBFAF10AFB11515846B1FBF0F8B5FBC1
:102B3000FBF168460BFB115900EB460A0222FCB27E
:102B40005146104605F08CFD684600EB480B02220A
:102B50005946042005F084FD684600EB490802222E
:102B60004146062005F07CFD4FF47A7000FB1751BA
:102B70006420B1FBF0F1CAB212A901EB4207B5FB28
:102B8000F0F100FB11500A21B0FBF1F1DFF84891A0
:102B900012A800EB4105ECB1684600EB44010222AB
:102BA000002005F05DFD16E002225146104605F0BA
:102BB00057FD02222946042005F052FD10E00222B2
:102BC000394624E002224146062005F049FD39B08D
:102BD000BDE8F08F46B199F800004C460028E3D0DC
:102BE00020780128EED1EAE799F800004C4648B970
:102BF00002226946104605F033FD022229460420D0
:102C000005F02EFD20780128DCD112A90222022035
:102C100005F026FD02225946042005F021FDD1E7EA
:102C20000A0F0006060D040F0C060C0B0E0B000E0F
:102C30000E0F0C0F0F0506000B060F0206030D0307
:102C40000D0707000F070F0306050606000004071F
:102C50000206070006020402070402070606040033
:102C600006070606070400000D0F08060E0B0A0FE4
:102C70000B060B0D0F0D08070F0F0B0F0B0F0106A7
:102C8000070D050F0D060D0B0F0B010E0F0F0D0F8E
:102C900006050E06000804070A06070806020C02CD
:102CA000070C02070E06040806070E06070C0000B4
:102CB00006050706000104070306070106020502D0
:102CC00007050207070604010607070607050000B7
:102CD0000905030007000020220100202DE9F04F24
:102CE000A9B006460C4615461422A2A108A8FEF774
:102CF000A7F91422A4A10DA8FEF7A2F91422A7A1F6
:102D000017A8FEF79DF92022A9A16846FEF798F9B9
:102D10001422AFA112A8FEF793F904211D2005F09B
:102D2000C5FC01211C2005F0C1FC4FF47A70B6FBF4
:102D3000F0F200FB12636421B3FBF1F3DBB22193E9
:102D4000B6FBF1F301FB13674FF00A0EB7FBFEF37E
:102D50002393B4FBF0F303F0FF0B00FB1343B3FB2F
:102D6000F1F303F0FF08B4FBF1F301FB1347B5FBEC
:102D7000F0F300FB1350B0FBF1F000F0FF0AB5FBDD
:102D8000F1F001FB1051CDF890A0B1FBFEFA4FF429
:102D90007A7000FB1261B7FBFEF96420B1FBF0F121
:102DA000DFB2C9B201EB4103B6FBF0F100FB1161E8
:102DB0000A20B1FBF0F101EB410EB6FBF0F102F09D
:102DC000FF0C00FB11606A46CDF88890CDF87C803E
:102DD00000EB40009E1800EB02090EEB0208BCF16C
:102DE000000F07D00CEB4C0081180322192005F0CE
:102DF00037FC01E0219828B103223146162005F066
:102E00002FFC01E0239921B103224146132005F054
:102E100027FC03224946102005F022FC0A22B4FBBD
:102E2000F2F102FB114117AB03EB41086421B4FB43
:102E3000F1F301FB1343B3FBF2F20DA800EB4206E2
:102E40004FF47A72B4FBF2F302FB1342B2FBF1F1DE
:102E5000C9B200EB4104BBF1000F06D000EB4B01FF
:102E600002220C2005F0FCFB01E01F9828B1022291
:102E700021460A2005F0F4FB01E0229820B102224D
:102E80003146082005F0ECFB022241460E2005F0F9
:102E9000E7FB0A23B5FBF3F103FB115108A800EB94
:102EA00041096422B5FBF2F102FB1151B1FBF3FCC5
:102EB0004FF47A73B5FBF3F603FB1651B1FBF2F155
:102EC000C9B20DF1480B474C0BEB410500EB4C0828
:102ED0000BEB4C0B00EB4106FFB100EB470102226C
:102EE000002005F0BDFB1AE002223146104605F035
:102EF000B7FB02225946042005F0B2FB12E0022281
:102F00002946104605F0ACFB21E002224946062086
:102F100005F0A6FB29B0BDE8F08F249830B12078E9
:102F20000028E1D020780128EFD1E8E72078BAF135
:102F3000000F12D020B902225946042005F090FB60
:102F400020780128E1D10121022005F0AFFB022207
:102F50004146042005F084FBD7E718B9012104207D
:102F600005F0A4FB20780128CFD10121022005F033
:102F70009DFBCAE70A0F0006060D040F0C060C0B9A
:102F80000E0B000E0E0F0C0F0F0506000B060F02A6
:102F900006030D030D0707000F070F03050F0006BB
:102FA000060B020F0306030D070D0007070F030FA3
:102FB00006050606000004070206070006020402D2
:102FC00007040207060604000607060607040000B9
:102FD0000B0F0106070D050F0D060D0B0F0B010E54
:102FE0000F0F0D0F220100202DE9F04FEBA1A7B02C
:102FF000D1E90001CDE924012022EAA16846FEF7CB
:103000001FF81422EFA110A8FEF71AF81422F2A15B
:1030100015A8FEF715F81422F4A11AA8FEF710F867
:103020002022F7A108A8FEF70BF81422FCA11FA884
:10303000FEF706F8FF4D4FF4804421462846FEF780
:1030400067FFFD4F012680B9B87B20B97878401C16
:10305000787002F0C9F921462846FEF759FF00288A
:10306000F9D07878062800D97E704FF48054214634
:103070002846FEF74DFF80B9B87B20B97878401E0E
:10308000787002F0B1F921462846FEF741FF00288A
:10309000F9D0787808B9062078707978E74CDFF8AD
:1030A000A083DFF8A093E8484FF0030A07297DD2F8
:1030B000DFE801F08F0492FCFBFAF90080218346DF
:1030C000FEF726FF80B9FEF79DFCE048E14A008844
:1030D000126800EB80004004010CDD48007800EB32
:1030E00080004000FEF780FF80215846FEF710FF69
:1030F00001286ED14FF4005B59462846FEF708FFC1
:1031000080B9B87B70B902F06FF9B878401CB8701C
:1031100059462846FEF7FCFE0028F9D0B878032867
:1031200000D9BE704FF4006631462846FEF7F0FE27
:1031300070B9B87B60B902F057F9B878401EB87022
:1031400031462846FEF7E4FE0028F9D0B87818B1D9
:10315000B878012803D012E087F802A028E0FEF733
:1031600051FC2088BD4A00EB80004004010CBA48A5
:103170001268007800EB80004000FFF7F5F8B8789F
:10318000022810D1FEF73EFCB8F80000B54A00EB6B
:1031900080004004010CB2481268007800EB800007
:1031A0004000FFF76DFAB878032800E011E010D175
:1031B000FEF728FCB9F80000AC4A00EB80004004A0
:1031C000010CA9481268007800EB80004000FFF76E
:1031D000E3FB27B0BDE8F08F80218046FEF798FE24
:1031E000A34C40F2F51978B9FEF70CFC20884A464A
:1031F00000EB80004004010C9E48008800EB80003A
:103200004004000C00F050FA80214046FEF780FE9A
:103210000128DED14FF4005841462846FEF778FEDB
:1032200080B9B87B70B902F0DFF8F878401CF8700C
:1032300041462846FEF76CFE0028F9D0F8780328AE
:1032400000D9FE704FF4006631462846FEF760FE56
:1032500070B9B87B60B902F0C7F8F878401EF87012
:1032600031462846FEF754FE0028F9D0F87818B108
:10327000F878012803D012E087F803A02AE0FEF7CF
:10328000C1FB20884A4600EB80004004010C7A48CC
:10329000008800EB80004004000C00F06DFBF87823
:1032A000022814D103E0EAE145E13EE123E0FEF724
:1032B000A9FB20884A4600EB80004004010C6F48BF
:1032C000008800EB80004004000C00F0D9FCF87886
:1032D00003289ED1FEF796FB20884A4600EB80002B
:1032E0004004010C6648008800EB80004004000C9C
:1032F00000F04AFE6DE780218346FEF709FE614C2F
:10330000DFF88481DFF8849198B9FEF77BFB208891
:1033100000EB80004004020CB8F8000000EB8000D5
:103320004004010C99F8000000EB8000400000F020
:10333000ABFF80215846FEF7EBFD0128DAD14FF4B0
:10334000005B59462846FEF7E3FD80B9B87B70B9AB
:1033500002F04AF8F878401CF87059462846FEF703
:10336000D7FD0028F9D0F878032800D9FE704FF473
:10337000006631462846FEF7CBFD68B9B87B58B9E0
:1033800002F032F8F878401EF87031462846FEF711
:10339000BFFD0028F9D07BE07CE0000000020000C7
:1033A00005060000060D06060800040F02060F00C1
:1033B000060A04020F04020F06060C00060F06069A
:1033C0000F0400000A0F0006060D040F0C060C0B7C
:1033D0000E0B000E0E0F0C0F0F0506000B060F0252
:1033E00006030D030D0707000F070F03050F000667
:1033F000060B020F0306030D070D0007070F030F4F
:10340000060506060000040702060700060204027D
:103410000704020706060400060706060704000064
:103420000B0F0106070D050F0D060D0B0F0B010EFF
:103430000F0F0D0F000C0240140100201E00002091
:103440002000002022000020001002401400002074
:103450000100002030000020020000203400002085
:103460000300002038000020040000203C00002061
:103470001800002016000020240000202600002054
:10348000280000201C0000201A000020000000205E
:10349000F87818B1F878012803D016E087F803A06F
:1034A0002EE0FEF7AFFA208800EB80004004020C0B
:1034B000B8F8000000EB80004004010C99F800000F
:1034C00000EB8000400001F04DF8F878022813D19D
:1034D000FEF798FA208800EB80004004020CB8F850
:1034E000000000EB80004004010C99F8000000EBA4
:1034F0008000400001F0AEF9F87803287FF4FAAEBE
:10350000FEF780FA208800EB80004004020CB8F837
:10351000000000EB80004004010C99F8000000EB73
:103520008000400001F01EFB53E6FEF76BFA01201D
:10353000FEF7FAFC4DE6FEF765FA04211D2005F0C2
:10354000B5F801211C2005F0B1F8062224A91620A7
:1035500005F086F8FA7B0A20B2FBF0F100FB112A95
:103560003A7CB2FBF0F800FB182B7A7CB2FBF0F44B
:1035700000FB142901EB410069460144032213209A
:1035800005F06EF80AEB4A0008A901440322102056
:1035900005F066F815A800EB48010222082005F0A6
:1035A0005FF81AA800EB4B0102220E2005F058F834
:1035B000B87B30B91FA800EB44010222042005F0BB
:1035C0004FF8B87B0DF14008012809D101210220F4
:1035D00005F06CF808EB44010222042005F040F8E5
:1035E00008EB49010222062005F03AF84FF4005991
:1035F00049462846FEF78CFC2A4C04F12008C8B93D
:10360000B87BB8B901F0F0FEF87B401CF87349466E
:103610002846FEF77DFC0028F9D0F87B202800D949
:10362000FE73F87B2118404411F8011C397410F81E
:10363000010C78744FF4006631462846FEF768FCAA
:1036400000287FF457AEB87B0028FAD101F0CCFEF9
:10365000F87B401EF87331462846FEF759FC0028D7
:10366000F9D0F87B08B92020F873C0B22118404483
:1036700011F8011C397410F8010C7874A9E5FEF7F3
:10368000C1F9B9F8000000EB80004200B8F8000072
:1036900000EB80004100208800EB80004000FFF735
:1036A0001DFB96E5CCCD00202DE9F04FBFB00446C0
:1036B0000D46164614227AA11DA8FDF7C1FC14225E
:1036C0007CA108A8FDF7BCFC20227FA16846FDF77D
:1036D000B7FC142284A127A8FDF7B2FC202287A101
:1036E0000DA8FDF7ADFC14228CA122A8FDF7A8FCC3
:1036F00020228FA131A8FDF7A3FC95A01422006819
:103700003C9086A12CA8FDF79BFC202291A115A836
:10371000FDF796FC01220DF1F1011C2004F0A0FF41
:103720004FF47A7AB4FBFAF10AFB11434FF0640BC1
:10373000B3FBFBF202F0FF080AFB1142C8B2594684
:10374000B2FBF1F2D2B202EB4207B4FBF1F20A2172
:103750000BFB1242B2FBF1F2B4FBF1F301FB13419C
:103760000DF1340C01EB410101EB0C09EE4602EBCB
:10377000420215A95418774438B100EB4001714456
:103780000322192004F06CFF02E0B8F1000F04D00E
:1037900003223946162004F063FF0322214613203A
:1037A00004F05EFF03224946102004F059FFB5FBE8
:1037B000FAF10AFB1153D946B3FBF9F04FF00A0AAC
:1037C0005446B5FBF4F30AFB135327AF07EB43084A
:1037D0006423B5FBF3F703FB1757B7FBFAF400F0CC
:1037E000FF0C08A800EB4407CAB24FF47A7404FB3C
:1037F0001151B1FBF3F1C9B200EB410432B100EB5E
:10380000420102220C2004F02BFF02E0BCF1000F69
:1038100004D0022221460A2004F022FF0222394667
:10382000082004F01DFF022241460E2004F018FF7C
:10383000B6FBF9F1CCB209FB11615046B1FBF0F5D2
:10384000B6FBFAF14B4F0AFB116638780DF174089C
:103850000DF1880958B9022208EB4401104604F022
:10386000FFFE09EB45010222042004F0F9FE38783E
:1038700001280BD1022209EB4401104604F0F0FEAE
:1038800008EB45010222042004F0EAFE2CA800EB1C
:1038900046010222062004F0E3FE3FB0BDE8F08FAF
:1038A0000A0F0006060D040F0C060C0B0E0B000E83
:1038B0000E0F0C0F0F0506000B060F0206030D037B
:1038C0000D0707000F070F03060506060000040793
:1038D00002060700060204020704020706060400A7
:1038E00006070606070400000D0F08060E0B0A0F58
:1038F0000B060B0D0F0D08070F0F0B0F0605070624
:103900000001040703060701060205020705020776
:103910000706040106070706070500000B0F01064E
:10392000070D050F0D060D0B0F0B010E0F0F0D0FE1
:103930000E0D060E08000C0F020E0F000E0A040AF0
:103940000F040A0F060E0C000E0F060E0F040000E7
:1039500009050300060D06060800040F02060F0005
:10396000060A04020F04020F06060C00060F0606E4
:103970000F040000220100202DE9F04FC7B00446DB
:103980000D461646142280A11DA8FDF759FB1422EE
:1039900082A108A8FDF754FB202285A16846FDF707
:1039A0004FFB14228AA127A8FDF74AFB20228DA1F4
:1039B0000DA8FDF745FB142292A122A8FDF740FBBC
:1039C000202295A131A8FDF73BFB9BA014220068A3
:1039D00041908CA12CA8FDF733FB202297A139A898
:1039E000FDF72EFB20229DA115A8FDF729FB012242
:1039F0000DF205111C2004F033FE4FF47A7AB4FB6B
:103A0000FAF10AFB11434FF0640BB3FBFBF202F037
:103A1000FF080AFB1142C8B25946B2FBF1F2D2B21A
:103A200002EB4207B4FBF1F20A210BFB1242B2FB9C
:103A3000F1F2B4FBF1F301FB13410DF1340C01EB96
:103A4000410101EB0C09EE4602EB420215A902EB23
:103A50000E040F4438B100EB4001714403221920D9
:103A600004F0FEFD02E0B8F1000F05D00322394654
:103A7000162004F0F5FD03E00821172004F016FEDF
:103A800003222146132004F0EBFD032249461020B7
:103A900004F0E6FDB5FBFAF10AFB1153D946B3FB7E
:103AA000F9F04FF00A0A5446B5FBF4F30AFB13533E
:103AB00027AF07EB43086423B5FBF3F703FB175766
:103AC000B7FBFAF400F0FF0C08A800EB4407CAB2F9
:103AD0004FF47A7404FB1151B1FBF3F1C9B200EB5E
:103AE000410432B100EB420102220C2004F0B8FD87
:103AF00002E0BCF1000F04D0022221460A2004F0AB
:103B0000AFFD02223946082004F0AAFD02224146F8
:103B10000E2004F0A5FDB6FBF9F1CCB209FB116152
:103B20005046B1FBF0F5B6FBFAF1544F0AFB1166B3
:103B300038780DF174080DF1880958B9022208EBA4
:103B40004401104604F08CFD09EB450102220420DB
:103B500004F086FD387801280BD1022209EB4401DC
:103B6000104604F07DFD08EB45010222042004F01C
:103B700077FD2CA800EB46010222062004F070FD20
:103B800047B0BDE8F08F00000A0F0006060D040FD5
:103B90000C060C0B0E0B000E0E0F0C0F0F05060083
:103BA0000B060F0206030D030D0707000F070F0397
:103BB00006050606000004070206070006020402C6
:103BC00007040207060604000607060607040000AD
:103BD0000D0F08060E0B0A0F0B060B0D0F0D080735
:103BE0000F0F0B0F06050706000104070306070168
:103BF0000602050207050207070604010607070675
:103C0000070500000B0F0106070D050F0D060D0B34
:103C10000F0B010E0F0F0D0F0E0D060E08000C0FEF
:103C2000020E0F000E0A040A0F040A0F060E0C0003
:103C30000E0F060E0F04000009050300060D060610
:103C40000800040F02060F00060A04020F04020F08
:103C500006060C00060F06060F040000060D0706F8
:103C60000801040F03060F01060A05020F05020FE3
:103C700007060C01060F07060F05000022010020B1
:103C80002DE9F04FC7B004460D461646142280A118
:103C90001DA8FDF7D5F9142282A108A8FDF7D0F9D7
:103CA000202285A16846FDF7CBF914228AA127A816
:103CB000FDF7C6F920228DA10DA8FDF7C1F9142248
:103CC00092A122A8FDF7BCF9202295A131A8FDF709
:103CD000B7F99BA01422006841908CA12CA8FDF795
:103CE000AFF9202297A139A8FDF7AAF920229DA1BA
:103CF00015A8FDF7A5F901220DF205111C2004F00D
:103D0000AFFC4FF47A7AB4FBFAF10AFB11434FF09F
:103D1000640BB3FBFBF202F0FF080AFB1142C8B2CE
:103D20005946B2FBF1F2D2B202EB4207B4FBF1F218
:103D30000A210BFB1242B2FBF1F2B4FBF1F301FBDF
:103D400013410DF1340C01EB410101EB0C09EE467E
:103D500002EB420215A902EB0E040F4438B100EB4E
:103D6000400171440322192004F07AFC02E0B8F10A
:103D7000000F05D003223946162004F071FC03E041
:103D80000821162004F092FC03222146132004F09F
:103D900067FC03224946102004F062FCB5FBFAF1EF
:103DA0000AFB1153D946B3FBF9F04FF00A0A544607
:103DB000B5FBF4F30AFB135327AF07EB4308642367
:103DC000B5FBF3F703FB1757B7FBFAF400F0FF0C52
:103DD00008A800EB4407CAB24FF47A7404FB1151EF
:103DE000B1FBF3F1C9B200EB410432B100EB420187
:103DF00002220C2004F034FC02E0BCF1000F04D0DD
:103E0000022221460A2004F02BFC02223946082017
:103E100004F026FC022241460E2004F021FCB6FBF1
:103E2000F9F1CCB209FB11615046B1FBF0F5B6FBDC
:103E3000FAF1544F0AFB116638780DF174080DF150
:103E4000880958B9022208EB4401104604F008FC26
:103E500009EB45010222042004F002FC3878012815
:103E60000BD1022209EB4401104604F0F9FB08EBE8
:103E700045010222042004F0F3FB2CA800EB4601CC
:103E80000222062004F0ECFB47B0BDE8F08F0000F2
:103E90000A0F0006060D040F0C060C0B0E0B000E8D
:103EA0000E0F0C0F0F0506000B060F0206030D0385
:103EB0000D0707000F070F0306050606000004079D
:103EC00002060700060204020704020706060400B1
:103ED00006070606070400000D0F08060E0B0A0F62
:103EE0000B060B0D0F0D08070F0F0B0F060507062E
:103EF0000001040703060701060205020705020781
:103F00000706040106070706070500000B0F010658
:103F1000070D050F0D060D0B0F0B010E0F0F0D0FEB
:103F20000E0D060E08000C0F020E0F000E0A040AFA
:103F30000F040A0F060E0C000E0F060E0F040000F1
:103F400009050300060D06060800040F02060F000F
:103F5000060A04020F04020F06060C00060F0606EE
:103F60000F0400000E05070E00010C07030E0701E9
:103F70000E02050A07050A07070E04010E07070EC1
:103F800007050000220100202DE9F04FC7B00446CC
:103F90000D46164614227EA115A8FDF751F81422ED
:103FA00080A16846FDF74CF8202283A11FA8FDF7E9
:103FB00047F8142288A127A8FDF742F820228BA1F8
:103FC00005A8FDF73DF8142290A11AA8FDF738F8CE
:103FD000202293A131A8FDF733F899A0142200689C
:103FE00041908AA12CA8FDF72BF8202295A139A891
:103FF000FDF726F820229BA10DA8FDF721F801224C
:104000000DF205111C2004F02BFB4FF47A7BB4FB5E
:10401000FBF10BFB11436422B3FBF2F202F0FF0A47
:104020000BFB1142C8B26421B2FBF1F2D2B202EB37
:104030004207B4FBF1F201FB12420A21B2FBF1F29A
:10404000B4FBF1F301FB13410DF1140C0DF1340835
:1040500002EB420201EB410101EB0C09904407EB3A
:104060000C0440B100EB40001FA9014403221920B9
:1040700004F0F6FA02E0BAF1000F04D00322214660
:10408000162004F0EDFA03224146132004F0E8FA6A
:1040900003224946102004F0E3FAB5FBFBF10BFBC9
:1040A00011534FF06409B3FBF9F04FF00A0A54467C
:1040B000B5FBF4F30AFB135327AF07EB43084B465A
:1040C000B5FBF3F709FB1757B7FBFAF400F0FF0C49
:1040D000684600EB4407CAB24FF47A7404FB1151EE
:1040E000B1FBF9F1C9B200EB410432B100EB42017E
:1040F00002220C2004F0B4FA02E0BCF1000F04D05C
:10410000022221460A2004F0ABFA02223946082096
:1041100004F0A6FA022241460E2004F0A1FAB6FBF2
:10412000F9F1CCB209FB11615046B1FBF0F5B6FBD9
:10413000FAF1544F0AFB116638780DF154090DF16C
:10414000680858B9022209EB4401104604F088FAC5
:1041500008EB45010222042004F082FA3878012895
:104160000BD1022208EB4401104604F079FA09EB66
:1041700045010222042004F073FA2CA800EB46014A
:104180000222062004F06CFA47B0BDE8F08F000070
:104190000A0F0006060D040F0C060C0B0E0B000E8A
:1041A0000E0F0C0F0F0506000B060F0206030D0382
:1041B0000D0707000F070F0306050606000004079A
:1041C00002060700060204020704020706060400AE
:1041D00006070606070400000D0F08060E0B0A0F5F
:1041E0000B060B0D0F0D08070F0F0B0F060507062B
:1041F000000104070306070106020502070502077E
:104200000706040106070706070500000B0F010655
:10421000070D050F0D060D0B0F0B010E0F0F0D0FE8
:104220000E0D060E08000C0F020E0F000E0A040AF7
:104230000F040A0F060E0C000E0F060E0F040000EE
:1042400009050300060D06060800040F02060F000C
:10425000060A04020F04020F06060C00060F0606EB
:104260000F04000006050E06000804070A060708EA
:1042700006020C02070C02070E06040806070E06CB
:10428000070C0000220100202DE9F04FBFB00446CA
:104290000D46164614227DA11DA8FCF7D1FE14225E
:1042A0007FA108A8FCF7CCFE202282A16846FCF77B
:1042B000C7FE142287A127A8FCF7C2FE20228AA1EC
:1042C0000DA8FCF7BDFE14228FA12CA8FCF7B8FEA8
:1042D00014228DA122A8FCF7B3FE20228FA131A8C1
:1042E000FCF7AEFE95A0202200683D9094A115A891
:1042F000FCF7A6FE01220DF1F6011C2004F0B0F936
:104300000121042004F0D2F94FF47A72B4FBF2F1E7
:1043100002FB11436422B3FBF2F202F0FF094FF4F7
:104320007A7202FB1142C8B26421B2FBF1F2D2B23E
:1043300002EB4207B4FBF1F201FB12420A21B2FB8D
:10434000F1F2B4FBF1F301FB1341EB460DF1340C38
:104350000DF1540802EB420201EB410101EB0C0AA2
:10436000904407EB0B0438B100EB400159440322A1
:10437000192004F075F902E0B9F1000F04D003220E
:104380002146162004F06CF903224146132004F064
:1043900067F903225146102004F062F94FF06408D7
:1043A0004FF00A01B5FBF8F2B5FBF1F412F0FF0093
:1043B00001FB145408FB1252B2FBF1F127AB0DF1D3
:1043C000200C03EB44070CEB410405D00CEB40013F
:1043D00002220A2004F044F902222146082004F0B7
:1043E0003FF9022239460E2004F03AF94FF00A0054
:1043F000B6FBF0F3B6FBF8F100FB13632CAA02EB5B
:10440000430811F0FF044FF0640202FB1161B1FB9D
:10441000F0F0534F0DF1740C0DF188090CEB4006D0
:1044200009EB400538781DD050B902220CEB44014D
:10443000104604F015F902222946042004F010F970
:104440003878012806D1022209EB4401104604F015
:1044500007F914E002224146062004F001F93FB0BA
:10446000BDE8F08F20B902222946042004F0F8F8B4
:1044700038780128EED10121022004F017F9022238
:104480003146042004F0ECF8E4E700000A0F0006CF
:10449000060D040F0C060C0B0E0B000E0E0F0C0F6E
:1044A0000F0506000B060F0206030D030D0707009C
:1044B0000F070F03060506060000040702060700A3
:1044C00006020402070402070606040006070606A1
:1044D000070400000D0F08060E0B0A0F0B060B0D4C
:1044E0000F0D08070F0F0B0F060507060001040745
:1044F0000306070106020502070502070706040175
:1045000006070706070500000B0F0106070D050F3C
:104510000D060D0B0F0B010E0F0F0D0F0E0D060EDE
:1045200008000C0F020E0F000E0A040A0F040A0FF7
:10453000060E0C000E0F060E0F0400000905030006
:10454000060D06060800040F02060F00060A040204
:104550000F04020F06060C00060F06060F040000EB
:10456000220100202DE9F04FC7B004460D46164643
:10457000142282A11DA8FCF763FD142284A108A8BF
:10458000FCF75EFD202287A16846FCF759FD142246
:104590008CA127A8FCF754FD20228FA10DA8FCF7C1
:1045A0004FFD142294A12CA8FCF74AFD142292A1DD
:1045B00022A8FCF745FD202294A131A8FCF740FD7C
:1045C0009AA020220068459099A139A8FCF738FDEF
:1045D000202297A115A8FCF733FD01220DF58B7160
:1045E0001C2004F03DF80121042004F05FF84FF492
:1045F0007A72B4FBF2F102FB11436422B3FBF2F2D4
:1046000002F0FF094FF47A7202FB1142C8B2642132
:10461000B2FBF1F2D2B202EB4207B4FBF1F201FBC2
:1046200012420A21B2FBF1F2B4FBF1F301FB134198
:104630000DF1540EEB460DF1340C02EB420201EB8E
:10464000410101EB0C0A02EB0B0807EB0E0438B139
:1046500000EB400159440322192004F001F802E064
:10466000B9F1000F05D003222146162003F0F8FF10
:1046700003E00821172004F019F803224146132013
:1046800003F0EEFF03225146102003F0E9FF4FF044
:1046900064084FF00A01B5FBF8F2B5FBF1F412F033
:1046A000FF0001FB145408FB1252B2FBF1F127ABDF
:1046B0000DF1200C03EB44070CEB410405D00CEB8F
:1046C000400102220A2003F0CBFF022221460820EB
:1046D00003F0C6FF022239460E2003F0C1FF4FF05F
:1046E0000A00B6FBF0F3B6FBF8F100FB13632CAA4B
:1046F00002EB430811F0FF044FF0640202FB11616A
:10470000B1FBF0F0524F0DF1740C0DF188090CEB78
:10471000400609EB400538781DD050B902220CEB59
:104720004401104603F09CFF02222946042003F0B6
:1047300097FF3878012806D1022209EB4401104680
:1047400003F08EFF14E002224146062003F088FFAA
:1047500047B0BDE8F08F20B902222946042003F0BB
:104760007FFF38780128EED10121022003F09EFF5F
:1047700002223146042003F073FFE4E70A0F00062B
:10478000060D040F0C060C0B0E0B000E0E0F0C0F7B
:104790000F0506000B060F0206030D030D070700A9
:1047A0000F070F03060506060000040702060700B0
:1047B00006020402070402070606040006070606AE
:1047C000070400000D0F08060E0B0A0F0B060B0D59
:1047D0000F0D08070F0F0B0F060507060001040752
:1047E0000306070106020502070502070706040182
:1047F00006070706070500000B0F0106070D050F4A
:104800000D060D0B0F0B010E0F0F0D0F0E0D060EEB
:1048100008000C0F020E0F000E0A040A0F040A0F04
:10482000060E0C000E0F060E0F0400000905030013
:10483000060D06060800040F02060F00060A040211
:104840000F04020F06060C00060F06060F040000F8
:10485000220100202DE9F04FC7B004460D46164650
:10486000142282A11DA8FCF7EBFB142284A108A846
:10487000FCF7E6FB202287A16846FCF7E1FB142247
:104880008CA127A8FCF7DCFB20228FA10DA8FCF748
:10489000D7FB142294A12CA8FCF7D2FB142292A1DE
:1048A00022A8FCF7CDFB202294A131A8FCF7C8FB7D
:1048B0009AA020220068459099A139A8FCF7C0FB76
:1048C00020229FA115A8FCF7BBFB01220DF58B71DF
:1048D0001C2003F0C5FE0121042003F0E7FE4FF485
:1048E0007A72B4FBF2F102FB11436422B3FBF2F2E1
:1048F00002F0FF094FF47A7202FB1142C8B2642140
:10490000B2FBF1F2D2B202EB4207B4FBF1F201FBCF
:1049100012420A21B2FBF1F2B4FBF1F301FB1341A5
:104920000DF1540EEB460DF1340C02EB420201EB9B
:10493000410101EB0C0A02EB0B0807EB0E0438B146
:1049400000EB400159440322192003F089FE02E0E4
:10495000B9F1000F05D003222146162003F080FE96
:1049600003E00821162003F0A1FE03224146132094
:1049700003F076FE03225146102003F071FE4FF043
:1049800064084FF00A01B5FBF8F2B5FBF1F412F040
:10499000FF0001FB145408FB1252B2FBF1F127ABEC
:1049A0000DF1200C03EB44070CEB410405D00CEB9C
:1049B000400102220A2003F053FE02222146082071
:1049C00003F04EFE022239460E2003F049FE4FF05E
:1049D0000A00B6FBF0F3B6FBF8F100FB13632CAA58
:1049E00002EB430811F0FF044FF0640202FB116177
:1049F000B1FBF0F05A4F0DF1740C0DF188090CEB7E
:104A0000400609EB400538781DD050B902220CEB66
:104A10004401104603F024FE02222946042003F03C
:104A20001FFE3878012806D1022209EB4401104606
:104A300003F016FE14E002224146062003F010FEA9
:104A400047B0BDE8F08F20B902222946042003F0C8
:104A500007FE38780128EED10121022003F026FE5E
:104A600002223146042003F0FBFDE4E70A0F0006B2
:104A7000060D040F0C060C0B0E0B000E0E0F0C0F88
:104A80000F0506000B060F0206030D030D070700B6
:104A90000F070F03060506060000040702060700BD
:104AA00006020402070402070606040006070606BB
:104AB000070400000D0F08060E0B0A0F0B060B0D66
:104AC0000F0D08070F0F0B0F06050706000104075F
:104AD000030607010602050207050207070604018F
:104AE00006070706070500000B0F0106070D050F57
:104AF0000D060D0B0F0B010E0F0F0D0F0E0D060EF9
:104B000008000C0F020E0F000E0A040A0F040A0F11
:104B1000060E0C000E0F060E0F0400000905030020
:104B2000060D06060800040F02060F00060A04021E
:104B30000F04020F06060C00060F06060F04000005
:104B40000E05060E00000C07020E07000E02040AF6
:104B500007040A07060E04000E07060E07040000ED
:104B6000220100202DE9F04FC7B004460D4616463D
:104B700014227FA11DA8FCF763FA142281A108A8C2
:104B8000FCF75EFA202284A16846FCF759FA142249
:104B900089A127A8FCF754FA20228CA10DA8FCF7C4
:104BA0004FFA142291A12CA8FCF74AFA14228FA1E3
:104BB00022A8FCF745FA202291A131A8FCF740FA7F
:104BC00097A020220068459096A139A8FCF738FAF2
:104BD00020229CA115A8FCF733FA01220DF58B7158
:104BE0001C2003F03DFD0121042003F05FFD4FF484
:104BF0007A72B4FBF2F102FB11436422B3FBF2F2CE
:104C000002F0FF094FF47A7202FB1142C8B264212C
:104C1000B2FBF1F2D2B202EB4207B4FBF1F201FBBC
:104C200012420A21B2FBF1F2B4FBF1F301FB134192
:104C3000EB460DF1340C0DF1540802EB420201EB8E
:104C4000410101EB0C0A904407EB0B0438B100EB77
:104C5000400159440322192003F002FD02E0B9F19A
:104C6000000F04D003222146162003F0F9FC032292
:104C70004146132003F0F4FC03225146102003F0B8
:104C8000EFFC4FF064084FF00A01B5FBF8F2B5FBFA
:104C9000F1F412F0FF0001FB145408FB1252B2FBB6
:104CA000F1F127AB0DF1200C03EB44070CEB4104B1
:104CB00005D00CEB400102220A2003F0D1FC0222B5
:104CC0002146082003F0CCFC022239460E2003F0D6
:104CD000C7FC4FF00A00B6FBF0F3B6FBF8F100FB9F
:104CE00013632CAA02EB430811F0FF044FF0640297
:104CF00002FB1161B1FBF0F05A4F0DF1740C0DF194
:104D000088090CEB400609EB400538781DD050B9F6
:104D100002220CEB4401104603F0A2FC02222946B9
:104D2000042003F09DFC3878012806D1022209EB0B
:104D30004401104603F094FC14E002224146062090
:104D400003F08EFC47B0BDE8F08F20B9022229465F
:104D5000042003F085FC38780128EED101210220DF
:104D600003F0A4FC02223146042003F079FCE4E7BE
:104D70000A0F0006060D040F0C060C0B0E0B000E9E
:104D80000E0F0C0F0F0506000B060F0206030D0396
:104D90000D0707000F070F030605060600000407AE
:104DA00002060700060204020704020706060400C2
:104DB00006070606070400000D0F08060E0B0A0F73
:104DC0000B060B0D0F0D08070F0F0B0F060507063F
:104DD0000001040703060701060205020705020792
:104DE0000706040106070706070500000B0F01066A
:104DF000070D050F0D060D0B0F0B010E0F0F0D0FFD
:104E00000E0D060E08000C0F020E0F000E0A040A0B
:104E10000F040A0F060E0C000E0F060E0F04000002
:104E200009050300060D06060800040F02060F0020
:104E3000060A04020F04020F06060C00060F0606FF
:104E40000F04000006050E06000804070A060708FE
:104E500006020C02070C02070E06040806070E06DF
:104E6000070C0000220100201CB50121022002F0E5
:104E70007BFFE020009001208DF8040000208DF8D9
:104E8000060002200F4C8DF8050069462046FCF70D
:104E9000F1FF20212046FDF744F840212046FDF790
:104EA00040F880212046FDF73CF8022003F0E2F8AC
:104EB000292003F0DFF8012003F0DCF8032003F0E1
:104EC000D9F81CBD00040240FEE700007CB5134E7B
:104ED0004FF4005529463046FDF721F801208DF8A2
:104EE000040002206C008DF80500009469463046ED
:104EF000FCF7C0FF21463046FDF711F8022007F00D
:104F0000C1FC29463046FDF70CF8022007F0BAFC38
:104F100029463046FDF703F87CBD0000000402403E
:104F20001CB50121022002F01FFF4FF4E040009069
:104F300001208DF8040002200A4C8DF80500694616
:104F40002046FCF797FFA1142046FCF7E8FF4FF43A
:104F500000512046FCF7E5FF4FF480412046FCF766
:104F6000E0FF1CBD000402407CB5134E4FF4005519
:104F700029463046FCF7D3FF01208DF804000220BB
:104F80006C008DF80500009469463046FCF772FF0E
:104F900021463046FCF7C5FF022007F073FC294686
:104FA0003046FCF7BEFF022007F06CFC2946304675
:104FB000FCF7B5FF7CBD0000000402402DE9FC4772
:104FC00000241B4E80464FF480478DF80440009724
:104FD0008DF8074069463046FCF74CFF0025B9467E
:104FE0007F1039463046FCF79AFF022007F04AFC52
:104FF00039463046FCF795FF6006040E49463046B8
:10500000FCF786FF08B1641CE4B2012007F03AFC0B
:105010006D1CEDB2082DE4D3B8F1000F04D0FFF7FA
:1050200055FF2046BDE8FC87FFF79EFFF9E700002B
:10503000000402402DE9FC47054601208DF80400DC
:1050400002201A4E4FF480478DF8050000976946FC
:105050003046FCF70FFF4FF4005841463046FCF74E
:105060005EFFB9460024474628064946304602D42A
:10507000FCF755FF01E0FCF754FF6806050E02201F
:1050800007F000FC39463046FCF74BFF022007F0E2
:10509000F9FB39463046FCF742FF022007F0F2FBED
:1050A000641CE4B2082CDFD3BDE8FC870004024096
:1050B0007CB501208DF804000220114D4FF480448E
:1050C0008DF80500009469462846FCF7D3FE21467A
:1050D0002846FCF726FF661031462846FCF721FFDC
:1050E000032007F0CFFB21462846FCF718FF0320DA
:1050F00007F0C8FB31462846FCF711FF7CBD0000D5
:10510000000402407CB501208DF804000220114DFE
:105110004FF480448DF80500009469462846FCF75A
:10512000A9FE661031462846FCF7F9FE21462846BE
:10513000FCF7F5FE032007F0A5FB31462846FCF7F7
:10514000F0FE21462846FCF7ECFE032007F09AFB10
:105150007CBD0000000402402DE9FC410024184EF3
:105160004FF480458DF8044000958DF8074069465E
:105170003046FCF77FFE29463046FCF7D2FE012080
:1051800007F080FB6F1039463046FCF7CAFE01205D
:1051900007F078FB08E0641CE4B2FA2C04D9FFF7AE
:1051A000B1FF0120BDE8FC8129463046FCF7B0FE86
:1051B0000028F0D139463046FCF7B1FE0020F1E777
:1051C0000004024002494AF6AA2008607047000025
:1051D00000300040054A45F255531360506091601D
:1051E000580010604CF6CC40106070470030004012
:1051F0002DE9F0479CB001215E4802F0B5FD012188
:105200004FF4E06002F0D4FD4FF0806000905A4807
:1052100001900125594802A9002431C106A8EE02D7
:105220006F034FF480784FF400390594A0E8D00361
:10523000CDE90B45DFF848A10D94694650460E9420
:10524000FCF7FAFB01215046FCF7ECFB4D4802A9A4
:10525000CDE900404948DFF828A1801C31C106A8EB
:105260000594A0E8D003CDE90B45AAF1180A0D94E6
:10527000694650460E94FCF7DFFB01215046FCF7CF
:10528000D1FB68060090404801903C4802A9001DEF
:1052900031C106A80594A0E8D003394ECDE90B45ED
:1052A00018360D94694630460E94FCF7C5FB012173
:1052B0003046FCF7B7FB3F20032615908DF8586069
:1052C0008DF85B4015A93148FCF7D4FD922015906C
:1052D0008DF858608DF85B4015A92D48FCF7CAFD84
:1052E00017941894199417A81A94FBF7FBFF0F94BE
:1052F0008DF84040119413941F4C8DF841504C3C54
:105300008DF850500FA92046FCF718F81E4D0FA934
:105310004C3D2846FCF712F81A4E0FA94C3E304679
:10532000FCF70CF801212046FBF7FEFF012128467F
:10533000FBF7FAFF01213046FBF7F6FF012120467B
:10534000FBF7E8FF01212846FBF7E4FF0121304687
:10535000FBF7E0FF01212046FBF7BAFF01212846B9
:10536000FBF7B6FF01213046FBF7B2FF1CB0BDE8EA
:10537000F0870000050040004C2201400E00002094
:10538000286402404C2001404C21014000080240AA
:10539000000002401CB50121082002F0E5FC4FF49A
:1053A000FE40002400908DF8044069460848FCF750
:1053B00061FD0121102002F0D7FC4FF460700090D5
:1053C0008DF8044069460348FCF754FD1CBD0000FD
:1053D000000C0240001002404FF400410148FCF76D
:1053E0009EBD0000000C024010B54FF40041034880
:1053F000FCF797FD02490620C87210BD000C024060
:10540000000000202DE9F0470C46F9A1904699468E
:105410008CB091E82C00C968DDF850A0CDE90251AC
:10542000F7A1CDE9002391E82C00C968CDE9042358
:10543000CDE90651F6A104AE91E82C00C96808AF89
:10544000CDE90A51611E6D46CDE9082340B101281E
:105450007DD10F297CD8CCB2B8F1000F79D0D4E03F
:105460000F2974D8CCB2B8F1000F11D1285D0121F9
:1054700040F4E070FCF718FA385D012140F4E07068
:10548000FCF712FA305D012140F4E070FCF70CFAF1
:10549000B9F1000F11D1285D022140F4E070FCF752
:1054A00003FA385D022140F4E070FCF7FDF9305D4D
:1054B000022140F4E070FCF7F7F9BAF1000F11D1C6
:1054C000285D032140F4E070FCF7EEF9385D03211C
:1054D00040F4E070FCF7E8F9305D032140F4E0703F
:1054E000FCF7E2F9B8F1010F11D1305D012140F470
:1054F000E070FCF7D9F9385D012140F4E070FCF769
:10550000D3F9285D012140F4E070FCF7CDF9B9F141
:10551000010F11D1305D022140F4E070FCF7C4F9B5
:10552000385D022140F4E070FCF7BEF9285D0221ED
:1055300040F4E070FCF7B8F9BAF1010F15D1305D15
:10554000032140F4E070FCF7AFF9385D02E0B7E00A
:10555000C6E048E040F4E0700321FCF7A5F9285DBF
:10556000032140F4E070FCF79FF9B8F1020F11D16C
:10557000285D012140F4E070FCF796F9305D0121CF
:1055800040F4E070FCF790F9385D012140F4E070E0
:10559000FCF78AF9B9F1020F11D1285D022140F41C
:1055A000E070FCF781F9305D022140F4E070FCF717
:1055B0007BF9385D022140F4E070FCF775F9BAF12F
:1055C000020F7DD1285D032140F4E070FCF76CF9F7
:1055D000305D032140F4E070FCF766F9385D03218B
:1055E00040F4E070FCE0285D012140F4E070FCF73D
:1055F0005BF9385D012140F4E070FCF755F9305D4E
:10560000012140F4E070FCF74FF9B9F1000F11D11E
:10561000285D022140F4E070FCF746F9385D022174
:1056200040F4E070FCF740F9305D022140F4E07096
:10563000FCF73AF9B8F1010F11D1305D012140F4C6
:10564000E070FCF731F9385D012140F4E070FCF7BF
:105650002BF9285D012140F4E070FCF725F9B9F140
:10566000010F11D1305D022140F4E070FCF71CF90C
:10567000385D022140F4E070FCF716F9285D022144
:1056800040F4E070FCF710F9B8F1020F11D1285D79
:10569000012140F4E070FCF707F9305D012140F48E
:1056A000E070FCF701F9385D012140F4E070FCF78F
:1056B000FBF8B9F1020F13D1285D40F4E07000E06F
:1056C0008FE00221FCF7F0F8305D022140F4E07039
:1056D000FCF7EAF8385D022140F4E070FCF7E4F8EA
:1056E000113C0F2C7DD8E4B2B8F1000F11D1285D28
:1056F000042140F4E070FCF7D7F8385D042140F451
:10570000E070FCF7D1F8305D042140F4E070FCF764
:10571000CBF8B9F1000F11D1285D052140F4E070FC
:10572000FCF7C2F8385D052140F4E070FCF7BCF8E6
:10573000305D052140F4E070FCF7B6F8B8F1010FD8
:1057400011D1305D042140F4E070FCF7ADF8385D14
:10575000042140F4E070FCF7A7F8285D042140F430
:10576000E070FCF7A1F8B9F1010F11D1305D05210E
:1057700040F4E070FCF798F8385D052140F4E070E3
:10578000FCF792F8285D052140F4E070FCF78CF8F6
:10579000B8F1020F11D1285D042140F4E070FCF74C
:1057A00083F8305D042140F4E070FCF77DF8385D4B
:1057B000042140F4E070FCF777F8B9F1020F13D13F
:1057C000285D052140F4E070FCF76EF8305D05219E
:1057D00040F4E070FCF768F8385D052140F4E070B3
:1057E00000E001E0FCF760F80CB0BDE8F0870000D5
:1057F000383B3033282B2023181B1013080B0003D1
:10580000393C3134292C2124191C1114090C1104A0
:105810003A3D32352A2D22251A1D12150A0D020590
:105820002DE9F0470C46F9A1904699468CB091E8D5
:105830002C00C968DDF850A0CDE90251F7A1CDE9EF
:10584000002391E82C00C968CDE90423CDE9065175
:10585000F6A104AE91E82C00C96808AFCDE90A5161
:10586000611E6D46CDE9082340B101287DD10F2985
:105870007CD8CCB2B8F1000F79D0D4E00F2974D81D
:10588000CCB2B8F1000F11D1285D012140F4E070D5
:10589000FCF70AF8385D012140F4E070FCF704F8E9
:1058A000305D012140F4C070FBF7FEFFB9F1000F3D
:1058B00011D1285D022140F4E070FBF7F5FF385D5F
:1058C000022140F4E070FBF7EFFF305D022140F46D
:1058D000C070FBF7E9FFBAF1000F11D1285D032179
:1058E00040F4E070FBF7E0FF385D032140F4E07026
:1058F000FBF7DAFF305D032140F4C070FBF7D4FF03
:10590000B8F1010F11D1305D012140F4E070FBF7D7
:10591000CBFF385D012140F4E070FBF7C5FF285D47
:10592000012140F4C070FBF7BFFFB9F1010F11D1A5
:10593000305D022140F4E070FBF7B6FF385D0221D4
:1059400040F4E070FBF7B0FF285D022140F4C07026
:10595000FBF7AAFFBAF1010F15D1305D032140F426
:10596000E070FBF7A1FF385D02E0B7E0C6E048E079
:1059700040F4E0700321FBF797FF285D032140F41A
:10598000C070FBF791FFB8F1020F11D1285D012122
:1059900040F4E070FBF788FF305D012140F4E070D7
:1059A000FBF782FF385D012140F4C070FBF77CFFFC
:1059B000B9F1020F11D1285D022140F4E070FBF72C
:1059C00073FF305D022140F4E070FBF76DFF385D3E
:1059D000022140F4C070FBF767FFBAF1020F7DD1DE
:1059E000285D032140F4E070FBF75EFF305D03218A
:1059F00040F4E070FBF758FF385D032140F4C070BD
:105A0000FCE0285D012140F4E070FBF74DFF385DBC
:105A1000012140F4E070FBF747FF305D012140F4C5
:105A2000C070FBF741FFB9F1000F11D1285D0221D1
:105A300040F4E070FBF738FF385D022140F4E0707D
:105A4000FBF732FF305D022140F4C070FBF72CFF02
:105A5000B8F1010F11D1305D012140F4E070FBF786
:105A600023FF385D012140F4E070FBF71DFF285D46
:105A7000012140F4C070FBF717FFB9F1010F11D1FC
:105A8000305D022140F4E070FBF70EFF385D02212B
:105A900040F4E070FBF708FF285D022140F4C0707D
:105AA000FBF702FFB8F1020F11D1285D012140F48C
:105AB000E070FBF7F9FE305D012140F4E070FBF788
:105AC000F3FE385D012140F4C070FBF7EDFEB9F143
:105AD000020F13D1285D40F4E07000E08FE0022156
