:020000040800F2
:10000000C0D4002069020008F35100089944000898
:10001000F1510008B1180008497C000800000000F8
:10002000000000000000000000000000DD75000876
:10003000991A000800000000EB0200089177000800
:10004000830200088302000883020008830200087C
:10005000830200088302000883020008830200086C
:10006000830200088302000883020008830200085C
:10007000830200088302000883020008830200084C
:10008000830200088302000883020008830200083C
:10009000830200088302000883020008991B0008FD
:1000A000830200088302000883020008830200081C
:1000B0001178000883020008B9780008830200085C
:1000C00083020008830200088302000883020008FC
:1000D000830200088302000883020008E17A000816
:1000E0009D1A0008830200088302000883020008AA
:1000F00083020008830200088302000883020008CC
:1001000083020008830200088302000883020008BB
:100110000D7A0008830200088302000883020008A9
:10012000830200088302000883020008830200089B
:10013000830200088302000883020008830200088B
:10014000830200088302000883020008830200087B
:10015000830200088302000883020008830200086B
:10016000830200088302000883020008830200085B
:10017000830200088302000883020008830200084B
:10018000830200088302000800F002F800F05CF827
:100190000AA090E8000C82448344AAF10107DA45E2
:1001A00001D100F051F8AFF2090EBAE80F0013F0D8
:1001B000010F18BFFB1A43F001031847645B0100ED
:1001C000845B01000A444FF0000C10F8013B13F06F
:1001D000070408BF10F8014B1D1108BF10F8015BA0
:1001E000641E05D010F8016B641E01F8016BF9D193
:1001F00013F0080F1EBF10F8014BAD1C0C1B09D1EA
:100200006D1E58BF01F801CBFAD505E014F8016B5B
:1002100001F8016B6D1EF9D59142D6D370470000ED
:100220000023002400250026103A28BF78C1FBD8FF
:10023000520728BF30C148BF0B6070471FB50FF091
:1002400056F91FBD10B510BD00F054FF1146FFF761
:10025000F5FF0EF079F800F072FF03B4FFF7F2FF3C
:1002600003BC00F073FF00000948804709480047BD
:10027000FEE7FEE7FEE7FEE7FEE7FEE7FEE7FEE756
:10028000FEE7FEE704480549054A064B70470000B3
:10029000B577000889010008C0CE0020C0D4002036
:1002A000C0D00020C0D00020EFF3108072B670479D
:1002B00080F3108870471D484FF0FF010170002047
:1002C00080F309881A48012101701A484FF08051C3
:1002D000016062B6FEE717484FF080510160704739
:1002E00014484FF080510160704772B6EFF30980F7
:1002F00028B1203880E8F00F0F490968086000B580
:100300000E4880475DF804EB0D480E490A780270EC
:1003100009480D490A680260106890E8F00F203023
:1003200080F309884EF0040E62B6704722ED00E0BB
:100330009700002004ED00E0B0000020395B0008C9
:100340009400002095000020B800002072B670478D
:1003500062B67047EFF3108072B6704780F3108872
:100360007047B0FA80F0704790FAA0F0704730BF45
:10037000704720BF70470000DFED2E0AB5EEC00ABF
:1003800060EE200ABDEEE01A11EE100AF1EE10FA4E
:1003900038BF401E00EE100ADFED271AF7EE005AB4
:1003A000B8EEC00ADFED274A244930EEC01A21EE2C
:1003B000210AFCEEC00A10EE900A00EE900A01EB52
:1003C0008000B8EE600ADFED1E0AF0EC012A11EEA3
:1003D000210AF6EE001AB0EC013AF0EC013A20EEF8
:1003E000001A20EE216A40EE615A20EE245A21EED6
:1003F000212A90ED004A00EE602A66EE010A40EEE6
:10040000400A05EE412A70EEA55AF0EE400A41EE90
:10041000210A46EE410A25EE011A00EE641A22EE88
:10042000820A63EEA00A03EE250A44EE010A30EECA
:10043000200A704783F9223E0000804374F60008CA
:10044000ABAAAA3EABAA2A3E9FED3A0A5FEA920CFB
:1004500053D000BFB0EC011A0B1DF0EC010A21EEE5
:10046000011A00EEA01AB5EEC01AF1EE10FAC6BFDE
:10047000F1EEC10AC1ED000A81ED000AF0EC010ABB
:10048000191DB0EC011A60EEA00A41EE010AF5EE6A
:10049000C00AF1EE10FAC6BFF1EEE00AC3ED000AA1
:1004A00083ED000AB0EC011A0B1DF0EC010A21EEFD
:1004B000011A00EEA01AB5EEC01AF1EE10FAC6BF8E
:1004C000F1EEC10AC1ED000A81ED000AB0EC011A9B
:1004D000191DF0EC010A21EE011A00EEA01AB5EE8A
:1004E000C01AF1EE10FAC6BFF1EEC10AC3ED000A60
:1004F00083ED000ABCF1010CACD112F0030208BF7D
:10050000704700BFF0EC010A0B46B0EC011A091D60
:1005100060EEA00A41EE010AF5EEC00AF1EE10FA13
:10052000C6BFF1EEE00AC3ED000A83ED000A521ED9
:10053000E8D17047000000002DE9F00700EBC10989
:10054000DDE90778D0F800A0C9F800A007EB011496
:10055000D0F804A0251FA9F10406C9F804A003EBF4
:10056000C80907F1080C00F1080402EBC8024B1E91
:1005700031D000BFF2EC011A96ED002A92ED001A7C
:1005800002EBC802B4EC010A121FF4EC012A60EE7F
:10059000210A20EE010A32EE823A02EEA10AD9EDDA
:1005A000001A43EE410A09EBC80902EE610A16ED92
:1005B000012A083E42EE210A02EE410AECEC010A51
:1005C000ACEC010AB1EE400A85ED000A45ED010AE6
:1005D000083D5B1ECED190ED000AD0ED010A07EB7D
:1005E000C10130EE600A81ED000A9FED5D0A81EDE8
:1005F000010AD0ED000A90ED011A70EE810AC7EDF4
:10060000000A87ED010ABDE8F007704770B400EBFF
:10061000C105DDE903C42D1D002904BF70BC70476E
:10062000F2EC011A95ED002A92ED001A02EBC402D9
:10063000B0EC010A121FF0EC012A60EE210A20EE54
:10064000410A32EE823A02EEA10AD3ED001A43EEDD
:10065000010A03EBC40302EE610A15ED012A083D0D
:10066000491E42EE210A02EE010AECEC010AACEC52
:10067000010AD5D170BC70472DE9F04305464469A5
:10068000807983B00F461646012809D0A3892188B6
:100690003846626800F036F9E87901284ED053E018
:1006A000AA88D5E9030307EBC20CD5F808803146C8
:1006B0000CF1040C5AB300BFB0EC011A9CED002AF7
:1006C000D0ED001A00EBC800B7EC010A001FF7ECF0
:1006D000012A521E60EE010A20EE610A32EE823AD1
:1006E00002EE810A93ED001A43EE210A03EBC803E0
:1006F00002EE410A1CED012AACF1080C42EE010A9F
:1007000002EE210AE1EC010AA1EC010AD4D194ED38
:10071000040AA38921883046626800F095FAE879D6
:1007200001281CBF03B0BDE8F083E2892188A368DB
:1007300003B03046BDE8F04300F08CB8E289218870
:100740003846A36800F086F8A868CDE90060D5E9CE
:100750000323A9883846FFF7EFFE03B0BDE8F08316
:100760000000000070B592B2DDF810C055080260BC
:100770008580184EC66006F50056DBB2066100247F
:10078000837180F807C0802A04BF102282600BD0DA
:10079000B2F5007F08BF042212D0B2F5006F14BF7B
:1007A0004FF0FF3401220BD0002B8C4641614FF0FB
:1007B000000307D001222946604600F015FC06E040
:1007C0008260F1E700222946604600F00DFC2046D9
:1007D00070BD000080FA000870B40025B0EC010A7A
:1007E000A1F1010CF0EC010AB4EEE00AF1EE10FA0E
:1007F0003CBFB0EE600A0125ACF10104A446B4F19F
:10080000004F0ED3F0EC010AB4EEE00AF1EE10FA5C
:100810003CBFB0EE600AA1EB0C05BCF1010CF1D1BC
:1008200013E0002CC8BF00260FDD00BFF0EC010A6A
:10083000B4EEE00AF1EE10FA04D2ACEB0605B0EE2D
:10084000600A4D1B761C641EF0D182ED000A1D600B
:1008500070BC70472DE9F0014E0801244FF0000CE8
:1008600004EB51076146A6F102082CE061452AD24B
:1008700000EBCC0500EBC104D5ED000A94ED000AB5
:10088000C4ED000A85ED000AD5ED010A94ED010AD8
:10089000C4ED010A85ED010A0CEB0705CC1900EB4C
:1008A000C50500EBC404D5ED000A94ED000AC4EDC3
:1008B000000A85ED000AD5ED010A94ED010AC4EDA8
:1008C000010A85ED010A00EBC104B44400EBCC0C35
:1008D00094ED020ADCED000A891CC4ED020A8CEDDD
:1008E000000A94ED030ADCF80450E5608CED010A7F
:1008F000B3F800C089B203EB42034145B6D9BDE865
:10090000F00170472DE9F04F4FEA910C4FF00008CD
:100910004746644608EB0C0505EB0C0909EB0C0691
:1009200000EBC80A00EBC9099AED000AD9ED000AEC
:1009300099ED012A00EBC50530EE201A30EE600A71
:10094000DAED010A00EBC60608F1010870EE821A22
:1009500070EEC20A95ED002AD6ED002A641E32EE32
:10096000222A71EE022A31EE421ACAED002A95EDD2
:10097000012AD6ED012A32EE222A71EE822A71EE88
:10098000C21ACAED012A95ED012AD6ED012A96ED8B
:10099000003A4FEA470A32EE622AD5ED002A02EB0E
:1009A000CA0B72EEC32A9BED003ADBED013A21EE51
:1009B000034A01EEA34A61EE831A41EE631A85ED04
:1009C000004A30EE021A30EE420AC5ED011A02EB7F
:1009D000C70570EEE21A95ED002A70EEA20AD5ED79
:1009E000012A21EE023A0AEB070502EBC5051F4476
:1009F00001EEA23A61EE821A41EE621A89ED003AE6
:100A0000C9ED011AD5ED001A95ED011A20EE212A43
:100A100000EE812A60EEA10A40EE410A86ED002A2E
:100A2000C6ED010A7FF476AF9B044FEA134BE6460E
:100A3000BCF1040F7DD9E0464FEA9C0C4FF0000951
:100A4000CA46BCF1000F75D94FEA490404EB09030B
:100A500002EBC90502EBC40402EBC30395ED001AD7
:100A6000D5ED011A94ED000AD4ED010A93ED002AA8
:100A7000D3ED012AD94453468A4573D203EB0C04C3
:100A800004EB0C0606EB0C0500EBC30700EBC606F7
:100A900097ED003AD6ED003A96ED015A00EBC4040A
:100AA00073EE234A33EE633AD7ED013A00EBC50506
:100AB00033EE854A73EEC53A94ED005AD5ED005AEF
:100AC00035EE255A74EE855A74EEC54AC7ED005AC4
:100AD00094ED015AD5ED015A35EE255A74EE055ABA
:100AE00034EE454AC7ED015A94ED015AD5ED015A4D
:100AF00095ED006A35EE655AD4ED005A75EEC65A8A
:100B000024EE806A04EE206A24EE004A04EEE04AF5
:100B100084ED006A73EEE54A73EEA53A84ED014A6E
:100B200033EE054A33EE453A24EE015A04EEA15A5B
:100B300001E026E01BE064EE814A86ED005A434462
:100B40008B4244EE614A23EE024A03EEA24A63EE70
:100B5000823AC6ED014A43EE623A85ED004AC5EDA0
:100B6000013A8BD30AF1010AE245FFF46DAF4FEA77
:100B70008B434FEA9E0E4FEA134BBEF1040F3FF634
:100B80005AAFA1EB0C0100224B1C4FEA9C04002B36
:100B90008CBF1F46BDE8F08F11190E19331900EBF9
:100BA000C20500EBC60695ED000AD6ED000A95EDEC
:100BB000012A96ED011A70EE201A70EE600A32EEEC
:100BC000010A00EBC10100EBC30332EE411A91EDC3
:100BD000002AD3ED002A6244974232EE222A71EEB7
:100BE000822A31EEC22AC5ED002AD1ED011AD3EDD9
:100BF000012A71EEA21A70EE212AC5ED012A70EECB
:100C0000612A91ED010AD3ED011A93ED003A70EEDD
:100C1000611A91ED000A81ED002AC1ED012A30EE42
:100C2000430A30EEA12A70EEE10A71EE401A31EE6D
:100C3000000A86ED002AC6ED011AC3ED000A83ED15
:100C4000010AA9D8BDE8F08F2DE9F04F4FEA910CC9
:100C50004FF000084746644608EB0C0505EB0C0A0C
:100C60000AEB0C0600EBC80900EBCA0AD9ED000A32
:100C70009AED001ADAED012A00EBC50570EE811A33
:100C800070EEC10A99ED011A00EBC60608F10108E1
:100C900031EE222A31EE621AD5ED002A96ED003AA5
:100CA000641E72EE832A31EEA23A71EEE21A89EDE9
:100CB000003AD5ED012A96ED013A72EE832A32EE22
:100CC000223A32EE622A89ED013AD5ED012A96EDFB
:100CD000013AD6ED003A4FEA470972EEC32A95ED84
:100CE000003A02EBC90B33EE633ADBED003A9BEDC1
:100CF000014A61EEA34A42EE444A22EE232A01EE63
:100D0000842AC5ED004A70EEE21A70EEA20A85ED63
:100D1000012A02EBC70531EE032AD5ED002A31EE98
:100D2000431A95ED013A61EEA23A09EB070502EB91
:100D3000C5051F4442EE433A22EE222A01EE832AE1
:100D4000CAED003A8AED012AD5ED001A95ED012A87
:100D500060EEA12A41EE422A21EE211A00EE821A0B
:100D6000C6ED002A86ED011A7FF476AF9B044FEAA8
:100D7000134BE646BCF1040F7DD9E0464FEA9C0CCC
:100D80004FF00009CA46BCF1000F75D94FEA49047B
:100D900004EB090302EBC90502EBC40402EBC30335
:100DA000D5ED001A95ED012AD4ED000A94ED011A53
:100DB000D3ED002A93ED013AD94453468A4573D2C4
:100DC00003EB0C0404EB0C0606EB0C0500EBC3076D
:100DD00000EBC606D7ED003A96ED004AD6ED015A73
:100DE00000EBC40433EE845A73EEC43A97ED014A23
:100DF00000EBC50574EE254A34EE654AD4ED005A81
:100E000095ED006A75EE865A35EE256A35EE655A1F
:100E100087ED006AD4ED015A95ED016A75EE865AA8
:100E200034EEA56A74EEE54A87ED016AD4ED015A05
:100E300095ED016AD5ED006A75EEC65A94ED006A2B
:100E400036EE666A65EE206A44EEC16A64EEA04A38
:100E500045EE014AC4ED006A34EE065A34EE464AC5
:100E6000C4ED014A73EEE54A73EEA53A64EEA15A69
:100E700045EE425A01E026E01BE025EE215AC6ED80
:100E8000005A43448B4204EE825A63EEA24A44EE77
:100E9000434A24EE224A86ED015A03EE834AC5ED09
:100EA000004A85ED014A8BD30AF1010AE245FFF4BD
:100EB0006DAF4FEA8B434FEA9E0E4FEA134BBEF1E4
:100EC000040F3FF65AAFA1EB0C0100224B1C4FEA76
:100ED0009C06002B8CBF1F46BDE8F08F91198D1921
:100EE000AB1900EBC20400EBC505D4ED000AD5ED4B
:100EF000001AD4ED012A95ED012A30EEA11A70EE08
:100F0000E11A72EE820A00EBC10100EBC30332EE7C
:100F1000C22AD1ED002A93ED003A6244974272EE64
:100F2000832A31EE223A71EE622A23EE003A62EE13
:100F3000802A84ED003A91ED011A93ED013A31EEE9
:100F4000031A30EE813A23EE003A84ED013A30EE96
:100F5000C13AD1ED010A93ED011AD3ED003A30EE1A
:100F6000C11AD1ED000AC1ED002A63EE002A70EE2D
:100F7000E30AC1ED012A71EEC12A31EE811A72EE47
:100F8000201A72EE600A22EE802A21EE001A61EE2B
:100F9000801A85ED002A60EE800AC5ED011A83ED06
:100FA000001AC3ED010A99D8BDE8F08F30B50446A8
:100FB0000D4680782188A389626801280DD02846D3
:100FC000FFF7A0FCE078012818BF30BDE289218836
:100FD0002846A368BDE830403CE494ED040A284666
:100FE000FFF732FEEEE7000010B401801B4C4460B6
:100FF00082704FF0000CC370102925D040291BD0FF
:10100000B1F5807F10D0B1F5806F18BF4FF0FF3C75
:1010100002D010BC6046704701218181C181104916
:101020009FED100A816016E004218181C1810E4983
:101030009FED0E0A81600EE010218181C1810C4973
:101040009FED0C0A816006E040218181C1810A493F
:101050009FED0A0A816080ED040ADAE7803A010810
:10106000805A01080000803A865A01080000803B3F
:101070009E5A01080000803CFE5A01080000803D95
:1010800010B5203AC0F00B80B1E81850203AA0E823
:101090001850B1E81850A0E81850BFF4F5AF5FEA57
:1010A000027C24BFB1E81850A0E8185044BF18C90A
:1010B00018C0BDE810405FEA827C24BF51F8043BB1
:1010C00040F8043B08BF7047D20728BF31F8023B05
:1010D00048BF11F8012B28BF20F8023B48BF00F899
:1010E000012B7047704770477047000000487047F9
:1010F0005CCE00207546FFF7F9FFAE460500694655
:10110000534620F00700854618B020B5FFF7BAF81F
:10111000BDE820404FF000064FF000074FF00008F8
:101120004FF0000B21F00701AC46ACE8C009ACE879
:10113000C009ACE8C009ACE8C0098D467047044658
:10114000AFF300802046FFF788F870470149182068
:10115000ABBEFEE72600020010B5064C01220023BC
:101160001146204600F030F92046BDE8104000F05E
:1011700065B900000020014010B5064C0023012293
:101180000C21204600F020F92046BDE8104000F078
:1011900055B900000020014010B5064C0023012283
:1011A0000421204600F010F92046BDE8104000F070
:1011B00045B900000020014010B5064C0023012273
:1011C0000721204600F000F92046BDE8104000F05D
:1011D00035B900000020014070B59CB001212F48B6
:1011E00006F0B8F801214FF4E06006F0D7F84FF0B0
:1011F000007000902A4801902A4802A90024012585
:1012000031C1E802CDE90640800008904011099004
:101210000AA90594400231C1234E0D946946304617
:101220000E9400F00FFC0121304600F001FC032079
:101230008DF8680019958DF86B4019A91B4800F0CE
:10124000D9FD15941694179415A8189400F06AF80F
:101250000F948DF8404011941394114C8DF8415027
:101260004C3C8DF850500FA9204600F087F8002321
:1012700001220821204600F0A7F80121204600F0B5
:1012800073F80121204600F065F80121204600F0A6
:101290003FF8204600F0D2F81CB070BD02004000BC
:1012A0004C2101401600002040640240000402402E
:1012B00010B5064C002301220A21204600F084F8D4
:1012C0002046BDE8104000F0B9B8000000220140FF
:1012D00010B5064C002301220B21204600F074F8C3
:1012E0002046BDE8104000F0A9B8000000220140EF
:1012F00010B5064C002301220C21204600F064F8B2
:101300002046BDE8104000F099B8000000220140DE
:101310000029816802D041F0010101E021F00101C2
:1013200081607047094B10B51A68094902EA010249
:10133000D0E9001441EA0401D0E9024044EA000483
:1013400041EA040141EA0201196010BD0423014091
:10135000E030FCFF0029816802D041F4807101E097
:1013600021F48071816070470029816802D041F4C6
:10137000007101E021F400718160704730B542686E
:101380000F4B0C791A400B6842EA04221343436066
:1013900082680C4B4D791A40D1E9034323438C6892
:1013A00044EA4504234313438360C26A097D22F45F
:1013B0007002491EC9B242EA0151C16230BD00004B
:1013C000FFFEFFFCFDF7FFC070B5072509290AD90C
:1013D000C468A1F10A0606EB4606B540AC43B3402B
:1013E0001C43C46007E0046901EB4106B540AC430F
:1013F000B3401C4304611F23072A09D2446B521EC9
:1014000002EB820293409C4391400C43446370BDC5
:101410000D2A09D2046BD21F02EB820293409C4337
:1014200091400C43046370BDC46A0D3A02EB820222
:1014300093409C4391400C43C46270BD816841F06D
:1014400080418160704703F053B810B5044603F043
:1014500017F9A02003F0D6F803F066F9200A03F08C
:10146000D1F803F061F9E0B203F0CCF803F05CF9D5
:1014700003F006F9A12003F0C5F803F055F90020A8
:1014800003F084F8044603F025F9204610BD70B53A
:1014900004460D4603F0F4F8A02003F0B3F803F07F
:1014A00043F9200A03F0AEF803F03EF9E0B203F08E
:1014B000A9F803F039F9284603F0A4F803F034F949
:1014C00003F008F9BDE870400A200CF0D1B870476D
:1014D00038B5002003F0ACFF174CA064002003F0E7
:1014E000A7FFE064002004F095F86065002003F099
:1014F0009FFF2065002004F08DF8A0656A460FA1CB
:101500000A2004F013FA03230F4A00210F4804F0C5
:1015100067F902230E4A00210E4804F061F9012305
:101520000D4A00210D4804F05BF900230C4A1946CE
:101530000C4804F055F938BD000000205374617266
:1015400074205461736B000094150020711500081D
:1015500094B500204918000894B60020A917000887
:1015600094B70020E9E9000804F022BD70470000AC
:1015700008B5894F894EDFF828B28A4D05F0B2F8D8
:10158000387801287BD14FF400594946304600F0A5
:101590007FFC00284FD1E87BE96D07F02DFA044667
:1015A00001282DD15A46E87BDBF8101007F024FA09
:1015B0000346E87B116807F01FFA8446287413B1CC
:1015C000012B15D01CE09046E87B516807F014FA17
:1015D0000246E87BD8F8081007F00EFA0346E87BCD
:1015E000D8F80C1007F008FA0090E97B287C05E099
:1015F0000220009003460246E97B604603F0EAFBC6
:10160000E87B401CE8734946304600F041FC002866
:10161000F9D0E87B202801D90120E873C2B208E0A4
:101620001046E96D07F0E8F9044601280BD0521C7A
:10163000D2B2202AF4D94FF400694946304600F06E
:1016400027FC20B152E0EA7300202886F3E7E87B0C
:10165000E96D07F0D1F9044601282DD1D846E87B81
:10166000DBF8101007F0C8F90246E87BD8F8001044
:1016700007F0C2F928741AB1012A16D01CE086E0DE
:10168000E87BD8F8041007F0B7F90246E87BD8F8F1
:10169000081007F0B1F90346E87BD8F80C1007F002
:1016A000ABF90090E97B287C04E002210B460A4656
:1016B0000091E97B03F08EFBE87B401EE87349460E
:1016C000304600F0E5FB0028F9D0E87B08B920207F
:1016D000E873C2B208E01046E96D07F08DF90446E0
:1016E000012806D0521ED2B2002AF4D1012C03D018
:1016F0004DE0EA7300202886D846E87BDBF810101E
:1017000007F07AF90246E87BD8F8001007F074F980
:101710008446287412B1012A24D038E0E87BD8F836
:10172000041007F069F98246E87BD8F8081007F042
:1017300063F98146E87BD8F80C1007F05DF9804624
:10174000E879012807D1CDF800804B465246E97B65
:10175000287C03F03FFBE879C8B94B465246CDF8E8
:10176000008010E0E879012807D1022000900346AC
:101770000246E97B604603F02DFBE87938B9022088
:10178000034602460090E97B287C03F015F96420AB
:101790000BF06EFFF2E600002A010020000C024070
:1017A00098B70020000000201CB51D4F1D4C4FF4C1
:1017B00080760025607B01282ED1606D03F0B0FF9C
:1017C0003146384600F064FB012801D10220207325
:1017D0003146384600F05CFBF0B9E08EE0B1401EC7
:1017E000E0864FF02F08DFF84090CDE90058012344
:1017F00099F801001A4600210CF018FECDE90058B6
:1018000099F801000223012200210CF00FFEE08E66
:10181000012801D12573E58664200BF029FFC9E773
:101820000010024000000020BAB7002010B503F0FD
:10183000BBFFFFF74DFEBDE810400A2004F024B9BD
:10184000704704F0BDBB000008B5154C154D0026CF
:101850006A460021606D03F003FF607C012803D11C
:1018600011480CF095FC66740F4BA3F1140202F1C1
:101870002801A1F5B9700CF04FFE0B491439A1F500
:10188000A5700CF031FA28780028E1D1064BA3F1BD
:10189000140202F12801A1F5B97007F0B3F8D7E7F7
:1018A000000000202A0100208E02002004F09ABBD4
:1018B000FEE700002DE9F0470646481E0C460528C5
:1018C00021D8374F00254FF400794FF48078F00786
:1018D0004946384602D000F0E4FA01E000F0DFFAB1
:1018E0004146384600F0DBFA760804200BF0DEFEB5
:1018F0004146384600F0D5FA04200BF0D7FE6D1CA7
:10190000EDB20C2DE3D3274D012C19D0022C20D0A1
:10191000032C27D0042C2ED0052C35D0062C3CD1FE
:101920002021284600F0BDFA04200BF0BFFE202144
:10193000284600F0B4FABDE8F04704200BF0B6BE2C
:101940000121284600F0ADFA04200BF0AFFE012182
:10195000EEE70221284600F0A4FA04200BF0A6FED0
:101960000221E5E70421284600F09BFA04200BF051
:101970009DFE0421DCE70821284600F092FA0420AD
:101980000BF094FE0821D3E71021284600F089FAD5
:1019900004200BF08BFE1021CAE7BDE8F0870000A1
:1019A00000040240000C02407CB50121022005F039
:1019B000D1FC01244FF440708DF8044000250090C4
:1019C0008DF8065002268DF8056069460E4800F035
:1019D00011FA0121082005F0BDFC3F208DF80440DC
:1019E00000908DF806508DF805606946074800F0B4
:1019F00001FA40F2014521462846FFF75BFF641CCF
:101A0000E4B2052CF7D97CBD00040240000C024072
:101A100070B5002500240021284606F03DF9641C1D
:101A2000E4B2042CF7D36D1CEDB2202DF2D370BDBF
:101A30000029016802D041F0010101E021F001011B
:101A40000160704730B50368124ACC6813400A68D9
:101A50002243D1E905452C432243CC6922430C6A39
:101A600022434C6A22438C6A22434C6B22438C6B88
:101A700022431A430260426922F00703D1E90B2492
:101A800022431A4342610A6942604A688260896857
:101A9000C16030BD3F801CF0704700002DE9FC475D
:101AA00003F08CFC4FF4805A504600F059F9DFF8EF
:101AB000DC80374E374C4FF000092F2518B398F8CB
:101AC000000001281FD1207C012811D1CDE900950B
:101AD00001234F4670781A46E17B0CF0A7FCCDE954
:101AE0000075707802230122E17B0CF09FFC2786B1
:101AF000207C40B91720CDE90005012370781A46F3
:101B0000E17B0BF06DFC504600F086F84FF4804A04
:101B1000504600F025F988B398F8000001282DD12F
:101B2000207C01281FD1618E208E4FF0010751EAE1
:101B3000000202D001290AD015E0CDE90075012389
:101B400070781A46E17B0CF071FC67860AE050B9A8
:101B5000CDE90075707802230122E17B0CF066FC70
:101B6000A4F832902786207C40B92020CDE90005DA
:101B7000012370781A46E17B0BF032FC504600F0EE
:101B80004BF8BDE8FC4703F025BC00002A0100200B
:101B9000BAB70020000000202DE9FC4103F00EFC44
:101BA0004FF48074204600F0DBF810B11749142080
:101BB000C886204600F030F84FF40077384600F031
:101BC000CFF8D8B14FF47A700BF070FD3946104859
:101BD00000F05EF990B900252F240E4ECDE9005497
:101BE000012370781A4629460CF020FCCDE90054F8
:101BF00070780223012200210CF018FC384600F016
:101C00000BF8BDE8FC4103F0E5BB0000000000203C
:101C1000000C0240BAB7002001490860704700007C
:101C2000143C01402DE9F0434FF4804985B0012177
:101C3000484605F0B3FB0121102005F08BFB4FF463
:101C40008077002503978DF8105003A93F4800F0D6
:101C5000D1F80821042005F0C3FC8DF804500C26AF
:101C60008DF80560012400978DF80640684600F065
:101C700087F84FF017088DF8088002208DF80900CA
:101C80008DF80A008DF80B4002A803F0B7FA384629
:101C900000F05EF80921032005F0A2FC8DF8045045
:101CA00067028DF8056000978DF80640684600F0E1
:101CB00067F88DF808808DF809408DF80A408DF896
:101CC0000B4002A803F09AFA384600F041F80C21C4
:101CD000032005F085FC8DF8045027038DF805607E
:101CE00000978DF80640684600F04AF84FF0280843
:101CF0008DF808808DF809408DF80A408DF80B406A
:101D000002A803F07BFA384600F022F80E210320E7
:101D100005F066FC8DF804508DF80560CDF8009054
:101D20008DF80640684600F02BF88DF808808DF895
:101D300009408DF80A408DF80B4002A803F05EFAC6
:101D4000484600F005F805B0BDE8F08300100240F9
:101D500002490A6802430A6070470000103C0140D3
:101D6000064A014600201268044B0A4014331B68DF
:101D70000B4202D0002A00D001207047003C0140F5
:101D800030B51B498379026863B30B6893430B60DA
:101D90000A1D13680468A343136002790A44136898
:101DA000046823431360124A083213680468A3438B
:101DB0001360131D1C680568AC431C6090F805C0D7
:101DC000BCF1100F05D061440A68006802430A6044
:101DD00030BD11680468214311601968006801432F
:101DE000196030BD0079084401689143016030BD3D
:101DF000003C0140F0B5002201234FF0030C00BF6E
:101E00000D6803FA02F42540A5422DD1066854005E
:101E10000CFA04F5AE4306600E790768A6403E430F
:101E200006600E79012E01D0022E12D18668AE43D3
:101E300086604D798668A54035438560456803FA1C
:101E400002F6B543456045688E799640B6B2354393
:101E50004560C56856000CFA06F7BD43C560CD79EC
:101E6000A540C4682543C560521C102AC8D3F0BDE4
:101E70004B07DB0E9A40C90810B500EB8100016AE0
:101E80000F249C40A1430162016A1143016210BD0D
:101E90000246002012690A4200D0012070474183A7
:101EA000704701837047000070B58AB00446142261
:101EB00022A16846FFF7E4F8142225A105A8FFF740
:101EC000DFF801211C2005F0E7FE01211F2005F0AD
:101ED000E3FE0121192005F0DFFE224D287818B914
:101EE0000A211F2005F0D8FE2878012803D10C21F3
:101EF0001F2005F0D1FE6421B4FBF1F001FB10427C
:101F00000A21B2FBF1F5B4FBF1F201FB12446E467B
:101F100006EB40010222082005F098FE06EB450181
:101F200002220A2005F092FE05A800EB44010222DD
:101F30000C2005F08BFE0AB070BD0000050F0006F6
:101F4000060B020F0306030D070D0007070F030F13
:101F50000D0F08060E0B0A0F0B060B0D0F0D0807D1
:101F60000F0F0B0F2A0100202DE9F04F99B0064604
:101F70000D461446142286A105A8FFF781F8142205
:101F800088A16846FFF77CF814228BA10FA8FFF701
:101F900077F814228DA10AA8FFF772F801211C20FE
:101FA00005F07AFE01211F2005F076FE8C4F38786F
:101FB00018B90821182005F06FFE3878012803D1E0
:101FC0000C21182005F068FE3878022803D10A2178
:101FD000182005F061FE3878032803D10921182064
:101FE00005F05AFE08211B2005F056FE4FF47A7BBF
:101FF000B6FBFBF2D1B20BFB12626420B2FBF0F233
:10200000D7B2B6FBF0F200FB12620A20B2FBF0F886
:10201000B6FBF0F2DFF8CC9100FB126699F80000F5
:102020000DF1140A012805D10AEB41010222162004
:1020300005F00CFE99F8000018B90221172005F0F0
:102040002BFE0FA800EB47010222142005F0FEFD35
:1020500005AF07EB48010222122005F0F7FD07EB60
:1020600046010222102005F0F1FDB5FBFBF10BFB50
:1020700011534FF0640AB3FBFAF202F0FF0C0A238B
:10208000B5FBF3F203FB12520AAF07EB42085246CC
:10209000B5FBF2F70AFB1757B7FBF3F36E4606EBF7
:1020A0004307C8B24FF47A7303FB1151B1FBFAF145
:1020B000C9B2D94606EB410538B105A901EB40018B
:1020C00002220E2005F0C2FD02E0BCF1000F04D098
:1020D00002222946082005F0B9FD022239460A20CD
:1020E00005F0B4FD022241460C2005F0AFFDB4FB23
:1020F000F9F1CDB209FB1141B1FBFAF03A4F00F012
:10210000FF08387818B90A211F2005F0C5FD387876
:10211000012803D10C211F2005F0BEFD0A23B4FBCA
:10212000F3F003FB1041684600EB41096421B4FB66
:10213000F1F201FB1242B2FBF3F200EB42074FF463
:102140007A72B4FBF2F302FB1342B2FBF1F1C9B2B3
:1021500000EB410435B106EB45010222002005F0F9
:1021600075FD02E0B8F1000F04D0022221461046AE
:1021700005F06CFD02223946042005F067FD0222BD
:102180004946062005F062FD19B0BDE8F08F000059
:102190000F0506000B060F0206030D030D070700CF
:1021A0000F070F03050F0006060B020F0306030DB2
:1021B000070D0007070F030F0F0D06080B0E0F0A80
:1021C000060B0D0B0D0F07080F0F0F0B0D0F080659
:1021D0000E0B0A0F0B060B0D0F0D08070F0F0B0F41
:1021E00005000020090000202A0100202DE9F04F01
:1021F00099B006460D461446142286A105A8FEF79E
:102200003FFF142288A16846FEF73AFF14228BA1F3
:102210000FA8FEF735FF14228DA10AA8FEF730FFA4
:1022200001211C2005F038FD01211F2005F034FD9F
:102230000A211B2005F030FD8A4F387818B900219B
:10224000182005F029FD3878012803D10421182031
:1022500005F022FD3878022803D10221182005F06C
:102260001BFD3878032803D10121182005F014FD47
:102270004FF47A7BB6FBFBF2D1B20BFB1262642007
:10228000B2FBF0F2D7B2B6FBF0F200FB12620A200A
:10229000B2FBF0F8B6FBF0F2DFF8CC9100FB12666F
:1022A00099F800000DF1140A012805D10AEB41014B
:1022B0000222162005F0CAFC99F8000018B9022184
:1022C000172005F0E9FC0FA800EB470102221420BB
:1022D00005F0BCFC05AF07EB48010222122005F017
:1022E000B5FC07EB46010222102005F0AFFCB5FB60
:1022F000FBF10BFB11534FF0640AB3FBFAF202F04F
:10230000FF0C0A23B5FBF3F203FB12520AAF07EBF3
:1023100042085246B5FBF2F70AFB1757B7FBF3F337
:102320006E4606EB4307C8B24FF47A7303FB1151B4
:10233000B1FBFAF1C9B2D94606EB410538B105A99E
:1023400001EB400102220E2005F080FC02E0BCF10E
:10235000000F04D002222946082005F077FC022253
:1023600039460A2005F072FC022241460C2005F095
:102370006DFCB4FBF9F1CDB209FB1141B1FBFAF0F0
:102380003A4F00F0FF08387818B90A211F2005F0ED
:1023900083FC3878012803D10C211F2005F07CFC38
:1023A0000A23B4FBF3F003FB1041684600EB41093C
:1023B0006421B4FBF1F201FB1242B2FBF3F200EB39
:1023C00042074FF47A72B4FBF2F302FB1342B2FB02
:1023D000F1F1C9B200EB410435B106EB450102222F
:1023E000002005F033FC02E0B8F1000F04D0022217
:1023F0002146104605F02AFC02223946042005F049
:1024000025FC02224946062005F020FC19B0BDE853
:10241000F08F00000F0506000B060F0206030D03E8
:102420000D0707000F070F03050F0006060B020F2D
:102430000306030D070D0007070F030F0F0D060816
:102440000B0E0F0A060B0D0B0D0F07080F0F0F0BCE
:102450000D0F08060E0B0A0F0B060B0D0F0D0807CC
:102460000F0F0B0F05000020090000202A0100209B
:102470002DE9F04F99B006460D461446142286A168
:1024800005A8FEF7FDFD142288A16846FEF7F8FDB9
:1024900014228BA10FA8FEF7F3FD14228DA10AA828
:1024A000FEF7EEFD01211C2005F0F6FB01211F20A7
:1024B00005F0F2FB0C211B2005F0EEFB8A4F38786B
:1024C00018B90021182005F0E7FB3878012803D15E
:1024D0000421182005F0E0FB3878022803D10221FE
:1024E000182005F0D9FB3878032803D101211820E2
:1024F00005F0D2FB4FF47A7BB6FBFBF2D1B20BFBBB
:1025000012626420B2FBF0F2D7B2B6FBF0F200FB2D
:1025100012620A20B2FBF0F8B6FBF0F2DFF8CC91C1
:1025200000FB126699F800000DF1140A012805D18C
:102530000AEB41010222162005F088FB99F8000001
:1025400018B90221172005F0A7FB0FA800EB4701DF
:102550000222142005F07AFB05AF07EB48010222A6
:10256000122005F073FB07EB46010222102005F054
:102570006DFBB5FBFBF10BFB11534FF0640AB3FB92
:10258000FAF202F0FF0C0A23B5FBF3F203FB12523E
:102590000AAF07EB42085246B5FBF2F70AFB1757A2
:1025A000B7FBF3F36E4606EB4307C8B24FF47A73FA
:1025B00003FB1151B1FBFAF1C9B2D94606EB410553
:1025C00038B105A901EB400102220E2005F03EFBC7
:1025D00002E0BCF1000F04D002222946082005F0D9
:1025E00035FB022239460A2005F030FB0222414623
:1025F0000C2005F02BFBB4FBF9F1CDB209FB114126
:10260000B1FBFAF03A4F00F0FF08387818B90A2108
:102610001F2005F041FB3878012803D10C211F2031
:1026200005F03AFB0A23B4FBF3F003FB10416846C4
:1026300000EB41096421B4FBF1F201FB1242B2FB51
:10264000F3F200EB42074FF47A72B4FBF2F302FBB1
:102650001342B2FBF1F1C9B200EB410435B106EB14
:1026600045010222002005F0F1FA02E0B8F1000F66
:1026700004D002222146104605F0E8FA022239462B
:10268000042005F0E3FA02224946062005F0DEFAAE
:1026900019B0BDE8F08F00000F0506000B060F0211
:1026A00006030D030D0707000F070F03050F0006B4
:1026B000060B020F0306030D070D0007070F030F9C
:1026C0000F0D06080B0E0F0A060B0D0B0D0F07085A
:1026D0000F0F0F0B0D0F08060E0B0A0F0B060B0D3D
:1026E0000F0D08070F0F0B0F050000200900002039
:1026F0002A0100202DE9F04F99B006460D461446F8
:10270000142288A105A8FEF7BBFC14228AA1684602
:10271000FEF7B6FC14228DA10FA8FEF7B1FC14221F
:102720008FA10AA8FEF7ACFC01211C2005F0B4FA29
:1027300001211F2005F0B0FA04211A2005F0ACFA9F
:102740008C4F387818B90021182005F0A5FA387890
:10275000012803D10421182005F09EFA38780228B8
:1027600003D10221182005F097FA3878032803D105
:102770000121182005F090FA08211B2005F08CFAA1
:102780004FF47A7BB6FBFBF2D1B20BFB12626420F2
:10279000B2FBF0F2D7B2B6FBF0F200FB12620A20F5
:1027A000B2FBF0F8B6FBF0F2DFF8CC9100FB12665A
:1027B00099F800000DF1140A012805D10AEB410136
:1027C0000222162005F042FA99F8000018B90221F9
:1027D000172005F061FA0FA800EB47010222142030
:1027E00005F034FA05AF07EB48010222122005F08C
:1027F0002DFA07EB46010222102005F027FAB5FB5F
:10280000FBF10BFB11534FF0640AB3FBFAF202F039
:10281000FF0C0A23B5FBF3F203FB12520AAF07EBDE
:1028200042085246B5FBF2F70AFB1757B7FBF3F322
:102830006E4606EB4307C8B24FF47A7303FB11519F
:10284000B1FBFAF1C9B2D94606EB410538B105A989
:1028500001EB400102220E2005F0F8F902E0BCF184
:10286000000F04D002222946082005F0EFF90222C9
:1028700039460A2005F0EAF9022241460C2005F00B
:10288000E5F9B4FBF9F1CDB209FB1141B1FBFAF066
:102890003A4F00F0FF08387818B90A211F2005F0D8
:1028A000FBF93878012803D10C211F2005F0F4F939
:1028B0000A23B4FBF3F003FB1041684600EB410927
:1028C0006421B4FBF1F201FB1242B2FBF3F200EB24
:1028D00042074FF47A72B4FBF2F302FB1342B2FBED
:1028E000F1F1C9B200EB410435B106EB450102221A
:1028F000002005F0ABF902E0B8F1000F04D002228D
:102900002146104605F0A2F902223946042005F0BE
:102910009DF902224946062005F098F919B0BDE854
:10292000F08F00000F0506000B060F0206030D03D3
:102930000D0707000F070F03050F0006060B020F18
:102940000306030D070D0007070F030F0F0D060801
:102950000B0E0F0A060B0D0B0D0F07080F0F0F0BB9
:102960000D0F08060E0B0A0F0B060B0D0F0D0807B7
:102970000F0F0B0F05000020090000202A01002086
:102980002DE9F04F97B006460C461546142284A157
:1029900005A8FEF775FB142286A16846FEF770FBBA
:1029A00001211C2005F078F901211F2005F074F9A0
:1029B000854F387818B90A211F2005F06DF938784D
:1029C000012803D10C211F2005F066F94FF47A721B
:1029D000B6FBF2F002FB10676423B7FBF3F707F0D6
:1029E000FF0EB6FBF3F703FB176C4FF00A08BCFBB6
:1029F000F8F71397B4FBF2F707F0FF0C02FB174749
:102A0000B7FBF3F707F0FF0BB4FBF3F7CDF83CC0CF
:102A100003FB174CCDF850B0BCFBF8FBB5FBF2FC48
:102A200002FB1C52B2FBF3F2D2B20E92B5FBF3F2F0
:102A30000CF0FF0A03FB125CC146B6FBF9F3BCFBCA
:102A4000F8F209FB136305AF07EB43086423B6FBF9
:102A5000F3FC03FB1C6C0C92BCFBF9F207EB420984
:102A6000C1B24FF47A7202FB1060B0FBF3F0C0B257
:102A700007EB400631B107EB41010222162005F0B9
:102A8000E5F802E0BEF1000F05D002223146142025
:102A900005F0DCF801E0139820B10222494612202B
:102AA00005F0D4F802224146102005F0CFF80A20A4
:102AB000B4FBF0F100FB1146694601EB46096421C5
:102AC000B4FBF1F601FB1646B6FBF0F6684600EBE8
:102AD00046084FF47A70B4FBF0F600FB1640B0FBEA
:102AE000F1F0C1B268460F9B00EB410433B107EB34
:102AF000430102220E2005F0A9F801E0149828B144
:102B000002222146082005F0A1F802E0BBF1000FE7
:102B100004D0022241460A2005F098F802224946D4
:102B20000C2005F093F80A23B5FBF3F003FB1051DA
:102B3000684600EB41076421B5FBF1F401FB145436
:102B4000B4FBF3F300EB43064FF47A73B5FBF3F4F5
:102B500003FB1453B3FBF1F1C9B200EB4104BAF12A
:102B6000000F06D000EB4A010222002005F06EF8AB
:102B700001E00E9828B102222146104605F066F8C1
:102B800001E00C9820B102223146042005F05EF8E5
:102B900002223946062005F059F817B0BDE8F08F3B
:102BA0000F0506000B060F0206030D030D070700B5
:102BB0000F070F03050F0006060B020F0306030D98
:102BC000070D0007070F030F2A0100202DE9F04F22
:102BD000FAA093B000680E901422F9A105A8FEF7A0
:102BE0004FFA1422FBA16846FEF74AFAFE48DFF8C6
:102BF000FCA3FF4E00784FF0010B88B34FF48055D3
:102C0000294654465046FFF743F988B9B07B20B9AE
:102C10007078401C707001F0C1FE29462046FFF715
:102C200037F90028F9D07078062801D986F801B064
:102C30004FF4804529462046FFF72AF980B9B07B3A
:102C400020B97078401E707001F0A8FE2946204619
:102C5000FFF71EF90028F9D0707808B906207070C7
:102C60007078E44DE44C4FF0030907287ED2DFE88A
:102C700000F0CD04D0FEFDFCFB0080212846FFF7CC
:102C800007F980B9FEF7C4FEDC48DE4A0088126806
:102C900000EB80004004010CD948007800EB800074
:102CA0004000FFF761F980212846FFF7F1F801287D
:102CB0005CD14703394655465046FFF7E9F888B9D5
:102CC000B07B78B901F06AFEB078401CB07039462C
:102CD0002846FFF7DDF80028F9D0B078032801D99D
:102CE00086F802B04FF40061C048FFF7D1F8C64D36
:102CF000DFF81883DFF818A3C64FDFF81CB380B9DC
:102D0000B07B70B901F04AFEB078401E86F8020030
:102D10004FF40061B548FFF7BBF80028F8D0B07851
:102D200018B1B078012803D02DE086F8029043E076
:102D3000207880B9FEF76CFE28889AF8003000EB06
:102D400080004004010C98F800003A6800EB800015
:102D50004000FFF74BFA2078012814D1FEF758FE07
:102D6000BBF8000000EB8000400400E04EE0010CE6
:102D7000AB4AAA4813780078AA4A00EB80004000CA
:102D80001268FFF7B7FCB078022812D1FEF740FEB8
:102D9000A548A74A0088137800EB80004004010C86
:102DA000A248A44A0078126800EB80004000FFF7B8
:102DB0005FFBB078032829D12078012810D1FEF7D5
:102DC00027FE28889AF8003000EB80004004010CB0
:102DD00098F800003A6800EB80004000FFF706FA20
:102DE0002078002812D1FEF713FEBBF800008C4AB1
:102DF00000EB80004004010C88481378894A007871
:102E000000EB800040001268FFF774FC13B0BDE8CF
:102E1000F08F80212F462846FFF73AF8864D40B9BB
:102E2000FEF7F6FD854840F2F5122988008800F08B
:102E30002BFA80213846FFF72BF80128E6D14FF412
:102E40000058414657465046FFF722F8B0B9B07BCC
:102E5000A0B901F0A3FDF078401CF070414638465F
:102E6000FFF716F8002803E003E25DE156E155E0C4
:102E7000F4D0F078032801D986F803B04FF4006B42
:102E80005946BA463846FFF703F86D4FDFF8B4816C
:102E900070B9B07B60B901F081FDF078401EF07030
:102EA00059465046FEF7F4FF0028F9D0F07818B1E3
:102EB000F078012803D00DE086F803901EE0FEF7BD
:102EC000A7FD2078298840F2F51238B1B8F8000043
:102ED00000F042FDF078022804D00CE0388800F0C1
:102EE000F3FAF7E7FEF794FD574840F2F512298808
:102EF000008800F00DFCF078032887D1FEF788FDEC
:102F00002078298840F2F51218B1388800F0DCFAF0
:102F10007CE7B8F8000000F01FFD77E78021354816
:102F2000FEF7B6FF494D4A4FDFF8288190B9FEF70A
:102F30006FFD288800EB80004004020C388800EB0D
:102F400080004004010C98F8000000EB8000400075
:102F500000F026FE80212748FEF79AFF0128D7D1EE
:102F600041035046FEF794FF90B9B07B80B901F061
:102F700015FDF078401CF0704FF400515046FEF7FC
:102F800087FF0028F8D0F078032801D986F803B02D
:102F90004FF4006B59465046FEF77AFF60B9B07B9C
:102FA00050B901F0FBFCF078401EF07059465046D5
:102FB000FEF76EFF00284FE051E000000002090517
:102FC0000F0506000B060F0206030D030D07070091
:102FD0000F070F03050F0006060B020F0306030D74
:102FE000070D0007070F030F0E000020000C024022
:102FF0001C010020001002400B00002018000020DF
:1030000001000020380000202200002002000020E3
:10301000080000203C0000202600002004000020C2
:103020000A000020440000202400002003000020AB
:1030300009000020400000201C0000201A00002091
:10304000280000202C0000202A0000202000002062
:103050001E00002000000020A8D0F07818B1F07801
:10306000012803D01DE086F8039038E0FEF7D0FC7D
:1030700020780028288800EB80004FEA40404FEA83
:103080001042388800EB80004FEA40404FEA104180
:1030900098F8000000EB80004FEA400005D001F0F6
:1030A000B9F8F078022803D015E000F087FEF8E7C1
:1030B000FEF7AEFC288800EB80004004020C388844
:1030C00000EB80004004010C98F8000000EB800049
:1030D000400000F089FFF07803287FF419AFFEF775
:1030E00097FC20780028288800EB80004FEA4040B9
:1030F0004FEA1042388800EB80004FEA40404FEA28
:10310000104198F8000000EB80004FEA400002D028
:1031100000F054FE7AE601F07DF877E6FEF778FCE1
:103120000220FEF7C1FE71E6FEF772FC01211C20B1
:1031300004F0B2FD01211F2004F0AEFD082118208B
:1031400004F0AAFDB07B18B90A211F2004F0A4FDE9
:10315000B07B012803D10C211F2004F09DFD042227
:103160000EA9142004F072FDF27B0A20B2FBF0F1EC
:1031700000FB1127327CB2FBF0F400FB1429727CB7
:10318000B2FBF0F500FB152805A800EB4101022277
:10319000122004F05BFD05A800EB4701022210207D
:1031A00004F054FD6F4607EB440102220A2004F0AC
:1031B0004DFD07EB490102220C2004F047FD07EB0F
:1031C00045010222042004F041FD07EB48010222E0
:1031D000062004F03BFD4FF400584146544650464B
:1031E000FEF756FE274D05F12007D8B9B07BC8B9C8
:1031F00001F0D4FBF07B401CF07341462046FEF703
:1032000047FE0028F9D0F07B202802D9584686F8DE
:103210000FB0C0B22918384411F8011C317410F8ED
:10322000010C70744FF4006841462046FEF730FEF2
:1032300000287FF46DAEB07B0028FAD101F0AEFB20
:10324000F07BA146401EF073444621464846FEF7F7
:103250001FFE0028F9D0F07B08B92020F073C0B21F
:103260002918384411F8011C317410F8010C7074DD
:10327000CCE5FEF7CDFB002211461046FFF780FBA0
:10328000C4E500001CCE00202DE9F04F95B00446A7
:103290000D461646142276A16846FDF7F1FE14226B
:1032A00078A105A8FDF7ECFE14227BA10FA8FDF77D
:1032B000E7FE14227DA10AA8FDF7E2FE01211C20F1
:1032C00004F0EAFC01211F2004F0E6FC7C4F387872
:1032D00018B90821182004F0DFFC3878012803D140
:1032E0000C21182004F0D8FC3878022803D10A21D8
:1032F000182004F0D1FC3878032803D109211820C4
:1033000004F0CAFC0821192004F0C6FC6D4F38787F
:1033100018B90A211F2004F0BFFC3878012803D116
:103320000C211F2004F0B8FC4FF47A7BB4FBFBFCAB
:103330000BFB1C426420B2FBF0F000F0FF0A0A20F5
:10334000B4FBF0F200FB12426F4607EB4209642225
:10335000B4FBF2F302FB1343B3FBF0F007EB4008BE
:10336000584600FB1C40B0FBF2F0C0B20CF0FF016D
:1033700007EB400431B107EB41010222162004F0B3
:1033800065FC02E0BAF1000F04D0022221461420AD
:1033900004F05CFC02224146122004F057FC022299
:1033A0004946102004F052FCB5FBFBF10BFB115316
:1033B0004FF0640BB3FBFBF202F0FF0C0A23B5FBEA
:1033C000F3F203FB12540DF1140A0AEB44085A46B7
:1033D000B5FBF2F40BFB1454B4FBF3F4C8B24FF496
:1033E0007A7303FB1151B1FBFBF10AEB4409CAB23A
:1033F0000AEB420430B107EB400102220E2004F038
:1034000025FC02E0BCF1000F04D002222146082076
:1034100004F01CFC022249460A2004F017FC022298
:1034200041460C2004F012FCB6FBFBF2D1B20BFBC0
:1034300012620A20B2FBF0F5B6FBF0F200FB126458
:10344000022256460AEB4101104604F0FFFB06EB50
:1034500045010222042004F0F9FB0AA800EB440114
:103460000222062004F0F2FB15B0BDE8F08F000048
:103470000F0506000B060F0206030D030D070700DC
:103480000F070F03050F0006060B020F0306030DBF
:10349000070D0007070F030F0F0D06080B0E0F0A8D
:1034A000060B0D0B0D0F07080F0F0F0B0D0F080666
:1034B0000E0B0A0F0B060B0D0F0D08070F0F0B0F4E
:1034C000050000202A0100202DE9F04F95B00446A8
:1034D0000D461646142278A16846FDF7D1FD142248
:1034E0007AA105A8FDF7CCFD14227DA10FA8FDF758
:1034F000C7FD14227FA10AA8FDF7C2FD01211C20EF
:1035000004F0CAFB01211F2004F0C6FB02211B208E
:1035100004F0C2FB7C4F387818B90021182004F061
:10352000BBFB3878012803D10421182004F0B4FB38
:103530003878022803D10221182004F0ADFB387836
:10354000032803D10121182004F0A6FB082119202B
:1035500004F0A2FB6D4F387818B90A211F2004F03F
:103560009BFB3878012803D10C211F2004F094FB29
:103570004FF47A7BB4FBFBFC0BFB1C426420B2FBD8
:10358000F0F000F0FF0A0A20B4FBF0F200FB124258
:103590006F4607EB42096422B4FBF2F302FB1343CC
:1035A000B3FBF0F007EB4008584600FB1C40B0FBB3
:1035B000F2F0C0B20CF0FF0107EB400431B107EBB1
:1035C00041010222162004F041FB02E0BAF1000F93
:1035D00004D002222146142004F038FB0222414686
:1035E000122004F033FB02224946102004F02EFB87
:1035F000B5FBFBF10BFB11534FF0640BB3FBFBF27C
:1036000002F0FF0C0A23B5FBF3F203FB12540DF199
:10361000140A0AEB44085A46B5FBF2F40BFB1454A7
:10362000B4FBF3F4C8B24FF47A7303FB1151B1FB4E
:10363000FBF10AEB4409CAB20AEB420430B107EBD2
:10364000400102220E2004F001FB02E0BCF1000F59
:1036500004D002222146082004F0F8FA022249464A
:103660000A2004F0F3FA022241460C2004F0EEFA9C
:10367000B6FBFBF2D1B20BFB12620A20B2FBF0F5F3
:10368000B6FBF0F200FB1264022256460AEB41013F
:10369000104604F0DBFA06EB45010222042004F098
:1036A000D5FA0AA800EB44010222062004F0CEFA63
:1036B00015B0BDE8F08F00000F0506000B060F02E5
:1036C00006030D030D0707000F070F03050F000684
:1036D000060B020F0306030D070D0007070F030F6C
:1036E0000F0D06080B0E0F0A060B0D0B0D0F07082A
:1036F0000F0F0F0B0D0F08060E0B0A0F0B060B0D0D
:103700000F0D08070F0F0B0F050000202A010020E6
:103710002DE9F04F95B004460D461646142278A1C7
:103720006846FDF7ADFC14227AA105A8FDF7A8FCB8
:1037300014227DA10FA8FDF7A3FC14227FA10AA8E3
:10374000FDF79EFC01211C2004F0A6FA01211F2098
:1037500004F0A2FA04211B2004F09EFA7C4F387872
:1037600018B90021182004F097FA3878012803D1FD
:103770000421182004F090FA3878022803D102219D
:10378000182004F089FA3878032803D10121182081
:1037900004F082FA0821192004F07EFA6D4F38787F
:1037A00018B90A211F2004F077FA3878012803D1CC
:1037B0000C211F2004F070FA4FF47A7BB4FBFBFC61
:1037C0000BFB1C426420B2FBF0F000F0FF0A0A2061
:1037D000B4FBF0F200FB12426F4607EB4209642291
:1037E000B4FBF2F302FB1343B3FBF0F007EB40082A
:1037F000584600FB1C40B0FBF2F0C0B20CF0FF01D9
:1038000007EB400431B107EB41010222162004F01E
:103810001DFA02E0BAF1000F04D002222146142062
:1038200004F014FA02224146122004F00FFA022298
:103830004946102004F00AFAB5FBFBF10BFB1153CB
:103840004FF0640BB3FBFBF202F0FF0C0A23B5FB55
:10385000F3F203FB12540DF1140A0AEB44085A4622
:10386000B5FBF2F40BFB1454B4FBF3F4C8B24FF401
:103870007A7303FB1151B1FBFBF10AEB4409CAB2A5
:103880000AEB420430B107EB400102220E2004F0A3
:10389000DDF902E0BCF1000F04D00222214608202D
:1038A00004F0D4F9022249460A2004F0CFF902229A
:1038B00041460C2004F0CAF9B6FBFBF2D1B20BFB77
:1038C00012620A20B2FBF0F5B6FBF0F200FB1264C4
:1038D000022256460AEB4101104604F0B7F906EB06
:1038E00045010222042004F0B1F90AA800EB4401CA
:1038F0000222062004F0AAF915B0BDE8F08F0000FE
:103900000F0506000B060F0206030D030D07070047
:103910000F070F03050F0006060B020F0306030D2A
:10392000070D0007070F030F0F0D06080B0E0F0AF8
:10393000060B0D0B0D0F07080F0F0F0B0D0F0806D1
:103940000E0B0A0F0B060B0D0F0D08070F0F0B0FB9
:10395000050000202A0100202DE9F04F95B0044613
:103960000D461646142278A16846FDF789FB1422FD
:103970007AA105A8FDF784FB14227DA10FA8FDF70D
:103980007FFB14227FA10AA8FDF77AFB01211C20EE
:1039900004F082F901211F2004F07EF904211A208D
:1039A00004F07AF97C4F387818B90021182004F017
:1039B00073F93878012803D10421182004F06CF938
:1039C0003878022803D10221182004F065F93878EC
:1039D000032803D10121182004F05EF908211920E1
:1039E00004F05AF96D4F387818B90A211F2004F0F5
:1039F00053F93878012803D10C211F2004F04CF929
:103A00004FF47A7BB4FBFBFC0BFB1C426420B2FB43
:103A1000F0F000F0FF0A0A20B4FBF0F200FB1242C3
:103A20006F4607EB42096422B4FBF2F302FB134337
:103A3000B3FBF0F007EB4008584600FB1C40B0FB1E
:103A4000F2F0C0B20CF0FF0107EB400431B107EB1C
:103A500041010222162004F0F9F802E0BAF1000F49
:103A600004D002222146142004F0F0F8022241463C
:103A7000122004F0EBF802224946102004F0E6F888
:103A8000B5FBFBF10BFB11534FF0640BB3FBFBF2E7
:103A900002F0FF0C0A23B5FBF3F203FB12540DF105
:103AA000140A0AEB44085A46B5FBF2F40BFB145413
:103AB000B4FBF3F4C8B24FF47A7303FB1151B1FBBA
:103AC000FBF10AEB4409CAB20AEB420430B107EB3E
:103AD000400102220E2004F0B9F802E0BCF1000F10
:103AE00004D002222146082004F0B0F80222494600
:103AF0000A2004F0ABF8022241460C2004F0A6F89C
:103B0000B6FBFBF2D1B20BFB12620A20B2FBF0F55E
:103B1000B6FBF0F200FB1264022256460AEB4101AA
:103B2000104604F093F806EB45010222042004F04D
:103B30008DF80AA800EB44010222062004F086F862
:103B400015B0BDE8F08F00000F0506000B060F0250
:103B500006030D030D0707000F070F03050F0006EF
:103B6000060B020F0306030D070D0007070F030FD7
:103B70000F0D06080B0E0F0A060B0D0B0D0F070895
:103B80000F0F0F0B0D0F08060E0B0A0F0B060B0D78
:103B90000F0D08070F0F0B0F050000202A01002052
:103BA0002DE9F0479AB004460D46164614226DA141
:103BB00005A8FDF765FA14226FA16846FDF760FAC3
:103BC000142272A10FA8FDF75BFA142274A10AA8AF
:103BD000FDF756FA01211C2004F05EF801211F2098
:103BE00004F05AF8734F387818B90821182004F0F7
:103BF00053F83878012803D10C21182004F04CF830
:103C00003878022803D10A21182004F045F83878C2
:103C1000032803D10921182004F03EF8664F3878B4
:103C200018B90A211F2004F037F83878012803D189
:103C30000C211F2004F030F84FF47A71B4FBF1F03E
:103C400001FB10434FF0640AB3FBFAF101F0FF09E6
:103C50000A21B4FBF1F301FB13430FAF07EB430859
:103C60005346B4FBF3F70AFB1747B7FBF1F10DF12D
:103C7000140C0CEB4107C2B24FF47A7101FB1040F7
:103C8000B0FBFAF0C0B20CEB400432B10CEB4201D5
:103C90000222162003F0DAFF02E0B9F1000F04D08F
:103CA00002222146142003F0D1FF022239461220BD
:103CB00003F0CCFF02224146102003F0C7FF4FF073
:103CC0000A00B5FBF0F3D146B5FBF9F700FB13533F
:103CD0000AA901EB43084FF0640101FB1751B1FB46
:103CE000F0F06C4617F0FF0204EB400505D004EB42
:103CF00042010222082003F0A9FF022229460A20DD
:103D000003F0A4FF022241460C2003F09FFF4FF076
:103D10000A01B6FBF1F3B6FBF9F201FB13630AAD3E
:103D200005EB430712F0FF004FF0640303FB126240
:103D3000B2FBF1F16A4602EB410505D004EB40010C
:103D40000222104603F082FF02222946042003F0DB
:103D50007DFF02223946062003F078FF1AB0BDE845
:103D6000F08700000F0506000B060F0206030D0387
:103D70000D0707000F070F03050F0006060B020FC4
:103D80000306030D070D0007070F030F0F0D0608AD
:103D90000B0E0F0A060B0D0B0D0F07080F0F0F0B65
:103DA0000D0F08060E0B0A0F0B060B0D0F0D080763
:103DB0000F0F0B0F050000202A0100202DE9F0470E
:103DC0009AB004460D461646142271A105A8FDF7C7
:103DD00057F9142273A16846FDF752F9142276A10F
:103DE0000FA8FDF74DF9142278A10AA8FDF748F9AC
:103DF00001211C2003F050FF01211F2003F04CFF84
:103E000002211B2003F048FF754F387818B90021B4
:103E1000182003F041FF3878012803D1042118202D
:103E200003F03AFF3878022803D10221182003F06A
:103E300033FF3878032803D10121182003F02CFF29
:103E400008211A2003F028FF664F387818B90A2194
:103E50001F2003F021FF3878012803D10C211F20F7
:103E600003F01AFF4FF47A71B4FBF1F001FB104339
:103E70004FF0640AB3FBFAF101F0FF090A21B4FB29
:103E8000F1F301FB13430FAF07EB43085346B4FBB9
:103E9000F3F70AFB1747B7FBF1F10DF1140C0CEB2C
:103EA0004107C2B24FF47A7101FB1040B0FBFAF047
:103EB000C0B20CEB400432B10CEB420102221620DE
:103EC00003F0C4FE02E0B9F1000F04D00222214643
:103ED000142003F0BBFE02223946122003F0B6FE86
:103EE00002224146102003F0B1FE4FF00A00B5FB5C
:103EF000F0F3D146B5FBF9F700FB13530AA901EB28
:103F000043084FF0640101FB1751B1FBF0F06C4620
:103F100017F0FF0204EB400505D004EB420102223A
:103F2000082003F093FE022229460A2003F08EFEA9
:103F3000022241460C2003F089FE4FF00A01B6FB35
:103F4000F1F3B6FBF9F201FB13630AAD05EB43078E
:103F500012F0FF004FF0640303FB1262B2FBF1F1B9
:103F60006A4602EB410505D004EB400102221046EF
:103F700003F06CFE02222946042003F067FE0222B1
:103F80003946062003F062FE1AB0BDE8F087000053
:103F90000F0506000B060F0206030D030D070700B1
:103FA0000F070F03050F0006060B020F0306030D94
:103FB000070D0007070F030F0F0D06080B0E0F0A62
:103FC000060B0D0B0D0F07080F0F0F0B0D0F08063B
:103FD0000E0B0A0F0B060B0D0F0D08070F0F0B0F23
:103FE000050000202A0100202DE9F0479AB0044680
:103FF0000D461646142271A105A8FDF741F81422BA
:1040000073A16846FDF73CF8142276A10FA8FDF7CE
:1040100037F8142278A10AA8FDF732F801211C20F4
:1040200003F03AFE01211F2003F036FE04211B207D
:1040300003F032FE754F387818B90021182003F0CC
:104040002BFE3878012803D10421182003F024FE28
:104050003878022803D10221182003F01DFE387899
:10406000032803D10121182003F016FE08211A208D
:1040700003F012FE664F387818B90A211F2003F0AA
:104080000BFE3878012803D10C211F2003F004FE19
:104090004FF47A71B4FBF1F001FB10434FF0640A66
:1040A000B3FBFAF101F0FF090A21B4FBF1F301FBC4
:1040B00013430FAF07EB43085346B4FBF3F70AFB78
:1040C0001747B7FBF1F10DF1140C0CEB4107C2B22D
:1040D0004FF47A7101FB1040B0FBFAF0C0B20CEB68
:1040E000400432B10CEB42010222162003F0AEFD77
:1040F00002E0B9F1000F04D002222146142003F09F
:10410000A5FD02223946122003F0A0FD02224146FD
:10411000102003F09BFD4FF00A00B5FBF0F3D146F1
:10412000B5FBF9F700FB13530AA901EB43084FF065
:10413000640101FB1751B1FBF0F06C4617F0FF0270
:1041400004EB400505D004EB42010222082003F0F5
:104150007DFD022229460A2003F078FD0222414615
:104160000C2003F073FD4FF00A01B6FBF1F3B6FB30
:10417000F9F201FB13630AAD05EB430712F0FF00F0
:104180004FF0640303FB1262B2FBF1F16A4602EBEB
:10419000410505D004EB40010222104603F056FD14
:1041A00002222946042003F051FD0222394606204E
:1041B00003F04CFD1AB0BDE8F08700000F050600C3
:1041C0000B060F0206030D030D0707000F070F0371
:1041D000050F0006060B020F0306030D070D00076F
:1041E000070F030F0F0D06080B0E0F0A060B0D0B22
:1041F0000D0F07080F0F0F0B0D0F08060E0B0A0F00
:104200000B060B0D0F0D08070F0F0B0F05000020FD
:104210002A0100202DE9F0479AB004460D461646C3
:1042200014226FA105A8FCF72BFF142271A1684688
:10423000FCF726FF142274A10FA8FCF721FF14221B
:1042400076A10AA8FCF71CFF01211C2003F024FD25
:1042500001211F2003F020FD0C211A2003F01CFD7A
:10426000734F387818B90021182003F015FD3878FD
:10427000012803D10421182003F00EFD387802280C
:1042800003D10221182003F007FD3878032803D159
:104290000121182003F000FD664F387818B90A2173
:1042A0001F2003F0F9FC3878012803D10C211F20CE
:1042B00003F0F2FC4FF47A71B4FBF1F001FB104310
:1042C0004FF0640AB3FBFAF101F0FF090A21B4FBD5
:1042D000F1F301FB13430FAF07EB43085346B4FB65
:1042E000F3F70AFB1747B7FBF1F10DF1140C0CEBD8
:1042F0004107C2B24FF47A7101FB1040B0FBFAF0F3
:10430000C0B20CEB400432B10CEB42010222162089
:1043100003F09CFC02E0B9F1000F04D00222214618
:10432000142003F093FC02223946122003F08EFC85
:1043300002224146102003F089FC4FF00A00B5FB31
:10434000F0F3D146B5FBF9F700FB13530AA901EBD3
:1043500043084FF0640101FB1751B1FBF0F06C46CC
:1043600017F0FF0204EB400505D004EB42010222E6
:10437000082003F06BFC022229460A2003F066FCA9
:10438000022241460C2003F061FC4FF00A01B6FB0B
:10439000F1F3B6FBF9F201FB13630AAD05EB43073A
:1043A00012F0FF004FF0640303FB1262B2FBF1F165
:1043B0006A4602EB410505D004EB4001022210469B
:1043C00003F044FC02222946042003F03FFC0222B1
:1043D0003946062003F03AFC1AB0BDE8F087000029
:1043E0000F0506000B060F0206030D030D0707005D
:1043F0000F070F03050F0006060B020F0306030D40
:10440000070D0007070F030F0F0D06080B0E0F0A0D
:10441000060B0D0B0D0F07080F0F0F0B0D0F0806E6
:104420000E0B0A0F0B060B0D0F0D08070F0F0B0FCE
:10443000050000202A0100201CB50121022002F005
:1044400089FFE020009001208DF8040000208DF805
:10445000060002200F4C8DF8050069462046FDF746
:10446000C9FC20212046FDF71CFD40212046FDF718
:1044700018FD80212046FDF714FD022003F0EEF820
:10448000292003F0EBF8012003F0E8F8032003F003
:10449000E5F81CBD00040240FEE700007CB5134EA9
:1044A0004FF4005529463046FDF7F9FC01208DF800
:1044B000040002206C008DF8050000946946304627
:1044C000FDF798FC21463046FDF7E9FC022009F093
:1044D000EDF829463046FDF7E4FC022009F0E6F845
:1044E00029463046FDF7DBFC7CBD0000000402409D
:1044F0001CB50121022002F02DFF4FF4E040009096
:1045000001208DF8040002200A4C8DF80500694650
:104510002046FDF76FFCA1142046FDF7C0FC4FF4C8
:1045200000512046FDF7BDFC4FF480412046FDF7C9
:10453000B8FC1CBD000402407CB5134E4FF400557E
:1045400029463046FDF7ABFC01208DF8040002201F
:104550006C008DF80500009469463046FDF74AFC72
:1045600021463046FDF79DFC022009F09FF82946C0
:104570003046FDF796FC022009F098F829463046AF
:10458000FDF78DFC7CBD0000000402402DE9FC47D6
:1045900000241B4E80464FF480478DF8044000975E
:1045A0008DF8074069463046FDF724FC0025B946E2
:1045B0007F1039463046FDF772FC022009F076F88C
:1045C00039463046FDF76DFC6006040E494630461C
:1045D000FDF75EFC08B1641CE4B2012009F066F846
:1045E0006D1CEDB2082DE4D3B8F1000F04D0FFF735
:1045F00055FF2046BDE8FC87FFF79EFFF9E7000066
:10460000000402402DE9FC47054601208DF8040016
:1046100002201A4E4FF480478DF805000097694636
:104620003046FDF7E7FB4FF4005841463046FDF7B2
:1046300036FCB9460024474628064946304602D48F
:10464000FDF72DFC01E0FDF72CFC6806050E0220AD
:1046500009F02CF839463046FDF723FC022009F01A
:1046600025F839463046FDF71AFC022009F01EF8FD
:10467000641CE4B2082CDFD3BDE8FC8700040240D0
:104680007CB501208DF804000220114D4FF48044C8
:104690008DF80500009469462846FDF7ABFB2146DE
:1046A0002846FDF7FEFB661031462846FDF7F9FB6C
:1046B000032008F0FBFF21462846FDF7F0FB03200E
:1046C00008F0F4FF31462846FDF7E9FB7CBD000009
:1046D000000402407CB501208DF804000220114D39
:1046E0004FF480448DF80500009469462846FDF794
:1046F00081FB661031462846FDF7D1FB214628464E
:10470000FDF7CDFB032008F0D1FF31462846FDF729
:10471000C8FB21462846FDF7C4FB032008F0C6FF6E
:104720007CBD0000000402402DE9FC410024184E2D
:104730004FF480458DF8044000958DF80740694698
:104740003046FDF757FB29463046FDF7AAFB01200E
:1047500008F0ACFF6F1039463046FDF7A2FB012090
:1047600008F0A4FF08E0641CE4B2FA2C04D9FFF7B7
:10477000B1FF0120BDE8FC8129463046FDF788FBEA
:104780000028F0D139463046FDF789FB0020F1E7DB
:104790000004024002494AF6AA200860704700005F
:1047A000003000402DE9F0479CB001215E4802F046
:1047B000D1FD01214FF4E06002F0F0FD4FF0806088
:1047C00000905A4801900125594802A9002431C19E
:1047D00006A8EE026F034FF480784FF40039059479
:1047E000A0E8D003CDE90B45DFF848A10D94694658
:1047F00050460E94FDF726F901215046FDF718F9B1
:104800004D4802A9CDE900404948DFF828A1801CA5
:1048100031C106A80594A0E8D003CDE90B45AAF163
:10482000180A0D94694650460E94FDF70BF90121C4
:104830005046FDF7FDF868060090404801903C485E
:1048400002A9001D31C106A80594A0E8D003394E85
:10485000CDE90B4518360D94694630460E94FDF7A8
:10486000F1F801213046FDF7E3F83F2003261590CB
:104870008DF858608DF85B4015A93148FDF7BAFAFC
:10488000922015908DF858608DF85B4015A92D4841
:10489000FDF7B0FA17941894199417A81A94FCF716
:1048A00041FD0F948DF84040119413941F4C8DF8E6
:1048B00041504C3C8DF850500FA92046FCF75EFD4E
:1048C0001E4D0FA94C3D2846FCF758FD1A4E0FA966
:1048D0004C3E3046FCF752FD01212046FCF744FDDA
:1048E00001212846FCF740FD01213046FCF73CFD44
:1048F00001212046FCF72EFD01212846FCF72AFD68
:1049000001213046FCF726FD01212046FCF700FD81
:1049100001212846FCF7FCFC01213046FCF7F8FC9D
:104920001CB0BDE8F0870000050040004C220140AB
:1049300012000020286402404C2001404C2101401C
:1049400000080240000002401CB50121082002F0CE
:1049500001FD4FF4FE40002400908DF804406946AC
:104960000848FDF747FA0121102002F0F3FC4FF44C
:10497000607000908DF8044069460348FDF73AFAEC
:104980001CBD0000000C0240001002404FF400412A
:104990000148FDF784BA0000000C024010B54FF446
:1049A00000410348FDF77DFA02496420887310BD79
:1049B000000C0240000000202DE9F0470C46F9A150
:1049C000904699468CB091E82C00C968DDF850A05B
:1049D000CDE90251F7A1CDE9002391E82C00C96887
:1049E000CDE90423CDE90651F6A104AE91E82C00EF
:1049F000C96808AFCDE90A51611E6D46CDE90823AB
:104A000040B101287DD10F297CD8CCB2B8F1000F7C
:104A100079D0D4E00F2974D8CCB2B8F1000F11D1FD
:104A2000385D012140F4E070FCF744FF285D01216E
:104A300040F4E070FCF73EFF305D012140F4E0708F
:104A4000FCF738FFB9F1000F11D1385D022140F4B5
:104A5000E070FCF72FFF285D022140F4E070FCF7C6
:104A600029FF305D022140F4E070FCF723FFBAF12A
:104A7000000F11D1385D032140F4E070FCF71AFFFC
:104A8000285D032140F4E070FCF714FF305D032142
:104A900040F4E070FCF70EFFB8F1010F11D1305D6A
:104AA000012140F4E070FCF705FF285D012140F48E
:104AB000E070FCF7FFFE385D012140F4E070FCF788
:104AC000F9FEB9F1010F11D1305D022140F4E0701F
:104AD000FCF7F0FE285D022140F4E070FCF7EAFEEE
:104AE000385D022140F4E070FCF7E4FEBAF1010FFA
:104AF00015D1305D032140F4E070FCF7DBFE285D4A
:104B000002E0B7E0C6E048E040F4E0700321FCF7C3
:104B1000D1FE385D032140F4E070FCF7CBFEB8F124
:104B2000020F11D1385D012140F4E070FCF7C2FEA4
:104B3000305D012140F4E070FCF7BCFE285D0121EE
:104B400040F4E070FCF7B6FEB9F1020F11D1385D08
:104B5000022140F4E070FCF7ADFE305D022140F42C
:104B6000E070FCF7A7FE285D022140F4E070FCF73E
:104B7000A1FEBAF1020F7DD1385D032140F4E0704F
:104B8000FCF798FE305D032140F4E070FCF792FEE4
:104B9000285D032140F4E070FCE0385D012140F421
:104BA000E070FCF787FE285D012140F4E070FCF71F
:104BB00081FE305D012140F4E070FCF77BFEB9F12D
:104BC000000F11D1385D022140F4E070FCF772FE55
:104BD000285D022140F4E070FCF76CFE305D02219C
:104BE00040F4E070FCF766FEB8F1010F11D1305DC2
:104BF000012140F4E070FCF75DFE285D012140F4E6
:104C0000E070FCF757FE385D012140F4E070FCF7DE
:104C100051FEB9F1010F11D1305D022140F4E07075
:104C2000FCF748FE285D022140F4E070FCF742FEEC
:104C3000385D022140F4E070FCF73CFEB8F1020F51
:104C400011D1385D012140F4E070FCF733FE305D96
:104C5000012140F4E070FCF72DFE285D012140F4B5
:104C6000E070FCF727FEB9F1020F13D1385D40F474
:104C7000E07000E08FE00221FCF71CFE305D0221B5
:104C800040F4E070FCF716FE285D022140F4E0706D
:104C9000FCF710FE113C0F2C7DD8E4B2B8F1000FE8
:104CA00011D1385D042140F4E070FCF703FE285D6B
:104CB000042140F4E070FCF7FDFD305D042140F478
:104CC000E070FCF7F7FDB9F1000F11D1385D052157
:104CD00040F4E070FCF7EEFD285D052140F4E07043
:104CE000FCF7E8FD305D052140F4E070FCF7E2FDE3
:104CF000B8F1010F11D1305D042140F4E070FCF7F0
:104D0000D9FD285D042140F4E070FCF7D3FD385D47
:104D1000042140F4E070FCF7CDFDB9F1010F11D191
:104D2000305D052140F4E070FCF7C4FD285D0521ED
:104D300040F4E070FCF7BEFD385D052140F4E07002
:104D4000FCF7B8FDB8F1020F11D1385D042140F431
:104D5000E070FCF7AFFD305D042140F4E070FCF73B
:104D6000A9FD285D042140F4E070FCF7A3FDB9F132
:104D7000020F13D1385D052140F4E070FCF79AFD75
:104D8000305D052140F4E070FCF794FD285D0521BD
:104D900040F4E07000E001E0FCF78CFD0CB0BDE8F1
:104DA000F0870000383B3033282B2023181B1013CA
:104DB000080B0003393C3134292C2124191C11140F
:104DC000090C01043A3D32352A2D22251A1D1215EF
:104DD0000A0D02052DE9F0470C46F9A11746984641
:104DE00091E82C008EB0C968CDE90823CDE90A51BD
:104DF000F7A1DDF8589091E82C00C968CDE90023AF
:104E0000CDE90251F6A10DF1200A91E82C00C96804
:104E100004AECDE90651611E6D46CDE9042338B1DB
:104E200001287DD10F297CD8CCB2002F7AD0C5E0E3
:104E30000F2975D8CCB297B9305D012140F4E070EC
:104E4000FCF738FD1AF80400012140F4E070FCF78B
:104E500031FD285D012140F4C070FCF72BFDB8F155
:104E6000000F12D1305D022140F4E070FCF722FD0A
:104E70001AF80400022140F4E070FCF71BFD285DE5
:104E8000022140F4C070FCF715FDB9F1000F12D1FA
:104E9000305D032140F4E070FCF70CFD1AF80400CB
:104EA000032140F4E070FCF705FD285D032140F488
:104EB000C070FCF7FFFC012F12D1285D012140F4E6
:104EC000E070FCF7F7FC1AF80400012140F4E070F0
:104ED000FCF7F0FC305D012140F4C070FCF7EAFC07
:104EE000B8F1010F12D1285D022140F4E070FCF707
:104EF000E1FC1AF80400022140F4E070FCF7DAFC4F
:104F0000305D022140F4C070FCF7D4FCB9F1010F10
:104F100016D1285D032140F4E070FCF7CBFC02E0E1
:104F2000ACE0BEE037E01AF80400032140F4E07082
:104F3000FCF7C0FC305D032140F4C070FCF7BAFC04
:104F4000022F0BD1305D012140F4C070FCF7B2FCA0
:104F5000285D012140F4C070FCF7ACFCB8F1020FF1
:104F60000BD1305D022140F4C070FCF7A3FC285D3A
:104F7000022140F4C070FCF79DFCB9F1020F7DD115
:104F8000305D032140F4C070FCF794FC285D0321E0
:104F900040F4C0700EE1305D012140F4E070FCF798
:104FA00089FC1AF80400012140F4E070FCF782FC4F
:104FB000285D012140F4C070FCF77CFCB8F1000FC3
:104FC00012D1305D022140F4E070FCF773FC1AF856
:104FD0000400022140F4E070FCF76CFC285D022123
:104FE00040F4C070FCF766FC012F12D1285D01214E
:104FF00040F4E070FCF75EFC1AF80400012140F474
:10500000E070FCF757FC305D012140F4C070FCF704
:1050100051FCB8F1010F12D1285D022140F4E0707B
:10502000FCF748FC1AF80400022140F4E070FCF799
:1050300041FC305D022140F4C070FCF73BFC022FC4
:105040000BD1305D012140F4C070FCF733FC285DCA
:10505000012140F4C070FCF72DFCB8F1020F0BD118
:10506000305D022140F4C070FCF724FC285D022171
:1050700040F4C070FCF71EFC305D00E092E040F4AC
:10508000E0700321FCF716FC1AF80400032140F439
:10509000E070FCF70FFC285D032140F4E070FCF7A2
:1050A00009FC113C0F2C7DD8E4B297B9305D042186
:1050B00040F4E070FCF7FEFB1AF80400042140F411
:1050C000E070FCF7F7FB285D042140F4C070FCF7AA
:1050D000F1FBB8F1000F12D1305D052140F4E07012
:1050E000FCF7E8FB1AF80400052140F4E070FCF737
:1050F000E1FB285D052140F4C070FCF7DBFB012FCC
:1051000012D1285D042140F4E070FCF7D3FB1AF8BB
:105110000400042140F4E070FCF7CCFB305D042176
:1051200040F4C070FCF7C6FBB8F1010F12D1285D46
:10513000052140F4E070FCF7BDFB1AF804000521DE
:1051400040F4E070FCF7B6FB305D052140F4C07020
:10515000FCF7B0FB022F0BD1305D042140F4C0708E
:10516000FCF7A8FB285D042140F4C070FCF7A2FB0B
:10517000B8F1020F0BD1305D052140F4C070FCF78F
:1051800099FB285D052140F4C070FCF793FB305D6E
:10519000062140F4E070FCF78DFB1AF8040040F49F
:1051A000E07000E008E00621FCF784FB285D0621A2
:1051B00040F4E070FCF77EFB0EB0BDE8F087000025
:1051C000383B3033282B2023181B1013080B000307
:1051D000393C3134292C2124191C1114090C0104E7
:1051E0003A3D32352A2D22251A1D12150A0D0205C7
:1051F000FEE770474FF4A06000F032B870B50F21A1
:10520000C478027801234FF0E026E4B1124C246800
:1052100004F4E064C4F5E064C4F30724C4F10405B5
:10522000E1404478AC4085780D4025430B4C290182
:105230001155007800F01F018B40400906EB8000FB
:10524000C0F8003170BD02F01F008340500906EB2A
:105250008000C0F8803170BD0CED00E000E400E09B
:105260000249084302490860704700000000FA053F
:105270000CED00E07047000070B505000E461446C6
:1052800005D036B10E48807828B112200DE00420F8
:105290000BE00C2009E02878012808D0022806D06D
:1052A000032804D0042802D00120107070BDFAF742
:1052B000FBFF6E61FAF7FCFF0020207070BD00005C
:1052C0009000002030B587B000F070F82A48002424
:1052D00004638470C4700472C471C460C461846166
:1052E000446144708471214600F134025454491CD5
:1052F000C9B20829FAD3047144718462046201F0CE
:1053000049F801F01BF800F0F3FF01F085F801F017
:10531000A9F802AA0325202031C218494FF6FF70D0
:10532000CDE9000101F17C023F230021144800F087
:105330009FFA05AA13A13F2000F0F8FA02AA402024
:1053400031C214494FF6FE70CDE9000101F1FC02B3
:105350003E230021104800F08BFA05AA0FA13E2041
:1053600000F0E4FA00F090FC00F026F807B0BDE889
:105370003040FFF77FBF000090000020A4BA00205B
:105380002166000875432F4F532D49492049646C0D
:1053900065000000A4B900203D66000875432F4F4A
:1053A000532D4949205374617400000001490020C5
:1053B000088070478C000020704700000449C879BD
:1053C000012804D18878FF2801D2401C88707047DA
:1053D0009000002070B5144DE879012822D1FAF729
:1053E00063FF0446A87820B1401E10F0FF00A870AB
:1053F00013D1E87888B901F079F80C48697950F848
:105400002100A8622A79914207D0C16B491CC1636F
:10541000E868401CE860FAF763FF2046BDE870408A
:10542000FAF746BF70BD00009000002024BB0020AA
:1054300070B505460E48007808B1002070BDFAF737
:1054400033FF01460B4804680CB1626802600846ED
:10545000FAF72EFF4CB1012020700020208106A019
:1054600065606061204600F039FF204670BD000095
:1054700092000020A00000203F0000002DE9F0472E
:1054800005008846144604D02878012803D001205E
:105490000AE0042008E02C48007808B1022003E06C
:1054A0002A48007820B10D2010700020BDE8F08758
:1054B000FAF7FAFE6E68074600213EB18846384684
:1054C0006960FAF7F5FE84F800803AE0DFF880A022
:1054D0008946DAF8000010F8342F42F00202027018
:1054E000417040F8048C284600F0CAFE3846FAF7AE
:1054F000DFFE00F0D7FFFAF7D7FE0746DAF8000024
:1055000090F8351031B1022908D0294600F088FE04
:105510000A2004E0466A84F8009001E00E20207022
:10552000DAF80010384601F11C0181F8189081F872
:105530001990C1F80090C1F80490C1F80890FAF7EA
:10554000B7FE3046B2E70000920000209300002032
:10555000B000002070B504000D4605D035B12078AC
:10556000012805D0012070BD042070BD032070BD4E
:10557000FAF79AFE0646A07A58B10023022229467D
:10558000204600F011FE3046FAF792FE00F08AFF46
:105590000AE0606820B13046FAF78AFE142070BD38
:1055A00030466560FAF784FE002070BD10B5094CE6
:1055B000E07901280CD1FAF777FEA17821B9E178DA
:1055C000FF2901D2491CE170BDE81040FAF770BE16
:1055D00010BD00009000002010B50D4CE0790128AE
:1055E00014D1FAF761FEE17831B1491E11F0FF01E3
:1055F000E17001D1A17819B1BDE81040FAF758BEA9
:10560000FAF756FEBDE8104000F04CBF10BD000098
:105610009000002070B505460E48007808B10020C3
:1056200070BDFAF741FE01460B4804680CB1626890
:1056300002600846FAF73CFE4CB103202070258139
:105640000020606005A06061204600F047FE204613
:1056500070BD000092000020A00000203F0000006C
:105660002DE9F04705008846144604D02878032821
:1056700003D001200AE0042008E02648007808B1A1
:10568000022003E02448007818B10D201070BDE816
:10569000F087FAF709FE06462889002730B1401E38
:1056A00028813046FAF704FE2770F0E7DFF86C90A7
:1056B000D9F8000010F8341F41F001010170477063
:1056C00040F8048C284600F0DBFD3046FAF7F0FD88
:1056D00000F0E8FEFAF7E8FD0646D9F8000090F879
:1056E000351031B1022906D0294600F099FD0A2073
:1056F00002E0277001E00E202070D9F8000000F1D0
:105700001C0007764776076047603046BDE8F047E3
:10571000FAF7CEBD9200002093000020B0000020D8
:1057200070B5040004D02078032803D0012070BD98
:10573000042070BDFAF7B8FD0546A07A58B10023E1
:1057400001221946204600F02FFD2846FAF7B0FD49
:1057500000F0A8FE09E020894FF6FF71884206D2CA
:10576000401C20812846FAF7A3FD002070BD284682
:10577000FAF79EFD332070BD10B5094CE079002882
:105780000CD100F0B3FE60790649207151F8200079
:10579000A0622062BDE81040FAF78DBD10BD000088
:1057A0009000002024BB002010B5022000F0C6F9B4
:1057B000FAF77AFD084C0021E161FAF779FD6420DF
:1057C00000F0BCF9FAF770FDE169616101216170D7
:1057D000BDE81040FAF76CBD90000020FBF777BEE3
:1057E0002DE9FE4305460F4690461C463F2B02D945
:1057F0002A20BDE8FE83FAF757FD1A49097819B146
:10580000FAF756FD3C20F4E7174E56F8241019B16C
:10581000FAF74EFD2820ECE7012146F82410FAF7AC
:1058200047FD002342463946284600F0FBF8002792
:105830000146009701973B463A462046029700F002
:1058400065FE050007D0FAF72FFD46F82470FAF739
:105850002FFD2846CDE7054800780128F9D100F052
:1058600021FEF6E79200002024BB002097000020D4
:105870002DE9F04F81462DED028B83B08A46DDE99C
:105880000F879DED118A129D93461C463F2B05D92B
:105890002A2003B0BDEC028BBDE8F08FFAF704FDBF
:1058A0001D49097819B1FAF703FD3C20F1E71B4EB9
:1058B00056F8241019B1FAF7FBFC2820E9E701217A
:1058C00046F82410FAF7F4FC2A463946404600F020
:1058D000FDFE2B465A465146484600F0A3F8009775
:1058E0008DED018A01460295424620460E9B00F04E
:1058F0000DFE050008D0FAF7D7FC002146F8241069
:10590000FAF7D6FC2846C4E7054800780128F9D103
:1059100000F0C8FDF6E700009200002024BB002044
:1059200097000020FBF720BEFBF720BE70B50546B0
:105930000E4614463F2803D9FF2D01D02A2004E04B
:105940002EB11248007820B11220107070BD0C20CA
:10595000FBE7FAF7A9FC0146FF2D03D10C480068CC
:1059600090F836500B4850F82500432540B10128E7
:1059700006D006650846FAF79BFC0020207070BD33
:105980000846FAF795FC257070BD000092000020D3
:10599000B000002024BB0020FBF752BF2DE9F041EE
:1059A00004460D463F2804D9FF2C02D02A20BDE82A
:1059B000F08145B1002028606860FAF775FC014667
:1059C000FF2C02D005E00920F1E71448006890F8A8
:1059D0003640134850F8240058B1012809D0028AF3
:1059E000D2070BD0D0E9024700260846FAF760FC40
:1059F0000AE00846FAF75CFC4320D8E70846FAF7C5
:105A000057FC4520D3E7761C01CC0028FBD0B00022
:105A10002860B81B800068600020C8E7B000002044
:105A200024BB00204FF080731360131F18606FF0C9
:105A3000010042F8080CA2F138004FF012334FF089
:105A40000332C0E90A234FF0023242624FF00132C2
:105A5000C0E907124FF0113181614FF010314161FF
:105A60004FF0093101614FF00831C1604FF007314B
:105A700081604FF0063141604FF0053140F8041964
:105A80004FF004310160704770B5274D04463F2840
:105A900004D005D3FF280CD02A2070BD472070BD4C
:105AA000FAF702FC0346286890F83600A04206D0B8
:105AB00007E0FAF7F9FB0346286890F8364001251D
:105AC00000E00025194850F8240068B1012810D0E2
:105AD00090F83820164C90F83960A15CF643F6B285
