:020000040800F2
:1000000010D6002069020008295400089146000813
:1000100027540008A9190008E17D0008000000002D
:10002000000000000000000000000000FD76000855
:10003000911B000800000000EB020008B1780008E6
:10004000830200088302000883020008830200087C
:10005000830200088302000883020008830200086C
:10006000830200088302000883020008830200085C
:10007000830200088302000883020008830200084C
:10008000830200088302000883020008830200083C
:10009000830200088302000883020008B91C0008DC
:1000A000830200088302000883020008830200081C
:1000B0003179000883020008157A000883020008DD
:1000C00083020008830200088302000883020008FC
:1000D000830200088302000883020008797C00087C
:1000E000951B0008830200088302000883020008B1
:1000F00083020008830200088302000883020008CC
:1001000083020008830200088302000883020008BB
:100110009D7B000883020008830200088302000818
:10012000830200088302000883020008830200089B
:10013000830200088302000883020008830200088B
:10014000830200088302000883020008830200087B
:10015000830200088302000883020008830200086B
:10016000830200088302000883020008830200085B
:10017000830200088302000883020008830200084B
:10018000830200088302000800F002F800F05CF827
:100190000AA090E8000C82448344AAF10107DA45E2
:1001A00001D100F051F8AFF2090EBAE80F0013F0D8
:1001B000010F18BFFB1A43F00103184774510100E7
:1001C000945101000A444FF0000C10F8013B13F069
:1001D000070408BF10F8014B1D1108BF10F8015BA0
:1001E000641E05D010F8016B641E01F8016BF9D193
:1001F00013F0080F1EBF10F8014BAD1C0C1B09D1EA
:100200006D1E58BF01F801CBFAD505E014F8016B5B
:1002100001F8016B6D1EF9D59142D6D370470000ED
:100220000023002400250026103A28BF78C1FBD8FF
:10023000520728BF30C148BF0B6070471FB50EF092
:100240006CFC1FBD10B510BD00F054FF1146FFF748
:10025000F5FF0DF0ADFA00F072FF03B4FFF7F2FF07
:1002600003BC00F073FF00000948804709480047BD
:10027000FEE7FEE7FEE7FEE7FEE7FEE7FEE7FEE756
:10028000FEE7FEE704480549054A064B70470000B3
:10029000D57800088901000810D0002010D6002071
:1002A00010D2002010D20020EFF3108072B67047F9
:1002B00080F3108870471D484FF0FF010170002047
:1002C00080F309881A48012101701A484FF08051C3
:1002D000016062B6FEE717484FF080510160704739
:1002E00014484FF080510160704772B6EFF30980F7
:1002F00028B1203880E8F00F0F490968086000B580
:100300000E4880475DF804EB0D480E490A780270EC
:1003100009480D490A680260106890E8F00F203023
:1003200080F309884EF0040E62B6704722ED00E0BB
:10033000CF00002004ED00E0E8000020715D00081F
:10034000CC000020CD000020F000002072B67047E5
:1003500062B67047EFF3108072B6704780F3108872
:100360007047B0FA80F0704790FAA0F0704730BF45
:10037000704720BF70470000DFED2E0AB5EEC00ABF
:1003800060EE200ABDEEE01A11EE100AF1EE10FA4E
:1003900038BF401E00EE100ADFED271AF7EE005AB4
:1003A000B8EEC00ADFED274A244930EEC01A21EE2C
:1003B000210AFCEEC00A10EE900A00EE900A01EB52
:1003C0008000B8EE600ADFED1E0AF0EC012A11EEA3
:1003D000210AF6EE001AB0EC013AF0EC013A20EEF8
:1003E000001A20EE216A40EE615A20EE245A21EED6
:1003F000212A90ED004A00EE602A66EE010A40EEE6
:10040000400A05EE412A70EEA55AF0EE400A41EE90
:10041000210A46EE410A25EE011A00EE641A22EE88
:10042000820A63EEA00A03EE250A44EE010A30EECA
:10043000200A704783F9223E0000804380EC0008C8
:10044000ABAAAA3EABAA2A3E9FED3A0A5FEA920CFB
:1004500053D000BFB0EC011A0B1DF0EC010A21EEE5
:10046000011A00EEA01AB5EEC01AF1EE10FAC6BFDE
:10047000F1EEC10AC1ED000A81ED000AF0EC010ABB
:10048000191DB0EC011A60EEA00A41EE010AF5EE6A
:10049000C00AF1EE10FAC6BFF1EEE00AC3ED000AA1
:1004A00083ED000AB0EC011A0B1DF0EC010A21EEFD
:1004B000011A00EEA01AB5EEC01AF1EE10FAC6BF8E
:1004C000F1EEC10AC1ED000A81ED000AB0EC011A9B
:1004D000191DF0EC010A21EE011A00EEA01AB5EE8A
:1004E000C01AF1EE10FAC6BFF1EEC10AC3ED000A60
:1004F00083ED000ABCF1010CACD112F0030208BF7D
:10050000704700BFF0EC010A0B46B0EC011A091D60
:1005100060EEA00A41EE010AF5EEC00AF1EE10FA13
:10052000C6BFF1EEE00AC3ED000A83ED000A521ED9
:10053000E8D17047000000002DE9F00700EBC10989
:10054000DDE90778D0F800A0C9F800A007EB011496
:10055000D0F804A0251FA9F10406C9F804A003EBF4
:10056000C80907F1080C00F1080402EBC8024B1E91
:1005700031D000BFF2EC011A96ED002A92ED001A7C
:1005800002EBC802B4EC010A121FF4EC012A60EE7F
:10059000210A20EE010A32EE823A02EEA10AD9EDDA
:1005A000001A43EE410A09EBC80902EE610A16ED92
:1005B000012A083E42EE210A02EE410AECEC010A51
:1005C000ACEC010AB1EE400A85ED000A45ED010AE6
:1005D000083D5B1ECED190ED000AD0ED010A07EB7D
:1005E000C10130EE600A81ED000A9FED5D0A81EDE8
:1005F000010AD0ED000A90ED011A70EE810AC7EDF4
:10060000000A87ED010ABDE8F007704770B400EBFF
:10061000C105DDE903C42D1D002904BF70BC70476E
:10062000F2EC011A95ED002A92ED001A02EBC402D9
:10063000B0EC010A121FF0EC012A60EE210A20EE54
:10064000410A32EE823A02EEA10AD3ED001A43EEDD
:10065000010A03EBC40302EE610A15ED012A083D0D
:10066000491E42EE210A02EE010AECEC010AACEC52
:10067000010AD5D170BC70472DE9F04305464469A5
:10068000807983B00F461646012809D0A3892188B6
:100690003846626800F036F9E87901284ED053E018
:1006A000AA88D5E9030307EBC20CD5F808803146C8
:1006B0000CF1040C5AB300BFB0EC011A9CED002AF7
:1006C000D0ED001A00EBC800B7EC010A001FF7ECF0
:1006D000012A521E60EE010A20EE610A32EE823AD1
:1006E00002EE810A93ED001A43EE210A03EBC803E0
:1006F00002EE410A1CED012AACF1080C42EE010A9F
:1007000002EE210AE1EC010AA1EC010AD4D194ED38
:10071000040AA38921883046626800F095FAE879D6
:1007200001281CBF03B0BDE8F083E2892188A368DB
:1007300003B03046BDE8F04300F08CB8E289218870
:100740003846A36800F086F8A868CDE90060D5E9CE
:100750000323A9883846FFF7EFFE03B0BDE8F08316
:100760000000000070B592B2DDF810C055080260BC
:100770008580184EC66006F50056DBB2066100247F
:10078000837180F807C0802A04BF102282600BD0DA
:10079000B2F5007F08BF042212D0B2F5006F14BF7B
:1007A0004FF0FF3401220BD0002B8C4641614FF0FB
:1007B000000307D001222946604600F015FC06E040
:1007C0008260F1E700222946604600F00DFC2046D9
:1007D00070BD00008CF0000870B40025B0EC010A78
:1007E000A1F1010CF0EC010AB4EEE00AF1EE10FA0E
:1007F0003CBFB0EE600A0125ACF10104A446B4F19F
:10080000004F0ED3F0EC010AB4EEE00AF1EE10FA5C
:100810003CBFB0EE600AA1EB0C05BCF1010CF1D1BC
:1008200013E0002CC8BF00260FDD00BFF0EC010A6A
:10083000B4EEE00AF1EE10FA04D2ACEB0605B0EE2D
:10084000600A4D1B761C641EF0D182ED000A1D600B
:1008500070BC70472DE9F0014E0801244FF0000CE8
:1008600004EB51076146A6F102082CE061452AD24B
:1008700000EBCC0500EBC104D5ED000A94ED000AB5
:10088000C4ED000A85ED000AD5ED010A94ED010AD8
:10089000C4ED010A85ED010A0CEB0705CC1900EB4C
:1008A000C50500EBC404D5ED000A94ED000AC4EDC3
:1008B000000A85ED000AD5ED010A94ED010AC4EDA8
:1008C000010A85ED010A00EBC104B44400EBCC0C35
:1008D00094ED020ADCED000A891CC4ED020A8CEDDD
:1008E000000A94ED030ADCF80450E5608CED010A7F
:1008F000B3F800C089B203EB42034145B6D9BDE865
:10090000F00170472DE9F04F4FEA910C4FF00008CD
:100910004746644608EB0C0505EB0C0909EB0C0691
:1009200000EBC80A00EBC9099AED000AD9ED000AEC
:1009300099ED012A00EBC50530EE201A30EE600A71
:10094000DAED010A00EBC60608F1010870EE821A22
:1009500070EEC20A95ED002AD6ED002A641E32EE32
:10096000222A71EE022A31EE421ACAED002A95EDD2
:10097000012AD6ED012A32EE222A71EE822A71EE88
:10098000C21ACAED012A95ED012AD6ED012A96ED8B
:10099000003A4FEA470A32EE622AD5ED002A02EB0E
:1009A000CA0B72EEC32A9BED003ADBED013A21EE51
:1009B000034A01EEA34A61EE831A41EE631A85ED04
:1009C000004A30EE021A30EE420AC5ED011A02EB7F
:1009D000C70570EEE21A95ED002A70EEA20AD5ED79
:1009E000012A21EE023A0AEB070502EBC5051F4476
:1009F00001EEA23A61EE821A41EE621A89ED003AE6
:100A0000C9ED011AD5ED001A95ED011A20EE212A43
:100A100000EE812A60EEA10A40EE410A86ED002A2E
:100A2000C6ED010A7FF476AF9B044FEA134BE6460E
:100A3000BCF1040F7DD9E0464FEA9C0C4FF0000951
:100A4000CA46BCF1000F75D94FEA490404EB09030B
:100A500002EBC90502EBC40402EBC30395ED001AD7
:100A6000D5ED011A94ED000AD4ED010A93ED002AA8
:100A7000D3ED012AD94453468A4573D203EB0C04C3
:100A800004EB0C0606EB0C0500EBC30700EBC606F7
:100A900097ED003AD6ED003A96ED015A00EBC4040A
:100AA00073EE234A33EE633AD7ED013A00EBC50506
:100AB00033EE854A73EEC53A94ED005AD5ED005AEF
:100AC00035EE255A74EE855A74EEC54AC7ED005AC4
:100AD00094ED015AD5ED015A35EE255A74EE055ABA
:100AE00034EE454AC7ED015A94ED015AD5ED015A4D
:100AF00095ED006A35EE655AD4ED005A75EEC65A8A
:100B000024EE806A04EE206A24EE004A04EEE04AF5
:100B100084ED006A73EEE54A73EEA53A84ED014A6E
:100B200033EE054A33EE453A24EE015A04EEA15A5B
:100B300001E026E01BE064EE814A86ED005A434462
:100B40008B4244EE614A23EE024A03EEA24A63EE70
:100B5000823AC6ED014A43EE623A85ED004AC5EDA0
:100B6000013A8BD30AF1010AE245FFF46DAF4FEA77
:100B70008B434FEA9E0E4FEA134BBEF1040F3FF634
:100B80005AAFA1EB0C0100224B1C4FEA9C04002B36
:100B90008CBF1F46BDE8F08F11190E19331900EBF9
:100BA000C20500EBC60695ED000AD6ED000A95EDEC
:100BB000012A96ED011A70EE201A70EE600A32EEEC
:100BC000010A00EBC10100EBC30332EE411A91EDC3
:100BD000002AD3ED002A6244974232EE222A71EEB7
:100BE000822A31EEC22AC5ED002AD1ED011AD3EDD9
:100BF000012A71EEA21A70EE212AC5ED012A70EECB
:100C0000612A91ED010AD3ED011A93ED003A70EEDD
:100C1000611A91ED000A81ED002AC1ED012A30EE42
:100C2000430A30EEA12A70EEE10A71EE401A31EE6D
:100C3000000A86ED002AC6ED011AC3ED000A83ED15
:100C4000010AA9D8BDE8F08F2DE9F04F4FEA910CC9
:100C50004FF000084746644608EB0C0505EB0C0A0C
:100C60000AEB0C0600EBC80900EBCA0AD9ED000A32
:100C70009AED001ADAED012A00EBC50570EE811A33
:100C800070EEC10A99ED011A00EBC60608F10108E1
:100C900031EE222A31EE621AD5ED002A96ED003AA5
:100CA000641E72EE832A31EEA23A71EEE21A89EDE9
:100CB000003AD5ED012A96ED013A72EE832A32EE22
:100CC000223A32EE622A89ED013AD5ED012A96EDFB
:100CD000013AD6ED003A4FEA470972EEC32A95ED84
:100CE000003A02EBC90B33EE633ADBED003A9BEDC1
:100CF000014A61EEA34A42EE444A22EE232A01EE63
:100D0000842AC5ED004A70EEE21A70EEA20A85ED63
:100D1000012A02EBC70531EE032AD5ED002A31EE98
:100D2000431A95ED013A61EEA23A09EB070502EB91
:100D3000C5051F4442EE433A22EE222A01EE832AE1
:100D4000CAED003A8AED012AD5ED001A95ED012A87
:100D500060EEA12A41EE422A21EE211A00EE821A0B
:100D6000C6ED002A86ED011A7FF476AF9B044FEAA8
:100D7000134BE646BCF1040F7DD9E0464FEA9C0CCC
:100D80004FF00009CA46BCF1000F75D94FEA49047B
:100D900004EB090302EBC90502EBC40402EBC30335
:100DA000D5ED001A95ED012AD4ED000A94ED011A53
:100DB000D3ED002A93ED013AD94453468A4573D2C4
:100DC00003EB0C0404EB0C0606EB0C0500EBC3076D
:100DD00000EBC606D7ED003A96ED004AD6ED015A73
:100DE00000EBC40433EE845A73EEC43A97ED014A23
:100DF00000EBC50574EE254A34EE654AD4ED005A81
:100E000095ED006A75EE865A35EE256A35EE655A1F
:100E100087ED006AD4ED015A95ED016A75EE865AA8
:100E200034EEA56A74EEE54A87ED016AD4ED015A05
:100E300095ED016AD5ED006A75EEC65A94ED006A2B
:100E400036EE666A65EE206A44EEC16A64EEA04A38
:100E500045EE014AC4ED006A34EE065A34EE464AC5
:100E6000C4ED014A73EEE54A73EEA53A64EEA15A69
:100E700045EE425A01E026E01BE025EE215AC6ED80
:100E8000005A43448B4204EE825A63EEA24A44EE77
:100E9000434A24EE224A86ED015A03EE834AC5ED09
:100EA000004A85ED014A8BD30AF1010AE245FFF4BD
:100EB0006DAF4FEA8B434FEA9E0E4FEA134BBEF1E4
:100EC000040F3FF65AAFA1EB0C0100224B1C4FEA76
:100ED0009C06002B8CBF1F46BDE8F08F91198D1921
:100EE000AB1900EBC20400EBC505D4ED000AD5ED4B
:100EF000001AD4ED012A95ED012A30EEA11A70EE08
:100F0000E11A72EE820A00EBC10100EBC30332EE7C
:100F1000C22AD1ED002A93ED003A6244974272EE64
:100F2000832A31EE223A71EE622A23EE003A62EE13
:100F3000802A84ED003A91ED011A93ED013A31EEE9
:100F4000031A30EE813A23EE003A84ED013A30EE96
:100F5000C13AD1ED010A93ED011AD3ED003A30EE1A
:100F6000C11AD1ED000AC1ED002A63EE002A70EE2D
:100F7000E30AC1ED012A71EEC12A31EE811A72EE47
:100F8000201A72EE600A22EE802A21EE001A61EE2B
:100F9000801A85ED002A60EE800AC5ED011A83ED06
:100FA000001AC3ED010A99D8BDE8F08F30B50446A8
:100FB0000D4680782188A389626801280DD02846D3
:100FC000FFF7A0FCE078012818BF30BDE289218836
:100FD0002846A368BDE830403CE494ED040A284666
:100FE000FFF732FEEEE7000010B401801B4C4460B6
:100FF00082704FF0000CC370102925D040291BD0FF
:10100000B1F5807F10D0B1F5806F18BF4FF0FF3C75
:1010100002D010BC6046704701218181C181104916
:101020009FED100A816016E004218181C1810E4983
:101030009FED0E0A81600EE010218181C1810C4973
:101040009FED0C0A816006E040218181C1810A493F
:101050009FED0A0A816080ED040ADAE78C3001080E
:101060008C5001080000803A925001080000803B3B
:10107000AA5001080000803C0A5101080000803D90
:1010800010B5203AC0F00B80B1E81850203AA0E823
:101090001850B1E81850A0E81850BFF4F5AF5FEA57
:1010A000027C24BFB1E81850A0E8185044BF18C90A
:1010B00018C0BDE810405FEA827C24BF51F8043BB1
:1010C00040F8043B08BF7047D20728BF31F8023B05
:1010D00048BF11F8012B28BF20F8023B48BF00F899
:1010E000012B7047704770477047000000487047F9
:1010F000ACCF00207546FFF7F9FFAE460500694604
:10110000534620F00700854618B020B5FFF7BAF81F
:10111000BDE820404FF000064FF000074FF00008F8
:101120004FF0000B21F00701AC46ACE8C009ACE879
:10113000C009ACE8C009ACE8C0098D467047044658
:10114000AFF300802046FFF788F870470149182068
:10115000ABBEFEE72600020010B5064C01220023BC
:101160001146204600F008F92046BDE8104000F086
:101170003DB900000020014010B5064C00230122BB
:101180000C21204600F0F8F82046BDE8104000F0A1
:101190002DB900000020014010B5064C00230122AB
:1011A0000421204600F0E8F82046BDE8104000F099
:1011B0001DB900000020014010B5064C002301229B
:1011C0000721204600F0D8F82046BDE8104000F086
:1011D0000DB900000020014030B58DB001211D483F
:1011E00006F048F903208DF82C00012500240A950B
:1011F0008DF82F400AA9184800F0CEFE06940794F7
:10120000089406A8099400F065F800948DF804404D
:1012100002940494114C8DF805508DF814506946D1
:10122000204600F083F8002301220821204600F028
:10123000A3F80121204600F06FF80121204600F0BC
:1012400061F80121204600F03BF8204600F0CEF87E
:101250000DB030BD020040000004024000210140FA
:1012600010B5064C002301220A21204600F084F824
:101270002046BDE8104000F0B9B80000002201404F
:1012800010B5064C002301220B21204600F074F813
:101290002046BDE8104000F0A9B80000002201403F
:1012A00010B5064C002301220C21204600F064F802
:1012B0002046BDE8104000F099B80000002201402F
:1012C0000029816802D041F0010101E021F0010113
:1012D00081607047094B10B51A68094902EA01029A
:1012E000D0E9001441EA0401D0E9024044EA0004D4
:1012F00041EA040141EA0201196010BD04230140E2
:10130000E030FCFF0029816802D041F4807101E0E7
:1013100021F48071816070470029816802D041F416
:10132000007101E021F400718160704730B54268BE
:101330000F4B0C791A400B6842EA042213434360B6
:1013400082680C4B4D791A40D1E9034323438C68E2
:1013500044EA4504234313438360C26A097D22F4AF
:101360007002491EC9B242EA0151C16230BD00009B
:10137000FFFEFFFCFDF7FFC070B5072509290AD95C
:10138000C468A1F10A0606EB4606B540AC43B3407B
:101390001C43C46007E0046901EB4106B540AC435F
:1013A000B3401C4304611F23072A09D2446B521E19
:1013B00002EB820293409C4391400C43446370BD16
:1013C0000D2A09D2046BD21F02EB820293409C4388
:1013D00091400C43046370BDC46A0D3A02EB820273
:1013E00093409C4391400C43C46270BD816841F0BE
:1013F00080418160704710B5FF2000F023F8552828
:101400000AD05521FF2000F067F8FF2000F01AF8FD
:10141000552801D0012010BD002010BD03F064B993
:1014200070B50446022901D0002070BD00F00AF812
:10143000054604F58054A0B200F004F805EB002046
:1014400080B270BD10B5044603F016FAA02003F078
:10145000D5F903F065FA200A03F0D0F903F060FA39
:10146000E0B203F0CBF903F05BFA03F005FAA12038
:1014700003F0C4F903F054FA002003F083F90446A2
:1014800003F024FA204610BD70B50646CCB2022AFD
:101490000BD0012A08D12146304600F01DF8304615
:1014A000FFF7D0FFA042F6D170BD0D0A21463046AD
:1014B00000F012F83046FFF7C5FFA042F6D106F55E
:1014C0008056B4B22946204600F006F82046FFF7C1
:1014D000B9FFA842F6D170BD70B504460D4603F0C1
:1014E000CBF9A02003F08AF903F01AFA200A03F0DE
:1014F00085F903F015FAE0B203F080F903F010FA71
:10150000284603F07BF903F00BFA03F0DFF9BDE89E
:1015100070400A200BF012BA7047000038B5002066
:1015200004F0A2F8174C2060002004F09DF86060E1
:10153000002004F08BF9E060002004F095F8A06032
:10154000002004F083F920616A460FA10A2004F00C
:1015500009FB03230F4A00210F4804F05DFA022320
:101560000E4A00210E4804F057FA01230D4A0021CB
:101570000D4804F051FA00230C4A19460C4804F0B7
:101580004BFA38BD8000002053746172742054619E
:10159000736B0000B8130020BD150008B8B300201D
:1015A0001D190008B8B4002029180008B8B500209B
:1015B00035DF000804F018BE7047000008B5964FEC
:1015C000964EDFF85CB2974D05F0A8F9D5E91E01FB
:1015D00088420BD281B24FF4604802224046FFF7A6
:1015E00053FF02214046FFF71BFFE86738780128C8
:1015F0007ED14FF400594946304600F01BFD0028CB
:1016000053D1DFF820A2A87C0AF1800ADAF814107E
:1016100007F0BEFB044601282BD15A46A87CDBF814
:10162000101007F0B5FB0346A87C116807F0B0FB6B
:10163000E87413B1012B15D01BE09046A87C5168CB
:1016400007F0A6FB0246A87CD8F8081007F0A0FB1C
:101650000346A87CD8F80C1007F09AFB0090A97CF0
:10166000E87C04E002210B460A460091A97C03F0C5
:10167000BBFCA87C401CA8744946304600F0DAFC4C
:101680000028F9D0A87C202801D90120A874C2B272
:10169000534608E01046596907F07AFB04460128D2
:1016A0000BD0521CD2B2202AF4D94FF4006949461B
:1016B000304600F0BFFC20B159E0AA740020A88693
:1016C000F3E7DFF860A1A87C0AF1800ADAF81410C9
:1016D00007F05EFB044601282ED1D846A87CDBF833
:1016E000101007F055FB0246A87CD8F8001000E067
:1016F0008EE007F04DFBE87412B1012A15D01BE013
:10170000A87CD8F8041007F043FB0246A87CD8F860
:10171000081007F03DFB0346A87CD8F80C1007F032
:1017200037FB0090A97CE87C04E002210B460A46C6
:101730000091A97C03F058FCA87C401EA87449467F
:10174000304600F077FC0028F9D0A87C08B92020AA
:10175000A874C2B2534608E01046596907F018FB56
:101760000446012806D0521ED2B2002AF4D1012C20
:1017700003D04DE0AA740020A886D846A87CDBF8E8
:10178000101007F005FB0246A87CD8F8001007F0FF
:10179000FFFA8446E87412B1012A24D038E0A87C0C
:1017A000D8F8041007F0F4FA8246A87CD8F808109C
:1017B00007F0EEFA8146A87CD8F80C1007F0E8FA9A
:1017C0008046E879012807D1CDF800804B46524683
:1017D000A97CE87C03F008FCE879C8B94B4652467E
:1017E000CDF8008010E0E879012807D102200090B0
:1017F00003460246A97C604603F0F6FBE87938B957
:101800000220034602460090A97CE87C03F0DEF942
:1018100064200BF093F8D7E658010020000C02403A
:10182000BCB50020000000201CB52F26314FDFF88A
:10183000C8904FF4FA68002599F80C004C4601282E
:1018400053D12D488030C06804F086F84FF4807181
:101850002A4800F0EFFB208FF0B3401E2087CDE92F
:1018600000560123A14678781A4600210BF0E0FFCC
:10187000444640460BF080F8CDE9005678780223C4
:10188000012200210BF0D4FF20460BF075F8012453
:10189000CDE90056012378781A4621460AF062FE07
:1018A00040460BF069F8CDE9005678780223012212
:1018B00021460AF057FE40460BF05EF8CDE900568F
:1018C00078780323012221460AF04CFE40460BF0B3
:1018D00053F8641CE4B200E007E0092CD8D3B9F84F
:1018E0003810012901D1A9F8385064200BF026F8EE
:1018F000A2E70000F6B8002000000020001002401F
:1019000010B504F06DF8FFF709FEBDE810400A209D
:1019100004F0D6B9704704F06FBC00000EB51C4E41
:101920000025DFF87080A6F18004512702AA00216B
:10193000F06803F0B1FF207D012803D116480BF0B9
:10194000B9FE2575144B154803F12302A2F22F317D
:101950000CF004F81049114823310BF08DFC1049AC
:101960000E4806F02BFE0023CDE900571A46194613
:1019700018460BF05DFF98F800000028D6D1064B02
:10198000074903F12302054807F008FACEE70000F3
:101990008000002058010020DCB800205C010020FD
:1019A000D0B5002004F03ABCFEE700002DE9F04776
:1019B0000646481E0C46052821D8374F00254FF40F
:1019C00000794FF48078F0074946384602D000F09D
:1019D0003AFB01E000F035FB4146384600F031FBB0
:1019E000760804200AF0C8FF4146384600F02BFB79
:1019F00004200AF0C1FF6D1CEDB20C2DE3D3274D7E
:101A0000012C19D0022C20D0032C27D0042C2ED04E
:101A1000052C35D0062C3CD12021284600F013FBA4
:101A200004200AF0A9FF2021284600F00AFBBDE8A7
:101A3000F04704200AF0A0BF0121284600F003FB74
:101A400004200AF099FF0121EEE70221284600F068
:101A5000FAFA04200AF090FF0221E5E70421284663
:101A600000F0F1FA04200AF087FF0421DCE70821E6
:101A7000284600F0E8FA04200AF07EFF0821D3E7A8
:101A80001021284600F0DFFA04200AF075FF10212B
:101A9000CAE7BDE8F087000000040240000C0240E5
:101AA0007CB50121022005F0E5FC01244FF44070D3
:101AB0008DF80440002500908DF8065002268DF820
:101AC000056069460E4800F067FA0121082005F01C
:101AD000D1FC3F208DF8044000908DF806508DF821
:101AE00005606946074800F057FA40F20145214673
:101AF0002846FFF75BFF641CE4B2052CF7D97CBDD8
:101B000000040240000C024070B5002500240021B2
:101B1000284606F08DF9641CE4B2042CF7D36D1C42
:101B2000EDB2202DF2D370BD0029016802D041F042
:101B3000010101E021F001010160704730B5036847
:101B4000124ACC6813400A682243D1E905452C4368
:101B50002243CC6922430C6A22434C6A22438C6A9A
:101B600022434C6B22438C6B22431A43026042692E
:101B700022F00703D1E90B2422431A4342610A6988
:101B800042604A6882608968C16030BD3F801CF055
:101B9000704700002DE9FC5F03F02CFD4FF4805AE4
:101BA000504600F06DF9DFF80081404E404C4FF494
:101BB0007A7B4FF000092F2558B398F800000128D0
:101BC00027D158460AF0D8FE51463A4800F032FA7A
:101BD000F8B9E07C012811D1CDE9009501234F46E9
:101BE00070781A46A17C0BF023FECDE90075707861
:101BF00002230122A17C0BF01BFEA786E07C40B9EA
:101C00001720CDE90005012370781A46A17C0AF05F
:101C1000A9FC504600F090F84FF4804A504600F07E
:101C20002FF9C8B398F80000012835D158460AF0BA
:101C3000A3FE51461F4800F0FDF968BBE07C012877
:101C40001FD1E08EA18E4FF0010750EA010202D0B1
:101C500001280AD015E0CDE90075012370781A46F5
:101C6000A17C0BF0E5FDE7860AE051B9CDE90075EE
:101C7000707802230122A17C0BF0DAFDA4F83690E3
:101C8000A786E07C40B92020CDE9000501237078CB
:101C90001A46A17C0AF066FC504600F04DF8BDE8FB
:101CA000FC5F03F0B3BC000058010020F6B8002030
:101CB00000000020000C02402DE9FC4103F09AFCDA
:101CC0004FF48074204600F0DBF810B1174914205F
:101CD0000887204600F030F84FF40077384600F0CF
:101CE000CFF8D8B14FF47A700AF046FE3946104862
:101CF00000F0A0F990B900252F240E4ECDE9005434
:101D0000012370781A4629460BF092FDCDE9005464
:101D100070780223012200210BF08AFD384600F082
:101D20000BF8BDE8FC4103F071BC0000000000208E
:101D3000000C0240F6B8002001490860704700001E
:101D4000143C01402DE9F0434FF4804985B0012156
:101D5000484605F0B3FB0121102005F08BFB4FF442
:101D60008077002503978DF8105003A93F4800F0B5
:101D700013F90821042005F0C3FC8DF804500C264B
:101D80008DF80560012400978DF80640684600F044
:101D900087F84FF017088DF8088002208DF80900A9
:101DA0008DF80A008DF80B4002A803F043FB38467B
:101DB00000F05EF80921032005F0A2FC8DF8045024
:101DC00067028DF8056000978DF80640684600F0C0
:101DD00067F88DF808808DF809408DF80A408DF875
:101DE0000B4002A803F026FB384600F041F80C2116
:101DF000032005F085FC8DF8045027038DF805605D
:101E000000978DF80640684600F04AF84FF0280821
:101E10008DF808808DF809408DF80A408DF80B4048
:101E200002A803F007FB384600F022F80E21032039
:101E300005F066FC8DF804508DF80560CDF8009033
:101E40008DF80640684600F02BF88DF808808DF874
:101E500009408DF80A408DF80B4002A803F0EAFA19
:101E6000484600F005F805B0BDE8F08300100240D8
:101E700002490A6802430A6070470000103C0140B2
:101E8000064A014600201268044B0A4014331B68BE
:101E90000B4202D0002A00D001207047003C0140D4
:101EA00030B51B498379026863B30B6893430B60B9
:101EB0000A1D13680468A343136002790A44136877
:101EC000046823431360124A083213680468A3436A
:101ED0001360131D1C680568AC431C6090F805C0B6
:101EE000BCF1100F05D061440A68006802430A6023
:101EF00030BD11680468214311601968006801430E
:101F0000196030BD0079084401689143016030BD1B
:101F1000003C01401CB50121082005F0ABFA4FF44C
:101F20003F40009001208DF8040000218DF806103C
:101F300003218DF805108DF807006946144800F05C
:101F40002BF802F075FBFFF769FA02F007FEFFF7C6
:101F5000A7FD10480AF010FD4FF4165005F006FBDF
:101F600040F27121062002F019FD41F61F4421467E
:101F700042F20F7005F07EFD214641F27B5005F0E4
:101F800019FDFFF7DFFE02F017FDFFF725F91CBD75
:101F9000000C024020A10700F0B5002201234FF001
:101FA000030C00BF0D6803FA02F42540A5422DD1B1
:101FB000066854000CFA04F5AE4306600E79076813
:101FC000A6403E4306600E79012E01D0022E12D1AA
:101FD0008668AE4386604D798668A5403543856046
:101FE000456803FA02F6B543456045688E79964028
:101FF000B6B235434560C56856000CFA06F7BD43D6
:10200000C560CD79A540C4682543C560521C102A1F
:10201000C8D3F0BD4B07DB0E9A40C90810B500EBE2
:102020008100016A0F249C40A1430162016A1143AF
:10203000016210BD0246002012690A4200D0012050
:1020400070474183704701837047000070B58AB0C4
:102050000446142222A16846FFF712F8142225A193
:1020600005A8FFF70DF801211C2005F0E1FE012174
:102070001F2005F0DDFE0121192005F0D9FE224DBB
:10208000287818B90A211F2005F0D2FE28780128E7
:1020900003D10C211F2005F0CBFE6421B4FBF1F02D
:1020A00001FB10420A21B2FBF1F5B4FBF1F201FB96
:1020B00012446E4606EB40010222082005F092FE13
:1020C00006EB450102220A2005F08CFE05A800EB74
:1020D000440102220C2005F085FE0AB070BD00000C
:1020E000050F0006060B020F0306030D070D000780
:1020F000070F030F0D0F08060E0B0A0F0B060B0D33
:102100000F0D08070F0F0B0F580100202DE9F04F9E
:1021100099B006460D461446142284A105A8FEF780
:10212000AFFF142286A16846FEF7AAFF142289A1F8
:102130000FA8FEF7A5FF14228BA10AA8FEF7A0FFA7
:1021400001211F2005F074FE8C4F387818B9082142
:10215000182005F06DFE3878012803D10C211820D5
:1021600005F066FE3878022803D10A21182005F010
:102170005FFE3878032803D10921182005F058FEA6
:1021800008211B2005F054FE4FF47A7BB6FBFBF2CE
:10219000D1B20BFB12626420B2FBF0F2D7B2B6FBF5
:1021A000F0F200FB12620A20B2FBF0F8B6FBF0F28C
:1021B000DFF8CC9100FB126699F800000DF1140ACB
:1021C000012805D10AEB41010222162005F00AFE82
:1021D00099F8000018B90221172005F029FE0FA870
:1021E00000EB47010222142005F0FCFD05AF07EBD0
:1021F00048010222122005F0F5FD07EB46010222FC
:10220000102005F0EFFDB5FBFBF10BFB11534FF078
:10221000640AB3FBFAF202F0FF0C0A23B5FBF3F2F7
:1022200003FB12520AAF07EB42085246B5FBF2F726
:102230000AFB1757B7FBF3F36E4606EB4307C8B22A
:102240004FF47A7303FB1151B1FBFAF1C9B2D946CD
:1022500006EB410538B105A901EB400102220E2031
:1022600005F0C0FD02E0BCF1000F04D002222946B7
:10227000082005F0B7FD022239460A2005F0B2FD1C
:10228000022241460C2005F0ADFDB4FBF9F1CDB2C0
:1022900009FB1141B1FBFAF03A4F00F0FF08387822
:1022A00018B90A211F2005F0C3FD3878012803D191
:1022B0000C211F2005F0BCFD0A23B4FBF3F003FB47
:1022C0001041684600EB41096421B4FBF1F201FBC7
:1022D0001242B2FBF3F200EB42074FF47A72B4FB06
:1022E000F2F302FB1342B2FBF1F1C9B200EB41047D
:1022F00035B106EB45010222002005F073FD02E036
:10230000B8F1000F04D002222146104605F06AFD04
:1023100002223946042005F065FD022249460620C6
:1023200005F060FD19B0BDE8F08F00000F05060054
:102330000B060F0206030D030D0707000F070F031F
:10234000050F0006060B020F0306030D070D00071D
:10235000070F030F0F0D06080B0E0F0A060B0D0BD0
:102360000D0F07080F0F0F0B0D0F08060E0B0A0FAE
:102370000B060B0D0F0D08070F0F0B0F05000020AC
:1023800009000020580100202DE9F04F99B00646C1
:102390000D461446142284A105A8FEF771FE1422EE
:1023A00086A16846FEF76CFE142289A10FA8FEF7ED
:1023B00067FE14228BA10AA8FEF762FE01211F20EE
:1023C00005F036FD0A211B2005F032FD8A4F3878D2
:1023D00018B90021182005F02BFD3878012803D109
:1023E0000421182005F024FD3878022803D10221A9
:1023F000182005F01DFD3878032803D1012118208D
:1024000005F016FD4FF47A7BB6FBFBF2D1B20BFB65
:1024100012626420B2FBF0F2D7B2B6FBF0F200FB1E
:1024200012620A20B2FBF0F8B6FBF0F2DFF8CC91B2
:1024300000FB126699F800000DF1140A012805D17D
:102440000AEB41010222162005F0CCFC99F80000AD
:1024500018B90221172005F0EBFC0FA800EB47018B
:102460000222142005F0BEFC05AF07EB4801022252
:10247000122005F0B7FC07EB46010222102005F000
:10248000B1FCB5FBFBF10BFB11534FF0640AB3FB3E
:10249000FAF202F0FF0C0A23B5FBF3F203FB12522F
:1024A0000AAF07EB42085246B5FBF2F70AFB175793
:1024B000B7FBF3F36E4606EB4307C8B24FF47A73EB
:1024C00003FB1151B1FBFAF1C9B2D94606EB410544
:1024D00038B105A901EB400102220E2005F082FC73
:1024E00002E0BCF1000F04D002222946082005F0CA
:1024F00079FC022239460A2005F074FC022241468A
:102500000C2005F06FFCB4FBF9F1CDB209FB1141D1
:10251000B1FBFAF03A4F00F0FF08387818B90A21F9
:102520001F2005F085FC3878012803D10C211F20DD
:1025300005F07EFC0A23B4FBF3F003FB1041684670
:1025400000EB41096421B4FBF1F201FB1242B2FB42
:10255000F3F200EB42074FF47A72B4FBF2F302FBA2
:102560001342B2FBF1F1C9B200EB410435B106EB05
:1025700045010222002005F035FC02E0B8F1000F11
:1025800004D002222146104605F02CFC02223946D6
:10259000042005F027FC02224946062005F022FC13
:1025A00019B0BDE8F08F00000F0506000B060F0202
:1025B00006030D030D0707000F070F03050F0006A5
:1025C000060B020F0306030D070D0007070F030F8D
:1025D0000F0D06080B0E0F0A060B0D0B0D0F07084B
:1025E0000F0F0F0B0D0F08060E0B0A0F0B060B0D2E
:1025F0000F0D08070F0F0B0F05000020090000202A
:10260000580100202DE9F04F99B006460D461446BA
:10261000142284A105A8FEF733FD142286A1684682
:10262000FEF72EFD142289A10FA8FEF729FD142222
:102630008BA10AA8FEF724FD01211F2005F0F8FB5D
:102640000C211B2005F0F4FB8A4F387818B90021C3
:10265000182005F0EDFB3878012803D1042118205B
:1026600005F0E6FB3878022803D10221182005F096
:10267000DFFB3878032803D10121182005F0D8FBAF
:102680004FF47A7BB6FBFBF2D1B20BFB12626420F3
:10269000B2FBF0F2D7B2B6FBF0F200FB12620A20F6
:1026A000B2FBF0F8B6FBF0F2DFF8CC9100FB12665B
:1026B00099F800000DF1140A012805D10AEB410137
:1026C0000222162005F08EFB99F8000018B90221AD
:1026D000172005F0ADFB0FA800EB470102221420E4
:1026E00005F080FB05AF07EB48010222122005F040
:1026F00079FB07EB46010222102005F073FBB5FBC6
:10270000FBF10BFB11534FF0640AB3FBFAF202F03A
:10271000FF0C0A23B5FBF3F203FB12520AAF07EBDF
:1027200042085246B5FBF2F70AFB1757B7FBF3F323
:102730006E4606EB4307C8B24FF47A7303FB1151A0
:10274000B1FBFAF1C9B2D94606EB410538B105A98A
:1027500001EB400102220E2005F044FB02E0BCF137
:10276000000F04D002222946082005F03BFB02227C
:1027700039460A2005F036FB022241460C2005F0BE
:1027800031FBB4FBF9F1CDB209FB1141B1FBFAF019
:102790003A4F00F0FF08387818B90A211F2005F0D9
:1027A00047FB3878012803D10C211F2005F040FB9E
:1027B0000A23B4FBF3F003FB1041684600EB410928
:1027C0006421B4FBF1F201FB1242B2FBF3F200EB25
:1027D00042074FF47A72B4FBF2F302FB1342B2FBEE
:1027E000F1F1C9B200EB410435B106EB450102221B
:1027F000002005F0F7FA02E0B8F1000F04D0022241
:102800002146104605F0EEFA02223946042005F072
:10281000E9FA02224946062005F0E4FA19B0BDE8BB
:10282000F08F00000F0506000B060F0206030D03D4
:102830000D0707000F070F03050F0006060B020F19
:102840000306030D070D0007070F030F0F0D060802
:102850000B0E0F0A060B0D0B0D0F07080F0F0F0BBA
:102860000D0F08060E0B0A0F0B060B0D0F0D0807B8
:102870000F0F0B0F05000020090000205801002059
:102880002DE9F04F99B006460D461446142286A154
:1028900005A8FEF7F5FB142288A16846FEF7F0FBB9
:1028A00014228BA10FA8FEF7EBFB14228DA10AA81E
:1028B000FEF7E6FB01211F2005F0BAFA04211A20D9
:1028C00005F0B6FA8C4F387818B90021182005F0B9
:1028D000AFFA3878012803D10421182005F0A8FAAE
:1028E0003878022803D10221182005F0A1FA38789F
:1028F000032803D10121182005F09AFA08211B2092
:1029000005F096FA4FF47A7BB6FBFBF2D1B20BFBE3
:1029100012626420B2FBF0F2D7B2B6FBF0F200FB19
:1029200012620A20B2FBF0F8B6FBF0F2DFF8CC91AD
:1029300000FB126699F800000DF1140A012805D178
:102940000AEB41010222162005F04CFA99F800002A
:1029500018B90221172005F06BFA0FA800EB470108
:102960000222142005F03EFA05AF07EB48010222CF
:10297000122005F037FA07EB46010222102005F07D
:1029800031FAB5FBFBF10BFB11534FF0640AB3FBBB
:10299000FAF202F0FF0C0A23B5FBF3F203FB12522A
:1029A0000AAF07EB42085246B5FBF2F70AFB17578E
:1029B000B7FBF3F36E4606EB4307C8B24FF47A73E6
:1029C00003FB1151B1FBFAF1C9B2D94606EB41053F
:1029D00038B105A901EB400102220E2005F002FAF0
:1029E00002E0BCF1000F04D002222946082005F0C5
:1029F000F9F9022239460A2005F0F4F9022241468B
:102A00000C2005F0EFF9B4FBF9F1CDB209FB11414F
:102A1000B1FBFAF03A4F00F0FF08387818B90A21F4
:102A20001F2005F005FA3878012803D10C211F205A
:102A300005F0FEF90A23B4FBF3F003FB10416846EE
:102A400000EB41096421B4FBF1F201FB1242B2FB3D
:102A5000F3F200EB42074FF47A72B4FBF2F302FB9D
:102A60001342B2FBF1F1C9B200EB410435B106EB00
:102A700045010222002005F0B5F902E0B8F1000F8F
:102A800004D002222146104605F0ACF90222394654
:102A9000042005F0A7F902224946062005F0A2F914
:102AA00019B0BDE8F08F00000F0506000B060F02FD
:102AB00006030D030D0707000F070F03050F0006A0
:102AC000060B020F0306030D070D0007070F030F88
:102AD0000F0D06080B0E0F0A060B0D0B0D0F070846
:102AE0000F0F0F0B0D0F08060E0B0A0F0B060B0D29
:102AF0000F0D08070F0F0B0F050000200900002025
:102B0000580100202DE9F04F97B006460C461546B7
:102B1000142282A105A8FEF7B3FA142284A1684604
:102B2000FEF7AEFA01211F2005F082F9854F3878B3
:102B300018B90A211F2005F07BF93878012803D144
:102B40000C211F2005F074F94FF47A72B6FBF2F0F5
:102B500002FB10676423B7FBF3F707F0FF0EB6FB29
:102B6000F3F703FB176C4FF00A08BCFBF8F7139759
:102B7000B4FBF2F707F0FF0C02FB1747B7FBF3F7C4
:102B800007F0FF0BB4FBF3F7CDF83CC003FB174C89
:102B9000CDF850B0BCFBF8FBB5FBF2FC02FB1C52BD
:102BA000B2FBF3F2D2B20E92B5FBF3F20CF0FF0AD5
:102BB00003FB125CC146B6FBF9F3BCFBF8F209FB60
:102BC000136305AF07EB43086423B6FBF3FC03FB79
:102BD0001C6C0C92BCFBF9F207EB4209C1B24FF43A
:102BE0007A7202FB1060B0FBF3F0C0B207EB400654
:102BF00031B107EB41010222162005F0F3F802E0A3
:102C0000BEF1000F05D002223146142005F0EAF88B
:102C100001E0139820B102224946122005F0E2F8A3
:102C200002224146102005F0DDF80A20B4FBF0F145
:102C300000FB1146694601EB46096421B4FBF1F63D
:102C400001FB1646B6FBF0F6684600EB46084FF46B
:102C50007A70B4FBF0F600FB1640B0FBF1F0C1B2A5
:102C600068460F9B00EB410433B107EB430102229E
:102C70000E2005F0B7F801E0149828B10222214691
:102C8000082005F0AFF802E0BBF1000F04D00222EB
:102C900041460A2005F0A6F8022249460C2005F01C
:102CA000A1F80A23B5FBF3F003FB1051684600EBD3
:102CB00041076421B5FBF1F401FB1454B4FBF3F3B9
:102CC00000EB43064FF47A73B5FBF3F403FB1453A4
:102CD000B3FBF1F1C9B200EB4104BAF1000F06D029
:102CE00000EB4A010222002005F07CF801E00E987A
:102CF00028B102222146104605F074F801E00C9834
:102D000020B102223146042005F06CF80222394637
:102D1000062005F067F817B0BDE8F08F0F05060034
:102D20000B060F0206030D030D0707000F070F0325
:102D3000050F0006060B020F0306030D070D000723
:102D4000070F030F580100202DE9F04FFBA02DEDD8
:102D5000028B93B000680E901422F9A109A8FEF727
:102D60008FF91422FBA16846FEF78AF9FE48FF4E50
:102D7000FF4D0078012770B3B41421463046FFF7A9
:102D800059F980B9287920B96878401C687001F039
:102D90000FFF21463046FFF74DF90028F9D068783B
:102DA000062800D96F704FF4804421463046FFF763
:102DB00041F980B9287920B96878401E687001F01F
:102DC000F7FE21463046FFF735F90028F9D068783C
:102DD00008B9062068706978E648E74C4FF00308A8
:102DE00007297DD2DFE801F0CC04D1FDFCFBFA001D
:102DF00080218146FFF71EF980B9FEF785FEDF4886
:102E0000E04A0088126800EB80004004010CDC48B6
:102E1000007800EB80004000FFF778F980214846F9
:102E2000FFF708F901285BD14FF4005949463046B5
:102E3000FFF700F980B9287970B901F0B9FEA878D8
:102E4000401CA87049463046FFF7F4F80028F9D036
:102E5000A878032800D9AF704FF40061C348FFF78A
:102E6000E9F8C94EDFF82493DFF824A3C94FDFF84F
:102E700028B380B9287970B901F09AFEA878401E6D
:102E800085F802004FF40061B848FFF7D3F8002836
:102E9000F8D0A87818B1A878012803D02DE085F8DB
:102EA000028043E0207880B9FEF72EFE30889AF841
:102EB000003000EB80004004010C99F800003A68F3
:102EC00000EB80004000FFF75FFA2078012814D162
:102ED000FEF71AFEBBF8000000EB8000400400E0A3
:102EE0004EE0010CAE4AAD4813780078AD4A00EBD5
:102EF000800040001268FFF7C3FCA878022812D1B6
:102F0000FEF702FEA848AA4A0088137800EB80006A
:102F10004004010CA548A74A0078126800EB800025
:102F20004000FFF76FFBA878032829D120780128FB
:102F300010D1FEF7E9FD30889AF8003000EB8000F0
:102F40004004010C99F800003A6800EB8000400052
:102F5000FFF71AFA2078002812D1FEF7D5FDBBF84A
:102F600000008F4A00EB80004004010C8B4813786E
:102F70008C4A007800EB800040001268FFF780FC6C
:102F800013B0BDEC028BBDE8F08F80218146FFF7C6
:102F900051F848B9FEF7B8FD874840F2F5120188AC
:102FA0008648008800F088FA80214846FFF742F8FA
:102FB0000128E5D14FF4005949463046FFF73AF869
:102FC000A8B9287998B901F0F3FDE878401CE870B9
:102FD00049463046FFF72EF8002803E052E2A6E10A
:102FE0009CE15CE0F4D0E878032800D9EF704FF45E
:102FF00000613046FFF71EF8714EDFF8C891724F3E
:10300000DFF8C8A180B9287970B901F0D1FDE8785E
:103010004FF4006B401EE87059465448FFF70AF819
:103020000028F9D0E87818B1E878012803D00DE03D
:1030300085F8038021E0FEF767FD207840F2F51265
:1030400040B13988BAF8000000F092FDE878022813
:1030500006D00FE03188B9F8000000F049FBF5E731
:10306000FEF752FD5A4840F2F5120188594800888F
:1030700000F05EFCE878032882D1FEF745FD207859
:1030800040F2F51228B13188B9F8000000F030FBA9
:1030900076E73988BAF8000000F06AFD70E7802111
:1030A0008146FEF7C7FFB2EE048AC0B9FEF72CFDD9
:1030B000494890ED000A20EE080ABCEEC00A10EE66
:1030C000100A82B2454890ED000A20EE080ABCEED4
:1030D000C00A10EE100A81B2002000F069FE8021C3
:1030E0004846FEF7A7FF0128D2D14FF400594946C0
:1030F0003046FEF79FFF80B9287970B901F058FD7E
:10310000E878401CE87049463046FEF793FF0028F7
:10311000F9D0E878032800D9EF704FF40061304609
:10312000FEF788FF2E4E2F4FDFF8BC90DFF8BCA0D3
:1031300010B9287900B95BE069E0000000020905D8
:103140000F0506000B060F0206030D030D0707000F
:103150000F070F03050F0006060B020F0306030DF2
:10316000070D0007070F030F0D000020000C0240A1
:1031700054010020001002400B0000201C00002021
:10318000010000205C00002022000020020000203E
:10319000080000206C000020260000200400002011
:1031A0000A000020740000202400002003000020FA
:1031B0000900002070000020200000201E000020D8
:1031C0002E00002028000020320000202C000020CB
:1031D000300000202A000020400000203C00002099
:1031E0004800002044000020580000205400002027
:1031F00001F0DEFCE8784FF4006B401EE8705946A1
:10320000A648FEF717FF0028F9D0E87818B1E8784B
:10321000012803D01BE085F803804FE0FEF774FC23
:103220002078C0B199ED000A20EE080ABCEEC00A71
:1032300010EE100A9AED000A82B220EE080ABCEEE7
:10324000C00A10EE100A81B2002001F0E3F8E8781D
:10325000022816D02EE096ED000A20EE080ABCEEF9
:10326000C00A10EE100A97ED000A82B220EE080A9A
:10327000BCEEC00A10EE100A81B2002000F0A6FEDB
:10328000E5E7FEF741FC864890ED000A20EE080ACB
:10329000BCEEC00A10EE100A82B2824890ED000A1D
:1032A00020EE080ABCEEC00A10EE100A81B200201F
:1032B00000F09EFFE87803287FF4EAAEFEF724FCD6
:1032C0002078A8B196ED000A20EE080ABCEEC00AEC
:1032D00010EE100A97ED000A82B220EE080ABCEE4A
:1032E000C00A10EE100A81B2002000F06FFE47E61F
:1032F00099ED000A20EE080ABCEEC00A10EE100A92
:103300009AED000A82B220EE080ABCEEC00A10EE66
:10331000100A81B2002001F07DF831E6FEF7F4FBDF
:103320004FF41040FEF78EF8FEF790FE28E6FEF709
:10333000EBFB01211C2004F07BFD01211F2004F088
:1033400077FD287918B90A211F2004F071FD28792A
:10335000012803D10C211F2004F06AFD524968792D
:103360000422014411F8011CA9714F49203108447D
:103370000EA910F8010CE871142004F033FD6979EE
:103380000A20B1FBF0F200FB1218A979B1FBF0F4AE
:1033900000FB141BE979B1FBF0F900FB191A09A82D
:1033A00000EB42010222122004F01CFD09A800EBF0
:1033B00048010222102004F015FDE84608EB440104
:1033C00002220A2004F00EFD08EB4B0102220C2021
:1033D00004F008FD08EB49010222042004F002FD7C
:1033E00008EB4A010222062004F0FCFC4FF40054D2
:1033F00021463046FEF71EFEE0B92879D0B901F02B
:10340000D7FB6879401C687121463046FEF712FEF2
:103410000028F9D06879202800D96F71224968798D
:10342000014411F8011CA9711F492031084410F80A
:10343000010CE8714FF4006421463046FEF7FAFDB6
:1034400000287FF425AE28790028FAD101F0B0FBDE
:103450006879401E687121463046FEF7EBFD002872
:10346000F9D0687908B9202068710F49C0B20144C9
:1034700011F8011CA9710C492031084410F8010C05
:10348000E8717DE5FEF740FB0848026808480168DE
:1034900008480068FFF736FB72E50000000C0240A8
:1034A000500000204C0000206CCF0020680000205D
:1034B00064000020600000202DE9F04F95B0044624
:1034C0000D461646142274A16846FDF7D9FD142254
:1034D00076A105A8FDF7D4FD142279A10FA8FDF768
:1034E000CFFD14227BA10AA8FDF7CAFD01211F20F0
:1034F00004F09EFC7C4F387818B90821182004F09D
:1035000097FC3878012803D10C21182004F090FC96
:103510003878022803D10A21182004F089FC387871
:10352000032803D10921182004F082FC0821192066
:1035300004F07EFC6D4F387818B90A211F2004F082
:1035400077FC3878012803D10C211F2004F070FC8F
:103550004FF47A7BB4FBFBFC0BFB1C426420B2FBF8
:10356000F0F000F0FF0A0A20B4FBF0F200FB124278
:103570006F4607EB42096422B4FBF2F302FB1343EC
:10358000B3FBF0F007EB4008584600FB1C40B0FBD3
:10359000F2F0C0B20CF0FF0107EB400431B107EBD1
:1035A00041010222162004F01DFC02E0BAF1000FD6
:1035B00004D002222146142004F014FC02224146C9
:1035C000122004F00FFC02224946102004F00AFCED
:1035D000B5FBFBF10BFB11534FF0640BB3FBFBF29C
:1035E00002F0FF0C0A23B5FBF3F203FB12540DF1BA
:1035F000140A0AEB44085A46B5FBF2F40BFB1454C8
:10360000B4FBF3F4C8B24FF47A7303FB1151B1FB6E
:10361000FBF10AEB4409CAB20AEB420430B107EBF2
:10362000400102220E2004F0DDFB02E0BCF1000F9D
:1036300004D002222146082004F0D4FB022249468D
:103640000A2004F0CFFB022241460C2004F0CAFB02
:10365000B6FBFBF2D1B20BFB12620A20B2FBF0F513
:10366000B6FBF0F200FB1264022256460AEB41015F
:10367000104604F0B7FB06EB45010222042004F0DB
:10368000B1FB0AA800EB44010222062004F0AAFBC9
:1036900015B0BDE8F08F00000F0506000B060F0205
:1036A00006030D030D0707000F070F03050F0006A4
:1036B000060B020F0306030D070D0007070F030F8C
:1036C0000F0D06080B0E0F0A060B0D0B0D0F07084A
:1036D0000F0F0F0B0D0F08060E0B0A0F0B060B0D2D
:1036E0000F0D08070F0F0B0F0500002058010020D9
:1036F0002DE9F04F95B004460D461646142276A1EA
:103700006846FDF7BDFC142278A105A8FDF7B8FCBA
:1037100014227BA10FA8FDF7B3FC14227DA10AA8F7
:10372000FDF7AEFC01211F2004F082FB02211B20CB
:1037300004F07EFB7C4F387818B90021182004F083
:1037400077FB3878012803D10421182004F070FB9E
:103750003878022803D10221182004F069FB387858
:10376000032803D10121182004F062FB082119204D
:1037700004F05EFB6D4F387818B90A211F2004F061
:1037800057FB3878012803D10C211F2004F050FB8F
:103790004FF47A7BB4FBFBFC0BFB1C426420B2FBB6
:1037A000F0F000F0FF0A0A20B4FBF0F200FB124236
:1037B0006F4607EB42096422B4FBF2F302FB1343AA
:1037C000B3FBF0F007EB4008584600FB1C40B0FB91
:1037D000F2F0C0B20CF0FF0107EB400431B107EB8F
:1037E00041010222162004F0FDFA02E0BAF1000FB6
:1037F00004D002222146142004F0F4FA02224146A9
:10380000122004F0EFFA02224946102004F0EAFAEE
:10381000B5FBFBF10BFB11534FF0640BB3FBFBF259
:1038200002F0FF0C0A23B5FBF3F203FB12540DF177
:10383000140A0AEB44085A46B5FBF2F40BFB145485
:10384000B4FBF3F4C8B24FF47A7303FB1151B1FB2C
:10385000FBF10AEB4409CAB20AEB420430B107EBB0
:10386000400102220E2004F0BDFA02E0BCF1000F7C
:1038700004D002222146082004F0B4FA022249466C
:103880000A2004F0AFFA022241460C2004F0AAFA02
:10389000B6FBFBF2D1B20BFB12620A20B2FBF0F5D1
:1038A000B6FBF0F200FB1264022256460AEB41011D
:1038B000104604F097FA06EB45010222042004F0BA
:1038C00091FA0AA800EB44010222062004F08AFAC9
:1038D00015B0BDE8F08F00000F0506000B060F02C3
:1038E00006030D030D0707000F070F03050F000662
:1038F000060B020F0306030D070D0007070F030F4A
:103900000F0D06080B0E0F0A060B0D0B0D0F070807
:103910000F0F0F0B0D0F08060E0B0A0F0B060B0DEA
:103920000F0D08070F0F0B0F050000205801002096
:103930002DE9F04F95B004460D461646142276A1A7
:103940006846FDF79DFB142278A105A8FDF798FBBA
:1039500014227BA10FA8FDF793FB14227DA10AA8D6
:10396000FDF78EFB01211F2004F062FA04211B20C9
:1039700004F05EFA7C4F387818B90021182004F062
:1039800057FA3878012803D10421182004F050FA9E
:103990003878022803D10221182004F049FA387837
:1039A000032803D10121182004F042FA082119202C
:1039B00004F03EFA6D4F387818B90A211F2004F040
:1039C00037FA3878012803D10C211F2004F030FA8F
:1039D0004FF47A7BB4FBFBFC0BFB1C426420B2FB74
:1039E000F0F000F0FF0A0A20B4FBF0F200FB1242F4
:1039F0006F4607EB42096422B4FBF2F302FB134368
:103A0000B3FBF0F007EB4008584600FB1C40B0FB4E
:103A1000F2F0C0B20CF0FF0107EB400431B107EB4C
:103A200041010222162004F0DDF902E0BAF1000F94
:103A300004D002222146142004F0D4F90222414687
:103A4000122004F0CFF902224946102004F0CAF9EE
:103A5000B5FBFBF10BFB11534FF0640BB3FBFBF217
:103A600002F0FF0C0A23B5FBF3F203FB12540DF135
:103A7000140A0AEB44085A46B5FBF2F40BFB145443
:103A8000B4FBF3F4C8B24FF47A7303FB1151B1FBEA
:103A9000FBF10AEB4409CAB20AEB420430B107EB6E
:103AA000400102220E2004F09DF902E0BCF1000F5B
:103AB00004D002222146082004F094F9022249464B
:103AC0000A2004F08FF9022241460C2004F08AF902
:103AD000B6FBFBF2D1B20BFB12620A20B2FBF0F58F
:103AE000B6FBF0F200FB1264022256460AEB4101DB
:103AF000104604F077F906EB45010222042004F099
:103B000071F90AA800EB44010222062004F06AF9C8
:103B100015B0BDE8F08F00000F0506000B060F0280
:103B200006030D030D0707000F070F03050F00061F
:103B3000060B020F0306030D070D0007070F030F07
:103B40000F0D06080B0E0F0A060B0D0B0D0F0708C5
:103B50000F0F0F0B0D0F08060E0B0A0F0B060B0DA8
:103B60000F0D08070F0F0B0F050000205801002054
:103B70002DE9F04F95B004460D461646142276A165
:103B80006846FDF77DFA142278A105A8FDF778FABA
:103B900014227BA10FA8FDF773FA14227DA10AA8B5
:103BA000FDF76EFA01211F2004F042F904211A20CA
:103BB00004F03EF97C4F387818B90021182004F041
:103BC00037F93878012803D10421182004F030F99E
:103BD0003878022803D10221182004F029F9387816
:103BE000032803D10121182004F022F9082119200B
:103BF00004F01EF96D4F387818B90A211F2004F01F
:103C000017F93878012803D10C211F2004F010F98E
:103C10004FF47A7BB4FBFBFC0BFB1C426420B2FB31
:103C2000F0F000F0FF0A0A20B4FBF0F200FB1242B1
:103C30006F4607EB42096422B4FBF2F302FB134325
:103C4000B3FBF0F007EB4008584600FB1C40B0FB0C
:103C5000F2F0C0B20CF0FF0107EB400431B107EB0A
:103C600041010222162004F0BDF802E0BAF1000F73
:103C700004D002222146142004F0B4F80222414666
:103C8000122004F0AFF802224946102004F0AAF8EE
:103C9000B5FBFBF10BFB11534FF0640BB3FBFBF2D5
:103CA00002F0FF0C0A23B5FBF3F203FB12540DF1F3
:103CB000140A0AEB44085A46B5FBF2F40BFB145401
:103CC000B4FBF3F4C8B24FF47A7303FB1151B1FBA8
:103CD000FBF10AEB4409CAB20AEB420430B107EB2C
:103CE000400102220E2004F07DF802E0BCF1000F3A
:103CF00004D002222146082004F074F8022249462A
:103D00000A2004F06FF8022241460C2004F06AF801
:103D1000B6FBFBF2D1B20BFB12620A20B2FBF0F54C
:103D2000B6FBF0F200FB1264022256460AEB410198
:103D3000104604F057F806EB45010222042004F077
:103D400051F80AA800EB44010222062004F04AF8C8
:103D500015B0BDE8F08F00000F0506000B060F023E
:103D600006030D030D0707000F070F03050F0006DD
:103D7000060B020F0306030D070D0007070F030FC5
:103D80000F0D06080B0E0F0A060B0D0B0D0F070883
:103D90000F0F0F0B0D0F08060E0B0A0F0B060B0D66
:103DA0000F0D08070F0F0B0F050000205801002012
:103DB0002DE9F0479AB004460D46164614226DA12F
:103DC00005A8FDF75DF914226FA16846FDF758F9C3
:103DD000142272A10FA8FDF753F9142274A10AA8A6
:103DE000FDF74EF901211F2004F022F8754F3878B5
:103DF00018B90821182004F01BF83878012803D1DD
:103E00000C21182004F014F83878022803D10A2174
:103E1000182004F00DF83878032803D10921182060
:103E200004F006F808211A2004F002F8664F3878EA
:103E300018B90A211F2003F0FBFF3878012803D1AD
:103E40000C211F2003F0F4FF4FF47A71B4FBF1F062
:103E500001FB10434FF0640AB3FBFAF101F0FF09D4
:103E60000A21B4FBF1F301FB13430FAF07EB430847
:103E70005346B4FBF3F70AFB1747B7FBF1F10DF11B
:103E8000140C0CEB4107C2B24FF47A7101FB1040E5
:103E9000B0FBFAF0C0B20CEB400432B10CEB4201C3
:103EA0000222162003F09EFF02E0B9F1000F04D0B9
:103EB00002222146142003F095FF022239461220E7
:103EC00003F090FF02224146102003F08BFF4FF0D9
:103ED0000A00B5FBF0F3D146B5FBF9F700FB13532D
:103EE0000AA901EB43084FF0640101FB1751B1FB34
:103EF000F0F06C4617F0FF0204EB400505D004EB30
:103F000042010222082003F06DFF022229460A2006
:103F100003F068FF022241460C2003F063FF4FF0DC
:103F20000A01B6FBF1F3B6FBF9F201FB13630AAD2C
:103F300005EB430712F0FF004FF0640303FB12622E
:103F4000B2FBF1F16A4602EB410505D004EB4001FA
:103F50000222104603F046FF02222946042003F005
:103F600041FF02223946062003F03CFF1AB0BDE8AB
:103F7000F08700000F0506000B060F0206030D0375
:103F80000D0707000F070F03050F0006060B020FB2
:103F90000306030D070D0007070F030F0F0D06089B
:103FA0000B0E0F0A060B0D0B0D0F07080F0F0F0B53
:103FB0000D0F08060E0B0A0F0B060B0D0F0D080751
:103FC0000F0F0B0F05000020580100202DE9F047CE
:103FD0009AB004460D46164614226FA105A8FDF7B7
:103FE0004FF8142271A16846FDF74AF8142274A113
:103FF0000FA8FDF745F8142276A10AA8FDF740F8AE
:1040000001211F2003F014FF02211B2003F010FFE9
:10401000754F387818B90021182003F009FF387857
:10402000012803D10421182003F002FF3878022868
:1040300003D10221182003F0FBFE3878032803D1B6
:104040000121182003F0F4FE08211A2003F0F0FEED
:10405000664F387818B90A211F2003F0E9FE387836
:10406000012803D10C211F2003F0E2FE4FF47A71E6
:10407000B4FBF1F001FB10434FF0640AB3FBFAF11B
:1040800001F0FF090A21B4FBF1F301FB13430FAF69
:1040900007EB43085346B4FBF3F70AFB1747B7FB9C
:1040A000F1F10DF1140C0CEB4107C2B24FF47A712F
:1040B00001FB1040B0FBFAF0C0B20CEB400432B18F
:1040C0000CEB42010222162003F08CFE02E0B9F153
:1040D000000F04D002222146142003F083FE0222A6
:1040E0003946122003F07EFE02224146102003F0E2
:1040F00079FE4FF00A00B5FBF0F3D146B5FBF9F7B6
:1041000000FB13530AA901EB43084FF0640101FBC4
:104110001751B1FBF0F06C4617F0FF0204EB4005BD
:1041200005D004EB42010222082003F05BFE0222CC
:1041300029460A2003F056FE022241460C2003F0D5
:1041400051FE4FF00A01B6FBF1F3B6FBF9F201FBA9
:1041500013630AAD05EB430712F0FF004FF0640351
:1041600003FB1262B2FBF1F16A4602EB410505D096
:1041700004EB40010222104603F034FE02222946DD
:10418000042003F02FFE02223946062003F02AFE07
:104190001AB0BDE8F08700000F0506000B060F02FD
:1041A00006030D030D0707000F070F03050F000699
:1041B000060B020F0306030D070D0007070F030F81
:1041C0000F0D06080B0E0F0A060B0D0B0D0F07083F
:1041D0000F0F0F0B0D0F08060E0B0A0F0B060B0D22
:1041E0000F0D08070F0F0B0F0500002058010020CE
:1041F0002DE9F0479AB004460D46164614226FA1E9
:1042000005A8FCF73DFF142271A16846FCF738FFB2
:10421000142274A10FA8FCF733FF142276A10AA878
:10422000FCF72EFF01211F2003F002FE04211B20BA
:1042300003F0FEFD754F387818B90021182003F0FF
:10424000F7FD3878012803D10421182003F0F0FD90
:104250003878022803D10221182003F0E9FD3878CC
:10426000032803D10121182003F0E2FD08211A20C0
:1042700003F0DEFD664F387818B90A211F2003F0DD
:10428000D7FD3878012803D10C211F2003F0D0FD81
:104290004FF47A71B4FBF1F001FB10434FF0640A64
:1042A000B3FBFAF101F0FF090A21B4FBF1F301FBC2
:1042B00013430FAF07EB43085346B4FBF3F70AFB76
:1042C0001747B7FBF1F10DF1140C0CEB4107C2B22B
:1042D0004FF47A7101FB1040B0FBFAF0C0B20CEB66
:1042E000400432B10CEB42010222162003F07AFDA9
:1042F00002E0B9F1000F04D002222146142003F09D
:1043000071FD02223946122003F06CFD0222414663
:10431000102003F067FD4FF00A00B5FBF0F3D14623
:10432000B5FBF9F700FB13530AA901EB43084FF063
:10433000640101FB1751B1FBF0F06C4617F0FF026E
:1043400004EB400505D004EB42010222082003F0F3
:1043500049FD022229460A2003F044FD022241467B
:104360000C2003F03FFD4FF00A01B6FBF1F3B6FB62
:10437000F9F201FB13630AAD05EB430712F0FF00EE
:104380004FF0640303FB1262B2FBF1F16A4602EBE9
:10439000410505D004EB40010222104603F022FD46
:1043A00002222946042003F01DFD02223946062080
:1043B00003F018FD1AB0BDE8F08700000F050600F5
:1043C0000B060F0206030D030D0707000F070F036F
:1043D000050F0006060B020F0306030D070D00076D
:1043E000070F030F0F0D06080B0E0F0A060B0D0B20
:1043F0000D0F07080F0F0F0B0D0F08060E0B0A0FFE
:104400000B060B0D0F0D08070F0F0B0F05000020FB
:10441000580100202DE9F0479AB004460D46164693
:1044200014226DA105A8FCF72BFE14226FA168468B
:10443000FCF726FE142272A10FA8FCF721FE14221D
:1044400074A10AA8FCF71CFE01211F2003F0F0FC58
:104450000C211A2003F0ECFC734F387818B90021B6
:10446000182003F0E5FC3878012803D10421182036
:1044700003F0DEFC3878022803D10221182003F073
:10448000D7FC3878032803D10121182003F0D0FC91
:10449000664F387818B90A211F2003F0C9FC387814
:1044A000012803D10C211F2003F0C2FC4FF47A71C4
:1044B000B4FBF1F001FB10434FF0640AB3FBFAF1D7
:1044C00001F0FF090A21B4FBF1F301FB13430FAF25
:1044D00007EB43085346B4FBF3F70AFB1747B7FB58
:1044E000F1F10DF1140C0CEB4107C2B24FF47A71EB
:1044F00001FB1040B0FBFAF0C0B20CEB400432B14B
:104500000CEB42010222162003F06CFC02E0B9F130
:10451000000F04D002222146142003F063FC022283
:104520003946122003F05EFC02224146102003F0BF
:1045300059FC4FF00A00B5FBF0F3D146B5FBF9F793
:1045400000FB13530AA901EB43084FF0640101FB80
:104550001751B1FBF0F06C4617F0FF0204EB400579
:1045600005D004EB42010222082003F03BFC0222AA
:1045700029460A2003F036FC022241460C2003F0B3
:1045800031FC4FF00A01B6FBF1F3B6FBF9F201FB87
:1045900013630AAD05EB430712F0FF004FF064030D
:1045A00003FB1262B2FBF1F16A4602EB410505D052
:1045B00004EB40010222104603F014FC02222946BB
:1045C000042003F00FFC02223946062003F00AFC07
:1045D0001AB0BDE8F08700000F0506000B060F02B9
:1045E00006030D030D0707000F070F03050F000655
:1045F000060B020F0306030D070D0007070F030F3D
:104600000F0D06080B0E0F0A060B0D0B0D0F0708FA
:104610000F0F0F0B0D0F08060E0B0A0F0B060B0DDD
:104620000F0D08070F0F0B0F050000205801002089
:104630001CB50121022002F01DFFE02000900120A6
:104640008DF8040000208DF8060002200F4C8DF834
:10465000050069462046FDF79FFC20212046FDF716
:10466000F2FC40212046FDF7EEFC80212046FDF7BC
:10467000EAFC022003F082F8292003F07FF80120F1
:1046800003F07CF8032003F079F81CBD000402401D
:10469000FEE700007CB5134E4FF400552946304626
:1046A000FDF7CFFC01208DF8040002206C008DF88E
:1046B0000500009469463046FDF76EFC2146304601
:1046C000FDF7BFFC022008F057F929463046FDF7F8
:1046D000BAFC022008F050F929463046FDF7B1FC3B
:1046E0007CBD0000000402401CB50121022002F044
:1046F000C1FE4FF4E040009001208DF8040002203C
:104700000A4C8DF8050069462046FDF745FCA114CA
:104710002046FDF796FC4FF400512046FDF793FC30
:104720004FF480412046FDF78EFC1CBD0004024082
:104730007CB5134E4FF4005529463046FDF781FCF9
:1047400001208DF8040002206C008DF80500009413
:1047500069463046FDF720FC21463046FDF773FCE4
:10476000022008F009F929463046FDF76CFC0220CA
:1047700008F002F929463046FDF763FC7CBD0000D5
:10478000000402402DE9FC4700241B4E80464FF4F4
:1047900080478DF8044000978DF807406946304601
:1047A000FDF7FAFB0025B9467F1039463046FDF784
:1047B00048FC022008F0E0F839463046FDF743FC9B
:1047C0006006040E49463046FDF734FC08B1641C0F
:1047D000E4B2012008F0D0F86D1CEDB2082DE4D34E
:1047E000B8F1000F04D0FFF755FF2046BDE8FC8765
:1047F000FFF79EFFF9E70000000402402DE9FC47A7
:10480000054601208DF8040002201A4E4FF480471F
:104810008DF80500009769463046FDF7BDFB4FF463
:10482000005841463046FDF70CFCB9460024474687
:1048300028064946304602D4FDF703FC01E0FDF7A7
:1048400002FC6806050E022008F096F8394630464C
:10485000FDF7F9FB022008F08FF839463046FDF7E6
:10486000F0FB022008F088F8641CE4B2082CDFD3C7
:10487000BDE8FC87000402407CB501208DF80400EF
:104880000220114D4FF480448DF8050000946946D4
:104890002846FDF781FB21462846FDF7D4FB66102C
:1048A00031462846FDF7CFFB032008F065F8214686
:1048B0002846FDF7C6FB032008F05EF8314628467F
:1048C000FDF7BFFB7CBD0000000402407CB5012069
:1048D0008DF804000220114D4FF480448DF805003E
:1048E000009469462846FDF757FB66103146284676
:1048F000FDF7A7FB21462846FDF7A3FB032008F0A0
:104900003BF831462846FDF79EFB21462846FDF739
:104910009AFB032008F030F87CBD00000004024040
:104920002DE9FC410024184E4FF480458DF80440D9
:1049300000958DF8074069463046FDF72DFB294666
:104940003046FDF780FB012008F016F86F1039465D
:104950003046FDF778FB012008F00EF808E0641CF3
:10496000E4B2FA2C04D9FFF7B1FF0120BDE8FC81C5
:1049700029463046FDF75EFB0028F0D13946304627
:10498000FDF75FFB0020F1E70004024002494AF610
:10499000AA2008607047000000300040054A45F238
:1049A0005553136050609160580010604CF6CC4035
:1049B00010607047003000402DE9F0479CB00121A5
:1049C0005E4802F057FD01214FF4E06002F076FDF1
:1049D0004FF0806000905A4801900125594802A983
:1049E000002431C106A8EE026F034FF480784FF423
:1049F00000390594A0E8D003CDE90B45DFF848A1C4
:104A00000D94694650460E94FDF798F801215046E2
:104A1000FDF78AF84D4802A9CDE900404948DFF882
:104A200028A1801C31C106A80594A0E8D003CDE9D7
:104A30000B45AAF1180A0D94694650460E94FDF7ED
:104A40007DF801215046FDF76FF868060090404858
:104A500001903C4802A9001D31C106A80594A0E8B8
:104A6000D003394ECDE90B4518360D9469463046D2
:104A70000E94FDF763F801213046FDF755F83F200D
:104A8000032615908DF858608DF85B4015A93148C4
:104A9000FDF782FA922015908DF858608DF85B40F2
:104AA00015A92D48FDF778FA17941894199417A8AA
:104AB0001A94FCF70FFC0F948DF840401194139456
:104AC0001F4C8DF841504C3C8DF850500FA920469A
:104AD000FCF72CFC1E4D0FA94C3D2846FCF726FC8C
:104AE0001A4E0FA94C3E3046FCF720FC012120460F
:104AF000FCF712FC01212846FCF70EFC0121304690
:104B0000FCF70AFC01212046FCF7FCFB01212846AA
:104B1000FCF7F8FB01213046FCF7F4FB01212046AD
:104B2000FCF7CEFB01212846FCF7CAFB01213046E9
:104B3000FCF7C6FB1CB0BDE8F08700000500400094
:104B40004C22014016000020286402404C20014005
:104B50004C21014000080240000002401CB5012128
:104B6000082002F087FC4FF4FE40002400908DF8EE
:104B7000044069460848FDF70FFA0121102002F0B1
:104B800079FC4FF4607000908DF80440694603484A
:104B9000FDF702FA1CBD0000000C024000100240AC
:104BA0004FF400410148FDF74CBA0000000C0240F0
:104BB00010B54FF400410348FDF745FA024964205F
:104BC000487310BD000C0240000000202DE9F047A2
:104BD0000C46F9A1904699468CB091E82C00C96822
:104BE000DDF850A0CDE90251F7A1CDE9002391E80D
:104BF0002C00C968CDE90423CDE90651F6A104AE25
:104C000091E82C00C96808AFCDE90A51611E6D46D4
:104C1000CDE9082340B101287DD10F297CD8CCB241
:104C2000B8F1000F79D0D4E00F2974D8CCB2B8F124
:104C3000000F11D1385D012140F4E070FCF7B6FEA1
:104C4000285D012140F4E070FCF7B0FE305D0121E9
:104C500040F4E070FCF7AAFEB9F1000F11D1385D05
:104C6000022140F4E070FCF7A1FE285D022140F42F
:104C7000E070FCF79BFE305D022140F4E070FCF731
:104C800095FEBAF1000F11D1385D032140F4E070B8
:104C9000FCF78CFE285D032140F4E070FCF786FEF3
:104CA000305D032140F4E070FCF780FEB8F1010FA5
:104CB00011D1305D012140F4E070FCF777FE285DF2
:104CC000012140F4E070FCF771FE385D012140F4F1
:104CD000E070FCF76BFEB9F1010F11D1305D0221DC
:104CE00040F4E070FCF762FE285D022140F4E070C1
:104CF000FCF75CFE385D022140F4E070FCF756FEE4
:104D0000BAF1010F15D1305D032140F4E070FCF7DA
:104D10004DFE285D02E0B7E0C6E048E040F4E070F8
:104D20000321FCF743FE385D032140F4E070FCF7FB
:104D30003DFEB8F1020F11D1385D012140F4E07061
:104D4000FCF734FE305D012140F4E070FCF72EFEEC
:104D5000285D012140F4E070FCF728FEB9F1020F54
:104D600011D1385D022140F4E070FCF71FFE305D88
:104D7000022140F4E070FCF719FE285D022140F4A6
:104D8000E070FCF713FEBAF1020F7DD1385D03210C
:104D900040F4E070FCF70AFE305D032140F4E0705F
:104DA000FCF704FE285D032140F4E070FCE0385D70
:104DB000012140F4E070FCF7F9FD285D012140F489
:104DC000E070FCF7F3FD305D012140F4E070FCF78A
:104DD000EDFDB9F1000F11D1385D022140F4E07012
:104DE000FCF7E4FD285D022140F4E070FCF7DEFDF5
:104DF000305D022140F4E070FCF7D8FDB8F1010FFE
:104E000011D1305D012140F4E070FCF7CFFD285D49
:104E1000012140F4E070FCF7C9FD385D012140F448
:104E2000E070FCF7C3FDB9F1010F11D1305D022133
:104E300040F4E070FCF7BAFD285D022140F4E07018
:104E4000FCF7B4FD385D022140F4E070FCF7AEFDE4
:104E5000B8F1020F11D1385D012140F4E070FCF788
:104E6000A5FD305D012140F4E070FCF79FFD285D59
:104E7000012140F4E070FCF799FDB9F1020F13D164
:104E8000385D40F4E07000E08FE00221FCF78EFD19
:104E9000305D022140F4E070FCF788FD285D0221BE
:104EA00040F4E070FCF782FD113C0F2C7DD8E4B299
:104EB000B8F1000F11D1385D042140F4E070FCF727
:104EC00075FD285D042140F4E070FCF76FFD305D56
:104ED000042140F4E070FCF769FDB9F1000F11D135
:104EE000385D052140F4E070FCF760FD285D052188
:104EF00040F4E070FCF75AFD305D052140F4E070AD
:104F0000FCF754FDB8F1010F11D1305D042140F4DC
:104F1000E070FCF74BFD285D042140F4E070FCF7E5
:104F200045FD385D042140F4E070FCF73FFDB9F128
:104F3000010F11D1305D052140F4E070FCF736FD22
:104F4000285D052140F4E070FCF730FD385D052157
:104F500040F4E070FCF72AFDB8F1020F11D1385D82
:104F6000042140F4E070FCF721FD305D042140F4A1
:104F7000E070FCF71BFD285D042140F4E070FCF7B5
:104F800015FDB9F1020F13D1385D052140F4E07031
:104F9000FCF70CFD305D052140F4E070FCF706FDE8
:104FA000285D052140F4E07000E001E0FCF7FEFC24
:104FB0000CB0BDE8F0870000383B3033282B2023AD
:104FC000181B1013080B0003393C3134292C212401
:104FD000191C1114090C01043A3D32352A2D2225E1
:104FE0001A1D12150A0D02052DE9F0478EB00C4668
:104FF00015469846FEA1DDF8589091E84C00C96826
:10500000CDE90823CDE90A61FDA10DF1200A91E85F
:105010004C00C968CDE90023CDE90261FCA104AFD1
:1050200091E84C00C968CDE90423CDE90661611E11
:105030006E4648B101287CD10F297BD8CCB2002D17
:1050400079D0032D77D0CDE00F2972D8CCB20DB135
:10505000032D12D1385D012140F4E070FCF7A6FC6D
:105060001AF80400012140F4E070FCF79FFC305D69
:10507000012140F4C070FCF799FCB8F1000F02D098
:10508000B8F1030F12D1385D022140F4E070FCF753
:105090008DFC1AF80400022140F4E070FCF786FC55
:1050A000305D022140F4C070FCF780FCB9F1000FC4
:1050B00002D0B9F1030F12D1385D032140F4E07042
:1050C000FCF774FC1AF80400032140F4E070FCF7CC
:1050D0006DFC305D032140F4C070FCF767FC012DCE
:1050E00012D1305D012140F4E070FCF75FFC1AF84A
:1050F0000400012140F4E070FCF758FC385D012108
:1051000040F4C070FCF752FCB8F1010F16D1305DCD
:10511000022140F4E070FCF749FC1AF80400022177
:1051200040F4E070FCF742FC385D022140F4C070AE
:1051300002E0B7E0CCE042E0FCF738FCB9F1010F47
:1051400012D1305D032140F4E070FCF72FFC1AF817
:105150000400032140F4E070FCF728FC385D0321D3
:1051600040F4C070FCF722FC022D0BD1385D012108
:1051700040F4C070FCF71AFC305D012140F4C070AF
:10518000FCF714FCB8F1020F0BD1385D022140F49A
:10519000C070FCF70BFC305D022140F4C070FCF7DE
:1051A00005FCB9F1020F7DD1385D032140F4C070D8
:1051B000FCF7FCFB305D032140F4C07015E1385D65
:1051C000012140F4E070FCF7F1FB1AF80400012122
:1051D00040F4E070FCF7EAFB305D012140F4C07060
:1051E000FCF7E4FBB8F1000F02D0B8F1030F12D1C5
:1051F000385D022140F4E070FCF7D8FB1AF8040097
:10520000022140F4E070FCF7D1FB305D022140F454
:10521000C070FCF7CBFB012D12D1305D012140F4B1
:10522000E070FCF7C3FB1AF80400012140F4E070C1
:10523000FCF7BCFB385D012140F4C070FCF7B6FB05
:10524000B8F1010F12D1305D022140F4E070FCF79B
:10525000ADFB1AF80400022140F4E070FCF7A6FB55
:10526000385D022140F4C070FCF7A0FB022D0BD189
:10527000385D012140F4C070FCF798FB305D0121DE
:1052800040F4C070FCF792FBB8F1020F0DD1385D0D
:10529000022140F4C070FCF789FB305D022140F42C
:1052A000C07000E095E0FCF781FB385D032140F41D
:1052B000E070FCF77BFB1AF80400032140F4E07077
:1052C000FCF774FB305D032140F4E070FCF76EFBEB
:1052D000113C0F2C7DD8E4B20DB1032D12D1385DF5
:1052E000042140F4E070FCF761FB1AF8040004218B
:1052F00040F4E070FCF75AFB305D042140F4C070CC
:10530000FCF754FBB8F1000F01D0032D12D1385D2A
:10531000052140F4E070FCF749FB1AF80400052170
:1053200040F4E070FCF742FB305D052140F4C070B2
:10533000FCF73CFB012D12D1305D042140F4E070FC
:10534000FCF734FB1AF80400042140F4E070FCF789
:105350002DFB385D042140F4C070FCF727FBB8F149
:10536000010F12D1305D052140F4E070FCF71EFB07
:105370001AF80400052140F4E070FCF717FB385DD3
:10538000052140F4C070FCF711FB022D0BD1385DF4
:10539000042140F4C070FCF709FB305D042140F4A7
:1053A000C070FCF703FBB8F1020F0BD1385D05218B
:1053B00040F4C070FCF7FAFA305D052140F4C0708B
:1053C000FCF7F4FA385D062140F4E070FCF7EEFAE1
:1053D00000E00CE01AF80400062140F4E070FCF74D
:1053E000E5FA305D062140F4E070FCF7DFFA17E0E3
:1053F000383B3033282B2023181B1013080B0003D5
:10540000393C3134292C2124191C1114090C0104B4
:105410003A3D32352A2D22251A1D12150A0D020594
:105420000EB0BDE8F087FEE770474FF4A06000F0D3
:1054300033B8000070B50F21C478027801234FF013
:10544000E026E4B1124C246804F4E064C4F5E0649E
:10545000C4F30724C4F10405E1404478AC408578E6
:105460000D4025430B4C29011155007800F01F0118
:105470008B40400906EB8000C0F8003170BD02F09F
:105480001F008340500906EB8000C0F8803170BDDA
:105490000CED00E000E400E0024908430249086026
:1054A000704700000000FA050CED00E070470000B6
:1054B00070B505000E46144605D036B10E4880780A
:1054C00028B112200DE004200BE00C2009E0287820
:1054D000012808D0022806D0032804D0042802D0CE
:1054E0000120107070BDFAF7DFFE6E61FAF7E0FE82
:1054F0000020207070BD0000C800002030B587B0CB
:1055000000F070F82A48002404638470C4700472A8
:10551000C471C460C4618461446144708471214673
:1055200000F134025454491CC9B20829FAD3047159
:1055300044718462046201F049F801F01BF800F044
:10554000F3FF01F085F801F0A9F802AA0325202055
:1055500031C218494FF6FF70CDE9000101F17C021C
:105560003F230021144800F09FFA05AA13A13F2011
:1055700000F0F8FA02AA402031C214494FF6FE703A
:10558000CDE9000101F1FC023E230021104800F0AA
:105590008BFA05AA0FA13E2000F0E4FA00F090FC7F
:1055A00000F026F807B0BDE83040FFF77FBF0000ED
:1055B000C8000020F4BB00205968000875432F4F35
:1055C000532D49492049646C65000000F4BA00205D
:1055D0007568000875432F4F532D49492053746156
:1055E000740000000149002008807047C4000020BA
:1055F000704700000449C879012804D18878FF2841
:1056000001D2401C88707047C800002070B5144D4E
:10561000E879012822D1FAF747FE0446A87820B19C
:10562000401E10F0FF00A87013D1E87888B901F08F
:1056300079F80C48697950F82100A8622A799142DA
:1056400007D0C16B491CC163E868401CE860FAF7E9
:1056500047FE2046BDE87040FAF72ABE70BD000044
:10566000C800002074BC002070B505460E480078C4
:1056700008B1002070BDFAF717FE01460B48046818
:105680000CB1626802600846FAF712FE4CB10120C4
:1056900020700020208106A065606061204600F037
:1056A00039FF204670BD0000CA000020D80000204D
:1056B0003F0000002DE9F04705008846144604D05D
:1056C0002878012803D001200AE0042008E02C48B3
:1056D000007808B1022003E02A48007820B10D20AC
:1056E00010700020BDE8F087FAF7DEFD6E6807460F
:1056F00000213EB1884638466960FAF7D9FD84F842
:1057000000803AE0DFF880A08946DAF8000010F85F
:10571000342F42F002020270417040F8048C284697
:1057200000F0CAFE3846FAF7C3FD00F0D7FFFAF7DB
:10573000BBFD0746DAF8000090F8351031B10229B8
:1057400008D0294600F088FE0A2004E0466A84F862
:10575000009001E00E202070DAF80010384601F1C8
:105760001C0181F8189081F81990C1F80090C1F8D7
:105770000490C1F80890FAF79BFD3046B2E70000AC
:10578000CA000020CB000020E800002070B5040013
:105790000D4605D035B12078012805D0012070BD17
:1057A000042070BD032070BDFAF77EFD0646A07A86
:1057B00058B1002302222946204600F011FE30464F
:1057C000FAF776FD00F08AFF0AE0606820B1304603
:1057D000FAF76EFD142070BD30466560FAF768FD7B
:1057E000002070BD10B5094CE07901280CD1FAF702
:1057F0005BFDA17821B9E178FF2901D2491CE17054
:10580000BDE81040FAF754BD10BD0000C8000020EC
:1058100010B50D4CE079012814D1FAF745FDE17877
:1058200031B1491E11F0FF01E17001D1A17819B128
:10583000BDE81040FAF73CBDFAF73AFDBDE810406C
:1058400000F04CBF10BD0000C800002070B5054638
:105850000E48007808B1002070BDFAF725FD01461A
:105860000B4804680CB1626802600846FAF720FD34
:105870004CB10320207025810020606005A060618C
:10588000204600F047FE204670BD0000CA00002000
:10589000D80000203F0000002DE9F04705008846B1
:1058A000144604D02878032803D001200AE00420FD
:1058B00008E02648007808B1022003E02448007878
:1058C00018B10D201070BDE8F087FAF7EDFC064620
:1058D0002889002730B1401E28813046FAF7E8FCBD
:1058E0002770F0E7DFF86C90D9F8000010F8341F4B
:1058F00041F001010170477040F8048C284600F027
:10590000DBFD3046FAF7D4FC00F0E8FEFAF7CCFCF9
:105910000646D9F8000090F8351031B1022906D0BA
:10592000294600F099FD0A2002E0277001E00E20D0
:105930002070D9F8000000F11C0007764776076058
:1059400047603046BDE8F047FAF7B2BCCA00002015
:10595000CB000020E800002070B5040004D02078BF
:10596000032803D0012070BD042070BDFAF79CFC11
:105970000546A07A58B1002301221946204600F0BE
:105980002FFD2846FAF794FC00F0A8FE09E02089D4
:105990004FF6FF71884206D2401C20812846FAF754
:1059A00087FC002070BD2846FAF782FC332070BDCA
:1059B00010B5094CE07900280CD100F0B3FE6079F5
:1059C0000649207151F82000A0622062BDE8104015
:1059D000FAF771BC10BD0000C800002074BC0020A4
:1059E00010B5022000F0C6F9FAF75EFC084C002161
:1059F000E161FAF75DFC642000F0BCF9FAF754FCB1
:105A0000E169616101216170BDE81040FAF750BCA5
:105A1000C8000020FBF780BD2DE9FE4305460F4678
:105A200090461C463F2B02D92A20BDE8FE83FAF798
:105A30003BFC1A49097819B1FAF73AFC3C20F4E723
:105A4000174E56F8241019B1FAF732FC2820ECE76B
:105A5000012146F82410FAF72BFC00234246394670
:105A6000284600F0FBF800270146009701973B46C7
:105A70003A462046029700F065FE050007D0FAF787
:105A800013FC46F82470FAF713FC2846CDE70548C6
:105A900000780128F9D100F021FEF6E7CA000020C5
:105AA00074BC0020CF0000202DE9F04F81462DED81
:105AB000028B83B08A46DDE90F879DED118A129D26
:105AC00093461C463F2B05D92A2003B0BDEC028B20
:105AD000BDE8F08FFAF7E8FB1D49097819B1FAF72C
