:020000040800F2
:10000000E8C70020290200082F220008691D000807
:100010002D220008011600083D49000800000000DC
:10002000000000000000000000000000B5430008D0
:100030008D16000800000000AB02000841450008D2
:10004000430200084302000843020008430200087C
:10005000430200084302000843020008430200086C
:10006000430200084302000843020008430200085C
:10007000430200084302000843020008430200084C
:10008000430200084302000843020008430200083C
:10009000430200084302000843020008430200082C
:1000A000430200084302000843020008430200081C
:1000B000C14500084302000843020008430200084B
:1000C00043020008430200084302000843020008FC
:1000D000430200084302000819470008D5470008FA
:1000E000911600084302000843020008430200087A
:1000F00043020008430200084302000843020008CC
:1001000043020008430200084302000843020008BB
:1001100043020008430200084302000843020008AB
:10012000430200084302000843020008430200089B
:10013000430200084302000843020008430200088B
:10014000430200084302000843020008430200087B
:10015000430200084302000843020008430200086B
:10016000430200084302000843020008430200085B
:10017000430200084302000843020008430200084B
:10018000430200084302000800F002F800F03CF8C7
:100190000AA090E8000C82448344AAF10107DA45E2
:1001A00001D100F031F8AFF2090EBAE80F0013F0F8
:1001B000010F18BFFB1A43F0010318475405010053
:1001C00074050100103A24BF78C878C1FAD85207E4
:1001D00024BF30C830C144BF04680C6070470000C1
:1001E0000023002400250026103A28BF78C1FBD840
:1001F000520728BF30C148BF0B6070471FB509F0D8
:1002000094FE1FBD10B510BD00F054FF1146FFF75E
:10021000F5FF08F003FF00F072FF03B4FFF7F2FFF1
:1002200003BC00F073FF00000948804709480047FD
:10023000FEE7FEE7FEE7FEE7FEE7FEE7FEE7FEE796
:10024000FEE7FEE704480549054A064B70470000F3
:100250006545000889010008E8C10020E8C70020C2
:10026000E8C30020E8C30020EFF3108072B67047A7
:1002700080F3108870471D484FF0FF010170002087
:1002800080F309881A48012101701A484FF0805103
:10029000016062B6FEE717484FF080510160704779
:1002A00014484FF080510160704772B6EFF3098037
:1002B00028B1203880E8F00F0F490968086000B5C0
:1002C0000E4880475DF804EB0D480E490A7802702D
:1002D00009480D490A680260106890E8F00F203064
:1002E00080F309884EF0040E62B6704722ED00E0FC
:1002F0005700002004ED00E070000020752B00087E
:1003000054000020550000207800002072B670478D
:1003100062B67047EFF3108072B6704780F31088B2
:100320007047B0FA80F0704790FAA0F0704730BF85
:10033000704720BF70470000DFED2E0AB5EEC00AFF
:1003400060EE200ABDEEE01A11EE100AF1EE10FA8E
:1003500038BF401E00EE100ADFED271AF7EE005AF4
:10036000B8EEC00ADFED274A244930EEC01A21EE6C
:10037000210AFCEEC00A10EE900A00EE900A01EB92
:100380008000B8EE600ADFED1E0AF0EC012A11EEE3
:10039000210AF6EE001AB0EC013AF0EC013A20EE38
:1003A000001A20EE216A40EE615A20EE245A21EE16
:1003B000212A90ED004A00EE602A66EE010A40EE26
:1003C000400A05EE412A70EEA55AF0EE400A41EED1
:1003D000210A46EE410A25EE011A00EE641A22EEC9
:1003E000820A63EEA00A03EE250A44EE010A30EE0B
:1003F000200A704783F9223E0000804360A0000875
:10040000ABAAAA3EABAA2A3E9FED3A0A5FEA920C3B
:1004100053D000BFB0EC011A0B1DF0EC010A21EE25
:10042000011A00EEA01AB5EEC01AF1EE10FAC6BF1E
:10043000F1EEC10AC1ED000A81ED000AF0EC010AFB
:10044000191DB0EC011A60EEA00A41EE010AF5EEAA
:10045000C00AF1EE10FAC6BFF1EEE00AC3ED000AE1
:1004600083ED000AB0EC011A0B1DF0EC010A21EE3D
:10047000011A00EEA01AB5EEC01AF1EE10FAC6BFCE
:10048000F1EEC10AC1ED000A81ED000AB0EC011ADB
:10049000191DF0EC010A21EE011A00EEA01AB5EECA
:1004A000C01AF1EE10FAC6BFF1EEC10AC3ED000AA0
:1004B00083ED000ABCF1010CACD112F0030208BFBD
:1004C000704700BFF0EC010A0B46B0EC011A091DA1
:1004D00060EEA00A41EE010AF5EEC00AF1EE10FA54
:1004E000C6BFF1EEE00AC3ED000A83ED000A521E1A
:1004F000E8D17047000000002DE9F00700EBC109CA
:10050000DDE90778D0F800A0C9F800A007EB0114D6
:10051000D0F804A0251FA9F10406C9F804A003EB34
:10052000C80907F1080C00F1080402EBC8024B1ED1
:1005300031D000BFF2EC011A96ED002A92ED001ABC
:1005400002EBC802B4EC010A121FF4EC012A60EEBF
:10055000210A20EE010A32EE823A02EEA10AD9ED1A
:10056000001A43EE410A09EBC80902EE610A16EDD2
:10057000012A083E42EE210A02EE410AECEC010A91
:10058000ACEC010AB1EE400A85ED000A45ED010A26
:10059000083D5B1ECED190ED000AD0ED010A07EBBD
:1005A000C10130EE600A81ED000A9FED5D0A81ED28
:1005B000010AD0ED000A90ED011A70EE810AC7ED34
:1005C000000A87ED010ABDE8F007704770B400EB40
:1005D000C105DDE903C42D1D002904BF70BC7047AF
:1005E000F2EC011A95ED002A92ED001A02EBC4021A
:1005F000B0EC010A121FF0EC012A60EE210A20EE95
:10060000410A32EE823A02EEA10AD3ED001A43EE1D
:10061000010A03EBC40302EE610A15ED012A083D4D
:10062000491E42EE210A02EE010AECEC010AACEC92
:10063000010AD5D170BC70472DE9F04305464469E5
:10064000807983B00F461646012809D0A3892188F6
:100650003846626800F036F9E87901284ED053E058
:10066000AA88D5E9030307EBC20CD5F80880314608
:100670000CF1040C5AB300BFB0EC011A9CED002A37
:10068000D0ED001A00EBC800B7EC010A001FF7EC30
:10069000012A521E60EE010A20EE610A32EE823A11
:1006A00002EE810A93ED001A43EE210A03EBC80320
:1006B00002EE410A1CED012AACF1080C42EE010ADF
:1006C00002EE210AE1EC010AA1EC010AD4D194ED79
:1006D000040AA38921883046626800F095FAE87917
:1006E00001281CBF03B0BDE8F083E2892188A3681C
:1006F00003B03046BDE8F04300F08CB8E2892188B1
:100700003846A36800F086F8A868CDE90060D5E90E
:100710000323A9883846FFF7EFFE03B0BDE8F08356
:100720000000000070B592B2DDF810C055080260FC
:100730008580184EC66006F50056DBB206610024BF
:10074000837180F807C0802A04BF102282600BD01A
:10075000B2F5007F08BF042212D0B2F5006F14BFBB
:100760004FF0FF3401220BD0002B8C4641614FF03B
:10077000000307D001222946604600F015FC06E080
:100780008260F1E700222946604600F00DFC204619
:1007900070BD00006CA4000870B40025B0EC010A24
:1007A000A1F1010CF0EC010AB4EEE00AF1EE10FA4E
:1007B0003CBFB0EE600A0125ACF10104A446B4F1DF
:1007C000004F0ED3F0EC010AB4EEE00AF1EE10FA9D
:1007D0003CBFB0EE600AA1EB0C05BCF1010CF1D1FD
:1007E00013E0002CC8BF00260FDD00BFF0EC010AAB
:1007F000B4EEE00AF1EE10FA04D2ACEB0605B0EE6E
:10080000600A4D1B761C641EF0D182ED000A1D604B
:1008100070BC70472DE9F0014E0801244FF0000C28
:1008200004EB51076146A6F102082CE061452AD28B
:1008300000EBCC0500EBC104D5ED000A94ED000AF5
:10084000C4ED000A85ED000AD5ED010A94ED010A18
:10085000C4ED010A85ED010A0CEB0705CC1900EB8C
:10086000C50500EBC404D5ED000A94ED000AC4ED03
:10087000000A85ED000AD5ED010A94ED010AC4EDE8
:10088000010A85ED010A00EBC104B44400EBCC0C75
:1008900094ED020ADCED000A891CC4ED020A8CED1D
:1008A000000A94ED030ADCF80450E5608CED010ABF
:1008B000B3F800C089B203EB42034145B6D9BDE8A5
:1008C000F00170472DE9F04F4FEA910C4FF000080E
:1008D0004746644608EB0C0505EB0C0909EB0C06D2
:1008E00000EBC80A00EBC9099AED000AD9ED000A2D
:1008F00099ED012A00EBC50530EE201A30EE600AB2
:10090000DAED010A00EBC60608F1010870EE821A62
:1009100070EEC20A95ED002AD6ED002A641E32EE72
:10092000222A71EE022A31EE421ACAED002A95ED12
:10093000012AD6ED012A32EE222A71EE822A71EEC8
:10094000C21ACAED012A95ED012AD6ED012A96EDCB
:10095000003A4FEA470A32EE622AD5ED002A02EB4E
:10096000CA0B72EEC32A9BED003ADBED013A21EE91
:10097000034A01EEA34A61EE831A41EE631A85ED44
:10098000004A30EE021A30EE420AC5ED011A02EBBF
:10099000C70570EEE21A95ED002A70EEA20AD5EDB9
:1009A000012A21EE023A0AEB070502EBC5051F44B6
:1009B00001EEA23A61EE821A41EE621A89ED003A26
:1009C000C9ED011AD5ED001A95ED011A20EE212A84
:1009D00000EE812A60EEA10A40EE410A86ED002A6F
:1009E000C6ED010A7FF476AF9B044FEA134BE6464F
:1009F000BCF1040F7DD9E0464FEA9C0C4FF0000992
:100A0000CA46BCF1000F75D94FEA490404EB09034B
:100A100002EBC90502EBC40402EBC30395ED001A17
:100A2000D5ED011A94ED000AD4ED010A93ED002AE8
:100A3000D3ED012AD94453468A4573D203EB0C0403
:100A400004EB0C0606EB0C0500EBC30700EBC60637
:100A500097ED003AD6ED003A96ED015A00EBC4044A
:100A600073EE234A33EE633AD7ED013A00EBC50546
:100A700033EE854A73EEC53A94ED005AD5ED005A2F
:100A800035EE255A74EE855A74EEC54AC7ED005A04
:100A900094ED015AD5ED015A35EE255A74EE055AFA
:100AA00034EE454AC7ED015A94ED015AD5ED015A8D
:100AB00095ED006A35EE655AD4ED005A75EEC65ACA
:100AC00024EE806A04EE206A24EE004A04EEE04A36
:100AD00084ED006A73EEE54A73EEA53A84ED014AAF
:100AE00033EE054A33EE453A24EE015A04EEA15A9C
:100AF00001E026E01BE064EE814A86ED005A4344A3
:100B00008B4244EE614A23EE024A03EEA24A63EEB0
:100B1000823AC6ED014A43EE623A85ED004AC5EDE0
:100B2000013A8BD30AF1010AE245FFF46DAF4FEAB7
:100B30008B434FEA9E0E4FEA134BBEF1040F3FF674
:100B40005AAFA1EB0C0100224B1C4FEA9C04002B76
:100B50008CBF1F46BDE8F08F11190E19331900EB39
:100B6000C20500EBC60695ED000AD6ED000A95ED2C
:100B7000012A96ED011A70EE201A70EE600A32EE2C
:100B8000010A00EBC10100EBC30332EE411A91ED03
:100B9000002AD3ED002A6244974232EE222A71EEF7
:100BA000822A31EEC22AC5ED002AD1ED011AD3ED19
:100BB000012A71EEA21A70EE212AC5ED012A70EE0B
:100BC000612A91ED010AD3ED011A93ED003A70EE1E
:100BD000611A91ED000A81ED002AC1ED012A30EE83
:100BE000430A30EEA12A70EEE10A71EE401A31EEAE
:100BF000000A86ED002AC6ED011AC3ED000A83ED56
:100C0000010AA9D8BDE8F08F2DE9F04F4FEA910C09
:100C10004FF000084746644608EB0C0505EB0C0A4C
:100C20000AEB0C0600EBC80900EBCA0AD9ED000A72
:100C30009AED001ADAED012A00EBC50570EE811A73
:100C400070EEC10A99ED011A00EBC60608F1010821
:100C500031EE222A31EE621AD5ED002A96ED003AE5
:100C6000641E72EE832A31EEA23A71EEE21A89ED29
:100C7000003AD5ED012A96ED013A72EE832A32EE62
:100C8000223A32EE622A89ED013AD5ED012A96ED3B
:100C9000013AD6ED003A4FEA470972EEC32A95EDC4
:100CA000003A02EBC90B33EE633ADBED003A9BED01
:100CB000014A61EEA34A42EE444A22EE232A01EEA3
:100CC000842AC5ED004A70EEE21A70EEA20A85EDA4
:100CD000012A02EBC70531EE032AD5ED002A31EED9
:100CE000431A95ED013A61EEA23A09EB070502EBD2
:100CF000C5051F4442EE433A22EE222A01EE832A22
:100D0000CAED003A8AED012AD5ED001A95ED012AC7
:100D100060EEA12A41EE422A21EE211A00EE821A4B
:100D2000C6ED002A86ED011A7FF476AF9B044FEAE8
:100D3000134BE646BCF1040F7DD9E0464FEA9C0C0C
:100D40004FF00009CA46BCF1000F75D94FEA4904BB
:100D500004EB090302EBC90502EBC40402EBC30375
:100D6000D5ED001A95ED012AD4ED000A94ED011A93
:100D7000D3ED002A93ED013AD94453468A4573D204
:100D800003EB0C0404EB0C0606EB0C0500EBC307AD
:100D900000EBC606D7ED003A96ED004AD6ED015AB3
:100DA00000EBC40433EE845A73EEC43A97ED014A63
:100DB00000EBC50574EE254A34EE654AD4ED005AC1
:100DC00095ED006A75EE865A35EE256A35EE655A60
:100DD00087ED006AD4ED015A95ED016A75EE865AE9
:100DE00034EEA56A74EEE54A87ED016AD4ED015A46
:100DF00095ED016AD5ED006A75EEC65A94ED006A6C
:100E000036EE666A65EE206A44EEC16A64EEA04A78
:100E100045EE014AC4ED006A34EE065A34EE464A05
:100E2000C4ED014A73EEE54A73EEA53A64EEA15AA9
:100E300045EE425A01E026E01BE025EE215AC6EDC0
:100E4000005A43448B4204EE825A63EEA24A44EEB7
:100E5000434A24EE224A86ED015A03EE834AC5ED49
:100E6000004A85ED014A8BD30AF1010AE245FFF4FD
:100E70006DAF4FEA8B434FEA9E0E4FEA134BBEF124
:100E8000040F3FF65AAFA1EB0C0100224B1C4FEAB6
:100E90009C06002B8CBF1F46BDE8F08F91198D1961
:100EA000AB1900EBC20400EBC505D4ED000AD5ED8B
:100EB000001AD4ED012A95ED012A30EEA11A70EE48
:100EC000E11A72EE820A00EBC10100EBC30332EEBD
:100ED000C22AD1ED002A93ED003A6244974272EEA5
:100EE000832A31EE223A71EE622A23EE003A62EE54
:100EF000802A84ED003A91ED011A93ED013A31EE2A
:100F0000031A30EE813A23EE003A84ED013A30EED6
:100F1000C13AD1ED010A93ED011AD3ED003A30EE5A
:100F2000C11AD1ED000AC1ED002A63EE002A70EE6D
:100F3000E30AC1ED012A71EEC12A31EE811A72EE87
:100F4000201A72EE600A22EE802A21EE001A61EE6B
:100F5000801A85ED002A60EE800AC5ED011A83ED46
:100F6000001AC3ED010A99D8BDE8F08F30B50446E8
:100F70000D4680782188A389626801280DD0284613
:100F8000FFF7A0FCE078012818BF30BDE289218876
:100F90002846A368BDE830403CE494ED040A2846A6
:100FA000FFF732FEEEE7000010B401801B4C4460F6
:100FB00082704FF0000CC370102925D040291BD03F
:100FC000B1F5807F10D0B1F5806F18BF4FF0FF3CB6
:100FD00002D010BC6046704701218181C181104957
:100FE0009FED100A816016E004218181C1810E49C4
:100FF0009FED0E0A81600EE010218181C1810C49B4
:101000009FED0C0A816006E040218181C1810A497F
:101010009FED0A0A816080ED040ADAE76CE40008BB
:101020006C0401080000803A720401080000803B53
:101030008A0401080000803CEA0401080000803DA9
:1010400010B5203AC0F00B80B1E81850203AA0E863
:101050001850B1E81850A0E81850BFF4F5AF5FEA97
:10106000027C24BFB1E81850A0E8185044BF18C94A
:1010700018C0BDE810405FEA827C24BF51F8043BF1
:1010800040F8043B08BF7047D20728BF31F8023B45
:1010900048BF11F8012B28BF20F8023B48BF00F8D9
:1010A000012B704770477047704700000048704739
:1010B00084C100207546FFF7F9FFAE46050069467A
:1010C000534620F00700854618B020B5FFF7BAF860
:1010D000BDE820404FF000064FF000074FF0000839
:1010E0004FF0000B21F00701AC46ACE8C009ACE8BA
:1010F000C009ACE8C009ACE8C0098D467047044699
:10110000AFF300802046FFF788F8704701491820A8
:10111000ABBEFEE72600020010B5064C01220023FC
:101120001146204600F030F92046BDE8104000F09E
:1011300065B900000020014010B5064C00230122D3
:101140000C21204600F020F92046BDE8104000F0B8
:1011500055B900000020014010B5064C00230122C3
:101160000421204600F010F92046BDE8104000F0B0
:1011700045B900000020014010B5064C00230122B3
:101180000721204600F000F92046BDE8104000F09D
:1011900035B900000020014070B59CB001212F48F6
:1011A00002F0C2FF01214FF4E06002F0E1FF4FF0D6
:1011B000007000902A4801902A4802A900240125C5
:1011C00031C1E802CDE90640800008904011099045
:1011D0000AA90594400231C1234E0D946946304658
:1011E0000E9400F029FA0121304600F01AFA03208B
:1011F0008DF8680019958DF86B4019A91B4800F00F
:1012000073FA15941694179415A8189400F06AF8B8
:101210000F948DF8404011941394114C8DF8415067
:101220004C3C8DF850500FA9204600F087F8002361
:1012300001220821204600F0A7F80121204600F0F5
:1012400073F80121204600F065F80121204600F0E6
:101250003FF8204600F0D2F81CB070BD02004000FC
:101260004C2101400C000020406402400004024078
:1012700010B5064C002301220A21204600F084F814
:101280002046BDE8104000F0B9B80000002201403F
:1012900010B5064C002301220B21204600F074F803
:1012A0002046BDE8104000F0A9B80000002201402F
:1012B00010B5064C002301220C21204600F064F8F2
:1012C0002046BDE8104000F099B80000002201401F
:1012D0000029816802D041F0010101E021F0010103
:1012E00081607047094B10B51A68094902EA01028A
:1012F000D0E9001441EA0401D0E9024044EA0004C4
:1013000041EA040141EA0201196010BD04230140D1
:10131000E030FCFF0029816802D041F4807101E0D7
:1013200021F48071816070470029816802D041F406
:10133000007101E021F400718160704730B54268AE
:101340000F4B0C791A400B6842EA042213434360A6
:1013500082680C4B4D791A40D1E9034323438C68D2
:1013600044EA4504234313438360C26A097D22F49F
:101370007002491EC9B242EA0151C16230BD00008B
:10138000FFFEFFFCFDF7FFC070B5072509290AD94C
:10139000C468A1F10A0606EB4606B540AC43B3406B
:1013A0001C43C46007E0046901EB4106B540AC434F
:1013B000B3401C4304611F23072A09D2446B521E09
:1013C00002EB820293409C4391400C43446370BD06
:1013D0000D2A09D2046BD21F02EB820293409C4378
:1013E00091400C43046370BDC46A0D3A02EB820263
:1013F00093409C4391400C43C46270BD816841F0AE
:1014000080418160704700F0DBBC10B5044600F0FD
:101410009FFDA02000F05EFD00F0EEFD200A00F030
:1014200059FD00F0E9FDE0B200F054FD00F0E4FDEC
:1014300000F08EFDA12000F04DFD00F0DDFD00204C
:1014400000F00CFD044600F0ADFD204610BD7047D5
:1014500038B5002001F00AF8174C6061002001F057
:1014600005F8A061002001F0F3F82062002000F0F0
:10147000FDFFE061002001F0EBF860626A460FA119
:101480000A2001F071FA03230F4A00210F4801F0EE
:10149000C5F902230E4A00210E4801F0BFF90123CD
:1014A0000D4A00210D4801F0B9F900230C4A1946F4
:1014B0000C4801F0B3F938BD00000020537461728C
:1014C00074205461736B000010090020EF140008B1
:1014D00010A900207D15000810AA0020FD140008A6
:1014E00010AB00202194000801F080BD704702F08D
:1014F00017F9642007F066F9F9E700001CB5154CF0
:101500000025A079012820D113496F200870206A96
:1015100001F024F9608AC0B1401E60822F260F4F6F
:10152000CDE90056012378781A46002107F0D8FD4E
:10153000CDE90056787802230122002107F0D0FD82
:10154000608A012801D165716582642007F03AF94B
:10155000D7E7000000000020EC00002022AB0020B4
:1015600010B501F03FF9FFF773FFBDE810400A2006
:1015700001F0A8BA704701F041BD00001CB51D4D37
:101580001D4C0126022701AA0021286A01F086F8D5
:10159000194B0094143BA3F1C602A2F1C601A1F5B8
:1015A000A57007F047FE144B0096A3F11402A2F5B4
:1015B000C671A1F5A57007F04FF90F4B0097A3F185
:1015C0001402A2F1C601A1F5047007F045F90A4919
:1015D0001439A1F2D62007F0B7FA074B0094143B58
:1015E000A3F1C602A2F1C601A1F5A57004F058FB53
:1015F000C9E7000000000020FE03002001F010BD3C
:10160000FEE770B5002500240021284603F0BEF94E
:10161000641CE4B2042CF7D36D1CEDB2202DF2D380
:1016200070BD0029016802D041F0010101E021F004
:10163000010101607047000030B50368124ACC68B0
:1016400013400A682243D1E905452C432243CC6963
:1016500022430C6A22434C6A22438C6A22434C6B1D
:1016600022438C6B22431A430260426922F0070333
:10167000D1E90B2422431A4342610A6942604A6855
:1016800082608968C16030BD3F801CF070470000F7
:1016900010B500F0B1FE4FF48054204600F014F86D
:1016A00018B10548406A01F059F8204600F006F8E4
:1016B000BDE8104000F0ACBE000000200149086009
:1016C00070470000143C0140064A014600201268A1
:1016D000044B0A4014331B680B4202D0002A00D08E
:1016E00001207047003C0140F0B5002201234FF07B
:1016F000030C00BF0D6803FA02F42540A5422DD16A
:10170000066854000CFA04F5AE4306600E790768CB
:10171000A6403E4306600E79012E01D0022E12D162
:101720008668AE4386604D798668A54035438560FE
:10173000456803FA02F6B543456045688E799640E0
:10174000B6B235434560C56856000CFA06F7BD438E
:10175000C560CD79A540C4682543C560521C102AD8
:10176000C8D3F0BD4B07DB0E9A40C90810B500EB9B
:101770008100016A0F249C40A1430162016A114368
:10178000016210BD0246002012690A4200D0012009
:101790007047418370470183704700002DE9F0478F
:1017A00092B004460D46904620223BA16846FFF7C2
:1017B00047FC142240A108A8FFF742FC142243A1D1
:1017C0000DA8FFF73DFC0121182003F0DFF80821E8
:1017D0001C2003F0DBF86426B4FBF6F006FB104196
:1017E0000A27B1FBF7F9B4FBF7F107FB114A00EB4D
:1017F00040006C4601190322192003F0A1F809EBFF
:10180000490001190322162003F09AF80AEB4A0056
:1018100001190322132003F093F8B5FBF6F1C8B2C7
:1018200006FB1151B1FBF7F9B5FBF7F107FB1155B9
:101830000DAC04EB400102220C2003F081F804EB14
:10184000490102220A2003F07BF804EB4501022241
:10185000082003F075F8B8FBF6F1C8B206FB118159
:10186000B1FBF7F5B8FBF7F107FB118408AE06EB07
:1018700040010222002003F063F8022206EB45013A
:10188000104603F05DF806EB44010222042003F049
:1018900057F812B0BDE8F0870605060600000407F9
:1018A00002060700060204020704020706060400F7
:1018B00006070606070400000A0F0006060D040FBF
:1018C0000C060C0B0E0B000E0E0F0C0F0F05060076
:1018D0000B060F0206030D030D0707000F070F038A
:1018E0002DE9F0412D4D4FF4804631462846FFF753
:1018F00049FF2B4C68B96078401C6070314628461F
:10190000FFF740FF0028F9D06078062801D90120B0
:1019100060704FF4805631462846FFF733FF60B9B8
:101920006078401E607031462846FFF72BFF002884
:10193000F9D0607808B90620607060784FF40574BB
:101940004FF4BE7540F2F51641F2375740F6E818ED
:10195000072820D2DFE800F01F040D16040D160042
:10196000FFF74FFE22462946BDE8F0416220FFF70F
:1019700015BFFFF746FE324639464046BDE8F04106
:1019800000F010B8FFF73DFEBDE8F0416222632190
:10199000412000F0E7B8BDE8F0810000000C0240F3
:1019A000DC0000202DE9F04F97B004460D4690462C
:1019B000202255A16846FFF743FB14225AA108A82C
:1019C000FFF73EFB14225DA10DA8FFF739FB14229F
:1019D0005FA112A8FFF734FB0121062002F0D6FF19
:1019E00008210E2002F0D2FF0121122002F0CEFFCA
:1019F00004211C2002F0CAFF4FF47A70B4FBF0F10E
:101A0000C8B24FF47A7202FB11416426B1FBF6F1C1
:101A100001F0FF0BB4FBF6F106FB11410A27B1FB05
:101A2000F7F9B4FBF7F107FB114A00EB40006C46F5
:101A300001190322192002F083FF0BEB4B0001195F
:101A40000322162002F07CFF09EB49000119032252
:101A5000132002F075FF0AEB4A000119032210203F
:101A600002F06EFF4FF47A70B5FBF0F1C8B24FF49C
:101A70007A7202FB1151B1FBF6F101F0FF0AB5FBDE
:101A8000F6F106FB1151B1FBF7F9B5FBF7F107FBD6
:101A900011550DAC04EB400102220C2002F050FF66
:101AA00004EB4A0102220A2002F04AFF04EB49013A
:101AB0000222082002F044FF12A800EB4501022296
:101AC0000E2002F03DFFB8FBF6F1C8B206FB118113
:101AD000B1FBF7F5B8FBF7F107FB118408AE06EB95
:101AE00040010222104602F02BFF06EB45010222C4
:101AF000042002F025FF06EB44010222062002F03A
:101B00001FFF17B0BDE8F08F0605060600000407AA
:101B10000206070006020402070402070606040084
:101B200006070606070400000A0F0006060D040F4C
:101B30000C060C0B0E0B000E0E0F0C0F0F05060003
:101B40000B060F0206030D030D0707000F070F0317
:101B5000050F0006060B020F0306030D070D000715
:101B6000070F030F2DE9F04F97B004460D4690463E
:101B700020224BA16846FFF763FA142250A108A85F
:101B8000FFF75EFA142253A10DA8FFF759FA1422A9
:101B900055A112A8FFF754FA0121062002F0F6FE23
:101BA00008210E2002F0F2FE0121122002F0EEFECA
:101BB00002211C2002F0EAFE4FF47A72B4FBF2F12B
:101BC000C8B202FB11416426B1FBF6F101F0FF0B34
:101BD000B4FBF6F106FB11410A27B1FBF7F9B4FBA0
:101BE000F7F107FB114A00EB40006C460119032294
:101BF000192002F0A5FE0BEB4B0001190322162061
:101C000002F09EFE09EB490001190322132002F0A5
:101C100097FE0AEB4A0001190322102002F090FE01
:101C2000B5FBF6F1C8B206FB1151B1FBF7F9B5FBF4
:101C3000F7F107FB11540DAD05EB400102220A201C
:101C400002F07EFE05EB49010222082002F078FE38
:101C500012A800EB440102220E2002F071FEB8FB34
:101C6000F6F1C8B206FB1181B1FBF7F5B8FBF7F14D
:101C700007FB118408AE06EB40010222104602F079
:101C80005FFE06EB45010222042002F059FE06EB3E
:101C900044010222062002F053FE17B0BDE8F08F87
:101CA00006050606000004070206070006020402F5
:101CB00007040207060604000607060607040000DC
:101CC0000A0F0006060D040F0C060C0B0E0B000E7F
:101CD0000E0F0C0F0F0506000B060F0206030D0377
:101CE0000D0707000F070F03050F0006060B020F75
:101CF0000306030D070D0007070F030F1CB5012195
:101D0000022002F011FA4FF43870009001208DF893
:101D1000040000208DF806000220124C8DF805000A
:101D200069462046FFF7E0FC61152046FFF733FDCA
:101D300020212046FFF72FFD40212046FFF72BFDF5
:101D400080212046FFF727FD022002F05FFB2920BB
:101D500002F05CFB012002F059FB032002F056FB6D
:101D60001CBD000000040240FEE700007CB5134EDD
:101D70004FF4005529463046FFF70BFD01208DF842
:101D8000040002206C008DF805000094694630467E
:101D9000FFF7AAFC21463046FFF7FBFC022006F0C5
:101DA0002FFD29463046FFF7F6FC022006F028FDFD
:101DB00029463046FFF7EDFC7CBD000000040240E0
:101DC0001CB50121022002F0AFF94FF4E040009071
:101DD00001208DF8040002200A4C8DF805006946A8
:101DE0002046FFF781FCA1142046FFF7D2FC4FF4F8
:101DF00000512046FFF7CFFC4FF480412046FFF70B
:101E0000CAFC1CBD000402407CB5134E4FF40055C3
:101E100029463046FFF7BDFC01208DF80400022062
:101E20006C008DF80500009469463046FFF75CFCB5
:101E300021463046FFF7AFFC022006F0E1FC2946C0
:101E40003046FFF7A8FC022006F0DAFC29463046AF
:101E5000FFF79FFC7CBD0000000402402DE9FC4719
:101E600000241B4E80464FF480478DF804400097B5
:101E70008DF8074069463046FFF736FC0025B94625
:101E80007F1039463046FFF784FC022006F0B8FC8C
:101E900039463046FFF77FFC6006040E494630465F
:101EA000FFF770FC08B1641CE4B2012006F0A8FC46
:101EB0006D1CEDB2082DE4D3B8F1000F04D0FFF78C
:101EC00055FF2046BDE8FC87FFF79EFFF9E70000BD
:101ED000000402402DE9FC47054601208DF804006E
:101EE00002201A4E4FF480478DF80500009769468E
:101EF0003046FFF7F9FB4FF4005841463046FFF7F4
:101F000048FCB9460024474628064946304602D4D4
:101F1000FFF73FFC01E0FFF73EFC6806050E0220DC
:101F200006F06EFC39463046FFF735FC022006F01D
:101F300067FC39463046FFF72CFC022006F060FCB7
:101F4000641CE4B2082CDFD3BDE8FC870004024027
:101F50007CB501208DF804000220114D4FF480441F
:101F60008DF80500009469462846FFF7BDFB214621
:101F70002846FFF710FC661031462846FFF70BFC99
:101F8000032006F03DFC21462846FFF702FC032013
:101F900006F036FC31462846FFF7FBFB7CBD00000F
:101FA000000402407CB501208DF804000220114D90
:101FB0004FF480448DF80500009469462846FFF7E9
:101FC00093FB661031462846FFF7E3FB214628467F
:101FD000FFF7DFFB032006F013FC31462846FFF72E
:101FE000DAFB21462846FFF7D6FB032006F008FC63
:101FF0007CBD0000000402402DE9FC410024184E85
:102000004FF480458DF8044000958DF807406946EF
:102010003046FFF769FB29463046FFF7BCFB01203D
:1020200006F0EEFB6F1039463046FFF7B4FB012097
:1020300006F0E6FB08E0641CE4B2FA2C04D9FFF7D2
:10204000B1FF0120BDE8FC8129463046FFF79AFB2D
:102050000028F0D139463046FFF79BFB0020F1E71E
:10206000000402402DE9F0479CB001215E4802F0D7
:102070005BF801214FF4E06002F07AF84FF08060E5
:1020800000905A4801900125594802A9002431C105
:1020900006A8EE026F034FF480784FF400390594E0
:1020A000A0E8D003CDE90B45DFF848A10D946946BF
:1020B00050460E94FFF7C0FA01215046FFF7B1FADF
:1020C0004D4802A9CDE900404948DFF828A1801C0D
:1020D00031C106A80594A0E8D003CDE90B45AAF1CB
:1020E000180A0D94694650460E94FFF7A5FA01218F
:1020F0005046FFF796FA68060090404801903C4829
:1021000002A9001D31C106A80594A0E8D003394EEC
:10211000CDE90B4518360D94694630460E94FFF70D
:102120008BFA01213046FFF77CFA3F2003261590F9
:102130008DF858608DF85B4015A93148FFF7D4FA47
:10214000922015908DF858608DF85B4015A92D48A8
:10215000FFF7CAFA17941894199417A81A94FFF75E
:10216000C1F80F948DF84040119413941F4C8DF8D2
:1021700041504C3C8DF850500FA92046FFF7DEF837
:102180001E4D0FA94C3D2846FFF7D8F81A4E0FA94F
:102190004C3E3046FFF7D2F801212046FFF7C4F845
:1021A00001212846FFF7C0F801213046FFF7BCF8AF
:1021B00001212046FFF7AEF801212846FFF7AAF8D3
:1021C00001213046FFF7A6F801212046FFF780F8ED
:1021D00001212846FFF77CF801213046FFF778F807
:1021E0001CB0BDE8F0870000050040004C22014013
:1021F00008000020286402404C2001404C2101408E
:1022000000080240000002401CB50121082001F036
:102210008BFF4FF4FE40009000208DF804006946CB
:102220000148FFF761FA1CBD000C0240FEE7704751
:102230004FF4A06000F032B870B50F21C478027876
:1022400001234FF0E026E4B1124C246804F4E0646A
:10225000C4F5E064C4F30724C4F10405E140447804
:10226000AC4085780D4025430B4C29011155007871
:1022700000F01F018B40400906EB8000C0F80031E0
:1022800070BD02F01F008340500906EB8000C0F8CB
:10229000803170BD0CED00E000E400E0024908432D
:1022A00002490860704700000000FA050CED00E0EC
:1022B0007047000070B505000E46144605D036B1D3
:1022C0000E48807828B112200DE004200BE00C208D
:1022D00009E02878012808D0022806D0032804D075
:1022E000042802D00120107070BDFDF7BDFF6E61A3
:1022F000FDF7BEFF0020207070BD000050000020E0
:1023000030B587B000F070F82A4800240463847068
:10231000C4700472C471C460C46184614461447057
:102320008471214600F134025454491CC9B2082971
:10233000FAD3047144718462046201F049F801F037
:102340001BF800F0F3FF01F085F801F0A9F802AAEC
:102350000325202031C218494FF6FF70CDE9000156
:1023600001F17C023F230021144800F09FFA05AAE6
:1023700013A13F2000F0F8FA02AA402031C214490C
:102380004FF6FE70CDE9000101F1FC023E23002171
:10239000104800F08BFA05AA0FA13E2000F0E4FAE5
:1023A00000F090FC00F026F807B0BDE83040FFF7E1
:1023B0007FBF0000500000200CAE00205D360008FA
:1023C00075432F4F532D49492049646C6500000027
:1023D0000CAD00207936000875432F4F532D494925
:1023E0002053746174000000014900200880704788
:1023F0004C000020704700000449C879012804D12E
:102400008878FF2801D2401C887070475000002057
:1024100070B5144DE879012822D1FDF725FF044657
:10242000A87820B1401E10F0FF00A87013D1E87802
:1024300088B901F079F80C48697950F82100A86250
:102440002A79914207D0C16B491CC163E868401CDE
:10245000E860FDF725FF2046BDE87040FDF708BFA6
:1024600070BD0000500000208CAE002070B5054605
:102470000E48007808B1002070BDFDF7F5FE01465A
:102480000B4804680CB1626802600846FDF7F0FE74
:102490004CB1012020700020208106A065606061A1
:1024A000204600F039FF204670BD00005200002099
:1024B000600000203F0000002DE9F047050088463D
:1024C000144604D02878012803D001200AE0042013
:1024D00008E02C48007808B1022003E02A48007880
:1024E00020B10D2010700020BDE8F087FDF7BCFE84
:1024F0006E68074600213EB1884638466960FDF7A0
:10250000B7FE84F800803AE0DFF880A08946DAF868
:10251000000010F8342F42F002020270417040F8BF
:10252000048C284600F0CAFE3846FDF7A1FE00F0F4
:10253000D7FFFDF799FE0746DAF8000090F835104E
:1025400031B1022908D0294600F088FE0A2004E0B3
:10255000466A84F8009001E00E202070DAF800103E
:10256000384601F11C0181F8189081F81990C1F8E2
:102570000090C1F80490C1F80890FDF779FE30464C
:10258000B2E700005200002053000020700000203D
:1025900070B504000D4605D035B12078012805D06E
:1025A000012070BD042070BD032070BDFDF75CFEEE
:1025B0000646A07A58B1002302222946204600F0A0
:1025C00011FE3046FDF754FE00F08AFF0AE0606815
:1025D00020B13046FDF74CFE142070BD30466560DA
:1025E000FDF746FE002070BD10B5094CE0790128CA
:1025F0000CD1FDF739FEA17821B9E178FF2901D28C
:10260000491CE170BDE81040FDF732BE10BD00006E
:102610005000002010B50D4CE079012814D1FDF7D1
:1026200023FEE17831B1491E11F0FF01E17001D1C3
:10263000A17819B1BDE81040FDF71ABEFDF718FEEC
:10264000BDE8104000F04CBF10BD0000500000205D
:1026500070B505460E48007808B1002070BDFDF742
:1026600003FE01460B4804680CB16268026008462C
:10267000FDF7FEFD4CB10320207025810020606035
:1026800005A06061204600F047FE204670BD0000B6
:1026900052000020600000203F0000002DE9F047BC
:1026A00005008846144604D02878032803D001206A
:1026B0000AE0042008E02648007808B1022003E080
:1026C0002448007818B10D201070BDE8F087FDF7A0
:1026D000CBFD06462889002730B1401E28813046B0
:1026E000FDF7C6FD2770F0E7DFF86C90D9F8000021
:1026F00010F8341F41F001010170477040F8048C5C
:10270000284600F0DBFD3046FDF7B2FD00F0E8FEA4
:10271000FDF7AAFD0646D9F8000090F8351031B152
:10272000022906D0294600F099FD0A2002E0277010
:1027300001E00E202070D9F8000000F11C0007769F
:102740004776076047603046BDE8F047FDF790BD2B
:1027500052000020530000207000002070B50400DB
:1027600004D02078032803D0012070BD042070BD60
:10277000FDF77AFD0546A07A58B1002301221946DB
:10278000204600F02FFD2846FDF772FD00F0A8FE60
:1027900009E020894FF6FF71884206D2401C208153
:1027A0002846FDF765FD002070BD2846FDF760FD59
:1027B000332070BD10B5094CE07900280CD100F031
:1027C000B3FE60790649207151F82000A0622062B2
:1027D000BDE81040FDF74FBD10BD000050000020C7
:1027E0008CAE002010B5022000F0C6F9FDF73CFDCC
:1027F000084C0021E161FDF73BFD642000F0BCF9CD
:10280000FDF732FDE169616101216170BDE81040B1
:10281000FDF72EBD50000020FEF719BE2DE9FE4346
:1028200005460F4690461C463F2B02D92A20BDE89C
:10283000FE83FDF719FD1A49097819B1FDF718FD56
:102840003C20F4E7174E56F8241019B1FDF710FD9F
:102850002820ECE7012146F82410FDF709FD0023AC
:1028600042463946284600F0FBF80027014600970B
:1028700001973B463A462046029700F065FE050068
:1028800007D0FDF7F1FC46F82470FDF7F1FC28466F
:10289000CDE7054800780128F9D100F021FEF6E7E0
:1028A000520000208CAE0020570000202DE9F04F90
:1028B00081462DED028B83B08A46DDE90F879DEDC1
:1028C000118A129D93461C463F2B05D92A2003B03E
:1028D000BDEC028BBDE8F08FFDF7C6FC1D49097801
:1028E00019B1FDF7C5FC3C20F1E71B4E56F824104A
:1028F00019B1FDF7BDFC2820E9E7012146F82410B5
:10290000FDF7B6FC2A463946404600F0FDFE2B4650
:102910005A465146484600F0A3F800978DED018ACB
:1029200001460295424620460E9B00F00DFE050032
:1029300008D0FDF799FC002146F82410FDF798FC1B
:102940002846C4E7054800780128F9D100F0C8FD01
:10295000F6E70000520000208CAE00205700002057
:10296000FEF7C2BDFEF7C2BD70B505460E46144661
:102970003F2803D9FF2D01D02A2004E02EB11248B0
:10298000007820B11220107070BD0C20FBE7FDF71D
:102990006BFC0146FF2D03D10C48006890F83650BF
:1029A0000B4850F82500432540B1012806D00665A4
:1029B0000846FDF75DFC0020207070BD0846FDF75D
:1029C00057FC257070BD00005200002070000020F0
:1029D0008CAE0020FEF7CEBD2DE9F04104460D4639
:1029E0003F2804D9FF2C02D02A20BDE8F08145B150
:1029F000002028606860FDF737FC0146FF2C02D0FC
:102A000005E00920F1E71448006890F836401348C3
:102A100050F8240058B1012809D0028AD2070BD0FF
:102A2000D0E9024700260846FDF722FC0AE00846E6
:102A3000FDF71EFC4320D8E70846FDF719FC4520AA
:102A4000D3E7761C01CC0028FBD0B0002860B81B6F
:102A5000800068600020C8E7700000208CAE002075
:102A60004FF080731360131F18606FF0010042F87D
:102A7000080CA2F138004FF012334FF00332C0E9D6
:102A80000A234FF0023242624FF00132C0E90712CE
:102A90004FF0113181614FF0103141614FF0093138
:102AA00001614FF00831C1604FF0073181604FF094
:102AB000063141604FF0053140F804194FF0043100
:102AC0000160704770B5274D04463F2804D005D3F8
:102AD000FF280CD02A2070BD472070BDFDF7C4FB35
:102AE0000346286890F83600A04206D007E0FDF7BC
:102AF000BBFB0346286890F83640012500E000251E
:102B0000194850F8240068B1012810D090F83820F6
:102B1000164C90F83960A15CF643F6B23140A154EE
:102B20000AD010E01846FDF7A3FB482070BD1846F8
:102B3000FDF79EFB432070BD0D4A90F83A101478C3
:102B400024EA0101117010F8341F41F008010170EE
:102B50001846FDF78DFB012D01D100F0C1FC0020CE
:102B600070BD0000700000208CAE002084000020AA
:102B700056000020FEF7FFBC70B5044614480078EC
:102B8000002824D113480078002820D1002C1ED022
:102B9000FDF76AFB03461048104D006890F83810A6
:102BA00090F839606A5CF643F6B232406A5406D156
:102BB0000B4A90F83A10157825EA01011170046368
:102BC0001846FDF755FBBDE8704000F089BC70BDAC
:102BD00052000020530000207000002084000020DC
:102BE000560000202DE9F04100F052F8FDF73CFBC3
:102BF000264D296B491C2963FDF73AFBE87901282A
:102C000041D1687A0126002720B101283BD0022853
:102C100002D06F72EC6A32E06E72FBE7FDF724FBC4
:102C2000216B49B3491E216326D194F8341011F069
:102C3000370F06D001F0C80184F8341084F83560ED
:102C400001E084F8357094F83410090714D404F1C5
:102C50003804AA79A178DFF834C041EA0201A971E9
:102C600021780CF1340C63781CF80120A4F13804AD
:102C700042EA03020CF801206469FDF7F9FA94F8BE
:102C800036003F28CAD1BDE8F08100005000002086
:102C900010B5FEF7B3FC07480188491C89B20180D2
:102CA000642905D300210180BDE8104000F004B87C
:102CB00010BD00004C00002001480068FFF74EBD29
:102CC000A400002070B588B04FF420712E4800F0A9
:102CD000B7FB40212D4800F0B3FB00202A490446F1
:102CE0006422431C00EB80001D4601EBC0009BB238
:102CF00003EB8303027001EBC30380F82540C3603C
:102D000023A30362A8B20F28EBD300EB800001EBF2
:102D1000C000027080F825401DA2C46002621D48F8
:102D20001E4A04601C480480102010801C4801606A
:102D30000120FFF78DFC1B4D28600020FFF788FC69
:102D4000194E05AA19A130602868FFF7B3FA05AA41
:102D50001BA13068FFF7AEFA402102910320CDE9B4
:102D600003401C4A4FF6FD70CDE900023D23FC32C2
:102D700000211948FFF79AFD06AA18A13D20FFF788
:102D8000F3FD08B070BD000044B80020C4BB0020B3
:102D90003F0000009C0000209A00002098000020C6
:102DA000A8000020A0000020A400002075432F4FA1
:102DB000532D494920546D724C6F636B0000000025
:102DC00075432F4F532D494920546D725369676ED7
:102DD000616C0000C4BA0020352E000875432F4FE7
:102DE000532D494920546D7200000000032280F8E1
:102DF00025200E4A0129126813D0816989B1114436
:102E000041610B4A01F0070102EBC10100230A688E
:102E1000086042B1C26010618A88521C8A800361D6
:102E20007047C169EBE70122C360F7E79C0000200F
:102E3000C4BB002008B5DFF86880DFF868901A4E40
:102E40006A460021D8F80000FFF728FCFFF7CCFB0A
:102E50003068401C306000F00700022759F830400D
:102E600013E061693068E56881420DD1204600F0C9
:102E70001DF894F8240002280CD084F825706268AC
:102E800012B12046A16890472C46002CE9D1FFF7EB
:102E9000C1FBD5E701212046FFF7A8FFEFE70000BF
:102EA000A4000020C4BB00209C00002010B5416994
:102EB0000E4A01F0070102EBC10200231468C16849
:102EC000844203D1116041B10B6106E0D0F810C01B
:102ED000CCF80C1009B1C1F810C0012180F8251000
:102EE000C36003619088401E908010BDC4BB002069
:102EF00070B5244C0025E169491CE1612146227826
:102F00008978062A0144C9B23AD2DFE802F0030AFE
:102F10000E1D2D31ED2803D101202070E5702571A3
:102F200070BD8C282CD102200CE020B1002180281B
:102F300002D9012201E001210022114320D1A07019
:102F400060700320207070BDE278802A03D20E4B9F
:102F50009854521CE270A1706078401E10F0FF007F
:102F60006070F0D10420EDE7A17049B90520E9E7D0
:102F70008D2805D16089401C6081A06AFFF7EEFBB7
:102F8000257070BDAC00002004BC002070B5FDF7BA
:102F9000C1F9144A1178491C1170FDF7BFF9124CA0
:102FA00040F225552946204601F02DFC48B1204627
:102FB00001F0BCFCC0B2FFF79BFF2946204601F0A0
:102FC0000BFC40F227752946204601F01CFC28B175
:102FD00000F048F82946204601F0FEFBBDE87040AD
:102FE000FFF716BA520000200048004010B5044612
:102FF00000F018F860640020206410BD10B500F0E7
:1030000011F805490968D1E91023C31A1A440A6462
:1030100002490968486410BD700000207800002053
:10302000AFF3008070B5FDF71FF9054600F010F80A
:1030300006490A890881821A886992B2841828464A
:103040008C61FDF715F9204670BD0000AC00002032
:103050004FF0804001F00BBB0146014801F06ABC13
:10306000004800402DE9F0414A4F04263846BB791C
:103070008189828A0025C089092B73D2DFE803F099
:103080000518252F737B44505C0011430BD08C2016
:10309000FFF7E2FF386A401C38620120F871B8710E
:1030A000FD81BDE8F081FD71BDE8F04100F076B82A
:1030B000ED20FFF7D1FF386A401C3862B88908B1AB
:1030C000022000E00620B871EBE7C8B2FFF7C4FFAA
:1030D000386A401C38620320B871B8892AE02E494A
:1030E0000C5C2046FFF7B8FF386A401C38627879DC
:1030F00020447871F889401C80B2F881B9898842EF
:10310000CFD3BE71BD81CCE7521CD0B2FFF7A4FF74
:10311000386A401C38620720B871B88A401C09E040
:103120004320FFF799FF386A401C38620820B871C5
:10313000787943307871B4E7174980310C5C2046C8
:10314000FFF78AFF386A401C38627879204478712A
:10315000F889401C80B2F881B98A8842A1D3BE7137
:10316000BD829EE713E07879FFF776FF386A401C4E
:1031700038620520A7E78D20FFF76EFF386A401CF4
:103180003862BD713D82788A401C788289E7BD71C2
:1031900089E70000AC00002084BC0020002240F23F
:1031A0002771014801F04EBB004800400B484FF426
:1031B0007A710068B0FBF1F0B0F1807F0DD220F0A1
:1031C0007F414FF0E020491E4161054AF021117016
:1031D00000218161072101617047FEE7280000207E
:1031E00023ED00E0F0B50546807A194C4FF000075A
:1031F000205C05EB0006F67AA45D04EBC004E6B2A1
:10320000144C54F8264004F12404E7602160217C2A
:1032100021EA020121746374A4F1240409070BD488
:103220000D4994F83A208B791A438A71343194F815
:1032300039300A5C1A430A542946204600F00EF839
:10324000216A19B1204600F01BF8E5613046F0BD57
:10325000609F00088CAE00205000002010B590F850
:10326000382090F839408B18E443DA7AE4B22240EF
:10327000DA7204D18A7A90F83A0082438A7210BDD9
:1032800030B510F8383F827890F801C0D2436FEA29
:103290000C04E4B2D5B208680DE000BF00EB030CEB
:1032A0009CF80B2022408CF80B2002D1827A2A4015
:1032B000827251F8040F0028F0D130BD30B51549A5
:1032C00000F10B020B6AD86193F838C093F83930DB
:1032D0001CF802401C430CF802400A6A837A02F18F
:1032E0003802947843EA04038372137801F13404BA
:1032F0005578E05C6FEA0505EDB22840A2F138028E
:10330000E05405D192F83A008A7922EA00008871E7
:1033100030BD000050000020002282721146431888
:10332000491CC9B2DA720829F9D3704710B5502187
:103330000E4800F085F800200C4A0146431C1C464C
:1033400002EB00109BB202EB03130170436008A371
:10335000C360A0B20428F1D302EB001001704160F9
:1033600003A1C1600348026010BD00001CB700202B
:103370003F0000008C00002010B54FF4F0711148A0
:1033800000F05EF800200F4A0146431C1C4600EB8B
:1033900040009BB202EBC00003EB430302EBC3030C
:1033A0000170436008A34361A0B21328EDD300EB82
:1033B000400002EBC0000170416003A1416103487D
:1033C000026110BD2CAB00203F0000005000002027
:1033D00010B54FF4F261164800F032F84FF48071E6
:1033E000144800F02DF812490020421C00EB400464
:1033F00004EBC000D3B203EB430401EBC00004EBC9
:10340000C30301EBC30343610BA30365D0B21528CB
:10341000EBD300EB400202EBC00001EBC00006A3BF
:103420000022036542610548C262416210BD00008E
:103430008CAF00208CAE00203F0000005000002028
:10344000002203E0491E00F8012B89B20029F9D1BE
:103450007047000010B578210E48FFF7F1FF0D4AC4
:10346000002000BF00EB400102EBC10101F1180395
:103470004B60401C08A380B24B610428F2D300EBE0
:10348000400002EBC0000021416003A141610348FC
:10349000026010BD6CB700203F00000090000020CB
:1034A00010B560210C48FFF7CBFF0B4A0020411CF0
:1034B0008BB200EB400003EB430302EBC30342F883
:1034C000303088B20328F2D300EB4000002142F8EC
:1034D00030100248026010BDE4B7002094000020C4
:1034E00070B5FCF7C1FE0E4D0446A87898B9E8788F
:1034F00088B900F019F80B48697950F82100A862E2
:103500002A79914207D0C16B491CC163E868401C0D
:10351000E860FCF7C0FE2046BDE87040FCF7A8BE9E
:10352000500000208CAE00200649054A01F134030A
:103530008879105C1B5CD25C02EBC000487170475C
:10354000609F0008500000202DE9F04705462DED52
:10355000028B0E4690469946DDED0A8A9DED0B8A58
:10356000DDF830A0FCF780FE394F7C6A002C6BD070
:1035700061697962FCF77CFE266084F8365000268B
:1035800084F8346084F83560266384ED018AC4EDE4
:10359000038A04F11C044FEAD50244F8148C24F881
:1035A0000CAC24F80A9CE677227705F007014FF06F
:1035B000010000FA02F2E176A27700FA01F06077EA
:1035C00026606660E660A6602662A662666221A04A
:1035D000E662C4E90C60A4F11C04304604EB8001EF
:1035E00000F101004E6510F0FF00F7D02046FFF714
:1035F00013F92046FFF7B4F9FCF736FE01461648EA
:1036000040F82540F86AC4E9050600B18461FC620F
:1036100004F13804BA79A07840EA0200B8710C4885
:10362000227800F134006478835C43EA0403835415
:10363000387A00F1010038720846FCF719FE0020C4
:10364000BDEC028BBDE8F087FCF712FE4220F7E7E5
:10365000500000203F0000008CAE0020054C00BF51
:10366000FCF702FEE169491CE161FCF701FEFFF78E
:1036700079F9F5E750000020144C02E0C820FFF76C
:103680007BFA60780028F9D0642160690025B0FBDE
:10369000F1F0606118B92570FF20FFF713FAFCF70D
:1036A000E3FDE169C4E90615FCF7E2FDD4E9051084
:1036B000B0FBF1F0C0F164002070FFF78BF900F06F
:1036C00007F86420FFF758FAE9E7000050000020EF
:1036D0007CB50C4D002469462046FFF77DF958B9AA
:1036E00055F8240040B1012806D0D0E9021201EBC0
:1036F000820181640199C164641CE4B23F2CEAD95F
:103700007CBD00008CAE0020D30707D0920705D502
:103710000022002902D004C0491EFAE770470000C9
:103720002DE9F04FBBB01422E5A16846FDF788FCF7
:103730001422E8A105A8FDF783FC2022EAA10AA82B
:10374000FDF77EFC1422F0A11DA8FDF779FC2022D4
:10375000F2A112A8FDF774FC2022F8A122A8FDF71F
:103760006FFCFEA04FF48074D0E90010CDE92A1060
:10377000FCA1D1E90001CDE92C01FCA021460068A3
:103780001C90FBA000683190FAA000682E90FAA06F
:1037900000682F90F9A000683290F9A0006833907B
:1037A000F8A000683490F8A000683590F7A0006891
:1037B0003690F7A000683090F6A00068F64D37907C
:1037C0002846FDF7DFFFF54F68B93878401C3870A0
:1037D00021462846FDF7D6FF0028F9D038780B2877
:1037E00001D90020387038780A26ED4CEB464FF0AE
:1037F00064084FF480494FF4805A0C287ED2DFE8E9
:1038000000F07D0665C5FEFDFCFBFAF9F8F7FDF753
:10381000F8FE2078012804D103221CA91D2001F004
:103820008FF8207820B9032231A91D2001F088F8F3
:10383000B8893146B0FBF8F3DAB208FB1303B3FBE7
:10384000F1F4B0FBF6F3B04606FB13060BEB4201B6
:1038500002220A2001F074F80BEB44010222082036
:1038600001F06EF805A800EB460102220E2001F0DF
:1038700067F84C4649462846FDF784FF70B9B88979
:10388000401CB88121462846FDF77CFF0028F9D06E
:10389000B9894FF49660814200D9B88154465146A7
:1038A0002846FDF76FFF00280DD1B889401EB8816A
:1038B00021462846FDF766FF0028F9D0B8890A2876
:1038C00001D2A7F80C803BB0BDE8F08FFDF799FE60
:1038D0002078012804D103221CA91D2001F030F812
:1038E000207820B903222EA91D2001F029F80821F3
:1038F000132001F04BF8B978642200E0FEE3B1FB3D
:10390000F2F002FB1012B2FBF6F8B1FBF6F206FB86
:1039100012140BEB400102220A2001F011F80BEB0C
:1039200048010222082001F00BF805A800EB440131
:1039300002220E2001F004F84C4649462846FDF7C5
:1039400021FF68B9B878401CB87021462846FDF7B9
:1039500019FF0028F9D0B878642801D96420B8701C
:10396000544651462846FDF70DFF0028ABD1B878E4
:10397000401EB87021462846FDF704FF0028F9D004
:10398000B87800289FD10120B8709CE7FDF739FE78
:103990002078012804D103221CA91D2000F0D0FFAB
:1039A000207820B903222EA91D2000F0C9FF08218C
:1039B000102000F0EBFFF978B1FBF8F008FB1012D3
:1039C000B2FBF6F4B1FBF6F206FB12160BEB40016C
:1039D00002220A2000F0B4FF0BEB4401022208206F
:1039E00000F0AEFF05A800EB460102220E2007E022
:1039F00040E3DAE274E226E2D2E163E100E12BE0A7
:103A000000F09EFF4C4649462846FDF7BBFE68B9CC
:103A1000F878401CF87021462846FDF7B3FE0028D0
:103A2000F9D0F878642801D987F8038054465146C4
:103A30002846FDF7A7FE0028A7D1F878401EF870A9
:103A400021462846FDF79EFE0028F9D0F878002888
:103A50009BD10120F87036E7FDF7D3FD20780128CF
:103A600004D103221CA91D2000F06AFF207820B990
:103A700003222FA91D2000F063FF3979C346B1FB53
:103A8000F8F008FB1012B2FBF6F8B1FBF6F206FBF9
:103A9000121400EB40010AA801440322192000F08F
:103AA0004FFF08EB480112A801440322162000F042
:103AB00047FF04EB440022A901440322132071E0D4
:103AC0000F0506000B060F0206030D030D07070086
:103AD0000F070F03050F0006060B020F0306030D69
:103AE000070D0007070F030F060506060000040771
:103AF0000206070006020402070402070606040085
:103B000006070606070400000D0F08060E0B0A0F35
:103B10000B060B0D0F0D08070F0F0B0F0605070601
:103B20000001040703060701060205020705020754
:103B30000706040106070706070500000E05060E26
:103B400000000C07020E07000E02040A07040A0711
:103B5000060E04000E07060E070400000602060605
:103B6000010600000602060000060000030F0D001B
:103B7000010F0D00020F0D00030E0D00030D0D00CF
:103B800003070D0003070500030F050003030500ED
:103B9000030F0900030F0C00000C0240DC000020A2
:103BA0000200002000F0CCFE4C4649462846FDF7B6
:103BB000E9FD68B93879401C387121462846FDF77F
:103BC000E1FD0028F9D03879642801D987F804B0DC
:103BD000544651462846FDF7D5FD00287FF4D5AE62
:103BE0003879401E387121462846FDF7CBFD002864
:103BF000F9D038795028BFF4C8AE5020387162E649
:103C0000FDF7FFFC2078012804D103221CA91D2008
:103C100000F096FE207820B903222FA91D2000F085
:103C20008FFE0821102000F0B1FE7979C346B1FB68
:103C3000F8F008FB1012B2FBF6F8B1FBF6F206FB47
:103C4000121400EB40010AAE31440322192000F0A7
:103C500077FE08EB480112A801440322162000F069
:103C60006FFE04EB440131440322132000F068FE90
:103C70004C4649462846FDF785FD68B97879401CD1
:103C8000787121462846FDF77DFD0028F9D0787926
:103C9000642801D987F805B0544651462846FDF7F7
:103CA00071FD0028ABD17879401E787121462846F5
:103CB000FDF768FD0028F9D0787950289FD2502070
:103CC000787100E6FDF79DFC2078012804D10322DD
:103CD0001CA91D2000F034FE207820B9032232A94F
:103CE0001D2000F02DFEF889B0FBF8F308FB13014E
:103CF000B1FBF6F8B0FBF6F106FB1104DAB20BEB00
:103D0000420102220A2000F01BFE0BEB48010222B6
:103D1000082000F015FE05A800EB440102220E2049
:103D200000F00EFE4C4649462846FDF72BFDB8B97B
:103D3000F88910B94FF4C870F88180B2A0F5C87145
:103D4000502901D20A30F88121462846FDF71AFD94
:103D50000028F9D0F889B0F5F57F01D30020F8816B
:103D6000544651462846FDF70DFD0028A9D1F88993
:103D700010B94FF4F070F88180B2A0F291114F2980
:103D800001D80A38F88121462846FDF7FBFC0028B7
:103D9000F9D0F889B0F5C37F93D80020F88192E577
:103DA000FDF72FFC2078012804D1032233A91D2020
:103DB00000F0C6FD207820B9032234A91D2000F0B0
:103DC000BFFDB9790222B1FBF6F006FB10140BEB34
:103DD0004001082000F0B4FD1DA800EB44010222C0
:103DE0000E2000F0ADFD4C4649462846FDF7CAFCC2
:103DF00098B90A2004F0E6FCB879401CB871214655
:103E00002846FDF7BFFC0028F9D00A2004F0DAFCB0
:103E1000B8790C2801D90220B87154465146284679
:103E2000FDF7B0FC0028BAD1B879401EB871214620
:103E30002846FDF7A7FC0028F9D0B8790228AED2B1
:103E40000C20B8713FE5FDF7DCFB2078012804D198
:103E5000032235A91D2000F073FD207820B903222C
:103E600036A91D2000F06CFDF9790222B1FBF6F0B5
:103E700006FB10140BEB4001082000F061FD1DA8AB
:103E800000EB440102220E2000F05AFD4C46494648
:103E90002846FDF777FC68B9F879401CF87121468F
:103EA0002846FDF76FFC0028F9D0F8790C2801D9D5
:103EB0000220F871544651462846FDF763FC00285D
:103EC000C0D1F879401EF87121462846FDF75AFC0A
:103ED0000028F9D0F8790228B4D20C20F871F2E465
:103EE000FDF78FFB2078012804D103221CA91D2097
:103EF00000F026FD207820B9032230A91D2000F013
:103F00001FFD03222AA9192000F01AFD03220DF13A
:103F1000AB01162000F014FD397A6422B1FBF2F0F7
:103F200002FB1012B2FBF6F8B1FBF6F206FB12141C
:103F30000BEB400102220A2000F002FD0BEB4801CE
:103F40000222082000F0FCFC05A800EB440102223C
:103F50000E2000F0F5FC4C4649462846FDF712FCC1
:103F600068B9387A401C387221462846FDF70AFCA9
:103F70000028F9D0387A642801D9002038725446D4
:103F800051462846FDF7FEFB0028A8D1387A401E8E
:103F9000387221462846FDF7F5FB0028F9D0387A1B
:103FA00000289CD1642038728DE4FDF72AFB20782C
:103FB000012804D103221CA91D2000F0C1FC207897
:103FC00020B9032230A91D2000F0BAFC03222CA93D
:103FD000192000F0B5FC03220DF1B301162000F00A
:103FE000AFFC797A6422B1FBF2F002FB1012B2FB53
:103FF000F6F8B1FBF6F206FB12140BEB40010222BD
:104000000A2000F09DFC0BEB48010222082000F082
:1040100097FC05A800EB440102220E2000F090FC62
:104020004C4649462846FDF7ADFB68B9787A401CF6
:10403000787221462846FDF7A5FB0028F9D0787A4A
:10404000642801D900207872544651462846FDF76D
:1040500099FB0028A8D1787A401E7872214628461C
:10406000FDF790FB0028F9D0787A00289CD16420D5
:10407000787228E4FDF7C5FA2078012804D10322DC
:104080001CA91D2000F05CFC207820B9032237A970
:104090001D2000F055FCB97AB1FBF8F008FB1012B6
:1040A000B2FBF6F8B1FBF6F206FB12140BEB400183
:1040B00002220A2000F044FC0BEB480102220820F7
:1040C00000F03EFC05A800EB440102220E2000F0A7
:1040D00037FC4C4649462846FDF754FB68B9B87A88
:1040E000401CB87221462846FDF74CFB0028F9D049
:1040F000B87AFA2801D9FA20B87200E010E05446E4
:1041000051462846FDF73EFB0028B2D1B87A401E42
:10411000B87221462846FDF735FB0028F9D034E473
:10412000FDF7DEFB31E40000044A0029116801D0EC
:10413000014300E0814311607047000030380240C5
:10414000044A0029116801D0014300E08143116055
:104150007047000040380240044A0029116801D02D
:10416000014300E0814311607047000020380240A5
:10417000044A0029116801D0014300E08143116025
:10418000704700004438024030B5224B1968224A7B
:1041900011F00C0104D05510042903D0082903D0D4
:1041A00002601DE005601BE01A49091F0C68C4F39A
:1041B000805C0C68BCF1000F04F03F0402D0B5FB3A
:1041C000F4F201E0B2FBF4F20C680968C4F388145D
:1041D0006243C1F30141491C4900B2FBF1F10160A6
:1041E00019680E4A01F0F0010909545C0168E140C8
:1041F00041601C6804F4E054A40A145D21FA04F43C
:1042000084601B6803F460435B0BD25CD140C160E7
:1042100030BD0000083802400024F4003C000020BB
:104220002DE9F04F804687B001210320FFF77CFF86
:104230004FF4003A01215046FFF782FF01268DF826
:1042400004600024DFF8D8B04FF400478DF8064032
:10425000022500978DF8055069465846FDF744FA47
:10426000DFF8C090072202214846FDF77BFA0722BB
:1042700003214846FDF776FA8DF8045004208DF8A6
:10428000064000908DF805508DF807606946484655
:10429000FDF72AFA082000908DF804508DF80740A9
:1042A00069464846FDF720FA01215046FFF754FFC2
:1042B00000215046FFF750FFADF810400C201A4D7A
:1042C000ADF80C40ADF81200CDF80880ADF80E4006
:1042D000ADF8144002A9284600F0CCFA4FF4A060D3
:1042E000FDF7DCFF26208DF818008DF819408DF8B9
:1042F0001A408DF81B6006A8FDF79EFF012240F2D0
:104300002551284600F09EFA0121284600F06AFA5D
:1043100039465846FDF73DFA07B0BDE8F08F00007A
:104320000004024000000240004400402DE9FC4728
:10433000804601208DF804000027DFF86CA04FF4C0
:1043400000498DF8067002200D468DF805004C4698
:10435000CDF80090694656465046FDF7C5F921460E
:104360003046FDF718FA0024104E0CE0402130468C
:1043700000F042FA0028F9D018F80410304600F096
:10438000D9FA641CE4B2AC42F0D34021304600F0CC
:1043900033FA0028F9D00648494607705046FDF721
:1043A000F8F9BDE8FC87000000040240004400402A
:1043B00000000020704700002DE9F04105460E4640
:1043C0000024114F1BE028064FF04001384602D46C
:1043D000FDF7DFF901E0FDF7DEF980213846FDF752
:1043E000D8F9012004F00CFA80213846FDF7D3F902
:1043F000012004F005FA6806050E641CE4B2B4421C
:10440000E1D3BDE8F08100000004024070B50A4D20
:10441000044620212846FDF7BCF903218020FFF740
:10442000CBFF09212046FFF7C7FF2846BDE87040B3
:104430002021FDF7B0B90000000402402DE9F04151
:1044400005460E460024104F17E0E8074FF04001E4
:10445000384616D0FDF79FF980213846FDF799F9C7
:10446000012004F0CDF980213846FDF794F90120B0
:1044700004F0C6F96D08641CE4B2B442E5D3BDE8AB
:10448000F081FDF786F9E7E70004024022490020A9
:104490000A6842F480320A604FF4A0630A6800F1AF
:1044A000010012F4003F01D19842F7D1086880035F
:1044B00031D519484030026842F0805202601748F6
:1044C000026842F4804202601348083002680260C9
:1044D000026842F400420260026842F4A0520260A4
:1044E000031F0F4A1A600A6842F080720A600A6865
:1044F0009201FCD50B4A40F205611160016821F080
:1045000003010160016841F0020101600168C1F32B
:1045100081010229FAD17047003802400070004042
:1045200008544007003C02404FF0E021042808698D
:1045300003D020F004000861704740F00400FAE75F
:1045400010B5FBF791FE064A1178491C1170FBF774
:104550008FFEFEF747FBBDE81040FDF759BF000096
:1045600052000020124810B5016841F4700101604A
:104570001048016841F0010101600E4A0021083233
:10458000116002680C4B1A400260031D0B4A1A604E
:10459000026822F48022026006480C300160FFF7B6
:1045A00075FF03494FF000608039086010BD0000BE
:1045B00088ED00E000380240FFFFF6FE10300024D6
:1045C00010B5FDF719FF01218C07204600F051F8C6
:1045D00040B10749887848B1002088700121204601
:1045E00000F038F8BDE81040FDF712BF0120F4E7F5
:1045F000000000207FB50D46044601210846FFF764
:104600009FFD00200194ADF80050ADF80800ADF812
:1046100002004FF080446946204600F03DF8012238
:104620001146204600F030F84FF4A060FDF736FE4A
:104630001C208DF80C0001218DF80D108DF80E1046
:104640008DF80F1003A8FDF7F7FD0121204600F0BB
:1046500004F87FBDC943018270470029018802D058
:1046600041F0010101E021F0010101807047406A41
:104670007047038A002280890B4200EA010001D0C2
:1046800000B1012210467047002A828901D00A43F6
:1046900000E08A438281704730B50288174B184C7E
:1046A00098420DD0A0420BD0B0F1804F08D0154DEC
:1046B000A84205D0144DA84202D0144DA84204D1FE
:1046C00022F0700C4A8842EA0C02114DA84207D031
:1046D000104DA84204D022F4407C0A8942EA0C0220
:1046E00002804A68C2620A880285984201D0A042CC
:1046F00001D1897A01860121818230BD000001400B
:10470000000401400004004000080040000C00408C
:104710000010004000140040F0B591B0FBF7FAFD26
:10472000294A1178491C1170FBF7F8FD274C40F21B
:104730002551204600F067F8F0B3204600F0F6F867
:10474000234C01266D4621780DF80100491CC8B2A2
:104750002070684410F8010C242802D18DF8000064
:10476000267020780027284410F8010C3F2804D137
:10477000277029466069FDF70BFF2078284410F860
:10478000010C262802D18DF80000267020782844DC
:1047900010F8010C2A2812D127709DF80100232857
:1047A00003D16946A069FDF7F3FE9DF801002B28AF
:1047B00005D16946E06900E001E0FDF7E9FEFDF79B
:1047C00027FE11B0F0BD0000520000200044004060
:1047D00000000020FEF7DABB0A0A01219140C9431C
:1047E000018070470029818902D041F4005101E025
:1047F00021F40051818170470246002012880A424C
:1048000000D00120704770B501F01F06012200257D
:10481000C1F3421302FA06F4012B0FD0022B0FD082
:10482000838A4FEA11210088234202FA01F200EA4A
:10483000020001D000B10125284670BD8389F0E750
:10484000038AEEE7C1F3421301F01F0C012101FAC4
:104850000CF1012B07D0022B07D01430002A02687C
:1048600005D00A4304E00C30F8E71030F6E78A433D
:10487000026070477FB50446008A0D4620F440511F
:10488000E88808432082A08941F20C618843A98806
:104890002A8911436A8902431143A181A08A20F425
:1048A0004071A8890843A0826846FFF76DFC1D4847
:1048B000844202D01C48844201D1039800E002984F
:1048C000A1890904002900EBC00101EB001029684F
:1048D00002DA4FEA410101E04FEA8101B0FBF1F059
:1048E0006422B0FBF2F14FEA01114FEA11136FF0AD
:1048F00018056B4300EB8300A3891D044FF03203BE
:1049000006D503EBC000B0FBF2F000F0070005E0B5
:1049100003EB0010B0FBF2F000F00F000843208121
:104920007FBD000000100140001401408088C0F3EA
:1049300008007047C1F3080181807047FEE700005E
:104940002DE9F041104F04460D4616462021384609
:10495000FCF71FFF0321A020FFF72EFDA006000E8D
:104960000621FFF729FD002406E028780421FFF73F
:1049700065FD641CE4B26D1CB442F6D33846BDE854
:10498000F0412021FCF707BF0004024070B50D4E36
:1049900004460D4620213046FCF7FBFE0321A020F3
:1049A000FFF70AFDA006000E0621FFF705FD042112
:1049B0002846FFF743FD3046BDE870402021FCF754
:1049C000EABE00000004024003B4019841000098D0
:1049D00050EAC12018BF04204A0D18BF40F0010062
:1049E00040F2FF72B2EB515F08BF40F002000128B5
:1049F00008BF052002B0704770B59F482DED020B2F
:104A00002DED068B079D25F0004484421DDB9B485D
:104A1000844202DC0FD1069868B19DED060B53EC81
:104A2000102B51EC100B04F045FDBDEC068B02B0D1
:104A300041EC100B70BD002DCCBF9FED910B9FED95
:104A4000920BBDEC068B02B070BD9148844215DA22
:104A500090488442A8BF4FF0FF3440DA9DED060B2A
:104A600051EC100BFFF7B0FF042808BF00F0A8FAC4
:104A70009DED060BBDEC068B02B070BD9DED060BE7
:104A800051EC100B03F0D8FE41EC100B82488DED79
:104A9000060B9FED839B84423CDA834884421FDAF5
:104AA00000249FED83AB51EC100B53EC1A2B04F058
:104AB00001FD9DED060B41EC180B53EC1A2B51EC4C
:104AC000100B04F097FF53EC192B05F0D3F853ECBF
:104AD000182B04F0A3FD41EC100B8DED060B49E003
:104AE000012453EC192B51EC100B04F0E3FC9DED69
:104AF000060B41EC180B53EC192B51EC100B05F085
:104B0000B9F853EC182B04F089FD41EC100B8DED36
:104B1000060B2FE0684884421FDA02249FED68AB41
:104B200051EC100B53EC1A2B04F064FF53EC192BCF
:104B300004F0C0FC9DED060B41EC180B53EC1A2B56
:104B400051EC100B05F096F853EC182B04F066FDB1
:104B500041EC100B8DED060B0CE053EC102B0324F5
:104B60009FED590B51EC100B04F058FD41EC100B6C
:104B70008DED060B9DED060B53EC102B51EC100B3D
:104B800004F038FF41EC180B53EC182B04F032FF03
:104B900041EC190B4E480621B0EE490AF0EE690AC5
:104BA000784400F091F953EC182B51EC100B04F001
:104BB00021FF41EC180B4748B0EE490AF0EE690AB4
:104BC0000521784400F080F953EC192B51EC100BBF
:104BD00004F010FF41EC100B51EC180B53EC102BB0
:104BE000002C0EDA04F066FC9DED061B53EC112B35
:104BF00004F000FF9DED061B53EC112B05F02EF881
:104C000035E004F057FC9DED061B53EC112B04F02E
:104C1000F1FE41EC100B3048784400EBC40090EDFD
:104C2000001B51EC100B53EC112B05F023F89DEDFC
:104C3000061B53EC112B05F01DF841EC100B274817
:104C4000784400EBC40090ED001B51EC100B53ECCA
:104C5000112B05F003F841EC100B002DA2BFBDECA9
:104C6000068B02B070BD51EC100B04F0E5FB41EC7B
:104C7000100BFFE600000000000010440000F07F71
:104C8000182D4454FB21F93F182D4454FB21F9BF42
:104C90000000DC3F0000203E0000F33F0000000069
:104CA000000000000000F03F0000E63F00000000B0
:104CB00000000000000000400080034000000000F1
:104CC000000000000000F83F000000000000F0BFFE
:104CD00034BB0000EABA000074BA00002CBA00002D
:104CE00070B5694E2DED040B2DED028B82B0DDE920
:104CF000053C079ACCF1000422F000414CEA040480
:104D000041EAD474049D23F00040B44205D86C42BB
:104D10002C4340EAD474B44210D99DED060B53ECF9
:104D2000102B9DED040B51EC100B04F0C3FB41EC78
:104D3000100B02B0BDEC028B04B070BDA2F1405468
:104D4000A4F17F6454EA0C040BD0022404EAA27498
:104D500044EAD37405439FED4E8B9FED4F2B07D054
:104D600010E09DED040B51EC100B00F0CBF93BE093
:104D7000002C14BF012C9DED040BDAD0022C36D090
:104D8000032C39D051EA0C0C9FED451B9FED460BCF
:104D90000AD0B14219D1B04209D121F0804120F0AE
:104DA00080400791059010E0002BC2DA11E0DFF897
:104DB00000C1FC44002C08BF9CED000BB9D0012CB5
:104DC0000CD0022C13D0032C16D0B04219D1002BDA
:104DD000AFDAB0EE410AF0EE610AAAE79CED000BF3
:104DE00051EC100B04F028FB41EC100BA1E7B0EEE6
:104DF000480AF0EE680A9CE7B0EE420AF0EE620A5A
:104E000097E7401A00153C2816DC002ABCBF10F1B9
:104E10003C0F9FED290B0FDB9DED060B53EC102B88
:104E20009DED040B51EC100B04F0F8FB03F004FDB6
:104E300000F068F941EC100B002C8DED000B3FF4F5
:104E400078AF012C10D0022C9FED1D0B53EC102BD2
:104E50009DED000B51EC100B0ED004F00BFF53EC4A
:104E6000182B04F007FFBFE710EE900A80F0004017
:104E700001909DED000B5CE704F0FCFE53EC182B59
:104E800004F0ECFEB0E700000000F07F000000003E
:104E9000182D4454FB210940182D4454FB2109C00E
:104EA000182D4454FB21F9BF182D4454FB21F93F20
:104EB00052B90000000000000000000000000000E7
:104EC000075C143326A6A13C70B505462DED028B78
:104ED0004C1E00EBC400B0EE408AF0EE608A90ED0C
:104EE000000B34F0060017D053EC182B51EC100BCC
:104EF00004F080FD41EC100B641E05EBC40090ED46
:104F0000001B51EC100B53EC112B04F0D3FA41ECC5
:104F1000100B34F00600E7D1022C36D0042C1CD044
:104F2000062C1CBFBDEC028B70BD53EC182B51EC52
:104F3000100B04F05FFD95ED0A1B53EC112B04F0F0
:104F4000B9FA53EC182B04F055FD95ED081B53EC02
:104F5000112B04F0AFFA41EC100B53EC182B51EC71
:104F6000100B04F047FD95ED061B53EC112B04F0DC
:104F7000A1FA53EC182B04F03DFD95ED041B53EC06
:104F8000112B04F097FA41EC100B53EC182B51EC59
:104F9000100B04F02FFD95ED021B53EC112B04F0C8
:104FA00089FA53EC182B04F025FD95ED001B53EC0A
:104FB000112B04F07FFABDEC028B41EC100B70BD9D
:104FC0009FED050B10B553EC102B51EC100B04F0BA
:104FD00011FD41EC100B10BD00000000000000109E
:104FE000F0B500234FF480625C1E02EBD27504EB37
:104FF000650419E05E1C00EE106A00EB8307B8EE52
:10500000C00AD7ED000A20EE800A87ED000A00EE04
:10501000106A01EB83075B1CB8EEC00AD7ED000AEB
:1050200020EE800A87ED000A9C42E3DA6B10561EE0
:105030001DE000BFA2EB030CACF1010C00EE10CAA6
:1050400000EB8307B8EEC00AD7ED000A20EE200A75
:1050500087ED000A00EE10CA01EB83075B1CB8EE77
:10506000C00AD7ED000A20EE200A87ED000AB342FD
:10507000E0DB00221BE000BF02EB650300EB8306D0
:1050800000EB820796ED000AD7ED000A01EB8303DF
:1050900030EE200A86ED000A01EB820693ED000A4D
:1050A000D6ED000A521C30EE200A83ED000A94422D
:1050B000E2DC00220FE000BF02EB650300EB830699
:1050C00001EB830356F8046C40F8226053F8043C6B
:1050D00041F82230521C9442EEDAF0BDB5EEC00A1F
:1050E000F1EE10FA05DDF1EEC00AC0ED000A002075
:1050F00070479FED030A80ED000A4FF0FF307047C4
:105100000000000010B541EC100BFFF775FC51ECEE
:10511000100B10BD2DE9F0470128089C0A9A70D1A8
:10512000052902D00A296DD041E15578002D6AD0B9
:105130001079002868D005EB450003EB4000867825
:1051400090F801A090F8048090F8039090F805C0C2
:1051500010E000BF05EB450003EB40006D1C077A33
:105160008770C7794770877A0771477AC770C77A9F
:105170004771EDB2D079401EA842EBDC1079D579A9
:1051800000EB400004EB400005EB450503EB450553
:10519000807805F8040C1079D57900EB400004EB19
:1051A000400005EB450503EB4505407805F8050C87
:1051B0001079D57900EB400004EB400005EB450584
:1051C00003EB4505007905F8020C1079D57900EB61
:1051D000400004EB400005EB450503EB4505C078B6
:1051E00005F8030C1079D57900EB400004EB400082
:1051F00005EB450503EB4505407905F8010C1579EC
:1052000014E054E1E8E078E03CE000BF05EB450045
:1052100004EB40006D1C077A8770C7794770877A66
:105220000771477AC770C77A4771EDB2907A401E0E
:10523000A842EBDC907A00EB400004EB400000F861
:10524000046C907A00EB400004EB400000F805ACE1
:10525000907A00EB400004EB400000F8028C907A5A
:1052600000EB400004EB400000F8039C907A00EB58
:10527000400004EB400000F801CC5078E8B310790E
:1052800000287CD1557805EB450003EB400090F8F1
:10529000028090F801A090F8049090F803C046793D
:1052A00010E000BF05EB450003EB40006D1C077AE2
:1052B0008770C7794770877A0771477AC770C77A4E
:1052C0004771EDB2D079401EA842EBDCD07900EBFB
:1052D000400003EB400000F8048CD07900EB400064
:1052E00003EB400000F805ACD07900EB400003EB85
:1052F000400000F8029CD07900E00EE000EB400096
:1053000003EB400000F803CCD07900EB400003EB46
:10531000400000F8016C507888BB15797DB305EB2F
:10532000450003EB4000867890F801A090F80490C7
:1053300090F803C090F8058010E000BF05EB450031
:1053400004EB40006D1C077A8770C7794770877A35
:105350000771477AC770C77A4771EDB2907A401EDD
:10536000A842EBDC907A00EB400004EB400000F830
:10537000046C907A00EB400004EB400000E016E083
:1053800000F805AC907A00EB400004EB400000F818
:10539000029C907A00EB400004EB400000F803CC44
:1053A000907A00EB400004EB400000F8018C1429D7
:1053B0007DD1D17800297BD09079002879D001EB7C
:1053C000410003EB400090F8028090F801900579CD
:1053D000C67890F805C051E1917800296AD05079DB
:1053E000002868D001EB410003EB4000857890F87D
:1053F000018090F8049090F803C0467910E000BF57
:1054000001EB410003EB4000491C077A8770C77924
:105410004770877A0771477AC770C77A4771C9B2F0
:10542000107A401E8842EBDC5079117A00EB400084
:1054300004EB400001EB410103EB4101807801F8EE
:10544000040C5079117A00EB400004EB400001EBB2
:10545000410103EB4101407801F8050C5079117AC4
:1054600000EB400004EB400001EB410103EB410184
:10547000007901F8020C5079117A00EB400004EB3E
:10548000400001EB410103EB4101C07801F8030C3E
:105490005079117A00EB400004EB400001EB410130
:1054A00003EB4101407901F8010C517914E0BDE0B2
:1054B000A3E168E177E03BE001EB410004EB400051
:1054C000491C077A8770C7794770877A0771477ACE
:1054D000C770C77A4771C9B2D07A401E8842EBDCE8
:1054E000D07A00EB400004EB400000F8045CD07A76
:1054F00000EB400004EB400000F8058CD07A00EB94
:10550000400004EB400000F8029CD07A00EB400021
:1055100004EB400000F803CCD07A00EB400004EB31
:10552000400000F8016C9078E8B3507900287DD1F4
:10553000917801EB410003EB4000857890F80190F1
:10554000067990F803C090F805800FE001EB410068
:1055500003EB4000491C077A8770C7794770877A48
:105560000771477AC770C77A4771C9B2107A401E6F
:105570008842EBDC107A00EB400003EB400000F8BF
:10558000045C107A00EB400003EB400000F8059C3F
:10559000107A00EB400003EB400000F8026C107A38
:1055A00000EB400000E00DE003EB400000F803CC0E
:1055B000107A00EB400003EB400000F8018C90787B
:1055C000002848D15179002945D001EB410003EB77
:1055D00040008378457890F8048090F803C04679BD
:1055E00010E000BF01EB410004EB4000491C077ACA
:1055F0008770C7794770877A0771477AC770C77A0B
:105600004771C9B2D07A401E8842EBDCD07A00EBF9
:10561000400004EB400000F8043CD07A00EB40006E
:1056200004EB400000F8055CD07A00E013E000EBEA
:10563000400004EB400000F8028CD07A00EB400000
:1056400004EB400000F803CCD07A00EB400004EB00
:10565000400000F8016CBDE8F08700BF01EB41009D
:1056600003EB4000491C077A8770C7794770877A37
:105670000771477AC770C77A4771C9B2507A401E1E
:105680008842EBDC9079517A00EB400004EB40005B
:1056900001EB410103EB4101807801F8040C9079A2
:1056A000517A00EB400004EB400001EB410103EBB9
:1056B0004101407801F8050C9079517A00EB4000E7
:1056C00004EB400001EB410103EB4101007901F8DB
:1056D000020C9079517A00EB400004EB400001EBA2
:1056E000410103EB4101C07801F8030C9079517A34
:1056F00000EB400004EB400001EB410103EB4101F2
:10570000407901F8010C917910E000BF01EB4100F4
:1057100004EB4000491C077A8770C7794770877A85
:105720000771477AC770C77A4771C9B2107B401EAC
:105730008842EBDC107B00EB400004EB400000F8FB
:10574000048C107B00EB400004EB400000F8059C4B
:10575000107B00EB400004EB400000F8025C107B83
:1057600000EB400004EB400000F8036C107B00EB02
:10577000400004EB400000F801CCD078E8B3907909
:1057800000287FF468AFD17801EB410003EB4000C3
:1057900090F8028090F801900579C67890F805C0DD
:1057A00010E000BF01EB410003EB4000491C077A09
:1057B0008770C7794770877A0771477AC770C77A49
:1057C0004771C9B2507A401E8842EBDC507A00EB38
:1057D000400003EB400000F8048C507A00EB4000DE
:1057E00003EB400000F8059C507A00EB400003EB0F
:1057F000400000F8025C507A00E00FE000EB40004F
:1058000003EB400000F8036C507A00EB400003EB20
:10581000400000F801CCD0780028B2D1917900295D
:105820003FF419AF01EB410003EB4000837890F89F
:1058300001800579C67890F805C00FE001EB4100C2
:1058400004EB4000491C077A8770C7794770877A54
:105850000771477AC770C77A4771C9B2107B401E7B
:105860008842EBDC107B00EB400004EB400000F8CA
:10587000043C107B00EB400004EB400000F8058C7A
:10588000107B00EB400004EB400000F8025C107B52
:1058900000EB400004EB400000F8036C107B00EBD1
:1058A000400004EB400000F801CCD4E6F0B501293B
:1058B00073D110B1012839D035E05C78002C34D098
:1058C00004EB840502EB45052E7995F801C095F8A7
:1058D00007E00CE004EB840502EB45050544641C7D
:1058E000AF7B2F71EF7A6F706F7CEF71E4B2DD796F
:1058F0006D1EA542EEDCDC7904EB840402EB44046B
:10590000044404F8066CDC7904EB840402EB4404E0
:10591000044404F809CCDC7904EB840402EB44046D
:10592000044404F803EC02283AD0ECE01C79002C83
:1059300077D004EB840502EB4506751C767995F863
:1059400001C095F807E00CE004EB840502EB450587
:105950000544641CAF7B2F71EF7A6F706F7CEF7121
:10596000E4B29D7A6D1EA542EEDC9C7A04EB8404C1
:1059700002EB4404044404F8066C9C7A04EB8404AF
:1059800002EB4404044404F809CC9C7A04EB84043C
:1059900002EB4404044404F803EC032931D0B2E0E0
:1059A0005C7B002C76D004EB840502EB4506B51C2D
:1059B000B67995F801C095F807E00CE004EB840592
:1059C00002EB45050544641CAF7B2F71EF7A6F70C5
:1059D0006F7CEF71E4B29D7B6D1EA542EEDC9C7B7B
:1059E00004EB840402EB4404044404F8066C9C7B3E
:1059F00004EB840402EB4404044404F809CC9C7BCB
:105A00007AE010B1012846D035E09978002908D015
:105A100001EB810402EB4404257994F801C0E67996
:105A20000DE09AE001EB810402EB44040444491CBC
:105A3000A77B2771E77A6770677CE771C9B21C7A28
:105A4000641E8C42EEDC197A01EB810102EB41010C
:105A5000014401F8065C197A01EB810102EB410176
:105A6000014401F809CC197A01EB810102EB4101F3
:105A7000014401F8036C02286FD1D97B00296CD056
:105A800001EB810402EB4405AC1CAD79667894F817
:105A900007C04CE037E05C79002C5ED004EB840555
:105AA00002EB4506751C767995F801C095F807E07C
:105AB0000DE000BF04EB840502EB45050544641CC2
:105AC000AF7B2F71EF7A6F706F7CEF71E4B2DD7A8C
:105AD0006D1EA542EEDCDC7A04EB840402EB440488
