:020000040800F2
:1000000010D60020690200081D540008854600082B
:100010001B5400089D190008F57D00080000000031
:10002000000000000000000000000000E976000869
:10003000851B000800000000EB0200089D78000806
:10004000830200088302000883020008830200087C
:10005000830200088302000883020008830200086C
:10006000830200088302000883020008830200085C
:10007000830200088302000883020008830200084C
:10008000830200088302000883020008830200083C
:10009000830200088302000883020008AD1C0008E8
:1000A000830200088302000883020008830200081C
:1000B0001D79000883020008017A00088302000805
:1000C00083020008830200088302000883020008FC
:1000D0008302000883020008830200088D7C000868
:1000E000891B0008830200088302000883020008BD
:1000F00083020008830200088302000883020008CC
:1001000083020008830200088302000883020008BB
:10011000B57B000883020008830200088302000800
:10012000830200088302000883020008830200089B
:10013000830200088302000883020008830200088B
:10014000830200088302000883020008830200087B
:10015000830200088302000883020008830200086B
:10016000830200088302000883020008830200085B
:10017000830200088302000883020008830200084B
:10018000830200088302000800F002F800F05CF827
:100190000AA090E8000C82448344AAF10107DA45E2
:1001A00001D100F051F8AFF2090EBAE80F0013F0D8
:1001B000010F18BFFB1A43F0010318471C5301003D
:1001C0003C5301000A444FF0000C10F8013B13F0BF
:1001D000070408BF10F8014B1D1108BF10F8015BA0
:1001E000641E05D010F8016B641E01F8016BF9D193
:1001F00013F0080F1EBF10F8014BAD1C0C1B09D1EA
:100200006D1E58BF01F801CBFAD505E014F8016B5B
:1002100001F8016B6D1EF9D59142D6D370470000ED
:100220000023002400250026103A28BF78C1FBD8FF
:10023000520728BF30C148BF0B6070471FB50EF092
:1002400042FD1FBD10B510BD00F054FF1146FFF771
:10025000F5FF0DF0B5FA00F072FF03B4FFF7F2FFFF
:1002600003BC00F073FF00000948804709480047BD
:10027000FEE7FEE7FEE7FEE7FEE7FEE7FEE7FEE756
:10028000FEE7FEE704480549054A064B70470000B3
:10029000C17800088901000810D0002010D6002085
:1002A00010D2002010D20020EFF3108072B67047F9
:1002B00080F3108870471D484FF0FF010170002047
:1002C00080F309881A48012101701A484FF08051C3
:1002D000016062B6FEE717484FF080510160704739
:1002E00014484FF080510160704772B6EFF30980F7
:1002F00028B1203880E8F00F0F490968086000B580
:100300000E4880475DF804EB0D480E490A780270EC
:1003100009480D490A680260106890E8F00F203023
:1003200080F309884EF0040E62B6704722ED00E0BB
:10033000C700002004ED00E0E0000020655D00083B
:10034000C4000020C5000020E800002072B67047FD
:1003500062B67047EFF3108072B6704780F3108872
:100360007047B0FA80F0704790FAA0F0704730BF45
:10037000704720BF70470000DFED2E0AB5EEC00ABF
:1003800060EE200ABDEEE01A11EE100AF1EE10FA4E
:1003900038BF401E00EE100ADFED271AF7EE005AB4
:1003A000B8EEC00ADFED274A244930EEC01A21EE2C
:1003B000210AFCEEC00A10EE900A00EE900A01EB52
:1003C0008000B8EE600ADFED1E0AF0EC012A11EEA3
:1003D000210AF6EE001AB0EC013AF0EC013A20EEF8
:1003E000001A20EE216A40EE615A20EE245A21EED6
:1003F000212A90ED004A00EE602A66EE010A40EEE6
:10040000400A05EE412A70EEA55AF0EE400A41EE90
:10041000210A46EE410A25EE011A00EE641A22EE88
:10042000820A63EEA00A03EE250A44EE010A30EECA
:10043000200A704783F9223E000080432CEE00081A
:10044000ABAAAA3EABAA2A3E9FED3A0A5FEA920CFB
:1004500053D000BFB0EC011A0B1DF0EC010A21EEE5
:10046000011A00EEA01AB5EEC01AF1EE10FAC6BFDE
:10047000F1EEC10AC1ED000A81ED000AF0EC010ABB
:10048000191DB0EC011A60EEA00A41EE010AF5EE6A
:10049000C00AF1EE10FAC6BFF1EEE00AC3ED000AA1
:1004A00083ED000AB0EC011A0B1DF0EC010A21EEFD
:1004B000011A00EEA01AB5EEC01AF1EE10FAC6BF8E
:1004C000F1EEC10AC1ED000A81ED000AB0EC011A9B
:1004D000191DF0EC010A21EE011A00EEA01AB5EE8A
:1004E000C01AF1EE10FAC6BFF1EEC10AC3ED000A60
:1004F00083ED000ABCF1010CACD112F0030208BF7D
:10050000704700BFF0EC010A0B46B0EC011A091D60
:1005100060EEA00A41EE010AF5EEC00AF1EE10FA13
:10052000C6BFF1EEE00AC3ED000A83ED000A521ED9
:10053000E8D17047000000002DE9F00700EBC10989
:10054000DDE90778D0F800A0C9F800A007EB011496
:10055000D0F804A0251FA9F10406C9F804A003EBF4
:10056000C80907F1080C00F1080402EBC8024B1E91
:1005700031D000BFF2EC011A96ED002A92ED001A7C
:1005800002EBC802B4EC010A121FF4EC012A60EE7F
:10059000210A20EE010A32EE823A02EEA10AD9EDDA
:1005A000001A43EE410A09EBC80902EE610A16ED92
:1005B000012A083E42EE210A02EE410AECEC010A51
:1005C000ACEC010AB1EE400A85ED000A45ED010AE6
:1005D000083D5B1ECED190ED000AD0ED010A07EB7D
:1005E000C10130EE600A81ED000A9FED5D0A81EDE8
:1005F000010AD0ED000A90ED011A70EE810AC7EDF4
:10060000000A87ED010ABDE8F007704770B400EBFF
:10061000C105DDE903C42D1D002904BF70BC70476E
:10062000F2EC011A95ED002A92ED001A02EBC402D9
:10063000B0EC010A121FF0EC012A60EE210A20EE54
:10064000410A32EE823A02EEA10AD3ED001A43EEDD
:10065000010A03EBC40302EE610A15ED012A083D0D
:10066000491E42EE210A02EE010AECEC010AACEC52
:10067000010AD5D170BC70472DE9F04305464469A5
:10068000807983B00F461646012809D0A3892188B6
:100690003846626800F036F9E87901284ED053E018
:1006A000AA88D5E9030307EBC20CD5F808803146C8
:1006B0000CF1040C5AB300BFB0EC011A9CED002AF7
:1006C000D0ED001A00EBC800B7EC010A001FF7ECF0
:1006D000012A521E60EE010A20EE610A32EE823AD1
:1006E00002EE810A93ED001A43EE210A03EBC803E0
:1006F00002EE410A1CED012AACF1080C42EE010A9F
:1007000002EE210AE1EC010AA1EC010AD4D194ED38
:10071000040AA38921883046626800F095FAE879D6
:1007200001281CBF03B0BDE8F083E2892188A368DB
:1007300003B03046BDE8F04300F08CB8E289218870
:100740003846A36800F086F8A868CDE90060D5E9CE
:100750000323A9883846FFF7EFFE03B0BDE8F08316
:100760000000000070B592B2DDF810C055080260BC
:100770008580184EC66006F50056DBB2066100247F
:10078000837180F807C0802A04BF102282600BD0DA
:10079000B2F5007F08BF042212D0B2F5006F14BF7B
:1007A0004FF0FF3401220BD0002B8C4641614FF0FB
:1007B000000307D001222946604600F015FC06E040
:1007C0008260F1E700222946604600F00DFC2046D9
:1007D00070BD000038F2000870B40025B0EC010ACA
:1007E000A1F1010CF0EC010AB4EEE00AF1EE10FA0E
:1007F0003CBFB0EE600A0125ACF10104A446B4F19F
:10080000004F0ED3F0EC010AB4EEE00AF1EE10FA5C
:100810003CBFB0EE600AA1EB0C05BCF1010CF1D1BC
:1008200013E0002CC8BF00260FDD00BFF0EC010A6A
:10083000B4EEE00AF1EE10FA04D2ACEB0605B0EE2D
:10084000600A4D1B761C641EF0D182ED000A1D600B
:1008500070BC70472DE9F0014E0801244FF0000CE8
:1008600004EB51076146A6F102082CE061452AD24B
:1008700000EBCC0500EBC104D5ED000A94ED000AB5
:10088000C4ED000A85ED000AD5ED010A94ED010AD8
:10089000C4ED010A85ED010A0CEB0705CC1900EB4C
:1008A000C50500EBC404D5ED000A94ED000AC4EDC3
:1008B000000A85ED000AD5ED010A94ED010AC4EDA8
:1008C000010A85ED010A00EBC104B44400EBCC0C35
:1008D00094ED020ADCED000A891CC4ED020A8CEDDD
:1008E000000A94ED030ADCF80450E5608CED010A7F
:1008F000B3F800C089B203EB42034145B6D9BDE865
:10090000F00170472DE9F04F4FEA910C4FF00008CD
:100910004746644608EB0C0505EB0C0909EB0C0691
:1009200000EBC80A00EBC9099AED000AD9ED000AEC
:1009300099ED012A00EBC50530EE201A30EE600A71
:10094000DAED010A00EBC60608F1010870EE821A22
:1009500070EEC20A95ED002AD6ED002A641E32EE32
:10096000222A71EE022A31EE421ACAED002A95EDD2
:10097000012AD6ED012A32EE222A71EE822A71EE88
:10098000C21ACAED012A95ED012AD6ED012A96ED8B
:10099000003A4FEA470A32EE622AD5ED002A02EB0E
:1009A000CA0B72EEC32A9BED003ADBED013A21EE51
:1009B000034A01EEA34A61EE831A41EE631A85ED04
:1009C000004A30EE021A30EE420AC5ED011A02EB7F
:1009D000C70570EEE21A95ED002A70EEA20AD5ED79
:1009E000012A21EE023A0AEB070502EBC5051F4476
:1009F00001EEA23A61EE821A41EE621A89ED003AE6
:100A0000C9ED011AD5ED001A95ED011A20EE212A43
:100A100000EE812A60EEA10A40EE410A86ED002A2E
:100A2000C6ED010A7FF476AF9B044FEA134BE6460E
:100A3000BCF1040F7DD9E0464FEA9C0C4FF0000951
:100A4000CA46BCF1000F75D94FEA490404EB09030B
:100A500002EBC90502EBC40402EBC30395ED001AD7
:100A6000D5ED011A94ED000AD4ED010A93ED002AA8
:100A7000D3ED012AD94453468A4573D203EB0C04C3
:100A800004EB0C0606EB0C0500EBC30700EBC606F7
:100A900097ED003AD6ED003A96ED015A00EBC4040A
:100AA00073EE234A33EE633AD7ED013A00EBC50506
:100AB00033EE854A73EEC53A94ED005AD5ED005AEF
:100AC00035EE255A74EE855A74EEC54AC7ED005AC4
:100AD00094ED015AD5ED015A35EE255A74EE055ABA
:100AE00034EE454AC7ED015A94ED015AD5ED015A4D
:100AF00095ED006A35EE655AD4ED005A75EEC65A8A
:100B000024EE806A04EE206A24EE004A04EEE04AF5
:100B100084ED006A73EEE54A73EEA53A84ED014A6E
:100B200033EE054A33EE453A24EE015A04EEA15A5B
:100B300001E026E01BE064EE814A86ED005A434462
:100B40008B4244EE614A23EE024A03EEA24A63EE70
:100B5000823AC6ED014A43EE623A85ED004AC5EDA0
:100B6000013A8BD30AF1010AE245FFF46DAF4FEA77
:100B70008B434FEA9E0E4FEA134BBEF1040F3FF634
:100B80005AAFA1EB0C0100224B1C4FEA9C04002B36
:100B90008CBF1F46BDE8F08F11190E19331900EBF9
:100BA000C20500EBC60695ED000AD6ED000A95EDEC
:100BB000012A96ED011A70EE201A70EE600A32EEEC
:100BC000010A00EBC10100EBC30332EE411A91EDC3
:100BD000002AD3ED002A6244974232EE222A71EEB7
:100BE000822A31EEC22AC5ED002AD1ED011AD3EDD9
:100BF000012A71EEA21A70EE212AC5ED012A70EECB
:100C0000612A91ED010AD3ED011A93ED003A70EEDD
:100C1000611A91ED000A81ED002AC1ED012A30EE42
:100C2000430A30EEA12A70EEE10A71EE401A31EE6D
:100C3000000A86ED002AC6ED011AC3ED000A83ED15
:100C4000010AA9D8BDE8F08F2DE9F04F4FEA910CC9
:100C50004FF000084746644608EB0C0505EB0C0A0C
:100C60000AEB0C0600EBC80900EBCA0AD9ED000A32
:100C70009AED001ADAED012A00EBC50570EE811A33
:100C800070EEC10A99ED011A00EBC60608F10108E1
:100C900031EE222A31EE621AD5ED002A96ED003AA5
:100CA000641E72EE832A31EEA23A71EEE21A89EDE9
:100CB000003AD5ED012A96ED013A72EE832A32EE22
:100CC000223A32EE622A89ED013AD5ED012A96EDFB
:100CD000013AD6ED003A4FEA470972EEC32A95ED84
:100CE000003A02EBC90B33EE633ADBED003A9BEDC1
:100CF000014A61EEA34A42EE444A22EE232A01EE63
:100D0000842AC5ED004A70EEE21A70EEA20A85ED63
:100D1000012A02EBC70531EE032AD5ED002A31EE98
:100D2000431A95ED013A61EEA23A09EB070502EB91
:100D3000C5051F4442EE433A22EE222A01EE832AE1
:100D4000CAED003A8AED012AD5ED001A95ED012A87
:100D500060EEA12A41EE422A21EE211A00EE821A0B
:100D6000C6ED002A86ED011A7FF476AF9B044FEAA8
:100D7000134BE646BCF1040F7DD9E0464FEA9C0CCC
:100D80004FF00009CA46BCF1000F75D94FEA49047B
:100D900004EB090302EBC90502EBC40402EBC30335
:100DA000D5ED001A95ED012AD4ED000A94ED011A53
:100DB000D3ED002A93ED013AD94453468A4573D2C4
:100DC00003EB0C0404EB0C0606EB0C0500EBC3076D
:100DD00000EBC606D7ED003A96ED004AD6ED015A73
:100DE00000EBC40433EE845A73EEC43A97ED014A23
:100DF00000EBC50574EE254A34EE654AD4ED005A81
:100E000095ED006A75EE865A35EE256A35EE655A1F
:100E100087ED006AD4ED015A95ED016A75EE865AA8
:100E200034EEA56A74EEE54A87ED016AD4ED015A05
:100E300095ED016AD5ED006A75EEC65A94ED006A2B
:100E400036EE666A65EE206A44EEC16A64EEA04A38
:100E500045EE014AC4ED006A34EE065A34EE464AC5
:100E6000C4ED014A73EEE54A73EEA53A64EEA15A69
:100E700045EE425A01E026E01BE025EE215AC6ED80
:100E8000005A43448B4204EE825A63EEA24A44EE77
:100E9000434A24EE224A86ED015A03EE834AC5ED09
:100EA000004A85ED014A8BD30AF1010AE245FFF4BD
:100EB0006DAF4FEA8B434FEA9E0E4FEA134BBEF1E4
:100EC000040F3FF65AAFA1EB0C0100224B1C4FEA76
:100ED0009C06002B8CBF1F46BDE8F08F91198D1921
:100EE000AB1900EBC20400EBC505D4ED000AD5ED4B
:100EF000001AD4ED012A95ED012A30EEA11A70EE08
:100F0000E11A72EE820A00EBC10100EBC30332EE7C
:100F1000C22AD1ED002A93ED003A6244974272EE64
:100F2000832A31EE223A71EE622A23EE003A62EE13
:100F3000802A84ED003A91ED011A93ED013A31EEE9
:100F4000031A30EE813A23EE003A84ED013A30EE96
:100F5000C13AD1ED010A93ED011AD3ED003A30EE1A
:100F6000C11AD1ED000AC1ED002A63EE002A70EE2D
:100F7000E30AC1ED012A71EEC12A31EE811A72EE47
:100F8000201A72EE600A22EE802A21EE001A61EE2B
:100F9000801A85ED002A60EE800AC5ED011A83ED06
:100FA000001AC3ED010A99D8BDE8F08F30B50446A8
:100FB0000D4680782188A389626801280DD02846D3
:100FC000FFF7A0FCE078012818BF30BDE289218836
:100FD0002846A368BDE830403CE494ED040A284666
:100FE000FFF732FEEEE7000010B401801B4C4460B6
:100FF00082704FF0000CC370102925D040291BD0FF
:10100000B1F5807F10D0B1F5806F18BF4FF0FF3C75
:1010100002D010BC6046704701218181C181104916
:101020009FED100A816016E004218181C1810E4983
:101030009FED0E0A81600EE010218181C1810C4973
:101040009FED0C0A816006E040218181C1810A493F
:101050009FED0A0A816080ED040ADAE73832010860
:10106000385201080000803A3E5201080000803BDF
:10107000565201080000803CB65201080000803D35
:1010800010B5203AC0F00B80B1E81850203AA0E823
:101090001850B1E81850A0E81850BFF4F5AF5FEA57
:1010A000027C24BFB1E81850A0E8185044BF18C90A
:1010B00018C0BDE810405FEA827C24BF51F8043BB1
:1010C00040F8043B08BF7047D20728BF31F8023B05
:1010D00048BF11F8012B28BF20F8023B48BF00F899
:1010E000012B7047704770477047000000487047F9
:1010F000ACCF00207546FFF7F9FFAE460500694604
:10110000534620F00700854618B020B5FFF7BAF81F
:10111000BDE820404FF000064FF000074FF00008F8
:101120004FF0000B21F00701AC46ACE8C009ACE879
:10113000C009ACE8C009ACE8C0098D467047044658
:10114000AFF300802046FFF788F870470149182068
:10115000ABBEFEE72600020010B5064C01220023BC
:101160001146204600F008F92046BDE8104000F086
:101170003DB900000020014010B5064C00230122BB
:101180000C21204600F0F8F82046BDE8104000F0A1
:101190002DB900000020014010B5064C00230122AB
:1011A0000421204600F0E8F82046BDE8104000F099
:1011B0001DB900000020014010B5064C002301229B
:1011C0000721204600F0D8F82046BDE8104000F086
:1011D0000DB900000020014030B58DB001211D483F
:1011E00006F03EF903208DF82C00012500240A9515
:1011F0008DF82F400AA9184800F0C8FE06940794FD
:10120000089406A8099400F065F800948DF804404D
:1012100002940494114C8DF805508DF814506946D1
:10122000204600F083F8002301220821204600F028
:10123000A3F80121204600F06FF80121204600F0BC
:1012400061F80121204600F03BF8204600F0CEF87E
:101250000DB030BD020040000004024000210140FA
:1012600010B5064C002301220A21204600F084F824
:101270002046BDE8104000F0B9B80000002201404F
:1012800010B5064C002301220B21204600F074F813
:101290002046BDE8104000F0A9B80000002201403F
:1012A00010B5064C002301220C21204600F064F802
:1012B0002046BDE8104000F099B80000002201402F
:1012C0000029816802D041F0010101E021F0010113
:1012D00081607047094B10B51A68094902EA01029A
:1012E000D0E9001441EA0401D0E9024044EA0004D4
:1012F00041EA040141EA0201196010BD04230140E2
:10130000E030FCFF0029816802D041F4807101E0E7
:1013100021F48071816070470029816802D041F416
:10132000007101E021F400718160704730B54268BE
:101330000F4B0C791A400B6842EA042213434360B6
:1013400082680C4B4D791A40D1E9034323438C68E2
:1013500044EA4504234313438360C26A097D22F4AF
:101360007002491EC9B242EA0151C16230BD00009B
:10137000FFFEFFFCFDF7FFC070B5072509290AD95C
:10138000C468A1F10A0606EB4606B540AC43B3407B
:101390001C43C46007E0046901EB4106B540AC435F
:1013A000B3401C4304611F23072A09D2446B521E19
:1013B00002EB820293409C4391400C43446370BD16
:1013C0000D2A09D2046BD21F02EB820293409C4388
:1013D00091400C43046370BDC46A0D3A02EB820273
:1013E00093409C4391400C43C46270BD816841F0BE
:1013F00080418160704710B5FF2000F023F8552828
:101400000AD05521FF2000F059F8FF2000F01AF80B
:10141000552801D0012010BD002010BD03F05EB999
:1014200070B50446022901D0002070BD00F00AF812
:10143000054604F58054A0B200F004F805EB002046
:1014400080B270BD10B5044603F010FAA02003F07E
:10145000CFF903F05FFA200A03F0CAF903F05AFA51
:10146000E0B203F0C5F903F055FA03F0FFF9A1204B
:1014700003F0BEF903F04EFA002003F07DF90446B4
:1014800003F01EFA204610BD70B50646CCB20D0A18
:101490002146304600F012F83046FFF7D3FFA04255
:1014A000F6D106F58056B4B22946204600F006F87B
:1014B0002046FFF7C7FFA842F6D170BD70B50446BD
:1014C0000D4603F0D3F9A02003F092F903F022FABD
:1014D000200A03F08DF903F01DFAE0B203F088F959
:1014E00003F018FA284603F083F903F013FA03F027
:1014F000E7F9BDE870404FF47A700BF045BA7047D9
:1015000038B5002004F0AAF8184CA067002004F0B9
:10151000A5F8E067002004F093F9803460600020B3
:1015200004F09CF82060002004F08AF9A0606A466C
:101530000FA10A2004F010FB0323104A00211048D9
:1015400004F064FA02230F4A00210F4804F05EFA07
:1015500001230E4A00210E4804F058FA00230D4AD8
:1015600019460D4804F052FA38BD00000000002072
:101570005374617274205461736B0000B0130020C7
:10158000A5150008B0B30020FD180008B0B4002075
:10159000F5170008B0B5002021E1000804F01EBED8
:1015A0007047000008B58F4F8F4EDFF840B2904D66
:1015B00005F0AEF9387801287ED14FF4005949463C
:1015C000304600F031FD002855D1DFF824A2A87C78
:1015D0000AF1800ADAF80C1007F0E2FB0446012851
:1015E0002DD15A46A87CDBF8101007F0D9FB034632
:1015F000A87C116807F0D4FB8446E87413B1012B72
:1016000015D01CE09046A87C516807F0C9FB024643
:10161000A87CD8F8081007F0C3FB0346A87CD8F8CC
:101620000C1007F0BDFB0090A97CE87C05E00220CF
:10163000009003460246A97C604603F0CFFCA87CDC
:10164000401CA8744946304600F0EEFC0028F9D052
:10165000A87C202801D90120A874C2B2534608E012
:101660001046D96807F09CFB044601280BD0521C99
:10167000D2B2202AF4D94FF400694946304600F02E
:10168000D3FC20B159E0AA740020A886F3E7DFF864
:1016900060A1A87C0AF1800ADAF80C1007F080FB40
:1016A000044601282ED1D846A87CDBF8101007F09C
:1016B00077FB0246A87C00E090E0D8F8001007F025
:1016C0006FFBE87412B1012A15D01BE0A87CD8F892
:1016D000041007F065FB0246A87CD8F8081007F054
:1016E0005FFB0346A87CD8F80C1007F059FB00906C
:1016F000A97CE87C04E002210B460A460091A97C03
:1017000003F06CFCA87C401EA8744946304600F0EB
:101710008BFC0028F9D0A87C08B92020A874C2B29C
:10172000534608E01046D96807F03AFB0446012802
:1017300006D0521ED2B2002AF4D1012C03D04DE0C3
:10174000AA740020A886D846A87CDBF8101007F001
:1017500027FB0246A87CD8F8001007F021FB84463E
:10176000E87412B1012A24D038E0A87CD8F804101B
:1017700007F016FB8246A87CD8F8081007F010FB8B
:101780008146A87CD8F80C1007F00AFB8046E8795F
:10179000012807D1CDF800804B465246A97CE87C51
:1017A00003F01CFCE879C8B94B465246CDF80080DE
:1017B00010E0E879012807D1022000900346024694
:1017C000A97C604603F00AFCE87938B90220034698
:1017D00002460090A97CE87C03F0F2F964200BF04B
:1017E000B5F8E5E650010020000C0240B4B5002039
:1017F000000000201CB52F26364FDFF8DC904FF498
:10180000FA68002599F80C004C4601285DD1324851
:101810008030406804F09AF851200023CDE9005050
:101820001A46194618460CF00BF84FF480712B48F5
:1018300000F0FAFB208FE8B3401E2087CDE9005668
:101840000123A14678781A4600210BF0F9FF44469F
:1018500040460BF099F8CDE9005678780223012232
:1018600000210BF0EDFF20460BF08EF85FF0010435
:10187000CDE90056012378781A4621460AF07AFE0F
:1018800040460BF081F8CDE900567878022301221A
:1018900021460AF06FFE40460BF076F8CDE900567F
:1018A00078780323012221460AF064FE40460BF0BB
:1018B0006BF800E009E0641CE4B2092CD8D3B9F855
:1018C0003810012901D1A9F8385064200BF03EF8F6
:1018D00098E70000F6B80020000000200010024049
:1018E00010B504F077F8FFF70BFEBDE810400A20B2
:1018F00004F0E0B9704704F079BC0000214F08B54E
:10190000DFF88480A7F180066A460021786803F03A
:10191000BDFF307D012804D11C480BF0D3FE002010
:1019200030751A4B1A4803F12B02A2F237310CF032
:101930001DF8164916482B310BF0A6FC1549144822
:1019400006F044FE98F800000028DDD14FF4405026
:10195000FFF778FD05464FF48040FFF773FD0B4B12
:10196000044603F12B020B49094807F01FFA71786E
:10197000A142C9D2A942C7D3044906480CF0E2FAF1
:10198000C2E700008000002050010020D4B80020F1
:1019900054010020C8B5002004F03ABCFEE7000066
:1019A0002DE9F0470646481E0C46052821D8374F3A
:1019B00000254FF400794FF48078F0074946384607
:1019C00002D000F03AFB01E000F035FB414638461A
:1019D00000F031FB760804200AF0D6FF4146384675
:1019E00000F02BFB04200AF0CFFF6D1CEDB20C2D94
:1019F000E3D3274D012C19D0022C20D0032C27D063
:101A0000042C2ED0052C35D0062C3CD12021284684
:101A100000F013FB04200AF0B7FF2021284600F055
:101A20000AFBBDE8F04704200AF0AEBF01212846BA
:101A300000F003FB04200AF0A7FF0121EEE70221DA
:101A4000284600F0FAFA04200AF09EFF0221E5E79A
:101A50000421284600F0F1FA04200AF095FF042141
:101A6000DCE70821284600F0E8FA04200AF08CFFA1
:101A70000821D3E71021284600F0DFFA04200AF0FD
:101A800083FF1021CAE7BDE8F08700000004024090
:101A9000000C02407CB50121022005F0E1FC01248C
:101AA0004FF440708DF80440002500908DF80650EA
:101AB00002268DF8056069460E4800F067FA01219C
:101AC000082005F0CDFC3F208DF8044000908DF8F3
:101AD00006508DF805606946074800F057FA40F255
:101AE000014521462846FFF75BFF641CE4B2052C44
:101AF000F7D97CBD00040240000C024070B50025FF
:101B000000240021284606F09DF9641CE4B2042C50
:101B1000F7D36D1CEDB2202DF2D370BD0029016802
:101B200002D041F0010101E021F0010101607047A4
:101B300030B50368124ACC6813400A682243D1E9E1
:101B400005452C432243CC6922430C6A22434C6A4C
:101B500022438C6A22434C6B22438C6B22431A43F0
:101B60000260426922F00703D1E90B2422431A43A1
:101B700042610A6942604A6882608968C16030BD1A
:101B80003F801CF0704700002DE9FC5F03F02CFD46
:101B90004FF4805A504600F06DF9DFF80081404E56
:101BA000404C4FF47A7B4FF000092F2558B398F83A
:101BB0000000012827D158460AF0E6FE51463A486F
:101BC00000F032FAF8B9E07C012811D1CDE9009596
:101BD00001234F4670781A46A17C0BF031FECDE907
:101BE0000075707802230122A17C0BF029FEA786E4
:101BF000E07C40B91720CDE90005012370781A4632
:101C0000A17C0AF0B7FC504600F090F84FF4804AEF
:101C1000504600F02FF9C8B398F80000012835D1DC
:101C200058460AF0B1FE51461F4800F0FDF968BB66
:101C3000E07C01281FD1E08EA18E4FF0010750EA11
:101C4000010202D001280AD015E0CDE90075012378
:101C500070781A46A17C0BF0F3FDE7860AE051B9D3
:101C6000CDE90075707802230122A17C0BF0E8FD1C
:101C7000A4F83690A786E07C40B92020CDE9000585
:101C8000012370781A46A17C0AF074FC504600F0DB
:101C90004DF8BDE8FC5F03F0B3BC0000500100202C
:101CA000F6B8002000000020000C02402DE9FC41A5
:101CB00003F09AFC4FF48074204600F0DBF810B17A
:101CC000174914200887204600F030F84FF40077B9
:101CD000384600F0CFF8D8B14FF47A700AF054FECD
:101CE0003946104800F0A0F990B900252F240E4E77
:101CF000CDE90054012370781A4629460BF0A0FD67
:101D0000CDE9005470780223012200210BF098FDE8
:101D1000384600F00BF8BDE8FC4103F071BC000050
:101D200000000020000C0240F6B8002001490860C5
:101D300070470000143C01402DE9F0434FF4804906
:101D400085B00121484605F0AFFB0121102005F0C8
:101D500087FB4FF48077002503978DF8105003A977
:101D60003F4800F013F90821042005F0BFFC8DF86E
:101D700004500C268DF80560012400978DF806406C
:101D8000684600F087F84FF017088DF808800220A9
:101D90008DF809008DF80A008DF80B4002A803F0B9
:101DA00043FB384600F05EF80921032005F09EFC55
:101DB0008DF8045067028DF8056000978DF8064095
:101DC000684600F067F88DF808808DF809408DF8B6
:101DD0000A408DF80B4002A803F026FB384600F0BD
:101DE00041F80C21032005F081FC8DF804502703F5
:101DF0008DF8056000978DF80640684600F04AF8B7
:101E00004FF028088DF808808DF809408DF80A40B9
:101E10008DF80B4002A803F007FB384600F022F8CB
:101E20000E21032005F062FC8DF804508DF805604A
:101E3000CDF800908DF80640684600F02BF88DF83C
:101E400008808DF809408DF80A408DF80B4002A8F3
:101E500003F0EAFA484600F005F805B0BDE8F08363
:101E60000010024002490A6802430A6070470000FD
:101E7000103C0140064A014600201268044B0A400B
:101E800014331B680B4202D0002A00D00120704797
:101E9000003C014030B51B498379026863B30B688D
:101EA00093430B600A1D13680468A343136002790F
:101EB0000A441368046823431360124A0832136803
:101EC0000468A3431360131D1C680568AC431C60C1
:101ED00090F805C0BCF1100F05D061440A68006895
:101EE00002430A6030BD116804682143116019681B
:101EF00000680143196030BD0079084401689143CE
:101F0000016030BD003C01401CB50121082005F0F6
:101F1000A7FA4FF43F40009001208DF80400002103
:101F20008DF8061003218DF805108DF8070069461D
:101F3000144800F02BF802F075FBFFF76FFA02F07F
:101F400007FEFFF7A7FD10480AF01EFD4FF41650DC
:101F500005F002FB40F27121062002F019FD41F666
:101F60001F44214642F20F7005F090FD214641F2D8
:101F70007B5005F015FDFFF7DFFE02F017FDFFF7C0
:101F80002BF91CBD000C024020A10700F0B5002277
:101F900001234FF0030C00BF0D6803FA02F4254043
:101FA000A5422DD1066854000CFA04F5AE43066034
:101FB0000E790768A6403E4306600E79012E01D0D7
:101FC000022E12D18668AE4386604D798668A540A0
:101FD00035438560456803FA02F6B54345604568B8
:101FE0008E799640B6B235434560C56856000CFA06
:101FF00006F7BD43C560CD79A540C4682543C560DB
:10200000521C102AC8D3F0BD4B07DB0E9A40C908FA
:1020100010B500EB8100016A0F249C40A1430162CE
:10202000016A1143016210BD0246002012690A4292
:1020300000D0012070474183704701837047000042
:1020400070B58AB00446142222A16846FFF718F83A
:10205000142225A105A8FFF713F801211C2005F083
:10206000F1FE01211F2005F0EDFE0121192005F0F0
:10207000E9FE224D287818B90A211F2005F0E2FE5A
:102080002878012803D10C211F2005F0DBFE6421F4
:10209000B4FBF1F001FB10420A21B2FBF1F5B4FBF5
:1020A000F1F201FB12446E4606EB400102220820C9
:1020B00005F0A2FE06EB450102220A2005F09CFE77
:1020C00005A800EB440102220C2005F095FE0AB0A1
:1020D00070BD0000050F0006060B020F0306030D7E
:1020E000070D0007070F030F0D0F08060E0B0A0F51
:1020F0000B060B0D0F0D08070F0F0B0F50010020E3
:102100002DE9F04F99B006460D461446142284A1DD
:1021100005A8FEF7B5FF142286A16846FEF7B0FFBA
:10212000142289A10FA8FEF7ABFF14228BA10AA8E5
:10213000FEF7A6FF01211F2005F084FE8C4F3878A2
:1021400018B90821182005F07DFE3878012803D140
:102150000C21182005F076FE3878022803D10A21D8
:10216000182005F06FFE3878032803D109211820C4
:1021700005F068FE08211B2005F064FE4FF47A7B11
:10218000B6FBFBF2D1B20BFB12626420B2FBF0F2A1
:10219000D7B2B6FBF0F200FB12620A20B2FBF0F8F5
:1021A000B6FBF0F2DFF8CC9100FB126699F8000064
:1021B0000DF1140A012805D10AEB41010222162073
:1021C00005F01AFE99F8000018B90221172005F051
:1021D00039FE0FA800EB47010222142005F00CFE87
:1021E00005AF07EB48010222122005F005FE07EBC0
:1021F00046010222102005F0FFFDB5FBFBF10BFBB1
:1022000011534FF0640AB3FBFAF202F0FF0C0A23F9
:10221000B5FBF3F203FB12520AAF07EB420852463A
:10222000B5FBF2F70AFB1757B7FBF3F36E4606EB65
:102230004307C8B24FF47A7303FB1151B1FBFAF1B3
:10224000C9B2D94606EB410538B105A901EB4001F9
:1022500002220E2005F0D0FD02E0BCF1000F04D0F8
:1022600002222946082005F0C7FD022239460A202D
:1022700005F0C2FD022241460C2005F0BDFDB4FB75
:10228000F9F1CDB209FB1141B1FBFAF03A4F00F080
:10229000FF08387818B90A211F2005F0D3FD3878D7
:1022A000012803D10C211F2005F0CCFD0A23B4FB2B
:1022B000F3F003FB1041684600EB41096421B4FBD5
:1022C000F1F201FB1242B2FBF3F200EB42074FF4D2
:1022D0007A72B4FBF2F302FB1342B2FBF1F1C9B222
:1022E00000EB410435B106EB45010222002005F068
:1022F00083FD02E0B8F1000F04D00222214610460F
:1023000005F07AFD02223946042005F075FD02220F
:102310004946062005F070FD19B0BDE8F08F0000B9
:102320000F0506000B060F0206030D030D0707003D
:102330000F070F03050F0006060B020F0306030D20
:10234000070D0007070F030F0F0D06080B0E0F0AEE
:10235000060B0D0B0D0F07080F0F0F0B0D0F0806C7
:102360000E0B0A0F0B060B0D0F0D08070F0F0B0FAF
:102370000500002009000020500100202DE9F04F49
:1023800099B006460D461446142284A105A8FEF70E
:1023900077FE142286A16846FEF772FE142289A1F8
:1023A0000FA8FEF76DFE14228BA10AA8FEF768FEA7
:1023B00001211F2005F046FD0A211B2005F042FDEA
:1023C0008A4F387818B90021182005F03BFD38787D
:1023D000012803D10421182005F034FD38780228A3
:1023E00003D10221182005F02DFD3878032803D1F0
:1023F0000121182005F026FD4FF47A7BB6FBFBF295
:10240000D1B20BFB12626420B2FBF0F2D7B2B6FB82
:10241000F0F200FB12620A20B2FBF0F8B6FBF0F219
:10242000DFF8CC9100FB126699F800000DF1140A58
:10243000012805D10AEB41010222162005F0DCFC3F
:1024400099F8000018B90221172005F0FBFC0FA82D
:1024500000EB47010222142005F0CEFC05AF07EB8C
:1024600048010222122005F0C7FC07EB46010222B8
:10247000102005F0C1FCB5FBFBF10BFB11534FF035
:10248000640AB3FBFAF202F0FF0C0A23B5FBF3F285
:1024900003FB12520AAF07EB42085246B5FBF2F7B4
:1024A0000AFB1757B7FBF3F36E4606EB4307C8B2B8
:1024B0004FF47A7303FB1151B1FBFAF1C9B2D9465B
:1024C00006EB410538B105A901EB400102220E20BF
:1024D00005F092FC02E0BCF1000F04D00222294674
:1024E000082005F089FC022239460A2005F084FC08
:1024F000022241460C2005F07FFCB4FBF9F1CDB27D
:1025000009FB1141B1FBFAF03A4F00F0FF083878AF
:1025100018B90A211F2005F095FC3878012803D14D
:102520000C211F2005F08EFC0A23B4FBF3F003FB03
:102530001041684600EB41096421B4FBF1F201FB54
:102540001242B2FBF3F200EB42074FF47A72B4FB93
:10255000F2F302FB1342B2FBF1F1C9B200EB41040A
:1025600035B106EB45010222002005F045FC02E0F2
:10257000B8F1000F04D002222146104605F03CFCC1
:1025800002223946042005F037FC02224946062083
:1025900005F032FC19B0BDE8F08F00000F05060011
:1025A0000B060F0206030D030D0707000F070F03AD
:1025B000050F0006060B020F0306030D070D0007AB
:1025C000070F030F0F0D06080B0E0F0A060B0D0B5E
:1025D0000D0F07080F0F0F0B0D0F08060E0B0A0F3C
:1025E0000B060B0D0F0D08070F0F0B0F050000203A
:1025F00009000020500100202DE9F04F99B0064657
:102600000D461446142284A105A8FEF739FD1422B4
:1026100086A16846FEF734FD142289A10FA8FEF7B3
:102620002FFD14228BA10AA8FEF72AFD01211F20ED
:1026300005F008FC0C211B2005F004FC8A4F3878BB
:1026400018B90021182005F0FDFB3878012803D1C6
:102650000421182005F0F6FB3878022803D1022166
:10266000182005F0EFFB3878032803D1012118204A
:1026700005F0E8FB4FF47A7BB6FBFBF2D1B20BFB23
:1026800012626420B2FBF0F2D7B2B6FBF0F200FBAC
:1026900012620A20B2FBF0F8B6FBF0F2DFF8CC9140
:1026A00000FB126699F800000DF1140A012805D10B
:1026B0000AEB41010222162005F09EFB99F800006A
:1026C00018B90221172005F0BDFB0FA800EB470148
:1026D0000222142005F090FB05AF07EB480102220F
:1026E000122005F089FB07EB46010222102005F0BD
:1026F00083FBB5FBFBF10BFB11534FF0640AB3FBFB
:10270000FAF202F0FF0C0A23B5FBF3F203FB1252BC
:102710000AAF07EB42085246B5FBF2F70AFB175720
:10272000B7FBF3F36E4606EB4307C8B24FF47A7378
:1027300003FB1151B1FBFAF1C9B2D94606EB4105D1
:1027400038B105A901EB400102220E2005F054FB2F
:1027500002E0BCF1000F04D002222946082005F057
:102760004BFB022239460A2005F046FB0222414675
:102770000C2005F041FBB4FBF9F1CDB209FB11418E
:10278000B1FBFAF03A4F00F0FF08387818B90A2187
:102790001F2005F057FB3878012803D10C211F209A
:1027A00005F050FB0A23B4FBF3F003FB104168462D
:1027B00000EB41096421B4FBF1F201FB1242B2FBD0
:1027C000F3F200EB42074FF47A72B4FBF2F302FB30
:1027D0001342B2FBF1F1C9B200EB410435B106EB93
:1027E00045010222002005F007FB02E0B8F1000FCE
:1027F00004D002222146104605F0FEFA0222394694
:10280000042005F0F9FA02224946062005F0F4FA00
:1028100019B0BDE8F08F00000F0506000B060F028F
:1028200006030D030D0707000F070F03050F000632
:10283000060B020F0306030D070D0007070F030F1A
:102840000F0D06080B0E0F0A060B0D0B0D0F0708D8
:102850000F0F0F0B0D0F08060E0B0A0F0B060B0DBB
:102860000F0D08070F0F0B0F0500002009000020B7
:10287000500100202DE9F04F99B006460D46144650
:10288000142286A105A8FEF7FBFB142288A1684646
:10289000FEF7F6FB14228BA10FA8FEF7F1FB142222
:1028A0008DA10AA8FEF7ECFB01211F2005F0CAFA52
:1028B00004211A2005F0C6FA8C4F387818B9002187
:1028C000182005F0BFFA3878012803D10421182018
:1028D00005F0B8FA3878022803D10221182005F053
:1028E000B1FA3878032803D10121182005F0AAFA9B
:1028F00008211B2005F0A6FA4FF47A7BB6FBFBF209
:10290000D1B20BFB12626420B2FBF0F2D7B2B6FB7D
:10291000F0F200FB12620A20B2FBF0F8B6FBF0F214
:10292000DFF8CC9100FB126699F800000DF1140A53
:10293000012805D10AEB41010222162005F05CFABC
:1029400099F8000018B90221172005F07BFA0FA8AA
:1029500000EB47010222142005F04EFA05AF07EB09
:1029600048010222122005F047FA07EB4601022235
:10297000102005F041FAB5FBFBF10BFB11534FF0B2
:10298000640AB3FBFAF202F0FF0C0A23B5FBF3F280
:1029900003FB12520AAF07EB42085246B5FBF2F7AF
:1029A0000AFB1757B7FBF3F36E4606EB4307C8B2B3
:1029B0004FF47A7303FB1151B1FBFAF1C9B2D94656
:1029C00006EB410538B105A901EB400102220E20BA
:1029D00005F012FA02E0BCF1000F04D002222946F1
:1029E000082005F009FA022239460A2005F004FA07
:1029F000022241460C2005F0FFF9B4FBF9F1CDB2FB
:102A000009FB1141B1FBFAF03A4F00F0FF083878AA
:102A100018B90A211F2005F015FA3878012803D1CA
:102A20000C211F2005F00EFA0A23B4FBF3F003FB80
:102A30001041684600EB41096421B4FBF1F201FB4F
:102A40001242B2FBF3F200EB42074FF47A72B4FB8E
:102A5000F2F302FB1342B2FBF1F1C9B200EB410405
:102A600035B106EB45010222002005F0C5F902E070
:102A7000B8F1000F04D002222146104605F0BCF93F
:102A800002223946042005F0B7F902224946062001
:102A900005F0B2F919B0BDE8F08F00000F0506008F
:102AA0000B060F0206030D030D0707000F070F03A8
:102AB000050F0006060B020F0306030D070D0007A6
:102AC000070F030F0F0D06080B0E0F0A060B0D0B59
:102AD0000D0F07080F0F0F0B0D0F08060E0B0A0F37
:102AE0000B060B0D0F0D08070F0F0B0F0500002035
:102AF00009000020500100202DE9F04F97B0064654
:102B00000C461546142282A105A8FEF7B9FA142234
:102B100084A16846FEF7B4FA01211F2005F092F95E
:102B2000854F387818B90A211F2005F08BF93878BD
:102B3000012803D10C211F2005F084F94FF47A728B
:102B4000B6FBF2F002FB10676423B7FBF3F707F064
:102B5000FF0EB6FBF3F703FB176C4FF00A08BCFB44
:102B6000F8F71397B4FBF2F707F0FF0C02FB1747D7
:102B7000B7FBF3F707F0FF0BB4FBF3F7CDF83CC05E
:102B800003FB174CCDF850B0BCFBF8FBB5FBF2FCD7
:102B900002FB1C52B2FBF3F2D2B20E92B5FBF3F27F
:102BA0000CF0FF0A03FB125CC146B6FBF9F3BCFB59
:102BB000F8F209FB136305AF07EB43086423B6FB88
:102BC000F3FC03FB1C6C0C92BCFBF9F207EB420913
:102BD000C1B24FF47A7202FB1060B0FBF3F0C0B2E6
:102BE00007EB400631B107EB41010222162005F048
:102BF00003F902E0BEF1000F05D002223146142095
:102C000005F0FAF801E0139820B10222494612209B
:102C100005F0F2F802224146102005F0EDF80A20F6
:102C2000B4FBF0F100FB1146694601EB4609642153
:102C3000B4FBF1F601FB1646B6FBF0F6684600EB76
:102C400046084FF47A70B4FBF0F600FB1640B0FB78
:102C5000F1F0C1B268460F9B00EB410433B107EBC2
:102C6000430102220E2005F0C7F801E0149828B1B4
:102C700002222146082005F0BFF802E0BBF1000F58
:102C800004D0022241460A2005F0B6F80222494645
:102C90000C2005F0B1F80A23B5FBF3F003FB10514B
:102CA000684600EB41076421B5FBF1F401FB1454C5
:102CB000B4FBF3F300EB43064FF47A73B5FBF3F484
:102CC00003FB1453B3FBF1F1C9B200EB4104BAF1B9
:102CD000000F06D000EB4A010222002005F08CF81C
:102CE00001E00E9828B102222146104605F084F832
:102CF00001E00C9820B102223146042005F07CF856
:102D000002223946062005F077F817B0BDE8F08FAB
:102D10000F0506000B060F0206030D030D07070043
:102D20000F070F03050F0006060B020F0306030D26
:102D3000070D0007070F030F500100202DE9F04F8A
:102D4000FBA02DED028B93B000680E901422F9A128
:102D500009A8FEF795F91422FBA16846FEF790F941
:102D6000FE48FF4EFF4D0078012770B3B414214692
:102D70003046FFF759F980B9287920B96878401CA6
:102D8000687001F00FFF21463046FFF74DF900282B
:102D9000F9D06878062800D96F704FF48044214636
:102DA0003046FFF741F980B9287920B96878401E8C
:102DB000687001F0F7FE21463046FFF735F900282C
:102DC000F9D0687808B9062068706978E648E74C59
:102DD0004FF0030807297DD2DFE801F0CC04D1FDD4
:102DE000FCFBFA0080218146FFF71EF980B9FEF74F
:102DF00085FEDF48E04A0088126800EB800040044E
:102E0000010CDC48007800EB80004000FFF778F907
:102E100080214846FFF708F901285BD14FF400599B
:102E200049463046FFF700F980B9287970B901F0BA
:102E3000B9FEA878401CA87049463046FFF7F4F860
:102E40000028F9D0A878032800D9AF704FF40061AA
:102E5000C348FFF7E9F8C94EDFF82493DFF824A34D
:102E6000C94FDFF828B380B9287970B901F09AFE0C
:102E7000A878401E85F802004FF40061B848FFF7BB
:102E8000D3F80028F8D0A87818B1A878012803D082
:102E90002DE085F8028043E0207880B9FEF72EFE11
:102EA00030889AF8003000EB80004004010C99F85B
:102EB00000003A6800EB80004000FFF75FFA2078DE
:102EC000012814D1FEF71AFEBBF8000000EB8000C9
:102ED000400400E04EE0010CAE4AAD4813780078A3
:102EE000AD4A00EB800040001268FFF7C3FCA878F1
:102EF000022812D1FEF702FEA848AA4A00881378D9
:102F000000EB80004004010CA548A74A0078126835
:102F100000EB80004000FFF76FFBA878032829D161
:102F20002078012810D1FEF7E9FD30889AF80030AA
:102F300000EB80004004010C99F800003A6800EBB7
:102F400080004000FFF71AFA2078002812D1FEF71F
:102F5000D5FDBBF800008F4A00EB80004004010C57
:102F60008B4813788C4A007800EB80004000126890
:102F7000FFF780FC13B0BDEC028BBDE8F08F802121
:102F80008146FFF751F848B9FEF7B8FD874840F28F
:102F9000F51201888648008800F088FA80214846AA
:102FA000FFF742F80128E5D14FF400594946304671
:102FB000FFF73AF8A8B9287998B901F0F3FDE87855
:102FC000401CE87049463046FFF72EF8002803E021
:102FD00052E2A6E19CE15CE0F4D0E878032800D955
:102FE000EF704FF400613046FFF71EF8714EDFF8C6
:102FF000C891724FDFF8C8A180B9287970B901F083
:10300000D1FDE8784FF4006B401EE87059465448F3
:10301000FFF70AF80028F9D0E87818B1E878012815
:1030200003D00DE085F8038021E0FEF767FD2078EE
:1030300040F2F51240B13988BAF8000000F092FD74
:10304000E878022806D00FE03188B9F8000000F0D7
:1030500049FBF5E7FEF752FD5A4840F2F5120188A8
:103060005948008800F05EFCE878032882D1FEF71A
:1030700045FD207840F2F51228B13188B9F80000FA
:1030800000F030FB76E73988BAF8000000F06AFDFE
:1030900070E780218146FEF7C7FFB2EE048AC0B90F
:1030A000FEF72CFD494890ED000A20EE080ABCEE20
:1030B000C00A10EE100A82B2454890ED000A20EED8
:1030C000080ABCEEC00A10EE100A81B2002000F01F
:1030D00069FE80214846FEF7A7FF0128D2D14FF4B0
:1030E000005949463046FEF79FFF80B9287970B9EC
:1030F00001F058FDE878401CE87049463046FEF77C
:1031000093FF0028F9D0E878032800D9EF704FF436
:1031100000613046FEF788FF2E4E2F4FDFF8BC903F
:10312000DFF8BCA010B9287900B95BE069E00000C5
:10313000000209050F0506000B060F0206030D032A
:103140000D0707000F070F03050F0006060B020F00
:103150000306030D070D0007070F030F0D000020E6
:10316000000C02404C010020001002400B00002027
:103170001C000020010000205C0000202200002034
:1031800002000020080000206C0000202600002023
:10319000040000200A000020740000202400002009
:1031A0000300002009000020700000202000002003
:1031B0001E0000202E0000202800002032000020E9
:1031C0002C000020300000202A00002040000020B9
:1031D0003C0000204800002044000020580000204F
:1031E0005400002001F0DEFCE8784FF4006B401E34
:1031F000E8705946A648FEF717FF0028F9D0E8788E
:1032000018B1E878012803D01BE085F803804FE06F
:10321000FEF774FC2078C0B199ED000A20EE080A90
:10322000BCEEC00A10EE100A9AED000A82B220EE3F
:10323000080ABCEEC00A10EE100A81B2002001F0AC
:10324000E3F8E878022816D02EE096ED000A20EE8A
:10325000080ABCEEC00A10EE100A97ED000A82B20E
:1032600020EE080ABCEEC00A10EE100A81B200205F
:1032700000F0A6FEE5E7FEF741FC864890ED000A67
:1032800020EE080ABCEEC00A10EE100A82B2824894
:1032900090ED000A20EE080ABCEEC00A10EE100AFB
:1032A00081B2002000F09EFFE87803287FF4EAAEA8
:1032B000FEF724FC2078A8B196ED000A20EE080A5B
:1032C000BCEEC00A10EE100A97ED000A82B220EEA2
:1032D000080ABCEEC00A10EE100A81B2002000F00D
:1032E0006FFE47E699ED000A20EE080ABCEEC00A20
:1032F00010EE100A9AED000A82B220EE080ABCEE27
:10330000C00A10EE100A81B2002001F07DF831E60B
:10331000FEF7F4FB4FF41040FEF794F8FEF790FE32
:1033200028E6FEF7EBFB01211C2004F08BFD0121B8
:103330001F2004F087FD287918B90A211F2004F006
:1033400081FD2879012803D10C211F2004F07AFD8A
:10335000524968790422014411F8011CA9714F49AE
:10336000203108440EA910F8010CE871142004F073
:1033700043FD69790A20B1FBF0F200FB1218A9792C
:10338000B1FBF0F400FB141BE979B1FBF0F900FB91
:10339000191A09A800EB42010222122004F02CFDA8
:1033A00009A800EB48010222102004F025FDE846A0
:1033B00008EB440102220A2004F01EFD08EB4B0139
:1033C00002220C2004F018FD08EB4901022204201F
:1033D00004F012FD08EB4A010222062004F00CFD65
:1033E0004FF4005421463046FEF71EFEE0B928791E
:1033F000D0B901F0D7FB6879401C6871214630468E
:10340000FEF712FE0028F9D06879202800D96F71E4
:1034100022496879014411F8011CA9711F49203122
:10342000084410F8010CE8714FF40064214630465E
:10343000FEF7FAFD00287FF425AE28790028FAD19E
:1034400001F0B0FB6879401E687121463046FEF7F6
:10345000EBFD0028F9D0687908B9202068710F4980
:10346000C0B2014411F8011CA9710C492031084473
:1034700010F8010CE8717DE5FEF740FB0848026892
:103480000848016808480068FFF736FB72E500004D
:10349000000C0240500000204C0000206CCF0020A7
:1034A0006800002064000020600000202DE9F04F3B
:1034B00095B004460D461646142274A16846FDF7E1
:1034C000DFFD142276A105A8FDF7DAFD142279A10B
:1034D0000FA8FDF7D5FD14227BA10AA8FDF7D0FDAA
:1034E00001211F2004F0AEFC7C4F387818B9082168
:1034F000182004F0A7FC3878012803D10C211820EB
:1035000004F0A0FC3878022803D10A21182004F026
:1035100099FC3878032803D10921182004F092FC83
:103520000821192004F08EFC6D4F387818B90A2153
:103530001F2004F087FC3878012803D10C211F20BC
:1035400004F080FC4FF47A7BB4FBFBFC0BFB1C42C9
:103550006420B2FBF0F000F0FF0A0A20B4FBF0F2A6
:1035600000FB12426F4607EB42096422B4FBF2F300
:1035700002FB1343B3FBF0F007EB4008584600FB97
:103580001C40B0FBF2F0C0B20CF0FF0107EB4004AE
:1035900031B107EB41010222162004F02DFC02E0BC
:1035A000BAF1000F04D002222146142004F024FCBA
:1035B00002224146122004F01FFC0222494610203C
:1035C00004F01AFCB5FBFBF10BFB11534FF0640B3D
:1035D000B3FBFBF202F0FF0C0A23B5FBF3F203FB93
:1035E00012540DF1140A0AEB44085A46B5FBF2F4E2
:1035F0000BFB1454B4FBF3F4C8B24FF47A7303FB1F
:103600001151B1FBFBF10AEB4409CAB20AEB4204C7
:1036100030B107EB400102220E2004F0EDFB02E086
:10362000BCF1000F04D002222146082004F0E4FB84
:10363000022249460A2004F0DFFB022241460C2008
:1036400004F0DAFBB6FBFBF2D1B20BFB12620A20EC
:10365000B2FBF0F5B6FBF0F200FB12640222564614
:103660000AEB4101104604F0C7FB06EB45010222BC
:10367000042004F0C1FB0AA800EB4401022206204A
:1036800004F0BAFB15B0BDE8F08F00000F0506008E
:103690000B060F0206030D030D0707000F070F03AC
:1036A000050F0006060B020F0306030D070D0007AA
:1036B000070F030F0F0D06080B0E0F0A060B0D0B5D
:1036C0000D0F07080F0F0F0B0D0F08060E0B0A0F3B
:1036D0000B060B0D0F0D08070F0F0B0F0500002039
:1036E000500100202DE9F04F95B004460D461646D6
:1036F000142276A16846FDF7C3FC142278A105A820
:10370000FDF7BEFC14227BA10FA8FDF7B9FC142223
:103710007DA10AA8FDF7B4FC01211F2004F092FB53
:1037200002211B2004F08EFB7C4F387818B9002151
:10373000182004F087FB3878012803D104211820D1
:1037400004F080FB3878022803D10221182004F00D
:1037500079FB3878032803D10121182004F072FB8B
:103760000821192004F06EFB6D4F387818B90A2132
:103770001F2004F067FB3878012803D10C211F209B
:1037800004F060FB4FF47A7BB4FBFBFC0BFB1C42A8
:103790006420B2FBF0F000F0FF0A0A20B4FBF0F264
:1037A00000FB12426F4607EB42096422B4FBF2F3BE
:1037B00002FB1343B3FBF0F007EB4008584600FB55
:1037C0001C40B0FBF2F0C0B20CF0FF0107EB40046C
:1037D00031B107EB41010222162004F00DFB02E09B
:1037E000BAF1000F04D002222146142004F004FB99
:1037F00002224146122004F0FFFA0222494610201C
:1038000004F0FAFAB5FBFBF10BFB11534FF0640B1C
:10381000B3FBFBF202F0FF0C0A23B5FBF3F203FB50
:1038200012540DF1140A0AEB44085A46B5FBF2F49F
:103830000BFB1454B4FBF3F4C8B24FF47A7303FBDC
:103840001151B1FBFBF10AEB4409CAB20AEB420485
:1038500030B107EB400102220E2004F0CDFA02E065
:10386000BCF1000F04D002222146082004F0C4FA63
:10387000022249460A2004F0BFFA022241460C20E7
:1038800004F0BAFAB6FBFBF2D1B20BFB12620A20CB
:10389000B2FBF0F5B6FBF0F200FB126402225646D2
:1038A0000AEB4101104604F0A7FA06EB450102229B
:1038B000042004F0A1FA0AA800EB44010222062029
:1038C00004F09AFA15B0BDE8F08F00000F0506006D
:1038D0000B060F0206030D030D0707000F070F036A
:1038E000050F0006060B020F0306030D070D000768
:1038F000070F030F0F0D06080B0E0F0A060B0D0B1B
:103900000D0F07080F0F0F0B0D0F08060E0B0A0FF8
:103910000B060B0D0F0D08070F0F0B0F05000020F6
:10392000500100202DE9F04F95B004460D46164693
:10393000142276A16846FDF7A3FB142278A105A8FE
:10394000FDF79EFB14227BA10FA8FDF799FB142223
:103950007DA10AA8FDF794FB01211F2004F072FA53
:1039600004211B2004F06EFA7C4F387818B900212E
:10397000182004F067FA3878012803D104211820B0
:1039800004F060FA3878022803D10221182004F0EC
:1039900059FA3878032803D10121182004F052FA8B
:1039A0000821192004F04EFA6D4F387818B90A2111
:1039B0001F2004F047FA3878012803D10C211F207A
:1039C00004F040FA4FF47A7BB4FBFBFC0BFB1C4287
:1039D0006420B2FBF0F000F0FF0A0A20B4FBF0F222
:1039E00000FB12426F4607EB42096422B4FBF2F37C
:1039F00002FB1343B3FBF0F007EB4008584600FB13
:103A00001C40B0FBF2F0C0B20CF0FF0107EB400429
:103A100031B107EB41010222162004F0EDF902E07A
:103A2000BAF1000F04D002222146142004F0E4F978
:103A300002224146122004F0DFF9022249461020FA
:103A400004F0DAF9B5FBFBF10BFB11534FF0640BFB
:103A5000B3FBFBF202F0FF0C0A23B5FBF3F203FB0E
:103A600012540DF1140A0AEB44085A46B5FBF2F45D
:103A70000BFB1454B4FBF3F4C8B24FF47A7303FB9A
:103A80001151B1FBFBF10AEB4409CAB20AEB420443
:103A900030B107EB400102220E2004F0ADF902E044
:103AA000BCF1000F04D002222146082004F0A4F942
:103AB000022249460A2004F09FF9022241460C20C6
:103AC00004F09AF9B6FBFBF2D1B20BFB12620A20AA
:103AD000B2FBF0F5B6FBF0F200FB12640222564690
:103AE0000AEB4101104604F087F906EB450102227A
:103AF000042004F081F90AA800EB44010222062008
:103B000004F07AF915B0BDE8F08F00000F0506004B
:103B10000B060F0206030D030D0707000F070F0327
:103B2000050F0006060B020F0306030D070D000725
:103B3000070F030F0F0D06080B0E0F0A060B0D0BD8
:103B40000D0F07080F0F0F0B0D0F08060E0B0A0FB6
:103B50000B060B0D0F0D08070F0F0B0F05000020B4
:103B6000500100202DE9F04F95B004460D46164651
:103B7000142276A16846FDF783FA142278A105A8DD
:103B8000FDF77EFA14227BA10FA8FDF779FA142223
:103B90007DA10AA8FDF774FA01211F2004F052F953
:103BA00004211A2004F04EF97C4F387818B900210E
:103BB000182004F047F93878012803D1042118208F
:103BC00004F040F93878022803D10221182004F0CB
:103BD00039F93878032803D10121182004F032F98B
:103BE0000821192004F02EF96D4F387818B90A21F0
:103BF0001F2004F027F93878012803D10C211F2059
:103C000004F020F94FF47A7BB4FBFBFC0BFB1C4265
:103C10006420B2FBF0F000F0FF0A0A20B4FBF0F2DF
:103C200000FB12426F4607EB42096422B4FBF2F339
:103C300002FB1343B3FBF0F007EB4008584600FBD0
:103C40001C40B0FBF2F0C0B20CF0FF0107EB4004E7
:103C500031B107EB41010222162004F0CDF802E059
:103C6000BAF1000F04D002222146142004F0C4F857
:103C700002224146122004F0BFF8022249461020D9
:103C800004F0BAF8B5FBFBF10BFB11534FF0640BDA
:103C9000B3FBFBF202F0FF0C0A23B5FBF3F203FBCC
:103CA00012540DF1140A0AEB44085A46B5FBF2F41B
:103CB0000BFB1454B4FBF3F4C8B24FF47A7303FB58
:103CC0001151B1FBFBF10AEB4409CAB20AEB420401
:103CD00030B107EB400102220E2004F08DF802E023
:103CE000BCF1000F04D002222146082004F084F821
:103CF000022249460A2004F07FF8022241460C20A5
:103D000004F07AF8B6FBFBF2D1B20BFB12620A2088
:103D1000B2FBF0F5B6FBF0F200FB1264022256464D
:103D20000AEB4101104604F067F806EB4501022258
:103D3000042004F061F80AA800EB440102220620E6
:103D400004F05AF815B0BDE8F08F00000F0506002A
:103D50000B060F0206030D030D0707000F070F03E5
:103D6000050F0006060B020F0306030D070D0007E3
:103D7000070F030F0F0D06080B0E0F0A060B0D0B96
:103D80000D0F07080F0F0F0B0D0F08060E0B0A0F74
:103D90000B060B0D0F0D08070F0F0B0F0500002072
:103DA000500100202DE9F0479AB004460D46164612
:103DB00014226DA105A8FDF763F914226FA16846CE
:103DC000FDF75EF9142272A10FA8FDF759F914222C
:103DD00074A10AA8FDF754F901211F2004F032F85C
:103DE000754F387818B90821182004F02BF8387866
:103DF000012803D10C21182004F024F83878022877
:103E000003D10A21182004F01DF83878032803D1C3
:103E10000921182004F016F808211A2004F012F8DD
:103E2000664F387818B90A211F2004F00BF838784B
:103E3000012803D10C211F2004F004F84FF47A71FB
:103E4000B4FBF1F001FB10434FF0640AB3FBFAF14D
:103E500001F0FF090A21B4FBF1F301FB13430FAF9B
:103E600007EB43085346B4FBF3F70AFB1747B7FBCE
:103E7000F1F10DF1140C0CEB4107C2B24FF47A7161
:103E800001FB1040B0FBFAF0C0B20CEB400432B1C1
:103E90000CEB42010222162003F0AEFF02E0B9F162
:103EA000000F04D002222146142003F0A5FF0222B5
:103EB0003946122003F0A0FF02224146102003F0F1
:103EC0009BFF4FF00A00B5FBF0F3D146B5FBF9F7C5
:103ED00000FB13530AA901EB43084FF0640101FBF7
:103EE0001751B1FBF0F06C4617F0FF0204EB4005F0
:103EF00005D004EB42010222082003F07DFF0222DC
:103F000029460A2003F078FF022241460C2003F0E4
:103F100073FF4FF00A01B6FBF1F3B6FBF9F201FBB8
:103F200013630AAD05EB430712F0FF004FF0640383
:103F300003FB1262B2FBF1F16A4602EB410505D0C8
:103F400004EB40010222104603F056FF02222946EC
:103F5000042003F051FF02223946062003F04CFFF3
:103F60001AB0BDE8F08700000F0506000B060F022F
:103F700006030D030D0707000F070F03050F0006CB
:103F8000060B020F0306030D070D0007070F030FB3
:103F90000F0D06080B0E0F0A060B0D0B0D0F070871
:103FA0000F0F0F0B0D0F08060E0B0A0F0B060B0D54
:103FB0000F0D08070F0F0B0F050000205001002008
:103FC0002DE9F0479AB004460D46164614226FA11B
:103FD00005A8FDF755F8142271A16846FDF750F8C1
:103FE000142274A10FA8FDF74BF8142276A10AA899
:103FF000FDF746F801211F2003F024FF02211B20BA
:1040000003F020FF754F387818B90021182003F00D
:1040100019FF3878012803D10421182003F012FF7A
:104020003878022803D10221182003F00BFF3878DA
:10403000032803D10121182003F004FF08211A20CE
:1040400003F000FF664F387818B90A211F2003F0EB
:10405000F9FE3878012803D10C211F2003F0F2FE6D
:104060004FF47A71B4FBF1F001FB10434FF0640A96
:10407000B3FBFAF101F0FF090A21B4FBF1F301FBF4
:1040800013430FAF07EB43085346B4FBF3F70AFBA8
:104090001747B7FBF1F10DF1140C0CEB4107C2B25D
:1040A0004FF47A7101FB1040B0FBFAF0C0B20CEB98
:1040B000400432B10CEB42010222162003F09CFEB8
:1040C00002E0B9F1000F04D002222146142003F0CF
:1040D00093FE02223946122003F08EFE0222414650
:1040E000102003F089FE4FF00A00B5FBF0F3D14633
:1040F000B5FBF9F700FB13530AA901EB43084FF096
:10410000640101FB1751B1FBF0F06C4617F0FF02A0
:1041100004EB400505D004EB42010222082003F025
:104120006BFE022229460A2003F066FE0222414667
:104130000C2003F061FE4FF00A01B6FBF1F3B6FB71
:10414000F9F201FB13630AAD05EB430712F0FF0020
:104150004FF0640303FB1262B2FBF1F16A4602EB1B
:10416000410505D004EB40010222104603F044FE55
:1041700002222946042003F03FFE0222394606208F
:1041800003F03AFE1AB0BDE8F08700000F05060004
:104190000B060F0206030D030D0707000F070F03A1
:1041A000050F0006060B020F0306030D070D00079F
:1041B000070F030F0F0D06080B0E0F0A060B0D0B52
:1041C0000D0F07080F0F0F0B0D0F08060E0B0A0F30
:1041D0000B060B0D0F0D08070F0F0B0F050000202E
:1041E000500100202DE9F0479AB004460D461646CE
:1041F00014226FA105A8FCF743FF142271A16846A1
:10420000FCF73EFF142274A10FA8FCF739FF14221B
:1042100076A10AA8FCF734FF01211F2003F012FE4B
:1042200004211B2003F00EFE754F387818B90021C9
:10423000182003F007FE3878012803D10421182044
:1042400003F000FE3878022803D10221182003F081
:10425000F9FD3878032803D10121182003F0F2FD7D
:1042600008211A2003F0EEFD664F387818B90A21AC
:104270001F2003F0E7FD3878012803D10C211F200F
:1042800003F0E0FD4FF47A71B4FBF1F001FB104351
:104290004FF0640AB3FBFAF101F0FF090A21B4FB05
:1042A000F1F301FB13430FAF07EB43085346B4FB95
:1042B000F3F70AFB1747B7FBF1F10DF1140C0CEB08
:1042C0004107C2B24FF47A7101FB1040B0FBFAF023
:1042D000C0B20CEB400432B10CEB420102221620BA
:1042E00003F08AFD02E0B9F1000F04D0022221465A
:1042F000142003F081FD02223946122003F07CFDD8
:1043000002224146102003F077FD4FF00A00B5FB72
:10431000F0F3D146B5FBF9F700FB13530AA901EB03
:1043200043084FF0640101FB1751B1FBF0F06C46FC
:1043300017F0FF0204EB400505D004EB4201022216
:10434000082003F059FD022229460A2003F054FDFB
:10435000022241460C2003F04FFD4FF00A01B6FB4C
:10436000F1F3B6FBF9F201FB13630AAD05EB43076A
:1043700012F0FF004FF0640303FB1262B2FBF1F195
:104380006A4602EB410505D004EB400102221046CB
:1043900003F032FD02222946042003F02DFD022203
:1043A0003946062003F028FD1AB0BDE8F08700006A
:1043B0000F0506000B060F0206030D030D0707008D
:1043C0000F070F03050F0006060B020F0306030D70
:1043D000070D0007070F030F0F0D06080B0E0F0A3E
:1043E000060B0D0B0D0F07080F0F0F0B0D0F080617
:1043F0000E0B0A0F0B060B0D0F0D08070F0F0B0FFF
:1044000005000020500100202DE9F0479AB0044635
:104410000D46164614226DA105A8FCF731FE1422A4
:104420006FA16846FCF72CFE142272A10FA8FCF7BE
:1044300027FE142274A10AA8FCF722FE01211F20E6
:1044400003F000FD0C211A2003F0FCFC734F3878B8
:1044500018B90021182003F0F5FC3878012803D1A1
:104460000421182003F0EEFC3878022803D1022141
:10447000182003F0E7FC3878032803D10121182025
:1044800003F0E0FC664F387818B90A211F2003F0CA
:10449000D9FC3878012803D10C211F2003F0D2FC6D
:1044A0004FF47A71B4FBF1F001FB10434FF0640A52
:1044B000B3FBFAF101F0FF090A21B4FBF1F301FBB0
:1044C00013430FAF07EB43085346B4FBF3F70AFB64
:1044D0001747B7FBF1F10DF1140C0CEB4107C2B219
:1044E0004FF47A7101FB1040B0FBFAF0C0B20CEB54
:1044F000400432B10CEB42010222162003F07CFC96
:1045000002E0B9F1000F04D002222146142003F08A
:1045100073FC02223946122003F06EFC022241464F
:10452000102003F069FC4FF00A00B5FBF0F3D14610
:10453000B5FBF9F700FB13530AA901EB43084FF051
:10454000640101FB1751B1FBF0F06C4617F0FF025C
:1045500004EB400505D004EB42010222082003F0E1
:104560004BFC022229460A2003F046FC0222414667
:104570000C2003F041FC4FF00A01B6FBF1F3B6FB4F
:10458000F9F201FB13630AAD05EB430712F0FF00DC
:104590004FF0640303FB1262B2FBF1F16A4602EBD7
:1045A000410505D004EB40010222104603F024FC33
:1045B00002222946042003F01FFC0222394606206D
:1045C00003F01AFC1AB0BDE8F08700000F050600E2
:1045D0000B060F0206030D030D0707000F070F035D
:1045E000050F0006060B020F0306030D070D00075B
:1045F000070F030F0F0D06080B0E0F0A060B0D0B0E
:104600000D0F07080F0F0F0B0D0F08060E0B0A0FEB
:104610000B060B0D0F0D08070F0F0B0F05000020E9
:10462000500100201CB50121022002F019FFE020FA
:10463000009001208DF8040000208DF80600022073
:104640000F4C8DF8050069462046FDF79FFC2021A0
:104650002046FDF7F2FC40212046FDF7EEFC8021CC
:104660002046FDF7EAFC022003F07EF8292003F043
:104670007BF8012003F078F8032003F075F81CBDE7
:1046800000040240FEE700007CB5134E4FF40055D5
:1046900029463046FDF7CFFC01208DF804000220AA
:1046A0006C008DF80500009469463046FDF76EFCFD
:1046B00021463046FDF7BFFC022008F065F9294687
:1046C0003046FDF7BAFC022008F05EF92946304674
:1046D000FDF7B1FC7CBD0000000402401CB50121C7
:1046E000022002F0BDFE4FF4E040009001208DF862
:1046F000040002200A4C8DF8050069462046FDF7AB
:1047000045FCA1142046FDF796FC4FF400512046CD
:10471000FDF793FC4FF480412046FDF78EFC1CBD55
:10472000000402407CB5134E4FF400552946304634
:10473000FDF781FC01208DF8040002206C008DF84B
:104740000500009469463046FDF720FC21463046BE
:10475000FDF773FC022008F017F929463046FDF7F3
:104760006CFC022008F010F929463046FDF763FC86
:104770007CBD0000000402402DE9FC4700241B4ED4
:1047800080464FF480478DF8044000978DF807402D
:1047900069463046FDF7FAFB0025B9467F103946D9
:1047A0003046FDF748FC022008F0EEF83946304666
:1047B000FDF743FC6006040E49463046FDF734FC25
:1047C00008B1641CE4B2012008F0DEF86D1CEDB203
:1047D000082DE4D3B8F1000F04D0FFF755FF2046B1
:1047E000BDE8FC87FFF79EFFF9E7000000040240E8
:1047F0002DE9FC47054601208DF8040002201A4EE1
:104800004FF480478DF80500009769463046FDF764
:10481000BDFB4FF4005841463046FDF70CFCB9464D
:104820000024474628064946304602D4FDF703FCDB
:1048300001E0FDF702FC6806050E022008F0A4F86E
:1048400039463046FDF7F9FB022008F09DF839465D
:104850003046FDF7F0FB022008F096F8641CE4B245
:10486000082CDFD3BDE8FC87000402407CB50120A2
:104870008DF804000220114D4FF480448DF805009E
:10488000009469462846FDF781FB21462846FDF73E
:10489000D4FB661031462846FDF7CFFB032008F015
:1048A00073F821462846FDF7C6FB032008F06CF894
:1048B00031462846FDF7BFFB7CBD000000040240E6
:1048C0007CB501208DF804000220114D4FF4804486
:1048D0008DF80500009469462846FDF757FB6610E1
:1048E00031462846FDF7A7FB21462846FDF7A3FBE6
:1048F000032008F049F831462846FDF79EFB214683
:104900002846FDF79AFB032008F03EF87CBD000026
:10491000000402402DE9FC410024184E4FF480456C
:104920008DF8044000958DF8074069463046FDF744
:104930002DFB29463046FDF780FB012008F024F8C6
:104940006F1039463046FDF778FB012008F01CF85F
:1049500008E0641CE4B2FA2C04D9FFF7B1FF01208F
:10496000BDE8FC8129463046FDF75EFB0028F0D10A
:1049700039463046FDF75FFB0020F1E700040240B6
:1049800002494AF6AA200860704700000030004043
:10499000054A45F25553136050609160580010600D
:1049A0004CF6CC4010607047003000402DE9F047D5
:1049B0009CB001215E4802F053FD01214FF4E060FC
:1049C00002F072FD4FF0806000905A48019001257E
:1049D000594802A9002431C106A8EE026F034FF422
:1049E00080784FF400390594A0E8D003CDE90B4559
:1049F000DFF848A10D94694650460E94FDF798F8EB
:104A000001215046FDF78AF84D4802A9CDE9004042
:104A10004948DFF828A1801C31C106A80594A0E808
:104A2000D003CDE90B45AAF1180A0D94694650460A
:104A30000E94FDF77DF801215046FDF76FF86806EA
:104A40000090404801903C4802A9001D31C106A8D1
:104A50000594A0E8D003394ECDE90B4518360D94E6
:104A6000694630460E94FDF763F801213046FDF7A4
:104A700055F83F20032615908DF858608DF85B405F
:104A800015A93148FDF782FA922015908DF85860EB
:104A90008DF85B4015A92D48FDF778FA1794189406
:104AA000199417A81A94FCF715FC0F948DF8404040
:104AB000119413941F4C8DF841504C3C8DF850507C
:104AC0000FA92046FCF732FC1E4D0FA94C3D28468D
:104AD000FCF72CFC1A4E0FA94C3E3046FCF726FC86
:104AE00001212046FCF718FC01212846FCF714FCA4
:104AF00001213046FCF710FC01212046FCF702FCA6
:104B000001212846FCF7FEFB01213046FCF7FAFBA9
:104B100001212046FCF7D4FB01212846FCF7D0FBFD
:104B200001213046FCF7CCFB1CB0BDE8F08700004B
:104B3000050040004C22014016000020286402407D
:104B40004C2001404C21014000080240000002407E
:104B50001CB50121082002F083FC4FF4FE40002424
:104B600000908DF8044069460848FDF70FFA0121CE
:104B7000102002F075FC4FF4607000908DF8044036
:104B800069460348FDF702FA1CBD0000000C024014
:104B9000001002404FF400410148FDF74CBA0000FC
:104BA000000C024010B54FF400410348FDF745FAF0
:104BB00002496420487310BD000C02400000002030
:104BC0002DE9F0470C46F9A1904699468CB091E842
:104BD0002C00C968DDF850A0CDE90251F7A1CDE95C
:104BE000002391E82C00C968CDE90423CDE90651E2
:104BF000F6A104AE91E82C00C96808AFCDE90A51CE
:104C0000611E6D46CDE9082340B101287DD10F29F1
:104C10007CD8CCB2B8F1000F79D0D4E00F2974D889
:104C2000CCB2B8F1000F11D1385D012140F4E07031
:104C3000FCF7B6FE285D012140F4E070FCF7B0FE01
:104C4000305D012140F4E070FCF7AAFEB9F1000FDD
:104C500011D1385D022140F4E070FCF7A1FE285D1F
:104C6000022140F4E070FCF79BFE305D022140F42D
:104C7000E070FCF795FEBAF1000F11D1385D032109
:104C800040F4E070FCF78CFE285D032140F4E070F6
:104C9000FCF786FE305D032140F4E070FCF780FEF7
:104CA000B8F1010F11D1305D012140F4E070FCF743
:104CB00077FE285D012140F4E070FCF771FE385D5D
:104CC000012140F4E070FCF76BFEB9F1010F11D146
:104CD000305D022140F4E070FCF762FE285D0221A5
:104CE00040F4E070FCF75CFE385D022140F4E070B7
:104CF000FCF756FEBAF1010F15D1305D032140F4E7
:104D0000E070FCF74DFE285D02E0B7E0C6E048E049
:104D100040F4E0700321FCF743FE385D032140F4CA
:104D2000E070FCF73DFEB8F1020F11D1385D0121B2
:104D300040F4E070FCF734FE305D012140F4E07097
:104D4000FCF72EFE285D012140F4E070FCF728FE00
:104D5000B9F1020F11D1385D022140F4E070FCF787
:104D60001FFE305D022140F4E070FCF719FE285D63
:104D7000022140F4E070FCF713FEBAF1020F7DD17E
:104D8000385D032140F4E070FCF70AFE305D03213A
:104D900040F4E070FCF704FE285D032140F4E0706D
:104DA000FCE0385D012140F4E070FCF7F9FD285D7E
:104DB000012140F4E070FCF7F3FD305D012140F487
:104DC000E070FCF7EDFDB9F1000F11D1385D022163
:104DD00040F4E070FCF7E4FD285D022140F4E0704F
:104DE000FCF7DEFD305D022140F4E070FCF7D8FDF9
:104DF000B8F1010F11D1305D012140F4E070FCF7F2
:104E0000CFFD285D012140F4E070FCF7C9FD385D5D
:104E1000012140F4E070FCF7C3FDB9F1010F11D19D
:104E2000305D022140F4E070FCF7BAFD285D0221FC
:104E300040F4E070FCF7B4FD385D022140F4E0700E
:104E4000FCF7AEFDB8F1020F11D1385D012140F43D
:104E5000E070FCF7A5FD305D012140F4E070FCF747
:104E60009FFD285D012140F4E070FCF799FDB9F148
:104E7000020F13D1385D40F4E07000E08FE00221B2
:104E8000FCF78EFD305D022140F4E070FCF788FDF8
:104E9000285D022140F4E070FCF782FD113C0F2CEC
:104EA0007DD8E4B2B8F1000F11D1385D042140F48F
:104EB000E070FCF775FD285D042140F4E070FCF71C
:104EC0006FFD305D042140F4E070FCF769FDB9F13D
:104ED000000F11D1385D052140F4E070FCF760FD52
:104EE000285D052140F4E070FCF75AFD305D052196
:104EF00040F4E070FCF754FDB8F1010F11D1305DC2
:104F0000042140F4E070FCF74BFD285D042140F4DF
:104F1000E070FCF745FD385D042140F4E070FCF7DB
:104F20003FFDB9F1010F11D1305D052140F4E07072
:104F3000FCF736FD285D052140F4E070FCF730FDFC
:104F4000385D052140F4E070FCF72AFDB8F1020F4E
:104F500011D1385D042140F4E070FCF721FD305D93
:104F6000042140F4E070FCF71BFD285D042140F4AF
:104F7000E070FCF715FDB9F1020F13D1385D052182
:104F800040F4E070FCF70CFD305D052140F4E0706A
:104F9000FCF706FD285D052140F4E07000E001E02B
:104FA000FCF7FEFC0CB0BDE8F0870000383B303366
:104FB000282B2023181B1013080B0003393C313415
:104FC000292C2124191C1114090C01043A3D3235F5
:104FD0002A2D22251A1D12150A0D02052DE9F0476A
:104FE0008EB00C4615469846FEA1DDF8589091E823
:104FF0004C00C968CDE90823CDE90A61FDA10DF196
:10500000200A91E84C00C968CDE90023CDE902618E
:10501000FCA104AF91E84C00C968CDE90423CDE9B7
:105020000661611E6E4648B101287CD10F297BD8EC
:10503000CCB2002D79D0032D77D0CDE00F2972D8D6
:10504000CCB20DB1032D12D1385D012140F4E070D6
:10505000FCF7A6FC1AF80400012140F4E070FCF70C
:105060009FFC305D012140F4C070FCF799FCB8F161
:10507000000F02D0B8F1030F12D1385D022140F4C5
:10508000E070FCF78DFC1AF80400022140F4E07097
:10509000FCF786FC305D022140F4C070FCF780FC18
:1050A000B9F1000F02D0B9F1030F12D1385D03211D
:1050B00040F4E070FCF774FC1AF80400032140F49B
:1050C000E070FCF76DFC305D032140F4C070FCF72C
:1050D00067FC012D12D1305D012140F4E070FCF736
:1050E0005FFC1AF80400012140F4E070FCF758FC62
:1050F000385D012140F4C070FCF752FCB8F1010F9B
:1051000016D1305D022140F4E070FCF749FC1AF83A
:105110000400022140F4E070FCF742FC385D0221FB
:1051200040F4C07002E0B7E0CCE042E0FCF738FCAD
:10513000B9F1010F12D1305D032140F4E070FCF7AA
:105140002FFC1AF80400032140F4E070FCF728FC5F
:10515000385D032140F4C070FCF722FC022D0BD116
:10516000385D012140F4C070FCF71AFC305D01216C
:1051700040F4C070FCF714FCB8F1020F0BD1385D9D
:10518000022140F4C070FCF70BFC305D022140F4BA
:10519000C070FCF705FCB9F1020F7DD1385D032129
:1051A00040F4C070FCF7FCFB305D032140F4C0709C
:1051B00015E1385D012140F4E070FCF7F1FB1AF8CD
:1051C0000400012140F4E070FCF7EAFB305D0121AE
:1051D00040F4C070FCF7E4FBB8F1000F02D0B8F166
:1051E000030F12D1385D022140F4E070FCF7D8FBC8
:1051F0001AF80400022140F4E070FCF7D1FB305DA6
:10520000022140F4C070FCF7CBFB012D12D1305DC0
:10521000012140F4E070FCF7C3FB1AF804000121FF
:1052200040F4E070FCF7BCFB385D012140F4C07035
:10523000FCF7B6FBB8F1010F12D1305D022140F44A
:10524000E070FCF7ADFB1AF80400022140F4E070B6
:10525000FCF7A6FB385D022140F4C070FCF7A0FB10
:10526000022D0BD1385D012140F4C070FCF798FB92
:10527000305D012140F4C070FCF792FBB8F1020FE1
:105280000DD1385D022140F4C070FCF789FB305D20
:10529000022140F4C07000E095E0FCF781FB385D2E
:1052A000032140F4E070FCF77BFB1AF804000321B3
:1052B00040F4E070FCF774FB305D032140F4E070D3
:1052C000FCF76EFB113C0F2C7DD8E4B20DB1032D21
:1052D00012D1385D042140F4E070FCF761FB1AF84C
:1052E0000400042140F4E070FCF75AFB305D042117
:1052F00040F4C070FCF754FBB8F1000F01D0032D4F
:1053000012D1385D052140F4E070FCF749FB1AF832
:105310000400052140F4E070FCF742FB305D0521FC
:1053200040F4C070FCF73CFB012D12D1305D04212C
:1053300040F4E070FCF734FB1AF80400042140F458
:10534000E070FCF72DFB385D042140F4C070FCF7E1
:1053500027FBB8F1010F12D1305D052140F4E07058
:10536000FCF71EFB1AF80400052140F4E070FCF77E
:1053700017FB385D052140F4C070FCF711FB022DCE
:105380000BD1385D042140F4C070FCF709FB305D9F
:10539000042140F4C070FCF703FBB8F1020F0BD1FD
:1053A000385D052140F4C070FCF7FAFA305D052144
:1053B00040F4C070FCF7F4FA385D062140F4E07068
:1053C000FCF7EEFA00E00CE01AF80400062140F4C5
:1053D000E070FCF7E5FA305D062140F4E070FCF780
:1053E000DFFA17E0383B3033282B2023181B10132B
:1053F000080B0003393C3134292C2124191C1114C9
:10540000090C01043A3D32352A2D22251A1D1215A8
:105410000A0D02050EB0BDE8F087FEE770474FF4B5
:10542000A06000F033B8000070B50F21C478027896
:1054300001234FF0E026E4B1124C246804F4E06448
:10544000C4F5E064C4F30724C4F10405E1404478E2
:10545000AC4085780D4025430B4C2901115500784F
:1054600000F01F018B40400906EB8000C0F80031BE
:1054700070BD02F01F008340500906EB8000C0F8A9
:10548000803170BD0CED00E000E400E0024908430B
:1054900002490860704700000000FA050CED00E0CA
:1054A0007047000070B505000E46144605D036B1B1
:1054B0000E48807828B112200DE004200BE00C206B
:1054C00009E02878012808D0022806D0032804D053
:1054D000042802D00120107070BDFAF7E5FE6E615D
:1054E000FAF7E6FE0020207070BD0000C00000202A
:1054F00030B587B000F070F82A4800240463847047
:10550000C4700472C471C460C46184614461447035
:105510008471214600F134025454491CC9B208294F
:10552000FAD3047144718462046201F049F801F015
:105530001BF800F0F3FF01F085F801F0A9F802AACA
:105540000325202031C218494FF6FF70CDE9000134
:1055500001F17C023F230021144800F09FFA05AAC4
:1055600013A13F2000F0F8FA02AA402031C21449EA
:105570004FF6FE70CDE9000101F1FC023E2300214F
:10558000104800F08BFA05AA0FA13E2000F0E4FAC3
:1055900000F090FC00F026F807B0BDE83040FFF7BF
:1055A0007FBF0000C0000020F4BB00204D68000851
:1055B00075432F4F532D49492049646C6500000005
:1055C000F4BA00206968000875432F4F532D4949EC
:1055D0002053746174000000014900200880704766
:1055E000BC000020704700000449C879012804D19C
:1055F0008878FF2801D2401C88707047C0000020C6
:1056000070B5144DE879012822D1FAF74DFE044611
:10561000A87820B1401E10F0FF00A87013D1E878E0
:1056200088B901F079F80C48697950F82100A8622E
:105630002A79914207D0C16B491CC163E868401CBC
:10564000E860FAF74DFE2046BDE87040FAF730BE3C
:1056500070BD0000C000002074BC002070B505467D
:105660000E48007808B1002070BDFAF71DFE014613
:105670000B4804680CB1626802600846FAF718FE2D
:105680004CB1012020700020208106A0656060617F
:10569000204600F039FF204670BD0000C200002007
:1056A000D00000203F0000002DE9F04705008846AB
:1056B000144604D02878012803D001200AE00420F1
:1056C00008E02C48007808B1022003E02A4800785E
:1056D00020B10D2010700020BDE8F087FAF7E4FD3E
:1056E0006E68074600213EB1884638466960FAF781
:1056F000DFFD84F800803AE0DFF880A08946DAF820
:10570000000010F8342F42F002020270417040F89D
:10571000048C284600F0CAFE3846FAF7C9FD00F0AE
:10572000D7FFFAF7C1FD0746DAF8000090F8351008
:1057300031B1022908D0294600F088FE0A2004E091
:10574000466A84F8009001E00E202070DAF800101C
:10575000384601F11C0181F8189081F81990C1F8C0
:105760000090C1F80490C1F80890FAF7A1FD304606
:10577000B2E70000C2000020C3000020E0000020CB
:1057800070B504000D4605D035B12078012805D04C
:10579000012070BD042070BD032070BDFAF784FDA8
:1057A0000646A07A58B1002302222946204600F07E
:1057B00011FE3046FAF77CFD00F08AFF0AE06068CF
:1057C00020B13046FAF774FD142070BD3046656094
:1057D000FAF76EFD002070BD10B5094CE079012884
:1057E0000CD1FAF761FDA17821B9E178FF2901D246
:1057F000491CE170BDE81040FAF75ABD10BD000029
:10580000C000002010B50D4CE079012814D1FAF742
:105810004BFDE17831B1491E11F0FF01E17001D17A
:10582000A17819B1BDE81040FAF742BDFAF740FD82
:10583000BDE8104000F04CBF10BD0000C0000020CB
:1058400070B505460E48007808B1002070BDFAF723
:105850002BFD01460B4804680CB1626802600846E3
:10586000FAF726FD4CB103202070258100206060EE
:1058700005A06061204600F047FE204670BD000094
:10588000C2000020D00000203F0000002DE9F047BA
:1058900005008846144604D02878032803D0012048
:1058A0000AE0042008E02648007808B1022003E05E
:1058B0002448007818B10D201070BDE8F087FAF781
:1058C000F3FC06462889002730B1401E2881304667
:1058D000FAF7EEFC2770F0E7DFF86C90D9F80000DB
:1058E00010F8341F41F001010170477040F8048C3A
:1058F000284600F0DBFD3046FAF7DAFC00F0E8FE5F
:10590000FAF7D2FC0646D9F8000090F8351031B10C
:10591000022906D0294600F099FD0A2002E02770EE
:1059200001E00E202070D9F8000000F11C0007767D
:105930004776076047603046BDE8F047FAF7B8BCE5
:10594000C2000020C3000020E000002070B5040069
:1059500004D02078032803D0012070BD042070BD3E
:10596000FAF7A2FC0546A07A58B100230122194695
:10597000204600F02FFD2846FAF79AFC00F0A8FE1A
:1059800009E020894FF6FF71884206D2401C208131
:105990002846FAF78DFC002070BD2846FAF788FCEF
:1059A000332070BD10B5094CE07900280CD100F00F
:1059B000B3FE60790649207151F82000A062206290
:1059C000BDE81040FAF777BC10BD0000C000002011
:1059D00074BC002010B5022000F0C6F9FAF764FC90
:1059E000084C0021E161FAF763FC642000F0BCF987
:1059F000FAF75AFCE169616101216170BDE810406C
:105A0000FAF756BCC0000020FBF779BD2DE9FE4334
:105A100005460F4690461C463F2B02D92A20BDE87A
:105A2000FE83FAF741FC1A49097819B1FAF740FCEC
:105A30003C20F4E7174E56F8241019B1FAF738FC59
:105A40002820ECE7012146F82410FAF731FC002366
:105A500042463946284600F0FBF8002701460097E9
:105A600001973B463A462046029700F065FE050046
:105A700007D0FAF719FC46F82470FAF719FC284603
:105A8000CDE7054800780128F9D100F021FEF6E7BE
:105A9000C200002074BC0020C70000202DE9F04F98
:105AA00081462DED028B83B08A46DDE90F879DED9F
:105AB000118A129D93461C463F2B05D92A2003B01C
:105AC000BDEC028BBDE8F08FFAF7EEFB1D490978BB
:105AD00019B1FAF7EDFB3C20F1E71B4E56F8241004
