:020000040800F2
:1000000050D400206902000869530008D145000857
:1000100067530008C9180008E97C000800000000C8
:100020000000000000000000000000004176000811
:10003000B11A000800000000EB020008F577000884
:10004000830200088302000883020008830200087C
:10005000830200088302000883020008830200086C
:10006000830200088302000883020008830200085C
:10007000830200088302000883020008830200084C
:10008000830200088302000883020008830200083C
:10009000830200088302000883020008B11B0008E5
:1000A000830200088302000883020008830200081C
:1000B0007578000883020008597900088302000857
:1000C00083020008830200088302000883020008FC
:1000D000830200088302000883020008817B000875
:1000E000B51A000883020008830200088302000892
:1000F00083020008830200088302000883020008CC
:1001000083020008830200088302000883020008BB
:10011000AD7A000883020008830200088302000809
:10012000830200088302000883020008830200089B
:10013000830200088302000883020008830200088B
:10014000830200088302000883020008830200087B
:10015000830200088302000883020008830200086B
:10016000830200088302000883020008830200085B
:10017000830200088302000883020008830200084B
:10018000830200088302000800F002F800F05CF827
:100190000AA090E8000C82448344AAF10107DA45E2
:1001A00001D100F051F8AFF2090EBAE80F0013F0D8
:1001B000010F18BFFB1A43F001031847144901004F
:1001C000344901000A444FF0000C10F8013B13F0D1
:1001D000070408BF10F8014B1D1108BF10F8015BA0
:1001E000641E05D010F8016B641E01F8016BF9D193
:1001F00013F0080F1EBF10F8014BAD1C0C1B09D1EA
:100200006D1E58BF01F801CBFAD505E014F8016B5B
:1002100001F8016B6D1EF9D59142D6D370470000ED
:100220000023002400250026103A28BF78C1FBD8FF
:10023000520728BF30C148BF0B6070471FB50EF092
:100240003EF81FBD10B510BD00F054FF1146FFF77A
:10025000F5FF0CF063FF00F072FF03B4FFF7F2FF4D
:1002600003BC00F073FF00000948804709480047BD
:10027000FEE7FEE7FEE7FEE7FEE7FEE7FEE7FEE756
:10028000FEE7FEE704480549054A064B70470000B3
:10029000197800088901000850CE002050D40020B1
:1002A00050D0002050D00020EFF3108072B670477D
:1002B00080F3108870471D484FF0FF010170002047
:1002C00080F309881A48012101701A484FF08051C3
:1002D000016062B6FEE717484FF080510160704739
:1002E00014484FF080510160704772B6EFF30980F7
:1002F00028B1203880E8F00F0F490968086000B580
:100300000E4880475DF804EB0D480E490A780270EC
:1003100009480D490A680260106890E8F00F203023
:1003200080F309884EF0040E62B6704722ED00E0BB
:10033000BB00002004ED00E0D4000020B15C000808
:10034000B8000020B9000020DC00002072B6704721
:1003500062B67047EFF3108072B6704780F3108872
:100360007047B0FA80F0704790FAA0F0704730BF45
:10037000704720BF70470000DFED2E0AB5EEC00ABF
:1003800060EE200ABDEEE01A11EE100AF1EE10FA4E
:1003900038BF401E00EE100ADFED271AF7EE005AB4
:1003A000B8EEC00ADFED274A244930EEC01A21EE2C
:1003B000210AFCEEC00A10EE900A00EE900A01EB52
:1003C0008000B8EE600ADFED1E0AF0EC012A11EEA3
:1003D000210AF6EE001AB0EC013AF0EC013A20EEF8
:1003E000001A20EE216A40EE615A20EE245A21EED6
:1003F000212A90ED004A00EE602A66EE010A40EEE6
:10040000400A05EE412A70EEA55AF0EE400A41EE90
:10041000210A46EE410A25EE011A00EE641A22EE88
:10042000820A63EEA00A03EE250A44EE010A30EECA
:10043000200A704783F9223E0000804324E400082C
:10044000ABAAAA3EABAA2A3E9FED3A0A5FEA920CFB
:1004500053D000BFB0EC011A0B1DF0EC010A21EEE5
:10046000011A00EEA01AB5EEC01AF1EE10FAC6BFDE
:10047000F1EEC10AC1ED000A81ED000AF0EC010ABB
:10048000191DB0EC011A60EEA00A41EE010AF5EE6A
:10049000C00AF1EE10FAC6BFF1EEE00AC3ED000AA1
:1004A00083ED000AB0EC011A0B1DF0EC010A21EEFD
:1004B000011A00EEA01AB5EEC01AF1EE10FAC6BF8E
:1004C000F1EEC10AC1ED000A81ED000AB0EC011A9B
:1004D000191DF0EC010A21EE011A00EEA01AB5EE8A
:1004E000C01AF1EE10FAC6BFF1EEC10AC3ED000A60
:1004F00083ED000ABCF1010CACD112F0030208BF7D
:10050000704700BFF0EC010A0B46B0EC011A091D60
:1005100060EEA00A41EE010AF5EEC00AF1EE10FA13
:10052000C6BFF1EEE00AC3ED000A83ED000A521ED9
:10053000E8D17047000000002DE9F00700EBC10989
:10054000DDE90778D0F800A0C9F800A007EB011496
:10055000D0F804A0251FA9F10406C9F804A003EBF4
:10056000C80907F1080C00F1080402EBC8024B1E91
:1005700031D000BFF2EC011A96ED002A92ED001A7C
:1005800002EBC802B4EC010A121FF4EC012A60EE7F
:10059000210A20EE010A32EE823A02EEA10AD9EDDA
:1005A000001A43EE410A09EBC80902EE610A16ED92
:1005B000012A083E42EE210A02EE410AECEC010A51
:1005C000ACEC010AB1EE400A85ED000A45ED010AE6
:1005D000083D5B1ECED190ED000AD0ED010A07EB7D
:1005E000C10130EE600A81ED000A9FED5D0A81EDE8
:1005F000010AD0ED000A90ED011A70EE810AC7EDF4
:10060000000A87ED010ABDE8F007704770B400EBFF
:10061000C105DDE903C42D1D002904BF70BC70476E
:10062000F2EC011A95ED002A92ED001A02EBC402D9
:10063000B0EC010A121FF0EC012A60EE210A20EE54
:10064000410A32EE823A02EEA10AD3ED001A43EEDD
:10065000010A03EBC40302EE610A15ED012A083D0D
:10066000491E42EE210A02EE010AECEC010AACEC52
:10067000010AD5D170BC70472DE9F04305464469A5
:10068000807983B00F461646012809D0A3892188B6
:100690003846626800F036F9E87901284ED053E018
:1006A000AA88D5E9030307EBC20CD5F808803146C8
:1006B0000CF1040C5AB300BFB0EC011A9CED002AF7
:1006C000D0ED001A00EBC800B7EC010A001FF7ECF0
:1006D000012A521E60EE010A20EE610A32EE823AD1
:1006E00002EE810A93ED001A43EE210A03EBC803E0
:1006F00002EE410A1CED012AACF1080C42EE010A9F
:1007000002EE210AE1EC010AA1EC010AD4D194ED38
:10071000040AA38921883046626800F095FAE879D6
:1007200001281CBF03B0BDE8F083E2892188A368DB
:1007300003B03046BDE8F04300F08CB8E289218870
:100740003846A36800F086F8A868CDE90060D5E9CE
:100750000323A9883846FFF7EFFE03B0BDE8F08316
:100760000000000070B592B2DDF810C055080260BC
:100770008580184EC66006F50056DBB2066100247F
:10078000837180F807C0802A04BF102282600BD0DA
:10079000B2F5007F08BF042212D0B2F5006F14BF7B
:1007A0004FF0FF3401220BD0002B8C4641614FF0FB
:1007B000000307D001222946604600F015FC06E040
:1007C0008260F1E700222946604600F00DFC2046D9
:1007D00070BD000030E8000870B40025B0EC010ADC
:1007E000A1F1010CF0EC010AB4EEE00AF1EE10FA0E
:1007F0003CBFB0EE600A0125ACF10104A446B4F19F
:10080000004F0ED3F0EC010AB4EEE00AF1EE10FA5C
:100810003CBFB0EE600AA1EB0C05BCF1010CF1D1BC
:1008200013E0002CC8BF00260FDD00BFF0EC010A6A
:10083000B4EEE00AF1EE10FA04D2ACEB0605B0EE2D
:10084000600A4D1B761C641EF0D182ED000A1D600B
:1008500070BC70472DE9F0014E0801244FF0000CE8
:1008600004EB51076146A6F102082CE061452AD24B
:1008700000EBCC0500EBC104D5ED000A94ED000AB5
:10088000C4ED000A85ED000AD5ED010A94ED010AD8
:10089000C4ED010A85ED010A0CEB0705CC1900EB4C
:1008A000C50500EBC404D5ED000A94ED000AC4EDC3
:1008B000000A85ED000AD5ED010A94ED010AC4EDA8
:1008C000010A85ED010A00EBC104B44400EBCC0C35
:1008D00094ED020ADCED000A891CC4ED020A8CEDDD
:1008E000000A94ED030ADCF80450E5608CED010A7F
:1008F000B3F800C089B203EB42034145B6D9BDE865
:10090000F00170472DE9F04F4FEA910C4FF00008CD
:100910004746644608EB0C0505EB0C0909EB0C0691
:1009200000EBC80A00EBC9099AED000AD9ED000AEC
:1009300099ED012A00EBC50530EE201A30EE600A71
:10094000DAED010A00EBC60608F1010870EE821A22
:1009500070EEC20A95ED002AD6ED002A641E32EE32
:10096000222A71EE022A31EE421ACAED002A95EDD2
:10097000012AD6ED012A32EE222A71EE822A71EE88
:10098000C21ACAED012A95ED012AD6ED012A96ED8B
:10099000003A4FEA470A32EE622AD5ED002A02EB0E
:1009A000CA0B72EEC32A9BED003ADBED013A21EE51
:1009B000034A01EEA34A61EE831A41EE631A85ED04
:1009C000004A30EE021A30EE420AC5ED011A02EB7F
:1009D000C70570EEE21A95ED002A70EEA20AD5ED79
:1009E000012A21EE023A0AEB070502EBC5051F4476
:1009F00001EEA23A61EE821A41EE621A89ED003AE6
:100A0000C9ED011AD5ED001A95ED011A20EE212A43
:100A100000EE812A60EEA10A40EE410A86ED002A2E
:100A2000C6ED010A7FF476AF9B044FEA134BE6460E
:100A3000BCF1040F7DD9E0464FEA9C0C4FF0000951
:100A4000CA46BCF1000F75D94FEA490404EB09030B
:100A500002EBC90502EBC40402EBC30395ED001AD7
:100A6000D5ED011A94ED000AD4ED010A93ED002AA8
:100A7000D3ED012AD94453468A4573D203EB0C04C3
:100A800004EB0C0606EB0C0500EBC30700EBC606F7
:100A900097ED003AD6ED003A96ED015A00EBC4040A
:100AA00073EE234A33EE633AD7ED013A00EBC50506
:100AB00033EE854A73EEC53A94ED005AD5ED005AEF
:100AC00035EE255A74EE855A74EEC54AC7ED005AC4
:100AD00094ED015AD5ED015A35EE255A74EE055ABA
:100AE00034EE454AC7ED015A94ED015AD5ED015A4D
:100AF00095ED006A35EE655AD4ED005A75EEC65A8A
:100B000024EE806A04EE206A24EE004A04EEE04AF5
:100B100084ED006A73EEE54A73EEA53A84ED014A6E
:100B200033EE054A33EE453A24EE015A04EEA15A5B
:100B300001E026E01BE064EE814A86ED005A434462
:100B40008B4244EE614A23EE024A03EEA24A63EE70
:100B5000823AC6ED014A43EE623A85ED004AC5EDA0
:100B6000013A8BD30AF1010AE245FFF46DAF4FEA77
:100B70008B434FEA9E0E4FEA134BBEF1040F3FF634
:100B80005AAFA1EB0C0100224B1C4FEA9C04002B36
:100B90008CBF1F46BDE8F08F11190E19331900EBF9
:100BA000C20500EBC60695ED000AD6ED000A95EDEC
:100BB000012A96ED011A70EE201A70EE600A32EEEC
:100BC000010A00EBC10100EBC30332EE411A91EDC3
:100BD000002AD3ED002A6244974232EE222A71EEB7
:100BE000822A31EEC22AC5ED002AD1ED011AD3EDD9
:100BF000012A71EEA21A70EE212AC5ED012A70EECB
:100C0000612A91ED010AD3ED011A93ED003A70EEDD
:100C1000611A91ED000A81ED002AC1ED012A30EE42
:100C2000430A30EEA12A70EEE10A71EE401A31EE6D
:100C3000000A86ED002AC6ED011AC3ED000A83ED15
:100C4000010AA9D8BDE8F08F2DE9F04F4FEA910CC9
:100C50004FF000084746644608EB0C0505EB0C0A0C
:100C60000AEB0C0600EBC80900EBCA0AD9ED000A32
:100C70009AED001ADAED012A00EBC50570EE811A33
:100C800070EEC10A99ED011A00EBC60608F10108E1
:100C900031EE222A31EE621AD5ED002A96ED003AA5
:100CA000641E72EE832A31EEA23A71EEE21A89EDE9
:100CB000003AD5ED012A96ED013A72EE832A32EE22
:100CC000223A32EE622A89ED013AD5ED012A96EDFB
:100CD000013AD6ED003A4FEA470972EEC32A95ED84
:100CE000003A02EBC90B33EE633ADBED003A9BEDC1
:100CF000014A61EEA34A42EE444A22EE232A01EE63
:100D0000842AC5ED004A70EEE21A70EEA20A85ED63
:100D1000012A02EBC70531EE032AD5ED002A31EE98
:100D2000431A95ED013A61EEA23A09EB070502EB91
:100D3000C5051F4442EE433A22EE222A01EE832AE1
:100D4000CAED003A8AED012AD5ED001A95ED012A87
:100D500060EEA12A41EE422A21EE211A00EE821A0B
:100D6000C6ED002A86ED011A7FF476AF9B044FEAA8
:100D7000134BE646BCF1040F7DD9E0464FEA9C0CCC
:100D80004FF00009CA46BCF1000F75D94FEA49047B
:100D900004EB090302EBC90502EBC40402EBC30335
:100DA000D5ED001A95ED012AD4ED000A94ED011A53
:100DB000D3ED002A93ED013AD94453468A4573D2C4
:100DC00003EB0C0404EB0C0606EB0C0500EBC3076D
:100DD00000EBC606D7ED003A96ED004AD6ED015A73
:100DE00000EBC40433EE845A73EEC43A97ED014A23
:100DF00000EBC50574EE254A34EE654AD4ED005A81
:100E000095ED006A75EE865A35EE256A35EE655A1F
:100E100087ED006AD4ED015A95ED016A75EE865AA8
:100E200034EEA56A74EEE54A87ED016AD4ED015A05
:100E300095ED016AD5ED006A75EEC65A94ED006A2B
:100E400036EE666A65EE206A44EEC16A64EEA04A38
:100E500045EE014AC4ED006A34EE065A34EE464AC5
:100E6000C4ED014A73EEE54A73EEA53A64EEA15A69
:100E700045EE425A01E026E01BE025EE215AC6ED80
:100E8000005A43448B4204EE825A63EEA24A44EE77
:100E9000434A24EE224A86ED015A03EE834AC5ED09
:100EA000004A85ED014A8BD30AF1010AE245FFF4BD
:100EB0006DAF4FEA8B434FEA9E0E4FEA134BBEF1E4
:100EC000040F3FF65AAFA1EB0C0100224B1C4FEA76
:100ED0009C06002B8CBF1F46BDE8F08F91198D1921
:100EE000AB1900EBC20400EBC505D4ED000AD5ED4B
:100EF000001AD4ED012A95ED012A30EEA11A70EE08
:100F0000E11A72EE820A00EBC10100EBC30332EE7C
:100F1000C22AD1ED002A93ED003A6244974272EE64
:100F2000832A31EE223A71EE622A23EE003A62EE13
:100F3000802A84ED003A91ED011A93ED013A31EEE9
:100F4000031A30EE813A23EE003A84ED013A30EE96
:100F5000C13AD1ED010A93ED011AD3ED003A30EE1A
:100F6000C11AD1ED000AC1ED002A63EE002A70EE2D
:100F7000E30AC1ED012A71EEC12A31EE811A72EE47
:100F8000201A72EE600A22EE802A21EE001A61EE2B
:100F9000801A85ED002A60EE800AC5ED011A83ED06
:100FA000001AC3ED010A99D8BDE8F08F30B50446A8
:100FB0000D4680782188A389626801280DD02846D3
:100FC000FFF7A0FCE078012818BF30BDE289218836
:100FD0002846A368BDE830403CE494ED040A284666
:100FE000FFF732FEEEE7000010B401801B4C4460B6
:100FF00082704FF0000CC370102925D040291BD0FF
:10100000B1F5807F10D0B1F5806F18BF4FF0FF3C75
:1010100002D010BC6046704701218181C181104916
:101020009FED100A816016E004218181C1810E4983
:101030009FED0E0A81600EE010218181C1810C4973
:101040009FED0C0A816006E040218181C1810A493F
:101050009FED0A0A816080ED040ADAE73028010872
:10106000304801080000803A364801080000803B03
:101070004E4801080000803CAE4801080000803D59
:1010800010B5203AC0F00B80B1E81850203AA0E823
:101090001850B1E81850A0E81850BFF4F5AF5FEA57
:1010A000027C24BFB1E81850A0E8185044BF18C90A
:1010B00018C0BDE810405FEA827C24BF51F8043BB1
:1010C00040F8043B08BF7047D20728BF31F8023B05
:1010D00048BF11F8012B28BF20F8023B48BF00F899
:1010E000012B7047704770477047000000487047F9
:1010F000F0CD00207546FFF7F9FFAE4605006946C2
:10110000534620F00700854618B020B5FFF7BAF81F
:10111000BDE820404FF000064FF000074FF00008F8
:101120004FF0000B21F00701AC46ACE8C009ACE879
:10113000C009ACE8C009ACE8C0098D467047044658
:10114000AFF300802046FFF788F870470149182068
:10115000ABBEFEE72600020010B5064C01220023BC
:101160001146204600F008F92046BDE8104000F086
:101170003DB900000020014010B5064C00230122BB
:101180000C21204600F0F8F82046BDE8104000F0A1
:101190002DB900000020014010B5064C00230122AB
:1011A0000421204600F0E8F82046BDE8104000F099
:1011B0001DB900000020014010B5064C002301229B
:1011C0000721204600F0D8F82046BDE8104000F086
:1011D0000DB900000020014030B58DB001211D483F
:1011E00006F0EAF803208DF82C00012500240A956A
:1011F0008DF82F400AA9184800F046FE069407947F
:10120000089406A8099400F065F800948DF804404D
:1012100002940494114C8DF805508DF814506946D1
:10122000204600F083F8002301220821204600F028
:10123000A3F80121204600F06FF80121204600F0BC
:1012400061F80121204600F03BF8204600F0CEF87E
:101250000DB030BD020040000004024000210140FA
:1012600010B5064C002301220A21204600F084F824
:101270002046BDE8104000F0B9B80000002201404F
:1012800010B5064C002301220B21204600F074F813
:101290002046BDE8104000F0A9B80000002201403F
:1012A00010B5064C002301220C21204600F064F802
:1012B0002046BDE8104000F099B80000002201402F
:1012C0000029816802D041F0010101E021F0010113
:1012D00081607047094B10B51A68094902EA01029A
:1012E000D0E9001441EA0401D0E9024044EA0004D4
:1012F00041EA040141EA0201196010BD04230140E2
:10130000E030FCFF0029816802D041F4807101E0E7
:1013100021F48071816070470029816802D041F416
:10132000007101E021F400718160704730B54268BE
:101330000F4B0C791A400B6842EA042213434360B6
:1013400082680C4B4D791A40D1E9034323438C68E2
:1013500044EA4504234313438360C26A097D22F4AF
:101360007002491EC9B242EA0151C16230BD00009B
:10137000FFFEFFFCFDF7FFC070B5072509290AD95C
:10138000C468A1F10A0606EB4606B540AC43B3407B
:101390001C43C46007E0046901EB4106B540AC435F
:1013A000B3401C4304611F23072A09D2446B521E19
:1013B00002EB820293409C4391400C43446370BD16
:1013C0000D2A09D2046BD21F02EB820293409C4388
:1013D00091400C43046370BDC46A0D3A02EB820273
:1013E00093409C4391400C43C46270BD816841F0BE
:1013F00080418160704703F017B910B5044603F0CF
:10140000DBF9A02003F09AF903F02AFA200A03F08E
:1014100095F903F025FAE0B203F090F903F020FA11
:1014200003F0CAF9A12003F089F903F019FA0020AA
:1014300003F048F9044603F0E9F9204610BD70B501
:1014400004460D4603F0B8F9A02003F077F903F045
:1014500007FA200A03F072F903F002FAE0B203F08F
:101460006DF903F0FDF9284603F068F903F0F8F987
:1014700003F0CCF9BDE870400A200BF049B8704782
:1014800038B5002004F090F8174CE066002004F016
:101490008BF82067002004F079F9A067002004F0A1
:1014A00083F86067002004F071F9E0676A460FA1D5
:1014B0000A2004F0F7FA03230F4A00210F4804F032
:1014C0004BFA02230E4A00210E4804F045FA01238C
:1014D0000D4A00210D4804F03FFA00230C4A19463A
:1014E0000C4804F039FA38BD0000002053746172D2
:1014F00074205461736B000028150020211500082A
:1015000028B500206118000828B6002071170008CF
:1015100028B70020B9D7000804F006BE70470000C5
:1015200008B58F4F8F4EDFF840B2904D05F096F919
:10153000387801287ED14FF400594946304600F0F2
:10154000F1FC002855D1DFF824A2687C0AF1800A5A
:10155000DAF8001007F0A0FA044601282DD15A4607
:10156000687CDBF8101007F097FA0346687C116876
:1015700007F092FA8446A87413B1012B15D01CE031
:101580009046687C516807F087FA0246687CD8F874
:10159000081007F081FA0346687CD8F80C1007F0B1
:1015A0007BFA0090697CA87C05E00220009003464D
:1015B0000246697C604603F0B7FC687C401C687496
:1015C0004946304600F0AEFC0028F9D0687C20285F
:1015D00001D901206874C2B2534608E01046196868
:1015E00007F05AFA044601280BD0521CD2B2202A26
:1015F000F4D94FF400694946304600F093FC20B11D
:1016000059E06A740020A886F3E7DFF860A1687CDF
:101610000AF1800ADAF8001007F03EFA04460128C1
:101620002ED1D846687CDBF8101007F035FA024658
:10163000687C00E090E0D8F8001007F02DFAA8745C
:1016400012B1012A15D01BE0687CD8F8041007F00D
:1016500023FA0246687CD8F8081007F01DFA034602
:10166000687CD8F80C1007F017FA0090697CA87C09
:1016700004E002210B460A460091697C03F054FC09
:10168000687C401E68744946304600F04BFC0028D8
:10169000F9D0687C08B920206874C2B2534608E0CB
:1016A0001046196807F0F8F90446012806D0521EC2
:1016B000D2B2002AF4D1012C03D04DE06A7400208C
:1016C000A886D846687CDBF8101007F0E5F90246DA
:1016D000687CD8F8001007F0DFF98446A87412B1CE
:1016E000012A24D038E0687CD8F8041007F0D4F937
:1016F0008246687CD8F8081007F0CEF98146687CED
:10170000D8F80C1007F0C8F98046A879012807D14D
:10171000CDF800804B465246697CA87C03F004FC5F
:10172000A879C8B94B465246CDF8008010E0A87998
:10173000012807D10220009003460246697C6046DA
:1017400003F0F2FBA87938B9022003460246009064
:10175000697CA87C03F0DAF964200AF0D9FEE5E69A
:1017600044010020000C02402CB7002000000020A3
:101770001CB52F26304FDFF8C4904FF4FA680025CF
:1017800099F80B004C46012851D1A06F04F084F861
:101790004FF480712A4800F0C5FB208FF0B3401E43
:1017A0002087CDE900560123A14678781A4600210A
:1017B0000BF0F2FC444640460AF0C8FECDE9005664
:1017C00078780223012200210BF0E6FC20460AF083
:1017D000BDFE0124CDE90056012378781A46214642
:1017E0000AF04EFD40460AF0B1FECDE90056787889
:1017F0000223012221460AF043FD40460AF0A6FEDC
:10180000CDE9005678780323012221460AF038FDFD
:1018100040460AF09BFE641CE4B200E007E0092C9D
:10182000D8D3B9F83810012901D1A9F8385064206B
:101830000AF06EFEA4E700004EB700200000002072
:101840000010024010B504F06BF8FFF719FEBDE878
:1018500010400A2004F0D4B9704704F06DBC0000B9
:1018600008B5154C154D00266A460021A06F03F0FF
:10187000B3FFE07C012803D111480BF0D9FBE674DB
:101880000F4BA3F1140202F12801A1F1F0000BF0BB
:10189000F9FC0B491439A1F1C8000BF075F928784F
:1018A0000028E1D1064BA3F1140202F12801A1F1B5
:1018B000F00007F0F7F8D7E700000020440100200F
:1018C0002402002004F04ABCFEE700002DE9F047A6
:1018D0000646481E0C46052821D8374F00254FF4F0
:1018E00000794FF48078F0074946384602D000F07E
:1018F00022FB01E000F01DFB4146384600F019FBD9
:10190000760804200AF022FE4146384600F013FB18
:1019100004200AF01BFE6D1CEDB20C2DE3D3274D05
:10192000012C19D0022C20D0032C27D0042C2ED02F
:10193000052C35D0062C3CD12021284600F0FBFA9E
:1019400004200AF003FE2021284600F0F2FABDE848
:10195000F04704200AF0FABD0121284600F0EBFA16
:1019600004200AF0F3FD0121EEE70221284600F0F1
:10197000E2FA04200AF0EAFD0221E5E70421284604
:1019800000F0D9FA04200AF0E1FD0421DCE7082187
:10199000284600F0D0FA04200AF0D8FD0821D3E749
:1019A0001021284600F0C7FA04200AF0CFFD1021CC
:1019B000CAE7BDE8F087000000040240000C0240C6
:1019C0007CB50121022005F0F7FC01244FF44070A2
:1019D0008DF80440002500908DF8065002268DF801
:1019E000056069460E4800F04FFA0121082005F015
:1019F000E3FC3F208DF8044000908DF806508DF8F0
:101A000005606946074800F03FFA40F2014521466B
:101A10002846FFF75BFF641CE4B2052CF7D97CBDB8
:101A200000040240000C024070B500250024002193
:101A3000284606F081F9641CE4B2042CF7D36D1C2F
:101A4000EDB2202DF2D370BD0029016802D041F023
:101A5000010101E021F001010160704730B5036828
:101A6000124ACC6813400A682243D1E905452C4349
:101A70002243CC6922430C6A22434C6A22438C6A7B
:101A800022434C6B22438C6B22431A43026042690F
:101A900022F00703D1E90B2422431A4342610A6969
:101AA00042604A6882608968C16030BD3F801CF036
:101AB000704700002DE9FC4703F03CFD4FF4805ACD
:101AC000504600F059F9DFF8DC80374E374C4FF0C4
:101AD00000092F2518B398F8000001281FD1A07C19
:101AE000012811D1CDE9009501234F4670781A469F
:101AF000617C0BF051FBCDE9007570780223012267
:101B0000617C0BF049FBA786A07C40B91720CDE98A
:101B10000005012370781A46617C0AF0B1FB50463B
:101B200000F086F84FF4804A504600F025F988B35B
:101B300098F8000001282DD1A07C01281FD1E18E4A
:101B4000A08E4FF0010751EA000202D001290AD00D
:101B500015E0CDE90075012370781A46617C0BF021
:101B60001BFBE7860AE050B9CDE9007570780223C7
:101B70000122617C0BF010FBA4F83690A786A07CB4
:101B800040B92020CDE90005012370781A46617C18
:101B90000AF076FB504600F04BF8BDE8FC4703F036
:101BA000D5BC0000440100204EB7002000000020FA
:101BB0002DE9FC4103F0BEFC4FF48074204600F098
:101BC000DBF810B1174914200887204600F030F8E0
:101BD0004FF40077384600F0CFF8D8B14FF47A7060
:101BE0000AF0B4FC3946104800F09CF990B9002581
:101BF0002F240E4ECDE90054012370781A46294651
:101C00000BF0CAFACDE900547078022301220021BA
:101C10000BF0C2FA384600F00BF8BDE8FC4103F0C7
:101C200095BC000000000020000C02404EB70020D0
:101C30000149086070470000143C01402DE9F04361
:101C40004FF4804985B00121484605F0D9FB0121B8
:101C5000102005F0B1FB4FF48077002503978DF835
:101C6000105003A93F4800F00FF90821042005F0A7
:101C7000E9FC8DF804500C268DF8056001240097CE
:101C80008DF80640684600F087F84FF017088DF889
:101C9000088002208DF809008DF80A008DF80B40AD
:101CA00002A803F067FB384600F05EF80921032024
:101CB00005F0C8FC8DF8045067028DF805600097A8
:101CC0008DF80640684600F067F88DF808808DF8BA
:101CD00009408DF80A408DF80B4002A803F04AFB3A
:101CE000384600F041F80C21032005F0ABFC8DF8DC
:101CF000045027038DF8056000978DF8064068466C
:101D000000F04AF84FF028088DF808808DF8094057
:101D10008DF80A408DF80B4002A803F02BFB3846E3
:101D200000F022F80E21032005F08CFC8DF8045001
:101D30008DF80560CDF800908DF80640684600F0FB
:101D40002BF88DF808808DF809408DF80A408DF841
:101D50000B4002A803F00EFB484600F005F805B062
:101D6000BDE8F0830010024002490A6802430A609D
:101D700070470000103C0140064A014600201268EE
:101D8000044B0A4014331B680B4202D0002A00D0D7
:101D900001207047003C014030B51B49837902683F
:101DA00063B30B6893430B600A1D13680468A34375
:101DB000136002790A441368046823431360124ACB
:101DC000083213680468A3431360131D1C68056878
:101DD000AC431C6090F805C0BCF1100F05D0614405
:101DE0000A68006802430A6030BD11680468214334
:101DF0001160196800680143196030BD007908441A
:101E000001689143016030BD003C01401CB50121D7
:101E1000082005F0D1FA4FF43F40009001208DF8E2
:101E2000040000218DF8061003218DF805108DF8AF
:101E300007006946134800F027F802F099FBFFF706
:101E4000DAFA02F02BFEFFF7BBFD4FF4165005F057
:101E50002FFB40F27121062002F040FD41F61F44A5
:101E6000214641F2873005F08DFD214641F27B503D
:101E700005F042FDFFF7E2FE02F03EFDFFF7ACF990
:101E80001CBD0000000C0240F0B5002201234FF001
:101E9000030C00BF0D6803FA02F42540A5422DD1C2
:101EA000066854000CFA04F5AE4306600E79076824
:101EB000A6403E4306600E79012E01D0022E12D1BB
:101EC0008668AE4386604D798668A5403543856057
:101ED000456803FA02F6B543456045688E79964039
:101EE000B6B235434560C56856000CFA06F7BD43E7
:101EF000C560CD79A540C4682543C560521C102A31
:101F0000C8D3F0BD4B07DB0E9A40C90810B500EBF3
:101F10008100016A0F249C40A1430162016A1143C0
:101F2000016210BD0246002012690A4200D0012061
:101F300070474183704701837047000070B58AB0D5
:101F40000446142222A16846FFF79AF8142225A11C
:101F500005A8FFF795F801211C2005F0EDFE0121F1
:101F60001F2005F0E9FE0121192005F0E5FE224DB4
:101F7000287818B90A211F2005F0DEFE28780128EC
:101F800003D10C211F2005F0D7FE6421B4FBF1F032
:101F900001FB10420A21B2FBF1F5B4FBF1F201FBA7
:101FA00012446E4606EB40010222082005F09EFE18
:101FB00006EB450102220A2005F098FE05A800EB79
:101FC000440102220C2005F091FE0AB070BD000011
:101FD000050F0006060B020F0306030D070D000791
:101FE000070F030F0D0F08060E0B0A0F0B060B0D44
:101FF0000F0D08070F0F0B0F440100202DE9F04FC4
:1020000099B006460D461446142286A105A8FFF78E
:1020100037F8142288A16846FFF732F814228BA102
:102020000FA8FFF72DF814228DA10AA8FFF728F8B2
:1020300001211C2005F080FE01211F2005F07CFEFF
:102040008C4F387818B90821182005F075FE3878BB
:10205000012803D10C21182005F06EFE38780228E3
:1020600003D10A21182005F067FE3878032803D130
:102070000921182005F060FE08211B2005F05CFEF8
:102080004FF47A7BB6FBFBF2D1B20BFB12626420F9
:10209000B2FBF0F2D7B2B6FBF0F200FB12620A20FC
:1020A000B2FBF0F8B6FBF0F2DFF8CC9100FB126661
:1020B00099F800000DF1140A012805D10AEB41013D
:1020C0000222162005F012FE99F8000018B902212C
:1020D000172005F031FE0FA800EB47010222142063
:1020E00005F004FE05AF07EB48010222122005F0BF
:1020F000FDFD07EB46010222102005F0F7FDB5FBC0
:10210000FBF10BFB11534FF0640AB3FBFAF202F040
:10211000FF0C0A23B5FBF3F203FB12520AAF07EBE5
:1021200042085246B5FBF2F70AFB1757B7FBF3F329
:102130006E4606EB4307C8B24FF47A7303FB1151A6
:10214000B1FBFAF1C9B2D94606EB410538B105A990
:1021500001EB400102220E2005F0C8FD02E0BCF1B7
:10216000000F04D002222946082005F0BFFD0222FC
:1021700039460A2005F0BAFD022241460C2005F03E
:10218000B5FDB4FBF9F1CDB209FB1141B1FBFAF099
:102190003A4F00F0FF08387818B90A211F2005F0DF
:1021A000CBFD3878012803D10C211F2005F0C4FD98
:1021B0000A23B4FBF3F003FB1041684600EB41092E
:1021C0006421B4FBF1F201FB1242B2FBF3F200EB2B
:1021D00042074FF47A72B4FBF2F302FB1342B2FBF4
:1021E000F1F1C9B200EB410435B106EB4501022221
:1021F000002005F07BFD02E0B8F1000F04D00222C0
:102200002146104605F072FD02223946042005F0F1
:102210006DFD02224946062005F068FD19B0BDE8B3
:10222000F08F00000F0506000B060F0206030D03DA
:102230000D0707000F070F03050F0006060B020F1F
:102240000306030D070D0007070F030F0F0D060808
:102250000B0E0F0A060B0D0B0D0F07080F0F0F0BC0
:102260000D0F08060E0B0A0F0B060B0D0F0D0807BE
:102270000F0F0B0F04000020080000204401002075
:102280002DE9F04F99B006460D461446142286A15A
:1022900005A8FEF7F5FE142288A16846FEF7F0FEB9
:1022A00014228BA10FA8FEF7EBFE14228DA10AA821
:1022B000FEF7E6FE01211C2005F03EFD01211F2056
:1022C00005F03AFD0A211B2005F036FD8A4F3878CB
:1022D00018B90021182005F02FFD3878012803D106
:1022E0000421182005F028FD3878022803D10221A6
:1022F000182005F021FD3878032803D1012118208A
:1023000005F01AFD4FF47A7BB6FBFBF2D1B20BFB62
:1023100012626420B2FBF0F2D7B2B6FBF0F200FB1F
:1023200012620A20B2FBF0F8B6FBF0F2DFF8CC91B3
:1023300000FB126699F800000DF1140A012805D17E
:102340000AEB41010222162005F0D0FC99F80000AA
:1023500018B90221172005F0EFFC0FA800EB470188
:102360000222142005F0C2FC05AF07EB480102224F
:10237000122005F0BBFC07EB46010222102005F0FD
:10238000B5FCB5FBFBF10BFB11534FF0640AB3FB3B
:10239000FAF202F0FF0C0A23B5FBF3F203FB125230
:1023A0000AAF07EB42085246B5FBF2F70AFB175794
:1023B000B7FBF3F36E4606EB4307C8B24FF47A73EC
:1023C00003FB1151B1FBFAF1C9B2D94606EB410545
:1023D00038B105A901EB400102220E2005F086FC70
:1023E00002E0BCF1000F04D002222946082005F0CB
:1023F0007DFC022239460A2005F078FC0222414683
:102400000C2005F073FCB4FBF9F1CDB209FB1141CE
:10241000B1FBFAF03A4F00F0FF08387818B90A21FA
:102420001F2005F089FC3878012803D10C211F20DA
:1024300005F082FC0A23B4FBF3F003FB104168466D
:1024400000EB41096421B4FBF1F201FB1242B2FB43
:10245000F3F200EB42074FF47A72B4FBF2F302FBA3
:102460001342B2FBF1F1C9B200EB410435B106EB06
:1024700045010222002005F039FC02E0B8F1000F0E
:1024800004D002222146104605F030FC02223946D3
:10249000042005F02BFC02224946062005F026FC0C
:1024A00019B0BDE8F08F00000F0506000B060F0203
:1024B00006030D030D0707000F070F03050F0006A6
:1024C000060B020F0306030D070D0007070F030F8E
:1024D0000F0D06080B0E0F0A060B0D0B0D0F07084C
:1024E0000F0F0F0B0D0F08060E0B0A0F0B060B0D2F
:1024F0000F0D08070F0F0B0F04000020080000202D
:10250000440100202DE9F04F99B006460D461446CF
:10251000142286A105A8FEF7B3FD142288A16846FF
:10252000FEF7AEFD14228BA10FA8FEF7A9FD142221
:102530008DA10AA8FEF7A4FD01211C2005F0FCFBDB
:1025400001211F2005F0F8FB0C211B2005F0F4FBF6
:102550008A4F387818B90021182005F0EDFB38783B
:10256000012803D10421182005F0E6FB3878022861
:1025700003D10221182005F0DFFB3878032803D1AE
:102580000121182005F0D8FB4FF47A7BB6FBFBF253
:10259000D1B20BFB12626420B2FBF0F2D7B2B6FBF1
:1025A000F0F200FB12620A20B2FBF0F8B6FBF0F288
:1025B000DFF8CC9100FB126699F800000DF1140AC7
:1025C000012805D10AEB41010222162005F08EFBFD
:1025D00099F8000018B90221172005F0ADFB0FA8EB
:1025E00000EB47010222142005F080FB05AF07EB4A
:1025F00048010222122005F079FB07EB4601022276
:10260000102005F073FBB5FBFBF10BFB11534FF0F2
:10261000640AB3FBFAF202F0FF0C0A23B5FBF3F2F3
:1026200003FB12520AAF07EB42085246B5FBF2F722
:102630000AFB1757B7FBF3F36E4606EB4307C8B226
:102640004FF47A7303FB1151B1FBFAF1C9B2D946C9
:1026500006EB410538B105A901EB400102220E202D
:1026600005F044FB02E0BCF1000F04D00222294631
:10267000082005F03BFB022239460A2005F036FB14
:10268000022241460C2005F031FBB4FBF9F1CDB23A
:1026900009FB1141B1FBFAF03A4F00F0FF0838781E
:1026A00018B90A211F2005F047FB3878012803D10B
:1026B0000C211F2005F040FB0A23B4FBF3F003FBC1
:1026C0001041684600EB41096421B4FBF1F201FBC3
:1026D0001242B2FBF3F200EB42074FF47A72B4FB02
:1026E000F2F302FB1342B2FBF1F1C9B200EB410479
:1026F00035B106EB45010222002005F0F7FA02E0B1
:10270000B8F1000F04D002222146104605F0EEFA7F
:1027100002223946042005F0E9FA02224946062041
:1027200005F0E4FA19B0BDE8F08F00000F050600CF
:102730000B060F0206030D030D0707000F070F031B
:10274000050F0006060B020F0306030D070D000719
:10275000070F030F0F0D06080B0E0F0A060B0D0BCC
:102760000D0F07080F0F0F0B0D0F08060E0B0A0FAA
:102770000B060B0D0F0D08070F0F0B0F04000020A9
:1027800008000020440100202DE9F04F99B00646D2
:102790000D461446142288A105A8FEF771FC1422E8
:1027A0008AA16846FEF76CFC14228DA10FA8FEF7E3
:1027B00067FC14228FA10AA8FEF762FC01211C20ED
:1027C00005F0BAFA01211F2005F0B6FA04211A20FB
:1027D00005F0B2FA8C4F387818B90021182005F0AE
:1027E000ABFA3878012803D10421182005F0A4FAA7
:1027F0003878022803D10221182005F09DFA387894
:10280000032803D10121182005F096FA08211B2086
:1028100005F092FA4FF47A7BB6FBFBF2D1B20BFBD8
:1028200012626420B2FBF0F2D7B2B6FBF0F200FB0A
:1028300012620A20B2FBF0F8B6FBF0F2DFF8CC919E
:1028400000FB126699F800000DF1140A012805D169
:102850000AEB41010222162005F048FA99F800001F
:1028600018B90221172005F067FA0FA800EB4701FD
:102870000222142005F03AFA05AF07EB48010222C4
:10288000122005F033FA07EB46010222102005F072
:102890002DFAB5FBFBF10BFB11534FF0640AB3FBB0
:1028A000FAF202F0FF0C0A23B5FBF3F203FB12521B
:1028B0000AAF07EB42085246B5FBF2F70AFB17577F
:1028C000B7FBF3F36E4606EB4307C8B24FF47A73D7
:1028D00003FB1151B1FBFAF1C9B2D94606EB410530
:1028E00038B105A901EB400102220E2005F0FEF9E6
:1028F00002E0BCF1000F04D002222946082005F0B6
:10290000F5F9022239460A2005F0F0F90222414683
:102910000C2005F0EBF9B4FBF9F1CDB209FB114144
:10292000B1FBFAF03A4F00F0FF08387818B90A21E5
:102930001F2005F001FA3878012803D10C211F204F
:1029400005F0FAF90A23B4FBF3F003FB10416846E3
:1029500000EB41096421B4FBF1F201FB1242B2FB2E
:10296000F3F200EB42074FF47A72B4FBF2F302FB8E
:102970001342B2FBF1F1C9B200EB410435B106EBF1
:1029800045010222002005F0B1F902E0B8F1000F84
:1029900004D002222146104605F0A8F90222394649
:1029A000042005F0A3F902224946062005F09EF90D
:1029B00019B0BDE8F08F00000F0506000B060F02EE
:1029C00006030D030D0707000F070F03050F000691
:1029D000060B020F0306030D070D0007070F030F79
:1029E0000F0D06080B0E0F0A060B0D0B0D0F070837
:1029F0000F0F0F0B0D0F08060E0B0A0F0B060B0D1A
:102A00000F0D08070F0F0B0F040000200800002017
:102A1000440100202DE9F04F97B006460C461546BC
:102A2000142284A105A8FEF72BFB142286A1684678
:102A3000FEF726FB01211C2005F07EF901211F2055
:102A400005F07AF9854F387818B90A211F2005F06A
:102A500073F93878012803D10C211F2005F06CF997
:102A60004FF47A72B6FBF2F002FB10676423B7FBF7
:102A7000F3F707F0FF0EB6FBF3F703FB176C4FF00D
:102A80000A08BCFBF8F71397B4FBF2F707F0FF0C4A
:102A900002FB1747B7FBF3F707F0FF0BB4FBF3F7A5
:102AA000CDF83CC003FB174CCDF850B0BCFBF8FB95
:102AB000B5FBF2FC02FB1C52B2FBF3F2D2B20E9257
:102AC000B5FBF3F20CF0FF0A03FB125CC146B6FB48
:102AD000F9F3BCFBF8F209FB136305AF07EB4308FE
:102AE0006423B6FBF3FC03FB1C6C0C92BCFBF9F2F9
:102AF00007EB4209C1B24FF47A7202FB1060B0FBDF
:102B0000F3F0C0B207EB400631B107EB41010222FE
:102B1000162005F0EBF802E0BEF1000F05D002220E
:102B20003146142005F0E2F801E0139820B10222AA
:102B30004946122005F0DAF802224146102005F03D
:102B4000D5F80A20B4FBF0F100FB1146694601EB11
:102B500046096421B4FBF1F601FB1646B6FBF0F61C
:102B6000684600EB46084FF47A70B4FBF0F600FBC1
:102B70001640B0FBF1F0C1B268460F9B00EB410478
:102B800033B107EB430102220E2005F0AFF801E05C
:102B9000149828B102222146082005F0A7F802E087
:102BA000BBF1000F04D0022241460A2005F09EF836
:102BB000022249460C2005F099F80A23B5FBF3F0F0
:102BC00003FB1051684600EB41076421B5FBF1F4AB
:102BD00001FB1454B4FBF3F300EB43064FF47A7398
:102BE000B5FBF3F403FB1453B3FBF1F1C9B200EBF3
:102BF0004104BAF1000F06D000EB4A010222002086
:102C000005F074F801E00E9828B102222146104622
:102C100005F06CF801E00C9820B102223146042046
:102C200005F064F802223946062005F05FF817B077
:102C3000BDE8F08F0F0506000B060F0206030D031B
:102C40000D0707000F070F03050F0006060B020F05
:102C50000306030D070D0007070F030F44010020B3
:102C60002DE9F04FFBA02DED028B93B000680E9084
:102C70001422F9A109A8FEF703FA1422FBA1684661
:102C8000FEF7FEF9FE48FF4DFF4C0078012670B3B9
:102C9000AF1439462846FFF745F980B9207920B9A5
:102CA0006078401C607001F023FF39462846FFF72A
:102CB00039F90028F9D06078062800D966704FF4F9
:102CC000804739462846FFF72DF980B9207920B989
:102CD0006078401E607001F00BFF39462846FFF710
:102CE00021F90028F9D0607808B906206070617871
:102CF000E648E74F4FF0030807297DD2DFE801F0EF
:102D0000CC04D1FDFCFBFA0080218146FFF70AF9D3
:102D100080B9FEF789FEDF48E04A0088126800EBC0
:102D200080004004010CDC48007800EB800040008B
:102D3000FFF764F980214846FFF7F4F801285BD1DA
:102D40004FF4005949462846FFF7ECF880B920793E
:102D500070B901F0CDFEA078401CA070494628460D
:102D6000FFF7E0F80028F9D0A078032800D9A67072
:102D70004FF40061C348FFF7D5F8C94DDFF824933D
:102D8000DFF824A3C94EDFF828B380B9207970B9E1
:102D900001F0AEFEA078401E84F802004FF40061FE
:102DA000B848FFF7BFF80028F8D0A07818B1A0788D
:102DB000012803D02DE084F8028043E0387880B900
:102DC000FEF732FE28889AF8003000EB80004004BD
:102DD000010C99F80000326800EB80004000FFF71A
:102DE0004FFA3878012814D1FEF71EFEBBF8000018
:102DF00000EB8000400400E04EE0010CAE4AAD481C
:102E000013780078AD4A00EB800040001268FFF7AD
:102E1000BBFCA078022812D1FEF706FEA848AA4AF9
:102E20000088137800EB80004004010CA548A74AF5
:102E30000078126800EB80004000FFF763FBA07889
:102E4000032829D13878012810D1FEF7EDFD288814
:102E50009AF8003000EB80004004010C99F8000063
:102E6000326800EB80004000FFF70AFA387800284B
:102E700012D1FEF7D9FDBBF800008F4A00EB8000AD
:102E80004004010C8B4813788C4A007800EB8000DA
:102E900040001268FFF778FC13B0BDEC028BBDE870
:102EA000F08F80218146FFF73DF848B9FEF7BCFD61
:102EB000874840F2F51201888648008800F07CFAC5
:102EC00080214846FFF72EF80128E5D14FF400593C
:102ED00049462846FFF726F8A8B9207998B901F0A5
:102EE00007FEE078401CE07049462846FFF71AF8D4
:102EF000002803E04FE2A3E19CE15CE0F4D0E0783D
:102F0000032800D9E6704FF400612846FFF70AF85D
:102F1000714DDFF8C891724EDFF8C8A180B92079F1
:102F200070B901F0E5FDE0784FF4006B401EE070F1
:102F300059465448FEF7F6FF0028F9D0E07818B15A
:102F4000E078012803D00DE084F8038021E0FEF74B
:102F50006BFD387840F2F51240B13188BAF80000C4
:102F600000F092FDE078022806D00FE02988B9F839
:102F7000000000F041FBF5E7FEF756FD5A4840F22D
:102F8000F51201885948008800F05AFCE0780328BF
:102F900082D1FEF749FD387840F2F51228B1298830
:102FA000B9F8000000F028FB76E73188BAF8000095
:102FB00000F06AFD70E780218146FEF7B3FFB2EEB4
:102FC000048AC0B9FEF730FD494890ED000A20EEB2
:102FD000080ABCEEC00A10EE100A82B2454890ED15
:102FE000000A20EE080ABCEEC00A10EE100A81B2F8
:102FF000002000F06DFE80214846FEF793FF012877
:10300000D2D14FF4005949462846FEF78BFF80B9CC
:10301000207970B901F06CFDE078401CE070494601
:103020002846FEF77FFF0028F9D0E078032800D972
:10303000E6704FF400612846FEF774FF2E4D2F4EC8
:10304000DFF8BC90DFF8BCA010B9207900B95BE0D4
:1030500069E00000000209050F0506000B060F02DB
:1030600006030D030D0707000F070F03050F0006EA
:10307000060B020F0306030D070D0007070F030FD2
:103080000C000020000C0240400100200010024013
:103090000A0000201C000020000000205C0000202E
:1030A0002200002001000020070000206000002016
:1030B00026000020030000200900002068000020F6
:1030C00024000020020000200800002064000020EE
:1030D000200000201E0000202E00002028000020DC
:1030E000320000202C000020300000202A000020A8
:1030F000400000203C000020480000204400002048
:10310000580000205400002001F0F2FCE0784FF459
:10311000006B401EE0705946A348FEF703FF0028ED
:10312000F9D0E07818B1E078012803D01BE084F8EA
:1031300003804FE0FEF778FC3878C0B199ED000AC3
:1031400020EE080ABCEEC00A10EE100A9AED000A42
:1031500082B220EE080ABCEEC00A10EE100A81B25C
:10316000002001F0F3F8E078022816D02EE095ED6B
:10317000000A20EE080ABCEEC00A10EE100A96ED16
:10318000000A82B220EE080ABCEEC00A10EE100A55
:1031900081B2002000F0AEFEE5E7FEF745FC834873
:1031A00090ED000A20EE080ABCEEC00A10EE100AEC
:1031B00082B27F4890ED000A20EE080ABCEEC00AF9
:1031C00010EE100A81B2002000F0AAFFE078032878
:1031D0007FF4EAAEFEF728FC3878A8B195ED000A36
:1031E00020EE080ABCEEC00A10EE100A96ED000AA6
:1031F00082B220EE080ABCEEC00A10EE100A81B2BC
:10320000002000F077FE47E699ED000A20EE080A5C
:10321000BCEEC00A10EE100A9AED000A82B220EE4F
:10322000080ABCEEC00A10EE100A81B2002001F0BC
:103230008DF831E6FEF7F8FB0220FEF77FFE2BE665
:10324000FEF7F2FB01211C2004F076FD01211F2076
:1032500004F072FD207918B90A211F2004F06CFDDA
:103260002079012803D10C211F2004F065FD51496C
:1032700060790422014411F8011CA1714D492031EB
:1032800008440EA910F8010CE071142004F02EFD82
:1032900062790A20B2FBF0F100FB1128A279B2FB9F
:1032A000F0F700FB172BE279B2FBF0F900FB192ACB
:1032B00009A800EB41010222122004F017FD09A821
:1032C00000EB48010222102004F010FDE84608EB54
:1032D000470102220A2004F009FD08EB4B010222FB
:1032E0000C2004F003FD08EB49010222042004F045
:1032F000FDFC08EB4A010222062004F0F7FC4FF423
:10330000005739462846FEF70DFEE0B92079D0B9BE
:1033100001F0EEFB6079401C607139462846FEF7EB
:1033200001FE0028F9D06079202800D96671214972
:103330006079014411F8011CA1711E492031084433
:1033400010F8010CE0714FF4006631462846FEF794
:10335000E9FD00287FF428AE20790028FAD101F099
:10336000C7FB6079401E607131462846FEF7DAFDE2
:103370000028F9D0607908B9202060710D49C0B2E9
:10338000014411F8011CA1710A492031084410F8C8
:10339000010CE07180E5FEF747FB00221146104664
:1033A000FFF738FB78E50000000C024050000020D9
:1033B0004C000020B0CD00202DE9F04F95B0044620
:1033C0000D461646142276A16846FDF759FE1422D2
:1033D00078A105A8FDF754FE14227BA10FA8FDF7E4
:1033E0004FFE14227DA10AA8FDF74AFE01211C20F0
:1033F00004F0A2FC01211F2004F09EFC7C4F3878D1
:1034000018B90821182004F097FC3878012803D156
:103410000C21182004F090FC3878022803D10A21EE
:10342000182004F089FC3878032803D109211820DA
:1034300004F082FC0821192004F07EFC6D4F3878DE
:1034400018B90A211F2004F077FC3878012803D12D
:103450000C211F2004F070FC4FF47A7BB4FBFBFCC2
:103460000BFB1C426420B2FBF0F000F0FF0A0A20C4
:10347000B4FBF0F200FB12426F4607EB42096422F4
:10348000B4FBF2F302FB1343B3FBF0F007EB40088D
:10349000584600FB1C40B0FBF2F0C0B20CF0FF013C
:1034A00007EB400431B107EB41010222162004F082
:1034B0001DFC02E0BAF1000F04D0022221461420C4
:1034C00004F014FC02224146122004F00FFC0222F8
:1034D0004946102004F00AFCB5FBFBF10BFB11532D
:1034E0004FF0640BB3FBFBF202F0FF0C0A23B5FBB9
:1034F000F3F203FB12540DF1140A0AEB44085A4686
:10350000B5FBF2F40BFB1454B4FBF3F4C8B24FF464
:103510007A7303FB1151B1FBFBF10AEB4409CAB208
:103520000AEB420430B107EB400102220E2004F006
:10353000DDFB02E0BCF1000F04D00222214608208E
:1035400004F0D4FB022249460A2004F0CFFB0222F9
:1035500041460C2004F0CAFBB6FBFBF2D1B20BFBD8
:1035600012620A20B2FBF0F5B6FBF0F200FB126427
:10357000022256460AEB4101104604F0B7FB06EB67
:1035800045010222042004F0B1FB0AA800EB44012B
:103590000222062004F0AAFB15B0BDE8F08F00005F
:1035A0000F0506000B060F0206030D030D070700AB
:1035B0000F070F03050F0006060B020F0306030D8E
:1035C000070D0007070F030F0F0D06080B0E0F0A5C
:1035D000060B0D0B0D0F07080F0F0F0B0D0F080635
:1035E0000E0B0A0F0B060B0D0F0D08070F0F0B0F1D
:1035F00004000020440100202DE9F04F95B004465E
:103600000D461646142278A16846FDF739FD1422AE
:103610007AA105A8FDF734FD14227DA10FA8FDF7BE
:103620002FFD14227FA10AA8FDF72AFD01211C20ED
:1036300004F082FB01211F2004F07EFB02211B20ED
:1036400004F07AFB7C4F387818B90021182004F078
:1036500073FB3878012803D10421182004F06CFB97
:103660003878022803D10221182004F065FB38784D
:10367000032803D10121182004F05EFB0821192042
:1036800004F05AFB6D4F387818B90A211F2004F056
:1036900053FB3878012803D10C211F2004F04CFB88
:1036A0004FF47A7BB4FBFBFC0BFB1C426420B2FBA7
:1036B000F0F000F0FF0A0A20B4FBF0F200FB124227
:1036C0006F4607EB42096422B4FBF2F302FB13439B
:1036D000B3FBF0F007EB4008584600FB1C40B0FB82
:1036E000F2F0C0B20CF0FF0107EB400431B107EB80
:1036F00041010222162004F0F9FA02E0BAF1000FAB
:1037000004D002222146142004F0F0FA022241469D
:10371000122004F0EBFA02224946102004F0E6FAE7
:10372000B5FBFBF10BFB11534FF0640BB3FBFBF24A
:1037300002F0FF0C0A23B5FBF3F203FB12540DF168
:10374000140A0AEB44085A46B5FBF2F40BFB145476
:10375000B4FBF3F4C8B24FF47A7303FB1151B1FB1D
:10376000FBF10AEB4409CAB20AEB420430B107EBA1
:10377000400102220E2004F0B9FA02E0BCF1000F71
:1037800004D002222146082004F0B0FA0222494661
:103790000A2004F0ABFA022241460C2004F0A6FAFB
:1037A000B6FBFBF2D1B20BFB12620A20B2FBF0F5C2
:1037B000B6FBF0F200FB1264022256460AEB41010E
:1037C000104604F093FA06EB45010222042004F0AF
:1037D0008DFA0AA800EB44010222062004F086FAC2
:1037E00015B0BDE8F08F00000F0506000B060F02B4
:1037F00006030D030D0707000F070F03050F000653
:10380000060B020F0306030D070D0007070F030F3A
:103810000F0D06080B0E0F0A060B0D0B0D0F0708F8
:103820000F0F0F0B0D0F08060E0B0A0F0B060B0DDB
:103830000F0D08070F0F0B0F04000020440100209C
:103840002DE9F04F95B004460D461646142278A196
:103850006846FDF715FC14227AA105A8FDF710FCB7
:1038600014227DA10FA8FDF70BFC14227FA10AA84A
:10387000FDF706FC01211C2004F05EFA01211F2047
:1038800004F05AFA04211B2004F056FA7C4F3878D1
:1038900018B90021182004F04FFA3878012803D114
:1038A0000421182004F048FA3878022803D10221B4
:1038B000182004F041FA3878032803D10121182098
:1038C00004F03AFA0821192004F036FA6D4F3878DE
:1038D00018B90A211F2004F02FFA3878012803D1E3
:1038E0000C211F2004F028FA4FF47A7BB4FBFBFC78
:1038F0000BFB1C426420B2FBF0F000F0FF0A0A2030
:10390000B4FBF0F200FB12426F4607EB420964225F
:10391000B4FBF2F302FB1343B3FBF0F007EB4008F8
:10392000584600FB1C40B0FBF2F0C0B20CF0FF01A7
:1039300007EB400431B107EB41010222162004F0ED
:10394000D5F902E0BAF1000F04D00222214614207A
:1039500004F0CCF902224146122004F0C7F90222F9
:103960004946102004F0C2F9B5FBFBF10BFB1153E3
:103970004FF0640BB3FBFBF202F0FF0C0A23B5FB24
:10398000F3F203FB12540DF1140A0AEB44085A46F1
:10399000B5FBF2F40BFB1454B4FBF3F4C8B24FF4D0
:1039A0007A7303FB1151B1FBFBF10AEB4409CAB274
:1039B0000AEB420430B107EB400102220E2004F072
:1039C00095F902E0BCF1000F04D002222146082044
:1039D00004F08CF9022249460A2004F087F90222F9
:1039E00041460C2004F082F9B6FBFBF2D1B20BFB8E
:1039F00012620A20B2FBF0F5B6FBF0F200FB126493
:103A0000022256460AEB4101104604F06FF906EB1C
:103A100045010222042004F069F90AA800EB4401E0
:103A20000222062004F062F915B0BDE8F08F000014
:103A30000F0506000B060F0206030D030D07070016
:103A40000F070F03050F0006060B020F0306030DF9
:103A5000070D0007070F030F0F0D06080B0E0F0AC7
:103A6000060B0D0B0D0F07080F0F0F0B0D0F0806A0
:103A70000E0B0A0F0B060B0D0F0D08070F0F0B0F88
:103A800004000020440100202DE9F04F95B00446C9
:103A90000D461646142278A16846FDF7F1FA142265
:103AA0007AA105A8FDF7ECFA14227DA10FA8FDF775
:103AB000E7FA14227FA10AA8FDF7E2FA01211C20EF
:103AC00004F03AF901211F2004F036F904211A20EC
:103AD00004F032F97C4F387818B90021182004F02E
:103AE0002BF93878012803D10421182004F024F997
:103AF0003878022803D10221182004F01DF9387803
:103B0000032803D10121182004F016F908211920F7
:103B100004F012F96D4F387818B90A211F2004F00B
:103B20000BF93878012803D10C211F2004F004F987
:103B30004FF47A7BB4FBFBFC0BFB1C426420B2FB12
:103B4000F0F000F0FF0A0A20B4FBF0F200FB124292
:103B50006F4607EB42096422B4FBF2F302FB134306
:103B6000B3FBF0F007EB4008584600FB1C40B0FBED
:103B7000F2F0C0B20CF0FF0107EB400431B107EBEB
:103B800041010222162004F0B1F802E0BAF1000F60
:103B900004D002222146142004F0A8F80222414653
:103BA000122004F0A3F802224946102004F09EF8E7
:103BB000B5FBFBF10BFB11534FF0640BB3FBFBF2B6
:103BC00002F0FF0C0A23B5FBF3F203FB12540DF1D4
:103BD000140A0AEB44085A46B5FBF2F40BFB1454E2
:103BE000B4FBF3F4C8B24FF47A7303FB1151B1FB89
:103BF000FBF10AEB4409CAB20AEB420430B107EB0D
:103C0000400102220E2004F071F802E0BCF1000F26
:103C100004D002222146082004F068F80222494616
:103C20000A2004F063F8022241460C2004F05EF8FA
:103C3000B6FBFBF2D1B20BFB12620A20B2FBF0F52D
:103C4000B6FBF0F200FB1264022256460AEB410179
:103C5000104604F04BF806EB45010222042004F064
:103C600045F80AA800EB44010222062004F03EF8C1
:103C700015B0BDE8F08F00000F0506000B060F021F
:103C800006030D030D0707000F070F03050F0006BE
:103C9000060B020F0306030D070D0007070F030FA6
:103CA0000F0D06080B0E0F0A060B0D0B0D0F070864
:103CB0000F0F0F0B0D0F08060E0B0A0F0B060B0D47
:103CC0000F0D08070F0F0B0F040000204401002008
:103CD0002DE9F0479AB004460D46164614226FA10E
:103CE00005A8FDF7CDF9142271A16846FDF7C8F9C2
:103CF000142274A10FA8FDF7C3F9142276A10AA813
:103D0000FDF7BEF901211C2004F016F801211F2047
:103D100004F012F8754F387818B90821182004F00B
:103D20000BF83878012803D10C21182004F004F88E
:103D30003878022803D10A21182003F0FDFF3878D3
:103D4000032803D10921182003F0F6FF08211A20C7
:103D500003F0F2FF664F387818B90A211F2003F0EC
:103D6000EBFF3878012803D10C211F2003F0E4FF7A
:103D70004FF47A71B4FBF1F001FB10434FF0640A89
:103D8000B3FBFAF101F0FF090A21B4FBF1F301FBE7
:103D900013430FAF07EB43085346B4FBF3F70AFB9B
:103DA0001747B7FBF1F10DF1140C0CEB4107C2B250
:103DB0004FF47A7101FB1040B0FBFAF0C0B20CEB8B
:103DC000400432B10CEB42010222162003F08EFFB8
:103DD00002E0B9F1000F04D002222146142003F0C2
:103DE00085FF02223946122003F080FF022241465D
:103DF000102003F07BFF4FF00A00B5FBF0F3D14633
:103E0000B5FBF9F700FB13530AA901EB43084FF088
:103E1000640101FB1751B1FBF0F06C4617F0FF0293
:103E200004EB400505D004EB42010222082003F018
:103E30005DFF022229460A2003F058FF0222414674
:103E40000C2003F053FF4FF00A01B6FBF1F3B6FB71
:103E5000F9F201FB13630AAD05EB430712F0FF0013
:103E60004FF0640303FB1262B2FBF1F16A4602EB0E
:103E7000410505D004EB40010222104603F036FF55
:103E800002222946042003F031FF0222394606208F
:103E900003F02CFF1AB0BDE8F08700000F05060004
:103EA0000B060F0206030D030D0707000F070F0394
:103EB000050F0006060B020F0306030D070D000792
:103EC000070F030F0F0D06080B0E0F0A060B0D0B45
:103ED0000D0F07080F0F0F0B0D0F08060E0B0A0F23
:103EE0000B060B0D0F0D08070F0F0B0F0400002022
:103EF000440100202DE9F0479AB004460D461646CD
:103F0000142271A105A8FDF7BBF8142273A168461D
:103F1000FDF7B6F8142276A10FA8FDF7B1F8142228
:103F200078A10AA8FDF7ACF801211C2003F004FFDA
:103F300001211F2003F000FF02211B2003F0FCFEE3
:103F4000754F387818B90021182003F0F5FE38783D
:103F5000012803D10421182003F0EEFE387802284E
:103F600003D10221182003F0E7FE3878032803D19B
:103F70000121182003F0E0FE08211A2003F0DCFEE6
:103F8000664F387818B90A211F2003F0D5FE38781B
:103F9000012803D10C211F2003F0CEFE4FF47A71CB
:103FA000B4FBF1F001FB10434FF0640AB3FBFAF1EC
:103FB00001F0FF090A21B4FBF1F301FB13430FAF3A
:103FC00007EB43085346B4FBF3F70AFB1747B7FB6D
:103FD000F1F10DF1140C0CEB4107C2B24FF47A7100
:103FE00001FB1040B0FBFAF0C0B20CEB400432B160
:103FF0000CEB42010222162003F078FE02E0B9F138
:10400000000F04D002222146142003F06FFE02228A
:104010003946122003F06AFE02224146102003F0C6
:1040200065FE4FF00A00B5FBF0F3D146B5FBF9F79A
:1040300000FB13530AA901EB43084FF0640101FB95
:104040001751B1FBF0F06C4617F0FF0204EB40058E
:1040500005D004EB42010222082003F047FE0222B1
:1040600029460A2003F042FE022241460C2003F0BA
:104070003DFE4FF00A01B6FBF1F3B6FBF9F201FB8E
:1040800013630AAD05EB430712F0FF004FF0640322
:1040900003FB1262B2FBF1F16A4602EB410505D067
:1040A00004EB40010222104603F020FE02222946C2
:1040B000042003F01BFE02223946062003F016FE00
:1040C0001AB0BDE8F08700000F0506000B060F02CE
:1040D00006030D030D0707000F070F03050F00066A
:1040E000060B020F0306030D070D0007070F030F52
:1040F0000F0D06080B0E0F0A060B0D0B0D0F070810
:104100000F0F0F0B0D0F08060E0B0A0F0B060B0DF2
:104110000F0D08070F0F0B0F0400002044010020B3
:104120002DE9F0479AB004460D461646142271A1B7
:1041300005A8FCF7A5FF142273A16846FCF7A0FFB1
:10414000142276A10FA8FCF79BFF142278A10AA8DD
:10415000FCF796FF01211C2003F0EEFD01211F203A
:1041600003F0EAFD04211B2003F0E6FD754F3878CB
:1041700018B90021182003F0DFFD3878012803D199
:104180000421182003F0D8FD3878022803D1022139
:10419000182003F0D1FD3878032803D1012118201D
:1041A00003F0CAFD08211A2003F0C6FD664F3878D7
:1041B00018B90A211F2003F0BFFD3878012803D168
:1041C0000C211F2003F0B8FD4FF47A71B4FBF1F01D
:1041D00001FB10434FF0640AB3FBFAF101F0FF0951
:1041E0000A21B4FBF1F301FB13430FAF07EB4308C4
:1041F0005346B4FBF3F70AFB1747B7FBF1F10DF198
:10420000140C0CEB4107C2B24FF47A7101FB104061
:10421000B0FBFAF0C0B20CEB400432B10CEB42013F
:104220000222162003F062FD02E0B9F1000F04D073
:1042300002222146142003F059FD022239461220A1
:1042400003F054FD02224146102003F04FFD4FF0D1
:104250000A00B5FBF0F3D146B5FBF9F700FB1353A9
:104260000AA901EB43084FF0640101FB1751B1FBB0
:10427000F0F06C4617F0FF0204EB400505D004EBAC
:1042800042010222082003F031FD022229460A20C1
:1042900003F02CFD022241460C2003F027FD4FF0D5
:1042A0000A01B6FBF1F3B6FBF9F201FB13630AADA9
:1042B00005EB430712F0FF004FF0640303FB1262AB
:1042C000B2FBF1F16A4602EB410505D004EB400177
:1042D0000222104603F00AFD02222946042003F0C0
:1042E00005FD02223946062003F000FD1AB0BDE8A4
:1042F000F08700000F0506000B060F0206030D03F2
:104300000D0707000F070F03050F0006060B020F2E
:104310000306030D070D0007070F030F0F0D060817
:104320000B0E0F0A060B0D0B0D0F07080F0F0F0BCF
:104330000D0F08060E0B0A0F0B060B0D0F0D0807CD
:104340000F0F0B0F04000020440100202DE9F0475F
:104350009AB004460D46164614226FA105A8FCF734
:104360008FFE142271A16846FCF78AFE142274A104
:104370000FA8FCF785FE142276A10AA8FCF780FEA0
:1043800001211C2003F0D8FC01211F2003F0D4FCE4
:104390000C211A2003F0D0FC734F387818B9002193
:1043A000182003F0C9FC3878012803D10421182013
:1043B00003F0C2FC3878022803D10221182003F050
:1043C000BBFC3878032803D10121182003F0B4FC8A
:1043D000664F387818B90A211F2003F0ADFC3878F1
:1043E000012803D10C211F2003F0A6FC4FF47A71A1
:1043F000B4FBF1F001FB10434FF0640AB3FBFAF198
:1044000001F0FF090A21B4FBF1F301FB13430FAFE5
:1044100007EB43085346B4FBF3F70AFB1747B7FB18
:10442000F1F10DF1140C0CEB4107C2B24FF47A71AB
:1044300001FB1040B0FBFAF0C0B20CEB400432B10B
:104440000CEB42010222162003F050FC02E0B9F10D
:10445000000F04D002222146142003F047FC022260
:104460003946122003F042FC02224146102003F09C
:104470003DFC4FF00A00B5FBF0F3D146B5FBF9F770
:1044800000FB13530AA901EB43084FF0640101FB41
:104490001751B1FBF0F06C4617F0FF0204EB40053A
:1044A00005D004EB42010222082003F01FFC022287
:1044B00029460A2003F01AFC022241460C2003F090
:1044C00015FC4FF00A01B6FBF1F3B6FBF9F201FB64
:1044D00013630AAD05EB430712F0FF004FF06403CE
:1044E00003FB1262B2FBF1F16A4602EB410505D013
:1044F00004EB40010222104603F0F8FB0222294699
:10450000042003F0F3FB02223946062003F0EEFB01
:104510001AB0BDE8F08700000F0506000B060F0279
:1045200006030D030D0707000F070F03050F000615
:10453000060B020F0306030D070D0007070F030FFD
:104540000F0D06080B0E0F0A060B0D0B0D0F0708BB
:104550000F0F0F0B0D0F08060E0B0A0F0B060B0D9E
:104560000F0D08070F0F0B0F04000020440100205F
:104570001CB50121022002F01FFFE0200090012065
:104580008DF8040000208DF8060002200F4C8DF8F5
:10459000050069462046FDF777FC20212046FDF7FF
:1045A000CAFC40212046FDF7C6FC80212046FDF7CD
:1045B000C2FC022003F084F8292003F081F80120D6
:1045C00003F07EF8032003F07BF81CBD00040240DA
:1045D000FEE700007CB5134E4FF4005529463046E7
:1045E000FDF7A7FC01208DF8040002206C008DF877
:1045F0000500009469463046FDF746FC21463046EA
:10460000FDF797FC022007F0A1FF29463046FDF791
:1046100092FC022007F09AFF29463046FDF789FCFC
:104620007CBD0000000402401CB50121022002F004
:10463000C3FE4FF4E040009001208DF804000220FA
:104640000A4C8DF8050069462046FDF71DFCA114B3
:104650002046FDF76EFC4FF400512046FDF76BFC41
:104660004FF480412046FDF766FC1CBD000402406B
:104670007CB5134E4FF4005529463046FDF759FCE2
:1046800001208DF8040002206C008DF805000094D4
:1046900069463046FDF7F8FB21463046FDF74BFCF6
:1046A000022007F053FF29463046FDF744FC022064
:1046B00007F04CFF29463046FDF73BFC7CBD00006F
:1046C000000402402DE9FC4700241B4E80464FF4B5
:1046D00080478DF8044000978DF8074069463046C2
:1046E000FDF7D2FB0025B9467F1039463046FDF76D
:1046F00020FC022007F02AFF39463046FDF71BFC5C
:104700006006040E49463046FDF70CFC08B1641CF7
:10471000E4B2012007F01AFF6D1CEDB2082DE4D3BE
:10472000B8F1000F04D0FFF755FF2046BDE8FC8725
:10473000FFF79EFFF9E70000000402402DE9FC4767
:10474000054601208DF8040002201A4E4FF48047E0
:104750008DF80500009769463046FDF795FB4FF44C
:10476000005841463046FDF7E4FBB9460024474671
:1047700028064946304602D4FDF7DBFB01E0FDF791
:10478000DAFB6806050E022007F0E0FE39463046E7
:10479000FDF7D1FB022007F0D9FE39463046FDF780
:1047A000C8FB022007F0D2FE641CE4B2082CDFD361
:1047B000BDE8FC87000402407CB501208DF80400B0
:1047C0000220114D4FF480448DF805000094694695
:1047D0002846FDF759FB21462846FDF7ACFB66103D
:1047E00031462846FDF7A7FB032007F0AFFE214620
:1047F0002846FDF79EFB032007F0A8FE3146284619
:10480000FDF797FB7CBD0000000402407CB5012051
:104810008DF804000220114D4FF480448DF80500FE
:10482000009469462846FDF72FFB6610314628465E
:10483000FDF77FFB21462846FDF77BFB032007F0B1
:1048400085FE31462846FDF776FB21462846FDF7D2
:1048500072FB032007F07AFE7CBD000000040240DA
:104860002DE9FC410024184E4FF480458DF804409A
:1048700000958DF8074069463046FDF705FB29464F
:104880003046FDF758FB012007F060FE6F103946F7
:104890003046FDF750FB012007F058FE08E0641C8D
:1048A000E4B2FA2C04D9FFF7B1FF0120BDE8FC8186
:1048B00029463046FDF736FB0028F0D13946304610
:1048C000FDF737FB0020F1E70004024002494AF6F9
:1048D000AA2008607047000000300040054A45F2F9
:1048E0005553136050609160580010604CF6CC40F6
:1048F00010607047003000402DE9F0479CB0012166
:104900005E4802F059FD01214FF4E06002F078FDAD
:104910004FF0806000905A4801900125594802A943
:10492000002431C106A8EE026F034FF480784FF4E3
:1049300000390594A0E8D003CDE90B45DFF848A184
:104940000D94694650460E94FDF788F801215046B3
:10495000FDF77AF84D4802A9CDE900404948DFF853
:1049600028A1801C31C106A80594A0E8D003CDE998
:104970000B45AAF1180A0D94694650460E94FDF7AE
:104980006DF801215046FDF75FF868060090404839
:1049900001903C4802A9001D31C106A80594A0E879
:1049A000D003394ECDE90B4518360D946946304693
:1049B0000E94FDF753F801213046FDF745F83F20EE
:1049C000032615908DF858608DF85B4015A9314885
:1049D000FDF75AFA922015908DF858608DF85B40DB
:1049E00015A92D48FDF750FA17941894199417A893
:1049F0001A94FCF76FFC0F948DF8404011941394B7
:104A00001F4C8DF841504C3C8DF850500FA920465A
:104A1000FCF78CFC1E4D0FA94C3D2846FCF786FC8C
:104A20001A4E0FA94C3E3046FCF780FC012120466F
:104A3000FCF772FC01212846FCF76EFC0121304690
:104A4000FCF76AFC01212046FCF75CFC01212846AA
:104A5000FCF758FC01213046FCF754FC01212046AC
:104A6000FCF72EFC01212846FCF72AFC01213046E8
:104A7000FCF726FC1CB0BDE8F087000005004000F4
:104A80004C22014016000020286402404C200140C6
:104A90004C21014000080240000002401CB50121E9
:104AA000082002F089FC4FF4FE40002400908DF8AD
:104AB000044069460848FDF7E7F90121102002F09B
:104AC0007BFC4FF4607000908DF804406946034809
:104AD000FDF7DAF91CBD0000000C02400010024096
:104AE0004FF400410148FDF724BA0000000C0240D9
:104AF00010B54FF400410348FDF71DFA0249642048
:104B0000087310BD000C0240000000202DE9F047A2
:104B10000C46F9A1904699468CB091E82C00C968E2
:104B2000DDF850A0CDE90251F7A1CDE9002391E8CD
:104B30002C00C968CDE90423CDE90651F6A104AEE5
:104B400091E82C00C96808AFCDE90A51611E6D4695
:104B5000CDE9082340B101287DD10F297CD8CCB202
:104B6000B8F1000F79D0D4E00F2974D8CCB2B8F1E5
:104B7000000F11D1385D012140F4E070FCF7A6FE72
:104B8000285D012140F4E070FCF7A0FE305D0121BA
:104B900040F4E070FCF79AFEB9F1000F11D1385DD6
:104BA000022140F4E070FCF791FE285D022140F400
:104BB000E070FCF78BFE305D022140F4E070FCF702
:104BC00085FEBAF1000F11D1385D032140F4E07089
:104BD000FCF77CFE285D032140F4E070FCF776FED4
:104BE000305D032140F4E070FCF770FEB8F1010F76
:104BF00011D1305D012140F4E070FCF767FE285DC3
:104C0000012140F4E070FCF761FE385D012140F4C1
:104C1000E070FCF75BFEB9F1010F11D1305D0221AC
:104C200040F4E070FCF752FE285D022140F4E07091
:104C3000FCF74CFE385D022140F4E070FCF746FEC4
:104C4000BAF1010F15D1305D032140F4E070FCF79B
:104C50003DFE285D02E0B7E0C6E048E040F4E070C9
:104C60000321FCF733FE385D032140F4E070FCF7CC
:104C70002DFEB8F1020F11D1385D012140F4E07032
:104C8000FCF724FE305D012140F4E070FCF71EFECD
:104C9000285D012140F4E070FCF718FEB9F1020F25
:104CA00011D1385D022140F4E070FCF70FFE305D59
:104CB000022140F4E070FCF709FE285D022140F477
:104CC000E070FCF703FEBAF1020F7DD1385D0321DD
:104CD00040F4E070FCF7FAFD305D032140F4E07031
:104CE000FCF7F4FD285D032140F4E070FCE0385D42
:104CF000012140F4E070FCF7E9FD285D012140F45A
:104D0000E070FCF7E3FD305D012140F4E070FCF75A
:104D1000DDFDB9F1000F11D1385D022140F4E070E2
:104D2000FCF7D4FD285D022140F4E070FCF7CEFDD5
:104D3000305D022140F4E070FCF7C8FDB8F1010FCE
:104D400011D1305D012140F4E070FCF7BFFD285D1A
:104D5000012140F4E070FCF7B9FD385D012140F419
:104D6000E070FCF7B3FDB9F1010F11D1305D022104
:104D700040F4E070FCF7AAFD285D022140F4E070E9
:104D8000FCF7A4FD385D022140F4E070FCF79EFDC5
:104D9000B8F1020F11D1385D012140F4E070FCF749
:104DA00095FD305D012140F4E070FCF78FFD285D3A
:104DB000012140F4E070FCF789FDB9F1020F13D135
:104DC000385D40F4E07000E08FE00221FCF77EFDEA
:104DD000305D022140F4E070FCF778FD285D02218F
:104DE00040F4E070FCF772FD113C0F2C7DD8E4B26A
:104DF000B8F1000F11D1385D042140F4E070FCF7E8
:104E000065FD285D042140F4E070FCF75FFD305D36
:104E1000042140F4E070FCF759FDB9F1000F11D105
:104E2000385D052140F4E070FCF750FD285D052158
:104E300040F4E070FCF74AFD305D052140F4E0707D
:104E4000FCF744FDB8F1010F11D1305D042140F4AD
:104E5000E070FCF73BFD285D042140F4E070FCF7B6
:104E600035FD385D042140F4E070FCF72FFDB9F109
:104E7000010F11D1305D052140F4E070FCF726FDF3
:104E8000285D052140F4E070FCF720FD385D052128
:104E900040F4E070FCF71AFDB8F1020F11D1385D53
:104EA000042140F4E070FCF711FD305D042140F472
:104EB000E070FCF70BFD285D042140F4E070FCF786
:104EC00005FDB9F1020F13D1385D052140F4E07002
:104ED000FCF7FCFC305D052140F4E070FCF7F6FCCB
:104EE000285D052140F4E07000E001E0FCF7EEFCF5
:104EF0000CB0BDE8F0870000383B3033282B20236E
:104F0000181B1013080B0003393C3134292C2124C1
:104F1000191C1114090C01043A3D32352A2D2225A1
:104F20001A1D12150A0D02052DE9F0478EB00C4628
:104F300015469846FEA1DDF8589091E84C00C968E6
:104F4000CDE90823CDE90A61FDA10DF1200A91E820
:104F50004C00C968CDE90023CDE90261FCA104AF92
:104F600091E84C00C968CDE90423CDE90661611ED2
:104F70006E4648B101287CD10F297BD8CCB2002DD8
:104F800079D0032D77D0CDE00F2972D8CCB20DB1F6
:104F9000032D12D1385D012140F4E070FCF796FC3E
:104FA0001AF80400012140F4E070FCF78FFC305D3A
:104FB000012140F4C070FCF789FCB8F1000F02D069
:104FC000B8F1030F12D1385D022140F4E070FCF714
:104FD0007DFC1AF80400022140F4E070FCF776FC36
:104FE000305D022140F4C070FCF770FCB9F1000F95
:104FF00002D0B9F1030F12D1385D032140F4E07003
:10500000FCF764FC1AF80400032140F4E070FCF79C
:105010005DFC305D032140F4C070FCF757FC012DAE
:1050200012D1305D012140F4E070FCF74FFC1AF81A
:105030000400012140F4E070FCF748FC385D0121D8
:1050400040F4C070FCF742FCB8F1010F16D1305D9E
:10505000022140F4E070FCF739FC1AF80400022148
:1050600040F4E070FCF732FC385D022140F4C0707F
:1050700002E0B7E0CCE042E0FCF728FCB9F1010F18
:1050800012D1305D032140F4E070FCF71FFC1AF8E8
:105090000400032140F4E070FCF718FC385D0321A4
:1050A00040F4C070FCF712FC022D0BD1385D0121D9
:1050B00040F4C070FCF70AFC305D012140F4C07080
:1050C000FCF704FCB8F1020F0BD1385D022140F46B
:1050D000C070FCF7FBFB305D022140F4C070FCF7B0
:1050E000F5FBB9F1020F7DD1385D032140F4C070AA
:1050F000FCF7ECFB305D032140F4C07015E1385D36
:10510000012140F4E070FCF7E1FB1AF804000121F2
:1051100040F4E070FCF7DAFB305D012140F4C07030
:10512000FCF7D4FBB8F1000F02D0B8F1030F12D195
:10513000385D022140F4E070FCF7C8FB1AF8040067
:10514000022140F4E070FCF7C1FB305D022140F425
:10515000C070FCF7BBFB012D12D1305D012140F482
:10516000E070FCF7B3FB1AF80400012140F4E07092
:10517000FCF7ACFB385D012140F4C070FCF7A6FBE6
:10518000B8F1010F12D1305D022140F4E070FCF75C
:105190009DFB1AF80400022140F4E070FCF796FB36
:1051A000385D022140F4C070FCF790FB022D0BD15A
:1051B000385D012140F4C070FCF788FB305D0121AF
:1051C00040F4C070FCF782FBB8F1020F0DD1385DDE
:1051D000022140F4C070FCF779FB305D022140F4FD
:1051E000C07000E095E0FCF771FB385D032140F4EE
:1051F000E070FCF76BFB1AF80400032140F4E07048
:10520000FCF764FB305D032140F4E070FCF75EFBCB
:10521000113C0F2C7DD8E4B20DB1032D12D1385DB5
:10522000042140F4E070FCF751FB1AF8040004215B
:1052300040F4E070FCF74AFB305D042140F4C0709C
:10524000FCF744FBB8F1000F01D0032D12D1385DFB
:10525000052140F4E070FCF739FB1AF80400052141
:1052600040F4E070FCF732FB305D052140F4C07083
:10527000FCF72CFB012D12D1305D042140F4E070CD
:10528000FCF724FB1AF80400042140F4E070FCF75A
:105290001DFB385D042140F4C070FCF717FBB8F12A
:1052A000010F12D1305D052140F4E070FCF70EFBD8
:1052B0001AF80400052140F4E070FCF707FB385DA4
:1052C000052140F4C070FCF701FB022D0BD1385DC5
:1052D000042140F4C070FCF7F9FA305D042140F479
:1052E000C070FCF7F3FAB8F1020F0BD1385D05215D
:1052F00040F4C070FCF7EAFA305D052140F4C0705C
:10530000FCF7E4FA385D062140F4E070FCF7DEFAC1
:1053100000E00CE01AF80400062140F4E070FCF70D
:10532000D5FA305D062140F4E070FCF7CFFA17E0C3
:10533000383B3033282B2023181B1013080B000395
:10534000393C3134292C2124191C1114090C010475
:105350003A3D32352A2D22251A1D12150A0D020555
:105360000EB0BDE8F087FEE770474FF4A06000F094
:1053700033B8000070B50F21C478027801234FF0D4
:10538000E026E4B1124C246804F4E064C4F5E0645F
:10539000C4F30724C4F10405E1404478AC408578A7
:1053A0000D4025430B4C29011155007800F01F01D9
:1053B0008B40400906EB8000C0F8003170BD02F060
:1053C0001F008340500906EB8000C0F8803170BD9B
:1053D0000CED00E000E400E00249084302490860E7
:1053E000704700000000FA050CED00E07047000077
:1053F00070B505000E46144605D036B10E488078CB
:1054000028B112200DE004200BE00C2009E02878E0
:10541000012808D0022806D0032804D0042802D08E
:105420000120107070BDFAF73FFF6E61FAF740FF80
:105430000020207070BD0000B400002030B587B09F
:1054400000F070F82A48002404638470C470047269
:10545000C471C460C4618461446144708471214634
:1054600000F134025454491CC9B20829FAD304711A
:1054700044718462046201F049F801F01BF800F005
:10548000F3FF01F085F801F0A9F802AA0325202016
:1054900031C218494FF6FF70CDE9000101F17C02DD
:1054A0003F230021144800F09FFA05AA13A13F20D2
:1054B00000F0F8FA02AA402031C214494FF6FE70FB
:1054C000CDE9000101F1FC023E230021104800F06B
:1054D0008BFA05AA0FA13E2000F0E4FA00F090FC40
:1054E00000F026F807B0BDE83040FFF77FBF0000AE
:1054F000B400002038BA00209967000875432F4F88
:10550000532D49492049646C6500000038B90020DA
:10551000B567000875432F4F532D494920537461D7
:10552000740000000149002008807047B00000208E
:10553000704700000449C879012804D18878FF2801
:1055400001D2401C88707047B400002070B5144D23
:10555000E879012822D1FAF7A7FE0446A87820B1FD
:10556000401E10F0FF00A87013D1E87888B901F050
:1055700079F80C48697950F82100A8622A7991429B
:1055800007D0C16B491CC163E868401CE860FAF7AA
:10559000A7FE2046BDE87040FAF78ABE70BD000045
:1055A000B4000020B8BA002070B505460E48007857
:1055B00008B1002070BDFAF777FE01460B48046879
:1055C0000CB1626802600846FAF772FE4CB1012025
:1055D00020700020208106A065606061204600F0F8
:1055E00039FF204670BD0000B6000020C400002036
:1055F0003F0000002DE9F04705008846144604D01E
:105600002878012803D001200AE0042008E02C4873
:10561000007808B1022003E02A48007820B10D206C
:1056200010700020BDE8F087FAF73EFE6E6807466E
:1056300000213EB1884638466960FAF739FE84F8A1
:1056400000803AE0DFF880A08946DAF8000010F820
:10565000342F42F002020270417040F8048C284658
:1056600000F0CAFE3846FAF723FE00F0D7FFFAF73B
:105670001BFE0746DAF8000090F8351031B1022918
:1056800008D0294600F088FE0A2004E0466A84F823
:10569000009001E00E202070DAF80010384601F189
:1056A0001C0181F8189081F81990C1F80090C1F898
:1056B0000490C1F80890FAF7FBFD3046B2E700000D
:1056C000B6000020B7000020D400002070B5040010
:1056D0000D4605D035B12078012805D0012070BDD8
:1056E000042070BD032070BDFAF7DEFD0646A07AE7
:1056F00058B1002302222946204600F011FE304610
:10570000FAF7D6FD00F08AFF0AE0606820B1304663
:10571000FAF7CEFD142070BD30466560FAF7C8FD7B
:10572000002070BD10B5094CE07901280CD1FAF7C2
:10573000BBFDA17821B9E178FF2901D2491CE170B4
:10574000BDE81040FAF7B4BD10BD0000B400002061
:1057500010B50D4CE079012814D1FAF7A5FDE178D8
:1057600031B1491E11F0FF01E17001D1A17819B1E9
:10577000BDE81040FAF79CBDFAF79AFDBDE810406D
:1057800000F04CBF10BD0000B400002070B505460D
:105790000E48007808B1002070BDFAF785FD01467B
:1057A0000B4804680CB1626802600846FAF780FD95
:1057B0004CB10320207025810020606005A060614D
:1057C000204600F047FE204670BD0000B6000020D5
:1057D000C40000203F0000002DE9F0470500884686
:1057E000144604D02878032803D001200AE00420BE
:1057F00008E02648007808B1022003E02448007839
:1058000018B10D201070BDE8F087FAF74DFD06467F
:105810002889002730B1401E28813046FAF748FD1C
:105820002770F0E7DFF86C90D9F8000010F8341F0B
:1058300041F001010170477040F8048C284600F0E7
:10584000DBFD3046FAF734FD00F0E8FEFAF72CFDF8
:105850000646D9F8000090F8351031B1022906D07B
:10586000294600F099FD0A2002E0277001E00E2091
:105870002070D9F8000000F11C0007764776076019
:1058800047603046BDE8F047FAF712BDB600002089
:10589000B7000020D400002070B5040004D02078A8
:1058A000032803D0012070BD042070BDFAF7FCFC72
:1058B0000546A07A58B1002301221946204600F07F
:1058C0002FFD2846FAF7F4FC00F0A8FE09E0208935
:1058D0004FF6FF71884206D2401C20812846FAF715
:1058E000E7FC002070BD2846FAF7E2FC332070BDCB
:1058F00010B5094CE07900280CD100F0B3FE6079B6
:105900000649207151F82000A0622062BDE81040D5
:10591000FAF7D1BC10BD0000B4000020B8BA0020D6
:1059200010B5022000F0C6F9FAF7BEFC084C0021C1
:10593000E161FAF7BDFC642000F0BCF9FAF7B4FCB1
:10594000E169616101216170BDE81040FAF7B0BC06
:10595000B4000020FBF793BD2DE9FE4305460F463A
:1059600090461C463F2B02D92A20BDE8FE83FAF759
:105970009BFC1A49097819B1FAF79AFC3C20F4E724
:10598000174E56F8241019B1FAF792FC2820ECE7CC
:10599000012146F82410FAF78BFC002342463946D1
:1059A000284600F0FBF800270146009701973B4688
:1059B0003A462046029700F065FE050007D0FAF748
:1059C00073FC46F82470FAF773FC2846CDE70548C7
:1059D00000780128F9D100F021FEF6E7B60000209A
:1059E000B8BA0020BB0000202DE9F04F81462DED14
:1059F000028B83B08A46DDE90F879DED118A129DE7
:105A000093461C463F2B05D92A2003B0BDEC028BE0
:105A1000BDE8F08FFAF748FC1D49097819B1FAF78B
:105A200047FC3C20F1E71B4E56F8241019B1FAF759
:105A30003FFC2820E9E7012146F82410FAF738FC5A
:105A40002A463946404600F0FDFE2B465A4651464E
:105A5000484600F0A3F800978DED018A01460295B3
:105A6000424620460E9B00F00DFE050008D0FAF7D6
:105A70001BFC002146F82410FAF71AFC2846C4E75C
:105A8000054800780128F9D100F0C8FDF6E70000CC
:105A9000B6000020B8BA0020BB000020FBF73CBDD8
:105AA000FBF73CBD70B505460E4614463F2803D9AA
:105AB000FF2D01D02A2004E02EB11248007820B139
:105AC0001220107070BD0C20FBE7FAF7EDFB0146C9
:105AD000FF2D03D10C48006890F836500B4850F861
