:020000040800F2
:1000000078D40020690200083F5A0008E54C000837
:100010003D5A0008DD180008658400080000000053
:10002000000000000000000000000000F57D000856
:10003000C51A000800000000EB020008A97F0008B4
:10004000830200088302000883020008830200087C
:10005000830200088302000883020008830200086C
:10006000830200088302000883020008830200085C
:10007000830200088302000883020008830200084C
:10008000830200088302000883020008830200083C
:10009000830200088302000883020008C51B0008D1
:1000A000830200088302000883020008830200081C
:1000B0002980000883020008D1800008830200081C
:1000C00083020008830200088302000883020008FC
:1000D000830200088302000825820008FD820008D0
:1000E000C91A00088302000883020008830200087E
:1000F00083020008830200088302000883020008CC
:1001000083020008830200088302000883020008BB
:1001100083020008830200088302000883020008AB
:10012000830200088302000883020008830200089B
:10013000830200088302000883020008830200088B
:10014000830200088302000883020008830200087B
:10015000830200088302000883020008830200086B
:10016000830200088302000883020008830200085B
:10017000830200088302000883020008830200084B
:10018000830200088302000800F002F800F05CF827
:100190000AA090E8000C82448344AAF10107DA45E2
:1001A00001D100F051F8AFF2090EBAE80F0013F0D8
:1001B000010F18BFFB1A43F0010318473455010023
:1001C000545501000A444FF0000C10F8013B13F0A5
:1001D000070408BF10F8014B1D1108BF10F8015BA0
:1001E000641E05D010F8016B641E01F8016BF9D193
:1001F00013F0080F1EBF10F8014BAD1C0C1B09D1EA
:100200006D1E58BF01F801CBFAD505E014F8016B5B
:1002100001F8016B6D1EF9D59142D6D370470000ED
:100220000023002400250026103A28BF78C1FBD8FF
:10023000520728BF30C148BF0B6070471FB50EF092
:1002400044FE1FBD10B510BD00F054FF1146FFF76E
:10025000F5FF0DF0DBFB00F072FF03B4FFF7F2FFD8
:1002600003BC00F073FF00000948804709480047BD
:10027000FEE7FEE7FEE7FEE7FEE7FEE7FEE7FEE756
:10028000FEE7FEE704480549054A064B70470000B3
:10029000CD7F00088901000878CE002078D40020A6
:1002A00078D0002078D00020EFF3108072B670472D
:1002B00080F3108870471D484FF0FF010170002047
:1002C00080F309881A48012101701A484FF08051C3
:1002D000016062B6FEE717484FF080510160704739
:1002E00014484FF080510160704772B6EFF30980F7
:1002F00028B1203880E8F00F0F490968086000B580
:100300000E4880475DF804EB0D480E490A780270EC
:1003100009480D490A680260106890E8F00F203023
:1003200080F309884EF0040E62B6704722ED00E0BB
:100330009700002004ED00E0B00000208563000875
:100340009400002095000020B800002072B670478D
:1003500062B67047EFF3108072B6704780F3108872
:100360007047B0FA80F0704790FAA0F0704730BF45
:10037000704720BF70470000DFED2E0AB5EEC00ABF
:1003800060EE200ABDEEE01A11EE100AF1EE10FA4E
:1003900038BF401E00EE100ADFED271AF7EE005AB4
:1003A000B8EEC00ADFED274A244930EEC01A21EE2C
:1003B000210AFCEEC00A10EE900A00EE900A01EB52
:1003C0008000B8EE600ADFED1E0AF0EC012A11EEA3
:1003D000210AF6EE001AB0EC013AF0EC013A20EEF8
:1003E000001A20EE216A40EE615A20EE245A21EED6
:1003F000212A90ED004A00EE602A66EE010A40EEE6
:10040000400A05EE412A70EEA55AF0EE400A41EE90
:10041000210A46EE410A25EE011A00EE641A22EE88
:10042000820A63EEA00A03EE250A44EE010A30EECA
:10043000200A704783F9223E0000804340F0000804
:10044000ABAAAA3EABAA2A3E9FED3A0A5FEA920CFB
:1004500053D000BFB0EC011A0B1DF0EC010A21EEE5
:10046000011A00EEA01AB5EEC01AF1EE10FAC6BFDE
:10047000F1EEC10AC1ED000A81ED000AF0EC010ABB
:10048000191DB0EC011A60EEA00A41EE010AF5EE6A
:10049000C00AF1EE10FAC6BFF1EEE00AC3ED000AA1
:1004A00083ED000AB0EC011A0B1DF0EC010A21EEFD
:1004B000011A00EEA01AB5EEC01AF1EE10FAC6BF8E
:1004C000F1EEC10AC1ED000A81ED000AB0EC011A9B
:1004D000191DF0EC010A21EE011A00EEA01AB5EE8A
:1004E000C01AF1EE10FAC6BFF1EEC10AC3ED000A60
:1004F00083ED000ABCF1010CACD112F0030208BF7D
:10050000704700BFF0EC010A0B46B0EC011A091D60
:1005100060EEA00A41EE010AF5EEC00AF1EE10FA13
:10052000C6BFF1EEE00AC3ED000A83ED000A521ED9
:10053000E8D17047000000002DE9F00700EBC10989
:10054000DDE90778D0F800A0C9F800A007EB011496
:10055000D0F804A0251FA9F10406C9F804A003EBF4
:10056000C80907F1080C00F1080402EBC8024B1E91
:1005700031D000BFF2EC011A96ED002A92ED001A7C
:1005800002EBC802B4EC010A121FF4EC012A60EE7F
:10059000210A20EE010A32EE823A02EEA10AD9EDDA
:1005A000001A43EE410A09EBC80902EE610A16ED92
:1005B000012A083E42EE210A02EE410AECEC010A51
:1005C000ACEC010AB1EE400A85ED000A45ED010AE6
:1005D000083D5B1ECED190ED000AD0ED010A07EB7D
:1005E000C10130EE600A81ED000A9FED5D0A81EDE8
:1005F000010AD0ED000A90ED011A70EE810AC7EDF4
:10060000000A87ED010ABDE8F007704770B400EBFF
:10061000C105DDE903C42D1D002904BF70BC70476E
:10062000F2EC011A95ED002A92ED001A02EBC402D9
:10063000B0EC010A121FF0EC012A60EE210A20EE54
:10064000410A32EE823A02EEA10AD3ED001A43EEDD
:10065000010A03EBC40302EE610A15ED012A083D0D
:10066000491E42EE210A02EE010AECEC010AACEC52
:10067000010AD5D170BC70472DE9F04305464469A5
:10068000807983B00F461646012809D0A3892188B6
:100690003846626800F036F9E87901284ED053E018
:1006A000AA88D5E9030307EBC20CD5F808803146C8
:1006B0000CF1040C5AB300BFB0EC011A9CED002AF7
:1006C000D0ED001A00EBC800B7EC010A001FF7ECF0
:1006D000012A521E60EE010A20EE610A32EE823AD1
:1006E00002EE810A93ED001A43EE210A03EBC803E0
:1006F00002EE410A1CED012AACF1080C42EE010A9F
:1007000002EE210AE1EC010AA1EC010AD4D194ED38
:10071000040AA38921883046626800F095FAE879D6
:1007200001281CBF03B0BDE8F083E2892188A368DB
:1007300003B03046BDE8F04300F08CB8E289218870
:100740003846A36800F086F8A868CDE90060D5E9CE
:100750000323A9883846FFF7EFFE03B0BDE8F08316
:100760000000000070B592B2DDF810C055080260BC
:100770008580184EC66006F50056DBB2066100247F
:10078000837180F807C0802A04BF102282600BD0DA
:10079000B2F5007F08BF042212D0B2F5006F14BF7B
:1007A0004FF0FF3401220BD0002B8C4641614FF0FB
:1007B000000307D001222946604600F015FC06E040
:1007C0008260F1E700222946604600F00DFC2046D9
:1007D00070BD00004CF4000870B40025B0EC010AB4
:1007E000A1F1010CF0EC010AB4EEE00AF1EE10FA0E
:1007F0003CBFB0EE600A0125ACF10104A446B4F19F
:10080000004F0ED3F0EC010AB4EEE00AF1EE10FA5C
:100810003CBFB0EE600AA1EB0C05BCF1010CF1D1BC
:1008200013E0002CC8BF00260FDD00BFF0EC010A6A
:10083000B4EEE00AF1EE10FA04D2ACEB0605B0EE2D
:10084000600A4D1B761C641EF0D182ED000A1D600B
:1008500070BC70472DE9F0014E0801244FF0000CE8
:1008600004EB51076146A6F102082CE061452AD24B
:1008700000EBCC0500EBC104D5ED000A94ED000AB5
:10088000C4ED000A85ED000AD5ED010A94ED010AD8
:10089000C4ED010A85ED010A0CEB0705CC1900EB4C
:1008A000C50500EBC404D5ED000A94ED000AC4EDC3
:1008B000000A85ED000AD5ED010A94ED010AC4EDA8
:1008C000010A85ED010A00EBC104B44400EBCC0C35
:1008D00094ED020ADCED000A891CC4ED020A8CEDDD
:1008E000000A94ED030ADCF80450E5608CED010A7F
:1008F000B3F800C089B203EB42034145B6D9BDE865
:10090000F00170472DE9F04F4FEA910C4FF00008CD
:100910004746644608EB0C0505EB0C0909EB0C0691
:1009200000EBC80A00EBC9099AED000AD9ED000AEC
:1009300099ED012A00EBC50530EE201A30EE600A71
:10094000DAED010A00EBC60608F1010870EE821A22
:1009500070EEC20A95ED002AD6ED002A641E32EE32
:10096000222A71EE022A31EE421ACAED002A95EDD2
:10097000012AD6ED012A32EE222A71EE822A71EE88
:10098000C21ACAED012A95ED012AD6ED012A96ED8B
:10099000003A4FEA470A32EE622AD5ED002A02EB0E
:1009A000CA0B72EEC32A9BED003ADBED013A21EE51
:1009B000034A01EEA34A61EE831A41EE631A85ED04
:1009C000004A30EE021A30EE420AC5ED011A02EB7F
:1009D000C70570EEE21A95ED002A70EEA20AD5ED79
:1009E000012A21EE023A0AEB070502EBC5051F4476
:1009F00001EEA23A61EE821A41EE621A89ED003AE6
:100A0000C9ED011AD5ED001A95ED011A20EE212A43
:100A100000EE812A60EEA10A40EE410A86ED002A2E
:100A2000C6ED010A7FF476AF9B044FEA134BE6460E
:100A3000BCF1040F7DD9E0464FEA9C0C4FF0000951
:100A4000CA46BCF1000F75D94FEA490404EB09030B
:100A500002EBC90502EBC40402EBC30395ED001AD7
:100A6000D5ED011A94ED000AD4ED010A93ED002AA8
:100A7000D3ED012AD94453468A4573D203EB0C04C3
:100A800004EB0C0606EB0C0500EBC30700EBC606F7
:100A900097ED003AD6ED003A96ED015A00EBC4040A
:100AA00073EE234A33EE633AD7ED013A00EBC50506
:100AB00033EE854A73EEC53A94ED005AD5ED005AEF
:100AC00035EE255A74EE855A74EEC54AC7ED005AC4
:100AD00094ED015AD5ED015A35EE255A74EE055ABA
:100AE00034EE454AC7ED015A94ED015AD5ED015A4D
:100AF00095ED006A35EE655AD4ED005A75EEC65A8A
:100B000024EE806A04EE206A24EE004A04EEE04AF5
:100B100084ED006A73EEE54A73EEA53A84ED014A6E
:100B200033EE054A33EE453A24EE015A04EEA15A5B
:100B300001E026E01BE064EE814A86ED005A434462
:100B40008B4244EE614A23EE024A03EEA24A63EE70
:100B5000823AC6ED014A43EE623A85ED004AC5EDA0
:100B6000013A8BD30AF1010AE245FFF46DAF4FEA77
:100B70008B434FEA9E0E4FEA134BBEF1040F3FF634
:100B80005AAFA1EB0C0100224B1C4FEA9C04002B36
:100B90008CBF1F46BDE8F08F11190E19331900EBF9
:100BA000C20500EBC60695ED000AD6ED000A95EDEC
:100BB000012A96ED011A70EE201A70EE600A32EEEC
:100BC000010A00EBC10100EBC30332EE411A91EDC3
:100BD000002AD3ED002A6244974232EE222A71EEB7
:100BE000822A31EEC22AC5ED002AD1ED011AD3EDD9
:100BF000012A71EEA21A70EE212AC5ED012A70EECB
:100C0000612A91ED010AD3ED011A93ED003A70EEDD
:100C1000611A91ED000A81ED002AC1ED012A30EE42
:100C2000430A30EEA12A70EEE10A71EE401A31EE6D
:100C3000000A86ED002AC6ED011AC3ED000A83ED15
:100C4000010AA9D8BDE8F08F2DE9F04F4FEA910CC9
:100C50004FF000084746644608EB0C0505EB0C0A0C
:100C60000AEB0C0600EBC80900EBCA0AD9ED000A32
:100C70009AED001ADAED012A00EBC50570EE811A33
:100C800070EEC10A99ED011A00EBC60608F10108E1
:100C900031EE222A31EE621AD5ED002A96ED003AA5
:100CA000641E72EE832A31EEA23A71EEE21A89EDE9
:100CB000003AD5ED012A96ED013A72EE832A32EE22
:100CC000223A32EE622A89ED013AD5ED012A96EDFB
:100CD000013AD6ED003A4FEA470972EEC32A95ED84
:100CE000003A02EBC90B33EE633ADBED003A9BEDC1
:100CF000014A61EEA34A42EE444A22EE232A01EE63
:100D0000842AC5ED004A70EEE21A70EEA20A85ED63
:100D1000012A02EBC70531EE032AD5ED002A31EE98
:100D2000431A95ED013A61EEA23A09EB070502EB91
:100D3000C5051F4442EE433A22EE222A01EE832AE1
:100D4000CAED003A8AED012AD5ED001A95ED012A87
:100D500060EEA12A41EE422A21EE211A00EE821A0B
:100D6000C6ED002A86ED011A7FF476AF9B044FEAA8
:100D7000134BE646BCF1040F7DD9E0464FEA9C0CCC
:100D80004FF00009CA46BCF1000F75D94FEA49047B
:100D900004EB090302EBC90502EBC40402EBC30335
:100DA000D5ED001A95ED012AD4ED000A94ED011A53
:100DB000D3ED002A93ED013AD94453468A4573D2C4
:100DC00003EB0C0404EB0C0606EB0C0500EBC3076D
:100DD00000EBC606D7ED003A96ED004AD6ED015A73
:100DE00000EBC40433EE845A73EEC43A97ED014A23
:100DF00000EBC50574EE254A34EE654AD4ED005A81
:100E000095ED006A75EE865A35EE256A35EE655A1F
:100E100087ED006AD4ED015A95ED016A75EE865AA8
:100E200034EEA56A74EEE54A87ED016AD4ED015A05
:100E300095ED016AD5ED006A75EEC65A94ED006A2B
:100E400036EE666A65EE206A44EEC16A64EEA04A38
:100E500045EE014AC4ED006A34EE065A34EE464AC5
:100E6000C4ED014A73EEE54A73EEA53A64EEA15A69
:100E700045EE425A01E026E01BE025EE215AC6ED80
:100E8000005A43448B4204EE825A63EEA24A44EE77
:100E9000434A24EE224A86ED015A03EE834AC5ED09
:100EA000004A85ED014A8BD30AF1010AE245FFF4BD
:100EB0006DAF4FEA8B434FEA9E0E4FEA134BBEF1E4
:100EC000040F3FF65AAFA1EB0C0100224B1C4FEA76
:100ED0009C06002B8CBF1F46BDE8F08F91198D1921
:100EE000AB1900EBC20400EBC505D4ED000AD5ED4B
:100EF000001AD4ED012A95ED012A30EEA11A70EE08
:100F0000E11A72EE820A00EBC10100EBC30332EE7C
:100F1000C22AD1ED002A93ED003A6244974272EE64
:100F2000832A31EE223A71EE622A23EE003A62EE13
:100F3000802A84ED003A91ED011A93ED013A31EEE9
:100F4000031A30EE813A23EE003A84ED013A30EE96
:100F5000C13AD1ED010A93ED011AD3ED003A30EE1A
:100F6000C11AD1ED000AC1ED002A63EE002A70EE2D
:100F7000E30AC1ED012A71EEC12A31EE811A72EE47
:100F8000201A72EE600A22EE802A21EE001A61EE2B
:100F9000801A85ED002A60EE800AC5ED011A83ED06
:100FA000001AC3ED010A99D8BDE8F08F30B50446A8
:100FB0000D4680782188A389626801280DD02846D3
:100FC000FFF7A0FCE078012818BF30BDE289218836
:100FD0002846A368BDE830403CE494ED040A284666
:100FE000FFF732FEEEE7000010B401801B4C4460B6
:100FF00082704FF0000CC370102925D040291BD0FF
:10100000B1F5807F10D0B1F5806F18BF4FF0FF3C75
:1010100002D010BC6046704701218181C181104916
:101020009FED100A816016E004218181C1810E4983
:101030009FED0E0A81600EE010218181C1810C4973
:101040009FED0C0A816006E040218181C1810A493F
:101050009FED0A0A816080ED040ADAE74C3401084A
:101060004C5401080000803A525401080000803BB3
:101070006A5401080000803CCA5401080000803D09
:1010800010B5203AC0F00B80B1E81850203AA0E823
:101090001850B1E81850A0E81850BFF4F5AF5FEA57
:1010A000027C24BFB1E81850A0E8185044BF18C90A
:1010B00018C0BDE810405FEA827C24BF51F8043BB1
:1010C00040F8043B08BF7047D20728BF31F8023B05
:1010D00048BF11F8012B28BF20F8023B48BF00F899
:1010E000012B7047704770477047000000487047F9
:1010F00014CE00207546FFF7F9FFAE46050069469D
:10110000534620F00700854618B020B5FFF7BAF81F
:10111000BDE820404FF000064FF000074FF00008F8
:101120004FF0000B21F00701AC46ACE8C009ACE879
:10113000C009ACE8C009ACE8C0098D467047044658
:10114000AFF300802046FFF788F870470149182068
:10115000ABBEFEE72600020010B5064C01220023BC
:101160001146204600F030F92046BDE8104000F05E
:1011700065B900000020014010B5064C0023012293
:101180000C21204600F020F92046BDE8104000F078
:1011900055B900000020014010B5064C0023012283
:1011A0000421204600F010F92046BDE8104000F070
:1011B00045B900000020014010B5064C0023012273
:1011C0000721204600F000F92046BDE8104000F05D
:1011D00035B900000020014070B59CB001212F48B6
:1011E00006F0C2FC01214FF4E06006F0E1FC4FF094
:1011F000007000902A4801902A4802A90024012585
:1012000031C1E802CDE90640800008904011099004
:101210000AA90594400231C1234E0D946946304617
:101220000E9400F025FC0121304600F017FC03204D
:101230008DF8680019958DF86B4019A91B4800F0CE
:10124000EFFD15941694179415A8189400F06AF8F9
:101250000F948DF8404011941394114C8DF8415027
:101260004C3C8DF850500FA9204600F087F8002321
:1012700001220821204600F0A7F80121204600F0B5
:1012800073F80121204600F065F80121204600F0A6
:101290003FF8204600F0D2F81CB070BD02004000BC
:1012A0004C21014014000020406402400004024030
:1012B00010B5064C002301220A21204600F084F8D4
:1012C0002046BDE8104000F0B9B8000000220140FF
:1012D00010B5064C002301220B21204600F074F8C3
:1012E0002046BDE8104000F0A9B8000000220140EF
:1012F00010B5064C002301220C21204600F064F8B2
:101300002046BDE8104000F099B8000000220140DE
:101310000029816802D041F0010101E021F00101C2
:1013200081607047094B10B51A68094902EA010249
:10133000D0E9001441EA0401D0E9024044EA000483
:1013400041EA040141EA0201196010BD0423014091
:10135000E030FCFF0029816802D041F4807101E097
:1013600021F48071816070470029816802D041F4C6
:10137000007101E021F400718160704730B542686E
:101380000F4B0C791A400B6842EA04221343436066
:1013900082680C4B4D791A40D1E9034323438C6892
:1013A00044EA4504234313438360C26A097D22F45F
:1013B0007002491EC9B242EA0151C16230BD00004B
:1013C000FFFEFFFCFDF7FFC070B5072509290AD90C
:1013D000C468A1F10A0606EB4606B540AC43B3402B
:1013E0001C43C46007E0046901EB4106B540AC430F
:1013F000B3401C4304611F23072A09D2446B521EC9
:1014000002EB820293409C4391400C43446370BDC5
:101410000D2A09D2046BD21F02EB820293409C4337
:1014200091400C43046370BDC46A0D3A02EB820222
:1014300093409C4391400C43C46270BD816841F06D
:1014400080418160704703F079BC10B5044603F019
:101450003DFDA02003F0FCFC03F08CFD200A03F00E
:10146000F7FC03F087FDE0B203F0F2FC03F082FD2D
:1014700003F02CFDA12003F0EBFC03F07BFD00202A
:1014800003F0AAFC044603F04BFD204610BD70B5E6
:1014900004460D4603F01AFDA02003F0D9FC03F02A
:1014A00069FD200A03F0D4FC03F064FDE0B203F010
:1014B000CFFC03F05FFD284603F0CAFC03F05AFDA1
:1014C00003F02EFDBDE870400A200BF061BD7047AF
:1014D00038B5002004F0D2FB174CA064002004F0C3
:1014E000CDFBE064002004F0BBFC6065002004F04C
:1014F000C5FB2065002004F0B3FCA0656A460FA17F
:101500000A2004F039FE03230F4A00210F4804F09B
:101510008DFD02230E4A00210E4804F087FD0123B1
:101520000D4A00210D4804F081FD00230C4A1946A4
:101530000C4804F07BFD38BD00000020537461723C
:1015400074205461736B00004C1500207115000865
:101550004CB50020491800084CB60020A917000817
:101560004CB70020C5E3000805F048B970470000FB
:1015700008B5894F894EDFF828B28A4D05F0D8FCAE
:10158000387801287BD14FF400594946304600F0A5
:1015900095FC00284FD1A87BE96D08F053FA04466A
:1015A00001282DD15A46A87BDBF8101008F04AFA22
:1015B0000346A87B116808F045FA8446E87313B126
:1015C000012B15D01CE09046A87B516808F03AFA30
:1015D0000246A87BD8F8081008F034FA0346A87B26
:1015E000D8F80C1008F02EFA0090A97BE87B05E0F3
:1015F0000220009003460246A97B604604F010F8E2
:10160000A87B401CA8734946304600F057FC0028D0
:10161000F9D0A87B202801D90120A873C2B208E024
:101620001046E96D08F00EFA044601280BD0521C52
:10163000D2B2202AF4D94FF400694946304600F06E
:101640003DFC20B152E0AA730020E885F3E7A87BB7
:10165000E96D08F0F7F9044601282DD1D846A87B9A
:10166000DBF8101008F0EEF90246A87BD8F800105D
:1016700008F0E8F9E8731AB1012A16D01CE086E0F8
:10168000A87BD8F8041008F0DDF90246A87BD8F84A
:10169000081008F0D7F90346A87BD8F80C1008F01A
:1016A000D1F90090A97BE87B04E002210B460A46B1
:1016B0000091A97B03F0B4FFA87B401EA8734946A4
:1016C000304600F0FBFB0028F9D0A87B08B92020A9
:1016D000A873C2B208E01046E96D08F0B3F90446F9
:1016E000012806D0521ED2B2002AF4D1012C03D018
:1016F0004DE0AA730020E885D846A87BDBF81010DF
:1017000008F0A0F90246A87BD8F8001008F09AF972
:101710008446E87312B1012A24D038E0A87BD8F8B7
:10172000041008F08FF98246A87BD8F8081008F05A
:1017300089F98146A87BD8F80C1008F083F9804617
:10174000A879012807D1CDF800804B465246A97BE5
:10175000E87B03F065FFA879C8B94B465246CDF83F
:10176000008010E0A879012807D1022000900346EC
:101770000246A97B604603F053FFA87938B90220DE
:10178000034602460090A97BE87B03F03BFD642002
:101790000BF0FEFBF2E600002A010020000C0240E4
:1017A00050B70020000000201CB51D4F1D4C4FF409
:1017B00080760025207B01282ED1606D04F0D6FBB9
:1017C0003146384600F07AFB012801D10220E07250
:1017D0003146384600F072FBF0B9A08EE0B1401EF1
:1017E000A0864FF02F08DFF84090CDE90058012384
:1017F00099F801001A4600210CF078F9CDE900585B
:1018000099F801000223012200210CF06FF9A08E4B
:10181000012801D1E572A58664200BF0B9FBC9E768
:10182000001002400000002072B7002010B504F044
:10183000E1FBFFF74DFEBDE810400A2004F04ABD71
:10184000704704F0E3BF00001CB5204D0126DFF80F
:101850008080204C022701AA0021686D04F026FB3D
:101860001C4B0094143B03F1EE02A2F1C601A1F55A
:10187000B9700CF0DDF9174B0096A3F1140202F1D8
:101880002801A1F5B9700BF0CDFB124B0097A3F125
:10189000140202F1EE01A1F50E700BF0C3FB0D492D
:1018A0001439A1F5A5700BF089FD98F80000002807
:1018B000D1D1084B0094143B03F1EE02A2F1C60112
:1018C000A1F5B97008F0C4F8C5E7000000000020D9
:1018D0002A0100208E02002004F0AABFFEE70000CB
:1018E0002DE9F0470646481E0C46052821D8374FFB
:1018F00000254FF400794FF48078F00749463846C8
:1019000002D000F0E4FA01E000F0DFFA4146384688
:1019100000F0DBFA760804200BF058FB414638460D
:1019200000F0D5FA04200BF051FB6D1CEDB20C2D2C
:10193000E3D3274D012C19D0022C20D0032C27D023
:10194000042C2ED0052C35D0062C3CD12021284645
:1019500000F0BDFA04200BF039FB2021284600F0EE
:10196000B4FABDE8F04704200BF030BB0121284653
:1019700000F0ADFA04200BF029FB0121EEE7022173
:10198000284600F0A4FA04200BF020FB0221E5E732
:101990000421284600F09BFA04200BF017FB0421D9
:1019A000DCE70821284600F092FA04200BF00EFB39
:1019B0000821D3E71021284600F089FA04200BF013
:1019C00005FB1021CAE7BDE8F087000000040240D3
:1019D000000C02407CB50121022006F0C5F801246C
:1019E0004FF440708DF80440002500908DF80650AB
:1019F00002268DF8056069460E4800F011FA0121B3
:101A0000082006F0B1F83F208DF8044000908DF8D2
:101A100006508DF805606946074800F001FA40F26B
:101A2000014521462846FFF75BFF641CE4B2052C04
:101A3000F7D97CBD00040240000C024070B50025BF
:101A400000240021284606F035FD641CE4B2042C75
:101A5000F7D36D1CEDB2202DF2D370BD00290168C3
:101A600002D041F0010101E021F001010160704765
:101A700030B50368124ACC6813400A682243D1E9A2
:101A800005452C432243CC6922430C6A22434C6A0D
:101A900022438C6A22434C6B22438C6B22431A43B1
:101AA0000260426922F00703D1E90B2422431A4362
:101AB00042610A6942604A6882608968C16030BDDB
:101AC0003F801CF0704700002DE9FC4704F09CF8B3
:101AD0004FF4805A504600F059F9DFF8DC80374E59
:101AE000374C4FF000092F2518B398F80000012853
:101AF0001FD1E07B012811D1CDE9009501234F468C
:101B000070781A46A17B0BF0F1FFCDE90075707873
:101B100002230122A17B0BF0E9FFE785E07B40B9BE
:101B20001720CDE90005012370781A46A17B0BF040
:101B3000A1F9504600F086F84FF4804A504600F074
:101B400025F988B398F8000001282DD1E07B012801
:101B50001FD1218EE08D4FF0010751EA000202D023
:101B600001290AD015E0CDE90075012370781A46E5
:101B7000A17B0BF0BBFF27860AE050B9CDE90075C9
:101B8000707802230122A17B0BF0B0FFA4F8309003
:101B9000E785E07B40B92020CDE90005012370787E
:101BA0001A46A17B0BF066F9504600F04BF8BDE8F1
:101BB000FC4704F035B800002A01002072B700206D
:101BC000000000202DE9FC4104F01EF84FF4807461
:101BD000204600F0DBF810B1174914208886204613
:101BE00000F030F84FF40077384600F0CFF8D8B165
:101BF0004FF47A700BF0EAF93946104800F05EF9BC
:101C000090B900252F240E4ECDE9005401237078A1
:101C10001A4629460BF06AFFCDE90054707802237A
:101C2000012200210BF062FF384600F00BF8BDE8FE
:101C3000FC4103F0F5BF000000000020000C024052
:101C400072B700200149086070470000143C014051
:101C50002DE9F0434FF4804985B00121484605F055
:101C6000A7FF0121102005F07FFF4FF480770025AA
:101C700003978DF8105003A93F4800F0D1F80821D0
:101C8000042006F0B9F88DF804500C268DF8056094
:101C9000012400978DF80640684600F087F84FF061
:101CA00017088DF8088002208DF809008DF80A00C9
:101CB0008DF80B4002A803F0C7FE384600F05EF82E
:101CC0000921032006F098F88DF8045067028DF87A
:101CD000056000978DF80640684600F067F88DF8BB
:101CE00008808DF809408DF80A408DF80B4002A855
:101CF00003F0AAFE384600F041F80C21032006F05C
:101D00007BF88DF8045027038DF8056000978DF857
:101D10000640684600F04AF84FF028088DF8088021
:101D20008DF809408DF80A408DF80B4002A803F0A9
:101D30008BFE384600F022F80E21032006F05CF8F6
:101D40008DF804508DF80560CDF800908DF80640B0
:101D5000684600F02BF88DF808808DF809408DF862
:101D60000A408DF80B4002A803F06EFE484600F0D2
:101D700005F805B0BDE8F0830010024002490A688A
:101D800002430A6070470000103C0140064A0146C9
:101D900000201268044B0A4014331B680B4202D027
:101DA000002A00D001207047003C014030B51B499B
:101DB0008379026863B30B6893430B600A1D136851
:101DC0000468A343136002790A4413680468234338
:101DD0001360124A083213680468A3431360131D8A
:101DE0001C680568AC431C6090F805C0BCF1100F7E
:101DF00005D061440A68006802430A6030BD11687A
:101E0000046821431160196800680143196030BDFE
:101E10000079084401689143016030BD003C0140F5
:101E2000F0B5002201234FF0030C00BF0D6803FA48
:101E300002F42540A5422DD1066854000CFA04F5A1
:101E4000AE4306600E790768A6403E4306600E79F1
:101E5000012E01D0022E12D18668AE4386604D79E4
:101E60008668A54035438560456803FA02F6B543A8
:101E7000456045688E799640B6B235434560C56881
:101E800056000CFA06F7BD43C560CD79A540C4687D
:101E90002543C560521C102AC8D3F0BD4B07DB0E8A
:101EA0009A40C90810B500EB8100016A0F249C40DC
:101EB000A1430162016A1143016210BD0246002084
:101EC00012690A4200D001207047418370470183A4
:101ED00070470000F0B58BB00446142222A168467A
:101EE000FFF7CEF8142225A105A8FFF7C9F80121B4
:101EF000042006F0DFFA0121102006F0DBFA0121B0
:101F00001C2006F0D7FA6420B4FBF0F500FB154165
:101F10000A20B1FBF0F6B4FBF0F11D4F00FB1144B9
:101F2000387818B90121042006F0C4FA387801285D
:101F300003D10121022006F0BDFA6F4607EB4501EF
:101F400002220A2006F090FA07EB4601022208203E
:101F500006F08AFA05A800EB440102220E2006F0E2
:101F600083FA0BB0F0BD00000F0506000B060F0250
:101F700006030D030D0707000F070F030D0F0806DB
:101F80000E0B0A0F0B060B0D0F0D08070F0F0B0F93
:101F90002A0100202DE9F04FB5B006460D46144643
:101FA0001422A0A16846FFF76BF81422A2A105A88D
:101FB000FFF766F82022A5A10AA8FFF761F814220E
:101FC000AAA117A8FFF75CF82022ADA11CA8FFF773
:101FD00057F81422B2A112A8FFF752F82022B5A197
:101FE00024A8FFF74DF8BBA0012200682F902FA96D
:101FF0001C2006F039FA4FF47A79B6FBF9F2D1B227
:1020000009FB12624FF0640A5046B2FBF0F2D7B2FD
:10201000B6FBFAF20AFB12620A20B2FBF0F8B6FB3A
:10202000F0F2DFF8B4B200FB12669BF80000012862
:1020300007D101EB41010AA801440322192006F04F
:1020400013FA9BF8000018B902211A2006F032FAA0
:1020500007EB47001CA901440322162006F004FAEE
:1020600008EB480024A901440322132006F0FCF9E0
:1020700006EB46010AA801440322102006F0F4F9F9
:10208000B5FBF9F109FB1153B3FBFAF04FF00A0B62
:102090005E46B5FBF6F30BFB135317AF07EB430894
:1020A0006423B5FBF3F703FB1757B7FBFBF6CAB284
:1020B0004FF47A7707FB1151B1FBF3F100F0FF0CFD
:1020C00005A8C9B200EB460600EB410532B100EBB2
:1020D000420102220C2006F0C7F902E0BCF1000F19
:1020E00004D0022229460A2006F0BEF90222314617
:1020F000082006F0B9F9022241460E2006F0B4F994
:10210000B4FBF9F1CDB209FB11415046B1FBF0F13E
:10211000CEB2B4FBFAF10AFB11415846B1FBF0F81C
:10212000B4FBFBF16D4F0BFB1149387818B9012155
:10213000042006F0BFF93878012803D101210220DC
:1021400006F0B8F9684600EB460A022251461046EE
:1021500006F08AF9684600EB480B02225946042033
:1021600006F082F9684600EB49090222494606203A
:1021700006F07AF94FF47A70B4FBF0F100FB1141EC
:102180006420B1FBF0F1CAB212A901EB4208B4FB22
:10219000F0F100FB11400A21B0FBF1F112A800EBB5
:1021A0004104EDB1684600EB45010222002006F033
:1021B0005BF916E002225146104606F055F902225C
:1021C0002146042006F050F90EE00222414620E0AC
:1021D00002224946062006F047F935B0BDE8F08FE7
:1021E00036B138780028E5D038780128F0D1ECE70E
:1021F000387848B902226946104606F035F90222BD
:102200002146042006F030F938780128E0D112A9DF
:102210000222022006F028F902225946042006F084
:1022200023F9D5E70A0F0006060D040F0C060C0B68
:102230000E0B000E0E0F0C0F0F0506000B060F0203
:1022400006030D030D0707000F070F03060506061B
:102250000000040702060700060204020704020742
:102260000606040006070606070400000D0F080610
:102270000E0B0A0F0B060B0D0F0D08070F0F0B0FA0
:10228000060507060001040703060701060205020A
:1022900007050207070604010607070607050000F1
:1022A0000B0F0106070D050F0D060D0B0F0B010E91
:1022B0000F0F0D0F060D06060800040F02060F0093
:1022C000060A04020F04020F06060C00060F06069B
:1022D0000F04000009050300080000202A01002067
:1022E0002DE9F04FADB006460C461546142299A1D3
:1022F0006846FEF7C5FE14229BA10DA8FEF7C0FE9E
:1023000020229EA105A8FEF7BBFE1422A3A117A8B8
:10231000FEF7B6FE1422A6A112A8FEF7B1FE2022F7
:10232000A8A11CA8FEF7ACFEAEA001220068289070
:1023300028A91C2006F098F84FF47A79B6FBF9F238
:10234000D1B209FB12624FF0640A5046B2FBF0F2C0
:1023500002F0FF08B6FBFAF20AFB12620A20B2FB97
:10236000F0F7B6FBF0F2DFF880B200FB12669BF8E4
:102370000000012807D101EB410105A80144032217
:10238000192006F071F89BF8000018B902211A20F4
:1023900006F090F808EB48001CA90144032216201F
:1023A00006F062F807EB470005AFC11903221320BE
:1023B00006F05AF806EB4600C1190322102006F079
:1023C00053F8B4FBF9F109FB1143B3FBFAF04FF0FA
:1023D0000A0B5E46B4FBF6F30BFB134317AF07EB98
:1023E00043086423B4FBF3F703FB1747B7FBFBF683
:1023F000CAB24FF47A7707FB1141B1FBF3F100F059
:10240000FF0C0DA8C9B200EB460600EB410432B147
:1024100000EB420102220C2006F026F802E0BCF19B
:10242000000F04D0022221460A2006F01DF80222E5
:102430003146082006F018F8022241460E2006F028
:1024400013F8B5FBF9F709FB17515046B1FBF0F152
:10245000CEB2B5FBFAF10AFB11515846B1FBF0F8C8
:10246000B5FBFBF168460BFB115900EB460A022253
:10247000FCB25146104605F0F7FF684600EB480BEA
:1024800002225946042005F0EFFF684600EB490898
:1024900002224146062005F0E7FF4FF47A7000FB68
:1024A00017516420B1FBF0F1CAB212A901EB420747
:1024B000B5FBF0F100FB11500A21B0FBF1F1DFF8A0
:1024C0002C9112A800EB4105ECB1684600EB4401E9
:1024D0000222002005F0C8FF16E0022251461046F5
:1024E00005F0C2FF02222946042005F0BDFF10E0DE
:1024F0000222394624E002224146062005F0B4FFBC
:102500002DB0BDE8F08F46B199F800004C46002888
:10251000E3D020780128EED1EAE799F800004C4694
:1025200048B902226946104605F09EFF022229465C
:10253000042005F099FF20780128DCD112A902229D
:10254000022005F091FF02225946042005F08CFF7D
:10255000D1E700000A0F0006060D040F0C060C0B55
:102560000E0B000E0E0F0C0F0F0506000B060F02D0
:1025700006030D030D0707000F070F0306050606E8
:10258000000004070206070006020402070402070F
:102590000606040006070606070400000D0F0806DD
:1025A0000E0B0A0F0B060B0D0F0D08070F0F0B0F6D
:1025B0000B0F0106070D050F0D060D0B0F0B010E7E
:1025C0000F0F0D0F060D07060801040F03060F017C
:1025D000060A05020F05020F07060C01060F070683
:1025E0000F05000009050300070000202A01002054
:1025F0002DE9F04FADB006460C461546142299A1C0
:102600006846FEF73DFD14229BA10DA8FEF738FD9C
:1026100020229EA105A8FEF733FD1422A3A117A82E
:10262000FEF72EFD1422A6A112A8FEF729FD2022F6
:10263000A8A11CA8FEF724FDAEA0012200682890E6
:1026400028A91C2005F010FF4FF47A79B6FBF9F2A7
:10265000D1B209FB12624FF0640A5046B2FBF0F2AD
:1026600002F0FF08B6FBFAF20AFB12620A20B2FB84
:10267000F0F7B6FBF0F2DFF880B200FB12669BF8D1
:102680000000012807D101EB410105A80144032204
:10269000192005F0E9FE9BF8000018B902211A2064
:1026A00005F008FF08EB48001CA90144032216208E
:1026B00005F0DAFE07EB470005AFC119032213202E
:1026C00005F0D2FE06EB4600C1190322102005F0EA
:1026D000CBFEB4FBF9F109FB1143B3FBFAF04FF069
:1026E0000A0B5E46B4FBF6F30BFB134317AF07EB85
:1026F00043086423B4FBF3F703FB1747B7FBFBF670
:10270000CAB24FF47A7707FB1141B1FBF3F100F045
:10271000FF0C0DA8C9B200EB460600EB410432B134
:1027200000EB420102220C2005F09EFE02E0BCF10B
:10273000000F04D0022221460A2005F095FE022255
:102740003146082005F090FE022241460E2005F099
:102750008BFEB5FBF9F709FB17515046B1FBF0F1C1
:10276000CEB2B5FBFAF10AFB11515846B1FBF0F8B5
:10277000B5FBFBF168460BFB115900EB460A022240
:10278000FCB25146104605F06FFE684600EB480B60
:1027900002225946042005F067FE684600EB49080E
:1027A00002224146062005F05FFE4FF47A7000FBDE
:1027B00017516420B1FBF0F1CAB212A901EB420734
:1027C000B5FBF0F100FB11500A21B0FBF1F1DFF88D
:1027D0002C9112A800EB4105ECB1684600EB4401D6
:1027E0000222002005F040FE16E00222514610466B
:1027F00005F03AFE02222946042005F035FE10E0DD
:102800000222394624E002224146062005F02CFE31
:102810002DB0BDE8F08F46B199F800004C46002875
:10282000E3D020780128EED1EAE799F800004C4681
:1028300048B902226946104605F016FE02222946D2
:10284000042005F011FE20780128DCD112A9022213
:10285000022005F009FE02225946042005F004FE7C
:10286000D1E700000A0F0006060D040F0C060C0B42
:102870000E0B000E0E0F0C0F0F0506000B060F02BD
:1028800006030D030D0707000F070F0306050606D5
:1028900000000407020607000602040207040207FC
:1028A0000606040006070606070400000D0F0806CA
:1028B0000E0B0A0F0B060B0D0F0D08070F0F0B0F5A
:1028C0000B0F0106070D050F0D060D0B0F0B010E6B
:1028D0000F0F0D0F0E05070E00010C07030E070169
:1028E0000E02050A07050A07070E04010E07070E68
:1028F0000705000009050300080000202A01002048
:102900002DE9F04FB5B006460C46154614229CA1A1
:102910006846FEF7B5FB14229EA105A8FEF7B0FBA2
:102920002022A1A10AA8FEF7ABFB1422A6A117A89A
:10293000FEF7A6FB1422A9A112A8FEF7A1FB2022F4
:10294000ABA11CA8FEF79CFB2022B1A124A8FEF796
:1029500097FBB7A001220068319031A91C2005F037
:1029600083FD4FF47A79B6FBF9F2D1B209FB12621A
:102970004FF0640A5046B2FBF0F202F0FF08B6FBDB
:10298000FAF20AFB12620A20B2FBF0F7B6FBF0F291
:10299000DFF8A0B200FB12669BF80000012807D107
:1029A00001EB41010AA801440322192005F05CFD56
:1029B0009BF8000018B902211A2005F07BFD08EBF6
:1029C000480024A901440322162005F04DFD07EB21
:1029D00047001CA901440322132005F045FD06EB26
:1029E00046010AA801440322102005F03DFDB4FB76
:1029F000F9F109FB1143B3FBFAF04FF00A0B5E4605
:102A0000B4FBF6F30BFB134317AF07EB4308642348
:102A1000B4FBF3F703FB1747B7FBFBF6CAB24FF45F
:102A20007A7707FB1141B1FBF3F100F0FF0C05A829
:102A3000C9B200EB460600EB410432B100EB4201A3
:102A400002220C2005F010FD02E0BCF1000F04D0C2
:102A5000022221460A2005F007FD02223146082005
:102A600005F002FD022241460E2005F0FDFCB5FBFB
:102A7000F9F709FB17515046B1FBF0F1CEB2B5FBA7
:102A8000FAF10AFB11515846B1FBF0F8B5FBFBF126
:102A900068460BFB115900EB460A0222FCB2514674
:102AA000104605F0E1FC684600EB480B022259464F
:102AB000042005F0D9FC684600EB49080222414693
:102AC000062005F0D1FC4FF47A7000FB175164200A
:102AD000B1FBF0F1CAB212A901EB4207B5FBF0F16C
:102AE00000FB11500A21B0FBF1F1DFF84C9112A864
:102AF00000EB4105ECB1684600EB440102220020E6
:102B000005F0B2FC16E002225146104605F0ACFC7E
:102B100002222946042005F0A7FC10E002223946D3
:102B200024E002224146062005F09EFC35B0BDE8B7
:102B3000F08F46B199F800004C460028E3D0207889
:102B40000128EED1EAE799F800004C4648B9022284
:102B50006946104605F088FC02222946042005F04B
:102B600083FC20780128DCD112A90222022005F082
:102B70007BFC02225946042005F076FCD1E70000D8
:102B80000A0F0006060D040F0C060C0B0E0B000EB0
:102B90000E0F0C0F0F0506000B060F0206030D03A8
:102BA0000D0707000F070F030605060600000407C0
:102BB00002060700060204020704020706060400D4
:102BC00006070606070400000D0F08060E0B0A0F85
:102BD0000B060B0D0F0D08070F0F0B0F0B0F010648
:102BE000070D050F0D060D0B0F0B010E0F0F0D0F2F
:102BF00006050E06000804070A06070806020C026E
:102C0000070C02070E06040806070E06070C000054
:102C10000605070600010407030607010602050270
:102C20000705020707060401060707060705000057
:102C300009050300090000202A0100202DE9F04FBA
:102C4000A9B006460C4615461422A2A108A8FEF714
:102C500017FA1422A4A10DA8FEF712FA1422A7A1B4
:102C600017A8FEF70DFA2022A9A16846FEF708FA78
:102C70001422AFA112A8FEF703FA04211D2005F0CB
:102C800019FC01211C2005F015FC4FF47A70B6FBED
:102C9000F0F200FB12636421B3FBF1F3DBB221938A
:102CA000B6FBF1F301FB13674FF00A0EB7FBFEF31F
:102CB0002393B4FBF0F303F0FF0B00FB1343B3FBD0
:102CC000F1F303F0FF08B4FBF1F301FB1347B5FB8D
:102CD000F0F300FB1350B0FBF1F000F0FF0AB5FB7E
:102CE000F1F001FB1051CDF890A0B1FBFEFA4FF4CA
:102CF0007A7000FB1261B7FBFEF96420B1FBF0F1C2
:102D0000DFB2C9B201EB4103B6FBF0F100FB116188
:102D10000A20B1FBF0F101EB410EB6FBF0F102F03D
:102D2000FF0C00FB11606A46CDF88890CDF87C80DE
:102D300000EB40009E1800EB02090EEB0208BCF10C
:102D4000000F07D00CEB4C0081180322192005F06E
:102D50008BFB01E0219828B103223146162005F0B3
:102D600083FB01E0239921B103224146132005F0A2
:102D70007BFB03224946102005F076FB0A22B4FBB8
:102D8000F2F102FB114117AB03EB41086421B4FBE4
:102D9000F1F301FB1343B3FBF2F20DA800EB420683
:102DA0004FF47A72B4FBF2F302FB1342B2FBF1F17F
:102DB000C9B200EB4104BBF1000F06D000EB4B01A0
:102DC00002220C2005F050FB01E01F9828B10222DE
:102DD00021460A2005F048FB01E0229820B102229A
:102DE0003146082005F040FB022241460E2005F046
:102DF0003BFB0A23B5FBF3F103FB115108A800EBE1
:102E000041096422B5FBF2F102FB1151B1FBF3FC65
:102E10004FF47A73B5FBF3F603FB1651B1FBF2F1F5
:102E2000C9B20DF1480B474C0BEB410500EB4C08C8
:102E30000BEB4C0B00EB4106FFB100EB470102220C
:102E4000002005F011FB1AE002223146104605F081
:102E50000BFB02225946042005F006FB12E0022279
:102E60002946104605F000FB21E0022249460620D3
:102E700005F0FAFA29B0BDE8F08F249830B1207837
:102E80000028E1D020780128EFD1E8E72078BAF1D6
:102E9000000F12D020B902225946042005F0E4FAAE
:102EA00020780128E1D10121022005F003FB022254
:102EB0004146042005F0D8FAD7E718B901210420CB
:102EC00005F0F8FA20780128CFD10121022005F081
:102ED000F1FACAE70A0F0006060D040F0C060C0BE8
:102EE0000E0B000E0E0F0C0F0F0506000B060F0247
:102EF00006030D030D0707000F070F03050F00065C
:102F0000060B020F0306030D070D0007070F030F43
:102F10000605060600000407020607000602040272
:102F20000704020706060400060706060704000059
:102F30000B0F0106070D050F0D060D0B0F0B010EF4
:102F40000F0F0D0F2A0100202DE9F04FEAA1ADB0BF
:102F5000D1E90001CDE928012022E9A111A8FEF75D
:102F60008FF81422EEA101A8FEF78AF81422F1A12D
:102F700019A8FEF785F81422F3A11EA8FEF780F821
:102F80002022F6A106A8FEF77BF81422FBA123A8B5
:102F9000FEF776F8FE4C4FF4804529462046FEF7B2
:102FA0008DFFFC4F4FF0010B88B9B87B20B97878C2
:102FB000401C787002F018F929462046FEF77EFF83
:102FC0000028F9D07878062801D987F801B04FF4A5
:102FD00080552946A2462046FEF770FF88B9B87B87
:102FE00020B97878401E787002F0FEF854462946E1
:102FF0002046FEF763FF0028F9D0787808B906204C
:1030000078707878E44DE54EDFF89483E54C4FF026
:10301000030907287DD2DFE800F0C104C4FDFCFBF2
:10302000FA0080214046FEF749FF80B9FEF706FD11
:10303000DD48DF4A0088126800EB80004004010C84
:10304000DA48007800EB80004000FEF7A3FF802103
:103050004046FEF733FF01285BD14FF4005841464C
:103060005046FEF72BFF88B9B87B78B902F0BCF860
:10307000B878401CB87041465046FEF71FFF002844
:10308000F9D0B878032801D987F802B04FF400616D
:10309000BF48FEF713FFDFF81C83DFF81CA3DFF83F
:1030A0001CB380B9B87B70B902F09EF8B878401EA6
:1030B00087F802004FF40061B548FEF7FFFE0028D4
:1030C000F8D0B87818B1B878012803D029E087F88B
:1030D00002903DE0207878B9FEF7B0FC2888DAF855
:1030E000002000EB80004004010C98F8000000EB89
:1030F00080004000FFF7F4F82078012811D1FEF796
:103100009DFC308800EB80004004010C9BF800001F
:1031100000E043E0AA4A00EB800040001268FFF79D
:10312000EFFBB878022810D1FEF788FCA548A74A23
:103130000088126800EB80004004010CA24800786F
:1031400000EB80004000FFF753FAB878032825D140
:10315000207801280FD1FEF771FC2888DAF80020CA
:1031600000EB80004004010C98F8000000EB8000A8
:103170004000FFF7B5F8207800280FD1FEF75EFC7D
:1031800030888F4A00EB80004004010C9BF800005F
:10319000126800EB80004000FFF7B2FB2DB0BDE8E5
:1031A000F08F80214046FEF789FE894D80B9FEF7F9
:1031B00045FC288840F2F51200EB80004004010C29
:1031C0008448008800EB80004004000C00F090FA76
:1031D00080214046FEF772FE0128DFD14FF40058EF
:1031E000414656465046FEF769FEB0B9B87BA0B9D5
:1031F00001F0FAFFF878401CF87041463046FEF7BF
:103200005DFE0028F9D0F878032806D903E051E2E2
:10321000A8E1A1E1F2E087F803B04FF4006B594652
:10322000B2463046FEF74AFE6B4EDFF8B08170B909
:10323000B87B60B901F0D8FFF878401EF8705946A5
:103240005046FEF73BFE0028F9D0F87818B1F87820
:10325000012803D018E087F8039037E0FEF7EEFB73
:1032600020780028288800EB80004FEA40404FEA91
:1032700010410DD0B8F8000040F2F51200EB8000CC
:103280004004000C00F03CFEF87802280AD01AE056
:10329000308840F2F51200EB80004004000C00F092
:1032A0007BFBF1E7FEF7CAFB288840F2F51200EB42
:1032B00080004004010C4A48008800EB8000400474
:1032C000000C00F0C3FCF878032886D1FEF7B6FBAB
:1032D00020780028288800EB80004FEA40404FEA21
:1032E00010417FD0308840F2F51200EB800040049E
:1032F000000C00F051FB51E7000200000506000041
:10330000060D06060800040F02060F00060A040256
:103310000F04020F06060C00060F06060F0400003D
:103320000A0F0006060D040F0C060C0B0E0B000E08
:103330000E0F0C0F0F0506000B060F0206030D0300
:103340000D0707000F070F03050F0006060B020FFE
:103350000306030D070D0007070F030F06050606FA
:103360000000040702060700060204020704020721
:103370000606040006070606070400000B0F0106F8
:10338000070D050F0D060D0B0F0B010E0F0F0D0F87
:10339000000C02401C01002020000020240000201E
:1033A000001002400A00002016000020010000204A
:1033B00038000020020000203C0000200400002013
:1033C00044000020220000200300002040000020D4
:1033D0001A00002018000020260000202A000020EB
:1033E00028000020FFE7B8F8000040F2F51200EBDB
:1033F00080004004000C00F083FDCFE68021B64839
:10340000FEF75CFDB54DB64EDFF8D88290B9FEF7F9
:1034100015FB288800EB80004004020C308800EB8C
:1034200080004004010C98F8000000EB8000400090
:1034300000F0BCFE8021A848FEF740FD0128DCD149
:1034400041035046FEF73AFD90B9B87B80B901F0D0
:10345000CBFEF878401CF8704FF400515046FEF750
:103460002DFD0028F8D0F878032801D987F803B09B
:103470004FF4006B59465046FEF720FD70B9B87BFB
:1034800060B901F0B1FEF878401EF8705946504618
:10349000FEF714FD0028F9D0F87818B1F878012863
:1034A00003D01DE087F8039037E0FEF7C7FA2078D5
:1034B0000028288800EB80004FEA40404FEA104285
:1034C000308800EB80004FEA40404FEA104198F806
:1034D000000000EB80004FEA400005D001F07AFACE
:1034E000F878022803D015E000F0B8FFF8E7FEF7FF
:1034F000A5FA288800EB80004004020C308800EB1D
:1035000080004004010C98F8000000EB80004000AF
:1035100001F002F9F878032891D1FEF78FFA2078AC
:103520000028288800EB80004FEA40404FEA104214
:10353000308800EB80004FEA40404FEA104198F895
:10354000000000EB80004FEA400002D000F086FF50
:1035500024E601F03FFA21E6FEF770FA0120FEF7BB
:10356000B9FC1BE6FEF76AFA04211D2004F0A2FF55
:1035700001211C2004F09EFF062228A9162004F039
:1035800073FFFA7B0A20B2FBF0F100FB11283A7CB2
:10359000B2FBF0F500FB15297A7CB2FBF0F400FBDE
:1035A000142601EB410011A901440322132004F069
:1035B0005BFF08EB480006A901440322102004F039
:1035C00053FF19A800EB45010222082004F04CFF2C
:1035D0001EA800EB490102220E2004F045FFB87B33
:1035E00030B923A800EB44010222042004F03CFF80
:1035F000B87B01AD012809D10121022004F05AFF56
:1036000005EB44010222042004F02EFF05EB4601E5
:103610000222062004F028FF4FF400584146544689
:103620005046FEF74BFC304D05F12006D8B9B87B6B
:10363000C8B901F0D9FDF87B401CF873414620461B
:10364000FEF73CFC0028F9D0F87B202802D9584628
:1036500087F80FB0C0B22918304411F8011C397432
:1036600010F8010C78744FF4006841462046FEF7CC
:1036700025FC00287FF43FAEB87B0028FAD101F08A
:10368000B3FDF87BA146401EF873444621464846E8
:10369000FEF714FC0028F9D0F87B08B92020F87355
:1036A000C0B22918304411F8011C397410F8010C0B
:1036B000787473E5FEF7C2F9308800EB80004200B1
:1036C0000A48008800EB80004100288800EB800059
:1036D0004000FFF7B3FA61E5001002401E00002031
:1036E0001C00002000000020D4CD0020220000207B
:1036F0002DE9F04FB7B004460D461646142278A1C6
:103700001DA8FDF7BDFC14227AA108A8FDF7B8FC9E
:1037100020227DA16846FDF7B3FC142282A127A8D0
:10372000FDF7AEFC202285A10DA8FDF7A9FC14220F
:103730008AA122A8FDF7A4FC8DA014220068349071
:1037400086A12CA8FDF79CFC20228AA115A8FDF7D4
:1037500097FC01220DF1D1011C2004F085FE4FF4ED
:103760007A7AB4FBFAF10AFB11434FF0640BB3FB16
:10377000FBF202F0FF080AFB1142C8B25946B2FB45
:10378000F1F2D2B202EB4207B4FBF1F20A210BFBD9
:103790001242B2FBF1F2B4FBF1F301FB13410DF164
:1037A000340C01EB410101EB0C09EE4602EB420245
:1037B00015A95418774438B100EB40017144032235
:1037C000192004F051FE02E0B8F1000F04D00322EA
:1037D0003946162004F048FE03222146132004F047
:1037E00043FE03224946102004F03EFEB5FBFAF1E9
:1037F0000AFB1153D946B3FBF9F04FF00A0A5446BD
:10380000B5FBF4F30AFB135327AF07EB430864231C
:10381000B5FBF3F703FB1757B7FBFAF400F0FF0C07
:1038200008A800EB4407CAB24FF47A7404FB1151A4
:10383000B1FBF3F1C9B200EB410432B100EB42013C
:1038400002220C2004F010FE02E0BCF1000F04D0B4
:10385000022221460A2004F007FE022239460820EF
:1038600004F002FE022241460E2004F0FDFDB6FBEC
:10387000F9F1CCB209FB11615046B1FBF0F5B6FB92
:10388000FAF1444F0AFB116638780DF174080DF116
:10389000880958B9022208EB4401104604F0E4FDFF
:1038A00009EB45010222042004F0DEFD38780128EE
:1038B0000BD1022209EB4401104604F0D5FD08EBC0
:1038C00045010222042004F0CFFD2CA800EB4601A4
:1038D0000222062004F0C8FD37B0BDE8F08F0000DA
:1038E0000A0F0006060D040F0C060C0B0E0B000E43
:1038F0000E0F0C0F0F0506000B060F0206030D033B
:103900000D0707000F070F03060506060000040752
:103910000206070006020402070402070606040066
:1039200006070606070400000D0F08060E0B0A0F17
:103930000B060B0D0F0D08070F0F0B0F06050706E3
:103940000001040703060701060205020705020736
:103950000706040106070706070500000B0F01060E
:10396000070D050F0D060D0B0F0B010E0F0F0D0FA1
:1039700009050300060D06060800040F02060F00E5
:10398000060A04020F04020F06060C00060F0606C4
:103990000F0400002A0100202DE9F04FB7B00446C3
:1039A0000D46164614227BA11DA8FDF769FB1422C3
:1039B0007DA108A8FDF764FB202280A16846FDF7E1
:1039C0005FFB142285A127A8FDF75AFB202288A1BE
:1039D0000DA8FDF755FB14228DA122A8FDF750FB81
:1039E00090A014220068349089A12CA8FDF748FB10
:1039F00020228DA115A8FDF743FB01220DF1D10175
:103A00001C2004F031FD4FF47A7AB4FBFAF10AFB82
:103A100011434FF0640BB3FBFBF202F0FF080AFB0B
:103A20001142C8B25946B2FBF1F2D2B202EB4207E0
:103A3000B4FBF1F20A210BFB1242B2FBF1F2B4FB30
:103A4000F1F301FB13410DF1340C01EB410101EBEA
:103A50000C09EE4602EB420215A902EB0E040F44DC
:103A600038B100EB400171440322192004F0FCFC42
:103A700002E0B8F1000F05D003223946162004F009
:103A8000F3FC03E00821172004F014FD0322214673
:103A9000132004F0E9FC03224946102004F0E4FC62
:103AA000B5FBFAF10AFB1153D946B3FBF9F04FF01D
:103AB0000A0A5446B5FBF4F30AFB135327AF07EB8E
:103AC00043086423B5FBF3F703FB1757B7FBFAF47E
:103AD00000F0FF0C08A800EB4407CAB24FF47A7458
:103AE00004FB1151B1FBF3F1C9B200EB410432B157
:103AF00000EB420102220C2004F0B6FC02E0BCF113
:103B0000000F04D0022221460A2004F0ADFC02225C
:103B10003946082004F0A8FC022241460E2004F099
:103B2000A3FCB6FBF9F1CCB209FB11615046B1FB25
:103B3000F0F5B6FBFAF1444F0AFB116638780DF147
:103B400074080DF1880958B9022208EB44011046A7
:103B500004F08AFC09EB45010222042004F084FCF5
:103B6000387801280BD1022209EB4401104604F0F9
:103B70007BFC08EB45010222042004F075FC2CA814
:103B800000EB46010222062004F06EFC37B0BDE8CF
:103B9000F08F00000A0F0006060D040F0C060C0B38
:103BA0000E0B000E0E0F0C0F0F0506000B060F027A
:103BB00006030D030D0707000F070F030605060692
:103BC00000000407020607000602040207040207B9
:103BD0000606040006070606070400000D0F080687
:103BE0000E0B0A0F0B060B0D0F0D08070F0F0B0F17
:103BF0000605070600010407030607010602050281
:103C00000705020707060401060707060705000067
:103C10000B0F0106070D050F0D060D0B0F0B010E07
:103C20000F0F0D0F09050300060D07060801040F0D
:103C300003060F01060A05020F05020F07060C0115
:103C4000060F07060F0500002A0100202DE9F04F9E
:103C5000B7B004460D46164614227BA11DA8FDF7F9
:103C60000FFA14227DA108A8FDF70AFA202280A1EC
:103C70006846FDF705FA142285A127A8FDF700FA8A
:103C8000202288A10DA8FDF7FBF914228DA122A8FE
:103C9000FDF7F6F990A014220068349089A12CA8B1
:103CA000FDF7EEF920228DA115A8FDF7E9F9012213
:103CB0000DF1D1011C2004F0D7FB4FF47A7AB4FB4C
:103CC000FAF10AFB11434FF0640BB3FBFBF202F075
:103CD000FF080AFB1142C8B25946B2FBF1F2D2B258
:103CE00002EB4207B4FBF1F20A210BFB1242B2FBDA
:103CF000F1F2B4FBF1F301FB13410DF1340C01EBD4
:103D0000410101EB0C09EE4602EB420215A902EB60
:103D10000E040F4438B100EB400171440322192016
:103D200004F0A2FB02E0B8F1000F05D003223946EF
:103D3000162004F099FB03E00821162004F0BAFBDA
:103D400003222146132004F08FFB03224946102052
:103D500004F08AFBB5FBFAF10AFB1153D946B3FB19
:103D6000F9F04FF00A0A5446B5FBF4F30AFB13537B
:103D700027AF07EB43086423B5FBF3F703FB1757A3
:103D8000B7FBFAF400F0FF0C08A800EB4407CAB236
:103D90004FF47A7404FB1151B1FBF3F1C9B200EB9B
:103DA000410432B100EB420102220C2004F05CFB22
:103DB00002E0BCF1000F04D0022221460A2004F0E8
:103DC00053FB02223946082004F04EFB02224146F2
:103DD0000E2004F049FBB6FBF9F1CCB209FB1161EE
:103DE0005046B1FBF0F5B6FBFAF1444F0AFB116601
:103DF00038780DF174080DF1880958B9022208EBE2
:103E00004401104604F030FB09EB45010222042076
:103E100004F02AFB387801280BD1022209EB440177
:103E2000104604F021FB08EB45010222042004F0B7
:103E30001BFB2CA800EB46010222062004F014FB19
:103E400037B0BDE8F08F00000A0F0006060D040F22
:103E50000C060C0B0E0B000E0E0F0C0F0F050600C0
:103E60000B060F0206030D030D0707000F070F03D4
:103E70000605060600000407020607000602040203
:103E800007040207060604000607060607040000EA
:103E90000D0F08060E0B0A0F0B060B0D0F0D080772
:103EA0000F0F0B0F060507060001040703060701A5
:103EB00006020502070502070706040106070706B2
:103EC000070500000B0F0106070D050F0D060D0B72
:103ED0000F0B010E0F0F0D0F090503000E05070E46
:103EE00000010C07030E07010E02050A07050A0769
:103EF000070E04010E07070E070500002A01002027
:103F00002DE9F04FB7B004460D461646142279A1AC
:103F100015A8FDF7B5F814227BA16846FDF7B0F8A7
:103F200020227EA11FA8FDF7ABF8142283A127A8A9
:103F3000FDF7A6F8202286A105A8FDF7A1F8142216
:103F40008BA11AA8FDF79CF88EA01422006834906B
:103F500087A12CA8FDF794F820228BA10DA8FDF7CE
:103F60008FF801220DF1D1011C2004F07DFA4FF4ED
:103F70007A7BB4FBFBF10BFB11436422B3FBF2F23F
:103F800002F0FF0A0BFB1142C8B26421B2FBF1F24E
:103F9000D2B202EB4207B4FBF1F201FB12420A215A
:103FA000B2FBF1F2B4FBF1F301FB13410DF1140C80
:103FB0000DF1340802EB420201EB410101EB0C0967
:103FC000904407EB0C0440B100EB40001FA90144F2
:103FD0000322192004F048FA02E0BAF1000F04D0DD
:103FE00003222146162004F03FFA03224146132003
:103FF00004F03AFA03224946102004F035FAB5FBE2
:10400000FBF10BFB11534FF06409B3FBF9F04FF0D8
:104010000A0A5446B5FBF4F30AFB135327AF07EB28
:1040200043084B46B5FBF3F709FB1757B7FBFAF408
:1040300000F0FF0C684600EB4407CAB24FF47A74F4
:1040400004FB1151B1FBF9F1C9B200EB410432B1EB
:1040500000EB420102220C2004F006FA02E0BCF15F
:10406000000F04D0022221460A2004F0FDF90222AA
:104070003946082004F0F8F9022241460E2004F0E7
:10408000F3F9B6FBF9F1CCB209FB11615046B1FB73
:10409000F0F5B6FBFAF1444F0AFB116638780DF1E2
:1040A00054090DF1680858B9022209EB4401104681
:1040B00004F0DAF908EB45010222042004F0D4F9F7
:1040C000387801280BD1022208EB4401104604F095
:1040D000CBF909EB45010222042004F0C5F92CA814
:1040E00000EB46010222062004F0BEF937B0BDE81D
:1040F000F08F00000A0F0006060D040F0C060C0BD3
:104100000E0B000E0E0F0C0F0F0506000B060F0214
:1041100006030D030D0707000F070F03060506062C
:104120000000040702060700060204020704020753
:104130000606040006070606070400000D0F080621
:104140000E0B0A0F0B060B0D0F0D08070F0F0B0FB1
:10415000060507060001040703060701060205021B
:104160000705020707060401060707060705000002
:104170000B0F0106070D050F0D060D0B0F0B010EA2
:104180000F0F0D0F0905030006050E0600080407B2
:104190000A06070806020C02070C02070E060408AE
:1041A00006070E06070C00002A0100202DE9F04F3B
:1041B000B7B004460D46164614227AA11DA8FCF796
:1041C0005FFF14227CA108A8FCF75AFF20227FA1E0
:1041D0006846FCF755FF142284A127A8FCF750FF7E
:1041E000202287A10DA8FCF74BFF14228CA12CA83C
:1041F000FCF746FF14228AA122A8FCF741FF8DA0FC
:104200002022006831908CA115A8FCF739FF01220B
:104210000DF1C6011C2004F027F90121042004F04F
:1042200049F94FF47A72B4FBF2F102FB11436422B4
:10423000B3FBF2F202F0FF094FF47A7202FB114273
:10424000C8B26421B2FBF1F2D2B202EB4207B4FB76
:10425000F1F201FB12420A21B2FBF1F2B4FBF1F3DD
:1042600001FB1341EB460DF1340C0DF1540802EB48
:10427000420201EB410101EB0C0A904407EB0B04F5
:1042800038B100EB400159440322192004F0ECF846
:1042900002E0B9F1000F04D003222146162004F0F9
:1042A000E3F803224146132004F0DEF803225146CE
:1042B000102004F0D9F84FF064084FF00A01B5FB64
:1042C000F8F2B5FBF1F412F0FF0001FB145408FB07
:1042D0001252B2FBF1F127AB0DF1200C03EB4407B6
:1042E0000CEB410405D00CEB400102220A2004F043
:1042F000BBF802222146082004F0B6F80222394613
:104300000E2004F0B1F84FF00A00B6FBF0F3B6FB54
:10431000F8F100FB13632CAA02EB430811F0FF0431
:104320004FF0640202FB1161B1FBF0F04A4F0DF156
:10433000740C0DF188090CEB400609EB4005387848
:104340001DD050B902220CEB4401104604F08CF849
:1043500002222946042004F087F83878012806D183
:10436000022209EB4401104604F07EF814E0022218
:104370004146062004F078F837B0BDE8F08F20B948
:1043800002222946042004F06FF838780128EED183
:104390000121022004F08EF802223146042004F0AC
:1043A00063F8E4E70A0F0006060D040F0C060C0B79
:1043B0000E0B000E0E0F0C0F0F0506000B060F0262
:1043C00006030D030D0707000F070F03060506067A
:1043D00000000407020607000602040207040207A1
:1043E0000606040006070606070400000D0F08066F
:1043F0000E0B0A0F0B060B0D0F0D08070F0F0B0FFF
:104400000605070600010407030607010602050268
:10441000070502070706040106070706070500004F
:104420000B0F0106070D050F0D060D0B0F0B010EEF
:104430000F0F0D0F09050300060D06060800040FF7
:1044400002060F00060A04020F04020F06060C0003
:10445000060F06060F0400002A0100202DE9F04F88
:10446000B7B004460D46164614227DA11DA8FCF7E0
:1044700007FE14227FA108A8FCF702FE202282A1D9
:104480006846FCF7FDFD142287A127A8FCF7F8FD7C
:1044900020228AA10DA8FCF7F3FD14228FA12CA8DD
:1044A000FCF7EEFD14228DA122A8FCF7E9FD90A0F7
:1044B0002022006831908FA115A8FCF7E1FD0122B0
:1044C0000DF1C6011C2003F0CFFF0121042003F0F1
:1044D000F1FF4FF47A72B4FBF2F102FB1143642254
:1044E000B3FBF2F202F0FF094FF47A7202FB1142C1
:1044F000C8B26421B2FBF1F2D2B202EB4207B4FBC4
:10450000F1F201FB12420A21B2FBF1F2B4FBF1F32A
:1045100001FB13410DF1540EEB460DF1340C02EB8F
:10452000420201EB410101EB0C0A02EB0B0807EB25
:104530000E0438B100EB400159440322192003F066
:1045400093FF02E0B9F1000F05D0032221461620A7
:1045500003F08AFF03E00821172003F0ABFF0322DA
:104560004146132003F080FF03225146102003F040
:104570007BFF4FF064084FF00A01B5FBF8F2B5FB82
:10458000F1F412F0FF0001FB145408FB1252B2FBCD
:10459000F1F127AB0DF1200C03EB44070CEB4104C8
:1045A00005D00CEB400102220A2003F05DFF02223D
:1045B0002146082003F058FF022239460E2003F05E
:1045C00053FF4FF00A00B6FBF0F3B6FBF8F100FB27
:1045D00013632CAA02EB430811F0FF044FF06402AE
:1045E00002FB1161B1FBF0F04A4F0DF1740C0DF1BB
:1045F00088090CEB400609EB400538781DD050B90E
:1046000002220CEB4401104603F02EFF0222294641
:10461000042003F029FF3878012806D1022209EB93
:104620004401104603F020FF14E002224146062018
:1046300003F01AFF37B0BDE8F08F20B902222946F7
:10464000042003F011FF38780128EED10121022067
:1046500003F030FF02223146042003F005FFE4E7B7
:104660000A0F0006060D040F0C060C0B0E0B000EB5
:104670000E0F0C0F0F0506000B060F0206030D03AD
:104680000D0707000F070F030605060600000407C5
:1046900002060700060204020704020706060400D9
:1046A00006070606070400000D0F08060E0B0A0F8A
:1046B0000B060B0D0F0D08070F0F0B0F0605070656
:1046C00000010407030607010602050207050207A9
:1046D0000706040106070706070500000B0F010681
:1046E000070D050F0D060D0B0F0B010E0F0F0D0F14
:1046F00009050300060D06060800040F02060F0058
:10470000060A04020F04020F06060C00060F060636
:104710000F0400002A0100202DE9F04FB7B0044635
:104720000D46164614227DA11DA8FCF7A9FC1422F3
:104730007FA108A8FCF7A4FC202282A16846FCF710
:104740009FFC142287A127A8FCF79AFC20228AA1AB
:104750000DA8FCF795FC14228FA12CA8FCF790FC67
:1047600014228DA122A8FCF78BFC90A020220068C7
:1047700031908FA115A8FCF783FC01220DF1C60131
:104780001C2003F071FE0121042003F093FE4FF47E
:104790007A72B4FBF2F102FB11436422B3FBF2F232
:1047A00002F0FF094FF47A7202FB1142C8B2642191
:1047B000B2FBF1F2D2B202EB4207B4FBF1F201FB21
:1047C00012420A21B2FBF1F2B4FBF1F301FB1341F7
:1047D0000DF1540EEB460DF1340C02EB420201EBED
:1047E000410101EB0C0A02EB0B0807EB0E0438B198
:1047F00000EB400159440322192003F035FE02E08A
:10480000B9F1000F05D003222146162003F02CFE3B
:1048100003E00821162003F04DFE03224146132039
:1048200003F022FE03225146102003F01DFE4FF03C
:1048300064084FF00A01B5FBF8F2B5FBF1F412F091
:10484000FF0001FB145408FB1252B2FBF1F127AB3D
:104850000DF1200C03EB44070CEB410405D00CEBED
:10486000400102220A2003F0FFFD02222146082017
:1048700003F0FAFD022239460E2003F0F5FD4FF059
:104880000A00B6FBF0F3B6FBF8F100FB13632CAAA9
:1048900002EB430811F0FF044FF0640202FB1161C8
:1048A000B1FBF0F04A4F0DF1740C0DF188090CEBDF
:1048B000400609EB400538781DD050B902220CEBB8
:1048C0004401104603F0D0FD02222946042003F0E3
:1048D000CBFD3878012806D1022209EB44011046AD
:1048E00003F0C2FD14E002224146062003F0BCFDA5
:1048F00037B0BDE8F08F20B902222946042003F02A
:10490000B3FD38780128EED10121022003F0D2FD59
:1049100002223146042003F0A7FDE4E70A0F000657
:10492000060D040F0C060C0B0E0B000E0E0F0C0FD9
:104930000F0506000B060F0206030D030D07070007
:104940000F070F030605060600000407020607000E
:10495000060204020704020706060400060706060C
:10496000070400000D0F08060E0B0A0F0B060B0DB7
:104970000F0D08070F0F0B0F0605070600010407B0
:1049800003060701060205020705020707060401E0
:1049900006070706070500000B0F0106070D050FA8
:1049A0000D060D0B0F0B010E0F0F0D0F0905030068
:1049B0000E05060E00000C07020E07000E02040A88
:1049C00007040A07060E04000E07060E070400007F
:1049D0002A0100202DE9F04FB7B004460D461646D7
:1049E00014227AA11DA8FCF74BFB14227CA108A875
:1049F000FCF746FB20227FA16846FCF741FB14220E
:104A000084A127A8FCF73CFB202287A10DA8FCF776
:104A100037FB14228CA12CA8FCF732FB14228AA1AC
:104A200022A8FCF72DFB8DA02022006831908CA1DC
:104A300015A8FCF725FB01220DF1C6011C2003F08F
:104A400013FD0121042003F035FD4FF47A72B4FB0D
:104A5000F2F102FB11436422B3FBF2F202F0FF0910
:104A60004FF47A7202FB1142C8B26421B2FBF1F238
:104A7000D2B202EB4207B4FBF1F201FB12420A216F
:104A8000B2FBF1F2B4FBF1F301FB1341EB460DF184
:104A9000340C0DF1540802EB420201EB410101EB31
:104AA0000C0A904407EB0B0438B100EB4001594469
:104AB0000322192003F0D8FC02E0B9F1000F04D062
:104AC00003222146162003F0CFFC03224146132087
:104AD00003F0CAFC03225146102003F0C5FC4FF03E
:104AE00064084FF00A01B5FBF8F2B5FBF1F412F0DF
:104AF000FF0001FB145408FB1252B2FBF1F127AB8B
:104B00000DF1200C03EB44070CEB410405D00CEB3A
:104B1000400102220A2003F0A7FC022221460820BD
:104B200003F0A2FC022239460E2003F09DFC4FF058
:104B30000A00B6FBF0F3B6FBF8F100FB13632CAAF6
:104B400002EB430811F0FF044FF0640202FB116115
:104B5000B1FBF0F04A4F0DF1740C0DF188090CEB2C
:104B6000400609EB400538781DD050B902220CEB05
:104B70004401104603F078FC02222946042003F089
:104B800073FC3878012806D1022209EB4401104653
:104B900003F06AFC14E002224146062003F064FCA4
:104BA00037B0BDE8F08F20B902222946042003F077
:104BB0005BFC38780128EED10121022003F07AFC59
:104BC00002223146042003F04FFCE4E70A0F0006FE
:104BD000060D040F0C060C0B0E0B000E0E0F0C0F27
:104BE0000F0506000B060F0206030D030D07070055
:104BF0000F070F030605060600000407020607005C
:104C00000602040207040207060604000607060659
:104C1000070400000D0F08060E0B0A0F0B060B0D04
:104C20000F0D08070F0F0B0F0605070600010407FD
:104C3000030607010602050207050207070604012D
:104C400006070706070500000B0F0106070D050FF5
:104C50000D060D0B0F0B010E0F0F0D0F09050300B5
:104C600006050E06000804070A06070806020C02DD
:104C7000070C02070E06040806070E06070C0000C4
:104C80002A0100201CB50121022002F06DFFE02066
:104C9000009001208DF8040000208DF8060002200D
:104CA0000F4C8DF8050069462046FDF7B9F8202124
:104CB0002046FDF70CF940212046FDF708F9802138
:104CC0002046FDF704F9022003F0D4F8292003F070
:104CD000D1F8012003F0CEF8032003F0CBF81CBD7F
:104CE00000040240FEE700007CB5134E4FF400556F
:104CF00029463046FDF7E9F801208DF8040002202E
:104D00006C008DF80500009469463046FDF788F880
:104D100021463046FDF7D9F8022008F057F9294618
:104D20003046FDF7D4F8022008F050F92946304605
:104D3000FDF7CBF87CBD0000000402401CB501214A
:104D4000022002F011FF4FF4E040009001208DF8A6
:104D5000040002200A4C8DF8050069462046FDF744
:104D60005FF8A1142046FDF7B0F84FF4005120463B
:104D7000FDF7ADF84FF480412046FDF7A8F81CBDC3
:104D8000000402407CB5134E4FF4005529463046CE
:104D9000FDF79BF801208DF8040002206C008DF8CF
:104DA0000500009469463046FDF73AF82146304642
:104DB000FDF78DF8022008F009F929463046FDF785
:104DC00086F8022008F002F929463046FDF77DF802
:104DD0007CBD0000000402402DE9FC4700241B4E6E
:104DE00080464FF480478DF8044000978DF80740C7
:104DF00069463046FDF714F80025B9467F1039465C
:104E00003046FDF762F8022008F0E0F839463046F7
:104E1000FDF75DF86006040E49463046FDF74EF892
:104E200008B1641CE4B2012008F0D0F86D1CEDB2AA
:104E3000082DE4D3B8F1000F04D0FFF755FF20464A
:104E4000BDE8FC87FFF79EFFF9E700000004024081
:104E50002DE9FC47054601208DF8040002201A4E7A
:104E60004FF480478DF80500009769463046FCF7FF
:104E7000D7FF4FF4005841463046FDF726F8B946B3
:104E80000024474628064946304602D4FDF71DF85F
:104E900001E0FDF71CF86806050E022008F096F800
:104EA00039463046FDF713F8022008F08FF83946EE
:104EB0003046FDF70AF8022008F088F8641CE4B2D6
:104EC000082CDFD3BDE8FC87000402407CB501203C
:104ED0008DF804000220114D4FF480448DF8050038
:104EE000009469462846FCF79BFF21462846FCF7BC
:104EF000EEFF661031462846FCF7E9FF032008F074
:104F000065F821462846FCF7E0FF032008F05EF82C
:104F100031462846FCF7D9FF7CBD00000004024062
:104F20007CB501208DF804000220114D4FF480441F
:104F30008DF80500009469462846FCF771FF66105D
:104F400031462846FCF7C1FF21462846FCF7BDFF45
:104F5000032008F03BF831462846FCF7B8FF21460D
:104F60002846FCF7B4FF032008F030F87CBD0000B1
:104F7000000402402DE9FC410024184E4FF4804506
:104F80008DF8044000958DF8074069463046FCF7DF
:104F900047FF29463046FCF79AFF012008F016F833
:104FA0006F1039463046FCF792FF012008F00EF8EA
:104FB00008E0641CE4B2FA2C04D9FFF7B1FF012029
:104FC000BDE8FC8129463046FCF778FF0028F0D187
:104FD00039463046FCF779FF0020F1E70004024033
:104FE00002494AF6AA2008607047000000300040DD
:104FF0002DE9F0479CB001215E4802F0B5FD01218A
:105000004FF4E06002F0D4FD4FF0806000905A4809
:1050100001900125594802A9002431C106A8EE02D9
:105020006F034FF480784FF400390594A0E8D00363
:10503000CDE90B45DFF848A10D94694650460E9422
:10504000FCF716FD01215046FCF708FD4D4802A96A
:10505000CDE900404948DFF828A1801C31C106A8ED
:105060000594A0E8D003CDE90B45AAF1180A0D94E8
:10507000694650460E94FCF7FBFC01215046FCF7B4
:10508000EDFC68060090404801903C4802A9001DD4
:1050900031C106A80594A0E8D003394ECDE90B45EF
:1050A00018360D94694630460E94FCF7E1FC012158
:1050B0003046FCF7D3FC3F20032615908DF858604E
:1050C0008DF85B4015A93148FCF7AAFE9220159097
:1050D0008DF858608DF85B4015A92D48FCF7A0FEAF
:1050E00017941894199417A81A94FCF71BF90F94A5
:1050F0008DF84040119413941F4C8DF841504C3C56
:105100008DF850500FA92046FCF738F91E4D0FA915
:105110004C3D2846FCF732F91A4E0FA94C3E30465A
:10512000FCF72CF901212046FCF71EF90121284645
:10513000FCF71AF901213046FCF716F90121204647
:10514000FCF708F901212846FCF704F90121304653
:10515000FCF700F901212046FCF7DAF80121284686
:10516000FCF7D6F801213046FCF7D2F81CB0BDE8B8
:10517000F0870000050040004C2201401000002094
:10518000286402404C2001404C21014000080240AC
:10519000000002401CB50121082002F0E5FC4FF49C
:1051A000FE40002400908DF8044069460848FCF752
:1051B00037FE0121102002F0D7FC4FF46070009000
:1051C0008DF8044069460348FCF72AFE1CBD000028
:1051D000000C0240001002404FF400410148FCF76F
:1051E00074BE0000000C024010B54FF400410348AB
:1051F000FCF76DFE02490620487310BD000C02400A
:10520000000000202DE9F0470C46F9A19046994690
:105210008CB091E82C00C968DDF850A0CDE90251AE
:10522000F7A1CDE9002391E82C00C968CDE904235A
:10523000CDE90651F6A104AE91E82C00C96808AF8B
:10524000CDE90A51611E6D46CDE9082340B1012820
:105250007DD10F297CD8CCB2B8F1000F79D0D4E041
:105260000F2974D8CCB2B8F1000F11D1285D0121FB
:1052700040F4E070FCF734FB385D012140F4E0704D
:10528000FCF72EFB305D012140F4E070FCF728FBB9
:10529000B9F1000F11D1285D022140F4E070FCF754
:1052A0001FFB385D022140F4E070FCF719FB305D14
:1052B000022140F4E070FCF713FBBAF1000F11D1AA
:1052C000285D032140F4E070FCF70AFB385D032100
:1052D00040F4E070FCF704FB305D032140F4E07023
:1052E000FCF7FEFAB8F1010F11D1305D012140F455
:1052F000E070FCF7F5FA385D012140F4E070FCF74E
:10530000EFFA285D012140F4E070FCF7E9FAB9F109
:10531000010F11D1305D022140F4E070FCF7E0FA9A
:10532000385D022140F4E070FCF7DAFA285D0221D2
:1053300040F4E070FCF7D4FABAF1010F15D1305DFA
:10534000032140F4E070FCF7CBFA385D02E0B7E0EF
:10535000C6E048E040F4E0700321FCF7C1FA285DA4
:10536000032140F4E070FCF7BBFAB8F1020F11D151
:10537000285D012140F4E070FCF7B2FA305D0121B4
:1053800040F4E070FCF7ACFA385D012140F4E070C5
:10539000FCF7A6FAB9F1020F11D1285D022140F401
:1053A000E070FCF79DFA305D022140F4E070FCF7FC
:1053B00097FA385D022140F4E070FCF791FABAF1F7
:1053C000020F7DD1285D032140F4E070FCF788FADC
:1053D000305D032140F4E070FCF782FA385D032170
:1053E00040F4E070FCE0285D012140F4E070FCF73F
:1053F00077FA385D012140F4E070FCF771FA305D16
:10540000012140F4E070FCF76BFAB9F1000F11D103
:10541000285D022140F4E070FCF762FA385D022159
:1054200040F4E070FCF75CFA305D022140F4E0707B
:10543000FCF756FAB8F1010F11D1305D012140F4AB
:10544000E070FCF74DFA385D012140F4E070FCF7A4
:1054500047FA285D012140F4E070FCF741FAB9F108
:10546000010F11D1305D022140F4E070FCF738FAF1
:10547000385D022140F4E070FCF732FA285D022129
:1054800040F4E070FCF72CFAB8F1020F11D1285D5E
:10549000012140F4E070FCF723FA305D012140F473
:1054A000E070FCF71DFA385D012140F4E070FCF774
:1054B00017FAB9F1020F13D1285D40F4E07000E053
:1054C0008FE00221FCF70CFA305D022140F4E0701D
:1054D000FCF706FA385D022140F4E070FCF700FAB0
:1054E000113C0F2C7DD8E4B2B8F1000F11D1285D2A
:1054F000042140F4E070FCF7F3F9385D042140F436
:10550000E070FCF7EDF9305D042140F4E070FCF749
:10551000E7F9B9F1000F11D1285D052140F4E070E1
:10552000FCF7DEF9385D052140F4E070FCF7D8F9AE
:10553000305D052140F4E070FCF7D2F9B8F1010FBD
:1055400011D1305D042140F4E070FCF7C9F9385DF9
:10555000042140F4E070FCF7C3F9285D042140F415
:10556000E070FCF7BDF9B9F1010F11D1305D0521F3
:1055700040F4E070FCF7B4F9385D052140F4E070C8
:10558000FCF7AEF9285D052140F4E070FCF7A8F9BE
:10559000B8F1020F11D1285D042140F4E070FCF74E
:1055A0009FF9305D042140F4E070FCF799F9385D13
:1055B000042140F4E070FCF793F9B9F1020F13D124
:1055C000285D052140F4E070FCF78AF9305D052183
:1055D00040F4E070FCF784F9385D052140F4E07098
:1055E00000E001E0FCF77CF90CB0BDE8F0870000BA
:1055F000383B3033282B2023181B1013080B0003D3
:10560000393C3134292C2124191C1114090C1104A2
:105610003A3D32352A2D22251A1D12150A0D020592
:105620002DE9F0470C46F9A1174698468CB091E851
:105630002C00C968DDF85090CDE90251F7A1CDE901
:10564000002391E82C00C968CDE90423CDE9065177
:10565000F6A10DF1200A91E82C00C96804AECDE94D
:105660000A51611E6D46CDE9082338B101287DD16C
:105670000F297CD8CCB2002F7AD0C5E00F2975D87D
:10568000CCB297B9285D012140F4E070FCF728F90D
:105690001AF80400012140F4E070FCF721F9305DB4
:1056A000012140F4C070FCF71BF9B8F1000F12D1D2
:1056B000285D022140F4E070FCF712F91AF80400AA
:1056C000022140F4E070FCF70BF9305D022140F458
:1056D000C070FCF705F9B9F1000F12D1285D032164
:1056E00040F4E070FCF7FCF81AF80400032140F4E1
:1056F000E070FCF7F5F8305D032140F4C070FCF772
:10570000EFF8012F12D1305D012140F4E070FCF779
:10571000E7F81AF80400012140F4E070FCF7E0F823
:10572000285D012140F4C070FCF7DAF8B8F1010FF0
:1057300012D1305D022140F4E070FCF7D1F81AF884
:105740000400022140F4E070FCF7CAF8285D022151
:1057500040F4C070FCF7C4F8B9F1010F16D1305D08
:10576000032140F4E070FCF7BBF802E0ACE0BEE0DF
:1057700037E01AF80400032140F4E070FCF7B0F8B9
:10578000285D032140F4C070FCF7AAF8022F0BD16A
:10579000285D012140F4C070FCF7A2F8305D0121C2
:1057A00040F4C070FCF79CF8B8F1020F0BD1285DF3
:1057B000022140F4C070FCF793F8305D022140F400
:1057C000C070FCF78DF8B9F1020F7DD1285D03217F
:1057D00040F4C070FCF784F8305D032140F4C070E1
:1057E0000EE1285D012140F4E070FCF779F81AF829
:1057F0000400012140F4E070FCF772F8305D0121F3
:1058000040F4C070FCF76CF8B8F1000F12D1285DBD
:10581000022140F4E070FCF763F81AF8040002215A
:1058200040F4E070FCF75CF8305D022140F4C07099
:10583000FCF756F8012F12D1305D012140F4E070E1
:10584000FCF74EF81AF80400012140F4E070FCF770
:1058500047F8285D012140F4C070FCF741F8B8F129
:10586000010F12D1305D022140F4E070FCF738F8EE
:105870001AF80400022140F4E070FCF731F8285DCA
:10588000022140F4C070FCF72BF8022F0BD1285DE9
:10589000012140F4C070FCF723F8305D012140F491
:1058A000C070FCF71DF8B8F1020F0BD1285D022182
:1058B00040F4C070FCF714F8305D022140F4C07071
:1058C000FCF70EF8285D00E092E040F4E070032160
:1058D000FCF706F81AF80400032140F4E070FBF727
:1058E000FFFF305D032140F4E070FBF7F9FF113C4E
:1058F0000F2C7DD8E4B297B9285D042140F4E07004
:10590000FBF7EEFF1AF80400042140F4E070FBF707
:10591000E7FF305D042140F4C070FBF7E1FFB8F110
:10592000000F12D1285D052140F4E070FBF7D8FF8D
:105930001AF80400052140F4E070FBF7D1FF305D58
:10594000052140F4C070FBF7CBFF012F12D1305D71
:10595000042140F4E070FBF7C3FF1AF804000421AF
:1059600040F4E070FBF7BCFF285D042140F4C070F8
:10597000FBF7B6FFB8F1010F12D1305D052140F4FD
:10598000E070FBF7ADFF1AF80400052140F4E07069
:10599000FBF7A6FF285D052140F4C070FBF7A0FFD0
:1059A000022F0BD1285D042140F4C070FBF798FF53
:1059B000305D042140F4C070FBF792FFB8F1020F94
:1059C0000BD1285D052140F4C070FBF789FF305DE5
:1059D000052140F4C070FBF783FF285D062140F4E9
:1059E000E070FBF77DFF1AF8040040F4E07000E07F
:1059F00008E00621FBF774FF305D062140F4E070FB
:105A0000FBF76EFF0CB0BDE8F0870000383B303389
:105A1000282B2023181B1013080B0003393C3134AA
:105A2000292C2124191C1114090C11043A3D32357A
:105A30002A2D22251A1D12150A0D0205FEE77047B0
:105A40004FF4A06000F032B870B50F21C47802782E
:105A500001234FF0E026E4B1124C246804F4E06422
:105A6000C4F5E064C4F30724C4F10405E1404478BC
:105A7000AC4085780D4025430B4C29011155007829
:105A800000F01F018B40400906EB8000C0F8003198
:105A900070BD02F01F008340500906EB8000C0F883
:105AA000803170BD0CED00E000E400E002490843E5
:105AB00002490860704700000000FA050CED00E0A4
:105AC0007047000070B505000E46144605D036B18B
:105AD0000E48807828B112200DE004200BE00C2045
