:020000040800F2
:1000000050D4002029020008D75B00088D4E00085C
:10001000D55B0008A5180008518500080000000005
:100020000000000000000000000000008D7F0008BC
:100030008D1A000800000000AB0200084181000892
:10004000430200084302000843020008430200087C
:10005000430200084302000843020008430200086C
:10006000430200084302000843020008430200085C
:10007000430200084302000843020008430200084C
:10008000430200084302000843020008430200083C
:100090004302000843020008430200089D1B0008B9
:1000A000430200084302000843020008430200081C
:1000B000C18100084302000843020008430200080F
:1000C00043020008430200084302000843020008FC
:1000D00043020008430200082D830008E98300085A
:1000E000911A000843020008430200084302000876
:1000F00043020008430200084302000843020008CC
:1001000043020008430200084302000843020008BB
:1001100043020008430200084302000843020008AB
:10012000430200084302000843020008430200089B
:10013000430200084302000843020008430200088B
:10014000430200084302000843020008430200087B
:10015000430200084302000843020008430200086B
:10016000430200084302000843020008430200085B
:10017000430200084302000843020008430200084B
:10018000430200084302000800F002F800F03CF8C7
:100190000AA090E8000C82448344AAF10107DA45E2
:1001A00001D100F031F8AFF2090EBAE80F0013F0F8
:1001B000010F18BFFB1A43F001031847CC48010098
:1001C000EC480100103A24BF78C878C1FAD8520729
:1001D00024BF30C830C144BF04680C6070470000C1
:1001E0000023002400250026103A28BF78C1FBD840
:1001F000520728BF30C148BF0B6070471FB50EF0D3
:1002000032F81FBD10B510BD00F054FF1146FFF7C6
:10021000F5FF0CF073FF00F072FF03B4FFF7F2FF7D
:1002200003BC00F073FF00000948804709480047FD
:10023000FEE7FEE7FEE7FEE7FEE7FEE7FEE7FEE796
:10024000FEE7FEE704480549054A064B70470000F3
:10025000658100088901000850CE002050D400209C
:1002600050D0002050D00020EFF3108072B67047BD
:1002700080F3108870471D484FF0FF010170002087
:1002800080F309881A48012101701A484FF0805103
:10029000016062B6FEE717484FF080510160704779
:1002A00014484FF080510160704772B6EFF3098037
:1002B00028B1203880E8F00F0F490968086000B5C0
:1002C0000E4880475DF804EB0D480E490A7802702D
:1002D00009480D490A680260106890E8F00F203064
:1002E00080F309884EF0040E62B6704722ED00E0FC
:1002F0008F00002004ED00E0A80000201D6500082C
:100300008C0000208D000020B000002072B67047E5
:1003100062B67047EFF3108072B6704780F31088B2
:100320007047B0FA80F0704790FAA0F0704730BF85
:10033000704720BF70470000DFED2E0AB5EEC00AFF
:1003400060EE200ABDEEE01A11EE100AF1EE10FA8E
:1003500038BF401E00EE100ADFED271AF7EE005AF4
:10036000B8EEC00ADFED274A244930EEC01A21EE6C
:10037000210AFCEEC00A10EE900A00EE900A01EB92
:100380008000B8EE600ADFED1E0AF0EC012A11EEE3
:10039000210AF6EE001AB0EC013AF0EC013A20EE38
:1003A000001A20EE216A40EE615A20EE245A21EE16
:1003B000212A90ED004A00EE602A66EE010A40EE26
:1003C000400A05EE412A70EEA55AF0EE400A41EED1
:1003D000210A46EE410A25EE011A00EE641A22EEC9
:1003E000820A63EEA00A03EE250A44EE010A30EE0B
:1003F000200A704783F9223E00008043DCE30008B6
:10040000ABAAAA3EABAA2A3E9FED3A0A5FEA920C3B
:1004100053D000BFB0EC011A0B1DF0EC010A21EE25
:10042000011A00EEA01AB5EEC01AF1EE10FAC6BF1E
:10043000F1EEC10AC1ED000A81ED000AF0EC010AFB
:10044000191DB0EC011A60EEA00A41EE010AF5EEAA
:10045000C00AF1EE10FAC6BFF1EEE00AC3ED000AE1
:1004600083ED000AB0EC011A0B1DF0EC010A21EE3D
:10047000011A00EEA01AB5EEC01AF1EE10FAC6BFCE
:10048000F1EEC10AC1ED000A81ED000AB0EC011ADB
:10049000191DF0EC010A21EE011A00EEA01AB5EECA
:1004A000C01AF1EE10FAC6BFF1EEC10AC3ED000AA0
:1004B00083ED000ABCF1010CACD112F0030208BFBD
:1004C000704700BFF0EC010A0B46B0EC011A091DA1
:1004D00060EEA00A41EE010AF5EEC00AF1EE10FA54
:1004E000C6BFF1EEE00AC3ED000A83ED000A521E1A
:1004F000E8D17047000000002DE9F00700EBC109CA
:10050000DDE90778D0F800A0C9F800A007EB0114D6
:10051000D0F804A0251FA9F10406C9F804A003EB34
:10052000C80907F1080C00F1080402EBC8024B1ED1
:1005300031D000BFF2EC011A96ED002A92ED001ABC
:1005400002EBC802B4EC010A121FF4EC012A60EEBF
:10055000210A20EE010A32EE823A02EEA10AD9ED1A
:10056000001A43EE410A09EBC80902EE610A16EDD2
:10057000012A083E42EE210A02EE410AECEC010A91
:10058000ACEC010AB1EE400A85ED000A45ED010A26
:10059000083D5B1ECED190ED000AD0ED010A07EBBD
:1005A000C10130EE600A81ED000A9FED5D0A81ED28
:1005B000010AD0ED000A90ED011A70EE810AC7ED34
:1005C000000A87ED010ABDE8F007704770B400EB40
:1005D000C105DDE903C42D1D002904BF70BC7047AF
:1005E000F2EC011A95ED002A92ED001A02EBC4021A
:1005F000B0EC010A121FF0EC012A60EE210A20EE95
:10060000410A32EE823A02EEA10AD3ED001A43EE1D
:10061000010A03EBC40302EE610A15ED012A083D4D
:10062000491E42EE210A02EE010AECEC010AACEC92
:10063000010AD5D170BC70472DE9F04305464469E5
:10064000807983B00F461646012809D0A3892188F6
:100650003846626800F036F9E87901284ED053E058
:10066000AA88D5E9030307EBC20CD5F80880314608
:100670000CF1040C5AB300BFB0EC011A9CED002A37
:10068000D0ED001A00EBC800B7EC010A001FF7EC30
:10069000012A521E60EE010A20EE610A32EE823A11
:1006A00002EE810A93ED001A43EE210A03EBC80320
:1006B00002EE410A1CED012AACF1080C42EE010ADF
:1006C00002EE210AE1EC010AA1EC010AD4D194ED79
:1006D000040AA38921883046626800F095FAE87917
:1006E00001281CBF03B0BDE8F083E2892188A3681C
:1006F00003B03046BDE8F04300F08CB8E2892188B1
:100700003846A36800F086F8A868CDE90060D5E90E
:100710000323A9883846FFF7EFFE03B0BDE8F08356
:100720000000000070B592B2DDF810C055080260FC
:100730008580184EC66006F50056DBB206610024BF
:10074000837180F807C0802A04BF102282600BD01A
:10075000B2F5007F08BF042212D0B2F5006F14BFBB
:100760004FF0FF3401220BD0002B8C4641614FF03B
:10077000000307D001222946604600F015FC06E080
:100780008260F1E700222946604600F00DFC204619
:1007900070BD0000E8E7000870B40025B0EC010A65
:1007A000A1F1010CF0EC010AB4EEE00AF1EE10FA4E
:1007B0003CBFB0EE600A0125ACF10104A446B4F1DF
:1007C000004F0ED3F0EC010AB4EEE00AF1EE10FA9D
:1007D0003CBFB0EE600AA1EB0C05BCF1010CF1D1FD
:1007E00013E0002CC8BF00260FDD00BFF0EC010AAB
:1007F000B4EEE00AF1EE10FA04D2ACEB0605B0EE6E
:10080000600A4D1B761C641EF0D182ED000A1D604B
:1008100070BC70472DE9F0014E0801244FF0000C28
:1008200004EB51076146A6F102082CE061452AD28B
:1008300000EBCC0500EBC104D5ED000A94ED000AF5
:10084000C4ED000A85ED000AD5ED010A94ED010A18
:10085000C4ED010A85ED010A0CEB0705CC1900EB8C
:10086000C50500EBC404D5ED000A94ED000AC4ED03
:10087000000A85ED000AD5ED010A94ED010AC4EDE8
:10088000010A85ED010A00EBC104B44400EBCC0C75
:1008900094ED020ADCED000A891CC4ED020A8CED1D
:1008A000000A94ED030ADCF80450E5608CED010ABF
:1008B000B3F800C089B203EB42034145B6D9BDE8A5
:1008C000F00170472DE9F04F4FEA910C4FF000080E
:1008D0004746644608EB0C0505EB0C0909EB0C06D2
:1008E00000EBC80A00EBC9099AED000AD9ED000A2D
:1008F00099ED012A00EBC50530EE201A30EE600AB2
:10090000DAED010A00EBC60608F1010870EE821A62
:1009100070EEC20A95ED002AD6ED002A641E32EE72
:10092000222A71EE022A31EE421ACAED002A95ED12
:10093000012AD6ED012A32EE222A71EE822A71EEC8
:10094000C21ACAED012A95ED012AD6ED012A96EDCB
:10095000003A4FEA470A32EE622AD5ED002A02EB4E
:10096000CA0B72EEC32A9BED003ADBED013A21EE91
:10097000034A01EEA34A61EE831A41EE631A85ED44
:10098000004A30EE021A30EE420AC5ED011A02EBBF
:10099000C70570EEE21A95ED002A70EEA20AD5EDB9
:1009A000012A21EE023A0AEB070502EBC5051F44B6
:1009B00001EEA23A61EE821A41EE621A89ED003A26
:1009C000C9ED011AD5ED001A95ED011A20EE212A84
:1009D00000EE812A60EEA10A40EE410A86ED002A6F
:1009E000C6ED010A7FF476AF9B044FEA134BE6464F
:1009F000BCF1040F7DD9E0464FEA9C0C4FF0000992
:100A0000CA46BCF1000F75D94FEA490404EB09034B
:100A100002EBC90502EBC40402EBC30395ED001A17
:100A2000D5ED011A94ED000AD4ED010A93ED002AE8
:100A3000D3ED012AD94453468A4573D203EB0C0403
:100A400004EB0C0606EB0C0500EBC30700EBC60637
:100A500097ED003AD6ED003A96ED015A00EBC4044A
:100A600073EE234A33EE633AD7ED013A00EBC50546
:100A700033EE854A73EEC53A94ED005AD5ED005A2F
:100A800035EE255A74EE855A74EEC54AC7ED005A04
:100A900094ED015AD5ED015A35EE255A74EE055AFA
:100AA00034EE454AC7ED015A94ED015AD5ED015A8D
:100AB00095ED006A35EE655AD4ED005A75EEC65ACA
:100AC00024EE806A04EE206A24EE004A04EEE04A36
:100AD00084ED006A73EEE54A73EEA53A84ED014AAF
:100AE00033EE054A33EE453A24EE015A04EEA15A9C
:100AF00001E026E01BE064EE814A86ED005A4344A3
:100B00008B4244EE614A23EE024A03EEA24A63EEB0
:100B1000823AC6ED014A43EE623A85ED004AC5EDE0
:100B2000013A8BD30AF1010AE245FFF46DAF4FEAB7
:100B30008B434FEA9E0E4FEA134BBEF1040F3FF674
:100B40005AAFA1EB0C0100224B1C4FEA9C04002B76
:100B50008CBF1F46BDE8F08F11190E19331900EB39
:100B6000C20500EBC60695ED000AD6ED000A95ED2C
:100B7000012A96ED011A70EE201A70EE600A32EE2C
:100B8000010A00EBC10100EBC30332EE411A91ED03
:100B9000002AD3ED002A6244974232EE222A71EEF7
:100BA000822A31EEC22AC5ED002AD1ED011AD3ED19
:100BB000012A71EEA21A70EE212AC5ED012A70EE0B
:100BC000612A91ED010AD3ED011A93ED003A70EE1E
:100BD000611A91ED000A81ED002AC1ED012A30EE83
:100BE000430A30EEA12A70EEE10A71EE401A31EEAE
:100BF000000A86ED002AC6ED011AC3ED000A83ED56
:100C0000010AA9D8BDE8F08F2DE9F04F4FEA910C09
:100C10004FF000084746644608EB0C0505EB0C0A4C
:100C20000AEB0C0600EBC80900EBCA0AD9ED000A72
:100C30009AED001ADAED012A00EBC50570EE811A73
:100C400070EEC10A99ED011A00EBC60608F1010821
:100C500031EE222A31EE621AD5ED002A96ED003AE5
:100C6000641E72EE832A31EEA23A71EEE21A89ED29
:100C7000003AD5ED012A96ED013A72EE832A32EE62
:100C8000223A32EE622A89ED013AD5ED012A96ED3B
:100C9000013AD6ED003A4FEA470972EEC32A95EDC4
:100CA000003A02EBC90B33EE633ADBED003A9BED01
:100CB000014A61EEA34A42EE444A22EE232A01EEA3
:100CC000842AC5ED004A70EEE21A70EEA20A85EDA4
:100CD000012A02EBC70531EE032AD5ED002A31EED9
:100CE000431A95ED013A61EEA23A09EB070502EBD2
:100CF000C5051F4442EE433A22EE222A01EE832A22
:100D0000CAED003A8AED012AD5ED001A95ED012AC7
:100D100060EEA12A41EE422A21EE211A00EE821A4B
:100D2000C6ED002A86ED011A7FF476AF9B044FEAE8
:100D3000134BE646BCF1040F7DD9E0464FEA9C0C0C
:100D40004FF00009CA46BCF1000F75D94FEA4904BB
:100D500004EB090302EBC90502EBC40402EBC30375
:100D6000D5ED001A95ED012AD4ED000A94ED011A93
:100D7000D3ED002A93ED013AD94453468A4573D204
:100D800003EB0C0404EB0C0606EB0C0500EBC307AD
:100D900000EBC606D7ED003A96ED004AD6ED015AB3
:100DA00000EBC40433EE845A73EEC43A97ED014A63
:100DB00000EBC50574EE254A34EE654AD4ED005AC1
:100DC00095ED006A75EE865A35EE256A35EE655A60
:100DD00087ED006AD4ED015A95ED016A75EE865AE9
:100DE00034EEA56A74EEE54A87ED016AD4ED015A46
:100DF00095ED016AD5ED006A75EEC65A94ED006A6C
:100E000036EE666A65EE206A44EEC16A64EEA04A78
:100E100045EE014AC4ED006A34EE065A34EE464A05
:100E2000C4ED014A73EEE54A73EEA53A64EEA15AA9
:100E300045EE425A01E026E01BE025EE215AC6EDC0
:100E4000005A43448B4204EE825A63EEA24A44EEB7
:100E5000434A24EE224A86ED015A03EE834AC5ED49
:100E6000004A85ED014A8BD30AF1010AE245FFF4FD
:100E70006DAF4FEA8B434FEA9E0E4FEA134BBEF124
:100E8000040F3FF65AAFA1EB0C0100224B1C4FEAB6
:100E90009C06002B8CBF1F46BDE8F08F91198D1961
:100EA000AB1900EBC20400EBC505D4ED000AD5ED8B
:100EB000001AD4ED012A95ED012A30EEA11A70EE48
:100EC000E11A72EE820A00EBC10100EBC30332EEBD
:100ED000C22AD1ED002A93ED003A6244974272EEA5
:100EE000832A31EE223A71EE622A23EE003A62EE54
:100EF000802A84ED003A91ED011A93ED013A31EE2A
:100F0000031A30EE813A23EE003A84ED013A30EED6
:100F1000C13AD1ED010A93ED011AD3ED003A30EE5A
:100F2000C11AD1ED000AC1ED002A63EE002A70EE6D
:100F3000E30AC1ED012A71EEC12A31EE811A72EE87
:100F4000201A72EE600A22EE802A21EE001A61EE6B
:100F5000801A85ED002A60EE800AC5ED011A83ED46
:100F6000001AC3ED010A99D8BDE8F08F30B50446E8
:100F70000D4680782188A389626801280DD0284613
:100F8000FFF7A0FCE078012818BF30BDE289218876
:100F90002846A368BDE830403CE494ED040A2846A6
:100FA000FFF732FEEEE7000010B401801B4C4460F6
:100FB00082704FF0000CC370102925D040291BD03F
:100FC000B1F5807F10D0B1F5806F18BF4FF0FF3CB6
:100FD00002D010BC6046704701218181C181104957
:100FE0009FED100A816016E004218181C1810E49C4
:100FF0009FED0E0A81600EE010218181C1810C49B4
:101000009FED0C0A816006E040218181C1810A497F
:101010009FED0A0A816080ED040ADAE7E8270108FB
:10102000E84701080000803AEE4701080000803BD5
:10103000064801080000803C664801080000803D29
:1010400010B5203AC0F00B80B1E81850203AA0E863
:101050001850B1E81850A0E81850BFF4F5AF5FEA97
:10106000027C24BFB1E81850A0E8185044BF18C94A
:1010700018C0BDE810405FEA827C24BF51F8043BF1
:1010800040F8043B08BF7047D20728BF31F8023B45
:1010900048BF11F8012B28BF20F8023B48BF00F8D9
:1010A000012B704770477047704700000048704739
:1010B000ECCD00207546FFF7F9FFAE460500694606
:1010C000534620F00700854618B020B5FFF7BAF860
:1010D000BDE820404FF000064FF000074FF0000839
:1010E0004FF0000B21F00701AC46ACE8C009ACE8BA
:1010F000C009ACE8C009ACE8C0098D467047044699
:10110000AFF300802046FFF788F8704701491820A8
:10111000ABBEFEE72600020010B5064C01220023FC
:101120001146204600F030F92046BDE8104000F09E
:1011300065B900000020014010B5064C00230122D3
:101140000C21204600F020F92046BDE8104000F0B8
:1011500055B900000020014010B5064C00230122C3
:101160000421204600F010F92046BDE8104000F0B0
:1011700045B900000020014010B5064C00230122B3
:101180000721204600F000F92046BDE8104000F09D
:1011900035B900000020014070B59CB001212F48F6
:1011A00006F0AEFD01214FF4E06006F0CDFD4FF0FA
:1011B000007000902A4801902A4802A900240125C5
:1011C00031C1E802CDE90640800008904011099045
:1011D0000AA90594400231C1234E0D946946304658
:1011E0000E9400F029FC0121304600F01BFC032086
:1011F0008DF8680019958DF86B4019A91B4800F00F
:10120000FBFD15941694179415A8189400F06AF82D
:101210000F948DF8404011941394114C8DF8415067
:101220004C3C8DF850500FA9204600F087F8002361
:1012300001220821204600F0A7F80121204600F0F5
:1012400073F80121204600F065F80121204600F0E6
:101250003FF8204600F0D2F81CB070BD02004000FC
:101260004C21014012000020406402400004024072
:1012700010B5064C002301220A21204600F084F814
:101280002046BDE8104000F0B9B80000002201403F
:1012900010B5064C002301220B21204600F074F803
:1012A0002046BDE8104000F0A9B80000002201402F
:1012B00010B5064C002301220C21204600F064F8F2
:1012C0002046BDE8104000F099B80000002201401F
:1012D0000029816802D041F0010101E021F0010103
:1012E00081607047094B10B51A68094902EA01028A
:1012F000D0E9001441EA0401D0E9024044EA0004C4
:1013000041EA040141EA0201196010BD04230140D1
:10131000E030FCFF0029816802D041F4807101E0D7
:1013200021F48071816070470029816802D041F406
:10133000007101E021F400718160704730B54268AE
:101340000F4B0C791A400B6842EA042213434360A6
:1013500082680C4B4D791A40D1E9034323438C68D2
:1013600044EA4504234313438360C26A097D22F49F
:101370007002491EC9B242EA0151C16230BD00008B
:10138000FFFEFFFCFDF7FFC070B5072509290AD94C
:10139000C468A1F10A0606EB4606B540AC43B3406B
:1013A0001C43C46007E0046901EB4106B540AC434F
:1013B000B3401C4304611F23072A09D2446B521E09
:1013C00002EB820293409C4391400C43446370BD06
:1013D0000D2A09D2046BD21F02EB820293409C4378
:1013E00091400C43046370BDC46A0D3A02EB820263
:1013F00093409C4391400C43C46270BD816841F0AE
:1014000080418160704703F06DBD10B5044603F064
:1014100031FEA02003F0F0FD03F080FE200A03F06F
:10142000EBFD03F07BFEE0B203F0E6FD03F076FE99
:1014300003F020FEA12003F0DFFD03F06FFE00208B
:1014400003F09EFD044603F03FFE204610BD70B53C
:1014500004460D4603F00EFEA02003F0CDFD03F080
:101460005DFE200A03F0C8FD03F058FEE0B203F071
:10147000C3FD03F053FE284603F0BEFD03F04EFE0D
:1014800003F022FEBDE870400A200BF059B9704706
:1014900038B5002004F0BEFC174C2064002004F096
:1014A000B9FC6064002004F0A7FDE064002004F0B3
:1014B000B1FCA064002004F09FFD20656A460FA1E6
:1014C0000A2004F025FF03230F4A00210F4804F0EF
:1014D00079FE02230E4A00210E4804F073FE012318
:1014E0000D4A00210D4804F06DFE00230C4A1946F8
:1014F0000C4804F067FE38BD000000205374617290
:1015000074205461736B000024150020311500080D
:1015100024B500201118000824B600207117000817
:1015200024B7002061D7000805F034BA70470000E6
:1015300008B58B4F8B4EDFF830B28C4D05F0C4FDF3
:10154000387801287DD14FF400594946304600F0E3
:10155000A1FC00284FD1287B696D08F0ADF9044645
:1015600001282DD15A46287BDBF8101008F0A4F989
:101570000346287B116808F09FF98446687313B10D
:10158000012B15D01CE09046287B516808F094F997
:101590000246287BD8F8081008F08EF90346287B0D
:1015A000D8F80C1008F088F90090297B687B05E0DA
:1015B0000220009003460246297B604604F0FCF8B6
:1015C000287B401C28734946304600F063FC002805
:1015D000F9D0287B202801D901202873C2B208E065
:1015E0001046696D08F068F9044601280BD0521CBA
:1015F000D2B2202AF4D94FF400694946304600F0AF
:1016000049FC30B154E05848002114302A7341732A
:10161000F1E7287B696D08F04FF9044601282DD1C8
:10162000D846287BDBF8101008F046F90246287BE4
:10163000D8F8001008F040F968731AB1012A16D0E2
:101640001CE088E0287BD8F8041008F035F9024641
:10165000287BD8F8081008F02FF90346287BD8F823
:101660000C1008F029F90090297B687B04E0022126
:101670000B460A460091297B04F09EF8287B401E09
:1016800028734946304600F005FC0028F9D0287B35
:1016900008B920202873C2B208E01046696D08F02E
:1016A0000BF90446012806D0521ED2B2002AF4D10A
:1016B000012C05D04FE02C49002014312A734873C7
:1016C000D846287BDBF8101008F0F6F80246287B95
:1016D000D8F8001008F0F0F88446687312B1012AB7
:1016E00024D038E0287BD8F8041008F0E5F88246CA
:1016F000287BD8F8081008F0DFF88146287BD8F856
:101700000C1008F0D9F88046A879012807D1CDF847
:1017100000804B465246297B687B04F04DF8A8793F
:10172000C8B94B465246CDF8008010E0A879012890
:1017300007D10220009003460246297B604604F050
:101740003BF8A87938B90220034602460090297B6D
:10175000687B03F023FE64200AF0F2FFEEE600004F
:1017600022010020000C024028B7002000000020C9
:101770001CB51D4F1D4C4FF480760025A07A012822
:101780002ED1E06C04F0BEFC3146384600F082FBFE
:10179000012801D1022060723146384600F07AFB00
:1017A000F0B9E08DE0B1401EE0854FF02F08DFF882
:1017B0004090CDE90058012399F801001A46002114
:1017C0000BF006FDCDE9005899F801000223012233
:1017D00000210BF0FDFCE08D012801D16572E5854B
:1017E00064200AF0ADFFC9E70010024000000020AD
:1017F0004AB7002010B504F0C9FCFFF749FEBDE868
:1018000010400A2004F032BE704705F0CBB800004B
:101810001CB5204D0126DFF88080204C022701AA4C
:101820000021E86C04F00EFC1C4B0094143B03F107
:10183000EE02A2F1C601A1F5B9700BF06BFD174BDA
:101840000096A3F1140202F12801A1F5B9700AF083
:10185000C1FF124B0097A3F1140202F1EE01A1F5B2
:101860000E700AF0B7FF0D491439A1F5A5700BF001
:1018700029F998F800000028D1D1084B0094143BB6
:1018800003F1EE02A2F1C601A1F5B97008F01AF851
:10189000C5E7000000000020220100208602002091
:1018A00005F092B8FEE700002DE9F0470646481E15
:1018B0000C46052821D8374F00254FF400794FF406
:1018C0008078F0074946384602D000F0ECFA01E093
:1018D00000F0E7FA4146384600F0E3FA76080420C3
:1018E0000AF04CFF4146384600F0DDFA04200AF0C9
:1018F00045FF6D1CEDB20C2DE3D3274D012C19D003
:10190000022C20D0032C27D0042C2ED0052C35D02F
:10191000062C3CD12021284600F0C5FA04200AF00C
:101920002DFF2021284600F0BCFABDE8F047042036
:101930000AF024BF0121284600F0B5FA04200AF07D
:101940001DFF0121EEE70221284600F0ACFA042039
:101950000AF014FF0221E5E70421284600F0A3FA6B
:1019600004200AF00BFF0421DCE70821284600F0E0
:101970009AFA04200AF002FF0821D3E71021284632
:1019800000F091FA04200AF0F9FE1021CAE7BDE840
:10199000F087000000040240000C02407CB50121E9
:1019A000022006F0ADF901244FF440708DF8044098
:1019B000002500908DF8065002268DF805606946D6
:1019C0000E4800F019FA0121082006F099F93F208D
:1019D0008DF8044000908DF806508DF8056069463A
:1019E000074800F009FA40F2014521462846FFF772
:1019F0005BFF641CE4B2052CF7D97CBD00040240F7
:101A0000000C024070B5002500240021284606F095
:101A1000C7FD641CE4B2042CF7D36D1CEDB2202D7D
:101A2000F2D370BD0029016802D041F0010101E04C
:101A300021F001010160704730B50368124ACC689B
:101A400013400A682243D1E905452C432243CC695F
:101A500022430C6A22434C6A22438C6A22434C6B19
:101A600022438C6B22431A430260426922F007032F
:101A7000D1E90B2422431A4342610A6942604A6851
:101A800082608968C16030BD3F801CF070470000F3
:101A90002DE9FC5F04F084F94FF4805B584600F0B8
:101AA00061F9DFF8F090DFF8E8803B4C4FF0000A76
:101AB0002F2509F10E0620B398F80000012820D147
:101AC000607B012812D1CDE900A50123574670782B
:101AD0001A46217B0BF07CFBCDE900757078022360
:101AE0000122217B0BF074FB89F80D70607B40B9FB
:101AF0000620CDE90005012370781A46217B0AF003
:101B0000A1FD584600F08AF84FF4804B584600F08B
:101B100029F9A8B398F80000012831D1607B012889
:101B200023D199F80C004F464FF0010810B101285D
:101B30000DD01AE0787B18BBCDE9008501237078C1
:101B40001A46217B0BF044FB87F80C800BE0787B76
:101B500058B9CDE90085707802230122217B0BF072
:101B600037FB87F80CA087F80D80607B40B9072011
:101B7000CDE90005012370781A46217B0AF062FD49
:101B8000584600F04BF8BDE8FC5F04F015B90000C2
:101B9000220100203CB70020000000202DE9FC417C
:101BA00004F0FEF84FF48074204600F0DBF810B12A
:101BB00017491420C885204600F030F84FF400770C
:101BC000384600F0CFF8D8B14FF47A700AF0D6FD5D
:101BD0003946104800F05EF990B900252F240E4ECA
:101BE000CDE90054012370781A4629460BF0F0FA2B
:101BF000CDE9005470780223012200210BF0E8FAAD
:101C0000384600F00BF8BDE8FC4104F0D5B8000000
:101C100000000020000C02404AB700200149086083
:101C200070470000143C01402DE9F0434FF4804917
:101C300085B00121484606F087F80121102006F002
:101C40005FF84FF48077002503978DF8105003A9B3
:101C50003F4800F0D1F80821042006F099F98DF8EA
:101C600004500C268DF80560012400978DF806407D
:101C7000684600F087F84FF017088DF808800220BA
:101C80008DF809008DF80A008DF80B4002A803F0CA
:101C9000A7FF384600F05EF80921032006F078F926
:101CA0008DF8045067028DF8056000978DF80640A6
:101CB000684600F067F88DF808808DF809408DF8C7
:101CC0000A408DF80B4002A803F08AFF384600F066
:101CD00041F80C21032006F05BF98DF8045027032E
:101CE0008DF8056000978DF80640684600F04AF8C8
:101CF0004FF028088DF808808DF809408DF80A40CB
:101D00008DF80B4002A803F06BFF384600F022F874
:101D10000E21032006F03CF98DF804508DF8056083
:101D2000CDF800908DF80640684600F02BF88DF84D
:101D300008808DF809408DF80A408DF80B4002A804
:101D400003F04EFF484600F005F805B0BDE8F0830B
:101D50000010024002490A6802430A60704700000E
:101D6000103C0140064A014600201268044B0A401C
:101D700014331B680B4202D0002A00D001207047A8
:101D8000003C014030B51B498379026863B30B689E
:101D900093430B600A1D13680468A3431360027920
:101DA0000A441368046823431360124A0832136814
:101DB0000468A3431360131D1C680568AC431C60D2
:101DC00090F805C0BCF1100F05D061440A680068A6
:101DD00002430A6030BD116804682143116019682C
:101DE00000680143196030BD0079084401689143DF
:101DF000016030BD003C0140F0B5002201234FF0EE
:101E0000030C00BF0D6803FA02F42540A5422DD152
:101E1000066854000CFA04F5AE4306600E790768B4
:101E2000A6403E4306600E79012E01D0022E12D14B
:101E30008668AE4386604D798668A54035438560E7
:101E4000456803FA02F6B543456045688E799640C9
:101E5000B6B235434560C56856000CFA06F7BD4377
:101E6000C560CD79A540C4682543C560521C102AC1
:101E7000C8D3F0BD4B07DB0E9A40C90810B500EB84
:101E80008100016A0F249C40A1430162016A114351
:101E9000016210BD0246002012690A4200D00120F2
:101EA000704741837047018370470000F0B58BB0E5
:101EB0000446142222A16846FFF7C2F8142225A185
:101EC00005A8FFF7BDF80121042006F069FB0121F8
:101ED000102006F065FB01211C2006F061FB642048
:101EE000B4FBF0F500FB15410A20B1FBF0F6B4FBA2
:101EF000F0F11D4F00FB1144387818B9012104207E
:101F000006F04EFB3878012803D10121022006F0AB
:101F100047FB6F4607EB450102220A2006F01AFB39
:101F200007EB46010222082006F014FB05A800EB8F
:101F3000440102220E2006F00DFB0BB0F0BD0000A4
:101F40000F0506000B060F0206030D030D07070021
:101F50000F070F030D0F08060E0B0A0F0B060B0DD4
:101F60000F0D08070F0F0B0F220100202DE9F04F76
:101F7000C1B006460D4614461422A8A16846FFF7D4
:101F80005FF81422AAA105A8FFF75AF82022ADA1F4
:101F90000AA8FFF755F81422B2A117A8FFF750F8C6
:101FA0002022B5A11CA8FFF74BF81422BAA124A83F
:101FB000FFF746F81422B8A112A8FFF741F8202233
:101FC000BAA132A8FFF73CF82022C0A129A8FFF748
:101FD00037F8C6A0012200683E903EA91C2006F0FA
:101FE000B9FA4FF47A79B6FBF9F2D1B209FB126271
:101FF0004FF0640A5046B2FBF0F2D7B2B6FBFAF2E9
:102000000AFB12620A20B2FBF0F8B6FBF0F2DFF82E
:10201000E0B200FB12669BF80000012807D101EB3B
:1020200041010AA801440322192006F093FA9BF803
:10203000000018B902211A2006F0B2FA07EB470097
:102040001CA901440322162006F084FA08EB48007C
:1020500029A901440322132006F07CFA06EB46016D
:102060000AA801440322102006F074FAB5FBF9F126
:1020700009FB1153B3FBFAF04FF00A0B5E46B5FBB8
:10208000F6F30BFB135317AF07EB43086423B5FBC1
:10209000F3F703FB1757B7FBFBF6CAB24FF47A7797
:1020A00007FB1151B1FBF3F100F0FF0C05A8C9B219
:1020B00000EB460600EB410532B100EB4201022283
:1020C0000C2006F047FA02E0BCF1000F04D0022217
:1020D00029460A2006F03EFA02223146082006F080
:1020E00039FA022241460E2006F034FAB4FBF9F127
:1020F000CDB209FB11415046B1FBF0F1CEB2B4FBB9
:10210000FAF10AFB11415846B1FBF0F8B4FBFBF1C0
:10211000784F0BFB1149387818B90121042006F0DB
:102120003FFA3878012803D10121022006F038FA5D
:10213000684600EB460A02225146104606F00AFAAB
:10214000684600EB480B02225946042006F002FACA
:10215000684600EB49010222062006F0FBF90A213D
:10216000B4FBF1F001FB104024AA02EB40094FF44C
:102170007A70B4FBF0F200FB12426420B2FBF0F282
:10218000D3B212AA02EB4308B4FBF0F200FB1240F8
:10219000B0FBF1F112A800EB4104EDB1684600EB91
:1021A00045010222002006F0D5F916E00222514630
:1021B000104606F0CFF902222146042006F0CAF9A3
:1021C0000EE00222414620E002224946062006F0A7
:1021D000C1F941B0BDE8F08F36B138780028E5D0BC
:1021E00038780128F0D1ECE7387848B902226946FE
:1021F000104606F0AFF902222146042006F0AAF9A3
:1022000038780128E0D112A90222022006F0A2F9B2
:1022100002225946042006F09DF9D5E70A0F000670
:10222000060D040F0C060C0B0E0B000E0E0F0C0F00
:102230000F0506000B060F0206030D030D0707002E
:102240000F070F0306050606000004070206070035
:102250000602040207040207060604000607060633
:10226000070400000D0F08060E0B0A0F0B060B0DDE
:102270000F0D08070F0F0B0F0605070600010407D7
:102280000306070106020502070502070706040107
:1022900006070706070500000B0F0106070D050FCF
:1022A0000D060D0B0F0B010E0F0F0D0F0E0D060E71
:1022B00008000C0F020E0F000E0A040A0F040A0F8A
:1022C000060E0C000E0F060E0F040000060D06068B
:1022D0000800040F02060F00060A04020F04020F92
:1022E00006060C00060F06060F0400000905030091
:1022F00007000020220100202DE9F04FB1B0064672
:102300000D46144614229EA16846FEF799FE14223B
:10231000A0A10DA8FEF794FE2022A3A105A8FEF718
:102320008FFE1422A8A117A8FEF78AFE1422ABA1E3
:102330001CA8FEF785FE1422A8A112A8FEF780FEB5
:102340002022ABA121A8FEF77BFEB1A001220068EC
:102350002D902DA91C2006F0FDF84FF47A79B6FBDC
:10236000F9F2D1B209FB12624FF0640A5046B2FB97
:10237000F0F2D7B2B6FBFAF20AFB12620A20B2FB05
:10238000F0F8B6FBF0F2DFF88CB200FB12669BF8B7
:102390000000012807D101EB410105A801440322F7
:1023A000192006F0D7F89BF8000018B902211A206E
:1023B00006F0F6F807EB470021A901440322162096
:1023C00006F0C8F808EB480005AFC1190322132036
:1023D00006F0C0F806EB4600C1190322102006F0F3
:1023E000B9F8B5FBF9F109FB1153B3FBFAF04FF063
:1023F0000A0B5E46B5FBF6F30BFB135317AF07EB67
:1024000043086423B5FBF3F703FB1757B7FBFBF651
:10241000CAB24FF47A7707FB1151B1FBF3F100F028
:10242000FF0C0DA8C9B200EB460600EB410532B126
:1024300000EB420102220C2006F08CF802E0BCF115
:10244000000F04D0022229460A2006F083F8022257
:102450003146082006F07EF8022241460E2006F0A2
:1024600079F8B4FBF9F709FB17415046B1FBF0F1DD
:10247000CEB2B4FBFAF10AFB11415846B1FBF0F8B9
:10248000B4FBFBF168460BFB114900EB460A022244
:10249000FDB25146104606F05DF8684600EB480B69
:1024A00002225946042006F055F8684600EB49011F
:1024B0000222062006F04EF80A20B4FBF0F100FBE1
:1024C00011411CAA02EB41084FF47A7101FB17423B
:1024D0006421B2FBF1F2D3B212AA02EB4307B4FBC0
:1024E000F1F201FB1241B1FBF0F1DFF82C9112A8DF
:1024F00000EB4104EDB1684600EB450102220020EB
:1025000006F028F816E002225146104606F022F89E
:1025100002222146042006F01DF810E0022239466E
:1025200024E002224146062006F014F831B0BDE84E
:10253000F08F46B199F800004D460028E3D0287886
:102540000128EED1EAE799F800004D4648B9022289
:102550006946104605F0FEFF02222146042005F0E0
:10256000F9FF28780128DCD112A90222022005F007
:10257000F1FF02225946042005F0ECFFD1E70000EC
:102580000A0F0006060D040F0C060C0B0E0B000EB6
:102590000E0F0C0F0F0506000B060F0206030D03AE
:1025A0000D0707000F070F030605060600000407C6
:1025B00002060700060204020704020706060400DA
:1025C00006070606070400000D0F08060E0B0A0F8B
:1025D0000B060B0D0F0D08070F0F0B0F0B0F01064E
:1025E000070D050F0D060D0B0F0B010E0F0F0D0F35
:1025F000060D07060801040F03060F01060A05026F
:102600000F05020F07060C01060F07060F05000055
:102610000905030007000020220100202DE9F04FEA
:10262000B1B006460D46144614229EA16846FEF738
:1026300007FD1422A0A10DA8FEF702FD2022A3A1F0
:1026400005A8FEF7FDFC1422A8A117A8FEF7F8FCC8
:102650001422ABA11CA8FEF7F3FC1422A8A112A817
:10266000FEF7EEFC2022ABA121A8FEF7E9FCB1A009
:10267000012200682D902DA91C2005F06BFF4FF45E
:102680007A79B6FBF9F2D1B209FB12624FF0640A13
:102690005046B2FBF0F2D7B2B6FBFAF20AFB126276
:1026A0000A20B2FBF0F8B6FBF0F2DFF88CB200FBC8
:1026B00012669BF80000012807D101EB410105A833
:1026C00001440322192005F045FF9BF8000018B9CA
:1026D00002211A2005F064FF07EB470021A90144FD
:1026E0000322162005F036FF08EB480005AFC1199C
:1026F0000322132005F02EFF06EB4600C11903222A
:10270000102005F027FFB5FBF9F109FB1153B3FBCE
:10271000FAF04FF00A0B5E46B5FBF6F30BFB1353D2
:1027200017AF07EB43086423B5FBF3F703FB175719
:10273000B7FBFBF6CAB24FF47A7707FB1151B1FB36
:10274000F3F100F0FF0C0DA8C9B200EB460600EB58
:10275000410532B100EB420102220C2005F0FAFEE5
:1027600002E0BCF1000F04D0022229460A2005F045
:10277000F1FE02223146082005F0ECFE022241461D
:102780000E2005F0E7FEB4FBF9F709FB17415046B0
:10279000B1FBF0F1CEB2B4FBFAF10AFB114158469D
:1027A000B1FBF0F8B4FBFBF168460BFB114900EB01
:1027B000460A0222FDB25146104605F0CBFE68469D
:1027C00000EB480B02225946042005F0C3FE684680
:1027D00000EB49010222062005F0BCFE0A20B4FBF2
:1027E000F0F100FB11411CAA02EB41084FF47A7191
:1027F00001FB17426421B2FBF1F2D3B212AA02EB41
:102800004307B4FBF1F201FB1241B1FBF0F1DFF839
:102810002C9112A800EB4104EDB1684600EB450194
:102820000222002005F096FE16E0022251461046D4
:1028300005F090FE02222146042005F08BFE10E0F8
:102840000222394624E002224146062005F082FE9B
:1028500031B0BDE8F08F46B199F800004D46002830
:10286000E3D028780128EED1EAE799F800004D4638
:1028700048B902226946104605F06CFE0222214644
:10288000042005F067FE28780128DCD112A9022275
:10289000022005F05FFE02225946042005F05AFE90
:1028A000D1E700000A0F0006060D040F0C060C0B02
:1028B0000E0B000E0E0F0C0F0F0506000B060F027D
:1028C00006030D030D0707000F070F030605060695
:1028D00000000407020607000602040207040207BC
:1028E0000606040006070606070400000D0F08068A
:1028F0000E0B0A0F0B060B0D0F0D08070F0F0B0F1A
:102900000B0F0106070D050F0D060D0B0F0B010E2A
:102910000F0F0D0F0E05070E00010C07030E070128
:102920000E02050A07050A07070E04010E07070E27
:102930000705000009050300070000202201002010
:102940002DE9F04FB9B006460D4614461422A1A158
:102950006846FEF775FB1422A3A105A8FEF770FBDD
:102960002022A6A10AA8FEF76BFB1422ABA117A890
:10297000FEF766FB1422AEA11CA8FEF761FB142231
:10298000ABA112A8FEF75CFB2022AEA121A8FEF7A6
:1029900057FB2022B3A129A8FEF752FBB9A00122C0
:1029A0000068349034A91C2005F0D4FD4FF47A79E6
:1029B000B6FBF9F2D1B209FB12624FF0640A50463D
:1029C000B2FBF0F202F0FF08B6FBFAF20AFB126269
:1029D0000A20B2FBF0F7B6FBF0F2DFF8ACB200FB76
:1029E00012669BF80000012807D101EB41010AA8FB
:1029F00001440322192005F0ADFD9BF8000018B931
:102A000002211A2005F0CCFD08EB480029A9014459
:102A10000322162005F09EFD07EB470021A9014483
:102A20000322132005F096FD06EB46010AA8014497
:102A30000322102005F08EFDB5FBF9F109FB1153BF
:102A4000B3FBFAF04FF00A0B5E46B5FBF6F30BFB57
:102A5000135317AF07EB43086423B5FBF3F703FBEE
:102A60001757B7FBFBF6CAB24FF47A7707FB115141
:102A7000B1FBF3F100F0FF0C05A8C9B200EB46066C
:102A800000EB410532B100EB420102220C2005F0BF
:102A900061FD02E0BCF1000F04D0022229460A20A9
:102AA00005F058FD02223146082005F053FD0222B0
:102AB00041460E2005F04EFDB4FBF9F709FB174126
:102AC0005046B1FBF0F1CEB2B4FBFAF10AFB114172
:102AD0005846B1FBF0F8B4FBFBF168460BFB11491B
:102AE00000EB460A0222FDB25146104605F032FDC7
:102AF000684600EB480B02225946042005F02AFDE7
:102B0000684600EB49010222062005F023FD0A2059
:102B1000B4FBF0F100FB11411CAA02EB41084FF499
:102B20007A7101FB17426421B2FBF1F2D3B212AA0F
:102B300002EB4307B4FBF1F201FB1241B1FBF0F1F0
:102B4000DFF8489112A800EB4104EDB1684600EBB4
:102B500045010222002005F0FDFC16E0022251464C
:102B6000104605F0F7FC02222146042005F0F2FC95
:102B700010E00222394624E002224146062005F0F8
:102B8000E9FC39B0BDE8F08F46B199F800004D4638
:102B90000028E3D028780128EED1EAE799F8000070
:102BA0004D4648B902226946104605F0D3FC022280
:102BB0002146042005F0CEFC28780128DCD112A99A
:102BC0000222022005F0C6FC02225946042005F02C
:102BD000C1FCD1E70A0F0006060D040F0C060C0B12
:102BE0000E0B000E0E0F0C0F0F0506000B060F024A
:102BF00006030D030D0707000F070F030605060662
:102C00000000040702060700060204020704020788
:102C10000606040006070606070400000D0F080656
:102C20000E0B0A0F0B060B0D0F0D08070F0F0B0FE6
:102C30000B0F0106070D050F0D060D0B0F0B010EF7
:102C40000F0F0D0F06050E06000804070A060708F9
:102C500006020C02070C02070E06040806070E0601
:102C6000070C00000605070600010407030607011C
:102C70000602050207050207070604010607070604
:102C800007050000090503000700002022010020BD
:102C90002DE9F04FA9B006460C4615461422A2A114
:102CA00008A8FEF7CDF91422A4A10DA8FEF7C8F9D3
:102CB0001422A7A117A8FEF7C3F92022A9A16846EC
:102CC000FEF7BEF91422AFA112A8FEF7B9F904214C
:102CD0001D2005F065FC01211C2005F061FC4FF46E
:102CE0007A70B6FBF0F200FB12636421B3FBF1F3E0
:102CF000DBB22193B6FBF1F301FB13674FF00A0E31
:102D0000B7FBFEF32393B4FBF0F303F0FF0B00FBE0
:102D10001343B3FBF1F303F0FF08B4FBF1F301FB42
:102D20001347B5FBF0F300FB1350B0FBF1F000F0DC
:102D3000FF0AB5FBF1F001FB1051CDF890A0B1FBFB
:102D4000FEFA4FF47A7000FB1261B7FBFEF96420C3
:102D5000B1FBF0F1DFB2C9B201EB4103B6FBF0F118
:102D600000FB11610A20B1FBF0F101EB410EB6FB53
:102D7000F0F102F0FF0C00FB11606A46CDF888907C
:102D8000CDF87C8000EB40009E1800EB02090EEBB2
:102D90000208BCF1000F07D00CEB4C008118032295
:102DA000192005F0D7FB01E0219828B10322314614
:102DB000162005F0CFFB01E0239921B10322414603
:102DC000132005F0C7FB03224946102005F0C2FB83
:102DD0000A22B4FBF2F102FB114117AB03EB4108ED
:102DE0006421B4FBF1F301FB1343B3FBF2F20DA832
:102DF00000EB42064FF47A72B4FBF2F302FB13428B
:102E0000B2FBF1F1C9B200EB4104BBF1000F06D0F7
:102E100000EB4B0102220C2005F09CFB01E01F9807
:102E200028B1022221460A2005F094FB01E02298F5
:102E300020B102223146082005F08CFB02224146D7
:102E40000E2005F087FB0A23B5FBF3F103FB1151BC
:102E500008A800EB41096422B5FBF2F102FB115115
:102E6000B1FBF3FC4FF47A73B5FBF3F603FB165199
:102E7000B1FBF2F1C9B20DF1480B474C0BEB410528
:102E800000EB4C080BEB4C0B00EB4106FFB100EBE9
:102E900047010222002005F05DFB1AE002223146C4
:102EA000104605F057FB02225946042005F052FB5C
:102EB00012E002222946104605F04CFB21E00222D6
:102EC0004946062005F046FB29B0BDE8F08F24985E
:102ED00030B120780028E1D020780128EFD1E8E750
:102EE0002078BAF1000F12D020B9022259460420EE
:102EF00005F030FB20780128E1D10121022005F006
:102F00004FFB02224146042005F024FBD7E718B905
:102F10000121042005F044FB20780128CFD10121B4
:102F2000022005F03DFBCAE70A0F0006060D040F5C
:102F30000C060C0B0E0B000E0E0F0C0F0F050600EF
:102F40000B060F0206030D030D0707000F070F0303
:102F5000050F0006060B020F0306030D070D000701
:102F6000070F030F06050606000004070206070008
:102F70000602040207040207060604000607060606
:102F8000070400000B0F0106070D050F0D060D0BC2
:102F90000F0B010E0F0F0D0F220100202DE9F04F36
:102FA000EBA1ADB0D1E90001CDE928012022EAA1D1
:102FB00009A8FEF745F81422EFA104A8FEF740F88F
:102FC0001422F2A119A8FEF73BF81422F4A11EA8BE
:102FD000FEF736F82022F7A111A8FEF731F81422E7
:102FE000FCA123A8FEF72CF8FF4D4FF480442146A6
:102FF0002846FEF74FFFFD4F012680B9B87B20B968
:103000007878401C787002F0BBF921462846FEF71C
:1030100041FF0028F9D07878062800D97E704FF457
:10302000805421462846FEF735FF80B9B87B20B989
:103030007878401E787002F0A3F921462846FEF702
:1030400029FF0028F9D0787808B9062078707978B7
:10305000E74CDFF8A083DFF8A093E8484FF0030ABD
:1030600007297DD2DFE801F09B049EF1F0EFEE002E
:1030700080218346FEF70EFF98B9FEF7C3FCE048B7
:10308000006800EB80004200DE48008800EB800012
:103090004004010CDC48007800EB80004000FEF7A3
:1030A00065FF80215846FEF7F5FE012877D14FF4E1
:1030B000005B59462846FEF7EDFE80B9B87B70B933
:1030C00002F05EF9B878401CB87059462846FEF701
:1030D000E1FE0028F9D0B878032800D9BE704FF47B
:1030E000006631462846FEF7D5FE70B9B87B60B958
:1030F00002F046F9B878401EB87031462846FEF70F
:10310000C9FE0028F9D0B87818B1B878012803D0E2
:1031100015E087F802A02EE0FEF774FCBB480068BB
:1031200000EB80004200208800EB80004004010C8E
:10313000B748007800EB80004000FFF7DDF8B87872
:10314000022815D1FEF75EFCB248006800EB800053
:103150004200B8F8000000EB80004004010C00E0E1
:103160001DE0AD48007800EB80004000FFF756FA04
:10317000B878032813D1FEF745FCA848006800EB97
:1031800080004200B9F8000000EB80004004010C10
:10319000A348007800EB80004000FFF7D1FB2DB082
:1031A000BDE8F08F80218046FEF774FE9D4C40F212
:1031B000F51978B9FEF726FC20884A4600EB800016
:1031C0004004010C9848008800EB80004004000C8B
:1031D00000F04CFA80214046FEF75CFE0128DED16B
:1031E0004FF4005841462846FEF754FE80B9B87B9C
:1031F00070B902F0C5F8F878401CF87041462846CE
:10320000FEF748FE0028F9D0F878032800D9FE70B0
:103210004FF4006631462846FEF73CFE70B9B87B95
:1032200060B902F0ADF8F878401EF87031462846D3
:10323000FEF730FE0028F9D0F87838B1F878012888
:1032400007D016E0FDE15BE154E139E087F803A027
:1032500025E0FEF7D7FB20884A4600EB80004004BB
:10326000010C7248008800EB80004004000C00F064
:1032700065FBF87802280FD1FEF7C4FB20884A4688
:1032800000EB80004004010C6948008800EB8000DE
:103290004004000C00F0D6FCF87803289FD1FEF71C
:1032A000B1FB20884A4600EB80004004010C6148D5
:1032B000008800EB80004004000C00F047FE6EE741
:1032C00080218346FEF7E6FD5B4CDFF87081DFF876
:1032D000709198B9FEF796FB208800EB80004004BF
:1032E000020CB8F8000000EB80004004010C99F8D3
:1032F000000000EB8000400000F0A8FF802158464D
:10330000FEF7C8FD0128DAD14FF4005B5946284684
:10331000FEF7C0FD80B9B87B70B902F031F8F878DB
:10332000401CF87059462846FEF7B4FD0028F9D035
:10333000F878032800D9FE704FF40066314628461D
:10334000FEF7A8FD10B9B87B00B97BE087E000006C
:103350000002000005060000060D06060800040F26
:1033600002060F00060A04020F04020F06060C00F4
:10337000060F06060F0400000A0F0006060D040FD4
:103380000C060C0B0E0B000E0E0F0C0F0F0506009B
:103390000B060F0206030D030D0707000F070F03AF
:1033A000050F0006060B020F0306030D070D0007AD
:1033B000070F030F060506060000040702060700B4
:1033C00006020402070402070606040006070606B2
:1033D000070400000B0F0106070D050F0D060D0B6E
:1033E0000F0B010E0F0F0D0F000C024014010020F7
:1033F0001E000020200000202200002000100240BB
:1034000030000020140000200100002034000020C3
:103410000200002038000020030000203C000020B3
:1034200004000020180000201600002024000020C6
:1034300026000020280000201C0000201A00002088
:103440000000002001F09CFFF878401EF870314623
:103450002846FEF71FFD0028F9D0F87818B1F87853
:10346000012803D016E087F803A02EE0FEF7CAFA81
:10347000208800EB80004004020CB8F8000000EB4C
:1034800080004004010C99F8000000EB800040002F
:1034900001F04AF8F878022813D1FEF7B3FA208831
:1034A00000EB80004004020CB8F8000000EB800044
:1034B0004004010C99F8000000EB8000400001F08E
:1034C000ABF9F87803287FF4FAAEFEF79BFA208870
:1034D00000EB80004004020CB8F8000000EB800014
:1034E0004004010C99F8000000EB8000400001F05E
:1034F0001BFB54E6FEF786FA0120FEF7D7FC4EE6EA
:10350000FEF780FA04211D2005F04AF801211C2055
:1035100005F046F8062228A9162005F01BF8FA7BCC
:103520000A20B2FBF0F100FB112B3A7CB2FBF0F861
:1035300000FB182A7A7CB2FBF0F400FB142901EBA3
:10354000410009A901440322132005F003F80BEB05
:103550004B0011A901440322102004F0FBFF19A81D
:1035600000EB48010222082004F0F4FF1EA800EB43
:103570004A0102220E2004F0EDFFB87B30B923A8E7
:1035800000EB44010222042004F0E4FFB87B0DF1BB
:103590001008012809D10121022005F001F808EBEB
:1035A00044010222042004F0D5FF08EB4901022265
:1035B000062004F0CFFF4FF4005949462846FEF795
:1035C00069FC294C04F12008C8B9B87BB8B901F0EE
:1035D000D7FEF87B401CF87349462846FEF75AFC94
:1035E0000028F9D0F87B202800D9FE73F87B211839
:1035F000404411F8011C397410F8010C78744FF430
:10360000006631462846FEF745FC00287FF457AE99
:10361000B87B0028FAD101F0B3FEF87B401EF873A6
:1036200031462846FEF736FC0028F9D0F87B08B969
:103630002020F873C0B2215C397418F80000787447
:10364000ADE5FEF7DFF9B9F8000000EB80004200BD
:10365000B8F8000000EB80004100208800EB8000FB
:103660004000FFF715FB9AE5ACCD00202DE9F04FA7
:10367000BFB004460D46164614227AA11DA8FDF7D8
:10368000DFFC14227CA108A8FDF7DAFC20227FA130
:103690006846FDF7D5FC142284A127A8FDF7D0FCCD
:1036A000202287A10DA8FDF7CBFC14228CA122A813
:1036B000FDF7C6FC20228FA131A8FDF7C1FC95A023
:1036C000142200683C9086A12CA8FDF7B9FC2022AA
:1036D00091A115A8FDF7B4FC01220DF1F1011C2008
:1036E00004F038FF4FF47A7AB4FBFAF10AFB114385
:1036F0004FF0640BB3FBFBF202F0FF080AFB114230
:10370000C8B25946B2FBF1F2D2B202EB4207B4FBA7
:10371000F1F20A210BFB1242B2FBF1F2B4FBF1F31E
:1037200001FB13410DF1340C01EB410101EB0C09DC
:10373000EE4602EB420215A95418774438B100EB6B
:10374000400171440322192004F004FF02E0B8F1A3
:10375000000F04D003223946162004F0FBFE03229A
:103760002146132004F0F6FE03224946102004F0FF
:10377000F1FEB5FBFAF10AFB1153D946B3FBF9F0A0
:103780004FF00A0A5446B5FBF4F30AFB135327AF74
:1037900007EB43086423B5FBF3F703FB1757B7FBAD
:1037A000FAF400F0FF0C08A800EB4407CAB24FF48B
:1037B0007A7404FB1151B1FBF3F1C9B200EB41047F
:1037C00032B100EB420102220C2004F0C3FE02E001
:1037D000BCF1000F04D0022221460A2004F0BAFEF8
:1037E00002223946082004F0B5FE022241460E208E
:1037F00004F0B0FEB6FBF9F1CCB209FB1161504602
:10380000B1FBF0F5B6FBFAF14B4F0AFB11663878C5
:103810000DF174080DF1880958B9022208EB440132
:10382000104604F097FE09EB45010222042004F043
:1038300091FE387801280BD1022209EB4401104691
:1038400004F088FE08EB45010222042004F082FE09
:103850002CA800EB46010222062004F07BFE3FB0BC
:10386000BDE8F08F0A0F0006060D040F0C060C0BC6
:103870000E0B000E0E0F0C0F0F0506000B060F02AD
:1038800006030D030D0707000F070F0306050606C5
:1038900000000407020607000602040207040207EC
:1038A0000606040006070606070400000D0F0806BA
:1038B0000E0B0A0F0B060B0D0F0D08070F0F0B0F4A
:1038C00006050706000104070306070106020502B4
:1038D000070502070706040106070706070500009B
:1038E0000B0F0106070D050F0D060D0B0F0B010E3B
:1038F0000F0F0D0F0E0D060E08000C0F020E0F001D
:103900000E0A040A0F040A0F060E0C000E0F060E14
:103910000F04000009050300060D06060800040F49
:1039200002060F00060A04020F04020F06060C002E
:10393000060F06060F040000220100202DE9F04FBB
:10394000C7B004460D461646142280A11DA8FDF7F7
:1039500077FB142282A108A8FDF772FB202285A123
:103960006846FDF76DFB14228AA127A8FDF768FBC6
:1039700020228DA10DA8FDF763FB142292A122A89D
:10398000FDF75EFB202295A131A8FDF759FB9BA016
:103990001422006841908CA12CA8FDF751FB202235
:1039A00097A139A8FDF74CFB20229DA115A8FDF792
:1039B00047FB01220DF205111C2004F0CBFD4FF452
:1039C0007A7AB4FBFAF10AFB11434FF0640BB3FBB4
:1039D000FBF202F0FF080AFB1142C8B25946B2FBE3
:1039E000F1F2D2B202EB4207B4FBF1F20A210BFB77
:1039F0001242B2FBF1F2B4FBF1F301FB13410DF102
:103A0000340C01EB410101EB0C09EE4602EB4202E2
:103A100015A902EB0E040F4438B100EB40017144CC
:103A20000322192004F096FD02E0B8F1000F05D042
:103A300003223946162004F08DFD03E008211720EB
:103A400004F0AEFD03222146132004F083FD03227F
:103A50004946102004F07EFDB5FBFAF10AFB115334
:103A6000D946B3FBF9F04FF00A0A5446B5FBF4F31C
:103A70000AFB135327AF07EB43086423B5FBF3F7A7
:103A800003FB1757B7FBFAF400F0FF0C08A800EB94
:103A90004407CAB24FF47A7404FB1151B1FBF3F13D
:103AA000C9B200EB410432B100EB420102220C200A
:103AB00004F050FD02E0BCF1000F04D002222146C8
:103AC0000A2004F047FD02223946082004F042FD96
:103AD000022241460E2004F03DFDB6FBF9F1CCB2C6
:103AE00009FB11615046B1FBF0F5B6FBFAF1544FFA
:103AF0000AFB116638780DF174080DF1880958B980
:103B0000022208EB4401104604F024FD09EB4501B4
:103B10000222042004F01EFD387801280BD1022275
:103B200009EB4401104604F015FD08EB45010222A3
:103B3000042004F00FFD2CA800EB46010222062011
:103B400004F008FD47B0BDE8F08F00000A0F000642
:103B5000060D040F0C060C0B0E0B000E0E0F0C0FB7
:103B60000F0506000B060F0206030D030D070700E5
:103B70000F070F03060506060000040702060700EC
:103B800006020402070402070606040006070606EA
:103B9000070400000D0F08060E0B0A0F0B060B0D95
:103BA0000F0D08070F0F0B0F06050706000104078E
:103BB00003060701060205020705020707060401BE
:103BC00006070706070500000B0F0106070D050F86
:103BD0000D060D0B0F0B010E0F0F0D0F0E0D060E28
:103BE00008000C0F020E0F000E0A040A0F040A0F41
:103BF000060E0C000E0F060E0F0400000905030050
:103C0000060D06060800040F02060F00060A04024D
:103C10000F04020F06060C00060F06060F04000034
:103C2000060D07060801040F03060F01060A050228
:103C30000F05020F07060C01060F07060F0500000F
:103C4000220100202DE9F04FC7B004460D4616466C
:103C5000142280A11DA8FDF7F3F9142282A108A85F
:103C6000FDF7EEF9202285A16846FDF7E9F9142257
:103C70008AA127A8FDF7E4F920228DA10DA8FDF760
:103C8000DFF9142292A122A8FDF7DAF9202295A1EA
:103C900031A8FDF7D5F99BA01422006841908CA1B2
:103CA0002CA8FDF7CDF9202297A139A8FDF7C8F976
:103CB00020229DA115A8FDF7C3F901220DF20511DF
:103CC0001C2004F047FC4FF47A7AB4FBFAF10AFBAB
:103CD00011434FF0640BB3FBFBF202F0FF080AFB49
:103CE0001142C8B25946B2FBF1F2D2B202EB42071E
:103CF000B4FBF1F20A210BFB1242B2FBF1F2B4FB6E
:103D0000F1F301FB13410DF1340C01EB410101EB27
:103D10000C09EE4602EB420215A902EB0E040F4419
:103D200038B100EB400171440322192004F012FC69
:103D300002E0B8F1000F05D003223946162004F046
:103D400009FC03E00821162004F02AFC0322214686
:103D5000132004F0FFFB03224946102004F0FAFB75
:103D6000B5FBFAF10AFB1153D946B3FBF9F04FF05A
:103D70000A0A5446B5FBF4F30AFB135327AF07EBCB
:103D800043086423B5FBF3F703FB1757B7FBFAF4BB
:103D900000F0FF0C08A800EB4407CAB24FF47A7495
:103DA00004FB1151B1FBF3F1C9B200EB410432B194
:103DB00000EB420102220C2004F0CCFB02E0BCF13B
:103DC000000F04D0022221460A2004F0C3FB022285
:103DD0003946082004F0BEFB022241460E2004F0C2
:103DE000B9FBB6FBF9F1CCB209FB11615046B1FB4E
:103DF000F0F5B6FBFAF1544F0AFB116638780DF175
:103E000074080DF1880958B9022208EB44011046E4
:103E100004F0A0FB09EB45010222042004F09AFB08
:103E2000387801280BD1022209EB4401104604F036
:103E300091FB08EB45010222042004F08BFB2CA827
:103E400000EB46010222062004F084FB47B0BDE8E7
:103E5000F08F00000A0F0006060D040F0C060C0B75
:103E60000E0B000E0E0F0C0F0F0506000B060F02B7
:103E700006030D030D0707000F070F0306050606CF
:103E800000000407020607000602040207040207F6
:103E90000606040006070606070400000D0F0806C4
:103EA0000E0B0A0F0B060B0D0F0D08070F0F0B0F54
:103EB00006050706000104070306070106020502BE
:103EC00007050207070604010607070607050000A5
:103ED0000B0F0106070D050F0D060D0B0F0B010E45
:103EE0000F0F0D0F0E0D060E08000C0F020E0F0027
:103EF0000E0A040A0F040A0F060E0C000E0F060E1F
:103F00000F04000009050300060D06060800040F53
:103F100002060F00060A04020F04020F06060C0038
:103F2000060F06060F0400000E05070E00010C0721
:103F3000030E07010E02050A07050A07070E040112
:103F40000E07070E07050000220100202DE9F04FA3
:103F5000C7B004460D46164614227EA115A8FDF7EB
:103F60006FF8142280A16846FDF76AF8202283A129
:103F70001FA8FDF765F8142288A127A8FDF760F8AF
:103F800020228BA105A8FDF75BF8142290A11AA8A6
:103F9000FDF756F8202293A131A8FDF751F899A01A
:103FA0001422006841908AA12CA8FDF749F820222C
:103FB00095A139A8FDF744F820229BA10DA8FDF793
:103FC0003FF801220DF205111C2004F0C3FA4FF452
:103FD0007A7BB4FBFBF10BFB11436422B3FBF2F2DF
:103FE00002F0FF0A0BFB1142C8B26421B2FBF1F2EE
:103FF000D2B202EB4207B4FBF1F201FB12420A21FA
:10400000B2FBF1F2B4FBF1F301FB13410DF1140C1F
:104010000DF1340802EB420201EB410101EB0C0906
:10402000904407EB0C0440B100EB40001FA9014491
:104030000322192004F08EFA02E0BAF1000F04D036
:1040400003222146162004F085FA0322414613205C
:1040500004F080FA03224946102004F07BFAB5FBF5
:10406000FBF10BFB11534FF06409B3FBF9F04FF078
:104070000A0A5446B5FBF4F30AFB135327AF07EBC8
:1040800043084B46B5FBF3F709FB1757B7FBFAF4A8
:1040900000F0FF0C684600EB4407CAB24FF47A7494
:1040A00004FB1151B1FBF9F1C9B200EB410432B18B
:1040B00000EB420102220C2004F04CFA02E0BCF1B9
:1040C000000F04D0022221460A2004F043FA022203
:1040D0003946082004F03EFA022241460E2004F040
:1040E00039FAB6FBF9F1CCB209FB11615046B1FBCC
:1040F000F0F5B6FBFAF1544F0AFB116638780DF172
:1041000054090DF1680858B9022209EB4401104620
:1041100004F020FA08EB45010222042004F01AFA08
:10412000387801280BD1022208EB4401104604F034
:1041300011FA09EB45010222042004F00BFA2CA825
:1041400000EB46010222062004F004FA47B0BDE865
:10415000F08F00000A0F0006060D040F0C060C0B72
:104160000E0B000E0E0F0C0F0F0506000B060F02B4
:1041700006030D030D0707000F070F0306050606CC
:1041800000000407020607000602040207040207F3
:104190000606040006070606070400000D0F0806C1
:1041A0000E0B0A0F0B060B0D0F0D08070F0F0B0F51
:1041B00006050706000104070306070106020502BB
:1041C00007050207070604010607070607050000A2
:1041D0000B0F0106070D050F0D060D0B0F0B010E42
:1041E0000F0F0D0F0E0D060E08000C0F020E0F0024
:1041F0000E0A040A0F040A0F060E0C000E0F060E1C
:104200000F04000009050300060D06060800040F50
:1042100002060F00060A04020F04020F06060C0035
:10422000060F06060F04000006050E060008040728
:104230000A06070806020C02070C02070E0604080D
:1042400006070E06070C0000220100202DE9F04FA2
:10425000BFB004460D46164614227DA11DA8FCF7EA
:10426000EFFE14227FA108A8FCF7EAFE202282A11B
:104270006846FCF7E5FE142287A127A8FCF7E0FEBC
:1042800020228AA10DA8FCF7DBFE14228FA12CA806
:10429000FCF7D6FE14228DA122A8FCF7D1FE202225
:1042A0008FA131A8FCF7CCFE95A0202200683D909C
:1042B00094A115A8FCF7C4FE01220DF1F6011C2003
:1042C00004F048F90121042004F06AF94FF47A72ED
:1042D000B4FBF2F102FB11436422B3FBF2F202F0F1
:1042E000FF094FF47A7202FB1142C8B26421B2FB9B
:1042F000F1F2D2B202EB4207B4FBF1F201FB12423F
:104300000A21B2FBF1F2B4FBF1F301FB1341EB46DE
:104310000DF1340C0DF1540802EB420201EB4101A6
:1043200001EB0C0A904407EB0B0438B100EB4001A1
:1043300059440322192004F00DF902E0B9F1000FED
:1043400004D003222146162004F004F9032241463A
:10435000132004F0FFF803225146102004F0FAF86D
:104360004FF064084FF00A01B5FBF8F2B5FBF1F429
:1043700012F0FF0001FB145408FB1252B2FBF1F1E2
:1043800027AB0DF1200C03EB44070CEB410405D0E7
:104390000CEB400102220A2004F0DCF80222214644
:1043A000082004F0D7F8022239460E2004F0D2F893
:1043B0004FF00A00B6FBF0F3B6FBF8F100FB136315
:1043C0002CAA02EB430811F0FF044FF0640202FB39
:1043D0001161B1FBF0F0534F0DF1740C0DF1880930
:1043E0000CEB400609EB400538781DD050B902228D
:1043F0000CEB4401104604F0ADF8022229460420DB
:1044000004F0A8F83878012806D1022209EB44010B
:10441000104604F09FF814E002224146062004F002
:1044200099F83FB0BDE8F08F20B902222946042058
:1044300004F090F838780128EED10121022004F030
:10444000AFF802223146042004F084F8E4E70000CB
:104450000A0F0006060D040F0C060C0B0E0B000EC7
:104460000E0F0C0F0F0506000B060F0206030D03BF
:104470000D0707000F070F030605060600000407D7
:1044800002060700060204020704020706060400EB
:1044900006070606070400000D0F08060E0B0A0F9C
:1044A0000B060B0D0F0D08070F0F0B0F0605070668
:1044B00000010407030607010602050207050207BB
:1044C0000706040106070706070500000B0F010693
:1044D000070D050F0D060D0B0F0B010E0F0F0D0F26
:1044E0000E0D060E08000C0F020E0F000E0A040A35
:1044F0000F040A0F060E0C000E0F060E0F0400002C
:1045000009050300060D06060800040F02060F0049
:10451000060A04020F04020F06060C00060F060628
:104520000F040000220100202DE9F04FC7B004461F
:104530000D461646142282A11DA8FCF781FD142207
:1045400084A108A8FCF77CFD202287A16846FCF71F
:1045500077FD14228CA127A8FCF772FD20228FA1E1
:104560000DA8FCF76DFD142294A12CA8FCF768FDA2
:10457000142292A122A8FCF763FD202294A131A865
:10458000FCF75EFD9AA020220068459099A139A809
:10459000FCF756FD202297A115A8FCF751FD01223A
:1045A0000DF58B711C2003F0D5FF0121042003F0D1
:1045B000F7FF4FF47A72B4FBF2F102FB114364226D
:1045C000B3FBF2F202F0FF094FF47A7202FB1142E0
:1045D000C8B26421B2FBF1F2D2B202EB4207B4FBE3
:1045E000F1F201FB12420A21B2FBF1F2B4FBF1F34A
:1045F00001FB13410DF1540EEB460DF1340C02EBAF
:10460000420201EB410101EB0C0A02EB0B0807EB44
:104610000E0438B100EB400159440322192003F085
:1046200099FF02E0B9F1000F05D0032221461620C0
:1046300003F090FF03E00821172003F0B1FF0322ED
:104640004146132003F086FF03225146102003F059
:1046500081FF4FF064084FF00A01B5FBF8F2B5FB9B
:10466000F1F412F0FF0001FB145408FB1252B2FBEC
:10467000F1F127AB0DF1200C03EB44070CEB4104E7
:1046800005D00CEB400102220A2003F063FF022256
:104690002146082003F05EFF022239460E2003F077
:1046A00059FF4FF00A00B6FBF0F3B6FBF8F100FB40
:1046B00013632CAA02EB430811F0FF044FF06402CD
:1046C00002FB1161B1FBF0F0524F0DF1740C0DF1D2
:1046D00088090CEB400609EB400538781DD050B92D
:1046E00002220CEB4401104603F034FF022229465B
:1046F000042003F02FFF3878012806D1022209EBAD
:104700004401104603F026FF14E002224146062031
:1047100003F020FF47B0BDE8F08F20B90222294600
:10472000042003F017FF38780128EED10121022080
:1047300003F036FF02223146042003F00BFFE4E7CA
:104740000A0F0006060D040F0C060C0B0E0B000ED4
:104750000E0F0C0F0F0506000B060F0206030D03CC
:104760000D0707000F070F030605060600000407E4
:1047700002060700060204020704020706060400F8
:1047800006070606070400000D0F08060E0B0A0FA9
:104790000B060B0D0F0D08070F0F0B0F0605070675
:1047A00000010407030607010602050207050207C8
:1047B0000706040106070706070500000B0F0106A0
:1047C000070D050F0D060D0B0F0B010E0F0F0D0F33
:1047D0000E0D060E08000C0F020E0F000E0A040A42
:1047E0000F040A0F060E0C000E0F060E0F04000039
:1047F00009050300060D06060800040F02060F0057
:10480000060A04020F04020F06060C00060F060635
:104810000F040000220100202DE9F04FC7B004462C
:104820000D461646142282A11DA8FCF709FC14228D
:1048300084A108A8FCF704FC202287A16846FCF7A5
:10484000FFFB14228CA127A8FCF7FAFB20228FA1E2
:104850000DA8FCF7F5FB142294A12CA8FCF7F0FBA3
:10486000142292A122A8FCF7EBFB202294A131A8EC
:10487000FCF7E6FB9AA020220068459099A139A890
:10488000FCF7DEFB20229FA115A8FCF7D9FB012233
:104890000DF58B711C2003F05DFE0121042003F057
:1048A0007FFE4FF47A72B4FBF2F102FB11436422F3
:1048B000B3FBF2F202F0FF094FF47A7202FB1142ED
:1048C000C8B26421B2FBF1F2D2B202EB4207B4FBF0
:1048D000F1F201FB12420A21B2FBF1F2B4FBF1F357
:1048E00001FB13410DF1540EEB460DF1340C02EBBC
:1048F000420201EB410101EB0C0A02EB0B0807EB52
:104900000E0438B100EB400159440322192003F092
:1049100021FE02E0B9F1000F05D003222146162046
:1049200003F018FE03E00821162003F039FE0322ED
:104930004146132003F00EFE03225146102003F0DF
:1049400009FE4FF064084FF00A01B5FBF8F2B5FB21
:10495000F1F412F0FF0001FB145408FB1252B2FBF9
:10496000F1F127AB0DF1200C03EB44070CEB4104F4
:1049700005D00CEB400102220A2003F0EBFD0222DD
:104980002146082003F0E6FD022239460E2003F0FE
:10499000E1FD4FF00A00B6FBF0F3B6FBF8F100FBC7
:1049A00013632CAA02EB430811F0FF044FF06402DA
:1049B00002FB1161B1FBF0F05A4F0DF1740C0DF1D7
:1049C00088090CEB400609EB400538781DD050B93A
:1049D00002220CEB4401104603F0BCFD02222946E2
:1049E000042003F0B7FD3878012806D1022209EB34
:1049F0004401104603F0AEFD14E0022241460620B9
:104A000003F0A8FD47B0BDE8F08F20B90222294687
:104A1000042003F09FFD38780128EED10121022007
:104A200003F0BEFD02223146042003F093FDE4E7CB
:104A30000A0F0006060D040F0C060C0B0E0B000EE1
:104A40000E0F0C0F0F0506000B060F0206030D03D9
:104A50000D0707000F070F030605060600000407F1
:104A60000206070006020402070402070606040005
:104A700006070606070400000D0F08060E0B0A0FB6
:104A80000B060B0D0F0D08070F0F0B0F0605070682
:104A900000010407030607010602050207050207D5
:104AA0000706040106070706070500000B0F0106AD
:104AB000070D050F0D060D0B0F0B010E0F0F0D0F40
:104AC0000E0D060E08000C0F020E0F000E0A040A4F
:104AD0000F040A0F060E0C000E0F060E0F04000046
:104AE00009050300060D06060800040F02060F0064
:104AF000060A04020F04020F06060C00060F060643
:104B00000F0400000E05060E00000C07020E070041
:104B10000E02040A07040A07060E04000E07060E1A
:104B200007040000220100202DE9F04FC7B0044621
:104B30000D46164614227FA11DA8FCF781FA142207
:104B400081A108A8FCF77CFA202284A16846FCF722
:104B500077FA142289A127A8FCF772FA20228CA1E7
:104B60000DA8FCF76DFA142291A12CA8FCF768FAA5
:104B700014228FA122A8FCF763FA202291A131A868
:104B8000FCF75EFA97A020220068459096A139A80C
:104B9000FCF756FA20229CA115A8FCF751FA012235
:104BA0000DF58B711C2003F0D5FC0121042003F0CE
:104BB000F7FC4FF47A72B4FBF2F102FB114364226A
:104BC000B3FBF2F202F0FF094FF47A7202FB1142DA
:104BD000C8B26421B2FBF1F2D2B202EB4207B4FBDD
:104BE000F1F201FB12420A21B2FBF1F2B4FBF1F344
:104BF00001FB1341EB460DF1340C0DF1540802EBAF
:104C0000420201EB410101EB0C0A904407EB0B045B
:104C100038B100EB400159440322192003F09AFCFB
:104C200002E0B9F1000F04D003222146162003F060
:104C300091FC03224146132003F08CFC03225146D1
:104C4000102003F087FC4FF064084FF00A01B5FB19
:104C5000F8F2B5FBF1F412F0FF0001FB145408FB6D
:104C60001252B2FBF1F127AB0DF1200C03EB44071C
:104C70000CEB410405D00CEB400102220A2003F0AA
:104C800069FC02222146082003F064FC0222394616
:104C90000E2003F05FFC4FF00A00B6FBF0F3B6FB0A
:104CA000F8F100FB13632CAA02EB430811F0FF0498
:104CB0004FF0640202FB1161B1FBF0F05A4F0DF1AD
:104CC000740C0DF188090CEB400609EB40053878AF
:104CD0001DD050B902220CEB4401104603F03AFCFF
:104CE00002222946042003F035FC3878012806D139
:104CF000022209EB4401104603F02CFC14E00222CE
:104D00004146062003F026FC47B0BDE8F08F20B9ED
:104D100002222946042003F01DFC38780128EED138
:104D20000121022003F03CFC02223146042003F062
:104D300011FCE4E70A0F0006060D040F0C060C0B2D
:104D40000E0B000E0E0F0C0F0F0506000B060F02C8
:104D500006030D030D0707000F070F0306050606E0
:104D60000000040702060700060204020704020707
:104D70000606040006070606070400000D0F0806D5
:104D80000E0B0A0F0B060B0D0F0D08070F0F0B0F65
:104D900006050706000104070306070106020502CF
:104DA00007050207070604010607070607050000B6
:104DB0000B0F0106070D050F0D060D0B0F0B010E56
:104DC0000F0F0D0F0E0D060E08000C0F020E0F0038
:104DD0000E0A040A0F040A0F060E0C000E0F060E30
:104DE0000F04000009050300060D06060800040F65
:104DF00002060F00060A04020F04020F06060C004A
:104E0000060F06060F04000006050E06000804073C
:104E10000A06070806020C02070C02070E06040821
:104E200006070E06070C0000220100201CB5012118
:104E3000022002F065FFE020009001208DF80400C0
:104E400000208DF8060002200F4C8DF80500694601
:104E50002046FCF7D1FF20212046FDF724F8402111
:104E60002046FDF720F880212046FDF71CF802209F
:104E700003F0CCF8292003F0C9F8012003F0C6F8AC
:104E8000032003F0C3F81CBD00040240FEE700004D
:104E90007CB5134E4FF4005529463046FDF701F816
:104EA00001208DF8040002206C008DF805000094AC
:104EB00069463046FCF7A0FF21463046FCF7F1FF7B
:104EC000022007F05BFC29463046FCF7ECFF02208D
:104ED00007F054FC29463046FCF7E3FF7CBD000098
:104EE000000402401CB50121022002F009FF4FF42A
:104EF000E040009001208DF8040002200A4C8DF85B
:104F0000050069462046FCF777FFA1142046FCF710
:104F1000C8FF4FF400512046FCF7C5FF4FF4804115
:104F20002046FCF7C0FF1CBD000402407CB5134EB8
:104F30004FF4005529463046FCF7B3FF01208DF8A9
:104F4000040002206C008DF805000094694630468C
:104F5000FCF752FF21463046FCF7A5FF022007F080
:104F60000DFC29463046FCF79EFF022007F006FCA8
:104F700029463046FCF795FF7CBD00000004024046
:104F80002DE9FC4700241B4E80464FF480478DF8E6
:104F9000044000978DF8074069463046FCF72CFF27
:104FA0000025B9467F1039463046FCF77AFF0220CB
:104FB00007F0E4FB39463046FCF775FF6006040E47
:104FC00049463046FCF766FF08B1641CE4B2012094
:104FD00007F0D4FB6D1CEDB2082DE4D3B8F1000F3F
:104FE00004D0FFF755FF2046BDE8FC87FFF79EFF82
:104FF000F9E70000000402402DE9FC4705460120C6
:105000008DF8040002201A4E4FF480478DF80500F9
:10501000009769463046FCF7EFFE4FF400584146D2
:105020003046FCF73EFFB94600244746280649466D
:10503000304602D4FCF735FF01E0FCF734FF680688
:10504000050E022007F09AFB39463046FCF72BFF8D
:10505000022007F093FB39463046FCF722FF02207E
:1050600007F08CFB641CE4B2082CDFD3BDE8FC879E
:10507000000402407CB501208DF804000220114D8F
:105080004FF480448DF80500009469462846FCF7EB
:10509000B3FE21462846FCF706FF66103146284637
:1050A000FCF701FF032007F069FB21462846FCF7C7
:1050B000F8FE032007F062FB31462846FCF7F1FEBC
:1050C0007CBD0000000402407CB501208DF8040086
:1050D0000220114D4FF480448DF80500009469467C
:1050E0002846FCF789FE661031462846FCF7D9FEB3
:1050F00021462846FCF7D5FE032007F03FFB31464A
:105100002846FCF7D0FE21462846FCF7CCFE0320BB
:1051100007F034FB7CBD0000000402402DE9FC4197
:105120000024184E4FF480458DF8044000958DF80A
:10513000074069463046FCF75FFE29463046FCF7DB
:10514000B2FE012007F01AFB6F1039463046FCF71B
:10515000AAFE012007F012FB08E0641CE4B2FA2C5E
:1051600004D9FFF7B1FF0120BDE8FC812946304694
:10517000FCF790FE0028F0D139463046FCF791FE4E
:105180000020F1E7000402402DE9F0479CB0012126
:105190005E4802F0B5FD01214FF4E06002F0D4FD5D
:1051A0004FF0806000905A4801900125594802A9AB
:1051B000002431C106A8EE026F034FF480784FF44B
:1051C00000390594A0E8D003CDE90B45DFF848A1EC
:1051D0000D94694650460E94FCF72EFC0121504672
:1051E000FCF720FC4D4802A9CDE900404948DFF812
:1051F00028A1801C31C106A80594A0E8D003CDE900
:105200000B45AAF1180A0D94694650460E94FCF716
:1052100013FC01215046FCF705FC6806009040484D
:1052200001903C4802A9001D31C106A80594A0E8E0
:10523000D003394ECDE90B4518360D9469463046FA
:105240000E94FCF7F9FB01213046FCF7EBFB3F2005
:10525000032615908DF858608DF85B4015A93148EC
:10526000FCF7CAFD922015908DF858608DF85B40D0
:1052700015A92D48FCF7C0FD17941894199417A888
:105280001A94FCF72FF80F948DF840401194139462
:105290001F4C8DF841504C3C8DF850500FA92046C2
:1052A000FCF74CF81E4D0FA94C3D2846FCF746F87C
:1052B0001A4E0FA94C3E3046FCF740F8012120461B
:1052C000FCF732F801212846FCF72EF80121304680
:1052D000FCF72AF801212046FCF71CF8012128469A
:1052E000FCF718F801213046FCF714F8012120469C
:1052F000FBF7EEFF01212846FBF7EAFF01213046CC
:10530000FBF7E6FF1CB0BDE8F08700000500400099
:105310004C2201400E000020286402404C20014035
:105320004C21014000080240000002401CB5012150
:10533000082002F0E5FC4FF4FE40002400908DF8B8
:10534000044069460848FCF757FD0121102002F08F
:10535000D7FC4FF4607000908DF804406946034814
:10536000FCF74AFD1CBD0000000C0240001002408A
:105370004FF400410148FCF794BD0000000C0240CE
:1053800010B54FF400410348FCF78DFD024906209B
:10539000C87210BD000C0240000000202DE9F0474B
:1053A0000C46F9A1904699468CB091E82C00C9684A
:1053B000DDF850A0CDE90251F7A1CDE9002391E835
:1053C0002C00C968CDE90423CDE90651F6A104AE4D
:1053D00091E82C00C96808AFCDE90A51611E6D46FD
:1053E000CDE9082340B101287DD10F297CD8CCB26A
:1053F000B8F1000F79D0D4E00F2974D8CCB2B8F14D
:10540000000F11D1285D012140F4E070FCF74CFA47
:10541000385D012140F4E070FCF746FA305D01216F
:1054200040F4E070FCF740FAB9F1000F11D1285DAB
:10543000022140F4E070FCF737FA385D022140F4B5
:10544000E070FCF731FA305D022140F4E070FCF7C7
:105450002BFABAF1000F11D1285D032140F4E0705E
:10546000FCF722FA385D032140F4E070FCF71CFAE7
:10547000305D032140F4E070FCF716FAB8F1010F3B
:1054800011D1305D012140F4E070FCF70DFA385D78
:10549000012140F4E070FCF707FA285D012140F497
:1054A000E070FCF701FAB9F1010F11D1305D022172
:1054B00040F4E070FCF7F8F9385D022140F4E07048
:1054C000FCF7F2F9285D022140F4E070FCF7ECF9FA
:1054D000BAF1010F15D1305D032140F4E070FCF703
:1054E000E3F9385D02E0B7E0C6E048E040F4E07080
:1054F0000321FCF7D9F9285D032140F4E070FCF7A3
:10550000D3F9B8F1020F11D1285D012140F4E07008
:10551000FCF7CAF9305D012140F4E070FCF7C4F9F2
:10552000385D012140F4E070FCF7BEF9B9F1020FDB
:1055300011D1285D022140F4E070FCF7B5F9305D2F
:10554000022140F4E070FCF7AFF9385D022140F42D
:10555000E070FCF7A9F9BAF1020F7DD1285D0321B3
:1055600040F4E070FCF7A0F9305D032140F4E070F6
:10557000FCF79AF9385D032140F4E070FCE0285D07
:10558000012140F4E070FCF78FF9385D012140F40F
:10559000E070FCF789F9305D012140F4E070FCF720
:1055A00083F9B9F1000F11D1285D022140F4E070B8
:1055B000FCF77AF9385D022140F4E070FCF774F9E9
:1055C000305D022140F4E070FCF76EF9B8F1010F94
:1055D00011D1305D012140F4E070FCF765F9385DD0
:1055E000012140F4E070FCF75FF9285D012140F4EF
:1055F000E070FCF759F9B9F1010F11D1305D0221CA
:1056000040F4E070FCF750F9385D022140F4E0709E
:10561000FCF74AF9285D022140F4E070FCF744F9F8
:10562000B8F1020F11D1285D012140F4E070FCF7C0
:105630003BF9305D012140F4E070FCF735F9385D4D
:10564000012140F4E070FCF72FF9B9F1020F13D1FA
:10565000285D40F4E07000E08FE00221FCF724F9BF
:10566000305D022140F4E070FCF71EF9385D022144
:1056700040F4E070FCF718F9113C0F2C7DD8E4B22F
:10568000B8F1000F11D1285D042140F4E070FCF75F
:105690000BF9385D042140F4E070FCF705F9305D4A
:1056A000042140F4E070FCF7FFF8B9F1000F11D1CC
:1056B000285D052140F4E070FCF7F6F8385D05211F
:1056C00040F4E070FCF7F0F8305D052140F4E07044
:1056D000FCF7EAF8B8F1010F11D1305D042140F474
:1056E000E070FCF7E1F8385D042140F4E070FCF76D
:1056F000DBF8285D042140F4E070FCF7D5F8B9F13F
:10570000010F11D1305D052140F4E070FCF7CCF8B9
:10571000385D052140F4E070FCF7C6F8285D0521EE
:1057200040F4E070FCF7C0F8B8F1020F11D1285D29
:10573000042140F4E070FCF7B7F8305D042140F438
:10574000E070FCF7B1F8385D042140F4E070FCF73C
:10575000ABF8B9F1020F13D1285D052140F4E070D8
:10576000FCF7A2F8305D052140F4E070FCF79CF8EE
:10577000385D052140F4E07000E001E0FCF794F8AA
:105780000CB0BDE8F0870000383B3033282B2023D5
:10579000181B1013080B0003393C3134292C212429
:1057A000191C1114090C11043A3D32352A2D2225F9
:1057B0001A1D12150A0D02052DE9F0470C46F9A134
:1057C000904699468CB091E82C00C968DDF850A04D
:1057D000CDE90251F7A1CDE9002391E82C00C96879
:1057E000CDE90423CDE90651F6A104AE91E82C00E1
:1057F000C96808AFCDE90A51611E6D46CDE908239D
:1058000040B101287DD10F297CD8CCB2B8F1000F6E
:1058100079D0D4E00F2974D8CCB2B8F1000F11D1EF
:10582000285D012140F4E070FCF73EF8385D01216D
:1058300040F4E070FCF738F8305D012140F4C070AE
:10584000FCF732F8B9F1000F11D1285D022140F4C4
:10585000E070FCF729F8385D022140F4E070FCF7B5
:1058600023F8305D022140F4C070FCF71DF8BAF156
:10587000000F11D1285D032140F4E070FCF714F80B
:10588000385D032140F4E070FCF70EF8305D032131
:1058900040F4C070FCF708F8B8F1010F11D1305D89
:1058A000012140F4E070FBF7FFFF385D012140F477
:1058B000E070FBF7F9FF285D012140F4C070FBF7B1
:1058C000F3FFB9F1010F11D1305D022140F4E07016
:1058D000FBF7EAFF385D022140F4E070FBF7E4FFDC
:1058E000285D022140F4C070FBF7DEFFBAF1010F22
:1058F00015D1305D032140F4E070FBF7D5FF385D32
:1059000002E0B7E0C6E048E040F4E0700321FBF7B6
:10591000CBFF285D032140F4C070FBF7C5FFB8F151
:10592000020F11D1285D012140F4E070FBF7BCFFAC
:10593000305D012140F4E070FBF7B6FF385D0121D6
:1059400040F4C070FBF7B0FFB9F1020F11D1285D30
:10595000022140F4E070FBF7A7FF305D022140F424
:10596000E070FBF7A1FF385D022140F4C070FBF747
:105970009BFFBAF1020F7DD1285D032140F4E07056
:10598000FBF792FF305D032140F4E070FBF78CFFE2
:10599000385D032140F4C070FCE0285D012140F433
:1059A000E070FBF781FF385D012140F4E070FBF708
:1059B0007BFF305D012140F4C070FBF775FFB9F14A
:1059C000000F11D1285D022140F4E070FBF76CFF5D
:1059D000385D022140F4E070FBF766FF305D022184
:1059E00040F4C070FBF760FFB8F1010F11D1305DDA
:1059F000012140F4E070FBF757FF385D012140F4CE
:105A0000E070FBF751FF285D012140F4C070FBF707
:105A10004BFFB9F1010F11D1305D022140F4E0706C
:105A2000FBF742FF385D022140F4E070FBF73CFFDA
:105A3000285D022140F4C070FBF736FFB8F1020F79
:105A400011D1285D012140F4E070FBF72DFF305D9E
:105A5000012140F4E070FBF727FF385D012140F49D
:105A6000C070FBF721FFB9F1020F13D1285D40F49C
:105A7000E07000E08FE00221FBF716FF305D0221AD
:105A800040F4E070FBF710FF385D022140F4C07075
:105A9000FBF70AFF113C0F2C7DD8E4B2B8F1000FE0
:105AA00011D1285D042140F4E070FBF7FDFE385D64
:105AB000042140F4E070FBF7F7FE305D042140F470
:105AC000C070FBF7F1FEB9F1000F11D1285D05217F
:105AD00040F4E070FBF7E8FE385D052140F4E0702B
