:020000040800F2
:1000000070D4002029020008635C0008ED4E00084F
:10001000615C0008A51800086D860008000000005B
:10002000000000000000000000000000198000082F
:10003000B11A000800000000AB020008CD810008E2
:10004000430200084302000843020008430200087C
:10005000430200084302000843020008430200086C
:10006000430200084302000843020008430200085C
:10007000430200084302000843020008430200084C
:10008000430200084302000843020008430200083C
:10009000430200084302000843020008C11B000895
:1000A000430200084302000843020008430200081C
:1000B0004D82000843020008F58200084302000850
:1000C00043020008430200084302000843020008FC
:1000D000430200084302000849840008058500081F
:1000E000B51A000843020008430200084302000852
:1000F00043020008430200084302000843020008CC
:1001000043020008430200084302000843020008BB
:1001100043020008430200084302000843020008AB
:10012000430200084302000843020008430200089B
:10013000430200084302000843020008430200088B
:10014000430200084302000843020008430200087B
:10015000430200084302000843020008430200086B
:10016000430200084302000843020008430200085B
:10017000430200084302000843020008430200084B
:10018000430200084302000800F002F800F03CF8C7
:100190000AA090E8000C82448344AAF10107DA45E2
:1001A00001D100F031F8AFF2090EBAE80F0013F0F8
:1001B000010F18BFFB1A43F001031847C44901009F
:1001C000E4490100103A24BF78C878C1FAD8520730
:1001D00024BF30C830C144BF04680C6070470000C1
:1001E0000023002400250026103A28BF78C1FBD840
:1001F000520728BF30C148BF0B6070471FB50EF0D3
:10020000AEF81FBD10B510BD00F054FF1146FFF74A
:10021000F5FF0CF0FFFF00F072FF03B4FFF7F2FFF1
:1002200003BC00F073FF00000948804709480047FD
:10023000FEE7FEE7FEE7FEE7FEE7FEE7FEE7FEE796
:10024000FEE7FEE704480549054A064B70470000F3
:10025000F18100088901000870CE002070D40020D0
:1002600070D0002070D00020EFF3108072B670477D
:1002700080F3108870471D484FF0FF010170002087
:1002800080F309881A48012101701A484FF0805103
:10029000016062B6FEE717484FF080510160704779
:1002A00014484FF080510160704772B6EFF3098037
:1002B00028B1203880E8F00F0F490968086000B5C0
:1002C0000E4880475DF804EB0D480E490A7802702D
:1002D00009480D490A680260106890E8F00F203064
:1002E00080F309884EF0040E62B6704722ED00E0FC
:1002F0008F00002004ED00E0A8000020A9650008A0
:100300008C0000208D000020B000002072B67047E5
:1003100062B67047EFF3108072B6704780F31088B2
:100320007047B0FA80F0704790FAA0F0704730BF85
:10033000704720BF70470000DFED2E0AB5EEC00AFF
:1003400060EE200ABDEEE01A11EE100AF1EE10FA8E
:1003500038BF401E00EE100ADFED271AF7EE005AF4
:10036000B8EEC00ADFED274A244930EEC01A21EE6C
:10037000210AFCEEC00A10EE900A00EE900A01EB92
:100380008000B8EE600ADFED1E0AF0EC012A11EEE3
:10039000210AF6EE001AB0EC013AF0EC013A20EE38
:1003A000001A20EE216A40EE615A20EE245A21EE16
:1003B000212A90ED004A00EE602A66EE010A40EE26
:1003C000400A05EE412A70EEA55AF0EE400A41EED1
:1003D000210A46EE410A25EE011A00EE641A22EEC9
:1003E000820A63EEA00A03EE250A44EE010A30EE0B
:1003F000200A704783F9223E00008043D4E40008BD
:10040000ABAAAA3EABAA2A3E9FED3A0A5FEA920C3B
:1004100053D000BFB0EC011A0B1DF0EC010A21EE25
:10042000011A00EEA01AB5EEC01AF1EE10FAC6BF1E
:10043000F1EEC10AC1ED000A81ED000AF0EC010AFB
:10044000191DB0EC011A60EEA00A41EE010AF5EEAA
:10045000C00AF1EE10FAC6BFF1EEE00AC3ED000AE1
:1004600083ED000AB0EC011A0B1DF0EC010A21EE3D
:10047000011A00EEA01AB5EEC01AF1EE10FAC6BFCE
:10048000F1EEC10AC1ED000A81ED000AB0EC011ADB
:10049000191DF0EC010A21EE011A00EEA01AB5EECA
:1004A000C01AF1EE10FAC6BFF1EEC10AC3ED000AA0
:1004B00083ED000ABCF1010CACD112F0030208BFBD
:1004C000704700BFF0EC010A0B46B0EC011A091DA1
:1004D00060EEA00A41EE010AF5EEC00AF1EE10FA54
:1004E000C6BFF1EEE00AC3ED000A83ED000A521E1A
:1004F000E8D17047000000002DE9F00700EBC109CA
:10050000DDE90778D0F800A0C9F800A007EB0114D6
:10051000D0F804A0251FA9F10406C9F804A003EB34
:10052000C80907F1080C00F1080402EBC8024B1ED1
:1005300031D000BFF2EC011A96ED002A92ED001ABC
:1005400002EBC802B4EC010A121FF4EC012A60EEBF
:10055000210A20EE010A32EE823A02EEA10AD9ED1A
:10056000001A43EE410A09EBC80902EE610A16EDD2
:10057000012A083E42EE210A02EE410AECEC010A91
:10058000ACEC010AB1EE400A85ED000A45ED010A26
:10059000083D5B1ECED190ED000AD0ED010A07EBBD
:1005A000C10130EE600A81ED000A9FED5D0A81ED28
:1005B000010AD0ED000A90ED011A70EE810AC7ED34
:1005C000000A87ED010ABDE8F007704770B400EB40
:1005D000C105DDE903C42D1D002904BF70BC7047AF
:1005E000F2EC011A95ED002A92ED001A02EBC4021A
:1005F000B0EC010A121FF0EC012A60EE210A20EE95
:10060000410A32EE823A02EEA10AD3ED001A43EE1D
:10061000010A03EBC40302EE610A15ED012A083D4D
:10062000491E42EE210A02EE010AECEC010AACEC92
:10063000010AD5D170BC70472DE9F04305464469E5
:10064000807983B00F461646012809D0A3892188F6
:100650003846626800F036F9E87901284ED053E058
:10066000AA88D5E9030307EBC20CD5F80880314608
:100670000CF1040C5AB300BFB0EC011A9CED002A37
:10068000D0ED001A00EBC800B7EC010A001FF7EC30
:10069000012A521E60EE010A20EE610A32EE823A11
:1006A00002EE810A93ED001A43EE210A03EBC80320
:1006B00002EE410A1CED012AACF1080C42EE010ADF
:1006C00002EE210AE1EC010AA1EC010AD4D194ED79
:1006D000040AA38921883046626800F095FAE87917
:1006E00001281CBF03B0BDE8F083E2892188A3681C
:1006F00003B03046BDE8F04300F08CB8E2892188B1
:100700003846A36800F086F8A868CDE90060D5E90E
:100710000323A9883846FFF7EFFE03B0BDE8F08356
:100720000000000070B592B2DDF810C055080260FC
:100730008580184EC66006F50056DBB206610024BF
:10074000837180F807C0802A04BF102282600BD01A
:10075000B2F5007F08BF042212D0B2F5006F14BFBB
:100760004FF0FF3401220BD0002B8C4641614FF03B
:10077000000307D001222946604600F015FC06E080
:100780008260F1E700222946604600F00DFC204619
:1007900070BD0000E0E8000870B40025B0EC010A6C
:1007A000A1F1010CF0EC010AB4EEE00AF1EE10FA4E
:1007B0003CBFB0EE600A0125ACF10104A446B4F1DF
:1007C000004F0ED3F0EC010AB4EEE00AF1EE10FA9D
:1007D0003CBFB0EE600AA1EB0C05BCF1010CF1D1FD
:1007E00013E0002CC8BF00260FDD00BFF0EC010AAB
:1007F000B4EEE00AF1EE10FA04D2ACEB0605B0EE6E
:10080000600A4D1B761C641EF0D182ED000A1D604B
:1008100070BC70472DE9F0014E0801244FF0000C28
:1008200004EB51076146A6F102082CE061452AD28B
:1008300000EBCC0500EBC104D5ED000A94ED000AF5
:10084000C4ED000A85ED000AD5ED010A94ED010A18
:10085000C4ED010A85ED010A0CEB0705CC1900EB8C
:10086000C50500EBC404D5ED000A94ED000AC4ED03
:10087000000A85ED000AD5ED010A94ED010AC4EDE8
:10088000010A85ED010A00EBC104B44400EBCC0C75
:1008900094ED020ADCED000A891CC4ED020A8CED1D
:1008A000000A94ED030ADCF80450E5608CED010ABF
:1008B000B3F800C089B203EB42034145B6D9BDE8A5
:1008C000F00170472DE9F04F4FEA910C4FF000080E
:1008D0004746644608EB0C0505EB0C0909EB0C06D2
:1008E00000EBC80A00EBC9099AED000AD9ED000A2D
:1008F00099ED012A00EBC50530EE201A30EE600AB2
:10090000DAED010A00EBC60608F1010870EE821A62
:1009100070EEC20A95ED002AD6ED002A641E32EE72
:10092000222A71EE022A31EE421ACAED002A95ED12
:10093000012AD6ED012A32EE222A71EE822A71EEC8
:10094000C21ACAED012A95ED012AD6ED012A96EDCB
:10095000003A4FEA470A32EE622AD5ED002A02EB4E
:10096000CA0B72EEC32A9BED003ADBED013A21EE91
:10097000034A01EEA34A61EE831A41EE631A85ED44
:10098000004A30EE021A30EE420AC5ED011A02EBBF
:10099000C70570EEE21A95ED002A70EEA20AD5EDB9
:1009A000012A21EE023A0AEB070502EBC5051F44B6
:1009B00001EEA23A61EE821A41EE621A89ED003A26
:1009C000C9ED011AD5ED001A95ED011A20EE212A84
:1009D00000EE812A60EEA10A40EE410A86ED002A6F
:1009E000C6ED010A7FF476AF9B044FEA134BE6464F
:1009F000BCF1040F7DD9E0464FEA9C0C4FF0000992
:100A0000CA46BCF1000F75D94FEA490404EB09034B
:100A100002EBC90502EBC40402EBC30395ED001A17
:100A2000D5ED011A94ED000AD4ED010A93ED002AE8
:100A3000D3ED012AD94453468A4573D203EB0C0403
:100A400004EB0C0606EB0C0500EBC30700EBC60637
:100A500097ED003AD6ED003A96ED015A00EBC4044A
:100A600073EE234A33EE633AD7ED013A00EBC50546
:100A700033EE854A73EEC53A94ED005AD5ED005A2F
:100A800035EE255A74EE855A74EEC54AC7ED005A04
:100A900094ED015AD5ED015A35EE255A74EE055AFA
:100AA00034EE454AC7ED015A94ED015AD5ED015A8D
:100AB00095ED006A35EE655AD4ED005A75EEC65ACA
:100AC00024EE806A04EE206A24EE004A04EEE04A36
:100AD00084ED006A73EEE54A73EEA53A84ED014AAF
:100AE00033EE054A33EE453A24EE015A04EEA15A9C
:100AF00001E026E01BE064EE814A86ED005A4344A3
:100B00008B4244EE614A23EE024A03EEA24A63EEB0
:100B1000823AC6ED014A43EE623A85ED004AC5EDE0
:100B2000013A8BD30AF1010AE245FFF46DAF4FEAB7
:100B30008B434FEA9E0E4FEA134BBEF1040F3FF674
:100B40005AAFA1EB0C0100224B1C4FEA9C04002B76
:100B50008CBF1F46BDE8F08F11190E19331900EB39
:100B6000C20500EBC60695ED000AD6ED000A95ED2C
:100B7000012A96ED011A70EE201A70EE600A32EE2C
:100B8000010A00EBC10100EBC30332EE411A91ED03
:100B9000002AD3ED002A6244974232EE222A71EEF7
:100BA000822A31EEC22AC5ED002AD1ED011AD3ED19
:100BB000012A71EEA21A70EE212AC5ED012A70EE0B
:100BC000612A91ED010AD3ED011A93ED003A70EE1E
:100BD000611A91ED000A81ED002AC1ED012A30EE83
:100BE000430A30EEA12A70EEE10A71EE401A31EEAE
:100BF000000A86ED002AC6ED011AC3ED000A83ED56
:100C0000010AA9D8BDE8F08F2DE9F04F4FEA910C09
:100C10004FF000084746644608EB0C0505EB0C0A4C
:100C20000AEB0C0600EBC80900EBCA0AD9ED000A72
:100C30009AED001ADAED012A00EBC50570EE811A73
:100C400070EEC10A99ED011A00EBC60608F1010821
:100C500031EE222A31EE621AD5ED002A96ED003AE5
:100C6000641E72EE832A31EEA23A71EEE21A89ED29
:100C7000003AD5ED012A96ED013A72EE832A32EE62
:100C8000223A32EE622A89ED013AD5ED012A96ED3B
:100C9000013AD6ED003A4FEA470972EEC32A95EDC4
:100CA000003A02EBC90B33EE633ADBED003A9BED01
:100CB000014A61EEA34A42EE444A22EE232A01EEA3
:100CC000842AC5ED004A70EEE21A70EEA20A85EDA4
:100CD000012A02EBC70531EE032AD5ED002A31EED9
:100CE000431A95ED013A61EEA23A09EB070502EBD2
:100CF000C5051F4442EE433A22EE222A01EE832A22
:100D0000CAED003A8AED012AD5ED001A95ED012AC7
:100D100060EEA12A41EE422A21EE211A00EE821A4B
:100D2000C6ED002A86ED011A7FF476AF9B044FEAE8
:100D3000134BE646BCF1040F7DD9E0464FEA9C0C0C
:100D40004FF00009CA46BCF1000F75D94FEA4904BB
:100D500004EB090302EBC90502EBC40402EBC30375
:100D6000D5ED001A95ED012AD4ED000A94ED011A93
:100D7000D3ED002A93ED013AD94453468A4573D204
:100D800003EB0C0404EB0C0606EB0C0500EBC307AD
:100D900000EBC606D7ED003A96ED004AD6ED015AB3
:100DA00000EBC40433EE845A73EEC43A97ED014A63
:100DB00000EBC50574EE254A34EE654AD4ED005AC1
:100DC00095ED006A75EE865A35EE256A35EE655A60
:100DD00087ED006AD4ED015A95ED016A75EE865AE9
:100DE00034EEA56A74EEE54A87ED016AD4ED015A46
:100DF00095ED016AD5ED006A75EEC65A94ED006A6C
:100E000036EE666A65EE206A44EEC16A64EEA04A78
:100E100045EE014AC4ED006A34EE065A34EE464A05
:100E2000C4ED014A73EEE54A73EEA53A64EEA15AA9
:100E300045EE425A01E026E01BE025EE215AC6EDC0
:100E4000005A43448B4204EE825A63EEA24A44EEB7
:100E5000434A24EE224A86ED015A03EE834AC5ED49
:100E6000004A85ED014A8BD30AF1010AE245FFF4FD
:100E70006DAF4FEA8B434FEA9E0E4FEA134BBEF124
:100E8000040F3FF65AAFA1EB0C0100224B1C4FEAB6
:100E90009C06002B8CBF1F46BDE8F08F91198D1961
:100EA000AB1900EBC20400EBC505D4ED000AD5ED8B
:100EB000001AD4ED012A95ED012A30EEA11A70EE48
:100EC000E11A72EE820A00EBC10100EBC30332EEBD
:100ED000C22AD1ED002A93ED003A6244974272EEA5
:100EE000832A31EE223A71EE622A23EE003A62EE54
:100EF000802A84ED003A91ED011A93ED013A31EE2A
:100F0000031A30EE813A23EE003A84ED013A30EED6
:100F1000C13AD1ED010A93ED011AD3ED003A30EE5A
:100F2000C11AD1ED000AC1ED002A63EE002A70EE6D
:100F3000E30AC1ED012A71EEC12A31EE811A72EE87
:100F4000201A72EE600A22EE802A21EE001A61EE6B
:100F5000801A85ED002A60EE800AC5ED011A83ED46
:100F6000001AC3ED010A99D8BDE8F08F30B50446E8
:100F70000D4680782188A389626801280DD0284613
:100F8000FFF7A0FCE078012818BF30BDE289218876
:100F90002846A368BDE830403CE494ED040A2846A6
:100FA000FFF732FEEEE7000010B401801B4C4460F6
:100FB00082704FF0000CC370102925D040291BD03F
:100FC000B1F5807F10D0B1F5806F18BF4FF0FF3CB6
:100FD00002D010BC6046704701218181C181104957
:100FE0009FED100A816016E004218181C1810E49C4
:100FF0009FED0E0A81600EE010218181C1810C49B4
:101000009FED0C0A816006E040218181C1810A497F
:101010009FED0A0A816080ED040ADAE7E028010802
:10102000E04801080000803AE64801080000803BE3
:10103000FE4801080000803C5E4901080000803D38
:1010400010B5203AC0F00B80B1E81850203AA0E863
:101050001850B1E81850A0E81850BFF4F5AF5FEA97
:10106000027C24BFB1E81850A0E8185044BF18C94A
:1010700018C0BDE810405FEA827C24BF51F8043BF1
:1010800040F8043B08BF7047D20728BF31F8023B45
:1010900048BF11F8012B28BF20F8023B48BF00F8D9
:1010A000012B704770477047704700000048704739
:1010B0000CCE00207546FFF7F9FFAE4605006946E5
:1010C000534620F00700854618B020B5FFF7BAF860
:1010D000BDE820404FF000064FF000074FF0000839
:1010E0004FF0000B21F00701AC46ACE8C009ACE8BA
:1010F000C009ACE8C009ACE8C0098D467047044699
:10110000AFF300802046FFF788F8704701491820A8
:10111000ABBEFEE72600020010B5064C01220023FC
:101120001146204600F030F92046BDE8104000F09E
:1011300065B900000020014010B5064C00230122D3
:101140000C21204600F020F92046BDE8104000F0B8
:1011500055B900000020014010B5064C00230122C3
:101160000421204600F010F92046BDE8104000F0B0
:1011700045B900000020014010B5064C00230122B3
:101180000721204600F000F92046BDE8104000F09D
:1011900035B900000020014070B59CB001212F48F6
:1011A00006F0F4FD01214FF4E06006F013FE4FF06D
:1011B000007000902A4801902A4802A900240125C5
:1011C00031C1E802CDE90640800008904011099045
:1011D0000AA90594400231C1234E0D946946304658
:1011E0000E9400F03BFC0121304600F02DFC032062
:1011F0008DF8680019958DF86B4019A91B4800F00F
:101200004BFE15941694179415A8189400F06AF8DC
:101210000F948DF8404011941394114C8DF8415067
:101220004C3C8DF850500FA9204600F087F8002361
:1012300001220821204600F0A7F80121204600F0F5
:1012400073F80121204600F065F80121204600F0E6
:101250003FF8204600F0D2F81CB070BD02004000FC
:101260004C21014012000020406402400004024072
:1012700010B5064C002301220A21204600F084F814
:101280002046BDE8104000F0B9B80000002201403F
:1012900010B5064C002301220B21204600F074F803
:1012A0002046BDE8104000F0A9B80000002201402F
:1012B00010B5064C002301220C21204600F064F8F2
:1012C0002046BDE8104000F099B80000002201401F
:1012D0000029816802D041F0010101E021F0010103
:1012E00081607047094B10B51A68094902EA01028A
:1012F000D0E9001441EA0401D0E9024044EA0004C4
:1013000041EA040141EA0201196010BD04230140D1
:10131000E030FCFF0029816802D041F4807101E0D7
:1013200021F48071816070470029816802D041F406
:10133000007101E021F400718160704730B54268AE
:101340000F4B0C791A400B6842EA042213434360A6
:1013500082680C4B4D791A40D1E9034323438C68D2
:1013600044EA4504234313438360C26A097D22F49F
:101370007002491EC9B242EA0151C16230BD00008B
:10138000FFFEFFFCFDF7FFC070B5072509290AD94C
:10139000C468A1F10A0606EB4606B540AC43B3406B
:1013A0001C43C46007E0046901EB4106B540AC434F
:1013B000B3401C4304611F23072A09D2446B521E09
:1013C00002EB820293409C4391400C43446370BD06
:1013D0000D2A09D2046BD21F02EB820293409C4378
:1013E00091400C43046370BDC46A0D3A02EB820263
:1013F00093409C4391400C43C46270BD816841F0AE
:1014000080418160704703F09DBD10B5044603F034
:1014100061FEA02003F020FE03F0B0FE200A03F0DE
:101420001BFE03F0ABFEE0B203F016FE03F0A6FED7
:1014300003F050FEA12003F00FFE03F09FFE0020FA
:1014400003F0CEFD044603F06FFE204610BD70B5DC
:1014500004460D4603F03EFEA02003F0FDFD03F020
:101460008DFE200A03F0F8FD03F088FEE0B203F0E1
:10147000F3FD03F083FE284603F0EEFD03F07EFE4D
:1014800003F052FEBDE870400A200BF0E5B970474A
:1014900038B5002004F004FD174C2064002004F04F
:1014A000FFFC6064002004F0EDFDE064002004F027
:1014B000F7FCA064002004F0E5FD20656A460FA15A
:1014C0000A2004F06BFF03230F4A00210F4804F0A9
:1014D000BFFE02230E4A00210E4804F0B9FE01238C
:1014E0000D4A00210D4804F0B3FE00230C4A1946B2
:1014F0000C4804F0ADFE38BD00000020537461724A
:1015000074205461736B00004415002031150008ED
:1015100044B500201118000844B6002071170008D7
:1015200044B7002059D8000805F07ABA7047000087
:1015300008B58B4F8B4EDFF830B28C4D05F00AFEAC
:10154000387801287DD14FF400594946304600F0E3
:10155000F1FC00284FD1287B696D08F039FA044668
:1015600001282DD15A46287BDBF8101008F030FAFC
:101570000346287B116808F02BFA8446687313B180
:10158000012B15D01CE09046287B516808F020FA0A
:101590000246287BD8F8081008F01AFA0346287B80
:1015A000D8F80C1008F014FA0090297B687B05E04D
:1015B0000220009003460246297B604604F042F96F
:1015C000287B401C28734946304600F0B3FC0028B5
:1015D000F9D0287B202801D901202873C2B208E065
:1015E0001046696D08F0F4F9044601280BD0521C2E
:1015F000D2B2202AF4D94FF400694946304600F0AF
:1016000099FC30B154E05848002114302A734173DA
:10161000F1E7287B696D08F0DBF9044601282DD13C
:10162000D846287BDBF8101008F0D2F90246287B58
:10163000D8F8001008F0CCF968731AB1012A16D056
:101640001CE088E0287BD8F8041008F0C1F90246B5
:10165000287BD8F8081008F0BBF90346287BD8F897
:101660000C1008F0B5F90090297B687B04E002219A
:101670000B460A460091297B04F0E4F8287B401EC3
:1016800028734946304600F055FC0028F9D0287BE5
:1016900008B920202873C2B208E01046696D08F02E
:1016A00097F90446012806D0521ED2B2002AF4D17E
:1016B000012C05D04FE02C49002014312A734873C7
:1016C000D846287BDBF8101008F082F90246287B08
:1016D000D8F8001008F07CF98446687312B1012A2A
:1016E00024D038E0287BD8F8041008F071F982463D
:1016F000287BD8F8081008F06BF98146287BD8F8C9
:101700000C1008F065F98046A879012807D1CDF8BA
:1017100000804B465246297B687B04F093F8A879F9
:10172000C8B94B465246CDF8008010E0A879012890
:1017300007D10220009003460246297B604604F050
:1017400081F8A87938B90220034602460090297B27
:10175000687B03F069FE64200BF07EF8EEE6000083
:1017600022010020000C024048B7002000000020A9
:101770001CB51D4F1D4C4FF480760025A07A012822
:101780002ED1E06C04F004FD3146384600F0D2FB67
:10179000012801D1022060723146384600F0CAFBB0
:1017A000F0B9E08DE0B1401EE0854FF02F08DFF882
:1017B0004090CDE90058012399F801001A46002114
:1017C0000BF066FDCDE9005899F8010002230122D3
:1017D00000210BF05DFDE08D012801D16572E585EA
:1017E00064200BF039F8C9E7001002400000002027
:1017F0006AB7002010B504F00FFDFFF749FEBDE801
:1018000010400A2004F078BE704705F011B90000BE
:101810001CB5204D0126DFF88080204C022701AA4C
:101820000021E86C04F054FC1C4B0094143B03F1C1
:10183000EE02A2F1C601A1F5B9700BF0CBFD174B7A
:101840000096A3F1140202F12801A1F5B9700BF082
:101850004DF8124B0097A3F1140202F1EE01A1F52D
:101860000E700BF043F80D491439A1F5A5700BF07B
:10187000B5F998F800000028D1D1084B0094143B2A
:1018800003F1EE02A2F1C601A1F5B97008F0A6F8C5
:10189000C5E7000000000020220100208602002091
:1018A00005F0D8B8FEE700002DE9F0470646481ECF
:1018B0000C46052821D8374F00254FF400794FF406
:1018C0008078F0074946384602D000F03CFB01E042
:1018D00000F037FB4146384600F033FB7608042021
:1018E0000AF0D8FF4146384600F02DFB04200AF0EC
:1018F000D1FF6D1CEDB20C2DE3D3274D012C19D077
:10190000022C20D0032C27D0042C2ED0052C35D02F
:10191000062C3CD12021284600F015FB04200AF0BB
:10192000B9FF2021284600F00CFBBDE8F047042059
:101930000AF0B0BF0121284600F005FB04200AF0A0
:10194000A9FF0121EEE70221284600F0FCFA04205D
:101950000AF0A0FF0221E5E70421284600F0F3FA8F
:1019600004200AF097FF0421DCE70821284600F054
:10197000EAFA04200AF08EFF0821D3E71021284656
:1019800000F0E1FA04200AF085FF1021CAE7BDE863
:10199000F087000000040240000C02402DE9FC41E9
:1019A0000121022006F0F2F901244FF440708DF875
:1019B0000440002500908DF8065002268DF8056041
:1019C0006946174800F068FA0121082006F0DEF9A0
:1019D0003F208DF8044000908DF806508DF805608A
:1019E0006946104800F058FA40F201254FF4C076DD
:1019F00040F2014721462846FFF756FF21460020C6
:101A0000FFF752FF21463046FFF74EFF214638468A
:101A1000FFF74AFF641CE4B2052CEBD9BDE8FC815A
:101A200000040240000C024070B500250024002193
:101A3000284606F043FE641CE4B2042CF7D36D1C68
:101A4000EDB2202DF2D370BD0029016802D041F023
:101A5000010101E021F001010160704730B5036828
:101A6000124ACC6813400A682243D1E905452C4349
:101A70002243CC6922430C6A22434C6A22438C6A7B
:101A800022434C6B22438C6B22431A43026042690F
:101A900022F00703D1E90B2422431A4342610A6969
:101AA00042604A6882608968C16030BD3F801CF036
:101AB000704700002DE9FC5F04F0B8F94FF4805B3B
:101AC000584600F061F9DFF8F090DFF8E8803B4C11
:101AD0004FF0000A2F2509F10E0620B398F80000F8
:101AE000012820D1607B012812D1CDE900A5012376
:101AF000574670781A46217B0BF0CAFBCDE900757A
:101B0000707802230122217B0BF0C2FB89F80D7053
:101B1000607B40B90620CDE90005012370781A46A4
:101B2000217B0AF01BFE584600F08AF84FF4804BE8
:101B3000584600F029F9A8B398F80000012831D1DF
:101B4000607B012823D199F80C004F464FF0010823
:101B500010B101280DD01AE0787B18BBCDE90085C3
:101B6000012370781A46217B0BF092FB87F80C80DA
:101B70000BE0787B58B9CDE900857078022301220B
:101B8000217B0BF085FB87F80CA087F80D80607B2C
:101B900040B90720CDE90005012370781A46217B62
:101BA0000AF0DCFD584600F04BF8BDE8FC5F04F09D
:101BB00049B90000220100205CB70020000000208D
:101BC0002DE9FC4104F032F94FF48074204600F016
:101BD000DBF810B117491420C885204600F030F812
:101BE0004FF40077384600F0CFF8D8B14FF47A7050
:101BF0000AF050FE3946104800F09CF990B90025D3
:101C00002F240E4ECDE90054012370781A46294640
:101C10000BF03EFBCDE90054707802230122002135
:101C20000BF036FB384600F00BF8BDE8FC4104F041
:101C300009B9000000000020000C02406AB7002033
:101C40000149086070470000143C01402DE9F04351
:101C50004FF4804985B00121484606F0BBF80121C8
:101C6000102006F093F84FF48077002503978DF845
:101C7000105003A93F4800F00FF90821042006F096
:101C8000CDF98DF804500C268DF8056001240097DD
:101C90008DF80640684600F087F84FF017088DF879
:101CA000088002208DF809008DF80A008DF80B409D
:101CB00002A803F0DBFF384600F05EF8092103209C
:101CC00006F0ACF98DF8045067028DF805600097B6
:101CD0008DF80640684600F067F88DF808808DF8AA
:101CE00009408DF80A408DF80B4002A803F0BEFFB2
:101CF000384600F041F80C21032006F08FF98DF8EA
:101D0000045027038DF8056000978DF8064068465B
:101D100000F04AF84FF028088DF808808DF8094047
:101D20008DF80A408DF80B4002A803F09FFF38465B
:101D300000F022F80E21032006F070F98DF804500F
:101D40008DF80560CDF800908DF80640684600F0EB
:101D50002BF88DF808808DF809408DF80A408DF831
:101D60000B4002A803F082FF484600F005F805B0DA
:101D7000BDE8F0830010024002490A6802430A608D
:101D800070470000103C0140064A014600201268DE
:101D9000044B0A4014331B680B4202D0002A00D0C7
:101DA00001207047003C014030B51B49837902682F
:101DB00063B30B6893430B600A1D13680468A34365
:101DC000136002790A441368046823431360124ABB
:101DD000083213680468A3431360131D1C68056868
:101DE000AC431C6090F805C0BCF1100F05D06144F5
:101DF0000A68006802430A6030BD11680468214324
:101E00001160196800680143196030BD0079084409
:101E100001689143016030BD003C01401CB50121C7
:101E2000082005F0B3FF4FF43F40009001208DF8EB
:101E3000040000218DF8061003218DF805108DF89F
:101E400007006946134800F027F803F01FF8FFF772
:101E5000DAFA03F0B1FAFFF7A1FDFFF79DF903F0FD
:101E6000D9F94FF4165006F00DF840F27121042014
:101E700003F0C2F941F61F44214641F2873006F0D3
:101E80004FFA214640F69F7006F004FAFFF7DEFE97
:101E90001CBD0000000C0240F0B5002201234FF0F1
:101EA000030C00BF0D6803FA02F42540A5422DD1B2
:101EB000066854000CFA04F5AE4306600E79076814
:101EC000A6403E4306600E79012E01D0022E12D1AB
:101ED0008668AE4386604D798668A5403543856047
:101EE000456803FA02F6B543456045688E79964029
:101EF000B6B235434560C56856000CFA06F7BD43D7
:101F0000C560CD79A540C4682543C560521C102A20
:101F1000C8D3F0BD4B07DB0E9A40C90810B500EBE3
:101F20008100016A0F249C40A1430162016A1143B0
:101F3000016210BD0246002012690A4200D0012051
:101F4000704741837047018370470000F0B58BB044
:101F50000446142222A16846FFF772F8142225A134
:101F600005A8FFF76DF80121042006F0A7FB012169
:101F7000102006F0A3FB01211C2006F09FFB64202B
:101F8000B4FBF0F500FB15410A20B1FBF0F6B4FB01
:101F9000F0F11D4F00FB1144387818B901210420DD
:101FA00006F08CFB3878012803D10121022006F0CD
:101FB00085FB6F4607EB450102220A2006F058FB1D
:101FC00007EB46010222082006F052FB05A800EBB1
:101FD000440102220E2006F04BFB0BB0F0BD0000C6
:101FE0000F0506000B060F0206030D030D07070081
:101FF0000F070F030D0F08060E0B0A0F0B060B0D34
:102000000F0D08070F0F0B0F220100202DE9F04FD5
:10201000C1B006460D4614461422A5A16846FFF736
:102020000FF81422A7A105A8FFF70AF82022AAA1F9
:102030000AA8FFF705F81422AFA117A8FFF700F8C8
:102040002022B2A11CA8FEF7FBFF1422B7A139A8D9
:10205000FEF7F6FF1422B5A112A8FEF7F1FF202229
:10206000B7A12FA8FEF7ECFF2022BDA124A8FEF700
:10207000E7FFC3A0012200683E903EA91C2006F0A5
:10208000F7FA4FF47A79B6FBF9F2D1B209FB126292
:102090004FF0640A5046B2FBF0F2D7B2B6FBFAF248
:1020A0000AFB12620A20B2FBF0F8B6FBF0F2DFF88E
:1020B000D4B200FB12669BF80000012807D101EBA7
:1020C00041010AA801440322192006F0D1FA9BF825
:1020D000000018B902211A2006F0F0FA07EB4700B9
:1020E0001CA901440322162006F0C2FA08EB48009E
:1020F00024A901440322132006F0BAFA06EB460194
:102100000AA801440322102006F0B2FAB5FBF9F147
:1021100009FB1153B3FBFAF04FF00A0B5E46B5FB17
:10212000F6F30BFB135317AF07EB43086423B5FB20
:10213000F3F703FB1757B7FBFBF6CAB24FF47A77F6
:1021400007FB1151B1FBF3F100F0FF0C05A8C9B278
:1021500000EB460600EB410532B100EB42010222E2
:102160000C2006F085FA02E0BCF1000F04D0022238
:1021700029460A2006F07CFA02223146082006F0A1
:1021800077FA022241460E2006F072FAB4FBF9F10A
:10219000CDB209FB11415046B1FBF0F1CEB2B4FB18
:1021A000FAF10AFB11415846B1FBF0F8B4FBFBF120
:1021B000754F0BFB1149387818B90121042006F03E
:1021C0007DFA3878012803D10121022006F076FA41
:1021D000684600EB460A02225146104606F048FACD
:1021E000684600EB480B02225946042006F040FAEC
:1021F000684600EB490902224946062006F038FAF3
:102200004FF47A70B4FBF0F100FB11416420B1FB94
:10221000F0F1CAB212A901EB4208B4FBF0F100FBE5
:1022200011400A21B0FBF1F112A800EB4104EDB11D
:10223000684600EB45010222002006F019FA16E07C
:1022400002225146104606F013FA022221460420CB
:1022500006F00EFA0EE00222414620E00222494634
:10226000062006F005FA41B0BDE8F08F36B13878A7
:102270000028E5D038780128F0D1ECE7387848B963
:1022800002226946104606F0F3F902222146042094
:1022900006F0EEF938780128E0D112A902220220D6
:1022A00006F0E6F902225946042006F0E1F9D5E7E6
:1022B0000A0F0006060D040F0C060C0B0E0B000E89
:1022C0000E0F0C0F0F0506000B060F0206030D0381
:1022D0000D0707000F070F03060506060000040799
:1022E00002060700060204020704020706060400AD
:1022F00006070606070400000D0F08060E0B0A0F5E
:102300000B060B0D0F0D08070F0F0B0F0605070629
:10231000000104070306070106020502070502077C
:102320000706040106070706070500000B0F010654
:10233000070D050F0D060D0B0F0B010E0F0F0D0FE7
:102340000E0D060E08000C0F020E0F000E0A040AF6
:102350000F040A0F060E0C000E0F060E0F040000ED
:10236000060D06060800040F02060F00060A040206
:102370000F04020F06060C00060F06060F040000ED
:102380000905030007000020220100202DE9F04F7D
:10239000B1B006460C46154614229BA16846FEF7CE
:1023A0004FFE14229DA10DA8FEF74AFE2022A0A1F7
:1023B00005A8FEF745FE1422A5A117A8FEF740FECA
:1023C0001422A8A128A8FEF73BFE1422A5A112A85A
:1023D000FEF736FE2022A8A11CA8FEF731FEAEA013
:1023E000012200682E902EA91C2006F041F94FF41E
:1023F0007A79B6FBF9F2D1B209FB12624FF0640AA6
:102400005046B2FBF0F202F0FF08B6FBFAF20AFB0C
:1024100012620A20B2FBF0F7B6FBF0F2DFF87CB2F2
:1024200000FB12669BF80000012807D101EB410177
:1024300005A801440322192006F01AF99BF80000B0
:1024400018B902211A2006F039F908EB48001CA936
:1024500001440322162006F00BF907EB470005AFF5
:10246000C1190322132006F003F906EB4600C11937
:102470000322102006F0FCF8B4FBF9F109FB11432C
:10248000B3FBFAF04FF00A0B5E46B4FBF6F30BFB1E
:10249000134317AF07EB43086423B4FBF3F703FBC5
:1024A0001747B7FBFBF6CAB24FF47A7707FB114127
:1024B000B1FBF3F100F0FF0C0DA8C9B200EB46062A
:1024C00000EB410432B100EB420102220C2006F085
:1024D000CFF802E0BCF1000F04D0022221460A200E
:1024E00006F0C6F802223146082006F0C1F80222A2
:1024F00041460E2006F0BCF8B5FBF9F709FB175171
:102500005046B1FBF0F1CEB2B5FBFAF10AFB115126
:102510005846B1FBF0F8B5FBFBF168460BFB1159CF
:1025200000EB460A0222FCB25146104606F0A0F823
:10253000684600EB480B02225946042006F098F842
:10254000684600EB490802224146062006F090F852
:102550004FF47A7000FB17516420B1FBF0F1CAB25E
:1025600012A901EB4207B5FBF0F100FB11500A2163
:10257000B0FBF1F1DFF8289112A800EB4105ECB1B6
:10258000684600EB44010222002006F071F816E0D4
:1025900002225146104606F06BF80222294604201A
:1025A00006F066F810E00222394624E00222414695
:1025B000062006F05DF831B0BDE8F08F46B199F81D
:1025C00000004C460028E3D020780128EED1EAE74D
:1025D00099F800004C4648B902226946104606F0B8
:1025E00047F802222946042006F042F82078012804
:1025F000DCD112A90222022006F03AF80222594642
:10260000042006F035F8D1E70A0F0006060D040F86
:102610000C060C0B0E0B000E0E0F0C0F0F05060018
:102620000B060F0206030D030D0707000F070F032C
:10263000060506060000040702060700060204025B
:102640000704020706060400060706060704000042
:102650000D0F08060E0B0A0F0B060B0D0F0D0807CA
:102660000F0F0B0F0B0F0106070D050F0D060D0BBE
:102670000F0B010E0F0F0D0F060D07060801040FBB
:1026800003060F01060A05020F05020F07060C01DB
:10269000060F07060F0500000905030007000020CC
:1026A000220100202DE9F04FB1B006460C46154638
:1026B00014229BA16846FEF7C3FC14229DA10DA81D
:1026C000FEF7BEFC2022A0A105A8FEF7B9FC14224B
:1026D000A5A117A8FEF7B4FC1422A8A128A8FEF70C
:1026E000AFFC1422A5A112A8FEF7AAFC2022A8A1E3
:1026F0001CA8FEF7A5FCAEA0012200682E902EA912
:102700001C2005F0B5FF4FF47A79B6FBF9F2D1B28F
:1027100009FB12624FF0640A5046B2FBF0F202F07D
:10272000FF08B6FBFAF20AFB12620A20B2FBF0F7CE
:10273000B6FBF0F2DFF87CB200FB12669BF80000FB
:10274000012807D101EB410105A80144032219200A
:1027500005F08EFF9BF8000018B902211A2005F041
:10276000ADFF08EB48001CA901440322162005F028
:102770007FFF07EB470005AFC1190322132005F0C7
:1027800077FF06EB4600C1190322102005F070FF09
:10279000B4FBF9F109FB1143B3FBFAF04FF00A0B5C
:1027A0005E46B4FBF6F30BFB134317AF07EB43088E
:1027B0006423B4FBF3F703FB1747B7FBFBF6CAB27E
:1027C0004FF47A7707FB1141B1FBF3F100F0FF0CF6
:1027D0000DA8C9B200EB460600EB410432B100EB94
:1027E000420102220C2005F043FF02E0BCF1000F81
:1027F00004D0022221460A2005F03AFF0222314687
:10280000082005F035FF022241460E2005F030FF7A
:10281000B5FBF9F709FB17515046B1FBF0F1CEB209
:10282000B5FBFAF10AFB11515846B1FBF0F8B5FBC4
:10283000FBF168460BFB115900EB460A0222FCB281
:102840005146104605F014FF684600EB480B022283
:102850005946042005F00CFF684600EB49080222A7
:102860004146062005F004FF4FF47A7000FB175133
:102870006420B1FBF0F1CAB212A901EB4207B5FB2B
:10288000F0F100FB11500A21B0FBF1F1DFF82891C3
:1028900012A800EB4105ECB1684600EB44010222AE
:1028A000002005F0E5FE16E002225146104605F034
:1028B000DFFE02222946042005F0DAFE10E00222A3
:1028C000394624E002224146062005F0D1FE31B00F
:1028D000BDE8F08F46B199F800004C460028E3D0DF
:1028E00020780128EED1EAE799F800004C4648B973
:1028F00002226946104605F0BBFE0222294604204A
:1029000005F0B6FE20780128DCD112A902220220AF
:1029100005F0AEFE02225946042005F0A9FED1E7DB
:102920000A0F0006060D040F0C060C0B0E0B000E12
:102930000E0F0C0F0F0506000B060F0206030D030A
:102940000D0707000F070F03060506060000040722
:102950000206070006020402070402070606040036
:1029600006070606070400000D0F08060E0B0A0FE7
:102970000B060B0D0F0D08070F0F0B0F0B0F0106AA
:10298000070D050F0D060D0B0F0B010E0F0F0D0F91
:102990000E05070E00010C07030E07010E02050AC3
:1029A00007050A07070E04010E07070E07050000BA
:1029B0000905030007000020220100202DE9F04F47
:1029C000B9B006460C46154614229EA16846FEF78D
:1029D00037FB1422A0A105A8FEF732FB2022A3A1F9
:1029E0000AA8FEF72DFB1422A8A117A8FEF728FBC2
:1029F0001422ABA130A8FEF723FB1422A8A112A831
:102A0000FEF71EFB2022ABA11CA8FEF719FB20221B
:102A1000B0A124A8FEF714FBB6A0012200682D90F7
:102A20002DA91C2005F024FE4FF47A79B6FBF9F2AB
:102A3000D1B209FB12624FF0640A5046B2FBF0F2C9
:102A400002F0FF08B6FBFAF20AFB12620A20B2FBA0
:102A5000F0F7B6FBF0F2DFF8A0B200FB12669BF8CD
:102A60000000012807D101EB41010AA8014403221B
:102A7000192005F0FDFD9BF8000018B902211A206D
:102A800005F01CFE08EB480024A90144032216208F
:102A900005F0EEFD07EB47001CA9014403221320BB
:102AA00005F0E6FD06EB46010AA8014403221020CA
:102AB00005F0DEFDB4FBF9F109FB1143B3FBFAF0BD
:102AC0004FF00A0B5E46B4FBF6F30BFB134317AF54
:102AD00007EB43086423B4FBF3F703FB1747B7FB8B
:102AE000FBF6CAB24FF47A7707FB1141B1FBF3F161
:102AF00000F0FF0C05A8C9B200EB460600EB41044C
:102B000032B100EB420102220C2005F0B1FD02E0DF
:102B1000BCF1000F04D0022221460A2005F0A8FDD6
:102B200002223146082005F0A3FD022241460E2074
:102B300005F09EFDB5FBF9F709FB17515046B1FBB7
:102B4000F0F1CEB2B5FBFAF10AFB11515846B1FBD8
:102B5000F0F8B5FBFBF168460BFB115900EB460A98
:102B60000222FCB25146104605F082FD684600EB99
:102B7000480B02225946042005F07AFD684600EB16
:102B8000490802224146062005F072FD4FF47A7092
:102B900000FB17516420B1FBF0F1CAB212A901EB9E
:102BA0004207B5FBF0F100FB11500A21B0FBF1F137
:102BB000DFF8489112A800EB4105ECB1684600EB44
:102BC00044010222002005F053FD16E00222514686
:102BD000104605F04DFD02222946042005F048FD6F
:102BE00010E00222394624E002224146062005F088
:102BF0003FFD39B0BDE8F08F46B199F800004C4672
:102C00000028E3D020780128EED1EAE799F8000007
:102C10004C4648B902226946104605F029FD0222B9
:102C20002946042005F024FD20780128DCD112A9D2
:102C30000222022005F01CFD02225946042005F064
:102C400017FDD1E70A0F0006060D040F0C060C0B4A
:102C50000E0B000E0E0F0C0F0F0506000B060F02D9
:102C600006030D030D0707000F070F0306050606F1
:102C70000000040702060700060204020704020718
:102C80000606040006070606070400000D0F0806E6
:102C90000E0B0A0F0B060B0D0F0D08070F0F0B0F76
:102CA0000B0F0106070D050F0D060D0B0F0B010E87
:102CB0000F0F0D0F06050E06000804070A06070889
:102CC00006020C02070C02070E06040806070E0691
:102CD000070C0000060507060001040703060701AC
:102CE0000602050207050207070604010607070694
:102CF000070500000905030007000020220100204D
:102D00002DE9F04FA9B006460C4615461422A2A1A3
:102D100008A8FEF795F91422A4A10DA8FEF790F9D2
:102D20001422A7A117A8FEF78BF92022A9A16846B3
:102D3000FEF786F91422AFA112A8FEF781F904214B
:102D40001D2005F0BBFC01211C2005F0B7FC4FF451
:102D50007A70B6FBF0F200FB12636421B3FBF1F36F
:102D6000DBB22193B6FBF1F301FB13674FF00A0EC0
:102D7000B7FBFEF32393B4FBF0F303F0FF0B00FB70
:102D80001343B3FBF1F303F0FF08B4FBF1F301FBD2
:102D90001347B5FBF0F300FB1350B0FBF1F000F06C
:102DA000FF0AB5FBF1F001FB1051CDF890A0B1FB8B
:102DB000FEFA4FF47A7000FB1261B7FBFEF9642053
:102DC000B1FBF0F1DFB2C9B201EB4103B6FBF0F1A8
:102DD00000FB11610A20B1FBF0F101EB410EB6FBE3
:102DE000F0F102F0FF0C00FB11606A46CDF888900C
:102DF000CDF87C8000EB40009E1800EB02090EEB42
:102E00000208BCF1000F07D00CEB4C008118032224
:102E1000192005F02DFC01E0219828B1032231464C
:102E2000162005F025FC01E0239921B1032241463B
:102E3000132005F01DFC03224946102005F018FC64
:102E40000A22B4FBF2F102FB114117AB03EB41087C
:102E50006421B4FBF1F301FB1343B3FBF2F20DA8C1
:102E600000EB42064FF47A72B4FBF2F302FB13421A
:102E7000B2FBF1F1C9B200EB4104BBF1000F06D087
:102E800000EB4B0102220C2005F0F2FB01E01F9841
:102E900028B1022221460A2005F0EAFB01E022982F
:102EA00020B102223146082005F0E2FB0222414611
:102EB0000E2005F0DDFB0A23B5FBF3F103FB1151F6
:102EC00008A800EB41096422B5FBF2F102FB1151A5
:102ED000B1FBF3FC4FF47A73B5FBF3F603FB165129
:102EE000B1FBF2F1C9B20DF1480B474C0BEB4105B8
:102EF00000EB4C080BEB4C0B00EB4106FFB100EB79
:102F000047010222002005F0B3FB1AE002223146FD
:102F1000104605F0ADFB02225946042005F0A8FB3F
:102F200012E002222946104605F0A2FB21E002220F
:102F30004946062005F09CFB29B0BDE8F08F249897
:102F400030B120780028E1D020780128EFD1E8E7DF
:102F50002078BAF1000F12D020B90222594604207D
:102F600005F086FB20780128E1D10121022005F03F
:102F7000A5FB02224146042005F07AFBD7E718B9E9
:102F80000121042005F09AFB20780128CFD10121EE
:102F9000022005F093FBCAE70A0F0006060D040F96
:102FA0000C060C0B0E0B000E0E0F0C0F0F0506007F
:102FB0000B060F0206030D030D0707000F070F0393
:102FC000050F0006060B020F0306030D070D000791
:102FD000070F030F06050606000004070206070098
:102FE0000602040207040207060604000607060696
:102FF000070400000B0F0106070D050F0D060D0B52
:103000000F0B010E0F0F0D0F220100202DE9F04FC5
:10301000EBA1A7B0D1E90001CDE924012022EAA16A
:103020006846FEF70DF81422EFA110A8FEF708F885
:103030001422F2A115A8FEF703F81422F4A11AA88D
:10304000FDF7FEFF2022F7A108A8FDF7F9FF1422E3
:10305000FCA11FA8FDF7F4FFFF4D4FF4804421466B
:103060002846FEF767FFFD4F012680B9B87B20B9DF
:103070007878401C787002F0C9F921462846FEF79E
:1030800059FF0028F9D07878062800D97E704FF4CF
:10309000805421462846FEF74DFF80B9B87B20B901
:1030A0007878401E787002F0B1F921462846FEF784
:1030B00041FF0028F9D0787808B90620787079782F
:1030C000E74CDFF8A083DFF8A093E8484FF0030A4D
:1030D00007297DD2DFE801F08F0492FCFBFAF900AA
:1030E00080218346FEF726FF80B9FEF79DFCE0486D
:1030F000E14A0088126800EB80004004010CDD48C2
:10310000007800EB80004000FEF780FF80215846E9
:10311000FEF710FF01286ED14FF4005B5946284698
:10312000FEF708FF80B9B87B70B902F06FF9B87884
:10313000401CB87059462846FEF7FCFE0028F9D01E
:10314000B878032800D9BE704FF40066314628468F
:10315000FEF7F0FE70B9B87B60B902F057F9B878A5
:10316000401EB87031462846FEF7E4FE0028F9D02C
:10317000B87818B1B878012803D012E087F802A017
:1031800028E0FEF751FC2088BD4A00EB8000400497
:10319000010CBA481268007800EB80004000FFF78D
:1031A000F5F8B878022810D1FEF73EFCB8F8000018
:1031B000B54A00EB80004004010CB2481268007868
:1031C00000EB80004000FFF76DFAB878032800E0BC
:1031D00011E010D1FEF728FCB9F80000AC4A00EB72
:1031E00080004004010CA9481268007800EB8000C0
:1031F0004000FFF7E3FB27B0BDE8F08F8021804659
:10320000FEF798FEA34C40F2F51978B9FEF70CFCD6
:1032100020884A4600EB80004004010C9E4800884C
:1032200000EB80004004000C00F050FA8021404682
:10323000FEF780FE0128DED14FF4005841462846B3
:10324000FEF778FE80B9B87B70B902F0DFF8F87845
:10325000401CF87041462846FEF76CFE0028F9D065
:10326000F878032800D9FE704FF4006631462846EE
:10327000FEF760FE70B9B87B60B902F0C7F8F87865
:10328000401EF87031462846FEF754FE0028F9D05B
:10329000F87818B1F878012803D012E087F803A075
:1032A0002AE0FEF7C1FB20884A4600EB800040047C
:1032B000010C7A48008800EB80004004000C00F00C
:1032C0006DFBF878022814D103E0EAE145E13EE124
:1032D00023E0FEF7A9FB20884A4600EB800040046B
:1032E000010C6F48008800EB80004004000C00F0E7
:1032F000D9FCF87803289ED1FEF796FB20884A4631
:1033000000EB80004004010C6648008800EB800060
:103310004004000C00F04AFE6DE780218346FEF772
:1033200009FE614CDFF88481DFF8849198B9FEF7DB
:103330007BFB208800EB80004004020CB8F8000002
:1033400000EB80004004010C99F8000000EB8000C5
:10335000400000F0ABFF80215846FEF7EBFD01284E
:10336000DAD14FF4005B59462846FEF7E3FD80B9F9
:10337000B87B70B902F04AF8F878401CF8705946EA
:103380002846FEF7D7FD0028F9D0F878032800D9A1
:10339000FE704FF4006631462846FEF7CBFD68B953
:1033A000B87B58B902F032F8F878401EF870314610
:1033B0002846FEF7BFFD0028F9D07BE07CE0000046
:1033C0000002000005060000060D06060800040FB6
:1033D00002060F00060A04020F04020F06060C0084
:1033E000060F06060F0400000A0F0006060D040F64
:1033F0000C060C0B0E0B000E0E0F0C0F0F0506002B
:103400000B060F0206030D030D0707000F070F033E
:10341000050F0006060B020F0306030D070D00073C
:10342000070F030F06050606000004070206070043
:103430000602040207040207060604000607060641
:10344000070400000B0F0106070D050F0D060D0BFD
:103450000F0B010E0F0F0D0F000C02401401002086
:103460001E0000202000002022000020001002404A
:103470001400002001000020300000200200002085
:103480003400002003000020380000200400002049
:103490003C0000201800002016000020240000201E
:1034A00026000020280000201C0000201A00002018
:1034B00000000020F87818B1F878012803D016E051
:1034C00087F803A02EE0FEF7AFFA208800EB80001B
:1034D0004004020CB8F8000000EB80004004010C2E
:1034E00099F8000000EB8000400001F04DF8F878FA
:1034F000022813D1FEF798FA208800EB80004004E0
:10350000020CB8F8000000EB80004004010C99F8B0
:10351000000000EB8000400001F0AEF9F8780328CD
:103520007FF4FAAEFEF780FA208800EB80004004BA
:10353000020CB8F8000000EB80004004010C99F880
:10354000000000EB8000400001F01EFB53E6FEF798
:103550006BFA0120FEF7FAFC4DE6FEF765FA04214E
:103560001D2005F0ABF801211C2005F0A7F806226C
:1035700024A9162005F07CF8FA7B0A20B2FBF0F1B2
:1035800000FB112A3A7CB2FBF0F800FB182B7A7C86
:10359000B2FBF0F400FB142901EB41006946014441
:1035A0000322132005F064F80AEB4A0008A901443D
:1035B0000322102005F05CF815A800EB4801022258
:1035C000082005F055F81AA800EB4B0102220E2046
:1035D00005F04EF8B87B30B91FA800EB4401022279
:1035E000042005F045F8B87B0DF14008012809D109
:1035F0000121022005F062F808EB440102220420B8
:1036000005F036F808EB49010222062005F030F8F3
:103610004FF4005949462846FEF78CFC2A4C04F129
:103620002008C8B9B87BB8B901F0F0FEF87B401C9F
:10363000F87349462846FEF77DFC0028F9D0F87B50
:10364000202800D9FE73F87B2118404411F8011C92
:10365000397410F8010C78744FF40066314628462E
:10366000FEF768FC00287FF457AEB87B0028FAD13B
:1036700001F0CCFEF87B401EF87331462846FEF779
:1036800059FC0028F9D0F87B08B92020F873C0B2A3
:103690002118404411F8011C397410F8010C787499
:1036A000A9E5FEF7C1F9B9F8000000EB800042007F
:1036B000B8F8000000EB80004100208800EB80009B
:1036C0004000FFF71DFB96E5CCCD00202DE9F04F23
:1036D000BFB004460D46164614227AA11DA8FDF778
:1036E000AFFC14227CA108A8FDF7AAFC20227FA130
:1036F0006846FDF7A5FC142284A127A8FDF7A0FCCD
:10370000202287A10DA8FDF79BFC14228CA122A8E2
:10371000FDF796FC20228FA131A8FDF791FC95A022
:10372000142200683C9086A12CA8FDF789FC202279
:1037300091A115A8FDF784FC01220DF1F1011C20D7
:1037400004F096FF4FF47A7AB4FBFAF10AFB1143C6
:103750004FF0640BB3FBFBF202F0FF080AFB1142CF
:10376000C8B25946B2FBF1F2D2B202EB4207B4FB47
:10377000F1F20A210BFB1242B2FBF1F2B4FBF1F3BE
:1037800001FB13410DF1340C01EB410101EB0C097C
:10379000EE4602EB420215A95418774438B100EB0B
:1037A000400171440322192004F062FF02E0B8F1E5
:1037B000000F04D003223946162004F059FF0322DB
:1037C0002146132004F054FF03224946102004F040
:1037D0004FFFB5FBFAF10AFB1153D946B3FBF9F0E1
:1037E0004FF00A0A5446B5FBF4F30AFB135327AF14
:1037F00007EB43086423B5FBF3F703FB1757B7FB4D
:10380000FAF400F0FF0C08A800EB4407CAB24FF42A
:103810007A7404FB1151B1FBF3F1C9B200EB41041E
:1038200032B100EB420102220C2004F021FF02E041
:10383000BCF1000F04D0022221460A2004F018FF38
:1038400002223946082004F013FF022241460E20CE
:1038500004F00EFFB6FBF9F1CCB209FB1161504642
:10386000B1FBF0F5B6FBFAF14B4F0AFB1166387865
:103870000DF174080DF1880958B9022208EB4401D2
:10388000104604F0F5FE09EB45010222042004F085
:10389000EFFE387801280BD1022209EB44011046D3
:1038A00004F0E6FE08EB45010222042004F0E0FEED
:1038B0002CA800EB46010222062004F0D9FE3FB0FE
:1038C000BDE8F08F0A0F0006060D040F0C060C0B66
:1038D0000E0B000E0E0F0C0F0F0506000B060F024D
:1038E00006030D030D0707000F070F030605060665
:1038F000000004070206070006020402070402078C
:103900000606040006070606070400000D0F080659
:103910000E0B0A0F0B060B0D0F0D08070F0F0B0FE9
:103920000605070600010407030607010602050253
:10393000070502070706040106070706070500003A
:103940000B0F0106070D050F0D060D0B0F0B010EDA
:103950000F0F0D0F0E0D060E08000C0F020E0F00BC
:103960000E0A040A0F040A0F060E0C000E0F060EB4
:103970000F04000009050300060D06060800040FE9
:1039800002060F00060A04020F04020F06060C00CE
:10399000060F06060F040000220100202DE9F04F5B
:1039A000C7B004460D461646142280A11DA8FDF797
:1039B00047FB142282A108A8FDF742FB202285A123
:1039C0006846FDF73DFB14228AA127A8FDF738FBC6
:1039D00020228DA10DA8FDF733FB142292A122A86D
:1039E000FDF72EFB202295A131A8FDF729FB9BA016
:1039F0001422006841908CA12CA8FDF721FB202205
:103A000097A139A8FDF71CFB20229DA115A8FDF761
:103A100017FB01220DF205111C2004F029FE4FF4C2
:103A20007A7AB4FBFAF10AFB11434FF0640BB3FB53
:103A3000FBF202F0FF080AFB1142C8B25946B2FB82
:103A4000F1F2D2B202EB4207B4FBF1F20A210BFB16
:103A50001242B2FBF1F2B4FBF1F301FB13410DF1A1
:103A6000340C01EB410101EB0C09EE4602EB420282
:103A700015A902EB0E040F4438B100EB400171446C
:103A80000322192004F0F4FD02E0B8F1000F05D084
:103A900003223946162004F0EBFD03E0082117202D
:103AA00004F00CFE03222146132004F0E1FD032262
:103AB0004946102004F0DCFDB5FBFAF10AFB115376
:103AC000D946B3FBF9F04FF00A0A5446B5FBF4F3BC
:103AD0000AFB135327AF07EB43086423B5FBF3F747
:103AE00003FB1757B7FBFAF400F0FF0C08A800EB34
:103AF0004407CAB24FF47A7404FB1151B1FBF3F1DD
:103B0000C9B200EB410432B100EB420102220C20A9
:103B100004F0AEFD02E0BCF1000F04D00222214609
:103B20000A2004F0A5FD02223946082004F0A0FD79
:103B3000022241460E2004F09BFDB6FBF9F1CCB207
:103B400009FB11615046B1FBF0F5B6FBFAF1544F99
:103B50000AFB116638780DF174080DF1880958B91F
:103B6000022208EB4401104604F082FD09EB4501F6
:103B70000222042004F07CFD387801280BD10222B7
:103B800009EB4401104604F073FD08EB45010222E5
:103B9000042004F06DFD2CA800EB46010222062053
:103BA00004F066FD47B0BDE8F08F00000A0F000684
:103BB000060D040F0C060C0B0E0B000E0E0F0C0F57
:103BC0000F0506000B060F0206030D030D07070085
:103BD0000F070F030605060600000407020607008C
:103BE000060204020704020706060400060706068A
:103BF000070400000D0F08060E0B0A0F0B060B0D35
:103C00000F0D08070F0F0B0F06050706000104072D
:103C1000030607010602050207050207070604015D
:103C200006070706070500000B0F0106070D050F25
:103C30000D060D0B0F0B010E0F0F0D0F0E0D060EC7
:103C400008000C0F020E0F000E0A040A0F040A0FE0
:103C5000060E0C000E0F060E0F04000009050300EF
:103C6000060D06060800040F02060F00060A0402ED
:103C70000F04020F06060C00060F06060F040000D4
:103C8000060D07060801040F03060F01060A0502C8
:103C90000F05020F07060C01060F07060F050000AF
:103CA000220100202DE9F04FC7B004460D4616460C
:103CB000142280A11DA8FDF7C3F9142282A108A82F
:103CC000FDF7BEF9202285A16846FDF7B9F9142257
:103CD0008AA127A8FDF7B4F920228DA10DA8FDF730
:103CE000AFF9142292A122A8FDF7AAF9202295A1EA
:103CF00031A8FDF7A5F99BA01422006841908CA182
:103D00002CA8FDF79DF9202297A139A8FDF798F975
:103D100020229DA115A8FDF793F901220DF20511AE
:103D20001C2004F0A5FC4FF47A7AB4FBFAF10AFBEC
:103D300011434FF0640BB3FBFBF202F0FF080AFBE8
:103D40001142C8B25946B2FBF1F2D2B202EB4207BD
:103D5000B4FBF1F20A210BFB1242B2FBF1F2B4FB0D
:103D6000F1F301FB13410DF1340C01EB410101EBC7
:103D70000C09EE4602EB420215A902EB0E040F44B9
:103D800038B100EB400171440322192004F070FCAB
:103D900002E0B8F1000F05D003223946162004F0E6
:103DA00067FC03E00821162004F088FC032221466A
:103DB000132004F05DFC03224946102004F058FC57
:103DC000B5FBFAF10AFB1153D946B3FBF9F04FF0FA
:103DD0000A0A5446B5FBF4F30AFB135327AF07EB6B
:103DE00043086423B5FBF3F703FB1757B7FBFAF45B
:103DF00000F0FF0C08A800EB4407CAB24FF47A7435
:103E000004FB1151B1FBF3F1C9B200EB410432B133
:103E100000EB420102220C2004F02AFC02E0BCF17B
:103E2000000F04D0022221460A2004F021FC0222C5
:103E30003946082004F01CFC022241460E2004F002
:103E400017FCB6FBF9F1CCB209FB11615046B1FB8E
:103E5000F0F5B6FBFAF1544F0AFB116638780DF114
:103E600074080DF1880958B9022208EB4401104684
:103E700004F0FEFB09EB45010222042004F0F8FBEC
:103E8000387801280BD1022209EB4401104604F0D6
:103E9000EFFB08EB45010222042004F0E9FB2CA80B
:103EA00000EB46010222062004F0E2FB47B0BDE829
:103EB000F08F00000A0F0006060D040F0C060C0B15
:103EC0000E0B000E0E0F0C0F0F0506000B060F0257
:103ED00006030D030D0707000F070F03060506066F
:103EE0000000040702060700060204020704020796
:103EF0000606040006070606070400000D0F080664
:103F00000E0B0A0F0B060B0D0F0D08070F0F0B0FF3
:103F1000060507060001040703060701060205025D
:103F20000705020707060401060707060705000044
:103F30000B0F0106070D050F0D060D0B0F0B010EE4
:103F40000F0F0D0F0E0D060E08000C0F020E0F00C6
:103F50000E0A040A0F040A0F060E0C000E0F060EBE
:103F60000F04000009050300060D06060800040FF3
:103F700002060F00060A04020F04020F06060C00D8
:103F8000060F06060F0400000E05070E00010C07C1
:103F9000030E07010E02050A07050A07070E0401B2
:103FA0000E07070E07050000220100202DE9F04F43
:103FB000C7B004460D46164614227EA115A8FDF78B
:103FC0003FF8142280A16846FDF73AF8202283A129
:103FD0001FA8FDF735F8142288A127A8FDF730F8AF
:103FE00020228BA105A8FDF72BF8142290A11AA876
:103FF000FDF726F8202293A131A8FDF721F899A01A
:104000001422006841908AA12CA8FDF719F82022FB
:1040100095A139A8FDF714F820229BA10DA8FDF762
:104020000FF801220DF205111C2004F021FB4FF4C2
:104030007A7BB4FBFBF10BFB11436422B3FBF2F27E
:1040400002F0FF0A0BFB1142C8B26421B2FBF1F28D
:10405000D2B202EB4207B4FBF1F201FB12420A2199
:10406000B2FBF1F2B4FBF1F301FB13410DF1140CBF
:104070000DF1340802EB420201EB410101EB0C09A6
:10408000904407EB0C0440B100EB40001FA9014431
:104090000322192004F0ECFA02E0BAF1000F04D078
:1040A00003222146162004F0E3FA0322414613209E
:1040B00004F0DEFA03224946102004F0D9FAB5FBD9
:1040C000FBF10BFB11534FF06409B3FBF9F04FF018
:1040D0000A0A5446B5FBF4F30AFB135327AF07EB68
:1040E00043084B46B5FBF3F709FB1757B7FBFAF448
:1040F00000F0FF0C684600EB4407CAB24FF47A7434
:1041000004FB1151B1FBF9F1C9B200EB410432B12A
:1041100000EB420102220C2004F0AAFA02E0BCF1FA
:10412000000F04D0022221460A2004F0A1FA022244
:104130003946082004F09CFA022241460E2004F081
:1041400097FAB6FBF9F1CCB209FB11615046B1FB0D
:10415000F0F5B6FBFAF1544F0AFB116638780DF111
:1041600054090DF1680858B9022209EB44011046C0
:1041700004F07EFA08EB45010222042004F078FAEC
:10418000387801280BD1022208EB4401104604F0D4
:104190006FFA09EB45010222042004F069FA2CA809
:1041A00000EB46010222062004F062FA47B0BDE8A7
:1041B000F08F00000A0F0006060D040F0C060C0B12
:1041C0000E0B000E0E0F0C0F0F0506000B060F0254
:1041D00006030D030D0707000F070F03060506066C
:1041E0000000040702060700060204020704020793
:1041F0000606040006070606070400000D0F080661
:104200000E0B0A0F0B060B0D0F0D08070F0F0B0FF0
:10421000060507060001040703060701060205025A
:104220000705020707060401060707060705000041
:104230000B0F0106070D050F0D060D0B0F0B010EE1
:104240000F0F0D0F0E0D060E08000C0F020E0F00C3
:104250000E0A040A0F040A0F060E0C000E0F060EBB
:104260000F04000009050300060D06060800040FF0
:1042700002060F00060A04020F04020F06060C00D5
:10428000060F06060F04000006050E0600080407C8
:104290000A06070806020C02070C02070E060408AD
:1042A00006070E06070C0000220100202DE9F04F42
:1042B000BFB004460D46164614227DA11DA8FCF78A
:1042C000BFFE14227FA108A8FCF7BAFE202282A11B
:1042D0006846FCF7B5FE142287A127A8FCF7B0FEBC
:1042E00020228AA10DA8FCF7ABFE14228FA12CA8D6
:1042F000FCF7A6FE14228DA122A8FCF7A1FE202225
:104300008FA131A8FCF79CFE95A0202200683D906B
:1043100094A115A8FCF794FE01220DF1F6011C20D2
:1043200004F0A6F90121042004F0C8F94FF47A72D0
:10433000B4FBF2F102FB11436422B3FBF2F202F090
:10434000FF094FF47A7202FB1142C8B26421B2FB3A
:10435000F1F2D2B202EB4207B4FBF1F201FB1242DE
:104360000A21B2FBF1F2B4FBF1F301FB1341EB467E
:104370000DF1340C0DF1540802EB420201EB410146
:1043800001EB0C0A904407EB0B0438B100EB400141
:1043900059440322192004F06BF902E0B9F1000F2F
:1043A00004D003222146162004F062F9032241467C
:1043B000132004F05DF903225146102004F058F94F
:1043C0004FF064084FF00A01B5FBF8F2B5FBF1F4C9
:1043D00012F0FF0001FB145408FB1252B2FBF1F182
:1043E00027AB0DF1200C03EB44070CEB410405D087
:1043F0000CEB400102220A2004F03AF90222214685
:10440000082004F035F9022239460E2004F030F974
:104410004FF00A00B6FBF0F3B6FBF8F100FB1363B4
:104420002CAA02EB430811F0FF044FF0640202FBD8
:104430001161B1FBF0F0534F0DF1740C0DF18809CF
:104440000CEB400609EB400538781DD050B902222C
:104450000CEB4401104604F00BF90222294604201B
:1044600004F006F93878012806D1022209EB44014C
:10447000104604F0FDF814E002224146062004F044
:10448000F7F83FB0BDE8F08F20B90222294604209A
:1044900004F0EEF838780128EED10121022004F072
:1044A0000DF902223146042004F0E2F8E4E70000AE
:1044B0000A0F0006060D040F0C060C0B0E0B000E67
:1044C0000E0F0C0F0F0506000B060F0206030D035F
:1044D0000D0707000F070F03060506060000040777
:1044E000020607000602040207040207060604008B
:1044F00006070606070400000D0F08060E0B0A0F3C
:104500000B060B0D0F0D08070F0F0B0F0605070607
:10451000000104070306070106020502070502075A
:104520000706040106070706070500000B0F010632
:10453000070D050F0D060D0B0F0B010E0F0F0D0FC5
:104540000E0D060E08000C0F020E0F000E0A040AD4
:104550000F040A0F060E0C000E0F060E0F040000CB
:1045600009050300060D06060800040F02060F00E9
:10457000060A04020F04020F06060C00060F0606C8
:104580000F040000220100202DE9F04FC7B00446BF
:104590000D461646142282A11DA8FCF751FD1422D7
:1045A00084A108A8FCF74CFD202287A16846FCF7EF
:1045B00047FD14228CA127A8FCF742FD20228FA1E1
:1045C0000DA8FCF73DFD142294A12CA8FCF738FDA2
:1045D000142292A122A8FCF733FD202294A131A835
:1045E000FCF72EFD9AA020220068459099A139A8D9
:1045F000FCF726FD202297A115A8FCF721FD01223A
:104600000DF58B711C2004F033F80121042004F017
:1046100055F84FF47A72B4FBF2F102FB11436422B5
:10462000B3FBF2F202F0FF094FF47A7202FB11427F
:10463000C8B26421B2FBF1F2D2B202EB4207B4FB82
:10464000F1F201FB12420A21B2FBF1F2B4FBF1F3E9
:1046500001FB13410DF1540EEB460DF1340C02EB4E
:10466000420201EB410101EB0C0A02EB0B0807EBE4
:104670000E0438B100EB400159440322192003F025
:10468000F7FF02E0B9F1000F05D003222146162002
:1046900003F0EEFF03E00821172004F00FF80322D7
:1046A0004146132003F0E4FF03225146102003F09B
:1046B000DFFF4FF064084FF00A01B5FBF8F2B5FBDD
:1046C000F1F412F0FF0001FB145408FB1252B2FB8C
:1046D000F1F127AB0DF1200C03EB44070CEB410487
:1046E00005D00CEB400102220A2003F0C1FF022298
:1046F0002146082003F0BCFF022239460E2003F0B9
:10470000B7FF4FF00A00B6FBF0F3B6FBF8F100FB81
:1047100013632CAA02EB430811F0FF044FF064026C
:1047200002FB1161B1FBF0F0524F0DF1740C0DF171
:1047300088090CEB400609EB400538781DD050B9CC
:1047400002220CEB4401104603F092FF022229469C
:10475000042003F08DFF3878012806D1022209EBEE
:104760004401104603F084FF14E002224146062073
:1047700003F07EFF47B0BDE8F08F20B90222294642
:10478000042003F075FF38780128EED101210220C2
:1047900003F094FF02223146042003F069FFE4E7AE
:1047A0000A0F0006060D040F0C060C0B0E0B000E74
:1047B0000E0F0C0F0F0506000B060F0206030D036C
:1047C0000D0707000F070F03060506060000040784
:1047D0000206070006020402070402070606040098
:1047E00006070606070400000D0F08060E0B0A0F49
:1047F0000B060B0D0F0D08070F0F0B0F0605070615
:104800000001040703060701060205020705020767
:104810000706040106070706070500000B0F01063F
:10482000070D050F0D060D0B0F0B010E0F0F0D0FD2
:104830000E0D060E08000C0F020E0F000E0A040AE1
:104840000F040A0F060E0C000E0F060E0F040000D8
:1048500009050300060D06060800040F02060F00F6
:10486000060A04020F04020F06060C00060F0606D5
:104870000F040000220100202DE9F04FC7B00446CC
:104880000D461646142282A11DA8FCF7D9FB14225E
:1048900084A108A8FCF7D4FB202287A16846FCF776
:1048A000CFFB14228CA127A8FCF7CAFB20228FA1E2
:1048B0000DA8FCF7C5FB142294A12CA8FCF7C0FBA3
:1048C000142292A122A8FCF7BBFB202294A131A8BC
:1048D000FCF7B6FB9AA020220068459099A139A860
:1048E000FCF7AEFB20229FA115A8FCF7A9FB012233
:1048F0000DF58B711C2003F0BBFE0121042003F099
:10490000DDFE4FF47A72B4FBF2F102FB1143642234
:10491000B3FBF2F202F0FF094FF47A7202FB11428C
:10492000C8B26421B2FBF1F2D2B202EB4207B4FB8F
:10493000F1F201FB12420A21B2FBF1F2B4FBF1F3F6
:1049400001FB13410DF1540EEB460DF1340C02EB5B
:10495000420201EB410101EB0C0A02EB0B0807EBF1
:104960000E0438B100EB400159440322192003F032
:104970007FFE02E0B9F1000F05D003222146162088
:1049800003F076FE03E00821162003F097FE0322D1
:104990004146132003F06CFE03225146102003F021
:1049A00067FE4FF064084FF00A01B5FBF8F2B5FB63
:1049B000F1F412F0FF0001FB145408FB1252B2FB99
:1049C000F1F127AB0DF1200C03EB44070CEB410494
:1049D00005D00CEB400102220A2003F049FE02221E
:1049E0002146082003F044FE022239460E2003F03F
:1049F0003FFE4FF00A00B6FBF0F3B6FBF8F100FB08
:104A000013632CAA02EB430811F0FF044FF0640279
:104A100002FB1161B1FBF0F05A4F0DF1740C0DF176
:104A200088090CEB400609EB400538781DD050B9D9
:104A300002220CEB4401104603F01AFE0222294622
:104A4000042003F015FE3878012806D1022209EB74
:104A50004401104603F00CFE14E0022241460620F9
:104A600003F006FE47B0BDE8F08F20B902222946C8
:104A7000042003F0FDFD38780128EED10121022049
:104A800003F01CFE02223146042003F0F1FDE4E7AE
:104A90000A0F0006060D040F0C060C0B0E0B000E81
:104AA0000E0F0C0F0F0506000B060F0206030D0379
:104AB0000D0707000F070F03060506060000040791
:104AC00002060700060204020704020706060400A5
:104AD00006070606070400000D0F08060E0B0A0F56
:104AE0000B060B0D0F0D08070F0F0B0F0605070622
:104AF0000001040703060701060205020705020775
:104B00000706040106070706070500000B0F01064C
:104B1000070D050F0D060D0B0F0B010E0F0F0D0FDF
:104B20000E0D060E08000C0F020E0F000E0A040AEE
:104B30000F040A0F060E0C000E0F060E0F040000E5
:104B400009050300060D06060800040F02060F0003
:104B5000060A04020F04020F06060C00060F0606E2
:104B60000F0400000E05060E00000C07020E0700E1
:104B70000E02040A07040A07060E04000E07060EBA
:104B800007040000220100202DE9F04FC7B00446C1
:104B90000D46164614227FA11DA8FCF751FA1422D7
:104BA00081A108A8FCF74CFA202284A16846FCF7F2
:104BB00047FA142289A127A8FCF742FA20228CA1E7
:104BC0000DA8FCF73DFA142291A12CA8FCF738FAA5
:104BD00014228FA122A8FCF733FA202291A131A838
:104BE000FCF72EFA97A020220068459096A139A8DC
:104BF000FCF726FA20229CA115A8FCF721FA012235
:104C00000DF58B711C2003F033FD0121042003F00E
:104C100055FD4FF47A72B4FBF2F102FB11436422AA
:104C2000B3FBF2F202F0FF094FF47A7202FB114279
:104C3000C8B26421B2FBF1F2D2B202EB4207B4FB7C
:104C4000F1F201FB12420A21B2FBF1F2B4FBF1F3E3
:104C500001FB1341EB460DF1340C0DF1540802EB4E
:104C6000420201EB410101EB0C0A904407EB0B04FB
:104C700038B100EB400159440322192003F0F8FC3D
:104C800002E0B9F1000F04D003222146162003F000
:104C9000EFFC03224146132003F0EAFC03225146B5
:104CA000102003F0E5FC4FF064084FF00A01B5FB5B
:104CB000F8F2B5FBF1F412F0FF0001FB145408FB0D
:104CC0001252B2FBF1F127AB0DF1200C03EB4407BC
:104CD0000CEB410405D00CEB400102220A2003F04A
:104CE000C7FC02222146082003F0C2FC02223946FA
:104CF0000E2003F0BDFC4FF00A00B6FBF0F3B6FB4C
:104D0000F8F100FB13632CAA02EB430811F0FF0437
:104D10004FF0640202FB1161B1FBF0F05A4F0DF14C
:104D2000740C0DF188090CEB400609EB400538784E
:104D30001DD050B902220CEB4401104603F098FC40
:104D400002222946042003F093FC3878012806D17A
:104D5000022209EB4401104603F08AFC14E002220F
:104D60004146062003F084FC47B0BDE8F08F20B92F
:104D700002222946042003F07BFC38780128EED17A
:104D80000121022003F09AFC02223146042003F0A4
:104D90006FFCE4E70A0F0006060D040F0C060C0B6F
:104DA0000E0B000E0E0F0C0F0F0506000B060F0268
:104DB00006030D030D0707000F070F030605060680
:104DC00000000407020607000602040207040207A7
:104DD0000606040006070606070400000D0F080675
:104DE0000E0B0A0F0B060B0D0F0D08070F0F0B0F05
:104DF000060507060001040703060701060205026F
:104E00000705020707060401060707060705000055
:104E10000B0F0106070D050F0D060D0B0F0B010EF5
:104E20000F0F0D0F0E0D060E08000C0F020E0F00D7
:104E30000E0A040A0F040A0F060E0C000E0F060ECF
:104E40000F04000009050300060D06060800040F04
:104E500002060F00060A04020F04020F06060C00E9
:104E6000060F06060F04000006050E0600080407DC
:104E70000A06070806020C02070C02070E060408C1
:104E800006070E06070C0000220100201CB50121B8
:104E9000022002F07BFFE020009001208DF804004A
:104EA00000208DF8060002200F4C8DF805006946A1
:104EB0002046FCF7F1FF20212046FDF744F8402171
:104EC0002046FDF740F880212046FDF73CF80220FF
:104ED00003F0E2F8292003F0DFF8012003F0DCF80A
:104EE000032003F0D9F81CBD00040240FEE70000D7
:104EF0007CB5134E4FF4005529463046FDF721F896
:104F000001208DF8040002206C008DF8050000944B
:104F100069463046FCF7C0FF21463046FDF711F8E0
:104F2000022007F0B7FC29463046FDF70CF80220B6
:104F300007F0B0FC29463046FDF703F87CBD0000C1
:104F4000000402401CB50121022002F01FFF4FF4B3
:104F5000E040009001208DF8040002200A4C8DF8FA
:104F6000050069462046FCF797FFA1142046FCF790
:104F7000E8FF4FF400512046FCF7E5FF4FF4804175
:104F80002046FCF7E0FF1CBD000402407CB5134E38
:104F90004FF4005529463046FCF7D3FF01208DF829
:104FA000040002206C008DF805000094694630462C
:104FB000FCF772FF21463046FCF7C5FF022007F0E0
:104FC00069FC29463046FCF7BEFF022007F062FC70
:104FD00029463046FCF7B5FF7CBD000000040240C6
:104FE0002DE9FC4700241B4E80464FF480478DF886
:104FF000044000978DF8074069463046FCF74CFFA7
:105000000025B9467F1039463046FCF79AFF02204A
:1050100007F040FC39463046FCF795FF6006040E69
:1050200049463046FCF786FF08B1641CE4B2012013
:1050300007F030FC6D1CEDB2082DE4D3B8F1000F81
:1050400004D0FFF755FF2046BDE8FC87FFF79EFF21
:10505000F9E70000000402402DE9FC470546012065
:105060008DF8040002201A4E4FF480478DF8050099
:10507000009769463046FCF70FFF4FF40058414651
:105080003046FCF75EFFB9460024474628064946ED
:10509000304602D4FCF755FF01E0FCF754FF6806E8
:1050A000050E022007F0F6FB39463046FCF74BFFB1
:1050B000022007F0EFFB39463046FCF742FF0220A2
:1050C00007F0E8FB641CE4B2082CDFD3BDE8FC87E2
:1050D000000402407CB501208DF804000220114D2F
:1050E0004FF480448DF80500009469462846FCF78B
:1050F000D3FE21462846FCF726FF66103146284697
:10510000FCF721FF032007F0C5FB21462846FCF7EA
:1051100018FF032007F0BEFB31462846FCF711FFBD
:105120007CBD0000000402407CB501208DF8040025
:105130000220114D4FF480448DF80500009469461B
:105140002846FCF7A9FE661031462846FCF7F9FE12
:1051500021462846FCF7F5FE032007F09BFB31466D
:105160002846FCF7F0FE21462846FCF7ECFE03201B
:1051700007F090FB7CBD0000000402402DE9FC41DB
:105180000024184E4FF480458DF8044000958DF8AA
:10519000074069463046FCF77FFE29463046FCF75B
:1051A000D2FE012007F076FB6F1039463046FCF73F
:1051B000CAFE012007F06EFB08E0641CE4B2FA2C82
:1051C00004D9FFF7B1FF0120BDE8FC812946304634
:1051D000FCF7B0FE0028F0D139463046FCF7B1FEAE
:1051E0000020F1E70004024002494AF6AA200860C4
:1051F0007047000000300040054A45F255531360E7
:1052000050609160580010604CF6CC4010607047C0
:10521000003000402DE9F0479CB001215E4802F0CB
:10522000B5FD01214FF4E06002F0D4FD4FF0806045
:1052300000905A4801900125594802A9002431C123
:1052400006A8EE026F034FF480784FF400390594FE
:10525000A0E8D003CDE90B45DFF848A10D946946DD
:1052600050460E94FCF7FAFB01215046FCF7ECFB8C
:105270004D4802A9CDE900404948DFF828A1801C2B
:1052800031C106A80594A0E8D003CDE90B45AAF1E9
:10529000180A0D94694650460E94FCF7DFFB012175
:1052A0005046FCF7D1FB68060090404801903C480E
:1052B00002A9001D31C106A80594A0E8D003394E0B
:1052C000CDE90B4518360D94694630460E94FCF72F
:1052D000C5FB01213046FCF7B7FB3F2003261590A4
:1052E0008DF858608DF85B4015A93148FCF7D4FD66
:1052F000922015908DF858608DF85B4015A92D48C7
:10530000FCF7CAFD17941894199417A81A94FBF780
:10531000E9FF0F948DF84040119413941F4C8DF8C1
:1053200041504C3C8DF850500FA92046FCF706F830
:105330001E4D0FA94C3D2846FCF700F81A4E0FA948
:105340004C3E3046FBF7FAFF01212046FBF7ECFF0D
:1053500001212846FBF7E8FF01213046FBF7E4FF77
:1053600001212046FBF7D6FF01212846FBF7D2FF9B
:1053700001213046FBF7CEFF01212046FBF7A8FFB5
:1053800001212846FBF7A4FF01213046FBF7A0FFCF
:105390001CB0BDE8F0870000050040004C22014031
:1053A0000E000020286402404C2001404C210140A6
:1053B00000080240000002401CB50121082002F054
:1053C000E5FC4FF4FE40002400908DF8044069464F
:1053D0000848FCF761FD0121102002F0D7FC4FF4D2
:1053E000607000908DF8044069460348FCF754FD56
:1053F0001CBD0000000C0240001002404FF40041B0
:105400000148FCF79EBD0000000C024010B54FF4AF
:1054100000410348FCF797FD02490620C87210BD01
:10542000000C0240000000202DE9F0470C46F9A1D5
:10543000904699468CB091E82C00C968DDF850A0E0
:10544000CDE90251F7A1CDE9002391E82C00C9680C
:10545000CDE90423CDE90651F6A104AE91E82C0074
:10546000C96808AFCDE90A51611E6D46CDE9082330
:1054700040B101287DD10F297CD8CCB2B8F1000F02
:1054800079D0D4E00F2974D8CCB2B8F1000F11D183
:10549000285D012140F4E070FCF706FA385D012137
:1054A00040F4E070FCF700FA305D012140F4E07058
:1054B000FCF7FAF9B9F1000F11D1285D022140F48F
:1054C000E070FCF7F1F9385D022140F4E070FCF780
:1054D000EBF9305D022140F4E070FCF7E5F9BAF138
:1054E000000F11D1285D032140F4E070FCF7DCF9D6
:1054F000385D032140F4E070FCF7D6F9305D0321FC
:1055000040F4E070FCF7D0F9B8F1010F11D1305D33
:10551000012140F4E070FCF7C7F9385D012140F447
:10552000E070FCF7C1F9285D012140F4E070FCF760
:10553000BBF9B9F1010F11D1305D022140F4E070E7
:10554000FCF7B2F9385D022140F4E070FCF7ACF9E9
:10555000285D022140F4E070FCF7A6F9BAF1010FD2
:1055600015D1305D032140F4E070FCF79DF9385D02
:1055700002E0B7E0C6E048E040F4E0700321FCF749
:1055800093F9285D032140F4E070FCF78DF9B8F140
:10559000020F11D1285D012140F4E070FCF784F97D
:1055A000305D012140F4E070FCF77EF9385D0121A7
:1055B00040F4E070FCF778F9B9F1020F11D1285DE1
:1055C000022140F4E070FCF76FF9305D022140F4F5
:1055D000E070FCF769F9385D022140F4E070FCF7F7
:1055E00063F9BAF1020F7DD1285D032140F4E07028
:1055F000FCF75AF9305D032140F4E070FCF754F9F0
:10560000385D032140F4E070FCE0285D012140F4A6
:10561000E070FCF749F9385D012140F4E070FCF7D7
:1056200043F9305D012140F4E070FCF73DF9B9F138
:10563000000F11D1285D022140F4E070FCF734F92D
:10564000385D022140F4E070FCF72EF9305D022154
:1056500040F4E070FCF728F9B8F1010F11D1305D8A
:10566000012140F4E070FCF71FF9385D012140F49E
:10567000E070FCF719F9285D012140F4E070FCF7B7
:1056800013F9B9F1010F11D1305D022140F4E0703E
:10569000FCF70AF9385D022140F4E070FCF704F9E8
:1056A000285D022140F4E070FCF7FEF8B8F1020F2B
:1056B00011D1285D012140F4E070FCF7F5F8305D70
:1056C000012140F4E070FCF7EFF8385D012140F46F
:1056D000E070FCF7E9F8B9F1020F13D1285D40F44E
:1056E000E07000E08FE00221FCF7DEF8305D02217F
:1056F00040F4E070FCF7D8F8385D022140F4E07027
:10570000FCF7D2F8113C0F2C7DD8E4B2B8F1000FB1
:1057100011D1285D042140F4E070FCF7C5F8385D34
:10572000042140F4E070FCF7BFF8305D042140F440
:10573000E070FCF7B9F8B9F1000F11D1285D05212F
:1057400040F4E070FCF7B0F8385D052140F4E070FB
:10575000FCF7AAF8305D052140F4E070FCF7A4F8EE
:10576000B8F1010F11D1305D042140F4E070FCF775
:105770009BF8385D042140F4E070FCF795F8285D53
:10578000042140F4E070FCF78FF8B9F1010F11D15A
:10579000305D052140F4E070FCF786F8385D0521A6
:1057A00040F4E070FCF780F8285D052140F4E070DB
:1057B000FCF77AF8B8F1020F11D1285D042140F40A
:1057C000E070FCF771F8305D042140F4E070FCF704
:1057D0006BF8385D042140F4E070FCF765F8B9F12E
:1057E000020F13D1285D052140F4E070FCF75CF84E
:1057F000305D052140F4E070FCF756F8385D052176
:1058000040F4E07000E001E0FCF74EF80CB0BDE8B9
:10581000F0870000383B3033282B2023181B10134F
:10582000080B0003393C3134292C2124191C111494
:10583000090C11043A3D32352A2D22251A1D121564
:105840000A0D02052DE9F0470C46F9A1904699464C
:105850008CB091E82C00C968DDF850A0CDE9025168
:10586000F7A1CDE9002391E82C00C968CDE9042314
:10587000CDE90651F6A104AE91E82C00C96808AF45
:10588000CDE90A51611E6D46CDE9082340B10128DA
:105890007DD10F297CD8CCB2B8F1000F79D0D4E0FB
:1058A0000F2974D8CCB2B8F1000F11D1285D0121B5
:1058B00040F4E070FBF7F8FF385D012140F4E07040
:1058C000FBF7F2FF305D012140F4C070FBF7ECFF05
:1058D000B9F1000F11D1285D022140F4E070FBF70F
:1058E000E3FF385D022140F4E070FBF7DDFF305D3F
:1058F000022140F4C070FBF7D7FFBAF1000F11D1BD
:10590000285D032140F4E070FBF7CEFF385D0321F2
:1059100040F4E070FBF7C8FF305D032140F4C07035
:10592000FBF7C2FFB8F1010F11D1305D012140F446
:10593000E070FBF7B9FF385D012140F4E070FBF740
:10594000B3FF285D012140F4C070FBF7ADFFB9F152
:10595000010F11D1305D022140F4E070FBF7A4FF8C
:10596000385D022140F4E070FBF79EFF285D0221C4
:1059700040F4C070FBF798FFBAF1010F15D1305D0C
:10598000032140F4E070FBF78FFF385D02E0B7E0E1
:10599000C6E048E040F4E0700321FBF785FF285D96
:1059A000032140F4C070FBF77FFFB8F1020F11D163
:1059B000285D012140F4E070FBF776FF305D0121A6
:1059C00040F4E070FBF770FF385D012140F4C070D7
:1059D000FBF76AFFB9F1020F11D1285D022140F4F3
:1059E000E070FBF761FF305D022140F4E070FBF7EF
:1059F0005BFF385D022140F4C070FBF755FFBAF140
:105A0000020F7DD1285D032140F4E070FBF74CFFCD
:105A1000305D032140F4E070FBF746FF385D032161
:105A200040F4C070FCE0285D012140F4E070FBF719
:105A30003BFF385D012140F4E070FBF735FF305D3E
:105A4000012140F4C070FBF72FFFB9F1000F11D115
:105A5000285D022140F4E070FBF726FF385D02214B
:105A600040F4E070FBF720FF305D022140F4C0708D
:105A7000FBF71AFFB8F1010F11D1305D012140F49D
:105A8000E070FBF711FF385D012140F4E070FBF797
:105A90000BFF285D012140F4C070FBF705FFB9F151
:105AA000010F11D1305D022140F4E070FBF7FCFEE4
:105AB000385D022140F4E070FBF7F6FE285D02211C
:105AC00040F4C070FBF7F0FEB8F1020F11D1285D71
:105AD000012140F4E070FBF7E7FE305D012140F466
