:020000040800F2
:10000000F0D30020290200082B4A000845450008CB
:10001000294A000865160008157300080000000052
:10002000000000000000000000000000656D0008F6
:10003000F116000800000000AB020008196F00086C
:10004000430200084302000843020008430200087C
:10005000430200084302000843020008430200086C
:10006000430200084302000843020008430200085C
:10007000430200084302000843020008430200084C
:10008000430200084302000843020008430200083C
:10009000430200084302000843020008F516000866
:1000A000430200084302000843020008430200081C
:1000B000996F000843020008430200084302000849
:1000C00043020008430200084302000843020008FC
:1000D0004302000843020008F1700008AD710008F7
:1000E00043020008430200084302000843020008DC
:1000F00043020008430200084302000843020008CC
:1001000043020008430200084302000843020008BB
:1001100043020008430200084302000843020008AB
:10012000430200084302000843020008430200089B
:10013000430200084302000843020008430200088B
:10014000430200084302000843020008430200087B
:10015000430200084302000843020008430200086B
:10016000430200084302000843020008430200085B
:10017000430200084302000843020008430200084B
:10018000430200084302000800F002F800F03CF8C7
:100190000AA090E8000C82448344AAF10107DA45E2
:1001A00001D100F031F8AFF2090EBAE80F0013F0F8
:1001B000010F18BFFB1A43F00103184784330100F5
:1001C000A4330100103A24BF78C878C1FAD8520786
:1001D00024BF30C830C144BF04680C6070470000C1
:1001E0000023002400250026103A28BF78C1FBD840
:1001F000520728BF30C148BF0B6070471FB50CF0D5
:100200008CFD1FBD10B510BD00F054FF1146FFF767
:10021000F5FF0BF0FFFD00F072FF03B4FFF7F2FFF4
:1002200003BC00F073FF00000948804709480047FD
:10023000FEE7FEE7FEE7FEE7FEE7FEE7FEE7FEE796
:10024000FEE7FEE704480549054A064B70470000F3
:100250003D6F000889010008F0CD0020F0D3002098
:10026000F0CF0020F0CF0020EFF3108072B670477F
:1002700080F3108870471D484FF0FF010170002087
:1002800080F309881A48012101701A484FF0805103
:10029000016062B6FEE717484FF080510160704779
:1002A00014484FF080510160704772B6EFF3098037
:1002B00028B1203880E8F00F0F490968086000B5C0
:1002C0000E4880475DF804EB0D480E490A7802702D
:1002D00009480D490A680260106890E8F00F203064
:1002E00080F309884EF0040E62B6704722ED00E0FC
:1002F0008300002004ED00E09C0000207153000802
:100300008000002081000020A400002072B6704709
:1003100062B67047EFF3108072B6704780F31088B2
:100320007047B0FA80F0704790FAA0F0704730BF85
:10033000704720BF70470000DFED2E0AB5EEC00AFF
:1003400060EE200ABDEEE01A11EE100AF1EE10FA8E
:1003500038BF401E00EE100ADFED271AF7EE005AF4
:10036000B8EEC00ADFED274A244930EEC01A21EE6C
:10037000210AFCEEC00A10EE900A00EE900A01EB92
:100380008000B8EE600ADFED1E0AF0EC012A11EEE3
:10039000210AF6EE001AB0EC013AF0EC013A20EE38
:1003A000001A20EE216A40EE615A20EE245A21EE16
:1003B000212A90ED004A00EE602A66EE010A40EE26
:1003C000400A05EE412A70EEA55AF0EE400A41EED1
:1003D000210A46EE410A25EE011A00EE641A22EEC9
:1003E000820A63EEA00A03EE250A44EE010A30EE0B
:1003F000200A704783F9223E0000804390CE000817
:10040000ABAAAA3EABAA2A3E9FED3A0A5FEA920C3B
:1004100053D000BFB0EC011A0B1DF0EC010A21EE25
:10042000011A00EEA01AB5EEC01AF1EE10FAC6BF1E
:10043000F1EEC10AC1ED000A81ED000AF0EC010AFB
:10044000191DB0EC011A60EEA00A41EE010AF5EEAA
:10045000C00AF1EE10FAC6BFF1EEE00AC3ED000AE1
:1004600083ED000AB0EC011A0B1DF0EC010A21EE3D
:10047000011A00EEA01AB5EEC01AF1EE10FAC6BFCE
:10048000F1EEC10AC1ED000A81ED000AB0EC011ADB
:10049000191DF0EC010A21EE011A00EEA01AB5EECA
:1004A000C01AF1EE10FAC6BFF1EEC10AC3ED000AA0
:1004B00083ED000ABCF1010CACD112F0030208BFBD
:1004C000704700BFF0EC010A0B46B0EC011A091DA1
:1004D00060EEA00A41EE010AF5EEC00AF1EE10FA54
:1004E000C6BFF1EEE00AC3ED000A83ED000A521E1A
:1004F000E8D17047000000002DE9F00700EBC109CA
:10050000DDE90778D0F800A0C9F800A007EB0114D6
:10051000D0F804A0251FA9F10406C9F804A003EB34
:10052000C80907F1080C00F1080402EBC8024B1ED1
:1005300031D000BFF2EC011A96ED002A92ED001ABC
:1005400002EBC802B4EC010A121FF4EC012A60EEBF
:10055000210A20EE010A32EE823A02EEA10AD9ED1A
:10056000001A43EE410A09EBC80902EE610A16EDD2
:10057000012A083E42EE210A02EE410AECEC010A91
:10058000ACEC010AB1EE400A85ED000A45ED010A26
:10059000083D5B1ECED190ED000AD0ED010A07EBBD
:1005A000C10130EE600A81ED000A9FED5D0A81ED28
:1005B000010AD0ED000A90ED011A70EE810AC7ED34
:1005C000000A87ED010ABDE8F007704770B400EB40
:1005D000C105DDE903C42D1D002904BF70BC7047AF
:1005E000F2EC011A95ED002A92ED001A02EBC4021A
:1005F000B0EC010A121FF0EC012A60EE210A20EE95
:10060000410A32EE823A02EEA10AD3ED001A43EE1D
:10061000010A03EBC40302EE610A15ED012A083D4D
:10062000491E42EE210A02EE010AECEC010AACEC92
:10063000010AD5D170BC70472DE9F04305464469E5
:10064000807983B00F461646012809D0A3892188F6
:100650003846626800F036F9E87901284ED053E058
:10066000AA88D5E9030307EBC20CD5F80880314608
:100670000CF1040C5AB300BFB0EC011A9CED002A37
:10068000D0ED001A00EBC800B7EC010A001FF7EC30
:10069000012A521E60EE010A20EE610A32EE823A11
:1006A00002EE810A93ED001A43EE210A03EBC80320
:1006B00002EE410A1CED012AACF1080C42EE010ADF
:1006C00002EE210AE1EC010AA1EC010AD4D194ED79
:1006D000040AA38921883046626800F095FAE87917
:1006E00001281CBF03B0BDE8F083E2892188A3681C
:1006F00003B03046BDE8F04300F08CB8E2892188B1
:100700003846A36800F086F8A868CDE90060D5E90E
:100710000323A9883846FFF7EFFE03B0BDE8F08356
:100720000000000070B592B2DDF810C055080260FC
:100730008580184EC66006F50056DBB206610024BF
:10074000837180F807C0802A04BF102282600BD01A
:10075000B2F5007F08BF042212D0B2F5006F14BFBB
:100760004FF0FF3401220BD0002B8C4641614FF03B
:10077000000307D001222946604600F015FC06E080
:100780008260F1E700222946604600F00DFC204619
:1007900070BD00009CD2000870B40025B0EC010AC6
:1007A000A1F1010CF0EC010AB4EEE00AF1EE10FA4E
:1007B0003CBFB0EE600A0125ACF10104A446B4F1DF
:1007C000004F0ED3F0EC010AB4EEE00AF1EE10FA9D
:1007D0003CBFB0EE600AA1EB0C05BCF1010CF1D1FD
:1007E00013E0002CC8BF00260FDD00BFF0EC010AAB
:1007F000B4EEE00AF1EE10FA04D2ACEB0605B0EE6E
:10080000600A4D1B761C641EF0D182ED000A1D604B
:1008100070BC70472DE9F0014E0801244FF0000C28
:1008200004EB51076146A6F102082CE061452AD28B
:1008300000EBCC0500EBC104D5ED000A94ED000AF5
:10084000C4ED000A85ED000AD5ED010A94ED010A18
:10085000C4ED010A85ED010A0CEB0705CC1900EB8C
:10086000C50500EBC404D5ED000A94ED000AC4ED03
:10087000000A85ED000AD5ED010A94ED010AC4EDE8
:10088000010A85ED010A00EBC104B44400EBCC0C75
:1008900094ED020ADCED000A891CC4ED020A8CED1D
:1008A000000A94ED030ADCF80450E5608CED010ABF
:1008B000B3F800C089B203EB42034145B6D9BDE8A5
:1008C000F00170472DE9F04F4FEA910C4FF000080E
:1008D0004746644608EB0C0505EB0C0909EB0C06D2
:1008E00000EBC80A00EBC9099AED000AD9ED000A2D
:1008F00099ED012A00EBC50530EE201A30EE600AB2
:10090000DAED010A00EBC60608F1010870EE821A62
:1009100070EEC20A95ED002AD6ED002A641E32EE72
:10092000222A71EE022A31EE421ACAED002A95ED12
:10093000012AD6ED012A32EE222A71EE822A71EEC8
:10094000C21ACAED012A95ED012AD6ED012A96EDCB
:10095000003A4FEA470A32EE622AD5ED002A02EB4E
:10096000CA0B72EEC32A9BED003ADBED013A21EE91
:10097000034A01EEA34A61EE831A41EE631A85ED44
:10098000004A30EE021A30EE420AC5ED011A02EBBF
:10099000C70570EEE21A95ED002A70EEA20AD5EDB9
:1009A000012A21EE023A0AEB070502EBC5051F44B6
:1009B00001EEA23A61EE821A41EE621A89ED003A26
:1009C000C9ED011AD5ED001A95ED011A20EE212A84
:1009D00000EE812A60EEA10A40EE410A86ED002A6F
:1009E000C6ED010A7FF476AF9B044FEA134BE6464F
:1009F000BCF1040F7DD9E0464FEA9C0C4FF0000992
:100A0000CA46BCF1000F75D94FEA490404EB09034B
:100A100002EBC90502EBC40402EBC30395ED001A17
:100A2000D5ED011A94ED000AD4ED010A93ED002AE8
:100A3000D3ED012AD94453468A4573D203EB0C0403
:100A400004EB0C0606EB0C0500EBC30700EBC60637
:100A500097ED003AD6ED003A96ED015A00EBC4044A
:100A600073EE234A33EE633AD7ED013A00EBC50546
:100A700033EE854A73EEC53A94ED005AD5ED005A2F
:100A800035EE255A74EE855A74EEC54AC7ED005A04
:100A900094ED015AD5ED015A35EE255A74EE055AFA
:100AA00034EE454AC7ED015A94ED015AD5ED015A8D
:100AB00095ED006A35EE655AD4ED005A75EEC65ACA
:100AC00024EE806A04EE206A24EE004A04EEE04A36
:100AD00084ED006A73EEE54A73EEA53A84ED014AAF
:100AE00033EE054A33EE453A24EE015A04EEA15A9C
:100AF00001E026E01BE064EE814A86ED005A4344A3
:100B00008B4244EE614A23EE024A03EEA24A63EEB0
:100B1000823AC6ED014A43EE623A85ED004AC5EDE0
:100B2000013A8BD30AF1010AE245FFF46DAF4FEAB7
:100B30008B434FEA9E0E4FEA134BBEF1040F3FF674
:100B40005AAFA1EB0C0100224B1C4FEA9C04002B76
:100B50008CBF1F46BDE8F08F11190E19331900EB39
:100B6000C20500EBC60695ED000AD6ED000A95ED2C
:100B7000012A96ED011A70EE201A70EE600A32EE2C
:100B8000010A00EBC10100EBC30332EE411A91ED03
:100B9000002AD3ED002A6244974232EE222A71EEF7
:100BA000822A31EEC22AC5ED002AD1ED011AD3ED19
:100BB000012A71EEA21A70EE212AC5ED012A70EE0B
:100BC000612A91ED010AD3ED011A93ED003A70EE1E
:100BD000611A91ED000A81ED002AC1ED012A30EE83
:100BE000430A30EEA12A70EEE10A71EE401A31EEAE
:100BF000000A86ED002AC6ED011AC3ED000A83ED56
:100C0000010AA9D8BDE8F08F2DE9F04F4FEA910C09
:100C10004FF000084746644608EB0C0505EB0C0A4C
:100C20000AEB0C0600EBC80900EBCA0AD9ED000A72
:100C30009AED001ADAED012A00EBC50570EE811A73
:100C400070EEC10A99ED011A00EBC60608F1010821
:100C500031EE222A31EE621AD5ED002A96ED003AE5
:100C6000641E72EE832A31EEA23A71EEE21A89ED29
:100C7000003AD5ED012A96ED013A72EE832A32EE62
:100C8000223A32EE622A89ED013AD5ED012A96ED3B
:100C9000013AD6ED003A4FEA470972EEC32A95EDC4
:100CA000003A02EBC90B33EE633ADBED003A9BED01
:100CB000014A61EEA34A42EE444A22EE232A01EEA3
:100CC000842AC5ED004A70EEE21A70EEA20A85EDA4
:100CD000012A02EBC70531EE032AD5ED002A31EED9
:100CE000431A95ED013A61EEA23A09EB070502EBD2
:100CF000C5051F4442EE433A22EE222A01EE832A22
:100D0000CAED003A8AED012AD5ED001A95ED012AC7
:100D100060EEA12A41EE422A21EE211A00EE821A4B
:100D2000C6ED002A86ED011A7FF476AF9B044FEAE8
:100D3000134BE646BCF1040F7DD9E0464FEA9C0C0C
:100D40004FF00009CA46BCF1000F75D94FEA4904BB
:100D500004EB090302EBC90502EBC40402EBC30375
:100D6000D5ED001A95ED012AD4ED000A94ED011A93
:100D7000D3ED002A93ED013AD94453468A4573D204
:100D800003EB0C0404EB0C0606EB0C0500EBC307AD
:100D900000EBC606D7ED003A96ED004AD6ED015AB3
:100DA00000EBC40433EE845A73EEC43A97ED014A63
:100DB00000EBC50574EE254A34EE654AD4ED005AC1
:100DC00095ED006A75EE865A35EE256A35EE655A60
:100DD00087ED006AD4ED015A95ED016A75EE865AE9
:100DE00034EEA56A74EEE54A87ED016AD4ED015A46
:100DF00095ED016AD5ED006A75EEC65A94ED006A6C
:100E000036EE666A65EE206A44EEC16A64EEA04A78
:100E100045EE014AC4ED006A34EE065A34EE464A05
:100E2000C4ED014A73EEE54A73EEA53A64EEA15AA9
:100E300045EE425A01E026E01BE025EE215AC6EDC0
:100E4000005A43448B4204EE825A63EEA24A44EEB7
:100E5000434A24EE224A86ED015A03EE834AC5ED49
:100E6000004A85ED014A8BD30AF1010AE245FFF4FD
:100E70006DAF4FEA8B434FEA9E0E4FEA134BBEF124
:100E8000040F3FF65AAFA1EB0C0100224B1C4FEAB6
:100E90009C06002B8CBF1F46BDE8F08F91198D1961
:100EA000AB1900EBC20400EBC505D4ED000AD5ED8B
:100EB000001AD4ED012A95ED012A30EEA11A70EE48
:100EC000E11A72EE820A00EBC10100EBC30332EEBD
:100ED000C22AD1ED002A93ED003A6244974272EEA5
:100EE000832A31EE223A71EE622A23EE003A62EE54
:100EF000802A84ED003A91ED011A93ED013A31EE2A
:100F0000031A30EE813A23EE003A84ED013A30EED6
:100F1000C13AD1ED010A93ED011AD3ED003A30EE5A
:100F2000C11AD1ED000AC1ED002A63EE002A70EE6D
:100F3000E30AC1ED012A71EEC12A31EE811A72EE87
:100F4000201A72EE600A22EE802A21EE001A61EE6B
:100F5000801A85ED002A60EE800AC5ED011A83ED46
:100F6000001AC3ED010A99D8BDE8F08F30B50446E8
:100F70000D4680782188A389626801280DD0284613
:100F8000FFF7A0FCE078012818BF30BDE289218876
:100F90002846A368BDE830403CE494ED040A2846A6
:100FA000FFF732FEEEE7000010B401801B4C4460F6
:100FB00082704FF0000CC370102925D040291BD03F
:100FC000B1F5807F10D0B1F5806F18BF4FF0FF3CB6
:100FD00002D010BC6046704701218181C181104957
:100FE0009FED100A816016E004218181C1810E49C4
:100FF0009FED0E0A81600EE010218181C1810C49B4
:101000009FED0C0A816006E040218181C1810A497F
:101010009FED0A0A816080ED040ADAE79C1201085C
:101020009C3201080000803AA23201080000803B97
:10103000BA3201080000803C1A3301080000803DEC
:1010400010B5203AC0F00B80B1E81850203AA0E863
:101050001850B1E81850A0E81850BFF4F5AF5FEA97
:10106000027C24BFB1E81850A0E8185044BF18C94A
:1010700018C0BDE810405FEA827C24BF51F8043BF1
:1010800040F8043B08BF7047D20728BF31F8023B45
:1010900048BF11F8012B28BF20F8023B48BF00F8D9
:1010A000012B704770477047704700000048704739
:1010B0008CCD00207546FFF7F9FFAE460500694666
:1010C000534620F00700854618B020B5FFF7BAF860
:1010D000BDE820404FF000064FF000074FF0000839
:1010E0004FF0000B21F00701AC46ACE8C009ACE8BA
:1010F000C009ACE8C009ACE8C0098D467047044699
:10110000AFF300802046FFF788F8704701491820A8
:10111000ABBEFEE72600020010B5064C01220023FC
:101120001146204600F030F92046BDE8104000F09E
:1011300065B900000020014010B5064C00230122D3
:101140000C21204600F020F92046BDE8104000F0B8
:1011500055B900000020014010B5064C00230122C3
:101160000421204600F010F92046BDE8104000F0B0
:1011700045B900000020014010B5064C00230122B3
:101180000721204600F000F92046BDE8104000F09D
:1011900035B900000020014070B59CB001212F48F6
:1011A00005F09AFC01214FF4E06005F0B9FC4FF026
:1011B000007000902A4801902A4802A900240125C5
:1011C00031C1E802CDE90640800008904011099045
:1011D0000AA90594400231C1234E0D946946304658
:1011E0000E9400F05BFA0121304600F04CFA032027
:1011F0008DF8680019958DF86B4019A91B4800F00F
:101200001FFB15941694179415A8189400F06AF80B
:101210000F948DF8404011941394114C8DF8415067
:101220004C3C8DF850500FA9204600F087F8002361
:1012300001220821204600F0A7F80121204600F0F5
:1012400073F80121204600F065F80121204600F0E6
:101250003FF8204600F0D2F81CB070BD02004000FC
:101260004C21014012000020406402400004024072
:1012700010B5064C002301220A21204600F084F814
:101280002046BDE8104000F0B9B80000002201403F
:1012900010B5064C002301220B21204600F074F803
:1012A0002046BDE8104000F0A9B80000002201402F
:1012B00010B5064C002301220C21204600F064F8F2
:1012C0002046BDE8104000F099B80000002201401F
:1012D0000029816802D041F0010101E021F0010103
:1012E00081607047094B10B51A68094902EA01028A
:1012F000D0E9001441EA0401D0E9024044EA0004C4
:1013000041EA040141EA0201196010BD04230140D1
:10131000E030FCFF0029816802D041F4807101E0D7
:1013200021F48071816070470029816802D041F406
:10133000007101E021F400718160704730B54268AE
:101340000F4B0C791A400B6842EA042213434360A6
:1013500082680C4B4D791A40D1E9034323438C68D2
:1013600044EA4504234313438360C26A097D22F49F
:101370007002491EC9B242EA0151C16230BD00008B
:10138000FFFEFFFCFDF7FFC070B5072509290AD94C
:10139000C468A1F10A0606EB4606B540AC43B3406B
:1013A0001C43C46007E0046901EB4106B540AC434F
:1013B000B3401C4304611F23072A09D2446B521E09
:1013C00002EB820293409C4391400C43446370BD06
:1013D0000D2A09D2046BD21F02EB820293409C4378
:1013E00091400C43046370BDC46A0D3A02EB820263
:1013F00093409C4391400C43C46270BD816841F0AE
:1014000080418160704703F0C9B810B5044603F00D
:101410008DF9A02003F04CF903F0DCF9200A03F069
:1014200047F903F0D7F9E0B203F042F903F0D2F93B
:1014300003F07CF9A12003F03BF903F0CBF9002085
:1014400003F0FAF8044603F09BF9204610BD70B58E
:1014500004460D4603F06AF9A02003F029F903F0D1
:10146000B9F9200A03F024F903F0B4F9E0B203F06B
:101470001FF903F0AFF9284603F01AF903F0AAF9AF
:1014800003F07EF9BDE870400A200AF033B87047D7
:1014900038B5002003F0E8FB174C2064002003F06F
:1014A000E3FB6064002003F0D1FCE064002003F063
:1014B000DBFBA064002003F0C9FC20656A460FA195
:1014C0000A2003F04FFE03230F4A00210F4803F0C8
:1014D000A3FD02230E4A00210E4803F09DFD0123C7
:1014E0000D4A00210D4803F097FD00230C4A1946D0
:1014F0000C4803F091FD38BD000000205374617268
:1015000074205461736B00008C1300202F150008A9
:101510008CB30020E11500088CB400203D150008B4
:101520008CB5002011C2000804F05EB9704704F0C9
:10153000F5FC642009F0DEFFF9E700001CB51E4F42
:101540001E4C4FF480760025207B012830D16F207F
:101550006070E06C03F000FD3146384600F0BEF9E3
:10156000012801D10220E0723146384600F0B6F978
:10157000F0B9E08DE0B1401EE0854FF02F08DFF8B4
:101580004090CDE90058012399F801001A46002146
:101590000AF0A6FCCDE9005899F8010002230122C7
:1015A00000210AF09DFCE08D012801D1E572E5855E
:1015B000642009F09FFFC7E70010024000000020F0
:1015C0002AB7002010B503F00BFDFFF761FFBDE85F
:1015D00010400A2003F074BE704704F00DB90000FB
:1015E0001CB5DFF870901C4D1C4C012609F1C60893
:1015F000022701AA0021E86C03F04EFC174B42467B
:10160000143B4946A3F5A57000940AF00BFD134B5B
:101610004946A3F11402A2F5A570009609F0B4FFA3
:101620000E4B4146A3F11402A2F5A570009709F0F4
:10163000ABFF0A491439A1F5A5700AF01DF9074B53
:101640004246143B4946A3F5A570009407F014F8F0
:10165000CFE7000090B50020000000207A020020B3
:1016600004F0DCB8FEE770B5002500240021284610
:1016700005F078FE641CE4B2042CF7D36D1CEDB2C7
:10168000202DF2D370BD0029016802D041F0010184
:1016900001E021F0010101607047000030B50368EE
:1016A000124ACC6813400A682243D1E905452C430D
:1016B0002243CC6922430C6A22434C6A22438C6A3F
:1016C00022434C6B22438C6B22431A4302604269D3
:1016D00022F00703D1E90B2422431A4342610A692D
:1016E00042604A6882608968C16030BD3F801CF0FA
:1016F0007047000010B503F07DFA4FF48074204667
:1017000000F054F810B105491420C885204600F0B7
:1017100007F8BDE8104003F079BA0000000000208F
:101720000149086070470000143C014030B50121B8
:1017300085B0880305F0F4F90121102005F0CCF9FB
:101740004FF48075002403958DF8104003A91248CA
:1017500000F076F80821042005F006FB8DF804401F
:101760000C208DF80500012400958DF80640684690
:1017700000F02CF817208DF808008DF809408DF83E
:101780000A408DF80B4002A803F054F9284600F0F7
:1017900005F805B030BD00000010024002490A689B
:1017A00002430A6070470000103C0140064A0146AF
:1017B00000201268044B0A4014331B680B4202D00D
:1017C000002A00D001207047003C014030B51B4981
:1017D0008379026863B30B6893430B600A1D136837
:1017E0000468A343136002790A441368046823431E
:1017F0001360124A083213680468A3431360131D70
:101800001C680568AC431C6090F805C0BCF1100F63
:1018100005D061440A68006802430A6030BD11685F
:10182000046821431160196800680143196030BDE4
:101830000079084401689143016030BD003C0140DB
:10184000F0B5002201234FF0030C00BF0D6803FA2E
:1018500002F42540A5422DD1066854000CFA04F587
:10186000AE4306600E790768A6403E4306600E79D7
:10187000012E01D0022E12D18668AE4386604D79CA
:101880008668A54035438560456803FA02F6B5438E
:10189000456045688E799640B6B235434560C56867
:1018A00056000CFA06F7BD43C560CD79A540C46863
:1018B0002543C560521C102AC8D3F0BD4B07DB0E70
:1018C0009A40C90810B500EB8100016A0F249C40C2
:1018D000A1430162016A1143016210BD024600206A
:1018E00012690A4200D0012070474183704701838A
:1018F0007047000070B58AB0044614221BA16846E8
:10190000FFF79EFB14221EA105A8FFF799FB0121FA
:10191000042005F027FD0121102005F023FD012101
:101920001C2005F01FFD6421B4FBF1F001FB104207
:101930000A21B2FBF1F5B4FBF1F201FB12446E4651
:1019400006EB400102220A2005F0E6FC06EB450109
:101950000222082005F0E0FC05A800EB4401022269
:101960000E2005F0D9FC0AB070BD00000F0506007E
:101970000B060F0206030D030D0707000F070F03E9
:101980000D0F08060E0B0A0F0B060B0D0F0D0807A7
:101990000F0F0B0F2DE9F04FBFB006460D46144652
:1019A000142287A16846FFF74BFB142289A105A8E2
:1019B000FFF746FB20228CA10AA8FFF741FB142267
:1019C00091A112A8FFF73CFB202294A117A8FFF7D2
:1019D00037FB142299A11FA8FFF732FB142297A10D
:1019E00024A8FFF72DFB202299A131A8FFF728FB9F
:1019F00020229FA129A8FFF723FBA5A001220068B0
:101A0000399039A91C2005F087FC4FF47A79B6FB90
:101A1000F9F2D1B209FB12624FF0640A5046B2FBF0
:101A2000F0F202F0FF08B6FBFAF20AFB12620A209B
:101A3000B2FBF0F7B6FBF0F200FB126695480DF131
:101A4000280B0078012806D101EB410159440322FB
:101A5000192005F061FC8F48007818B902211A207E
:101A600005F080FC08EB480017A90144032216206A
:101A700005F052FC07EB470029A90144032213207B
:101A800005F04AFC06EB460159440322102005F0FC
:101A900043FCB5FBF9F109FB1153B3FBFAF04FF02E
:101AA0000A0B5E46B5FBF6F30BFB135312AF07EBC5
:101AB00043086423B5FBF3F703FB1757B7FBFBF6AB
:101AC000CAB24FF47A7707FB1151B1FBF3F100F082
:101AD000FF0C05A8C9B200EB460600EB410532B188
:101AE00000EB420102220C2005F016FC02E0BCF1E2
:101AF000000F04D0022229460A2005F00DFC022224
:101B00003146082005F008FC022241460E2005F06F
:101B100003FCB4FBF9F1CDB209FB11415046B1FB16
:101B2000F0F1CEB2B4FBFAF10AFB11415846B1FB19
:101B3000F0F8B4FBFBF10BFB1149EB460BEB460A4B
:101B400002225F465146104605F0E6FB07EB4801CE
:101B50000222042005F0E0FB07EB490102220620E7
:101B600005F0DAFB0A20B4FBF0F200FB12421FA9D9
:101B700001EB42076421B4FBF1F201FB1241B1FB1E
:101B8000F0F024AB03EB400435B10BEB450102222E
:101B9000002005F0C1FB00E026B1022251461046AC
:101BA00005F0BAFB02222146042005F0B5FB022213
:101BB0003946062005F0B0FB3FB0BDE8F08F0000CD
:101BC0000A0F0006060D040F0C060C0B0E0B000E80
:101BD0000E0F0C0F0F0506000B060F0206030D0378
:101BE0000D0707000F070F03060506060000040790
:101BF00002060700060204020704020706060400A4
:101C000006070606070400000D0F08060E0B0A0F54
:101C10000B060B0D0F0D08070F0F0B0F0605070620
:101C20000001040703060701060205020705020773
:101C30000706040106070706070500000B0F01064B
:101C4000070D050F0D060D0B0F0B010E0F0F0D0FDE
:101C50000E0D060E08000C0F020E0F000E0A040AED
:101C60000F040A0F060E0C000E0F060E0F040000E4
:101C7000060D06060800040F02060F00060A0402FD
:101C80000F04020F06060C00060F06060F040000E4
:101C900009050300090000202DE9F04FAFB006460A
:101CA0000D461446142283A108A8FFF7C9F914228F
:101CB00085A10DA8FFF7C4F9202288A16846FFF787
:101CC000BFF914228DA112A8FFF7BAF9142290A12E
:101CD00017A8FFF7B5F914228DA11CA8FFF7B0F9DA
:101CE000202290A121A8FFF7ABF996A0012200685D
:101CF000299029A91C2005F00FFB4FF47A79B6FB37
:101D0000F9F2D1B209FB12624FF0640A5046B2FBFD
:101D1000F0F202F0FF08B6FBFAF20AFB12620A20A8
:101D2000B2FBF0F7B6FBF0F2DFF81CB200FB126674
:101D30009BF80000012807D101EB410168460144EE
:101D40000322192005F0E8FA9BF8000018B90221D7
:101D50001A2005F007FB08EB480021A901440322E3
:101D6000162005F0D9FA07EB47006F46C119032288
:101D7000132005F0D1FA06EB4600C119032210200A
:101D800005F0CAFAB5FBF9F109FB1153B3FBFAF000
:101D90004FF00A0B5E46B5FBF6F30BFB135312AF85
:101DA00007EB43086423B5FBF3F703FB1757B7FBB7
:101DB000FBF6CAB24FF47A7707FB1151B1FBF3F18E
:101DC00000F0FF0C0DA8C9B200EB460600EB410580
:101DD00032B100EB420102220C2005F09DFA02E034
:101DE000BCF1000F04D0022229460A2005F094FA23
:101DF00002223146082005F08FFA022241460E20C9
:101E000005F08AFAB4FBF9F1CDB209FB1141504655
:101E1000B1FBF0F1CEB2B4FBFAF10AFB1141584626
:101E2000B1FBF0F8B4FBFBF10BFB11490DF1200BFA
:101E30000BEB460A02225F465146104605F06CFA4B
:101E400007EB48010222042005F066FA07EB49017E
:101E50000222062005F060FA0A20B4FBF0F200FB33
:101E6000124217A901EB42076421B4FBF1F201FB16
:101E70001241B1FBF0F01CAB03EB400435B10BEBAE
:101E800045010222002005F047FA00E026B10222B7
:101E90005146104605F040FA02222146042005F082
:101EA0003BFA02223946062005F036FA2FB0BDE88B
:101EB000F08F00000A0F0006060D040F0C060C0B35
:101EC0000E0B000E0E0F0C0F0F0506000B060F0277
:101ED00006030D030D0707000F070F03060506068F
:101EE00000000407020607000602040207040207B6
:101EF0000606040006070606070400000D0F080684
:101F00000E0B0A0F0B060B0D0F0D08070F0F0B0F13
:101F10000B0F0106070D050F0D060D0B0F0B010E24
:101F20000F0F0D0F060D07060801040F03060F0122
:101F3000060A05020F05020F07060C01060F070629
:101F40000F05000009050300090000202DE9F04FEE
:101F5000AFB006460D461446142283A108A8FFF729
:101F60006FF8142285A10DA8FFF76AF8202288A136
:101F70006846FFF765F814228DA112A8FFF760F8F4
:101F8000142290A117A8FFF75BF814228DA11CA8BA
:101F9000FFF756F8202290A121A8FFF751F896A04C
:101FA00001220068299029A91C2005F0B5F94FF4F9
:101FB0007A79B6FBF9F2D1B209FB12624FF0640AEA
:101FC0005046B2FBF0F202F0FF08B6FBFAF20AFB51
:101FD00012620A20B2FBF0F7B6FBF0F2DFF81CB297
:101FE00000FB12669BF80000012807D101EB4101BC
:101FF000684601440322192005F08EF99BF8000081
:1020000018B902211A2005F0ADF908EB480021A902
:1020100001440322162005F07FF907EB47006F46C5
:10202000C1190322132005F077F906EB4600C11908
:102030000322102005F070F9B5FBF9F109FB1153EB
:10204000B3FBFAF04FF00A0B5E46B5FBF6F30BFB61
:10205000135312AF07EB43086423B5FBF3F703FBFD
:102060001757B7FBFBF6CAB24FF47A7707FB11514B
:10207000B1FBF3F100F0FF0C0DA8C9B200EB46066E
:1020800000EB410532B100EB420102220C2005F0C9
:1020900043F902E0BCF1000F04D0022229460A20D5
:1020A00005F03AF902223146082005F035F90222FE
:1020B00041460E2005F030F9B4FBF9F1CDB209FB31
:1020C00011415046B1FBF0F1CEB2B4FBFAF10AFB7C
:1020D00011415846B1FBF0F8B4FBFBF10BFB114981
:1020E0000DF1200B0BEB460A02225F4651461046CB
:1020F00005F012F907EB48010222042005F00CF963
:1021000007EB49010222062005F006F90A20B4FB7C
:10211000F0F200FB124217A901EB42076421B4FB65
:10212000F1F201FB1241B1FBF0F01CAB03EB4004F8
:1021300035B10BEB45010222002005F0EDF800E07F
:1021400026B102225146104605F0E6F80222214649
:10215000042005F0E1F802223946062005F0DCF8FB
:102160002FB0BDE8F08F00000A0F0006060D040F27
:102170000C060C0B0E0B000E0E0F0C0F0F050600BD
:102180000B060F0206030D030D0707000F070F03D1
:102190000605060600000407020607000602040200
:1021A00007040207060604000607060607040000E7
:1021B0000D0F08060E0B0A0F0B060B0D0F0D08076F
:1021C0000F0F0B0F0B0F0106070D050F0D060D0B63
:1021D0000F0B010E0F0F0D0F0E05070E00010C0760
:1021E000030E07010E02050A07050A07070E040180
:1021F0000E07070E0705000009050300090000206F
:102200002DE9F04FB7B006460D461446142284A1BE
:102210006846FEF715FF142286A105A8FEF710FFF9
:10222000202289A10AA8FEF70BFF14228EA112A872
:10223000FEF706FF142291A117A8FEF701FF142252
:102240008EA11CA8FEF7FCFE202291A121A8FEF77A
:10225000F7FE202296A129A8FEF7F2FE9CA00122FB
:102260000068319031A91C2005F056F84FF47A79B6
:10227000B6FBF9F2D1B209FB12624FF0640A504684
:10228000B2FBF0F202F0FF08B6FBFAF20AFB1262B0
:102290000A20B2FBF0F7B6FBF0F200FB12668D48A5
:1022A0000DF1280B0078012806D101EB41015944BA
:1022B0000322192005F030F88648007818B9022169
:1022C0001A2005F04FF808EB480029A90144032221
:1022D000162005F021F807EB470021A9014403224D
:1022E000132005F019F806EB46015944032210208B
:1022F00005F012F8B5FBF9F109FB1153B3FBFAF045
:102300004FF00A0B5E46B5FBF6F30BFB135312AF0F
:1023100007EB43086423B5FBF3F703FB1757B7FB41
:10232000FBF6CAB24FF47A7707FB1151B1FBF3F118
:1023300000F0FF0C05A8C9B200EB460600EB410512
:1023400032B100EB420102220C2004F0E5FF02E072
:10235000BCF1000F04D0022229460A2004F0DCFF61
:1023600002223146082004F0D7FF022241460E2007
:1023700004F0D2FFB4FBF9F1CDB209FB1141504694
:10238000B1FBF0F1CEB2B4FBFAF10AFB11415846B1
:10239000B1FBF0F8B4FBFBF10BFB1149EB460BEB87
:1023A000460A02225F465146104604F0B5FF07EB8D
:1023B00048010222042004F0AFFF07EB490102228A
:1023C000062004F0A9FF0A20B4FBF0F200FB124241
:1023D00017A901EB42076421B4FBF1F201FB1241A2
:1023E000B1FBF0F01CAB03EB400435B10BEB450146
:1023F0000222002004F090FF00E026B102225146A4
:10240000104604F089FF02222146042004F084FFD4
:1024100002223946062004F07FFF37B0BDE8F08F76
:102420000A0F0006060D040F0C060C0B0E0B000E17
:102430000E0F0C0F0F0506000B060F0206030D030F
:102440000D0707000F070F03060506060000040727
:10245000020607000602040207040207060604003B
:1024600006070606070400000D0F08060E0B0A0FEC
:102470000B060B0D0F0D08070F0F0B0F0B0F0106AF
:10248000070D050F0D060D0B0F0B010E0F0F0D0F96
:1024900006050E06000804070A06070806020C02D5
:1024A000070C02070E06040806070E06070C0000BC
:1024B00006050706000104070306070106020502D8
:1024C00007050207070604010607070607050000BF
:1024D00009050300090000202DE9F04FA1B00646D0
:1024E0000C46154614228AA108A8FEF7A9FD14225D
:1024F0008CA10DA8FEF7A4FD14228FA112A8FEF74F
:102500009FFD202291A16846FEF79AFD142297A113
:1025100017A8FEF795FD04211D2004F023FF0121DB
:102520001C2004F01FFF4FF47A70B6FBF0F200FBA2
:1025300012636421B3FBF1F3DBB21C93B6FBF1F33E
:1025400001FB13674FF00A0EB7FBFEF31D93B4FBBC
:10255000F0F303F0FF0B00FB1343B3FBF1F303F0C5
:10256000FF08B4FBF1F301FB1347B5FBF0F300FBED
:102570001350B0FBF1F000F0FF0AB5FBF1F001FBE6
:102580001051B1FBFEF0B7FBFEF91EA9DFB2A1E8C6
:10259000000782464FF47A7000FB12616420B1FBA1
:1025A000F0F1C9B201EB4103B6FBF0F100FB1161A0
:1025B0000A20B1FBF0F101EB410EB6FBF0F102F0A5
:1025C000FF0C00FB11606A4600EB40009E1800EB18
:1025D00002090EEB0208BCF1000F07D00CEB4C0017
:1025E00081180322192004F097FE01E01C9828B1FD
:1025F00003223146162004F08FFE01E01D9921B11F
:1026000003224146132004F087FE0322494610208E
:1026100004F082FE0A22B4FBF2F102FB114112AB7C
:1026200003EB41086421B4FBF1F301FB1343B3FB5B
:10263000F2F20DA800EB42064FF47A72B4FBF2F30B
:1026400002FB1342B2FBF1F1C9B200EB4104BBF152
:10265000000F06D000EB4B0102220C2004F05CFEC0
:1026600001E01E9828B1022221460A2004F054FEFF
:1026700001E01F9820B102223146082004F04CFEF0
:10268000022241460E2004F047FE0A22B5FBF2F179
:1026900002FB115108A800EB41086421B5FBF1F3DE
:1026A00001FB1353B3FBF2F217AC04EB42064FF4F9
:1026B0007A72B5FBF2F302FB1352B2FBF1F1C9B22D
:1026C00000EB410437B100EB47010222002004F087
:1026D00023FE01E0209828B102222146104604F092
:1026E0001BFE02E0BAF1000F05D0022231460420A1
:1026F00004F012FE03E00121042004F033FE022264
:102700004146062004F008FE21B0BDE8F08F00002D
:102710000A0F0006060D040F0C060C0B0E0B000E24
:102720000E0F0C0F0F0506000B060F0206030D031C
:102730000D0707000F070F03050F0006060B020F1A
:102740000306030D070D0007070F030F0605060616
:10275000000004070206070006020402070402073D
:102760000606040006070606070400000B0F010614
:10277000070D050F0D060D0B0F0B010E0F0F0D0FA3
:102780002DE9F04FE6A1ADB0D1E90001CDE912018C
:102790002022E5A101A8FEF753FC1422EAA114A807
:1027A000FEF74EFC1422EDA119A8FEF749FC1422F5
:1027B000EFA11EA8FEF744FC2022F2A109A8FEF713
:1027C0003FFC1422F7A123A8FEF73AFCFA4D4FF480
:1027D000804631462846FFF781F8F84C012760B95A
:1027E0006078401C607031462846FFF777F8002873
:1027F000F9D06078062800D967704FF480563146CA
:102800002846FFF76BF860B96078401E607031466B
:102810002846FFF763F80028F9D0607808B9062049
:1028200060706178DFF89883DFF89893DFF898A3F9
:10283000E6484FF0030B4FF4005607297ED2DFE83D
:1028400001F0920495FEFDFCFB008021DF48FFF7BC
:1028500045F898B9FEF707FFDD48006800EB8000F7
:102860004200DC48008800EB80004004010CDA489C
:10287000007800EB80004000FFF78CF88021D348FF
:10288000FFF72CF801286ED131462846FFF726F8CD
:1028900060B9A078401CA07031462846FFF71EF8AA
:1028A0000028F9D0A078032800D9A7704FF400665B
:1028B00031462846FFF712F850B9A078401EA070A4
:1028C00031462846FFF70AF80028F9D0A07818B159
:1028D000A078012803D016E084F802B02DE0FEF7BE
:1028E000C2FEBE48006800EB80004200B8F800005D
:1028F00000EB80004004010CB948007800EB800038
:102900004000FFF7C9F9A078022813D1FEF7ABFE0B
:10291000B448006800EB80004200B9F8000000EB0A
:1029200080004004010CB048007800EB80004000BB
:10293000FFF70CFBA078032815D100E013E0FEF7A9
:1029400092FEAA48006800EB80004200BAF800003E
:1029500000EB80004004010CA548007800EB8000EB
:102960004000FFF74DFC2DB0BDE8F08F802181467F
:10297000FEF7B4FFDFF87C8240F2F51A80B9FEF76B
:1029800072FEB8F80000524600EB80004004010CD3
:102990009948008800EB80004004000C00F0AAFA7F
:1029A00080214846FEF79AFF0128DCD131462846AF
:1029B000FEF794FF60B9E078401CE070314628468D
:1029C000FEF78CFF0028F9D0E078032800D9E770E3
:1029D0004FF4006631462846FEF780FF50B9E07894
:1029E000401EE07031462846FEF778FF0028F9D0F7
:1029F000E07818B1E078012803D013E084F803B040
:102A00002CE0FEF730FEB8F80000524600EB8000E4
:102A10004004010C7948008800EB80004004000C61
:102A200000F0BCFBE078022815D1FEF71CFEB8F8D8
:102A3000000000EB800003E043E23BE134E11FE0F3
:102A40004004010C6E485246008800EB80004004B0
:102A5000000C00F011FDE078032884D1FEF703FE9E
:102A6000B8F80000524600EB80004004010C6548B5
:102A7000008800EB80004004000C00F06BFE72E761
:102A800080215248FEF72AFFDFF87C81DFF87C9135
:102A9000DFF87CA1A0B9FEF7E6FDB8F8000000EB76
:102AA00080004004020CB9F8000000EB80004004F4
:102AB000010C9AF8000000EB8000400000F0B4FF29
:102AC00080214248FEF70AFF0128D8D13146284626
:102AD000FEF704FF60B9E078401CE07031462846FC
:102AE000FEF7FCFE0028F9D0E078032800D9E77053
:102AF0004FF4006631462846FEF7F0FE50B9E07804
:102B0000401EE07031462846FEF7E8FE0028F9D066
:102B1000E07818B1E07801287FD093E07AE07CE09B
:102B20000002000005060000060D06060800040F5E
:102B300002060F00060A04020F04020F06060C002C
:102B4000060F06060F0400000A0F0006060D040F0C
:102B50000C060C0B0E0B000E0E0F0C0F0F050600D3
:102B60000B060F0206030D030D0707000F070F03E7
:102B7000050F0006060B020F0306030D070D0007E5
:102B8000070F030F060506060000040702060700EC
:102B900006020402070402070606040006070606EA
:102BA000070400000B0F0106070D050F0D060D0BA6
:102BB0000F0B010E0F0F0D0F000C0240080100203B
:102BC0001E000020200000202200002000100240F3
:102BD00030000020140000200200002034000020FB
:102BE0000300002038000020040000203C000020EA
:102BF00005000020180000201600002024000020FE
:102C000026000020280000201C0000201A000020C0
:102C10000000002084F803B030E0FEF724FDB8F88F
:102C2000000000EB80004004020CB9F8000000EB4B
:102C300080004004010C9AF8000000EB8000400086
:102C400001F03AF8E078022814D1FEF70CFDB8F84C
:102C5000000000EB80004004020CB9F8000000EB1B
:102C600080004004010C9AF8000000EB8000400056
:102C700001F074F9E07803287FF401AFFEF7F3FC6C
:102C8000B8F8000000EB80004004020CB9F8000026
:102C900000EB80004004010C9AF8000000EB80007B
:102CA000400001F0BDFA5EE6FEF7DDFC0120FEF714
:102CB00021FE58E6FEF7D7FC04211D2004F052FB4C
:102CC00001211C2004F04EFB062212A9162004F05C
:102CD00023FBE27B0A20B2FBF0F100FB11222A92D7
:102CE000227CB2FBF0F800FB182A627CB2FBF0F900
:102CF00000FB192B01EB410001A901440322132021
:102D000004F00AFB2A9809A900EB400001440322C1
:102D1000102004F001FB19A800EB48010222082052
:102D200004F0FAFA1EA800EB4A0102220E2004F079
:102D3000F3FA23A800EB49010222042004F0ECFA84
:102D400014A800EB4B010222062004F0E5FAB2467B
:102D50003146A9462846FEF7C1FD644E644D4FF04A
:102D60000008A0BBE07B401CE07351464846FEF7DC
:102D7000B5FD0028F9D0E07B202800D9E77394F84E
:102D80000F20012000EB400106EB41014978914200
:102D900003D0401CC0B22128F4D9012101EB41032A
:102DA00005EB43035B78934203D0491CC9B2212948
:102DB000F4D321283CD021293AD000EB400006EB87
:102DC00040025379012B03D0022B04D007E017E017
:102DD0009078207403E005EB40008078607401EB8C
:102DE000410005EB40014A79012A02D0022A05D0B0
:102DF00006E006EB40008078207401E0887860747B
:102E00004FF4006A51464F464846FEF767FD0028DA
:102E10007FF435AEE07BB946401EE0735746394635
:102E20004846FEF75BFD0028F9D0E07B20B105E0C5
:102E3000404684F81080E2E72020E073E27B012026
:102E400000EB400106EB41014978914203D0401C60
:102E5000C0B22128F4D9012101EB410305EB430362
:102E60005B78934203D0491CC9B22129F4D32128AD
:102E700023D0212921D000EB400006EB40025379FA
:102E8000012B02D0022B03D006E09078207403E0DF
:102E900005EB40008078607401EB410005EB4001D8
:102EA0004A79012A04D0022AB2D1887860745AE59E
:102EB00006EB40008078207455E5404684F8108089
:102EC000F4E7FEF7D0FBBAF8000000EB8000420008
:102ED000B9F8000000EB80004100B8F8000000EBFA
:102EE00080004000FFF7F8FA3DE5000090B50020B3
:102EF00056B600202DE9F04FBFB004460D461646E9
:102F0000142271A122A8FEF79BF8142273A108A82D
:102F1000FEF796F8202276A16846FEF791F8142273
:102F20007BA11DA8FEF78CF820227EA10DA8FEF73C
:102F300087F8142283A127A8FEF782F8202286A111
:102F400031A8FEF77DF88CA0142200683C907DA18A
:102F50002CA8FEF775F8202288A115A8FEF770F8B6
:102F600001220DF1F1011C2004F0D6F94FF47A7B17
:102F7000B4FBFBF10BFB11436422B3FBF2F202F052
:102F8000FF090BFB1142C8B26421B2FBF1F2D2B2CD
:102F900002EB4207B4FBF1F201FB12420A21B2FB41
:102FA000F1F2B4FBF1F301FB1341EE460DF1340CE9
:102FB0000DF1540802EB420201EB410101EB0C0A56
:102FC000904407EB0E0438B100EB4001714403223A
:102FD000192004F0A1F902E0B9F1000F04D0032296
:102FE0002146162004F098F903224146132004F0EC
:102FF00093F903225146102004F08EF9B5FBFBF142
:103000000BFB11534FF06409B3FBF9F04FF00A0AC0
:103010005446B5FBF4F30AFB13531DAF07EB43080B
:103020004B46B5FBF3F709FB1757B7FBFAF400F073
:10303000FF0C08A800EB4407CAB24FF47A7404FBF3
:103040001151B1FBF9F1C9B200EB410432B100EB0F
:10305000420102220C2004F05FF902E0BCF1000FF3
:1030600004D0022221460A2004F056F902223946F1
:10307000082004F051F9022241460E2004F04CF9D8
:10308000B6FBF9F2D1B209FB12625046B2FBF0F581
:10309000B6FBFAF20AFB126422A800EB41010222FD
:1030A000104604F039F927A800EB4501022204205C
:1030B00004F032F92CA800EB44010222062004F0AF
:1030C0002BF93FB0BDE8F08F0A0F0006060D040F84
:1030D0000C060C0B0E0B000E0E0F0C0F0F0506004E
:1030E0000B060F0206030D030D0707000F070F0362
:1030F0000605060600000407020607000602040291
:103100000704020706060400060706060704000077
:103110000D0F08060E0B0A0F0B060B0D0F0D0807FF
:103120000F0F0B0F06050706000104070306070132
:10313000060205020705020707060401060707063F
:10314000070500000B0F0106070D050F0D060D0BFF
:103150000F0B010E0F0F0D0F0E0D060E08000C0FBA
:10316000020E0F000E0A040A0F040A0F060E0C00CE
:103170000E0F060E0F04000009050300060D0606DB
:103180000800040F02060F00060A04020F04020FD3
:1031900006060C00060F06060F0400002DE9F04F8E
:1031A000C7B004460D461646142276A122A8FDF7A4
:1031B00047FF142278A108A8FDF742FF20227BA137
:1031C0006846FDF73DFF142280A11DA8FDF738FFDA
:1031D000202283A10DA8FDF733FF142288A127A880
:1031E000FDF72EFF20228BA131A8FDF729FF91A02A
:1031F00014220068429082A12CA8FDF721FF202212
:103200008DA139A8FDF71CFF202293A115A8FDF779
:1032100017FF01220DF209111C2004F07DF84FF474
:103220007A7BB4FBFBF10BFB11436422B3FBF2F29C
:1032300002F0FF090BFB1142C8B26421B2FBF1F2AC
:10324000D2B202EB4207B4FBF1F201FB12420A21B7
:10325000B2FBF1F2B4FBF1F301FB13410DF1340CBD
:1032600001EB410101EB0C0AEE4602EB420215A90B
:1032700002EB0E087C1838B100EB400171440322C8
:10328000192004F049F802E0B9F1000F05D003223B
:103290002146162004F040F803E00821172004F02E
:1032A00061F803224146132004F036F80322514608
:1032B000102004F031F8B5FBFBF10BFB11534FF07C
:1032C0006409B3FBF9F04FF00A0A5446B5FBF4F376
:1032D0000AFB13531DAF07EB43084B46B5FBF3F74F
:1032E00009FB1757B7FBFAF400F0FF0C08A800EB36
:1032F0004407CAB24FF47A7404FB1151B1FBF9F1DF
:10330000C9B200EB410432B100EB420102220C20B1
:1033100004F002F802E0BCF1000F04D002222146C2
:103320000A2003F0F9FF02223946082003F0F4FFD7
:10333000022241460E2003F0EFFFB6FBF9F2D1B2B4
:1033400009FB12625046B2FBF0F5B6FBFAF20AFB3B
:10335000126422A800EB41010222104603F0DCFFB8
:1033600027A800EB45010222042003F0D5FF2CA87A
:1033700000EB44010222062003F0CEFF47B0BDE877
:10338000F08F00000A0F0006060D040F0C060C0B50
:103390000E0B000E0E0F0C0F0F0506000B060F0292
:1033A00006030D030D0707000F070F0306050606AA
:1033B00000000407020607000602040207040207D1
:1033C0000606040006070606070400000D0F08069F
:1033D0000E0B0A0F0B060B0D0F0D08070F0F0B0F2F
:1033E0000605070600010407030607010602050299
:1033F0000705020707060401060707060705000080
:103400000B0F0106070D050F0D060D0B0F0B010E1F
:103410000F0F0D0F0E0D060E08000C0F020E0F0001
:103420000E0A040A0F040A0F060E0C000E0F060EF9
:103430000F04000009050300060D06060800040F2E
:1034400002060F00060A04020F04020F06060C0013
:10345000060F06060F040000060D07060801040FFC
:1034600003060F01060A05020F05020F07060C01ED
:10347000060F07060F0500002DE9F04FC7B0044600
:103480000D461646142276A122A8FDF7D9FD142276
:1034900078A108A8FDF7D4FD20227BA16846FDF79E
:1034A000CFFD142280A11DA8FDF7CAFD202283A113
:1034B0000DA8FDF7C5FD142288A127A8FDF7C0FDC2
:1034C00020228BA131A8FDF7BBFD91A0142200683A
:1034D000429082A12CA8FDF7B3FD20228DA139A82E
:1034E000FDF7AEFD202293A115A8FDF7A9FD01224D
:1034F0000DF209111C2003F00FFF4FF47A7BB4FB8F
:10350000FBF10BFB11436422B3FBF2F202F0FF0963
:103510000BFB1142C8B26421B2FBF1F2D2B202EB52
:103520004207B4FBF1F201FB12420A21B2FBF1F2B5
:10353000B4FBF1F301FB13410DF1340C01EB41013C
:1035400001EB0C0AEE4602EB420215A902EB0E0853
:103550007C1838B100EB400171440322192003F0BC
:10356000DBFE02E0B9F1000F05D003222146162050
:1035700003F0D2FE03E00821162003F0F3FE03223D
:103580004146132003F0C8FE03225146102003F0E9
:10359000C3FEB5FBFBF10BFB11534FF06409B3FB0A
:1035A000F9F04FF00A0A5446B5FBF4F30AFB135343
:1035B0001DAF07EB43084B46B5FBF3F709FB175765
:1035C000B7FBFAF400F0FF0C08A800EB4407CAB2FE
:1035D0004FF47A7404FB1151B1FBF9F1C9B200EB5D
:1035E000410432B100EB420102220C2003F094FEB0
:1035F00002E0BCF1000F04D0022221460A2003F0B1
:103600008BFE02223946082003F086FE0222414644
:103610000E2003F081FEB6FBF9F2D1B209FB126273
:103620005046B2FBF0F5B6FBFAF20AFB126422A890
:1036300000EB41010222104603F06EFE27A800EBCA
:1036400045010222042003F067FE2CA800EB440190
:103650000222062003F060FE47B0BDE8F08F0000B4
:103660000A0F0006060D040F0C060C0B0E0B000EC5
:103670000E0F0C0F0F0506000B060F0206030D03BD
:103680000D0707000F070F030605060600000407D5
:1036900002060700060204020704020706060400E9
:1036A00006070606070400000D0F08060E0B0A0F9A
:1036B0000B060B0D0F0D08070F0F0B0F0605070666
:1036C00000010407030607010602050207050207B9
:1036D0000706040106070706070500000B0F010691
:1036E000070D050F0D060D0B0F0B010E0F0F0D0F24
:1036F0000E0D060E08000C0F020E0F000E0A040A33
:103700000F040A0F060E0C000E0F060E0F04000029
:1037100009050300060D06060800040F02060F0047
:10372000060A04020F04020F06060C00060F060626
:103730000F0400000E05070E00010C07030E070121
:103740000E02050A07050A07070E04010E07070EF9
:10375000070500002DE9F04FC7B004460D46164698
:10376000142274A122A8FDF76BFC142276A16846EE
:10377000FDF766FC202279A115A8FDF761FC142253
:103780007EA11DA8FDF75CFC202281A105A8FDF704
:1037900057FC142286A127A8FDF752FC202289A1FC
:1037A00031A8FDF74DFC8FA014220068429080A143
:1037B0002CA8FDF745FC20228BA139A8FDF740FC81
:1037C000202291A10DA8FDF73BFC01220DF2091169
:1037D0001C2003F0A1FD4FF47A7BB4FBFBF10BFB43
:1037E00011436422B3FBF2F202F0FF0A0BFB114219
:1037F000C8B26421B2FBF1F2D2B202EB4207B4FBD1
:10380000F1F201FB12420A21B2FBF1F2B4FBF1F337
:1038100001FB13410DF1140C0DF1340802EB4202CF
:1038200001EB410101EB0C09904407EB0C0440B1A2
:1038300000EB400015A901440322192003F06CFDA0
:1038400002E0BAF1000F04D003222146162003F053
:1038500063FD03224146132003F05EFD0322494627
:10386000102003F059FDB5FBFBF10BFB11534FF09A
:103870006409B3FBF9F04FF00A0A5446B5FBF4F3C0
:103880000AFB13531DAF07EB43084B46B5FBF3F799
:1038900009FB1757B7FBFAF400F0FF0C684600EB82
:1038A0004407CAB24FF47A7404FB1151B1FBF9F129
:1038B000C9B200EB410432B100EB420102220C20FC
:1038C00003F02AFD02E0BCF1000F04D002222146E1
:1038D0000A2003F021FD02223946082003F01CFDD6
:1038E000022241460E2003F017FDB6FBF9F2D1B2D9
:1038F00009FB12625046B2FBF0F5B6FBFAF20AFB86
:10390000126422A800EB41010222104603F004FDDC
:1039100027A800EB45010222042003F0FDFC2CA89F
:1039200000EB44010222062003F0F6FC47B0BDE89C
:10393000F08F00000A0F0006060D040F0C060C0B9A
:103940000E0B000E0E0F0C0F0F0506000B060F02DC
:1039500006030D030D0707000F070F0306050606F4
:10396000000004070206070006020402070402071B
:103970000606040006070606070400000D0F0806E9
:103980000E0B0A0F0B060B0D0F0D08070F0F0B0F79
:1039900006050706000104070306070106020502E3
:1039A00007050207070604010607070607050000CA
:1039B0000B0F0106070D050F0D060D0B0F0B010E6A
:1039C0000F0F0D0F0E0D060E08000C0F020E0F004C
:1039D0000E0A040A0F040A0F060E0C000E0F060E44
:1039E0000F04000009050300060D06060800040F79
:1039F00002060F00060A04020F04020F06060C005E
:103A0000060F06060F04000006050E060008040750
:103A10000A06070806020C02070C02070E06040835
:103A200006070E06070C00002DE9F04FBFB0044654
:103A30000D46164614226BA122A8FDF701FB1422A5
:103A40006DA108A8FDF7FCFA202270A16846FDF7D9
:103A5000F7FA142275A11DA8FDF7F2FA202278A129
:103A60000DA8FDF7EDFA14227DA127A8FDF7E8FACD
:103A700014227BA12CA8FDF7E3FA20227DA131A816
:103A8000FDF7DEFA83A0202200683C9082A115A8F1
:103A9000FDF7D6FA01220DF1F2011C2003F03CFCE7
:103AA0000121042003F05EFC4FF47A72B4FBF2F1C2
:103AB00002FB11434FF0640BB3FBFBF202F0FF0A71
:103AC0004FF47A7202FB1142C8B25946B2FBF1F2CE
:103AD000D2B202EB4207B4FBF1F20A210BFB124215
:103AE000B2FBF1F2B4FBF1F301FB13410DF1340829
:103AF00001EB4101EC460DF1540E02EB420201EBE9
:103B0000080902EB0E0807EB0C0440B100EB400083
:103B100000EB0C010322192003F0FEFB02E0BAF1D6
:103B2000000F04D003222146162003F0F5FB0322E8
:103B30004146132003F0F0FB03224946102003F016
:103B4000EBFB4FF00A094946B5FBF1F4D846B5FB4B
:103B5000F8F209FB14541DAB03EB440712F0FF000D
:103B60004FF0640303FB1252B2FBF9F10DF1200C8C
:103B70000CEB410405D00CEB400102220A2003F0BB
:103B8000CBFB02222146082003F0C6FB0222394665
:103B90000E2003F0C1FBB6FBF8F212F0FF0008FBA9
:103BA00012624946B2FBF1F5B6FBF9F209FB126469
:103BB00014D022A901EB40010222104603F0ACFB15
:103BC0002CA800EB45010222042003F0A5FB27A846
:103BD00000EB44010222062003F09EFB3FB0BDE84B
:103BE000F08F00000A0F0006060D040F0C060C0BE8
:103BF0000E0B000E0E0F0C0F0F0506000B060F022A
:103C000006030D030D0707000F070F030605060641
:103C10000000040702060700060204020704020768
:103C20000606040006070606070400000D0F080636
:103C30000E0B0A0F0B060B0D0F0D08070F0F0B0FC6
:103C40000605070600010407030607010602050230
:103C50000705020707060401060707060705000017
:103C60000B0F0106070D050F0D060D0B0F0B010EB7
:103C70000F0F0D0F0E0D060E08000C0F020E0F0099
:103C80000E0A040A0F040A0F060E0C000E0F060E91
:103C90000F04000009050300060D06060800040FC6
:103CA00002060F00060A04020F04020F06060C00AB
:103CB000060F06060F0400002DE9F04FC7B00446BA
:103CC0000D461646142270A122A8FDF7B9F9142258
:103CD00072A108A8FDF7B4F9202275A16846FDF786
:103CE000AFF914227AA11DA8FDF7AAF920227DA11F
:103CF0000DA8FDF7A5F9142282A127A8FDF7A0F9C8
:103D0000142280A12CA8FDF79BF9202282A131A8C2
:103D1000FDF796F988A020220068459087A139A870
:103D2000FDF78EF9202285A115A8FDF789F901225A
:103D30000DF58B711C2003F0EFFA0121042003F034
:103D400011FB4FF47A72B4FBF2F102FB11434FF016
:103D5000640BB3FBFBF202F0FF0A4FF47A7202FB32
:103D60001142C8B25946B2FBF1F2D2B202EB42079D
:103D7000B4FBF1F20A210BFB1242B2FBF1F2B4FBED
:103D8000F1F301FB13410DF1340801EB41010DF199
:103D9000540EEC4602EB420201EB080902EB0C0860
:103DA00007EB0E0440B100EB400000EB0C010322D6
:103DB000192003F0B1FA02E0BAF1000F05D0032296
:103DC0002146162003F0A8FA03E00821172003F08B
:103DD000C9FA03224146132003F09EFA0322494602
:103DE000102003F099FA4FF00A094946B5FBF1F4A7
:103DF000D846B5FBF8F209FB14541DAB03EB44079E
:103E000012F0FF004FF0640303FB1252B2FBF9F112
:103E10000DF1200C0CEB410405D00CEB400102220B
:103E20000A2003F079FA02222146082003F074FAEE
:103E3000022239460E2003F06FFAB6FBF8F212F0B8
:103E4000FF0008FB12624946B2FBF1F5B6FBF9F23E
:103E500009FB126414D022A901EB40010222104692
:103E600003F05AFA2CA800EB45010222042003F0CB
:103E700053FA27A800EB44010222062003F04CFA73
:103E800047B0BDE8F08F00000A0F0006060D040FD2
:103E90000C060C0B0E0B000E0E0F0C0F0F05060080
:103EA0000B060F0206030D030D0707000F070F0394
:103EB00006050606000004070206070006020402C3
:103EC00007040207060604000607060607040000AA
:103ED0000D0F08060E0B0A0F0B060B0D0F0D080732
:103EE0000F0F0B0F06050706000104070306070165
:103EF0000602050207050207070604010607070672
:103F0000070500000B0F0106070D050F0D060D0B31
:103F10000F0B010E0F0F0D0F0E0D060E08000C0FEC
:103F2000020E0F000E0A040A0F040A0F060E0C0000
:103F30000E0F060E0F04000009050300060D06060D
:103F40000800040F02060F00060A04020F04020F05
:103F500006060C00060F06060F0400002DE9F04FC0
:103F6000C7B004460D461646142270A122A8FDF7DC
:103F700067F8142272A108A8FDF762F8202275A143
:103F80006846FDF75DF814227AA11DA8FDF758F8E0
:103F900020227DA10DA8FDF753F8142282A127A8A5
:103FA000FDF74EF8142280A12CA8FDF749F8202235
:103FB00082A131A8FDF744F888A02022006845902E
:103FC00087A139A8FDF73CF820228DA115A8FDF79F
:103FD00037F801220DF58B711C2003F09DF90121AA
:103FE000042003F0BFF94FF47A72B4FBF2F102FB44
:103FF00011434FF0640BB3FBFBF202F0FF0A4FF4E6
:104000007A7202FB1142C8B25946B2FBF1F2D2B247
:1040100002EB4207B4FBF1F20A210BFB1242B2FBA6
:10402000F1F2B4FBF1F301FB13410DF1340801EBA4
:1040300041010DF1540EEC4602EB420201EB08097E
:1040400002EB0C0807EB0E0440B100EB400000EB64
:104050000C010322192003F05FF902E0BAF1000F0E
:1040600005D003222146162003F056F903E008216B
:10407000162003F077F903224146132003F04CF990
:1040800003224946102003F047F94FF00A09494638
:10409000B5FBF1F4D846B5FBF8F209FB14541DAB9F
:1040A00003EB440712F0FF004FF0640303FB1252CE
:1040B000B2FBF9F10DF1200C0CEB410405D00CEB37
:1040C000400102220A2003F027F90222214608209B
:1040D00003F022F9022239460E2003F01DF9B6FB47
:1040E000F8F212F0FF0008FB12624946B2FBF1F54C
:1040F000B6FBF9F209FB126414D022A901EB4001CE
:104100000222104603F008F92CA800EB4501022218
:10411000042003F001F927A800EB44010222062045
:1041200003F0FAF847B0BDE8F08F00000A0F000670
:10413000060D040F0C060C0B0E0B000E0E0F0C0FD1
:104140000F0506000B060F0206030D030D070700FF
:104150000F070F0306050606000004070206070006
:104160000602040207040207060604000607060604
:10417000070400000D0F08060E0B0A0F0B060B0DAF
:104180000F0D08070F0F0B0F0605070600010407A8
:1041900003060701060205020705020707060401D8
:1041A00006070706070500000B0F0106070D050FA0
:1041B0000D060D0B0F0B010E0F0F0D0F0E0D060E42
:1041C00008000C0F020E0F000E0A040A0F040A0F5B
:1041D000060E0C000E0F060E0F040000090503006A
:1041E000060D06060800040F02060F00060A040268
:1041F0000F04020F06060C00060F06060F0400004F
:104200000E05060E00000C07020E07000E02040A3F
:1042100007040A07060E04000E07060E0704000036
:104220002DE9F04FC7B004460D46164614226DA185
:1042300022A8FCF705FF14226FA108A8FCF700FFD5
:10424000202272A16846FCF7FBFE142277A11DA86C
:10425000FCF7F6FE20227AA10DA8FCF7F1FE14224D
:104260007FA127A8FCF7ECFE14227DA12CA8FCF767
:10427000E7FE20227FA131A8FCF7E2FE85A02022E4
:104280000068459084A139A8FCF7DAFE20228AA1B3
:1042900015A8FCF7D5FE01220DF58B711C2003F04B
:1042A0003BF80121042003F05DF84FF47A72B4FB6F
:1042B000F2F102FB11434FF0640BB3FBFBF202F08F
:1042C000FF0A4FF47A7202FB1142C8B25946B2FBA0
:1042D000F1F2D2B202EB4207B4FBF1F20A210BFB7E
:1042E0001242B2FBF1F2B4FBF1F301FB13410DF109
:1042F000340801EB4101EC460DF1540E02EB420291
:1043000001EB080902EB0E0807EB0C0440B100EBCF
:10431000400000EB0C010322192002F0FDFF02E037
:10432000BAF1000F04D003222146162002F0F4FF58
:1043300003224146132002F0EFFF032249461020DA
:1043400002F0EAFF4FF00A094946B5FBF1F4D846FE
:10435000B5FBF8F209FB14541DAB03EB440712F054
:10436000FF004FF0640303FB1252B2FBF9F10DF1B1
:10437000200C0CEB410405D00CEB400102220A207A
:1043800002F0CAFF02222146082002F0C5FF0222E5
:1043900039460E2002F0C0FFB6FBF8F212F0FF0023
:1043A00008FB12624946B2FBF1F5B6FBF9F209FBD4
:1043B000126414D022A901EB40010222104602F03F
:1043C000ABFF2CA800EB45010222042002F0A4FF61
:1043D00027A800EB44010222062002F09DFF47B00F
:1043E000BDE8F08F0A0F0006060D040F0C060C0B3B
:1043F0000E0B000E0E0F0C0F0F0506000B060F0222
:1044000006030D030D0707000F070F030605060639
:104410000000040702060700060204020704020760
:104420000606040006070606070400000D0F08062E
:104430000E0B0A0F0B060B0D0F0D08070F0F0B0FBE
:104440000605070600010407030607010602050228
:10445000070502070706040106070706070500000F
:104460000B0F0106070D050F0D060D0B0F0B010EAF
:104470000F0F0D0F0E0D060E08000C0F020E0F0091
:104480000E0A040A0F040A0F060E0C000E0F060E89
:104490000F04000009050300060D06060800040FBE
:1044A00002060F00060A04020F04020F06060C00A3
:1044B000060F06060F04000006050E060008040796
:1044C0000A06070806020C02070C02070E0604087B
:1044D00006070E06070C00001CB50121022002F0A1
:1044E000FBFA4FF43870009001208DF80400002092
:1044F0008DF806000220124C8DF805006946204612
:10450000FDF79EF961152046FDF7F1F920212046BF
:10451000FDF7EDF940212046FDF7E9F9802120461D
:10452000FDF7E5F9022002F05DFC292002F05AFCBB
:10453000012002F057FC032002F054FC1CBD0000D7
:1045400000040240FEE700007CB5134E4FF4005516
:1045500029463046FDF7C9F901208DF804000220F4
:104560006C008DF80500009469463046FDF768F947
:1045700021463046FDF7B9F9022006F0D9FF294659
:104580003046FDF7B4F9022006F0D2FF2946304646
:10459000FDF7ABF97CBD0000000402401CB5012111
:1045A000022002F099FA4FF4E040009001208DF8CB
:1045B000040002200A4C8DF8050069462046FDF7EC
:1045C0003FF9A1142046FDF790F94FF40051204621
:1045D000FDF78DF94FF480412046FDF788F91CBDA9
:1045E000000402407CB5134E4FF400552946304676
:1045F000FDF77BF901208DF8040002206C008DF896
:104600000500009469463046FDF71AF92146304608
:10461000FDF76DF9022006F08BFF29463046FDF7C5
:1046200066F9022006F084FF29463046FDF75DF961
:104630007CBD0000000402402DE9FC4700241B4E15
:1046400080464FF480478DF8044000978DF807406E
:1046500069463046FDF7F4F80025B9467F10394623
:104660003046FDF742F9022006F062FF3946304637
:10467000FDF73DF96006040E49463046FDF72EF978
:1046800008B1641CE4B2012006F052FF6D1CEDB2CB
:10469000082DE4D3B8F1000F04D0FFF755FF2046F2
:1046A000BDE8FC87FFF79EFFF9E700000004024029
:1046B0002DE9FC47054601208DF8040002201A4E22
:1046C0004FF480478DF80500009769463046FDF7A6
:1046D000B7F84FF4005841463046FDF706F9B946A1
:1046E0000024474628064946304602D4FDF7FDF827
:1046F00001E0FDF7FCF86806050E022006F018FF41
:1047000039463046FDF7F3F8022006F011FF39462E
:104710003046FDF7EAF8022006F00AFF641CE4B216
:10472000082CDFD3BDE8FC87000402407CB50120E3
:104730008DF804000220114D4FF480448DF80500DF
:10474000009469462846FDF77BF821462846FDF788
:10475000CEF8661031462846FDF7C9F8032006F06A
:10476000E7FE21462846FDF7C0F8032006F0E0FEEC
:1047700031462846FDF7B9F87CBD00000004024030
:104780007CB501208DF804000220114D4FF48044C7
:104790008DF80500009469462846FDF751F866102B
:1047A00031462846FDF7A1F821462846FDF79DF839
:1047B000032006F0BDFE31462846FDF798F8214655
:1047C0002846FDF794F8032006F0B2FE7CBD0000F9
:1047D000000402402DE9FC410024184E4FF48045AE
:1047E0008DF8044000958DF8074069463046FDF786
:1047F00027F829463046FDF77AF8012006F098FEA2
:104800006F1039463046FDF772F8012006F090FE31
:1048100008E0641CE4B2FA2C04D9FFF7B1FF0120D0
:10482000BDE8FC8129463046FDF758F80028F0D154
:1048300039463046FDF759F80020F1E70004024000
:104840002DE9F0479CB001215E4802F045F90121B5
:104850004FF4E06002F064F94FF0806000905A4835
:1048600001900125594802A9002431C106A8EE0291
:104870006F034FF480784FF400390594A0E8D0031B
:10488000CDE90B45DFF848A10D94694650460E94DA
:10489000FCF704FF01215046FCF7F5FE4D4802A944
:1048A000CDE900404948DFF828A1801C31C106A8A5
:1048B0000594A0E8D003CDE90B45AAF1180A0D94A0
:1048C000694650460E94FCF7E9FE01215046FCF77C
:1048D000DAFE68060090404801903C4802A9001D9D
:1048E00031C106A80594A0E8D003394ECDE90B45A7
:1048F00018360D94694630460E94FCF7CFFE012120
:104900003046FCF7C0FE3F20032615908DF8586016
:104910008DF85B4015A93148FCF792FF9220159065
:104920008DF858608DF85B4015A92D48FCF788FF7D
:1049300017941894199417A81A94FCF7D3FC0F94A1
:104940008DF84040119413941F4C8DF841504C3C0D
:104950008DF850500FA92046FCF7F0FC1E4D0FA912
:104960004C3D2846FCF7EAFC1A4E0FA94C3E304657
:10497000FCF7E4FC01212046FCF7D6FC0121284687
:10498000FCF7D2FC01213046FCF7CEFC0121204689
:10499000FCF7C0FC01212846FCF7BCFC0121304695
:1049A000FCF7B8FC01212046FCF792FC01212846C7
:1049B000FCF78EFC01213046FCF78AFC1CB0BDE8F8
:1049C000F0870000050040004C2201400E0000204E
:1049D000286402404C2001404C2101400008024064
:1049E000000002401CB50121082002F075F84FF4C8
:1049F000FE40002400908DF8044069460848FCF70A
:104A00001FFF0121102002F067F84FF46070009042
:104A10008DF8044069460348FCF712FF1CBD0000F6
:104A2000000C024000100240FEE770474FF4A06007
:104A300000F032B870B50F21C478027801234FF02E
:104A4000E026E4B1124C246804F4E064C4F5E064A8
:104A5000C4F30724C4F10405E1404478AC408578F0
:104A60000D4025430B4C29011155007800F01F0122
:104A70008B40400906EB8000C0F8003170BD02F0A9
:104A80001F008340500906EB8000C0F8803170BDE4
:104A90000CED00E000E400E0024908430249086030
:104AA000704700000000FA050CED00E070470000C0
:104AB00070B505000E46144605D036B10E48807814
:104AC00028B112200DE004200BE00C2009E028782A
:104AD000012808D0022806D0032804D0042802D0D8
:104AE0000120107070BDFBF7BFFB6E61FBF7C0FBD0
:104AF0000020207070BD00007C00002030B587B021
:104B000000F070F82A48002404638470C4700472B2
:104B1000C471C460C461846144614470847121467D
:104B200000F134025454491CC9B20829FAD3047163
:104B300044718462046201F049F801F01BF800F04E
:104B4000F3FF01F085F801F0A9F802AA032520205F
:104B500031C218494FF6FF70CDE9000101F17C0226
:104B60003F230021144800F09FFA05AA13A13F201B
:104B700000F0F8FA02AA402031C214494FF6FE7044
:104B8000CDE9000101F1FC023E230021104800F0B4
:104B90008BFA05AA0FA13E2000F0E4FA00F090FC89
:104BA00000F026F807B0BDE83040FFF77FBF0000F7
:104BB0007C00002014BA0020595E000875432F4F76
:104BC000532D49492049646C6500000014B9002048
:104BD000755E000875432F4F532D4949205374616A
:104BE0007400000001490020088070477800002010
:104BF000704700000449C879012804D18878FF284B
:104C000001D2401C887070477C00002070B5144DA4
:104C1000E879012822D1FBF727FB0446A87820B1C8
:104C2000401E10F0FF00A87013D1E87888B901F099
:104C300079F80C48697950F82100A8622A799142E4
:104C400007D0C16B491CC163E868401CE860FBF7F2
:104C500027FB2046BDE87040FBF70ABB70BD000093
:104C60007C00002094BA002070B505460E480078FC
:104C700008B1002070BDFBF7F7FA01460B48046845
:104C80000CB1626802600846FBF7F2FA4CB10120F1
:104C900020700020208106A065606061204600F041
:104CA00039FF204670BD00007E0000208C000020EF
:104CB0003F0000002DE9F04705008846144604D067
:104CC0002878012803D001200AE0042008E02C48BD
:104CD000007808B1022003E02A48007820B10D20B6
:104CE00010700020BDE8F087FBF7BEFA6E6807463B
:104CF00000213EB1884638466960FBF7B9FA84F86E
:104D000000803AE0DFF880A08946DAF8000010F869
:104D1000342F42F002020270417040F8048C2846A1
:104D200000F0CAFE3846FBF7A3FA00F0D7FFFBF706
:104D30009BFA0746DAF8000090F8351031B10229E5
:104D400008D0294600F088FE0A2004E0466A84F86C
:104D5000009001E00E202070DAF80010384601F1D2
:104D60001C0181F8189081F81990C1F80090C1F8E1
:104D70000490C1F80890FBF77BFA3046B2E70000D8
:104D80007E0000207F0000209C00002070B5040001
:104D90000D4605D035B12078012805D0012070BD21
:104DA000042070BD032070BDFBF75EFA0646A07AB2
:104DB00058B1002302222946204600F011FE304659
:104DC000FBF756FA00F08AFF0AE0606820B130462F
:104DD000FBF74EFA142070BD30466560FBF748FAC9
:104DE000002070BD10B5094CE07901280CD1FBF70B
:104DF0003BFAA17821B9E178FF2901D2491CE17081
:104E0000BDE81040FBF734BA10BD00007C00002064
:104E100010B50D4CE079012814D1FBF725FAE178A3
:104E200031B1491E11F0FF01E17001D1A17819B132
:104E3000BDE81040FBF71CBAFBF71AFABDE81040BA
:104E400000F04CBF10BD00007C00002070B505468E
:104E50000E48007808B1002070BDFBF705FA014646
:104E60000B4804680CB1626802600846FBF700FA60
:104E70004CB10320207025810020606005A0606196
:104E8000204600F047FE204670BD00007E00002056
:104E90008C0000203F0000002DE9F0470500884607
:104EA000144604D02878032803D001200AE0042007
:104EB00008E02648007808B1022003E02448007882
:104EC00018B10D201070BDE8F087FBF7CDF906464C
:104ED0002889002730B1401E28813046FBF7C8F9E9
:104EE0002770F0E7DFF86C90D9F8000010F8341F55
:104EF00041F001010170477040F8048C284600F031
:104F0000DBFD3046FBF7B4F900F0E8FEFBF7ACF947
:104F10000646D9F8000090F8351031B1022906D0C4
:104F2000294600F099FD0A2002E0277001E00E20DA
:104F30002070D9F8000000F11C0007764776076062
:104F400047603046BDE8F047FBF792B97E0000208D
:104F50007F0000209C00002070B5040004D0207861
:104F6000032803D0012070BD042070BDFBF77CF93D
:104F70000546A07A58B1002301221946204600F0C8
:104F80002FFD2846FBF774F900F0A8FE09E0208900
:104F90004FF6FF71884206D2401C20812846FBF75D
:104FA00067F9002070BD2846FBF762F9332070BD19
:104FB00010B5094CE07900280CD100F0B3FE6079FF
:104FC0000649207151F82000A0622062BDE810401F
:104FD000FBF751B910BD00007C00002094BA0020FE
:104FE00010B5022000F0C6F9FBF73EF9084C00218D
:104FF000E161FBF73DF9642000F0BCF9FBF734F9FF
:10500000E169616101216170BDE81040FBF730B9D1
:105010007C000020FCF73BBA2DE9FE4305460F4615
:1050200090461C463F2B02D92A20BDE8FE83FBF7A1
:105030001BF91A49097819B1FBF71AF93C20F4E772
:10504000174E56F8241019B1FBF712F92820ECE797
:10505000012146F82410FBF70BF90023424639469C
:10506000284600F0FBF800270146009701973B46D1
:105070003A462046029700F065FE050007D0FBF790
:10508000F3F846F82470FBF7F3F82846CDE7054817
:1050900000780128F9D100F021FEF6E77E0000201B
:1050A00094BA0020830000202DE9F04F81462DEDB9
:1050B000028B83B08A46DDE90F879DED118A129D30
:1050C00093461C463F2B05D92A2003B0BDEC028B2A
:1050D000BDE8F08FFBF7C8F81D49097819B1FBF757
:1050E000C7F83C20F1E71B4E56F8241019B1FBF726
:1050F000BFF82820E9E7012146F82410FBF7B8F8AB
:105100002A463946404600F0FDFE2B465A46514697
:10511000484600F0A3F800978DED018A01460295FC
:10512000424620460E9B00F00DFE050008D0FBF71E
:105130009BF8002146F82410FBF79AF82846C4E7AC
:10514000054800780128F9D100F0C8FDF6E7000015
:105150007E00002094BA002083000020FCF7E4B910
:10516000FCF7E4B970B505460E4614463F2803D94E
:10517000FF2D01D02A2004E02EB11248007820B182
:105180001220107070BD0C20FBE7FBF76DF8014694
:10519000FF2D03D10C48006890F836500B4850F8AA
:1051A0002500432540B1012806D006650846FBF7D7
:1051B0005FF80020207070BD0846FBF759F8257095
:1051C00070BD00007E0000209C00002094BA0020EA
:1051D000FCF702BA2DE9F04104460D463F2804D9F8
:1051E000FF2C02D02A20BDE8F08145B100202860C4
:1051F0006860FBF739F80146FF2C02D005E0092072
:10520000F1E71448006890F83640134850F824003D
:1052100058B1012809D0028AD2070BD0D0E9024741
:1052200000260846FBF724F80AE00846FBF720F8BA
:105230004320D8E70846FBF71BF84520D3E7761C48
:1052400001CC0028FBD0B0002860B81B800068604B
:105250000020C8E79C00002094BA00204FF0807323
:105260001360131F18606FF0010042F8080CA2F1E0
:1052700038004FF012334FF00332C0E90A234FF0E9
:10528000023242624FF00132C0E907124FF0113191
:1052900081614FF0103141614FF0093101614FF0F0
:1052A0000831C1604FF0073181604FF00631416035
:1052B0004FF0053140F804194FF004310160704798
:1052C00070B5274D04463F2804D005D3FF280CD0E5
:1052D0002A2070BD472070BDFAF7C6FF0346286834
:1052E00090F83600A04206D007E0FAF7BDFF03466B
:1052F000286890F83640012500E00025194850F84C
:10530000240068B1012810D090F83820164C90F88D
:105310003960A15CF643F6B23140A1540AD010E0E6
:105320001846FAF7A5FF482070BD1846FAF7A0FF07
:10533000432070BD0D4A90F83A10147824EA010118
:10534000117010F8341F41F0080101701846FAF787
:105350008FFF012D01D100F0C1FC002070BD0000C5
:105360009C00002094BA0020B000002082000020A1
:10537000FCF733B970B5044614480078002824D1EE
:1053800013480078002820D1002C1ED0FAF76CFFBB
:1053900003461048104D006890F8381090F83960B6
:1053A0006A5CF643F6B232406A5406D10B4A90F872
:1053B0003A10157825EA0101117004631846FAF7CE
:1053C00057FFBDE8704000F089BC70BD7E00002032
:1053D0007F0000209C000020B00000208200002000
:1053E0002DE9F04100F052F8FAF73EFF264D296B07
:1053F000491C2963FAF73CFFE879012841D1687A12
:105400000126002720B101283BD0022802D06F726C
:10541000EC6A32E06E72FBE7FAF726FF216B49B3C4
:10542000491E216326D194F8341011F0370F06D0AD
:1054300001F0C80184F8341084F8356001E084F884
:10544000357094F83410090714D404F13804AA799B
:10545000A178DFF834C041EA0201A97121780CF18A
:10546000340C63781CF80120A4F1380442EA0302EA
:105470000CF801206469FAF7FBFE94F836003F2827
:10548000CAD1BDE8F08100007C00002010B5FCF717
:10549000E7F807480188491C89B20180642905D3CF
:1054A00000210180BDE8104000F004B810BD0000EC
:1054B0007800002001480068FFF74EBDD0000020B2
:1054C00070B588B04FF420712E4800F0B7FB402132
:1054D0002D4800F0B3FB00202A4904466422431CF7
:1054E00000EB80001D4601EBC0009BB203EB830381
:1054F000027001EBC30380F82540C36023A303625D
:10550000A8B20F28EBD300EB800001EBC0000270C3
:1055100080F825401DA2C46002621D481E4A046036
:105520001C480480102010801C4801600120FFF7F7
:105530008DFC1B4D28600020FFF788FC194E05AA42
:1055400019A130602868FFF7B3FA05AA1BA13068DB
:10555000FFF7AEFA402102910320CDE903401C4A37
:105560004FF6FD70CDE900023D23FC3200211948C1
:10557000FFF79AFD06AA18A13D20FFF7F3FD08B03A
:1055800070BD00004CC40020CCC700203F000000CC
:10559000C8000020C6000020C4000020D400002065
:1055A000CC000020D000002075432F4F532D4949D7
:1055B00020546D724C6F636B0000000075432F4FD9
:1055C000532D494920546D725369676E616C000018
:1055D000CCC600203156000875432F4F532D494942
:1055E00020546D7200000000032280F825200E4A2E
:1055F0000129126813D0816989B1114441610B4AB4
:1056000001F0070102EBC10100230A68086042B102
:10561000C26010618A88521C8A8003617047C16928
:10562000EBE70122C360F7E7C8000020CCC70020E9
:1056300008B5DFF86880DFF868901A4E6A460021E6
:10564000D8F80000FFF728FCFFF7CCFB3068401CBF
:10565000306000F00700022759F8304013E061691C
:105660003068E56881420DD1204600F01DF894F8BD
:10567000240002280CD084F82570626812B12046FC
:10568000A16890472C46002CE9D1FFF7C1FBD5E774
:1056900001212046FFF7A8FFEFE70000D00000201F
:1056A000CCC70020C800002010B541690E4A01F0A7
:1056B000070102EBC10200231468C168844203D1D0
:1056C000116041B10B6106E0D0F810C0CCF80C10AD
:1056D00009B1C1F810C0012180F82510C360036131
:1056E0009088401E908010BDCCC7002070B5244C1F
:1056F0000025E169491CE161214622788978062A62
:105700000144C9B23AD2DFE802F0030A0E1D2D317E
:10571000ED2803D101202070E570257170BD8C2823
:105720002CD102200CE020B10021802802D90122D6
:1057300001E001210022114320D1A07060700320FC
:10574000207070BDE278802A03D20E4B9854521C10
:10575000E270A1706078401E10F0FF006070F0D120
:105760000420EDE7A17049B90520E9E78D2805D1AE
:105770006089401C6081A06AFFF7EEFB257070BD58
:10578000D80000200CC8002070B5FAF7C3FD144AF9
:105790001178491C1170FAF7C1FD124C40F22555E1
:1057A0002946204601F01BFD48B1204601F0AAFD24
:1057B000C0B2FFF79BFF2946204601F0F9FC40F2FA
:1057C00027752946204601F00AFD28B100F048F867
:1057D0002946204601F0ECFCBDE87040FFF716BA00
:1057E0007E0000200048004010B5044600F018F884
:1057F00060640020206410BD10B500F011F8054968
:105800000968D1E91023C31A1A440A6402490968D5
:10581000486410BD9C000020A4000020AFF300806D
:1058200070B5FAF721FD054600F010F806490A891F
:105830000881821A886992B2841828468C61FAF726
:1058400017FD204670BD0000D80000204FF08040BA
:1058500001F0F9BB0146014801F058BD0048004085
:105860002DE9F0414A4F04263846BB798189828A66
:105870000025C089092B73D2DFE803F00518252F16
:10588000737B44505C0011430BD08C20FFF7E2FF88
:10589000386A401C38620120F871B871FD81BDE89A
:1058A000F081FD71BDE8F04100F076B8ED20FFF722
:1058B000D1FF386A401C3862B88908B1022000E084
:1058C0000620B871EBE7C8B2FFF7C4FF386A401C86
:1058D00038620320B871B8892AE02E490C5C204652
:1058E000FFF7B8FF386A401C386278792044787135
:1058F000F889401C80B2F881B9898842CFD3BE7143
:10590000BD81CCE7521CD0B2FFF7A4FF386A401C1F
:1059100038620720B871B88A401C09E04320FFF7BD
:1059200099FF386A401C38620820B8717879433092
:105930007871B4E7174980310C5C2046FFF78AFF85
:10594000386A401C3862787920447871F889401CA4
:1059500080B2F881B98A8842A1D3BE71BD829EE728
:1059600013E07879FFF776FF386A401C386205202B
:10597000A7E78D20FFF76EFF386A401C3862BD71C3
:105980003D82788A401C788289E7BD7189E70000F2
:10599000D80000208CC80020002240F22771014866
:1059A00001F03CBC004800400B484FF47A7100689D
:1059B000B0FBF1F0B0F1807F0DD220F07F414FF0CD
:1059C000E020491E4161054AF021117000218161EA
:1059D000072101617047FEE75400002023ED00E03D
:1059E000F0B50546807A194C4FF00007205C05EBB6
:1059F0000006F67AA45D04EBC004E6B2144C54F839
:105A0000264004F12404E7602160217C21EA0201A0
:105A100021746374A4F1240409070BD40D4994F88C
:105A20003A208B791A438A71343194F839300A5C00
:105A30001A430A542946204600F00EF8216A19B18B
:105A4000204600F01BF8E5613046F0BD70CD00083F
:105A500094BA00207C00002010B590F8382090F80F
:105A600039408B18E443DA7AE4B22240DA7204D186
:105A70008A7A90F83A0082438A7210BD30B510F8E5
:105A8000383F827890F801C0D2436FEA0C04E4B248
:105A9000D5B208680DE000BF00EB030C9CF80B20AA
:105AA00022408CF80B2002D1827A2A40827251F86F
:105AB000040F0028F0D130BD30B5154900F10B02BC
:105AC0000B6AD86193F838C093F839301CF802405B
:105AD0001C430CF802400A6A837A02F13802947877
