:020000040800F2
:1000000050D40020690200085B5200080145000836
:1000100059520008A11800081D7C000800000000CB
:10002000000000000000000000000000B1750008A2
:10003000891A000800000000EB020008657700083C
:10004000830200088302000883020008830200087C
:10005000830200088302000883020008830200086C
:10006000830200088302000883020008830200085C
:10007000830200088302000883020008830200084C
:10008000830200088302000883020008830200083C
:10009000830200088302000883020008891B00080D
:1000A000830200088302000883020008830200081C
:1000B000E5770008830200088D78000883020008B5
:1000C00083020008830200088302000883020008FC
:1000D000830200088302000883020008B57A000842
:1000E0008D1A0008830200088302000883020008BA
:1000F00083020008830200088302000883020008CC
:1001000083020008830200088302000883020008BB
:10011000E1790008830200088302000883020008D6
:10012000830200088302000883020008830200089B
:10013000830200088302000883020008830200088B
:10014000830200088302000883020008830200087B
:10015000830200088302000883020008830200086B
:10016000830200088302000883020008830200085B
:10017000830200088302000883020008830200084B
:10018000830200088302000800F002F800F05CF827
:100190000AA090E8000C82448344AAF10107DA45E2
:1001A00001D100F051F8AFF2090EBAE80F0013F0D8
:1001B000010F18BFFB1A43F0010318475C4401000C
:1001C0007C4401000A444FF0000C10F8013B13F08E
:1001D000070408BF10F8014B1D1108BF10F8015BA0
:1001E000641E05D010F8016B641E01F8016BF9D193
:1001F00013F0080F1EBF10F8014BAD1C0C1B09D1EA
:100200006D1E58BF01F801CBFAD505E014F8016B5B
:1002100001F8016B6D1EF9D59142D6D370470000ED
:100220000023002400250026103A28BF78C1FBD8FF
:10023000520728BF30C148BF0B6070471FB50DF093
:10024000E0FD1FBD10B510BD00F054FF1146FFF7D3
:10025000F5FF0CF0D9FC00F072FF03B4FFF7F2FFDA
:1002600003BC00F073FF00000948804709480047BD
:10027000FEE7FEE7FEE7FEE7FEE7FEE7FEE7FEE756
:10028000FEE7FEE704480549054A064B70470000B3
:10029000897700088901000850CE002050D4002042
:1002A00050D0002050D00020EFF3108072B670477D
:1002B00080F3108870471D484FF0FF010170002047
:1002C00080F309881A48012101701A484FF08051C3
:1002D000016062B6FEE717484FF080510160704739
:1002E00014484FF080510160704772B6EFF30980F7
:1002F00028B1203880E8F00F0F490968086000B580
:100300000E4880475DF804EB0D480E490A780270EC
:1003100009480D490A680260106890E8F00F203023
:1003200080F309884EF0040E62B6704722ED00E0BB
:10033000AF00002004ED00E0C8000020A15B000831
:10034000AC000020AD000020D000002072B6704745
:1003500062B67047EFF3108072B6704780F3108872
:100360007047B0FA80F0704790FAA0F0704730BF45
:10037000704720BF70470000DFED2E0AB5EEC00ABF
:1003800060EE200ABDEEE01A11EE100AF1EE10FA4E
:1003900038BF401E00EE100ADFED271AF7EE005AB4
:1003A000B8EEC00ADFED274A244930EEC01A21EE2C
:1003B000210AFCEEC00A10EE900A00EE900A01EB52
:1003C0008000B8EE600ADFED1E0AF0EC012A11EEA3
:1003D000210AF6EE001AB0EC013AF0EC013A20EEF8
:1003E000001A20EE216A40EE615A20EE245A21EED6
:1003F000212A90ED004A00EE602A66EE010A40EEE6
:10040000400A05EE412A70EEA55AF0EE400A41EE90
:10041000210A46EE410A25EE011A00EE641A22EE88
:10042000820A63EEA00A03EE250A44EE010A30EECA
:10043000200A704783F9223E0000804368DF0008ED
:10044000ABAAAA3EABAA2A3E9FED3A0A5FEA920CFB
:1004500053D000BFB0EC011A0B1DF0EC010A21EEE5
:10046000011A00EEA01AB5EEC01AF1EE10FAC6BFDE
:10047000F1EEC10AC1ED000A81ED000AF0EC010ABB
:10048000191DB0EC011A60EEA00A41EE010AF5EE6A
:10049000C00AF1EE10FAC6BFF1EEE00AC3ED000AA1
:1004A00083ED000AB0EC011A0B1DF0EC010A21EEFD
:1004B000011A00EEA01AB5EEC01AF1EE10FAC6BF8E
:1004C000F1EEC10AC1ED000A81ED000AB0EC011A9B
:1004D000191DF0EC010A21EE011A00EEA01AB5EE8A
:1004E000C01AF1EE10FAC6BFF1EEC10AC3ED000A60
:1004F00083ED000ABCF1010CACD112F0030208BF7D
:10050000704700BFF0EC010A0B46B0EC011A091D60
:1005100060EEA00A41EE010AF5EEC00AF1EE10FA13
:10052000C6BFF1EEE00AC3ED000A83ED000A521ED9
:10053000E8D17047000000002DE9F00700EBC10989
:10054000DDE90778D0F800A0C9F800A007EB011496
:10055000D0F804A0251FA9F10406C9F804A003EBF4
:10056000C80907F1080C00F1080402EBC8024B1E91
:1005700031D000BFF2EC011A96ED002A92ED001A7C
:1005800002EBC802B4EC010A121FF4EC012A60EE7F
:10059000210A20EE010A32EE823A02EEA10AD9EDDA
:1005A000001A43EE410A09EBC80902EE610A16ED92
:1005B000012A083E42EE210A02EE410AECEC010A51
:1005C000ACEC010AB1EE400A85ED000A45ED010AE6
:1005D000083D5B1ECED190ED000AD0ED010A07EB7D
:1005E000C10130EE600A81ED000A9FED5D0A81EDE8
:1005F000010AD0ED000A90ED011A70EE810AC7EDF4
:10060000000A87ED010ABDE8F007704770B400EBFF
:10061000C105DDE903C42D1D002904BF70BC70476E
:10062000F2EC011A95ED002A92ED001A02EBC402D9
:10063000B0EC010A121FF0EC012A60EE210A20EE54
:10064000410A32EE823A02EEA10AD3ED001A43EEDD
:10065000010A03EBC40302EE610A15ED012A083D0D
:10066000491E42EE210A02EE010AECEC010AACEC52
:10067000010AD5D170BC70472DE9F04305464469A5
:10068000807983B00F461646012809D0A3892188B6
:100690003846626800F036F9E87901284ED053E018
:1006A000AA88D5E9030307EBC20CD5F808803146C8
:1006B0000CF1040C5AB300BFB0EC011A9CED002AF7
:1006C000D0ED001A00EBC800B7EC010A001FF7ECF0
:1006D000012A521E60EE010A20EE610A32EE823AD1
:1006E00002EE810A93ED001A43EE210A03EBC803E0
:1006F00002EE410A1CED012AACF1080C42EE010A9F
:1007000002EE210AE1EC010AA1EC010AD4D194ED38
:10071000040AA38921883046626800F095FAE879D6
:1007200001281CBF03B0BDE8F083E2892188A368DB
:1007300003B03046BDE8F04300F08CB8E289218870
:100740003846A36800F086F8A868CDE90060D5E9CE
:100750000323A9883846FFF7EFFE03B0BDE8F08316
:100760000000000070B592B2DDF810C055080260BC
:100770008580184EC66006F50056DBB2066100247F
:10078000837180F807C0802A04BF102282600BD0DA
:10079000B2F5007F08BF042212D0B2F5006F14BF7B
:1007A0004FF0FF3401220BD0002B8C4641614FF0FB
:1007B000000307D001222946604600F015FC06E040
:1007C0008260F1E700222946604600F00DFC2046D9
:1007D00070BD000074E3000870B40025B0EC010A9D
:1007E000A1F1010CF0EC010AB4EEE00AF1EE10FA0E
:1007F0003CBFB0EE600A0125ACF10104A446B4F19F
:10080000004F0ED3F0EC010AB4EEE00AF1EE10FA5C
:100810003CBFB0EE600AA1EB0C05BCF1010CF1D1BC
:1008200013E0002CC8BF00260FDD00BFF0EC010A6A
:10083000B4EEE00AF1EE10FA04D2ACEB0605B0EE2D
:10084000600A4D1B761C641EF0D182ED000A1D600B
:1008500070BC70472DE9F0014E0801244FF0000CE8
:1008600004EB51076146A6F102082CE061452AD24B
:1008700000EBCC0500EBC104D5ED000A94ED000AB5
:10088000C4ED000A85ED000AD5ED010A94ED010AD8
:10089000C4ED010A85ED010A0CEB0705CC1900EB4C
:1008A000C50500EBC404D5ED000A94ED000AC4EDC3
:1008B000000A85ED000AD5ED010A94ED010AC4EDA8
:1008C000010A85ED010A00EBC104B44400EBCC0C35
:1008D00094ED020ADCED000A891CC4ED020A8CEDDD
:1008E000000A94ED030ADCF80450E5608CED010A7F
:1008F000B3F800C089B203EB42034145B6D9BDE865
:10090000F00170472DE9F04F4FEA910C4FF00008CD
:100910004746644608EB0C0505EB0C0909EB0C0691
:1009200000EBC80A00EBC9099AED000AD9ED000AEC
:1009300099ED012A00EBC50530EE201A30EE600A71
:10094000DAED010A00EBC60608F1010870EE821A22
:1009500070EEC20A95ED002AD6ED002A641E32EE32
:10096000222A71EE022A31EE421ACAED002A95EDD2
:10097000012AD6ED012A32EE222A71EE822A71EE88
:10098000C21ACAED012A95ED012AD6ED012A96ED8B
:10099000003A4FEA470A32EE622AD5ED002A02EB0E
:1009A000CA0B72EEC32A9BED003ADBED013A21EE51
:1009B000034A01EEA34A61EE831A41EE631A85ED04
:1009C000004A30EE021A30EE420AC5ED011A02EB7F
:1009D000C70570EEE21A95ED002A70EEA20AD5ED79
:1009E000012A21EE023A0AEB070502EBC5051F4476
:1009F00001EEA23A61EE821A41EE621A89ED003AE6
:100A0000C9ED011AD5ED001A95ED011A20EE212A43
:100A100000EE812A60EEA10A40EE410A86ED002A2E
:100A2000C6ED010A7FF476AF9B044FEA134BE6460E
:100A3000BCF1040F7DD9E0464FEA9C0C4FF0000951
:100A4000CA46BCF1000F75D94FEA490404EB09030B
:100A500002EBC90502EBC40402EBC30395ED001AD7
:100A6000D5ED011A94ED000AD4ED010A93ED002AA8
:100A7000D3ED012AD94453468A4573D203EB0C04C3
:100A800004EB0C0606EB0C0500EBC30700EBC606F7
:100A900097ED003AD6ED003A96ED015A00EBC4040A
:100AA00073EE234A33EE633AD7ED013A00EBC50506
:100AB00033EE854A73EEC53A94ED005AD5ED005AEF
:100AC00035EE255A74EE855A74EEC54AC7ED005AC4
:100AD00094ED015AD5ED015A35EE255A74EE055ABA
:100AE00034EE454AC7ED015A94ED015AD5ED015A4D
:100AF00095ED006A35EE655AD4ED005A75EEC65A8A
:100B000024EE806A04EE206A24EE004A04EEE04AF5
:100B100084ED006A73EEE54A73EEA53A84ED014A6E
:100B200033EE054A33EE453A24EE015A04EEA15A5B
:100B300001E026E01BE064EE814A86ED005A434462
:100B40008B4244EE614A23EE024A03EEA24A63EE70
:100B5000823AC6ED014A43EE623A85ED004AC5EDA0
:100B6000013A8BD30AF1010AE245FFF46DAF4FEA77
:100B70008B434FEA9E0E4FEA134BBEF1040F3FF634
:100B80005AAFA1EB0C0100224B1C4FEA9C04002B36
:100B90008CBF1F46BDE8F08F11190E19331900EBF9
:100BA000C20500EBC60695ED000AD6ED000A95EDEC
:100BB000012A96ED011A70EE201A70EE600A32EEEC
:100BC000010A00EBC10100EBC30332EE411A91EDC3
:100BD000002AD3ED002A6244974232EE222A71EEB7
:100BE000822A31EEC22AC5ED002AD1ED011AD3EDD9
:100BF000012A71EEA21A70EE212AC5ED012A70EECB
:100C0000612A91ED010AD3ED011A93ED003A70EEDD
:100C1000611A91ED000A81ED002AC1ED012A30EE42
:100C2000430A30EEA12A70EEE10A71EE401A31EE6D
:100C3000000A86ED002AC6ED011AC3ED000A83ED15
:100C4000010AA9D8BDE8F08F2DE9F04F4FEA910CC9
:100C50004FF000084746644608EB0C0505EB0C0A0C
:100C60000AEB0C0600EBC80900EBCA0AD9ED000A32
:100C70009AED001ADAED012A00EBC50570EE811A33
:100C800070EEC10A99ED011A00EBC60608F10108E1
:100C900031EE222A31EE621AD5ED002A96ED003AA5
:100CA000641E72EE832A31EEA23A71EEE21A89EDE9
:100CB000003AD5ED012A96ED013A72EE832A32EE22
:100CC000223A32EE622A89ED013AD5ED012A96EDFB
:100CD000013AD6ED003A4FEA470972EEC32A95ED84
:100CE000003A02EBC90B33EE633ADBED003A9BEDC1
:100CF000014A61EEA34A42EE444A22EE232A01EE63
:100D0000842AC5ED004A70EEE21A70EEA20A85ED63
:100D1000012A02EBC70531EE032AD5ED002A31EE98
:100D2000431A95ED013A61EEA23A09EB070502EB91
:100D3000C5051F4442EE433A22EE222A01EE832AE1
:100D4000CAED003A8AED012AD5ED001A95ED012A87
:100D500060EEA12A41EE422A21EE211A00EE821A0B
:100D6000C6ED002A86ED011A7FF476AF9B044FEAA8
:100D7000134BE646BCF1040F7DD9E0464FEA9C0CCC
:100D80004FF00009CA46BCF1000F75D94FEA49047B
:100D900004EB090302EBC90502EBC40402EBC30335
:100DA000D5ED001A95ED012AD4ED000A94ED011A53
:100DB000D3ED002A93ED013AD94453468A4573D2C4
:100DC00003EB0C0404EB0C0606EB0C0500EBC3076D
:100DD00000EBC606D7ED003A96ED004AD6ED015A73
:100DE00000EBC40433EE845A73EEC43A97ED014A23
:100DF00000EBC50574EE254A34EE654AD4ED005A81
:100E000095ED006A75EE865A35EE256A35EE655A1F
:100E100087ED006AD4ED015A95ED016A75EE865AA8
:100E200034EEA56A74EEE54A87ED016AD4ED015A05
:100E300095ED016AD5ED006A75EEC65A94ED006A2B
:100E400036EE666A65EE206A44EEC16A64EEA04A38
:100E500045EE014AC4ED006A34EE065A34EE464AC5
:100E6000C4ED014A73EEE54A73EEA53A64EEA15A69
:100E700045EE425A01E026E01BE025EE215AC6ED80
:100E8000005A43448B4204EE825A63EEA24A44EE77
:100E9000434A24EE224A86ED015A03EE834AC5ED09
:100EA000004A85ED014A8BD30AF1010AE245FFF4BD
:100EB0006DAF4FEA8B434FEA9E0E4FEA134BBEF1E4
:100EC000040F3FF65AAFA1EB0C0100224B1C4FEA76
:100ED0009C06002B8CBF1F46BDE8F08F91198D1921
:100EE000AB1900EBC20400EBC505D4ED000AD5ED4B
:100EF000001AD4ED012A95ED012A30EEA11A70EE08
:100F0000E11A72EE820A00EBC10100EBC30332EE7C
:100F1000C22AD1ED002A93ED003A6244974272EE64
:100F2000832A31EE223A71EE622A23EE003A62EE13
:100F3000802A84ED003A91ED011A93ED013A31EEE9
:100F4000031A30EE813A23EE003A84ED013A30EE96
:100F5000C13AD1ED010A93ED011AD3ED003A30EE1A
:100F6000C11AD1ED000AC1ED002A63EE002A70EE2D
:100F7000E30AC1ED012A71EEC12A31EE811A72EE47
:100F8000201A72EE600A22EE802A21EE001A61EE2B
:100F9000801A85ED002A60EE800AC5ED011A83ED06
:100FA000001AC3ED010A99D8BDE8F08F30B50446A8
:100FB0000D4680782188A389626801280DD02846D3
:100FC000FFF7A0FCE078012818BF30BDE289218836
:100FD0002846A368BDE830403CE494ED040A284666
:100FE000FFF732FEEEE7000010B401801B4C4460B6
:100FF00082704FF0000CC370102925D040291BD0FF
:10100000B1F5807F10D0B1F5806F18BF4FF0FF3C75
:1010100002D010BC6046704701218181C181104916
:101020009FED100A816016E004218181C1810E4983
:101030009FED0E0A81600EE010218181C1810C4973
:101040009FED0C0A816006E040218181C1810A493F
:101050009FED0A0A816080ED040ADAE77423010833
:10106000744301080000803A7A4301080000803B85
:10107000924301080000803CF24301080000803DDB
:1010800010B5203AC0F00B80B1E81850203AA0E823
:101090001850B1E81850A0E81850BFF4F5AF5FEA57
:1010A000027C24BFB1E81850A0E8185044BF18C90A
:1010B00018C0BDE810405FEA827C24BF51F8043BB1
:1010C00040F8043B08BF7047D20728BF31F8023B05
:1010D00048BF11F8012B28BF20F8023B48BF00F899
:1010E000012B7047704770477047000000487047F9
:1010F000ECCD00207546FFF7F9FFAE4605006946C6
:10110000534620F00700854618B020B5FFF7BAF81F
:10111000BDE820404FF000064FF000074FF00008F8
:101120004FF0000B21F00701AC46ACE8C009ACE879
:10113000C009ACE8C009ACE8C0098D467047044658
:10114000AFF300802046FFF788F870470149182068
:10115000ABBEFEE72600020010B5064C01220023BC
:101160001146204600F030F92046BDE8104000F05E
:1011700065B900000020014010B5064C0023012293
:101180000C21204600F020F92046BDE8104000F078
:1011900055B900000020014010B5064C0023012283
:1011A0000421204600F010F92046BDE8104000F070
:1011B00045B900000020014010B5064C0023012273
:1011C0000721204600F000F92046BDE8104000F05D
:1011D00035B900000020014070B59CB001212F48B6
:1011E00006F0A2F801214FF4E06006F0C1F84FF0DC
:1011F000007000902A4801902A4802A90024012585
:1012000031C1E802CDE90640800008904011099004
:101210000AA90594400231C1234E0D946946304617
:101220000E9400F007FC0121304600F0F9FB03208A
:101230008DF8680019958DF86B4019A91B4800F0CE
:10124000D1FD15941694179415A8189400F06AF817
:101250000F948DF8404011941394114C8DF8415027
:101260004C3C8DF850500FA9204600F087F8002321
:1012700001220821204600F0A7F80121204600F0B5
:1012800073F80121204600F065F80121204600F0A6
:101290003FF8204600F0D2F81CB070BD02004000BC
:1012A0004C21014014000020406402400004024030
:1012B00010B5064C002301220A21204600F084F8D4
:1012C0002046BDE8104000F0B9B8000000220140FF
:1012D00010B5064C002301220B21204600F074F8C3
:1012E0002046BDE8104000F0A9B8000000220140EF
:1012F00010B5064C002301220C21204600F064F8B2
:101300002046BDE8104000F099B8000000220140DE
:101310000029816802D041F0010101E021F00101C2
:1013200081607047094B10B51A68094902EA010249
:10133000D0E9001441EA0401D0E9024044EA000483
:1013400041EA040141EA0201196010BD0423014091
:10135000E030FCFF0029816802D041F4807101E097
:1013600021F48071816070470029816802D041F4C6
:10137000007101E021F400718160704730B542686E
:101380000F4B0C791A400B6842EA04221343436066
:1013900082680C4B4D791A40D1E9034323438C6892
:1013A00044EA4504234313438360C26A097D22F45F
:1013B0007002491EC9B242EA0151C16230BD00004B
:1013C000FFFEFFFCFDF7FFC070B5072509290AD90C
:1013D000C468A1F10A0606EB4606B540AC43B3402B
:1013E0001C43C46007E0046901EB4106B540AC430F
:1013F000B3401C4304611F23072A09D2446B521EC9
:1014000002EB820293409C4391400C43446370BDC5
:101410000D2A09D2046BD21F02EB820293409C4337
:1014200091400C43046370BDC46A0D3A02EB820222
:1014300093409C4391400C43C46270BD816841F06D
:1014400080418160704703F087B810B5044603F00F
:101450004BF9A02003F00AF903F09AF9200A03F0EF
:1014600005F903F095F9E0B203F000F903F090F903
:1014700003F03AF9A12003F0F9F803F089F900200C
:1014800003F0B8F8044603F059F9204610BD70B5D2
:1014900004460D4603F028F9A02003F0E7F803F016
:1014A00077F9200A03F0E2F803F072F9E0B203F0F2
:1014B000DDF803F06DF9284603F0D8F803F068F979
:1014C00003F03CF9BDE870400A200AF097BD704770
:1014D00038B5002003F0E0FF174C2066002003F031
:1014E000DBFF6066002004F0C9F8E066002003F02E
:1014F000D3FFA066002004F0C1F820676A460FA160
:101500000A2004F047FA03230F4A00210F4804F091
:101510009BF902230E4A00210E4804F095F901239D
:101520000D4A00210D4804F08FF900230C4A19469A
:101530000C4804F089F938BD000000205374617232
:1015400074205461736B000024150020711500088D
:1015500024B500203918000824B60020A917000877
:1015600024B70020FDD2000804F056BD70470000EB
:1015700008B5894F894EDFF828B28A4D05F0E6F8A4
:10158000387801287BD14FF400594946304600F0A5
:1015900077FC00284FD1687B696F07F015FA044685
:1015A00001282DD15A46687BDBF8101007F00CFAA1
:1015B0000346687B116807F007FA8446A87313B1E5
:1015C000012B15D01CE09046687B516807F0FCF9B0
:1015D0000246687BD8F8081007F0F6F90346687BE6
:1015E000D8F80C1007F0F0F90090697BA87B05E0B3
:1015F0000220009003460246697B604603F01EFC11
:10160000687B401C68734946304600F039FC00286E
:10161000F9D0687B202801D901206873C2B208E0A4
:101620001046696F07F0D0F9044601280BD0521C10
:10163000D2B2202AF4D94FF400694946304600F06E
:101640001FFC20B152E06A7300202885F3E7687B15
:10165000696F07F0B9F9044601282DD1D846687B97
:10166000DBF8101007F0B0F90246687BD8F80010DC
:1016700007F0AAF9A8731AB1012A16D01CE086E077
:10168000687BD8F8041007F09FF90246687BD8F809
:10169000081007F099F90346687BD8F80C1007F09A
:1016A00093F90090697BA87B04E002210B460A466F
:1016B0000091697B03F0C2FB687B401E687349465A
:1016C000304600F0DDFB0028F9D0687B08B9202007
:1016D0006873C2B208E01046696F07F075F90446F6
:1016E000012806D0521ED2B2002AF4D1012C03D018
:1016F0004DE06A7300202885D846687BDBF810101F
:1017000007F062F90246687BD8F8001007F05CF930
:101710008446A87312B1012A24D038E0687BD8F837
:10172000041007F051F98246687BD8F8081007F0DA
:101730004BF98146687BD8F80C1007F045F98046D4
:10174000A879012807D1CDF800804B465246697B25
:10175000A87B03F073FBA879C8B94B465246CDF875
:10176000008010E0A879012807D1022000900346EC
:101770000246697B604603F061FBA87938B9022014
:10178000034602460090697BA87B03F049F9642078
:101790000AF034FCF2E6000038010020000C0240A0
:1017A00028B70020000000201CB5194C0025E07A65
:1017B000012828D1E06E03F0E7FF164F4FF4807642
:1017C0003146384600F05CFB3146384600F058FBA5
:1017D000C8B9A08DB8B1401EA0852F260E4FCDE907
:1017E0000056012378781A4600210BF07DFACDE9E6
:1017F000005678780223012200210BF075FAA08DA3
:10180000012800D1A58564200AF0F8FBCFE700008D
:1018100000000020001002404AB7002010B503F07D
:10182000F7FFFFF755FEBDE810400A2004F060B94D
:10183000704704F0F9BB000008B5154C154D0026A3
:101840006A460021E06E03F03FFFE07B012803D1F0
:1018500011480BF063F9E6730F4BA3F1140202F188
:101860002801A1F1F0000BF0B5FA0B491439A1F1F0
:10187000C8000AF0FFFE28780028E1D1064BA3F14A
:10188000140202F12801A1F1F00007F0A3F8D7E754
:1018900000000020380100202002002004F0D6BB08
:1018A000FEE700002DE9F0470646481E0C460528D5
:1018B00021D8374F00254FF400794FF48078F00796
:1018C0004946384602D000F0E4FA01E000F0DFFAC1
:1018D0004146384600F0DBFA760804200AF0ACFBFB
:1018E0004146384600F0D5FA04200AF0A5FB6D1CED
:1018F000EDB20C2DE3D3274D012C19D0022C20D0B2
:10190000032C27D0042C2ED0052C35D0062C3CD10E
:101910002021284600F0BDFA04200AF08DFB20218A
:10192000284600F0B4FABDE8F04704200AF084BB72
:101930000121284600F0ADFA04200AF07DFB0121C8
:10194000EEE70221284600F0A4FA04200AF074FB16
:101950000221E5E70421284600F09BFA04200AF062
:101960006BFB0421DCE70821284600F092FA0420F2
:101970000AF062FB0821D3E71021284600F089FA1B
:1019800004200AF059FB1021CAE7BDE8F0870000E7
:1019900000040240000C02407CB50121022005F049
:1019A000C3FC01244FF440708DF8044000250090E2
:1019B0008DF8065002268DF8056069460E4800F045
:1019C00011FA0121082005F0AFFC3F208DF80440FA
:1019D00000908DF806508DF805606946074800F0C4
:1019E00001FA40F2014521462846FFF75BFF641CDF
:1019F000E4B2052CF7D97CBD00040240000C024083
:101A000070B5002500240021284606F02FF9641C3B
:101A1000E4B2042CF7D36D1CEDB2202DF2D370BDCF
:101A20000029016802D041F0010101E021F001012B
:101A30000160704730B50368124ACC6813400A68E9
:101A40002243D1E905452C432243CC6922430C6A49
:101A500022434C6A22438C6A22434C6B22438C6B98
:101A600022431A430260426922F00703D1E90B24A2
:101A700022431A4342610A6942604A688260896867
:101A8000C16030BD3F801CF0704700002DE9FC476D
:101A900003F0C8FC4FF4805A504600F059F9DFF8C3
:101AA000DC80374E374C4FF000092F2518B398F8DB
:101AB000000001281FD1A07B012811D1CDE900959C
:101AC00001234F4670781A46617B0BF00DF9CDE982
:101AD0000075707802230122617B0BF005F92785E0
:101AE000A07B40B91720CDE90005012370781A4684
:101AF000617B0AF03BF9504600F086F84FF4804ACB
:101B0000504600F025F988B398F8000001282DD13F
:101B1000A07B01281FD1618D208D4FF0010751EA74
:101B2000000202D001290AD015E0CDE90075012399
:101B300070781A46617B0BF0D7F867850AE050B9D8
:101B4000CDE90075707802230122617B0BF0CCF89F
:101B5000A4F82A902785A07B40B92020CDE9000574
:101B6000012370781A46617B0AF000F9504600F0B4
:101B70004BF8BDE8FC4703F061BC000038010020D1
:101B80004AB70020000000202DE9FC4103F04AFC88
:101B90004FF48074204600F0DBF810B11749142090
:101BA0008885204600F030F84FF40077384600F082
:101BB000CFF8D8B14FF47A700AF03EFA394610489F
:101BC00000F05EF990B900252F240E4ECDE90054A7
:101BD000012370781A4629460BF086F8CDE90054A7
:101BE00070780223012200210BF07EF8384600F0C5
:101BF0000BF8BDE8FC4103F021BC00000000002010
:101C0000000C02404AB700200149086070470000FC
:101C1000143C01402DE9F0434FF4804985B0012187
:101C2000484605F0A5FB0121102005F07DFB4FF48F
:101C30008077002503978DF8105003A93F4800F0E6
:101C4000D1F80821042005F0B5FC8DF804500C26CD
:101C50008DF80560012400978DF80640684600F075
:101C600087F84FF017088DF8088002208DF80900DA
:101C70008DF80A008DF80B4002A803F0F3FA3846FD
:101C800000F05EF80921032005F094FC8DF8045063
:101C900067028DF8056000978DF80640684600F0F1
:101CA00067F88DF808808DF809408DF80A408DF8A6
:101CB0000B4002A803F0D6FA384600F041F80C2198
:101CC000032005F077FC8DF8045027038DF805609C
:101CD00000978DF80640684600F04AF84FF0280853
:101CE0008DF808808DF809408DF80A408DF80B407A
:101CF00002A803F0B7FA384600F022F80E210320BC
:101D000005F058FC8DF804508DF80560CDF8009072
:101D10008DF80640684600F02BF88DF808808DF8A5
:101D200009408DF80A408DF80B4002A803F09AFA9A
:101D3000484600F005F805B0BDE8F0830010024009
:101D400002490A6802430A6070470000103C0140E3
:101D5000064A014600201268044B0A4014331B68EF
:101D60000B4202D0002A00D001207047003C014005
:101D700030B51B498379026863B30B6893430B60EA
:101D80000A1D13680468A343136002790A441368A8
:101D9000046823431360124A083213680468A3439B
:101DA0001360131D1C680568AC431C6090F805C0E7
:101DB000BCF1100F05D061440A68006802430A6054
:101DC00030BD11680468214311601968006801433F
:101DD000196030BD0079084401689143016030BD4D
:101DE000003C0140F0B5002201234FF0030C00BF7E
:101DF0000D6803FA02F42540A5422DD1066854006F
:101E00000CFA04F5AE4306600E790768A6403E431F
:101E100006600E79012E01D0022E12D18668AE43E3
:101E200086604D798668A54035438560456803FA2C
:101E300002F6B543456045688E799640B6B23543A3
:101E40004560C56856000CFA06F7BD43C560CD79FC
:101E5000A540C4682543C560521C102AC8D3F0BDF4
:101E60004B07DB0E9A40C90810B500EB8100016AF0
:101E70000F249C40A1430162016A1143016210BD1D
:101E80000246002012690A4200D0012070474183B7
:101E9000704701837047000070B58AB00446142271
:101EA00022A16846FFF7ECF8142225A105A8FFF748
:101EB000E7F801211C2005F0D9FE01211F2005F0C3
:101EC000D5FE0121192005F0D1FE224D287818B940
:101ED0000A211F2005F0CAFE2878012803D10C2111
:101EE0001F2005F0C3FE6421B4FBF1F001FB10429A
:101EF0000A21B2FBF1F5B4FBF1F201FB12446E468C
:101F000006EB40010222082005F08AFE06EB45019F
:101F100002220A2005F084FE05A800EB44010222FB
:101F20000C2005F07DFE0AB070BD0000050F000614
:101F3000060B020F0306030D070D0007070F030F23
:101F40000D0F08060E0B0A0F0B060B0D0F0D0807E1
:101F50000F0F0B0F380100202DE9F04F99B0064606
:101F60000D461446142286A105A8FFF789F814220D
:101F700088A16846FFF784F814228BA10FA8FFF709
:101F80007FF814228DA10AA8FFF77AF801211C20FE
:101F900005F06CFE01211F2005F068FE8C4F38789B
:101FA00018B90821182005F061FE3878012803D1FE
:101FB0000C21182005F05AFE3878022803D10A2196
:101FC000182005F053FE3878032803D10921182082
:101FD00005F04CFE08211B2005F048FE4FF47A7BEB
:101FE000B6FBFBF2D1B20BFB12626420B2FBF0F243
:101FF000D7B2B6FBF0F200FB12620A20B2FBF0F897
:10200000B6FBF0F2DFF8CC9100FB126699F8000005
:102010000DF1140A012805D10AEB41010222162014
:1020200005F0FEFD99F8000018B90221172005F00F
:102030001DFE0FA800EB47010222142005F0F0FD61
:1020400005AF07EB48010222122005F0E9FD07EB7E
:1020500046010222102005F0E3FDB5FBFBF10BFB6E
:1020600011534FF0640AB3FBFAF202F0FF0C0A239B
:10207000B5FBF3F203FB12520AAF07EB42085246DC
:10208000B5FBF2F70AFB1757B7FBF3F36E4606EB07
:102090004307C8B24FF47A7303FB1151B1FBFAF155
:1020A000C9B2D94606EB410538B105A901EB40019B
:1020B00002220E2005F0B4FD02E0BCF1000F04D0B6
:1020C00002222946082005F0ABFD022239460A20EB
:1020D00005F0A6FD022241460C2005F0A1FDB4FB4F
:1020E000F9F1CDB209FB1141B1FBFAF03A4F00F022
:1020F000FF08387818B90A211F2005F0B7FD387895
:10210000012803D10C211F2005F0B0FD0A23B4FBE8
:10211000F3F003FB1041684600EB41096421B4FB76
:10212000F1F201FB1242B2FBF3F200EB42074FF473
:102130007A72B4FBF2F302FB1342B2FBF1F1C9B2C3
:1021400000EB410435B106EB45010222002005F009
:1021500067FD02E0B8F1000F04D0022221461046CC
:1021600005F05EFD02223946042005F059FD0222E9
:102170004946062005F054FD19B0BDE8F08F000077
:102180000F0506000B060F0206030D030D070700DF
:102190000F070F03050F0006060B020F0306030DC2
:1021A000070D0007070F030F0F0D06080B0E0F0A90
:1021B000060B0D0B0D0F07080F0F0F0B0D0F080669
:1021C0000E0B0A0F0B060B0D0F0D08070F0F0B0F51
:1021D0000400002008000020380100202DE9F04F05
:1021E00099B006460D461446142286A105A8FEF7AE
:1021F00047FF142288A16846FEF742FF14228BA1F4
:102200000FA8FEF73DFF14228DA10AA8FEF738FFA4
:1022100001211C2005F02AFD01211F2005F026FDCB
:102220000A211B2005F022FD8A4F387818B90021B9
:10223000182005F01BFD3878012803D1042118204F
:1022400005F014FD3878022803D10221182005F08A
:102250000DFD3878032803D10121182005F006FD73
:102260004FF47A7BB6FBFBF2D1B20BFB1262642017
:10227000B2FBF0F2D7B2B6FBF0F200FB12620A201A
:10228000B2FBF0F8B6FBF0F2DFF8CC9100FB12667F
:1022900099F800000DF1140A012805D10AEB41015B
:1022A0000222162005F0BCFC99F8000018B90221A2
:1022B000172005F0DBFC0FA800EB470102221420D9
:1022C00005F0AEFC05AF07EB48010222122005F035
:1022D000A7FC07EB46010222102005F0A1FCB5FB8C
:1022E000FBF10BFB11534FF0640AB3FBFAF202F05F
:1022F000FF0C0A23B5FBF3F203FB12520AAF07EB04
:1023000042085246B5FBF2F70AFB1757B7FBF3F347
:102310006E4606EB4307C8B24FF47A7303FB1151C4
:10232000B1FBFAF1C9B2D94606EB410538B105A9AE
:1023300001EB400102220E2005F072FC02E0BCF12C
:10234000000F04D002222946082005F069FC022271
:1023500039460A2005F064FC022241460C2005F0B3
:102360005FFCB4FBF9F1CDB209FB1141B1FBFAF00E
:102370003A4F00F0FF08387818B90A211F2005F0FD
:1023800075FC3878012803D10C211F2005F06EFC64
:102390000A23B4FBF3F003FB1041684600EB41094C
:1023A0006421B4FBF1F201FB1242B2FBF3F200EB49
:1023B00042074FF47A72B4FBF2F302FB1342B2FB12
:1023C000F1F1C9B200EB410435B106EB450102223F
:1023D000002005F025FC02E0B8F1000F04D0022235
:1023E0002146104605F01CFC02223946042005F067
:1023F00017FC02224946062005F012FC19B0BDE880
:10240000F08F00000F0506000B060F0206030D03F8
:102410000D0707000F070F03050F0006060B020F3D
:102420000306030D070D0007070F030F0F0D060826
:102430000B0E0F0A060B0D0B0D0F07080F0F0F0BDE
:102440000D0F08060E0B0A0F0B060B0D0F0D0807DC
:102450000F0F0B0F0400002008000020380100209F
:102460002DE9F04F99B006460D461446142286A178
:1024700005A8FEF705FE142288A16846FEF700FEB7
:1024800014228BA10FA8FEF7FBFD14228DA10AA830
:10249000FEF7F6FD01211C2005F0E8FB01211F20BD
:1024A00005F0E4FB0C211B2005F0E0FB8A4F387897
:1024B00018B90021182005F0D9FB3878012803D17C
:1024C0000421182005F0D2FB3878022803D102211C
:1024D000182005F0CBFB3878032803D10121182000
:1024E00005F0C4FB4FF47A7BB6FBFBF2D1B20BFBD9
:1024F00012626420B2FBF0F2D7B2B6FBF0F200FB3E
:1025000012620A20B2FBF0F8B6FBF0F2DFF8CC91D1
:1025100000FB126699F800000DF1140A012805D19C
:102520000AEB41010222162005F07AFB99F800001F
:1025300018B90221172005F099FB0FA800EB4701FD
:102540000222142005F06CFB05AF07EB48010222C4
:10255000122005F065FB07EB46010222102005F072
:102560005FFBB5FBFBF10BFB11534FF0640AB3FBB0
:10257000FAF202F0FF0C0A23B5FBF3F203FB12524E
:102580000AAF07EB42085246B5FBF2F70AFB1757B2
:10259000B7FBF3F36E4606EB4307C8B24FF47A730A
:1025A00003FB1151B1FBFAF1C9B2D94606EB410563
:1025B00038B105A901EB400102220E2005F030FBE5
:1025C00002E0BCF1000F04D002222946082005F0E9
:1025D00027FB022239460A2005F022FB022241464F
:1025E0000C2005F01DFBB4FBF9F1CDB209FB114144
:1025F000B1FBFAF03A4F00F0FF08387818B90A2119
:102600001F2005F033FB3878012803D10C211F204F
:1026100005F02CFB0A23B4FBF3F003FB10416846E2
:1026200000EB41096421B4FBF1F201FB1242B2FB61
:10263000F3F200EB42074FF47A72B4FBF2F302FBC1
:102640001342B2FBF1F1C9B200EB410435B106EB24
:1026500045010222002005F0E3FA02E0B8F1000F84
:1026600004D002222146104605F0DAFA0222394649
:10267000042005F0D5FA02224946062005F0D0FADA
:1026800019B0BDE8F08F00000F0506000B060F0221
:1026900006030D030D0707000F070F03050F0006C4
:1026A000060B020F0306030D070D0007070F030FAC
:1026B0000F0D06080B0E0F0A060B0D0B0D0F07086A
:1026C0000F0F0F0B0D0F08060E0B0A0F0B060B0D4D
:1026D0000F0D08070F0F0B0F04000020080000204B
:1026E000380100202DE9F04F99B006460D461446FA
:1026F000142288A105A8FEF7C3FC14228AA168460B
:10270000FEF7BEFC14228DA10FA8FEF7B9FC14221F
:102710008FA10AA8FEF7B4FC01211C2005F0A6FA3F
:1027200001211F2005F0A2FA04211A2005F09EFACB
:102730008C4F387818B90021182005F097FA3878AE
:10274000012803D10421182005F090FA38780228D6
:1027500003D10221182005F089FA3878032803D123
:102760000121182005F082FA08211B2005F07EFACD
:102770004FF47A7BB6FBFBF2D1B20BFB1262642002
:10278000B2FBF0F2D7B2B6FBF0F200FB12620A2005
:10279000B2FBF0F8B6FBF0F2DFF8CC9100FB12666A
:1027A00099F800000DF1140A012805D10AEB410146
:1027B0000222162005F034FA99F8000018B9022117
:1027C000172005F053FA0FA800EB4701022214204E
:1027D00005F026FA05AF07EB48010222122005F0AA
:1027E0001FFA07EB46010222102005F019FAB5FB8B
:1027F000FBF10BFB11534FF0640AB3FBFAF202F04A
:10280000FF0C0A23B5FBF3F203FB12520AAF07EBEE
:1028100042085246B5FBF2F70AFB1757B7FBF3F332
:102820006E4606EB4307C8B24FF47A7303FB1151AF
:10283000B1FBFAF1C9B2D94606EB410538B105A999
:1028400001EB400102220E2005F0EAF902E0BCF1A2
:10285000000F04D002222946082005F0E1F90222E7
:1028600039460A2005F0DCF9022241460C2005F029
:10287000D7F9B4FBF9F1CDB209FB1141B1FBFAF084
:102880003A4F00F0FF08387818B90A211F2005F0E8
:10289000EDF93878012803D10C211F2005F0E6F965
:1028A0000A23B4FBF3F003FB1041684600EB410937
:1028B0006421B4FBF1F201FB1242B2FBF3F200EB34
:1028C00042074FF47A72B4FBF2F302FB1342B2FBFD
:1028D000F1F1C9B200EB410435B106EB450102222A
:1028E000002005F09DF902E0B8F1000F04D00222AB
:1028F0002146104605F094F902223946042005F0DD
:102900008FF902224946062005F08AF919B0BDE880
:10291000F08F00000F0506000B060F0206030D03E3
:102920000D0707000F070F03050F0006060B020F28
:102930000306030D070D0007070F030F0F0D060811
:102940000B0E0F0A060B0D0B0D0F07080F0F0F0BC9
:102950000D0F08060E0B0A0F0B060B0D0F0D0807C7
:102960000F0F0B0F0400002008000020380100208A
:102970002DE9F04F97B006460C461546142284A167
:1029800005A8FEF77DFB142286A16846FEF778FBBA
:1029900001211C2005F06AF901211F2005F066F9CC
:1029A000854F387818B90A211F2005F05FF938786B
:1029B000012803D10C211F2005F058F94FF47A7239
:1029C000B6FBF2F002FB10676423B7FBF3F707F0E6
:1029D000FF0EB6FBF3F703FB176C4FF00A08BCFBC6
:1029E000F8F71397B4FBF2F707F0FF0C02FB174759
:1029F000B7FBF3F707F0FF0BB4FBF3F7CDF83CC0E0
:102A000003FB174CCDF850B0BCFBF8FBB5FBF2FC58
:102A100002FB1C52B2FBF3F2D2B20E92B5FBF3F200
:102A20000CF0FF0A03FB125CC146B6FBF9F3BCFBDA
:102A3000F8F209FB136305AF07EB43086423B6FB09
:102A4000F3FC03FB1C6C0C92BCFBF9F207EB420994
:102A5000C1B24FF47A7202FB1060B0FBF3F0C0B267
:102A600007EB400631B107EB41010222162005F0C9
:102A7000D7F802E0BEF1000F05D002223146142043
:102A800005F0CEF801E0139820B102224946122049
:102A900005F0C6F802224146102005F0C1F80A20D0
:102AA000B4FBF0F100FB1146694601EB46096421D5
:102AB000B4FBF1F601FB1646B6FBF0F6684600EBF8
:102AC00046084FF47A70B4FBF0F600FB1640B0FBFA
:102AD000F1F0C1B268460F9B00EB410433B107EB44
:102AE000430102220E2005F09BF801E0149828B162
:102AF00002222146082005F093F802E0BBF1000F06
:102B000004D0022241460A2005F08AF802224946F2
:102B10000C2005F085F80A23B5FBF3F003FB1051F8
:102B2000684600EB41076421B5FBF1F401FB145446
:102B3000B4FBF3F300EB43064FF47A73B5FBF3F405
:102B400003FB1453B3FBF1F1C9B200EB4104BAF13A
:102B5000000F06D000EB4A010222002005F060F8C9
:102B600001E00E9828B102222146104605F058F8DF
:102B700001E00C9820B102223146042005F050F803
:102B800002223946062005F04BF817B0BDE8F08F59
:102B90000F0506000B060F0206030D030D070700C5
:102BA0000F070F03050F0006060B020F0306030DA8
:102BB000070D0007070F030F380100202DE9F04F24
:102BC000FBA02DED028B93B000680E901422F9A1AA
:102BD00009A8FEF755FA1422FBA16846FEF750FA41
:102BE000FE48FF4EFF4D00784FF0010B78B3B41450
:102BF00021463046FFF744F988B9287920B968782A
:102C0000401C687001F0FEFE21463046FFF738F99F
:102C10000028F9D06878062801D985F801B04FF46A
:102C2000804421463046FFF72BF980B9287920B936
:102C30006878401E687001F0E5FE21463046FFF7D7
:102C40001FF90028F9D0687808B9062068706878FC
:102C5000E54FE64C4FF0030807287DD2DFE800F08F
:102C6000CC04D1FDFCFBFA0080213846FFF708F9BF
:102C700080B9FEF7C5FEDE48DF4A0088126800EB27
:102C800080004004010CDB48007800EB800040002D
:102C9000FFF762F980213846FFF7F2F801285BD18F
:102CA000470339463046FFF7EBF888B9287978B9F9
:102CB00001F0A8FEA878401CA87039463046FFF7FE
:102CC000DFF80028F9D0A878032801D985F802B0E8
:102CD0004FF40061C248FFF7D3F8C84EDFF82093E5
:102CE000DFF820A3C84FDFF824B380B9287970B982
:102CF00001F088FEA878401E85F802004FF40061BC
:102D0000B748FFF7BDF80028F8D0A87818B1A87820
:102D1000012803D02DE085F8028043E0207880B9B7
:102D2000FEF76EFE30889AF8003000EB8000400419
:102D3000010C99F800003A6800EB80004000FFF7B2
:102D40004DFA2078012814D1FEF75AFEBBF8000096
:102D500000EB8000400400E04EE0010CAD4AAC48BE
:102D600013780078AC4A00EB800040001268FFF74F
:102D7000B9FCA878022812D1FEF742FEA748A94A5A
:102D80000088137800EB80004004010CA448A64A98
:102D90000078126800EB80004000FFF761FBA87824
:102DA000032829D12078012810D1FEF729FE308888
:102DB0009AF8003000EB80004004010C99F8000004
:102DC0003A6800EB80004000FFF708FA20780028FE
:102DD00012D1FEF715FEBBF800008E4A00EB800012
:102DE0004004010C8A4813788B4A007800EB80007D
:102DF00040001268FFF776FC13B0BDEC028BBDE813
:102E0000F08F8021B9463846FFF73AF8874F40B92E
:102E1000FEF7F6FD864840F2F5123988008800F08A
:102E200063FA80214846FFF72BF80128E4D14FF4DC
:102E3000005949463046FFF723F8B0B92879A0B9C0
:102E400001F0E0FDE878401CE87049463046FFF7A5
:102E500017F803E038E297E190E156E00028F4D05B
:102E6000E878032801D985F803B04FF4006B594680
:102E7000B2463046FFF704F86E4EDFF8BC9170B9E9
:102E8000287960B901F0BEFDE878401EE870594627
:102E90005046FEF7F5FF0028F9D0E87818B1E87839
:102EA000012803D00DE085F803801EE0FEF7A8FDA1
:102EB0002078398840F2F51238B1B9F8000000F0F6
:102EC0007BFDE878022804D00CE0308800F02CFB71
:102ED000F7E7FEF795FD594840F2F512398800886A
:102EE00000F046FCE878032886D1FEF789FD2078BB
:102EF000398840F2F51218B1308800F015FB7BE7F5
:102F0000B9F8000000F058FD76E780213846FEF75A
:102F1000B7FFB2EE048AC0B9FEF772FD484890EDE3
:102F2000000A20EE080ABCEEC00A10EE100A82B2B7
:102F3000444890ED000A20EE080ABCEEC00A10EEEC
:102F4000100A81B2002000F05BFE80213846FEF7B7
:102F500097FF0128D3D1470339463046FEF790FF4B
:102F600088B9287978B901F04DFDE878401CE870FF
:102F700039463046FEF784FF0028F9D0E878032868
:102F800001D985F803B04FF400613046FEF778FFB1
:102F90002D4E2E4FDFF8B890DFF8B8A030B9287961
:102FA00020B901F02FFDE878401E55E05FE00000F9
:102FB000000209050F0506000B060F0206030D03AC
:102FC0000D0707000F070F03050F0006060B020F82
:102FD0000306030D070D0007070F030F0C00002069
:102FE000000C024034010020001002400A000020C2
:102FF0001600002000000020500000201C000020CF
:1030000001000020070000205400002020000020C4
:1030100003000020090000205C0000201E000020AA
:103020000200002008000020580000201A000020A4
:10303000180000202200002026000020240000208C
:1030400034000020300000203C0000203800002028
:103050004C00002048000020E8704FF4006B5946F7
:103060009D48FEF70DFF0028F9D0E87818B1E87800
:10307000012803D01BE085F803804FE0FEF7C0FC79
:103080002078C0B199ED000A20EE080ABCEEC00A13
:1030900010EE100A9AED000A82B220EE080ABCEE89
:1030A000C00A10EE100A81B2002001F0E7F8E878BB
:1030B000022816D02EE096ED000A20EE080ABCEE9B
:1030C000C00A10EE100A97ED000A82B220EE080A3C
:1030D000BCEEC00A10EE100A81B2002000F0A2FE81
:1030E000E5E7FEF78DFC7D4890ED000A20EE080A2A
:1030F000BCEEC00A10EE100A82B2794890ED000AC8
:1031000020EE080ABCEEC00A10EE100A81B20020C0
:1031100000F09EFFE87803287FF4F1AEFEF770FC24
:103120002078A8B196ED000A20EE080ABCEEC00A8D
:1031300010EE100A97ED000A82B220EE080ABCEEEB
:10314000C00A10EE100A81B2002000F06BFE53E6B8
:1031500099ED000A20EE080ABCEEC00A10EE100A33
:103160009AED000A82B220EE080ABCEEC00A10EE08
:10317000100A81B2002001F081F83DE6FEF740FC24
:103180000220FEF789FE37E6FEF73AFC01211C20FB
:1031900004F06CFD01211F2004F068FD287918B9A6
:1031A0000A211F2004F062FD2879012803D10C2197
:1031B0001F2004F05BFD04220EA9142004F030FD52
:1031C0006A790A20B2FBF0F100FB1127AA7BB2FB5F
:1031D000F0F400FB142AEA7BB2FBF0F800FB18299C
:1031E00009A800EB41010222122004F019FD09A8F0
:1031F00000EB47010222102004F012FD6F4607EB9E
:10320000440102220A2004F00BFD07EB4A010222CE
:103210000C2004F005FD07EB48010222042004F015
:10322000FFFC07EB49010222062004F0F9FC4FF4F1
:10323000005841463046FEF723FE2A4C04F1200791
:10324000D8B92879C8B901F0DDFB6879401C6871EC
:1032500041463046FEF714FE0028F9D06879202850
:1032600002D9584685F805B0C0B22118384411F883
:10327000011CA97310F8010CE8734FF40068414673
:103280003046FEF7FDFD00287FF439AE287900288E
:10329000FAD101F0B7FB6879B146401E6871464625
:1032A00031464846FEF7ECFD0028F9D0687908B9A8
:1032B00020206871C0B22118384411F8011CA9738C
:1032C00010F8010CE87397E5FEF79AFB002211460F
:1032D0001046FFF74DFB8FE5000C02404400002034
:1032E00040000020ACCD00202DE9F04F95B0044601
:1032F0000D461646142276A16846FDF7C1FE14223B
:1033000078A105A8FDF7BCFE14227BA10FA8FDF74C
:10331000B7FE14227DA10AA8FDF7B2FE01211C20F0
:1033200004F0A4FC01211F2004F0A0FC7C4F38789D
:1033300018B90821182004F099FC3878012803D125
:103340000C21182004F092FC3878022803D10A21BD
:10335000182004F08BFC3878032803D109211820A9
:1033600004F084FC0821192004F080FC6D4F3878AB
:1033700018B90A211F2004F079FC3878012803D1FC
:103380000C211F2004F072FC4FF47A7BB4FBFBFC91
:103390000BFB1C426420B2FBF0F000F0FF0A0A2095
:1033A000B4FBF0F200FB12426F4607EB42096422C5
:1033B000B4FBF2F302FB1343B3FBF0F007EB40085E
:1033C000584600FB1C40B0FBF2F0C0B20CF0FF010D
:1033D00007EB400431B107EB41010222162004F053
:1033E0001FFC02E0BAF1000F04D002222146142093
:1033F00004F016FC02224146122004F011FC0222C5
:103400004946102004F00CFCB5FBFBF10BFB1153FB
:103410004FF0640BB3FBFBF202F0FF0C0A23B5FB89
:10342000F3F203FB12540DF1140A0AEB44085A4656
:10343000B5FBF2F40BFB1454B4FBF3F4C8B24FF435
:103440007A7303FB1151B1FBFBF10AEB4409CAB2D9
:103450000AEB420430B107EB400102220E2004F0D7
:10346000DFFB02E0BCF1000F04D00222214608205D
:1034700004F0D6FB022249460A2004F0D1FB0222C6
:1034800041460C2004F0CCFBB6FBFBF2D1B20BFBA7
:1034900012620A20B2FBF0F5B6FBF0F200FB1264F8
:1034A000022256460AEB4101104604F0B9FB06EB36
:1034B00045010222042004F0B3FB0AA800EB4401FA
:1034C0000222062004F0ACFB15B0BDE8F08F00002E
:1034D0000F0506000B060F0206030D030D0707007C
:1034E0000F070F03050F0006060B020F0306030D5F
:1034F000070D0007070F030F0F0D06080B0E0F0A2D
:10350000060B0D0B0D0F07080F0F0F0B0D0F080605
:103510000E0B0A0F0B060B0D0F0D08070F0F0B0FED
:1035200004000020380100202DE9F04F95B004463A
:103530000D461646142278A16846FDF7A1FD142217
:103540007AA105A8FDF79CFD14227DA10FA8FDF727
:1035500097FD14227FA10AA8FDF792FD01211C20EE
:1035600004F084FB01211F2004F080FB02211B20BA
:1035700004F07CFB7C4F387818B90021182004F047
:1035800075FB3878012803D10421182004F06EFB64
:103590003878022803D10221182004F067FB38781C
:1035A000032803D10121182004F060FB0821192011
:1035B00004F05CFB6D4F387818B90A211F2004F025
:1035C00055FB3878012803D10C211F2004F04EFB55
:1035D0004FF47A7BB4FBFBFC0BFB1C426420B2FB78
:1035E000F0F000F0FF0A0A20B4FBF0F200FB1242F8
:1035F0006F4607EB42096422B4FBF2F302FB13436C
:10360000B3FBF0F007EB4008584600FB1C40B0FB52
:10361000F2F0C0B20CF0FF0107EB400431B107EB50
:1036200041010222162004F0FBFA02E0BAF1000F79
:1036300004D002222146142004F0F2FA022241466C
:10364000122004F0EDFA02224946102004F0E8FAB4
:10365000B5FBFBF10BFB11534FF0640BB3FBFBF21B
:1036600002F0FF0C0A23B5FBF3F203FB12540DF139
:10367000140A0AEB44085A46B5FBF2F40BFB145447
:10368000B4FBF3F4C8B24FF47A7303FB1151B1FBEE
:10369000FBF10AEB4409CAB20AEB420430B107EB72
:1036A000400102220E2004F0BBFA02E0BCF1000F40
:1036B00004D002222146082004F0B2FA0222494630
:1036C0000A2004F0ADFA022241460C2004F0A8FAC8
:1036D000B6FBFBF2D1B20BFB12620A20B2FBF0F593
:1036E000B6FBF0F200FB1264022256460AEB4101DF
:1036F000104604F095FA06EB45010222042004F07E
:103700008FFA0AA800EB44010222062004F088FA8E
:1037100015B0BDE8F08F00000F0506000B060F0284
:1037200006030D030D0707000F070F03050F000623
:10373000060B020F0306030D070D0007070F030F0B
:103740000F0D06080B0E0F0A060B0D0B0D0F0708C9
:103750000F0F0F0B0D0F08060E0B0A0F0B060B0DAC
:103760000F0D08070F0F0B0F040000203801002079
:103770002DE9F04F95B004460D461646142278A167
:103780006846FDF77DFC14227AA105A8FDF778FCB8
:1037900014227DA10FA8FDF773FC14227FA10AA8B3
:1037A000FDF76EFC01211C2004F060FA01211F20AE
:1037B00004F05CFA04211B2004F058FA7C4F38789E
:1037C00018B90021182004F051FA3878012803D1E3
:1037D0000421182004F04AFA3878022803D1022183
:1037E000182004F043FA3878032803D10121182067
:1037F00004F03CFA0821192004F038FA6D4F3878AB
:1038000018B90A211F2004F031FA3878012803D1B1
:103810000C211F2004F02AFA4FF47A7BB4FBFBFC46
:103820000BFB1C426420B2FBF0F000F0FF0A0A2000
:10383000B4FBF0F200FB12426F4607EB4209642230
:10384000B4FBF2F302FB1343B3FBF0F007EB4008C9
:10385000584600FB1C40B0FBF2F0C0B20CF0FF0178
:1038600007EB400431B107EB41010222162004F0BE
:10387000D7F902E0BAF1000F04D002222146142049
:1038800004F0CEF902224146122004F0C9F90222C6
:103890004946102004F0C4F9B5FBFBF10BFB1153B2
:1038A0004FF0640BB3FBFBF202F0FF0C0A23B5FBF5
:1038B000F3F203FB12540DF1140A0AEB44085A46C2
:1038C000B5FBF2F40BFB1454B4FBF3F4C8B24FF4A1
:1038D0007A7303FB1151B1FBFBF10AEB4409CAB245
:1038E0000AEB420430B107EB400102220E2004F043
:1038F00097F902E0BCF1000F04D002222146082013
:1039000004F08EF9022249460A2004F089F90222C5
:1039100041460C2004F084F9B6FBFBF2D1B20BFB5C
:1039200012620A20B2FBF0F5B6FBF0F200FB126463
:10393000022256460AEB4101104604F071F906EBEB
:1039400045010222042004F06BF90AA800EB4401AF
:103950000222062004F064F915B0BDE8F08F0000E3
:103960000F0506000B060F0206030D030D070700E7
:103970000F070F03050F0006060B020F0306030DCA
:10398000070D0007070F030F0F0D06080B0E0F0A98
:10399000060B0D0B0D0F07080F0F0F0B0D0F080671
:1039A0000E0B0A0F0B060B0D0F0D08070F0F0B0F59
:1039B00004000020380100202DE9F04F95B00446A6
:1039C0000D461646142278A16846FDF759FB1422CD
:1039D0007AA105A8FDF754FB14227DA10FA8FDF7DD
:1039E0004FFB14227FA10AA8FDF74AFB01211C20EE
:1039F00004F03CF901211F2004F038F904211A20B9
:103A000004F034F97C4F387818B90021182004F0FC
:103A10002DF93878012803D10421182004F026F963
:103A20003878022803D10221182004F01FF93878D1
:103A3000032803D10121182004F018F908211920C6
:103A400004F014F96D4F387818B90A211F2004F0DA
:103A50000DF93878012803D10C211F2004F006F954
:103A60004FF47A7BB4FBFBFC0BFB1C426420B2FBE3
:103A7000F0F000F0FF0A0A20B4FBF0F200FB124263
:103A80006F4607EB42096422B4FBF2F302FB1343D7
:103A9000B3FBF0F007EB4008584600FB1C40B0FBBE
:103AA000F2F0C0B20CF0FF0107EB400431B107EBBC
:103AB00041010222162004F0B3F802E0BAF1000F2F
:103AC00004D002222146142004F0AAF80222414622
:103AD000122004F0A5F802224946102004F0A0F8B4
:103AE000B5FBFBF10BFB11534FF0640BB3FBFBF287
:103AF00002F0FF0C0A23B5FBF3F203FB12540DF1A5
:103B0000140A0AEB44085A46B5FBF2F40BFB1454B2
:103B1000B4FBF3F4C8B24FF47A7303FB1151B1FB59
:103B2000FBF10AEB4409CAB20AEB420430B107EBDD
:103B3000400102220E2004F073F802E0BCF1000FF5
:103B400004D002222146082004F06AF802224946E5
:103B50000A2004F065F8022241460C2004F060F8C7
:103B6000B6FBFBF2D1B20BFB12620A20B2FBF0F5FE
:103B7000B6FBF0F200FB1264022256460AEB41014A
:103B8000104604F04DF806EB45010222042004F033
:103B900047F80AA800EB44010222062004F040F88E
:103BA00015B0BDE8F08F00000F0506000B060F02F0
:103BB00006030D030D0707000F070F03050F00068F
:103BC000060B020F0306030D070D0007070F030F77
:103BD0000F0D06080B0E0F0A060B0D0B0D0F070835
:103BE0000F0F0F0B0D0F08060E0B0A0F0B060B0D18
:103BF0000F0D08070F0F0B0F0400002038010020E5
:103C00002DE9F0479AB004460D46164614226FA1DE
:103C100005A8FDF735FA142271A16846FDF730FAC0
:103C2000142274A10FA8FDF72BFA142276A10AA87A
:103C3000FDF726FA01211C2004F018F801211F20AD
:103C400004F014F8754F387818B90821182004F0DA
:103C50000DF83878012803D10C21182004F006F85B
:103C60003878022803D10A21182003F0FFFF3878A2
:103C7000032803D10921182003F0F8FF08211A2096
:103C800003F0F4FF664F387818B90A211F2003F0BB
:103C9000EDFF3878012803D10C211F2003F0E6FF47
:103CA0004FF47A71B4FBF1F001FB10434FF0640A5A
:103CB000B3FBFAF101F0FF090A21B4FBF1F301FBB8
:103CC00013430FAF07EB43085346B4FBF3F70AFB6C
:103CD0001747B7FBF1F10DF1140C0CEB4107C2B221
:103CE0004FF47A7101FB1040B0FBFAF0C0B20CEB5C
:103CF000400432B10CEB42010222162003F090FF87
:103D000002E0B9F1000F04D002222146142003F092
:103D100087FF02223946122003F082FF0222414629
:103D2000102003F07DFF4FF00A00B5FBF0F3D14601
:103D3000B5FBF9F700FB13530AA901EB43084FF059
:103D4000640101FB1751B1FBF0F06C4617F0FF0264
:103D500004EB400505D004EB42010222082003F0E9
:103D60005FFF022229460A2003F05AFF0222414641
:103D70000C2003F055FF4FF00A01B6FBF1F3B6FB40
:103D8000F9F201FB13630AAD05EB430712F0FF00E4
:103D90004FF0640303FB1262B2FBF1F16A4602EBDF
:103DA000410505D004EB40010222104603F038FF24
:103DB00002222946042003F033FF0222394606205E
:103DC00003F02EFF1AB0BDE8F08700000F050600D3
:103DD0000B060F0206030D030D0707000F070F0365
:103DE000050F0006060B020F0306030D070D000763
:103DF000070F030F0F0D06080B0E0F0A060B0D0B16
:103E00000D0F07080F0F0F0B0D0F08060E0B0A0FF3
:103E10000B060B0D0F0D08070F0F0B0F04000020F2
:103E2000380100202DE9F0479AB004460D461646A9
:103E3000142271A105A8FDF723F9142273A1684685
:103E4000FDF71EF9142276A10FA8FDF719F9142227
:103E500078A10AA8FDF714F901211C2003F006FF40
:103E600001211F2003F002FF02211B2003F0FEFEB0
:103E7000754F387818B90021182003F0F7FE38780C
:103E8000012803D10421182003F0F0FE387802281D
:103E900003D10221182003F0E9FE3878032803D16A
:103EA0000121182003F0E2FE08211A2003F0DEFEB3
:103EB000664F387818B90A211F2003F0D7FE3878EA
:103EC000012803D10C211F2003F0D0FE4FF47A719A
:103ED000B4FBF1F001FB10434FF0640AB3FBFAF1BD
:103EE00001F0FF090A21B4FBF1F301FB13430FAF0B
:103EF00007EB43085346B4FBF3F70AFB1747B7FB3E
:103F0000F1F10DF1140C0CEB4107C2B24FF47A71D0
:103F100001FB1040B0FBFAF0C0B20CEB400432B130
:103F20000CEB42010222162003F07AFE02E0B9F106
:103F3000000F04D002222146142003F071FE022259
:103F40003946122003F06CFE02224146102003F095
:103F500067FE4FF00A00B5FBF0F3D146B5FBF9F769
:103F600000FB13530AA901EB43084FF0640101FB66
:103F70001751B1FBF0F06C4617F0FF0204EB40055F
:103F800005D004EB42010222082003F049FE022280
:103F900029460A2003F044FE022241460C2003F089
:103FA0003FFE4FF00A01B6FBF1F3B6FBF9F201FB5D
:103FB00013630AAD05EB430712F0FF004FF06403F3
:103FC00003FB1262B2FBF1F16A4602EB410505D038
:103FD00004EB40010222104603F022FE0222294691
:103FE000042003F01DFE02223946062003F018FECD
:103FF0001AB0BDE8F08700000F0506000B060F029F
:1040000006030D030D0707000F070F03050F00063A
:10401000060B020F0306030D070D0007070F030F22
:104020000F0D06080B0E0F0A060B0D0B0D0F0708E0
:104030000F0F0F0B0D0F08060E0B0A0F0B060B0DC3
:104040000F0D08070F0F0B0F040000203801002090
:104050002DE9F0479AB004460D461646142271A188
:1040600005A8FDF70DF8142273A16846FDF708F8BE
:10407000142276A10FA8FDF703F8142278A10AA84C
:10408000FCF7FEFF01211C2003F0F0FD01211F20A1
:1040900003F0ECFD04211B2003F0E8FD754F387898
:1040A00018B90021182003F0E1FD3878012803D168
:1040B0000421182003F0DAFD3878022803D1022108
:1040C000182003F0D3FD3878032803D101211820EC
:1040D00003F0CCFD08211A2003F0C8FD664F3878A4
:1040E00018B90A211F2003F0C1FD3878012803D137
:1040F0000C211F2003F0BAFD4FF47A71B4FBF1F0EC
:1041000001FB10434FF0640AB3FBFAF101F0FF0921
:104110000A21B4FBF1F301FB13430FAF07EB430894
:104120005346B4FBF3F70AFB1747B7FBF1F10DF168
:10413000140C0CEB4107C2B24FF47A7101FB104032
:10414000B0FBFAF0C0B20CEB400432B10CEB420110
:104150000222162003F064FD02E0B9F1000F04D042
:1041600002222146142003F05BFD02223946122070
:1041700003F056FD02224146102003F051FD4FF09E
:104180000A00B5FBF0F3D146B5FBF9F700FB13537A
:104190000AA901EB43084FF0640101FB1751B1FB81
:1041A000F0F06C4617F0FF0204EB400505D004EB7D
:1041B00042010222082003F033FD022229460A2090
:1041C00003F02EFD022241460C2003F029FD4FF0A2
:1041D0000A01B6FBF1F3B6FBF9F201FB13630AAD7A
:1041E00005EB430712F0FF004FF0640303FB12627C
:1041F000B2FBF1F16A4602EB410505D004EB400148
:104200000222104603F00CFD02222946042003F08E
:1042100007FD02223946062003F002FD1AB0BDE870
:10422000F08700000F0506000B060F0206030D03C2
:104230000D0707000F070F03050F0006060B020FFF
:104240000306030D070D0007070F030F0F0D0608E8
:104250000B0E0F0A060B0D0B0D0F07080F0F0F0BA0
:104260000D0F08060E0B0A0F0B060B0D0F0D08079E
:104270000F0F0B0F04000020380100202DE9F0473C
:104280009AB004460D46164614226FA105A8FCF705
:10429000F7FE142271A16846FCF7F2FE142274A105
:1042A0000FA8FCF7EDFE142276A10AA8FCF7E8FEA1
:1042B00001211C2003F0DAFC01211F2003F0D6FCB1
:1042C0000C211A2003F0D2FC734F387818B9002162
:1042D000182003F0CBFC3878012803D104211820E2
:1042E00003F0C4FC3878022803D10221182003F01F
:1042F000BDFC3878032803D10121182003F0B6FC57
:10430000664F387818B90A211F2003F0AFFC3878BF
:10431000012803D10C211F2003F0A8FC4FF47A716F
:10432000B4FBF1F001FB10434FF0640AB3FBFAF168
:1043300001F0FF090A21B4FBF1F301FB13430FAFB6
:1043400007EB43085346B4FBF3F70AFB1747B7FBE9
:10435000F1F10DF1140C0CEB4107C2B24FF47A717C
:1043600001FB1040B0FBFAF0C0B20CEB400432B1DC
:104370000CEB42010222162003F052FC02E0B9F1DC
:10438000000F04D002222146142003F049FC02222F
:104390003946122003F044FC02224146102003F06B
:1043A0003FFC4FF00A00B5FBF0F3D146B5FBF9F73F
:1043B00000FB13530AA901EB43084FF0640101FB12
:1043C0001751B1FBF0F06C4617F0FF0204EB40050B
:1043D00005D004EB42010222082003F021FC022256
:1043E00029460A2003F01CFC022241460C2003F05F
:1043F00017FC4FF00A01B6FBF1F3B6FBF9F201FB33
:1044000013630AAD05EB430712F0FF004FF064039E
:1044100003FB1262B2FBF1F16A4602EB410505D0E3
:1044200004EB40010222104603F0FAFB0222294667
:10443000042003F0F5FB02223946062003F0F0FBCE
:104440001AB0BDE8F08700000F0506000B060F024A
:1044500006030D030D0707000F070F03050F0006E6
:10446000060B020F0306030D070D0007070F030FCE
:104470000F0D06080B0E0F0A060B0D0B0D0F07088C
:104480000F0F0F0B0D0F08060E0B0A0F0B060B0D6F
:104490000F0D08070F0F0B0F04000020380100203C
:1044A0001CB50121022002F03FFFE0200090012016
:1044B0008DF8040000208DF8060002200F4C8DF8C6
:1044C000050069462046FDF78DFC20212046FDF7BA
:1044D000E0FC40212046FDF7DCFC80212046FDF772
:1044E000D8FC022003F0A4F8292003F0A1F8012051
:1044F00003F09EF8032003F09BF81CBD000402406B
:10450000FEE700007CB5134E4FF4005529463046B7
:10451000FDF7BDFC01208DF8040002206C008DF831
:104520000500009469463046FDF75CFC21463046A4
:10453000FDF7ADFC022007F07FFD29463046FDF770
:10454000A8FC022007F078FD29463046FDF79FFCC5
:104550007CBD0000000402401CB50121022002F0D5
:10456000E3FE4FF4E040009001208DF804000220AB
:104570000A4C8DF8050069462046FDF733FCA1146E
:104580002046FDF784FC4FF400512046FDF781FCE6
:104590004FF480412046FDF77CFC1CBD0004024026
:1045A0007CB5134E4FF4005529463046FDF76FFC9D
:1045B00001208DF8040002206C008DF805000094A5
:1045C00069463046FDF70EFC21463046FDF761FC9A
:1045D000022007F031FD29463046FDF75AFC022043
:1045E00007F02AFD29463046FDF751FC7CBD00004E
:1045F000000402402DE9FC4700241B4E80464FF486
:1046000080478DF8044000978DF807406946304692
:10461000FDF7E8FB0025B9467F1039463046FDF727
:1046200036FC022007F008FD39463046FDF731FC24
:104630006006040E49463046FDF722FC08B1641CB2
:10464000E4B2012007F0F8FC6D1CEDB2082DE4D3B4
:10465000B8F1000F04D0FFF755FF2046BDE8FC87F6
:10466000FFF79EFFF9E70000000402402DE9FC4738
:10467000054601208DF8040002201A4E4FF48047B1
:104680008DF80500009769463046FDF7ABFB4FF407
:10469000005841463046FDF7FAFBB946002447462C
:1046A00028064946304602D4FDF7F1FB01E0FDF74C
:1046B000F0FB6806050E022007F0BEFC39463046C6
:1046C000FDF7E7FB022007F0B7FC39463046FDF75F
:1046D000DEFB022007F0B0FC641CE4B2082CDFD340
:1046E000BDE8FC87000402407CB501208DF8040081
:1046F0000220114D4FF480448DF805000094694666
:104700002846FDF76FFB21462846FDF7C2FB6610E1
:1047100031462846FDF7BDFB032007F08DFC2146FE
:104720002846FDF7B4FB032007F086FC31462846F7
:10473000FDF7ADFB7CBD0000000402407CB501200C
:104740008DF804000220114D4FF480448DF80500CF
:10475000009469462846FDF745FB66103146284619
:10476000FDF795FB21462846FDF791FB032007F056
:1047700063FC31462846FDF78CFB21462846FDF7B1
:1047800088FB032007F058FC7CBD000000040240B9
:104790002DE9FC410024184E4FF480458DF804406B
:1047A00000958DF8074069463046FDF71BFB29460A
:1047B0003046FDF76EFB012007F03EFC6F103946D6
:1047C0003046FDF766FB012007F036FC08E0641C6C
:1047D000E4B2FA2C04D9FFF7B1FF0120BDE8FC8157
:1047E00029463046FDF74CFB0028F0D139463046CB
:1047F000FDF74DFB0020F1E70004024002494AF6B4
:10480000AA20086070470000003000402DE9F04702
:104810009CB001215E4802F087FD01214FF4E06069
:1048200002F0A6FD4FF0806000905A4801900125EB
:10483000594802A9002431C106A8EE026F034FF4C3
:1048400080784FF400390594A0E8D003CDE90B45FA
:10485000DFF848A10D94694650460E94FDF7EAF83A
:1048600001215046FDF7DCF84D4802A9CDE9004092
:104870004948DFF828A1801C31C106A80594A0E8AA
:10488000D003CDE90B45AAF1180A0D9469465046AC
:104890000E94FDF7CFF801215046FDF7C1F86806E8
:1048A0000090404801903C4802A9001D31C106A873
:1048B0000594A0E8D003394ECDE90B4518360D9488
:1048C000694630460E94FDF7B5F801213046FDF7F4
:1048D000A7F83F20032615908DF858608DF85B40AF
:1048E00015A93148FDF77EFA922015908DF8586091
:1048F0008DF85B4015A92D48FDF774FA17941894AC
:10490000199417A81A94FCF70DFD0F948DF84040E8
:10491000119413941F4C8DF841504C3C8DF850501D
:104920000FA92046FCF72AFD1E4D0FA94C3D284635
:10493000FCF724FD1A4E0FA94C3E3046FCF71EFD35
:1049400001212046FCF710FD01212846FCF70CFD53
:1049500001213046FCF708FD01212046FCF7FAFC56
:1049600001212846FCF7F6FC01213046FCF7F2FC59
:1049700001212046FCF7CCFC01212846FCF7C8FCAD
:1049800001213046FCF7C4FC1CB0BDE8F0870000F4
:10499000050040004C220140100000202864024025
:1049A0004C2001404C210140000802400000024020
:1049B0001CB50121082002F0B7FC4FF4FE40002492
:1049C00000908DF8044069460848FDF70BFA012174
:1049D000102002F0A9FC4FF4607000908DF80440A4
:1049E00069460348FDF7FEF91CBD0000000C0240BB
:1049F000001002404FF400410148FDF748BA0000A2
:104A0000000C024010B54FF400410348FDF741FA95
:104A100002496420087310BD000C02400000002011
:104A20002DE9F0470C46F9A1904699468CB091E8E3
:104A30002C00C968DDF850A0CDE90251F7A1CDE9FD
:104A4000002391E82C00C968CDE90423CDE9065183
:104A5000F6A104AE91E82C00C96808AFCDE90A516F
:104A6000611E6D46CDE9082340B101287DD10F2993
:104A70007CD8CCB2B8F1000F79D0D4E00F2974D82B
:104A8000CCB2B8F1000F11D1385D012140F4E070D3
:104A9000FCF708FF285D012140F4E070FCF702FFFD
:104AA000305D012140F4E070FCF7FCFEB9F1000F2D
:104AB00011D1385D022140F4E070FCF7F3FE285D6F
:104AC000022140F4E070FCF7EDFE305D022140F47D
:104AD000E070FCF7E7FEBAF1000F11D1385D032159
:104AE00040F4E070FCF7DEFE285D032140F4E07046
:104AF000FCF7D8FE305D032140F4E070FCF7D2FEF5
:104B0000B8F1010F11D1305D012140F4E070FCF7E4
:104B1000C9FE285D012140F4E070FCF7C3FE385D5A
:104B2000012140F4E070FCF7BDFEB9F1010F11D195
:104B3000305D022140F4E070FCF7B4FE285D0221F4
:104B400040F4E070FCF7AEFE385D022140F4E07006
:104B5000FCF7A8FEBAF1010F15D1305D032140F436
:104B6000E070FCF79FFE285D02E0B7E0C6E048E099
:104B700040F4E0700321FCF795FE385D032140F41A
:104B8000E070FCF78FFEB8F1020F11D1385D012102
:104B900040F4E070FCF786FE305D012140F4E070E7
:104BA000FCF780FE285D012140F4E070FCF77AFEFE
:104BB000B9F1020F11D1385D022140F4E070FCF729
:104BC00071FE305D022140F4E070FCF76BFE285D61
:104BD000022140F4E070FCF765FEBAF1020F7DD1CE
:104BE000385D032140F4E070FCF75CFE305D03218A
:104BF00040F4E070FCF756FE285D032140F4E070BD
:104C0000FCE0385D012140F4E070FCF74BFE285DCC
:104C1000012140F4E070FCF745FE305D012140F4D5
:104C2000E070FCF73FFEB9F1000F11D1385D0221B1
:104C300040F4E070FCF736FE285D022140F4E0709D
:104C4000FCF730FE305D022140F4E070FCF72AFEF4
:104C5000B8F1010F11D1305D012140F4E070FCF793
:104C600021FE285D012140F4E070FCF71BFE385D59
:104C7000012140F4E070FCF715FEB9F1010F11D1EC
:104C8000305D022140F4E070FCF70CFE285D02214B
:104C900040F4E070FCF706FE385D022140F4E0705D
:104CA000FCF700FEB8F1020F11D1385D012140F48C
:104CB000E070FCF7F7FD305D012140F4E070FCF797
:104CC000F1FD285D012140F4E070FCF7EBFDB9F146
:104CD000020F13D1385D40F4E07000E08FE0022154
:104CE000FCF7E0FD305D022140F4E070FCF7DAFDF6
:104CF000285D022140F4E070FCF7D4FD113C0F2C3C
:104D00007DD8E4B2B8F1000F11D1385D042140F430
:104D1000E070FCF7C7FD285D042140F4E070FCF76B
:104D2000C1FD305D042140F4E070FCF7BBFDB9F13A
:104D3000000F11D1385D052140F4E070FCF7B2FDA1
:104D4000285D052140F4E070FCF7ACFD305D0521E5
:104D500040F4E070FCF7A6FDB8F1010F11D1305D11
:104D6000042140F4E070FCF79DFD285D042140F42F
:104D7000E070FCF797FD385D042140F4E070FCF72B
:104D800091FDB9F1010F11D1305D052140F4E070C2
:104D9000FCF788FD285D052140F4E070FCF782FDFA
:104DA000385D052140F4E070FCF77CFDB8F1020F9E
:104DB00011D1385D042140F4E070FCF773FD305DE3
:104DC000042140F4E070FCF76DFD285D042140F4FF
:104DD000E070FCF767FDB9F1020F13D1385D0521D2
:104DE00040F4E070FCF75EFD305D052140F4E070BA
:104DF000FCF758FD285D052140F4E07000E001E07B
:104E0000FCF750FD0CB0BDE8F0870000383B3033B4
:104E1000282B2023181B1013080B0003393C3134B6
:104E2000292C2124191C1114090C01043A3D323596
:104E30002A2D22251A1D12150A0D02052DE9F0470B
:104E40000C46F9A11746984691E82C008EB0C96827
:104E5000CDE90823CDE90A51F7A1DDF8589091E892
:104E60002C00C968CDE90023CDE90251F6A10DF16E
:104E7000200A91E82C00C96804AECDE90651611EF4
:104E80006D46CDE9042338B101287DD10F297CD8A6
:104E9000CCB2002F7AD0C5E00F2975D8CCB297B923
:104EA000305D012140F4E070FCF7FCFC1AF80400CE
:104EB000012140F4E070FCF7F5FC285D012140F48D
:104EC000C070FCF7EFFCB8F1000F12D1305D022189
:104ED00040F4E070FCF7E6FC1AF80400022140F40C
:104EE000E070FCF7DFFC285D022140F4C070FCF7A5
:104EF000D9FCB9F1000F12D1305D032140F4E0700C
:104F0000FCF7D0FC1AF80400032140F4E070FCF731
:104F1000C9FC285D032140F4C070FCF7C3FC012FDD
:104F200012D1285D012140F4E070FCF7BBFC1AF8B7
:104F30000400012140F4E070FCF7B4FC305D012175
:104F400040F4C070FCF7AEFCB8F1010F12D1285D3F
:104F5000022140F4E070FCF7A5FC1AF804000221DD
:104F600040F4E070FCF79EFC305D022140F4C0701C
:104F7000FCF798FCB9F1010F16D1285D032140F42C
:104F8000E070FCF78FFC02E0ACE0BEE037E01AF81E
:104F90000400032140F4E070FCF784FC305D032141
:104FA00040F4C070FCF77EFC022F0BD1305D012174
:104FB00040F4C070FCF776FC285D012140F4C0701D
:104FC000FCF770FCB8F1020F0BD1305D022140F408
:104FD000C070FCF767FC285D022140F4C070FCF74C
:104FE00061FCB9F1020F7DD1305D032140F4C07046
:104FF000FCF758FC285D032140F4C0700EE1305DE1
:10500000012140F4E070FCF74DFC1AF80400012186
:1050100040F4E070FCF746FC285D012140F4C070CC
:10502000FCF740FCB8F1000F12D1305D022140F4D2
:10503000E070FCF737FC1AF80400022140F4E0703D
:10504000FCF730FC285D022140F4C070FCF72AFC1C
:10505000012F12D1285D012140F4E070FCF722FC01
:105060001AF80400012140F4E070FCF71BFC305DED
:10507000012140F4C070FCF715FCB8F1010F12D10A
:10508000285D022140F4E070FCF70CFC1AF80400E3
:10509000022140F4E070FCF705FC305D022140F491
:1050A000C070FCF7FFFB022F0BD1305D012140F4F3
:1050B000C070FCF7F7FB285D012140F4C070FCF7DD
:1050C000F1FBB8F1020F0BD1305D022140F4C0704A
:1050D000FCF7E8FB285D022140F4C070FCF7E2FB1E
:1050E000305D00E092E040F4E0700321FCF7DAFB71
:1050F0001AF80400032140F4E070FCF7D3FB285DAC
:10510000032140F4E070FCF7CDFB113C0F2C7DD85F
:10511000E4B297B9305D042140F4E070FCF7C2FBC3
:105120001AF80400042140F4E070FCF7BBFB285D92
:10513000042140F4C070FCF7B5FBB8F1000F12D1A8
:10514000305D052140F4E070FCF7ACFB1AF8040078
:10515000052140F4E070FCF7A5FB285D052140F433
:10516000C070FCF79FFB012F12D1285D042140F491
:10517000E070FCF797FB1AF80400042140F4E0709B
:10518000FCF790FB305D042140F4C070FCF78AFB13
:10519000B8F1010F12D1285D052140F4E070FCF751
:1051A00081FB1AF80400052140F4E070FCF77AFB5B
:1051B000305D052140F4C070FCF774FB022F0BD169
:1051C000305D042140F4C070FCF76CFB285D0421C5
:1051D00040F4C070FCF766FBB8F1020F0BD1305DF4
:1051E000052140F4C070FCF75DFB285D052140F40B
:1051F000C070FCF757FB305D062140F4E070FCF70F
:1052000051FB1AF8040040F4E07000E008E00621C9
:10521000FCF748FB285D062140F4E070FCF742FBF8
:105220000EB0BDE8F0870000383B3033282B202338
:10523000181B1013080B0003393C3134292C21248E
:10524000191C1114090C01043A3D32352A2D22256E
:105250001A1D12150A0D0205FEE770474FF4A060F3
:1052600000F032B870B50F21C478027801234FF0F6
:10527000E026E4B1124C246804F4E064C4F5E06470
:10528000C4F30724C4F10405E1404478AC408578B8
:105290000D4025430B4C29011155007800F01F01EA
:1052A0008B40400906EB8000C0F8003170BD02F071
:1052B0001F008340500906EB8000C0F8803170BDAC
:1052C0000CED00E000E400E00249084302490860F8
:1052D000704700000000FA050CED00E07047000088
:1052E00070B505000E46144605D036B10E488078DC
:1052F00028B112200DE004200BE00C2009E02878F2
:10530000012808D0022806D0032804D0042802D09F
:105310000120107070BDFAF7C7FF6E61FAF7C8FF81
:105320000020207070BD0000A800002030B587B0BC
:1053300000F070F82A48002404638470C47004727A
:10534000C471C460C4618461446144708471214645
:1053500000F134025454491CC9B20829FAD304712B
:1053600044718462046201F049F801F01BF800F016
:10537000F3FF01F085F801F0A9F802AA0325202027
:1053800031C218494FF6FF70CDE9000101F17C02EE
:105390003F230021144800F09FFA05AA13A13F20E3
:1053A00000F0F8FA02AA402031C214494FF6FE700C
:1053B000CDE9000101F1FC023E230021104800F07C
:1053C0008BFA05AA0FA13E2000F0E4FA00F090FC51
:1053D00000F026F807B0BDE83040FFF77FBF0000BF
:1053E000A800002034BA00208966000875432F4FBA
:1053F000532D49492049646C6500000034B90020F0
:10540000A566000875432F4F532D494920537461F9
:10541000740000000149002008807047A4000020AB
:10542000704700000449C879012804D18878FF2812
:1054300001D2401C88707047A800002070B5144D40
:10544000E879012822D1FAF72FFF0446A87820B185
:10545000401E10F0FF00A87013D1E87888B901F061
:1054600079F80C48697950F82100A8622A799142AC
:1054700007D0C16B491CC163E868401CE860FAF7BB
:105480002FFF2046BDE87040FAF712BF70BD000044
:10549000A8000020B4BA002070B505460E48007878
:1054A00008B1002070BDFAF7FFFE01460B48046802
:1054B0000CB1626802600846FAF7FAFE4CB10120AE
:1054C00020700020208106A065606061204600F009
:1054D00039FF204670BD0000AA000020B80000205F
:1054E0003F0000002DE9F04705008846144604D02F
:1054F0002878012803D001200AE0042008E02C4885
:10550000007808B1022003E02A48007820B10D207D
:1055100010700020BDE8F087FAF7C6FE6E680746F7
:1055200000213EB1884638466960FAF7C1FE84F82A
:1055300000803AE0DFF880A08946DAF8000010F831
:10554000342F42F002020270417040F8048C284669
:1055500000F0CAFE3846FAF7ABFE00F0D7FFFAF7C4
:10556000A3FE0746DAF8000090F8351031B10229A1
:1055700008D0294600F088FE0A2004E0466A84F834
:10558000009001E00E202070DAF80010384601F19A
:105590001C0181F8189081F81990C1F80090C1F8A9
:1055A0000490C1F80890FAF783FE3046B2E7000095
:1055B000AA000020AB000020C800002070B5040045
:1055C0000D4605D035B12078012805D0012070BDE9
:1055D000042070BD032070BDFAF766FE0646A07A6F
:1055E00058B1002302222946204600F011FE304621
:1055F000FAF75EFE00F08AFF0AE0606820B13046EC
:10560000FAF756FE142070BD30466560FAF750FE7A
:10561000002070BD10B5094CE07901280CD1FAF7D3
:1056200043FEA17821B9E178FF2901D2491CE1703C
:10563000BDE81040FAF73CBE10BD0000A8000020F5
:1056400010B50D4CE079012814D1FAF72DFEE17860
:1056500031B1491E11F0FF01E17001D1A17819B1FA
:10566000BDE81040FAF724BEFAF722FEBDE810406C
:1056700000F04CBF10BD0000A800002070B505462A
:105680000E48007808B1002070BDFAF70DFE014603
:105690000B4804680CB1626802600846FAF708FE1D
:1056A0004CB10320207025810020606005A060615E
:1056B000204600F047FE204670BD0000AA000020F2
:1056C000B80000203F0000002DE9F04705008846A3
:1056D000144604D02878032803D001200AE00420CF
:1056E00008E02648007808B1022003E0244800784A
:1056F00018B10D201070BDE8F087FAF7D5FD064609
:105700002889002730B1401E28813046FAF7D0FDA5
:105710002770F0E7DFF86C90D9F8000010F8341F1C
:1057200041F001010170477040F8048C284600F0F8
:10573000DBFD3046FAF7BCFD00F0E8FEFAF7B4FDF9
:105740000646D9F8000090F8351031B1022906D08C
:10575000294600F099FD0A2002E0277001E00E20A2
:105760002070D9F8000000F11C000776477607602A
:1057700047603046BDE8F047FAF79ABDAA0000201E
:10578000AB000020C800002070B5040004D02078D1
:10579000032803D0012070BD042070BDFAF784FDFA
:1057A0000546A07A58B1002301221946204600F090
:1057B0002FFD2846FAF77CFD00F0A8FE09E02089BD
:1057C0004FF6FF71884206D2401C20812846FAF726
:1057D0006FFD002070BD2846FAF76AFD332070BDCA
:1057E00010B5094CE07900280CD100F0B3FE6079C7
:1057F0000649207151F82000A0622062BDE81040E7
:10580000FAF759BD10BD0000A8000020B4BA00206E
:1058100010B5022000F0C6F9FAF746FD084C002149
:10582000E161FAF745FD642000F0BCF9FAF73CFDB0
:10583000E169616101216170BDE81040FAF738BD8E
:10584000A8000020FBF743BE2DE9FE4305460F46A6
:1058500090461C463F2B02D92A20BDE8FE83FAF76A
:1058600023FD1A49097819B1FAF722FD3C20F4E723
:10587000174E56F8241019B1FAF71AFD2820ECE754
:10588000012146F82410FAF713FD00234246394659
:10589000284600F0FBF800270146009701973B4699
:1058A0003A462046029700F065FE050007D0FAF759
:1058B000FBFC46F82470FAF7FBFC2846CDE70548C8
:1058C00000780128F9D100F021FEF6E7AA000020B7
:1058D000B4BA0020AF0000202DE9F04F81462DED35
:1058E000028B83B08A46DDE90F879DED118A129DF8
:1058F00093461C463F2B05D92A2003B0BDEC028BF2
:10590000BDE8F08FFAF7D0FC1D49097819B1FAF714
:10591000CFFC3C20F1E71B4E56F8241019B1FAF7E2
:10592000C7FC2820E9E7012146F82410FAF7C0FC5B
:105930002A463946404600F0FDFE2B465A4651465F
:10594000484600F0A3F800978DED018A01460295C4
:10595000424620460E9B00F00DFE050008D0FAF7E7
:10596000A3FC002146F82410FAF7A2FC2846C4E75D
:10597000054800780128F9D100F0C8FDF6E70000DD
:10598000AA000020B4BA0020AF000020FBF7ECBD55
:10599000FBF7ECBD70B505460E4614463F2803D90B
:1059A000FF2D01D02A2004E02EB11248007820B14A
:1059B0001220107070BD0C20FBE7FAF775FC014651
:1059C000FF2D03D10C48006890F836500B4850F872
:1059D0002500432540B1012806D006650846FAF7A0
:1059E00067FC0020207070BD0846FAF761FC257046
:1059F00070BD0000AA000020C8000020B4BA00203A
:105A0000FBF716BF2DE9F04104460D463F2804D9A7
:105A1000FF2C02D02A20BDE8F08145B1002028608B
:105A20006860FAF741FC0146FF2C02D005E009202E
:105A3000F1E71448006890F83640134850F8240005
:105A400058B1012809D0028AD2070BD0D0E9024709
:105A500000260846FAF72CFC0AE00846FAF728FC6C
:105A60004320D8E70846FAF723FC4520D3E7761C05
:105A700001CC0028FBD0B0002860B81B8000686013
:105A80000020C8E7C8000020B4BA00204FF080739F
:105A90001360131F18606FF0010042F8080CA2F1A8
:105AA00038004FF012334FF00332C0E90A234FF0B1
:105AB000023242624FF00132C0E907124FF0113159
:105AC00081614FF0103141614FF0093101614FF0B8
:105AD0000831C1604FF0073181604FF006314160FD
