:020000040800F2
:10000000C0D40020690200088F4F00083542000864
:100010008D4F0008B11800080979000800000000A1
:100020000000000000000000000000009D720008B9
:10003000991A000800000000EB0200085174000843
:10004000830200088302000883020008830200087C
:10005000830200088302000883020008830200086C
:10006000830200088302000883020008830200085C
:10007000830200088302000883020008830200084C
:10008000830200088302000883020008830200083C
:10009000830200088302000883020008991B0008FD
:1000A000830200088302000883020008830200081C
:1000B000D1740008830200087975000883020008E3
:1000C00083020008830200088302000883020008FC
:1000D0008302000883020008CD760008A17700089B
:1000E0009D1A0008830200088302000883020008AA
:1000F00083020008830200088302000883020008CC
:1001000083020008830200088302000883020008BB
:1001100083020008830200088302000883020008AB
:10012000830200088302000883020008830200089B
:10013000830200088302000883020008830200088B
:10014000830200088302000883020008830200087B
:10015000830200088302000883020008830200086B
:10016000830200088302000883020008830200085B
:10017000830200088302000883020008830200084B
:10018000830200088302000800F002F800F05CF827
:100190000AA090E8000C82448344AAF10107DA45E2
:1001A00001D100F051F8AFF2090EBAE80F0013F0D8
:1001B000010F18BFFB1A43F001031847A4390100CF
:1001C000C43901000A444FF0000C10F8013B13F051
:1001D000070408BF10F8014B1D1108BF10F8015BA0
:1001E000641E05D010F8016B641E01F8016BF9D193
:1001F00013F0080F1EBF10F8014BAD1C0C1B09D1EA
:100200006D1E58BF01F801CBFAD505E014F8016B5B
:1002100001F8016B6D1EF9D59142D6D370470000ED
:100220000023002400250026103A28BF78C1FBD8FF
:10023000520728BF30C148BF0B6070471FB50DF093
:100240007EF81FBD10B510BD00F054FF1146FFF73A
:10025000F5FF0BF0A3FF00F072FF03B4FFF7F2FF0E
:1002600003BC00F073FF00000948804709480047BD
:10027000FEE7FEE7FEE7FEE7FEE7FEE7FEE7FEE756
:10028000FEE7FEE704480549054A064B70470000B3
:100290007574000889010008C0CE0020C0D4002079
:1002A000C0D00020C0D00020EFF3108072B670479D
:1002B00080F3108870471D484FF0FF010170002047
:1002C00080F309881A48012101701A484FF08051C3
:1002D000016062B6FEE717484FF080510160704739
:1002E00014484FF080510160704772B6EFF30980F7
:1002F00028B1203880E8F00F0F490968086000B580
:100300000E4880475DF804EB0D480E490A780270EC
:1003100009480D490A680260106890E8F00F203023
:1003200080F309884EF0040E62B6704722ED00E0BB
:100330009700002004ED00E0B0000020D558000830
:100340009400002095000020B800002072B670478D
:1003500062B67047EFF3108072B6704780F3108872
:100360007047B0FA80F0704790FAA0F0704730BF45
:10037000704720BF70470000DFED2E0AB5EEC00ABF
:1003800060EE200ABDEEE01A11EE100AF1EE10FA4E
:1003900038BF401E00EE100ADFED271AF7EE005AB4
:1003A000B8EEC00ADFED274A244930EEC01A21EE2C
:1003B000210AFCEEC00A10EE900A00EE900A01EB52
:1003C0008000B8EE600ADFED1E0AF0EC012A11EEA3
:1003D000210AF6EE001AB0EC013AF0EC013A20EEF8
:1003E000001A20EE216A40EE615A20EE245A21EED6
:1003F000212A90ED004A00EE602A66EE010A40EEE6
:10040000400A05EE412A70EEA55AF0EE400A41EE90
:10041000210A46EE410A25EE011A00EE641A22EE88
:10042000820A63EEA00A03EE250A44EE010A30EECA
:10043000200A704783F9223E00008043B4D40008AC
:10044000ABAAAA3EABAA2A3E9FED3A0A5FEA920CFB
:1004500053D000BFB0EC011A0B1DF0EC010A21EEE5
:10046000011A00EEA01AB5EEC01AF1EE10FAC6BFDE
:10047000F1EEC10AC1ED000A81ED000AF0EC010ABB
:10048000191DB0EC011A60EEA00A41EE010AF5EE6A
:10049000C00AF1EE10FAC6BFF1EEE00AC3ED000AA1
:1004A00083ED000AB0EC011A0B1DF0EC010A21EEFD
:1004B000011A00EEA01AB5EEC01AF1EE10FAC6BF8E
:1004C000F1EEC10AC1ED000A81ED000AB0EC011A9B
:1004D000191DF0EC010A21EE011A00EEA01AB5EE8A
:1004E000C01AF1EE10FAC6BFF1EEC10AC3ED000A60
:1004F00083ED000ABCF1010CACD112F0030208BF7D
:10050000704700BFF0EC010A0B46B0EC011A091D60
:1005100060EEA00A41EE010AF5EEC00AF1EE10FA13
:10052000C6BFF1EEE00AC3ED000A83ED000A521ED9
:10053000E8D17047000000002DE9F00700EBC10989
:10054000DDE90778D0F800A0C9F800A007EB011496
:10055000D0F804A0251FA9F10406C9F804A003EBF4
:10056000C80907F1080C00F1080402EBC8024B1E91
:1005700031D000BFF2EC011A96ED002A92ED001A7C
:1005800002EBC802B4EC010A121FF4EC012A60EE7F
:10059000210A20EE010A32EE823A02EEA10AD9EDDA
:1005A000001A43EE410A09EBC80902EE610A16ED92
:1005B000012A083E42EE210A02EE410AECEC010A51
:1005C000ACEC010AB1EE400A85ED000A45ED010AE6
:1005D000083D5B1ECED190ED000AD0ED010A07EB7D
:1005E000C10130EE600A81ED000A9FED5D0A81EDE8
:1005F000010AD0ED000A90ED011A70EE810AC7EDF4
:10060000000A87ED010ABDE8F007704770B400EBFF
:10061000C105DDE903C42D1D002904BF70BC70476E
:10062000F2EC011A95ED002A92ED001A02EBC402D9
:10063000B0EC010A121FF0EC012A60EE210A20EE54
:10064000410A32EE823A02EEA10AD3ED001A43EEDD
:10065000010A03EBC40302EE610A15ED012A083D0D
:10066000491E42EE210A02EE010AECEC010AACEC52
:10067000010AD5D170BC70472DE9F04305464469A5
:10068000807983B00F461646012809D0A3892188B6
:100690003846626800F036F9E87901284ED053E018
:1006A000AA88D5E9030307EBC20CD5F808803146C8
:1006B0000CF1040C5AB300BFB0EC011A9CED002AF7
:1006C000D0ED001A00EBC800B7EC010A001FF7ECF0
:1006D000012A521E60EE010A20EE610A32EE823AD1
:1006E00002EE810A93ED001A43EE210A03EBC803E0
:1006F00002EE410A1CED012AACF1080C42EE010A9F
:1007000002EE210AE1EC010AA1EC010AD4D194ED38
:10071000040AA38921883046626800F095FAE879D6
:1007200001281CBF03B0BDE8F083E2892188A368DB
:1007300003B03046BDE8F04300F08CB8E289218870
:100740003846A36800F086F8A868CDE90060D5E9CE
:100750000323A9883846FFF7EFFE03B0BDE8F08316
:100760000000000070B592B2DDF810C055080260BC
:100770008580184EC66006F50056DBB2066100247F
:10078000837180F807C0802A04BF102282600BD0DA
:10079000B2F5007F08BF042212D0B2F5006F14BF7B
:1007A0004FF0FF3401220BD0002B8C4641614FF0FB
:1007B000000307D001222946604600F015FC06E040
:1007C0008260F1E700222946604600F00DFC2046D9
:1007D00070BD0000C0D8000870B40025B0EC010A5C
:1007E000A1F1010CF0EC010AB4EEE00AF1EE10FA0E
:1007F0003CBFB0EE600A0125ACF10104A446B4F19F
:10080000004F0ED3F0EC010AB4EEE00AF1EE10FA5C
:100810003CBFB0EE600AA1EB0C05BCF1010CF1D1BC
:1008200013E0002CC8BF00260FDD00BFF0EC010A6A
:10083000B4EEE00AF1EE10FA04D2ACEB0605B0EE2D
:10084000600A4D1B761C641EF0D182ED000A1D600B
:1008500070BC70472DE9F0014E0801244FF0000CE8
:1008600004EB51076146A6F102082CE061452AD24B
:1008700000EBCC0500EBC104D5ED000A94ED000AB5
:10088000C4ED000A85ED000AD5ED010A94ED010AD8
:10089000C4ED010A85ED010A0CEB0705CC1900EB4C
:1008A000C50500EBC404D5ED000A94ED000AC4EDC3
:1008B000000A85ED000AD5ED010A94ED010AC4EDA8
:1008C000010A85ED010A00EBC104B44400EBCC0C35
:1008D00094ED020ADCED000A891CC4ED020A8CEDDD
:1008E000000A94ED030ADCF80450E5608CED010A7F
:1008F000B3F800C089B203EB42034145B6D9BDE865
:10090000F00170472DE9F04F4FEA910C4FF00008CD
:100910004746644608EB0C0505EB0C0909EB0C0691
:1009200000EBC80A00EBC9099AED000AD9ED000AEC
:1009300099ED012A00EBC50530EE201A30EE600A71
:10094000DAED010A00EBC60608F1010870EE821A22
:1009500070EEC20A95ED002AD6ED002A641E32EE32
:10096000222A71EE022A31EE421ACAED002A95EDD2
:10097000012AD6ED012A32EE222A71EE822A71EE88
:10098000C21ACAED012A95ED012AD6ED012A96ED8B
:10099000003A4FEA470A32EE622AD5ED002A02EB0E
:1009A000CA0B72EEC32A9BED003ADBED013A21EE51
:1009B000034A01EEA34A61EE831A41EE631A85ED04
:1009C000004A30EE021A30EE420AC5ED011A02EB7F
:1009D000C70570EEE21A95ED002A70EEA20AD5ED79
:1009E000012A21EE023A0AEB070502EBC5051F4476
:1009F00001EEA23A61EE821A41EE621A89ED003AE6
:100A0000C9ED011AD5ED001A95ED011A20EE212A43
:100A100000EE812A60EEA10A40EE410A86ED002A2E
:100A2000C6ED010A7FF476AF9B044FEA134BE6460E
:100A3000BCF1040F7DD9E0464FEA9C0C4FF0000951
:100A4000CA46BCF1000F75D94FEA490404EB09030B
:100A500002EBC90502EBC40402EBC30395ED001AD7
:100A6000D5ED011A94ED000AD4ED010A93ED002AA8
:100A7000D3ED012AD94453468A4573D203EB0C04C3
:100A800004EB0C0606EB0C0500EBC30700EBC606F7
:100A900097ED003AD6ED003A96ED015A00EBC4040A
:100AA00073EE234A33EE633AD7ED013A00EBC50506
:100AB00033EE854A73EEC53A94ED005AD5ED005AEF
:100AC00035EE255A74EE855A74EEC54AC7ED005AC4
:100AD00094ED015AD5ED015A35EE255A74EE055ABA
:100AE00034EE454AC7ED015A94ED015AD5ED015A4D
:100AF00095ED006A35EE655AD4ED005A75EEC65A8A
:100B000024EE806A04EE206A24EE004A04EEE04AF5
:100B100084ED006A73EEE54A73EEA53A84ED014A6E
:100B200033EE054A33EE453A24EE015A04EEA15A5B
:100B300001E026E01BE064EE814A86ED005A434462
:100B40008B4244EE614A23EE024A03EEA24A63EE70
:100B5000823AC6ED014A43EE623A85ED004AC5EDA0
:100B6000013A8BD30AF1010AE245FFF46DAF4FEA77
:100B70008B434FEA9E0E4FEA134BBEF1040F3FF634
:100B80005AAFA1EB0C0100224B1C4FEA9C04002B36
:100B90008CBF1F46BDE8F08F11190E19331900EBF9
:100BA000C20500EBC60695ED000AD6ED000A95EDEC
:100BB000012A96ED011A70EE201A70EE600A32EEEC
:100BC000010A00EBC10100EBC30332EE411A91EDC3
:100BD000002AD3ED002A6244974232EE222A71EEB7
:100BE000822A31EEC22AC5ED002AD1ED011AD3EDD9
:100BF000012A71EEA21A70EE212AC5ED012A70EECB
:100C0000612A91ED010AD3ED011A93ED003A70EEDD
:100C1000611A91ED000A81ED002AC1ED012A30EE42
:100C2000430A30EEA12A70EEE10A71EE401A31EE6D
:100C3000000A86ED002AC6ED011AC3ED000A83ED15
:100C4000010AA9D8BDE8F08F2DE9F04F4FEA910CC9
:100C50004FF000084746644608EB0C0505EB0C0A0C
:100C60000AEB0C0600EBC80900EBCA0AD9ED000A32
:100C70009AED001ADAED012A00EBC50570EE811A33
:100C800070EEC10A99ED011A00EBC60608F10108E1
:100C900031EE222A31EE621AD5ED002A96ED003AA5
:100CA000641E72EE832A31EEA23A71EEE21A89EDE9
:100CB000003AD5ED012A96ED013A72EE832A32EE22
:100CC000223A32EE622A89ED013AD5ED012A96EDFB
:100CD000013AD6ED003A4FEA470972EEC32A95ED84
:100CE000003A02EBC90B33EE633ADBED003A9BEDC1
:100CF000014A61EEA34A42EE444A22EE232A01EE63
:100D0000842AC5ED004A70EEE21A70EEA20A85ED63
:100D1000012A02EBC70531EE032AD5ED002A31EE98
:100D2000431A95ED013A61EEA23A09EB070502EB91
:100D3000C5051F4442EE433A22EE222A01EE832AE1
:100D4000CAED003A8AED012AD5ED001A95ED012A87
:100D500060EEA12A41EE422A21EE211A00EE821A0B
:100D6000C6ED002A86ED011A7FF476AF9B044FEAA8
:100D7000134BE646BCF1040F7DD9E0464FEA9C0CCC
:100D80004FF00009CA46BCF1000F75D94FEA49047B
:100D900004EB090302EBC90502EBC40402EBC30335
:100DA000D5ED001A95ED012AD4ED000A94ED011A53
:100DB000D3ED002A93ED013AD94453468A4573D2C4
:100DC00003EB0C0404EB0C0606EB0C0500EBC3076D
:100DD00000EBC606D7ED003A96ED004AD6ED015A73
:100DE00000EBC40433EE845A73EEC43A97ED014A23
:100DF00000EBC50574EE254A34EE654AD4ED005A81
:100E000095ED006A75EE865A35EE256A35EE655A1F
:100E100087ED006AD4ED015A95ED016A75EE865AA8
:100E200034EEA56A74EEE54A87ED016AD4ED015A05
:100E300095ED016AD5ED006A75EEC65A94ED006A2B
:100E400036EE666A65EE206A44EEC16A64EEA04A38
:100E500045EE014AC4ED006A34EE065A34EE464AC5
:100E6000C4ED014A73EEE54A73EEA53A64EEA15A69
:100E700045EE425A01E026E01BE025EE215AC6ED80
:100E8000005A43448B4204EE825A63EEA24A44EE77
:100E9000434A24EE224A86ED015A03EE834AC5ED09
:100EA000004A85ED014A8BD30AF1010AE245FFF4BD
:100EB0006DAF4FEA8B434FEA9E0E4FEA134BBEF1E4
:100EC000040F3FF65AAFA1EB0C0100224B1C4FEA76
:100ED0009C06002B8CBF1F46BDE8F08F91198D1921
:100EE000AB1900EBC20400EBC505D4ED000AD5ED4B
:100EF000001AD4ED012A95ED012A30EEA11A70EE08
:100F0000E11A72EE820A00EBC10100EBC30332EE7C
:100F1000C22AD1ED002A93ED003A6244974272EE64
:100F2000832A31EE223A71EE622A23EE003A62EE13
:100F3000802A84ED003A91ED011A93ED013A31EEE9
:100F4000031A30EE813A23EE003A84ED013A30EE96
:100F5000C13AD1ED010A93ED011AD3ED003A30EE1A
:100F6000C11AD1ED000AC1ED002A63EE002A70EE2D
:100F7000E30AC1ED012A71EEC12A31EE811A72EE47
:100F8000201A72EE600A22EE802A21EE001A61EE2B
:100F9000801A85ED002A60EE800AC5ED011A83ED06
:100FA000001AC3ED010A99D8BDE8F08F30B50446A8
:100FB0000D4680782188A389626801280DD02846D3
:100FC000FFF7A0FCE078012818BF30BDE289218836
:100FD0002846A368BDE830403CE494ED040A284666
:100FE000FFF732FEEEE7000010B401801B4C4460B6
:100FF00082704FF0000CC370102925D040291BD0FF
:10100000B1F5807F10D0B1F5806F18BF4FF0FF3C75
:1010100002D010BC6046704701218181C181104916
:101020009FED100A816016E004218181C1810E4983
:101030009FED0E0A81600EE010218181C1810C4973
:101040009FED0C0A816006E040218181C1810A493F
:101050009FED0A0A816080ED040ADAE7C0180108F2
:10106000C03801080000803AC63801080000803B03
:10107000DE3801080000803C3E3901080000803D58
:1010800010B5203AC0F00B80B1E81850203AA0E823
:101090001850B1E81850A0E81850BFF4F5AF5FEA57
:1010A000027C24BFB1E81850A0E8185044BF18C90A
:1010B00018C0BDE810405FEA827C24BF51F8043BB1
:1010C00040F8043B08BF7047D20728BF31F8023B05
:1010D00048BF11F8012B28BF20F8023B48BF00F899
:1010E000012B7047704770477047000000487047F9
:1010F0005CCE00207546FFF7F9FFAE460500694655
:10110000534620F00700854618B020B5FFF7BAF81F
:10111000BDE820404FF000064FF000074FF00008F8
:101120004FF0000B21F00701AC46ACE8C009ACE879
:10113000C009ACE8C009ACE8C0098D467047044658
:10114000AFF300802046FFF788F870470149182068
:10115000ABBEFEE72600020010B5064C01220023BC
:101160001146204600F030F92046BDE8104000F05E
:1011700065B900000020014010B5064C0023012293
:101180000C21204600F020F92046BDE8104000F078
:1011900055B900000020014010B5064C0023012283
:1011A0000421204600F010F92046BDE8104000F070
:1011B00045B900000020014010B5064C0023012273
:1011C0000721204600F000F92046BDE8104000F05D
:1011D00035B900000020014070B59CB001212F48B6
:1011E00005F014FF01214FF4E06005F033FF4FF0EC
:1011F000007000902A4801902A4802A90024012585
:1012000031C1E802CDE90640800008904011099004
:101210000AA90594400231C1234E0D946946304617
:101220000E9400F00FFC0121304600F001FC032079
:101230008DF8680019958DF86B4019A91B4800F0CE
:10124000D9FD15941694179415A8189400F06AF80F
:101250000F948DF8404011941394114C8DF8415027
:101260004C3C8DF850500FA9204600F087F8002321
:1012700001220821204600F0A7F80121204600F0B5
:1012800073F80121204600F065F80121204600F0A6
:101290003FF8204600F0D2F81CB070BD02004000BC
:1012A0004C2101401600002040640240000402402E
:1012B00010B5064C002301220A21204600F084F8D4
:1012C0002046BDE8104000F0B9B8000000220140FF
:1012D00010B5064C002301220B21204600F074F8C3
:1012E0002046BDE8104000F0A9B8000000220140EF
:1012F00010B5064C002301220C21204600F064F8B2
:101300002046BDE8104000F099B8000000220140DE
:101310000029816802D041F0010101E021F00101C2
:1013200081607047094B10B51A68094902EA010249
:10133000D0E9001441EA0401D0E9024044EA000483
:1013400041EA040141EA0201196010BD0423014091
:10135000E030FCFF0029816802D041F4807101E097
:1013600021F48071816070470029816802D041F4C6
:10137000007101E021F400718160704730B542686E
:101380000F4B0C791A400B6842EA04221343436066
:1013900082680C4B4D791A40D1E9034323438C6892
:1013A00044EA4504234313438360C26A097D22F45F
:1013B0007002491EC9B242EA0151C16230BD00004B
:1013C000FFFEFFFCFDF7FFC070B5072509290AD90C
:1013D000C468A1F10A0606EB4606B540AC43B3402B
:1013E0001C43C46007E0046901EB4106B540AC430F
:1013F000B3401C4304611F23072A09D2446B521EC9
:1014000002EB820293409C4391400C43446370BDC5
:101410000D2A09D2046BD21F02EB820293409C4337
:1014200091400C43046370BDC46A0D3A02EB820222
:1014300093409C4391400C43C46270BD816841F06D
:1014400080418160704702F021BF10B5044602F070
:10145000E5FFA02002F0A4FF03F034F8200A02F018
:101460009FFF03F02FF8E0B202F09AFF03F02AF892
:1014700002F0D4FFA12002F093FF03F023F8002034
:1014800002F052FF044602F0F3FF204610BD70B593
:1014900004460D4602F0C2FFA02002F081FF03F0D7
:1014A00011F8200A02F07CFF03F00CF8E0B202F021
:1014B00077FF03F007F8284602F072FF03F002F806
:1014C00002F0D6FFBDE870400A2009F0FBBF70476C
:1014D00038B5002003F07AFE174CA064002003F01A
:1014E00075FEE064002003F063FF6065002003F0F8
:1014F0006DFE2065002003F05BFFA0656A460FA12A
:101500000A2004F0E1F803230F4A00210F4804F0F9
:1015100035F802230E4A00210E4804F02FF801236B
:101520000D4A00210D4804F029F800230C4A194601
:101530000C4804F023F838BD000000205374617299
:1015400074205461736B000094150020711500081D
:1015500094B500204918000894B60020A917000887
:1015600094B7002039C8000804F0F0BB70470000B1
:1015700008B5894F894EDFF828B28A4D04F080FF04
:10158000387801287BD14FF400594946304600F0A5
:101590007FFC00284FD1A87BE96D07F08DF8044649
:1015A00001282DD15A46A87BDBF8101007F084F8EB
:1015B0000346A87B116807F07FF88446E87313B1EF
:1015C000012B15D01CE09046A87B516807F074F8F9
:1015D0000246A87BD8F8081007F06EF80346A87BEF
:1015E000D8F80C1007F068F80090A97BE87B05E0BC
:1015F0000220009003460246A97B604603F0B8FA39
:10160000A87B401CA8734946304600F041FC0028E6
:10161000F9D0A87B202801D90120A873C2B208E024
:101620001046E96D07F048F8044601280BD0521C1B
:10163000D2B2202AF4D94FF400694946304600F06E
:1016400027FC20B152E0AA7300202886F3E7A87B8C
:10165000E96D07F031F8044601282DD1D846A87B62
:10166000DBF8101007F028F80246A87BD8F8001025
:1016700007F022F8E8731AB1012A16D01CE086E0C0
:10168000A87BD8F8041007F017F80246A87BD8F812
:10169000081007F011F80346A87BD8F80C1007F0E3
:1016A0000BF80090A97BE87B04E002210B460A4678
:1016B0000091A97B03F05CFAA87B401EA873494601
:1016C000304600F0E5FB0028F9D0A87B08B92020BF
:1016D000A873C2B208E01046E96D06F0EDFF0446BB
:1016E000012806D0521ED2B2002AF4D1012C03D018
:1016F0004DE0AA7300202886D846A87BDBF810109E
:1017000006F0DAFF0246A87BD8F8001006F0D4FFF6
:101710008446E87312B1012A24D038E0A87BD8F8B7
:10172000041006F0C9FF8246A87BD8F8081006F01E
:10173000C3FF8146A87BD8F80C1006F0BDFF804699
:10174000A879012807D1CDF800804B465246A97BE5
:10175000E87B03F00DFAA879C8B94B465246CDF89C
:10176000008010E0A879012807D1022000900346EC
:101770000246A97B604603F0FBF9A87938B902203C
:10178000034602460090A97BE87B02F0E3FF642059
:1017900009F098FEF2E600002A010020000C024049
:1017A00098B70020000000201CB51D4F1D4C4FF4C1
:1017B00080760025207B01282ED1606D03F07EFE0F
:1017C0003146384600F064FB012801D10220E07266
:1017D0003146384600F05CFBF0B9E08EE0B1401EC7
:1017E000E0864FF02F08DFF84090CDE90058012344
:1017F00099F801001A4600210AF040FDCDE9005891
:1018000099F801000223012200210AF037FDE08E41
:10181000012801D1E572E586642009F053FEC9E78D
:101820000010024000000020BAB7002010B503F0FD
:1018300089FEFFF74DFEBDE810400A2003F0F2BF1D
:10184000704704F08BBA000008B5154C154D002602
:101850006A460021606D03F0D1FD207C012803D190
:1018600011480AF0BFFB26740F4BA3F1140202F1DA
:101870002801A1F5B9700AF077FD0B491439A1F5DB
:10188000A5700AF05BF928780028E1D1064BA3F196
:10189000140202F12801A1F5B97006F013FFD7E791
:1018A000000000202A0100208E02002004F068BA07
:1018B000FEE700002DE9F0470646481E0C460528C5
:1018C00021D8374F00254FF400794FF48078F00786
:1018D0004946384602D000F0E4FA01E000F0DFFAB1
:1018E0004146384600F0DBFA7608042009F008FE8D
:1018F0004146384600F0D5FA042009F001FE6D1C7F
:10190000EDB20C2DE3D3274D012C19D0022C20D0A1
:10191000032C27D0042C2ED0052C35D0062C3CD1FE
:101920002021284600F0BDFA042009F0E9FD20211D
:10193000284600F0B4FABDE8F047042009F0E0BD05
:101940000121284600F0ADFA042009F0D9FD01215B
:10195000EEE70221284600F0A4FA042009F0D0FDA9
:101960000221E5E70421284600F09BFA042009F053
:10197000C7FD0421DCE70821284600F092FA042084
:1019800009F0BEFD0821D3E71021284600F089FAAE
:10199000042009F0B5FD1021CAE7BDE8F08700007A
:1019A00000040240000C02407CB50121022005F039
:1019B0002DFB01244FF440708DF804400025009069
:1019C0008DF8065002268DF8056069460E4800F035
:1019D00011FA0121082005F019FB3F208DF8044081
:1019E00000908DF806508DF805606946074800F0B4
:1019F00001FA40F2014521462846FFF75BFF641CCF
:101A0000E4B2052CF7D97CBD00040240000C024072
:101A100070B5002500240021284605F09DFF641CB8
:101A2000E4B2042CF7D36D1CEDB2202DF2D370BDBF
:101A30000029016802D041F0010101E021F001011B
:101A40000160704730B50368124ACC6813400A68D9
:101A50002243D1E905452C432243CC6922430C6A39
:101A600022434C6A22438C6A22434C6B22438C6B88
:101A700022431A430260426922F00703D1E90B2492
:101A800022431A4342610A6942604A688260896857
:101A9000C16030BD3F801CF0704700002DE9FC475D
:101AA00003F05AFB4FF4805A504600F059F9DFF822
:101AB000DC80374E374C4FF000092F2518B398F8CB
:101AC000000001281FD1E07B012811D1CDE900954C
:101AD00001234F4670781A46A17B0AF0CFFBCDE96F
:101AE0000075707802230122A17B0AF0C7FB2786CC
:101AF000E07B40B91720CDE90005012370781A4634
:101B0000A17B09F0A1FB504600F086F84FF4804A13
:101B1000504600F025F988B398F8000001282DD12F
:101B2000E07B01281FD1618E208E4FF0010751EA22
:101B3000000202D001290AD015E0CDE90075012389
:101B400070781A46A17B0AF099FB67860AE050B9C3
:101B5000CDE90075707802230122A17B0AF08EFB8B
:101B6000A4F832902786E07B40B92020CDE900051B
:101B7000012370781A46A17B09F066FB504600F0FD
:101B80004BF8BDE8FC4703F0F3BA00002A0100203F
:101B9000BAB70020000000202DE9FC4103F0DCFA78
:101BA0004FF48074204600F0DBF810B11749142080
:101BB000C886204600F030F84FF40077384600F031
:101BC000CFF8D8B14FF47A7009F09AFC3946104832
:101BD00000F05EF990B900252F240E4ECDE9005497
:101BE000012370781A4629460AF048FBCDE90054D3
:101BF00070780223012200210AF040FB384600F0F1
:101C00000BF8BDE8FC4103F0B3BA0000000000206F
:101C1000000C0240BAB7002001490860704700007C
:101C2000143C01402DE9F0434FF4804985B0012177
:101C3000484605F00FFA0121102005F0E7F94FF4AE
:101C40008077002503978DF8105003A93F4800F0D6
:101C5000D1F80821042005F023FB8DF804500C2650
:101C60008DF80560012400978DF80640684600F065
:101C700087F84FF017088DF8088002208DF80900CA
:101C80008DF80A008DF80B4002A803F085F938465C
:101C900000F05EF80921032005F002FB8DF80450E6
:101CA00067028DF8056000978DF80640684600F0E1
:101CB00067F88DF808808DF809408DF80A408DF896
:101CC0000B4002A803F068F9384600F041F80C21F7
:101CD000032005F0E5FA8DF8045027038DF8056020
:101CE00000978DF80640684600F04AF84FF0280843
:101CF0008DF808808DF809408DF80A408DF80B406A
:101D000002A803F049F9384600F022F80E2103201A
:101D100005F0C6FA8DF804508DF80560CDF80090F6
:101D20008DF80640684600F02BF88DF808808DF895
:101D300009408DF80A408DF80B4002A803F02CF9F9
:101D4000484600F005F805B0BDE8F08300100240F9
:101D500002490A6802430A6070470000103C0140D3
:101D6000064A014600201268044B0A4014331B68DF
:101D70000B4202D0002A00D001207047003C0140F5
:101D800030B51B498379026863B30B6893430B60DA
:101D90000A1D13680468A343136002790A44136898
:101DA000046823431360124A083213680468A3438B
:101DB0001360131D1C680568AC431C6090F805C0D7
:101DC000BCF1100F05D061440A68006802430A6044
:101DD00030BD11680468214311601968006801432F
:101DE000196030BD0079084401689143016030BD3D
:101DF000003C0140F0B5002201234FF0030C00BF6E
:101E00000D6803FA02F42540A5422DD1066854005E
:101E10000CFA04F5AE4306600E790768A6403E430F
:101E200006600E79012E01D0022E12D18668AE43D3
:101E300086604D798668A54035438560456803FA1C
:101E400002F6B543456045688E799640B6B2354393
:101E50004560C56856000CFA06F7BD43C560CD79EC
:101E6000A540C4682543C560521C102AC8D3F0BDE4
:101E70004B07DB0E9A40C90810B500EB8100016AE0
:101E80000F249C40A1430162016A1143016210BD0D
:101E90000246002012690A4200D0012070474183A7
:101EA000704701837047000070B58AB00446142261
:101EB00022A16846FFF7E4F8142225A105A8FFF740
:101EC000DFF801211C2005F047FD01211F2005F04E
:101ED00043FD0121192005F03FFD224D287818B956
:101EE0000A211F2005F038FD2878012803D10C2194
:101EF0001F2005F031FD6421B4FBF1F001FB10421D
:101F00000A21B2FBF1F5B4FBF1F201FB12446E467B
:101F100006EB40010222082005F0F8FC06EB450123
:101F200002220A2005F0F2FC05A800EB440102227F
:101F30000C2005F0EBFC0AB070BD0000050F000698
:101F4000060B020F0306030D070D0007070F030F13
:101F50000D0F08060E0B0A0F0B060B0D0F0D0807D1
:101F60000F0F0B0F2A0100202DE9F04F99B0064604
:101F70000D461446142279A105A8FFF781F8142212
:101F80007BA16846FFF77CF814227EA10FA8FFF71B
:101F900077F8142280A10AA8FFF772F801211C200B
:101FA00005F0DAFC01211F2005F0D6FC08211820DD
:101FB00005F0D2FC08211B2005F0CEFC4FF47A7A04
:101FC000B6FBFAF2D1B20AFB12626420B2FBF0F265
:101FD000D7B2B6FBF0F200FB12620A20B2FBF0F8B7
:101FE000B6FBF0F2DFF8C49100FB126699F800002E
:101FF0000DF1140B012805D10BEB41010222162033
:1020000005F084FC99F8000018B90221172005F0AA
:10201000A3FC0FA800EB47010222142005F076FC78
:102020005F460BEB48010222122005F06FFC07EB24
:1020300046010222102005F069FCB5FBFAF10AFB0B
:1020400011534FF06409B3FBF9F202F0FF0C0A23BD
:10205000B5FBF3F203FB12520AAF07EB42084A4604
:10206000B5FBF2F709FB1757B7FBF3F36E4606EB28
:102070004307C8B24FF47A7303FB1151B1FBF9F176
:10208000C9B206EB410530B10BEB400102220E2034
:1020900005F03CFC02E0BCF1000F04D0022229460E
:1020A000082005F033FC022239460A2005F02EFCF8
:1020B000022241460C2005F029FCB4FBFAF1CDB216
:1020C0000AFB1141B1FBF9F0394F00F0FF093878F4
:1020D00018B90A211F2005F03FFC3878012803D1E8
:1020E0000C211F2005F038FC0A21B4FBF1F001FBA4
:1020F00010406B4603EB40086420B4FBF0F200FB99
:102100001242B2FBF1F103EB41074FF47A71B4FBD9
:10211000F1F201FB1241B1FBF0F0C0B203EB40045D
:1021200035B106EB45010222002005F0EFFB02E08D
:10213000B9F1000F04D002222146104605F0E6FB5B
:1021400002223946042005F0E1FB02224146062026
:1021500005F0DCFB19B0BDE8F08F00000F050600AC
:102160000B060F0206030D030D0707000F070F03F1
:10217000050F0006060B020F0306030D070D0007EF
:10218000070F030F0F0D06080B0E0F0A060B0D0BA2
:102190000D0F07080F0F0F0B0D0F08060E0B0A0F80
:1021A0000B060B0D0F0D08070F0F0B0F080000207B
:1021B0002A0100202DE9F04F99B006460D4614463D
:1021C000142277A105A8FEF75BFF142279A16846C7
:1021D000FEF756FF14227CA10FA8FEF751FF142230
:1021E0007EA10AA8FEF74CFF01211C2005F0B4FBDC
:1021F00001211F2005F0B0FB0A211B2005F0ACFBDC
:102200004FF47A7AB6FBFAF2D1B20AFB126264207A
:10221000B2FBF0F2D7B2B6FBF0F200FB12620A207A
:10222000B2FBF0F8B6FBF0F2DFF8C49100FB1266E7
:1022300099F800000DF1140B012805D10BEB4101B9
:102240000222162005F062FB99F8000018B902215D
:10225000172005F081FB0FA800EB47010222142094
:1022600005F054FB5F460BEB48010222122005F0FB
:102270004DFB07EB46010222102005F047FBB5FBA2
:10228000FAF10AFB11534FF06409B3FBF9F202F0C3
:10229000FF0C0A23B5FBF3F203FB12520AAF07EB64
:1022A00042084A46B5FBF2F709FB1757B7FBF3F3B1
:1022B0006E4606EB4307C8B24FF47A7303FB115125
:1022C000B1FBF9F1C9B206EB410530B10BEB4001AE
:1022D00002220E2005F01AFB02E0BCF1000F04D030
:1022E00002222946082005F011FB022239460A2065
:1022F00005F00CFB022241460C2005F007FBB4FB65
:10230000FAF1CDB20AFB1141B1FBF9F0394F00F0FF
:10231000FF09387818B90A211F2005F01DFB38780D
:10232000012803D10C211F2005F016FB0A21B4FB64
:10233000F1F001FB10406B4603EB40086420B4FB56
:10234000F0F200FB1242B2FBF1F103EB41074FF454
:102350007A71B4FBF1F201FB1241B1FBF0F0C0B2B3
:1023600003EB400435B106EB45010222002005F0E5
:10237000CDFA02E0B9F1000F04D002222146104646
:1023800005F0C4FA02223946042005F0BFFA022201
:102390004146062005F0BAFA19B0BDE8F08F0000FA
:1023A0000F0506000B060F0206030D030D070700BD
:1023B0000F070F03050F0006060B020F0306030DA0
:1023C000070D0007070F030F0F0D06080B0E0F0A6E
:1023D000060B0D0B0D0F07080F0F0F0B0D0F080647
:1023E0000E0B0A0F0B060B0D0F0D08070F0F0B0F2F
:1023F000080000202A0100202DE9F04F99B0064680
:102400000D461446142277A105A8FEF739FE1422C2
:1024100079A16846FEF734FE14227CA10FA8FEF7CE
:102420002FFE14227EA10AA8FEF72AFE01211C20FD
:1024300005F092FA01211F2005F08EFA0C211B20D5
:1024400005F08AFA4FF47A7AB6FBFAF2D1B20AFBB7
:1024500012626420B2FBF0F2D7B2B6FBF0F200FBDE
:1024600012620A20B2FBF0F8B6FBF0F2DFF8C4917A
:1024700000FB126699F800000DF1140B012805D13C
:102480000BEB41010222162005F040FA99F80000FA
:1024900018B90221172005F05FFA0FA800EB4701D9
:1024A0000222142005F032FA5F460BEB48010222AB
:1024B000122005F02BFA07EB46010222102005F04E
:1024C00025FAB5FBFAF10AFB11534FF06409B3FB8F
:1024D000F9F202F0FF0C0A23B5FBF3F203FB1252F0
:1024E0000AAF07EB42084A46B5FBF2F709FB17575C
:1024F000B7FBF3F36E4606EB4307C8B24FF47A73AB
:1025000003FB1151B1FBF9F1C9B206EB410530B142
:102510000BEB400102220E2005F0F8F902E0BCF1BD
:10252000000F04D002222946082005F0EFF902220C
:1025300039460A2005F0EAF9022241460C2005F04E
:10254000E5F9B4FBFAF1CDB20AFB1141B1FBF9F0A8
:10255000394F00F0FF09387818B90A211F2005F01B
:10256000FBF93878012803D10C211F2005F0F4F97C
:102570000A21B4FBF1F001FB10406B4603EB40086D
:102580006420B4FBF0F200FB1242B2FBF1F103EB6A
:1025900041074FF47A71B4FBF1F201FB1241B1FB38
:1025A000F0F0C0B203EB400435B106EB4501022266
:1025B000002005F0ABF902E0B9F1000F04D00222CF
:1025C0002146104605F0A2F902223946042005F002
:1025D0009DF902224146062005F098F919B0BDE8A0
:1025E000F08F00000F0506000B060F0206030D0317
:1025F0000D0707000F070F03050F0006060B020F5C
:102600000306030D070D0007070F030F0F0D060844
:102610000B0E0F0A060B0D0B0D0F07080F0F0F0BFC
:102620000D0F08060E0B0A0F0B060B0D0F0D0807FA
:102630000F0F0B0F080000202A0100202DE9F04F9A
:1026400099B006460D461446142279A105A8FEF756
:1026500017FD14227BA16846FEF712FD14227EA10D
:102660000FA8FEF70DFD142280A10AA8FEF708FDB1
:1026700001211C2005F070F901211F2005F06CF9E3
:1026800004211A2005F068F908211B2005F064F9DF
:102690004FF47A7AB6FBFAF2D1B20AFB12626420E6
:1026A000B2FBF0F2D7B2B6FBF0F200FB12620A20E6
:1026B000B2FBF0F8B6FBF0F2DFF8C49100FB126653
:1026C00099F800000DF1140B012805D10BEB410125
:1026D0000222162005F01AF999F8000018B9022113
:1026E000172005F039F90FA800EB4701022214204A
:1026F00005F00CF95F460BEB48010222122005F0B1
:1027000005F907EB46010222102005F0FFF8B5FBA2
:10271000FAF10AFB11534FF06409B3FBF9F202F02E
:10272000FF0C0A23B5FBF3F203FB12520AAF07EBCF
:1027300042084A46B5FBF2F709FB1757B7FBF3F31C
:102740006E4606EB4307C8B24FF47A7303FB115190
:10275000B1FBF9F1C9B206EB410530B10BEB400119
:1027600002220E2005F0D2F802E0BCF1000F04D0E6
:1027700002222946082005F0C9F8022239460A201B
:1027800005F0C4F8022241460C2005F0BFF8B4FB66
:10279000FAF1CDB20AFB1141B1FBF9F0394F00F06B
:1027A000FF09387818B90A211F2005F0D5F83878C4
:1027B000012803D10C211F2005F0CEF80A21B4FB1B
:1027C000F1F001FB10406B4603EB40086420B4FBC2
:1027D000F0F200FB1242B2FBF1F103EB41074FF4C0
:1027E0007A71B4FBF1F201FB1241B1FBF0F0C0B21F
:1027F00003EB400435B106EB45010222002005F051
:1028000085F802E0B9F1000F04D0022221461046FB
:1028100005F07CF802223946042005F077F8022200
:102820004146062005F072F819B0BDE8F08F0000AF
:102830000F0506000B060F0206030D030D07070028
:102840000F070F03050F0006060B020F0306030D0B
:10285000070D0007070F030F0F0D06080B0E0F0AD9
:10286000060B0D0B0D0F07080F0F0F0B0D0F0806B2
:102870000E0B0A0F0B060B0D0F0D08070F0F0B0F9A
:10288000080000202A0100202DE9F04F97B00646ED
:102890000C461546142284A105A8FEF7F1FB14226C
:1028A00086A16846FEF7ECFB01211C2005F054F8D8
:1028B00001211F2005F050F8854F387818B90A21FA
:1028C0001F2005F049F83878012803D10C211F207A
:1028D00005F042F84FF47A72B6FBF2F002FB106793
:1028E0006423B7FBF3F707F0FF0EB6FBF3F703FB28
:1028F000176C4FF00A08BCFBF8F71397B4FBF2F71C
:1029000007F0FF0C02FB1747B7FBF3F707F0FF0BCD
:10291000B4FBF3F7CDF83CC003FB174CCDF850B037
:10292000BCFBF8FBB5FBF2FC02FB1C52B2FBF3F262
:10293000D2B20E92B5FBF3F20CF0FF0A03FB125C6D
:10294000C146B6FBF9F3BCFBF8F209FB136305AF14
:1029500007EB43086423B6FBF3FC03FB1C6C0C92EF
:10296000BCFBF9F207EB4209C1B24FF47A7202FBE9
:102970001060B0FBF3F0C0B207EB400631B107EBDB
:1029800041010222162004F0C1FF02E0BEF1000F57
:1029900005D002223146142004F0B8FF01E013985C
:1029A00020B102224946122004F0B0FF0222414623
:1029B000102004F0ABFF0A20B4FBF0F100FB11463D
:1029C000694601EB46096421B4FBF1F601FB1646AA
:1029D000B6FBF0F6684600EB46084FF47A70B4FB9D
:1029E000F0F600FB1640B0FBF1F0C1B268460F9B59
:1029F00000EB410433B107EB430102220E2004F047
:102A000085FF01E0149828B102222146082004F035
:102A10007DFF02E0BBF1000F04D0022241460A20F4
:102A200004F074FF022249460C2004F06FFF0A23D1
:102A3000B5FBF3F003FB1051684600EB410764213E
:102A4000B5FBF1F401FB1454B4FBF3F300EB4306C4
:102A50004FF47A73B5FBF3F403FB1453B3FBF1F1BA
:102A6000C9B200EB4104BAF1000F06D000EB4A01F5
:102A70000222002004F04AFF01E00E9828B1022251
:102A80002146104604F042FF01E00C9820B10222DA
:102A90003146042004F03AFF02223946062004F0B1
:102AA00035FF17B0BDE8F08F0F0506000B060F02CB
:102AB00006030D030D0707000F070F03050F0006A0
:102AC000060B020F0306030D070D0007070F030F88
:102AD0002A0100202DE9F04FFBA093B000680E9072
:102AE0001422FAA105A8FEF7CBFA1422FCA168462D
:102AF000FEF7C6FAFF4C4FF4804529462046FFF703
:102B0000C7F9FD4E4FF0010B88B9B07B20B9707842
:102B1000401C707001F010FE29462046FFF7B8F9FE
:102B20000028F9D07078062801D986F801B04FF452
:102B300080552946A2462046FFF7AAF988B9B07BFE
:102B400020B97078401E707001F0F6FD5446294699
:102B50002046FFF79DF90028F9D0707808B90620C3
:102B600070707078E54DE64FDFF89883E64C4FF0D3
:102B7000030907287ED2DFE800F0CB04CEFEFDFC7F
:102B8000FB0080214046FFF783F980B9FEF740FF44
:102B9000DE48E04A0088126800EB80004004010C27
:102BA000DB48007800EB80004000FFF7DDF9802172
:102BB0004046FFF76DF901285CD14FF400584146BB
:102BC0005046FFF765F988B9B07B78B901F0B4FDDC
:102BD000B078401CB07041465046FFF759F90028C4
:102BE000F9D0B078032801D986F802B04FF400611B
:102BF000C048FFF74DF9DFF82083DFF820A3DFF8A6
:102C000020B380B9B07B70B901F096FDB078401E5A
:102C100086F802004FF40061B648FFF739F9002842
:102C2000F8D0B07818B1B078012803D02DE086F83C
:102C3000029043E0207888B9FEF7EAFE28889AF8E7
:102C4000003000EB80004004010C98F80000DBF835
:102C5000002000EB80004000FFF7ACFA207801284C
:102C600013D1FEF7D5FE388800EB80004004010C3C
:102C7000AC4800E04CE0AC4A00781378AB4A00EB7B
:102C8000800040001268FFF7D9FCB078022812D10A
:102C9000FEF7BEFEA648A84A0088137800EB800025
:102CA0004004010CA348A54A0078126800EB80009C
:102CB0004000FFF7A1FBB078032829D12078012834
:102CC00011D1FEF7A5FE28889AF8003000EB8000AD
:102CD0004004010C98F80000DBF8002000EB8000B5
:102CE0004000FFF767FA2078002811D1FEF790FE28
:102CF00038888D4A00EB80004004010C8948137825
:102D00008A4A007800EB800040001268FFF796FCCA
:102D100013B0BDE8F08F80214046FFF7B9F8884D29
:102D200080B9FEF775FE288840F2F51200EB8000AE
:102D30004004010C8348008800EB80004004000C34
:102D400000F05CFA80214046FFF7A2F80128DFD1AD
:102D50004FF40058414657465046FFF799F8B0B92E
:102D6000B07BA0B901F0E8FCF078401CF07003E003
:102D70002EE288E181E184E041463846FFF788F899
:102D80000028F4D0F078032801D986F803B04FF476
:102D9000006B5946BA463846FFF77AF86A4FDFF8B3
:102DA000AC8170B9B07B60B901F0C6FCF078401E10
:102DB000F07059465046FFF76BF80028F9D0F078CC
:102DC00018B1F078012803D018E086F8039037E0B6
:102DD000FEF71EFE20780028288800EB80004FEACE
:102DE00040404FEA10410DD0B8F8000040F2F51213
:102DF00000EB80004004000C00F00CFDF07802288D
:102E00000AD01AE0388840F2F51200EB8000400446
:102E1000000C00F0F7FAF1E7FEF7FAFD288840F21F
:102E2000F51200EB80004004010C4948008800EBDB
:102E300080004004000C00F0E9FBF078032886D104
:102E4000FEF7E6FD20780028288800EB80004FEA96
:102E500040404FEA104109D0388840F2F51200EBAB
:102E600080004004000C00F0CDFA51E7B8F80000F3
:102E700040F2F51200EB80004004000C00F0CAFCA8
:102E800046E780211F48FFF703F8324D324FDFF845
:102E9000CC8090B9FEF7BCFD288800EB8000400490
:102EA000020C388800EB80004004010C98F8000008
:102EB00000EB8000400000F0B1FD80211148FEF7DA
:102EC000E7FF0128D1D14BE0000209050F050600FC
:102ED0000B060F0206030D030D0707000F070F0374
:102EE000050F0006060B020F0306030D070D000772
:102EF000070F030F000C02401C01002022000020DD
:102F000026000020001002400A00002018000020C7
:102F100001000020380000200200002007000020EF
:102F20003C00002004000020090000204400002094
:102F300024000020030000200800002040000020A2
:102F40001C0000201A000020280000202C00002077
:102F50002A000020200000201E0000200000002089
:102F600041035046FEF794FF90B9B07B80B901F061
:102F7000E3FBF078401CF0704FF400515046FEF730
:102F800087FF0028F8D0F078032801D986F803B02D
:102F90004FF4006B59465046FEF77AFF70B9B07B8C
:102FA00060B901F0C9FBF078401EF07059465046F8
:102FB000FEF76EFF0028F9D0F07818B1F0780128FC
:102FC00003D01DE086F8039038E0FEF721FD20785D
:102FD0000028288800EB80004FEA40404FEA10426A
:102FE000388800EB80004FEA40404FEA104198F8E3
:102FF000000000EB80004FEA400005D000F0F6FF33
:10300000F078022803D015E000F000FEF8E7FEF7A4
:10301000FFFC288800EB80004004020C388800EB9D
:1030200080004004010C98F8000000EB8000400094
:1030300000F0E4FEF07803287FF417AFFEF7E8FC19
:1030400020780028288800EB80004FEA40404FEAB3
:103050001042388800EB80004FEA40404FEA1041B0
:1030600098F8000000EB80004FEA400002D000F02A
:10307000CDFD4DE600F0BAFF4AE6FEF7C9FC01209F
:10308000FEF712FF44E6FEF7C3FC01211C2004F00A
:1030900063FC01211F2004F05FFC0821182004F0CC
:1030A0005BFCB07B18B90A211F2004F055FCB07BF3
:1030B000012803D10C211F2004F04EFC04220EA98C
:1030C000142004F023FCF27B0A20B2FBF0F100FB99
:1030D0001127327CB2FBF0F400FB1429727CB2FBA6
:1030E000F0F500FB152805A800EB41010222122093
:1030F00004F00CFC05A800EB47010222102004F0AC
:1031000005FC6F4607EB440102220A2004F0FEFB97
:1031100007EB490102220C2004F0F8FB07EB450104
:103120000222042004F0F2FB07EB480102220620F1
:1031300004F0ECFB4FF40058414654465046FEF76D
:10314000A7FE2C4D05F12007D8B9B07BC8B901F016
:10315000F3FAF07B401CF07341462046FEF798FEE0
:103160000028F9D0F07B202802D9584686F80FB005
:10317000C0B22918384411F8011C317410F8010C40
:1031800070744FF4006841462046FEF781FE002827
:103190007FF46BAEB07B0028FAD101F0CDFAF07B62
:1031A000A146401EF073444621464846FEF770FE95
:1031B0000028F9D0F07B08B92020F073C0B229189C
:1031C000384411F8011C317410F8010C70749FE53B
:1031D000FEF71EFC388800EB80004200064800889D
:1031E00000EB80004100288800EB80004000FFF7E2
:1031F0004BFB8DE51CCE0020240000202DE9F04F74
:1032000099B004460D461646142269A16846FDF79A
:1032100037FF14226BA105A8FDF732FF14226EA11F
:103220000FA8FDF72DFF142270A10AA8FDF728FFB3
:1032300001211C2004F090FB01211F2004F08CFBD5
:103240000821182004F088FB0821192004F084FBD1
:103250006B4F387818B90A211F2004F07DFB3878AD
:10326000012803D10C211F2004F076FB4FF47A795A
:10327000B4FBF9F109FB11434FF0640BB3FBFBF214
:1032800002F0FF0C0A23B4FBF3F203FB12420FAF70
:1032900007EB42085A46B4FBF2F70BFB1747B7FBA4
:1032A000F3F7C8B24B4603FB1141B1FBFBF1EA4611
:1032B000CAB20AEB47070AEB420430B10AEB4001FD
:1032C0000222162004F022FB02E0BCF1000F04D021
:1032D00002222146142004F019FB02223946122052
:1032E00004F014FB02224146102004F00FFBB5FB52
:1032F000F9F009FB10536421B3FBF1F1CFB20A24BA
:10330000B5FBF4F104FB11530AA901EB4309642155
:10331000B5FBF1F301FB1353B3FBF4F4C2B24FF46A
:103320007A7303FB1050B0FBF1F00DF1140B0BEBB3
:103330004408C1B20BEB410432B10AEB4201022254
:103340000E2004F0E3FA00E027B102222146082013
:1033500004F0DCFA022241460A2004F0D7FA0222E5
:1033600049460C2004F0D2FA6420B6FBF0F2D1B248
:1033700000FB12620A20B2FBF0F5B6FBF0F200FB94
:10338000126402225E460BEB4101104604F0BEFAC5
:1033900006EB45010222042004F0B8FA0AA800EB6B
:1033A00044010222062004F0B1FA19B0BDE8F08F02
:1033B0000F0506000B060F0206030D030D0707009D
:1033C0000F070F03050F0006060B020F0306030D80
:1033D000070D0007070F030F0F0D06080B0E0F0A4E
:1033E000060B0D0B0D0F07080F0F0F0B0D0F080627
:1033F0000E0B0A0F0B060B0D0F0D08070F0F0B0F0F
:103400002A0100202DE9F04F99B004460D461646DA
:10341000142269A16846FDF733FE14226BA105A8AA
:10342000FDF72EFE14226EA10FA8FDF729FE14222F
:1034300070A10AA8FDF724FE01211C2004F08CFADB
:1034400001211F2004F088FA02211B2004F084FAD5
:103450000821192004F080FA6B4F387818B90A2136
:103460001F2004F079FA3878012803D10C211F209D
:1034700004F072FA4FF47A79B4FBF9F109FB1143C5
:103480004FF0640BB3FBFBF202F0FF0C0A23B4FB1A
:10349000F3F203FB12420FAF07EB42085A46B4FBAC
:1034A000F2F70BFB1747B7FBF3F7C8B24B4603FB2A
:1034B0001141B1FBFBF1EA46CAB20AEB47070AEB3E
:1034C000420430B10AEB40010222162004F01EFA39
:1034D00002E0BCF1000F04D002222146142004F0C7
:1034E00015FA02223946122004F010FA022241464F
:1034F000102004F00BFAB5FBF9F009FB105364211E
:10350000B3FBF1F1CFB20A24B5FBF4F104FB115384
:103510000AA901EB43096421B5FBF1F301FB135345
:10352000B3FBF4F4C2B24FF47A7303FB1050B0FB58
:10353000F1F00DF1140B0BEB4408C1B20BEB41049D
:1035400032B10AEB420102220E2004F0DFF900E062
:1035500027B102222146082004F0D8F90222414670
:103560000A2004F0D3F9022249460C2004F0CEF9D7
:103570006420B6FBF0F2D1B200FB12620A20B2FB6B
:10358000F0F5B6FBF0F200FB126402225E460BEB94
:103590004101104604F0BAF906EB4501022204206D
:1035A00004F0B4F90AA800EB44010222062004F05A
:1035B000ADF919B0BDE8F08F0F0506000B060F023C
:1035C00006030D030D0707000F070F03050F000685
:1035D000060B020F0306030D070D0007070F030F6D
:1035E0000F0D06080B0E0F0A060B0D0B0D0F07082B
:1035F0000F0F0F0B0D0F08060E0B0A0F0B060B0D0E
:103600000F0D08070F0F0B0F2A0100202DE9F04FB7
:1036100099B004460D461646142269A16846FDF786
:103620002FFD14226BA105A8FDF72AFD14226EA11F
:103630000FA8FDF725FD142270A10AA8FDF720FDB3
:1036400001211C2004F088F901211F2004F084F9D5
:1036500004211B2004F080F90821192004F07CF9D2
:103660006B4F387818B90A211F2004F075F93878A3
:10367000012803D10C211F2004F06EF94FF47A7950
:10368000B4FBF9F109FB11434FF0640BB3FBFBF200
:1036900002F0FF0C0A23B4FBF3F203FB12420FAF5C
:1036A00007EB42085A46B4FBF2F70BFB1747B7FB90
:1036B000F3F7C8B24B4603FB1141B1FBFBF1EA46FD
:1036C000CAB20AEB47070AEB420430B10AEB4001E9
:1036D0000222162004F01AF902E0BCF1000F04D017
:1036E00002222146142004F011F902223946122048
:1036F00004F00CF902224146102004F007F9B5FB52
:10370000F9F009FB10536421B3FBF1F1CFB20A24A5
:10371000B5FBF4F104FB11530AA901EB4309642141
:10372000B5FBF1F301FB1353B3FBF4F4C2B24FF456
:103730007A7303FB1050B0FBF1F00DF1140B0BEB9F
:103740004408C1B20BEB410432B10AEB4201022240
:103750000E2004F0DBF800E027B102222146082009
:1037600004F0D4F8022241460A2004F0CFF80222E5
:1037700049460C2004F0CAF86420B6FBF0F2D1B23E
:1037800000FB12620A20B2FBF0F5B6FBF0F200FB80
:10379000126402225E460BEB4101104604F0B6F8BB
:1037A00006EB45010222042004F0B0F80AA800EB61
:1037B00044010222062004F0A9F819B0BDE8F08FF8
:1037C0000F0506000B060F0206030D030D07070089
:1037D0000F070F03050F0006060B020F0306030D6C
:1037E000070D0007070F030F0F0D06080B0E0F0A3A
:1037F000060B0D0B0D0F07080F0F0F0B0D0F080613
:103800000E0B0A0F0B060B0D0F0D08070F0F0B0FFA
:103810002A0100202DE9F04F99B004460D461646C6
:10382000142269A16846FDF72BFC14226BA105A8A0
:10383000FDF726FC14226EA10FA8FDF721FC14222F
:1038400070A10AA8FDF71CFC01211C2004F084F8DB
:1038500001211F2004F080F804211A2004F07CF8D4
:103860000821192004F078F86B4F387818B90A212C
:103870001F2004F071F83878012803D10C211F2093
:1038800004F06AF84FF47A79B4FBF9F109FB1143BB
:103890004FF0640BB3FBFBF202F0FF0C0A23B4FB06
:1038A000F3F203FB12420FAF07EB42085A46B4FB98
:1038B000F2F70BFB1747B7FBF3F7C8B24B4603FB16
:1038C0001141B1FBFBF1EA46CAB20AEB47070AEB2A
:1038D000420430B10AEB40010222162004F016F82F
:1038E00002E0BCF1000F04D002222146142004F0B3
:1038F0000DF802223946122004F008F8022241464F
:10390000102004F003F8B5FBF9F009FB1053642113
:10391000B3FBF1F1CFB20A24B5FBF4F104FB115370
:103920000AA901EB43096421B5FBF1F301FB135331
:10393000B3FBF4F4C2B24FF47A7303FB1050B0FB44
:10394000F1F00DF1140B0BEB4408C1B20BEB410489
:1039500032B10AEB420102220E2003F0D7FF00E051
:1039600027B102222146082003F0D0FF022241465F
:103970000A2003F0CBFF022249460C2003F0C6FFC9
:103980006420B6FBF0F2D1B200FB12620A20B2FB57
:10399000F0F5B6FBF0F200FB126402225E460BEB80
:1039A0004101104603F0B2FF06EB4501022204205C
:1039B00003F0ACFF0AA800EB44010222062003F04A
:1039C000A5FF19B0BDE8F08F0F0506000B060F022A
:1039D00006030D030D0707000F070F03050F000671
:1039E000060B020F0306030D070D0007070F030F59
:1039F0000F0D06080B0E0F0A060B0D0B0D0F070817
:103A00000F0F0F0B0D0F08060E0B0A0F0B060B0DF9
:103A10000F0D08070F0F0B0F2A0100202DE9F047AB
:103A20009AB004460D461646142263A105A8FDF778
:103A300027FB142265A16846FDF722FB142268A12A
:103A40000FA8FDF71DFB14226AA10AA8FDF718FBB9
:103A500001211C2003F080FF01211F2003F07CFFC7
:103A60000821182003F078FF08211A2003F074FFC2
:103A7000654F387818B90A211F2003F06DFF387898
:103A8000012803D10C211F2003F066FF4FF47A7147
:103A9000B4FBF1F001FB10434FF0640AB3FBFAF101
:103AA00001F0FF090A21B4FBF1F301FB13430FAF4F
:103AB00007EB43085346B4FBF3F70AFB1747B7FB82
:103AC000F1F10DF1140C0CEB4107C2B24FF47A7115
:103AD00001FB1040B0FBFAF0C0B20CEB400432B175
:103AE0000CEB42010222162003F010FF02E0B9F1B4
:103AF000000F04D002222146142003F007FF022207
:103B00003946122003F002FF02224146102003F042
:103B1000FDFE4FF00A00B5FBF0F3D146B5FBF9F717
:103B200000FB13530AA901EB43084FF0640101FBAA
:103B30001751B1FBF0F06C4617F0FF0204EB4005A3
:103B400005D004EB42010222082003F0DFFE02222E
:103B500029460A2003F0DAFE022241460C2003F037
:103B6000D5FE4FF00A01B6FBF1F3B6FBF9F201FB0B
:103B700013630AAD05EB430712F0FF004FF0640337
:103B800003FB1262B2FBF1F16A4602EB410505D07C
:103B900004EB40010222104603F0B8FE022229463F
:103BA000042003F0B3FE02223946062003F0AEFEE5
:103BB0001AB0BDE8F08700000F0506000B060F02E3
:103BC00006030D030D0707000F070F03050F00067F
:103BD000060B020F0306030D070D0007070F030F67
:103BE0000F0D06080B0E0F0A060B0D0B0D0F070825
:103BF0000F0F0F0B0D0F08060E0B0A0F0B060B0D08
:103C00000F0D08070F0F0B0F2A0100202DE9F047B9
:103C10009AB004460D461646142263A105A8FDF786
:103C20002FFA142265A16846FDF72AFA142268A12A
:103C30000FA8FDF725FA14226AA10AA8FDF720FAB9
:103C400001211C2003F088FE01211F2003F084FEC7
:103C500002211B2003F080FE08211A2003F07CFEC5
:103C6000654F387818B90A211F2003F075FE38789F
:103C7000012803D10C211F2003F06EFE4FF47A714E
:103C8000B4FBF1F001FB10434FF0640AB3FBFAF10F
:103C900001F0FF090A21B4FBF1F301FB13430FAF5D
:103CA00007EB43085346B4FBF3F70AFB1747B7FB90
:103CB000F1F10DF1140C0CEB4107C2B24FF47A7123
:103CC00001FB1040B0FBFAF0C0B20CEB400432B183
:103CD0000CEB42010222162003F018FE02E0B9F1BB
:103CE000000F04D002222146142003F00FFE02220E
:103CF0003946122003F00AFE02224146102003F04A
:103D000005FE4FF00A00B5FBF0F3D146B5FBF9F71D
:103D100000FB13530AA901EB43084FF0640101FBB8
:103D20001751B1FBF0F06C4617F0FF0204EB4005B1
:103D300005D004EB42010222082003F0E7FD022235
:103D400029460A2003F0E2FD022241460C2003F03E
:103D5000DDFD4FF00A01B6FBF1F3B6FBF9F201FB12
:103D600013630AAD05EB430712F0FF004FF0640345
:103D700003FB1262B2FBF1F16A4602EB410505D08A
:103D800004EB40010222104603F0C0FD0222294646
:103D9000042003F0BBFD02223946062003F0B6FDE5
:103DA0001AB0BDE8F08700000F0506000B060F02F1
:103DB00006030D030D0707000F070F03050F00068D
:103DC000060B020F0306030D070D0007070F030F75
:103DD0000F0D06080B0E0F0A060B0D0B0D0F070833
:103DE0000F0F0F0B0D0F08060E0B0A0F0B060B0D16
:103DF0000F0D08070F0F0B0F2A0100202DE9F047C8
:103E00009AB004460D461646142263A105A8FDF794
:103E100037F9142265A16846FDF732F9142268A12A
:103E20000FA8FDF72DF914226AA10AA8FDF728F9B9
:103E300001211C2003F090FD01211F2003F08CFDC7
:103E400004211B2003F088FD08211A2003F084FDC3
:103E5000654F387818B90A211F2003F07DFD3878A6
:103E6000012803D10C211F2003F076FD4FF47A7155
:103E7000B4FBF1F001FB10434FF0640AB3FBFAF11D
:103E800001F0FF090A21B4FBF1F301FB13430FAF6B
:103E900007EB43085346B4FBF3F70AFB1747B7FB9E
:103EA000F1F10DF1140C0CEB4107C2B24FF47A7131
:103EB00001FB1040B0FBFAF0C0B20CEB400432B191
:103EC0000CEB42010222162003F020FD02E0B9F1C2
:103ED000000F04D002222146142003F017FD022215
:103EE0003946122003F012FD02224146102003F051
:103EF0000DFD4FF00A00B5FBF0F3D146B5FBF9F725
:103F000000FB13530AA901EB43084FF0640101FBC6
:103F10001751B1FBF0F06C4617F0FF0204EB4005BF
:103F200005D004EB42010222082003F0EFFC02223C
:103F300029460A2003F0EAFC022241460C2003F045
:103F4000E5FC4FF00A01B6FBF1F3B6FBF9F201FB19
:103F500013630AAD05EB430712F0FF004FF0640353
:103F600003FB1262B2FBF1F16A4602EB410505D098
:103F700004EB40010222104603F0C8FC022229464D
:103F8000042003F0C3FC02223946062003F0BEFCE5
:103F90001AB0BDE8F08700000F0506000B060F02FF
:103FA00006030D030D0707000F070F03050F00069B
:103FB000060B020F0306030D070D0007070F030F83
:103FC0000F0D06080B0E0F0A060B0D0B0D0F070841
:103FD0000F0F0F0B0D0F08060E0B0A0F0B060B0D24
:103FE0000F0D08070F0F0B0F2A0100202DE9F047D6
:103FF0009AB004460D461646142261A105A8FDF7A5
:104000003FF8142263A16846FDF73AF8142266A12E
:104010000FA8FDF735F8142268A10AA8FDF730F8BB
:1040200001211C2003F098FC01211F2003F094FCC7
:104030000C211A2003F090FC654F387818B90A213A
:104040001F2003F089FC3878012803D10C211F20A0
:1040500003F082FC4FF47A71B4FBF1F001FB1043E2
:104060004FF0640AB3FBFAF101F0FF090A21B4FB37
:10407000F1F301FB13430FAF07EB43085346B4FBC7
:10408000F3F70AFB1747B7FBF1F10DF1140C0CEB3A
:104090004107C2B24FF47A7101FB1040B0FBFAF055
:1040A000C0B20CEB400432B10CEB420102221620EC
:1040B00003F02CFC02E0B9F1000F04D002222146EB
:1040C000142003F023FC02223946122003F01EFCC8
:1040D00002224146102003F019FC4FF00A00B5FB04
:1040E000F0F3D146B5FBF9F700FB13530AA901EB36
:1040F00043084FF0640101FB1751B1FBF0F06C462F
:1041000017F0FF0204EB400505D004EB4201022248
:10411000082003F0FBFB022229460A2003F0F6FBED
:10412000022241460C2003F0F1FB4FF00A01B6FBDE
:10413000F1F3B6FBF9F201FB13630AAD05EB43079C
:1041400012F0FF004FF0640303FB1262B2FBF1F1C7
:104150006A4602EB410505D004EB400102221046FD
:1041600003F0D4FB02222946042003F0CFFB0222F5
:104170003946062003F0CAFB1AB0BDE8F0870000FC
:104180000F0506000B060F0206030D030D070700BF
:104190000F070F03050F0006060B020F0306030DA2
:1041A000070D0007070F030F0F0D06080B0E0F0A70
:1041B000060B0D0B0D0F07080F0F0F0B0D0F080649
:1041C0000E0B0A0F0B060B0D0F0D08070F0F0B0F31
:1041D0002A0100201CB50121022002F017FFE02077
:1041E000009001208DF8040000208DF806000220C8
:1041F0000F4C8DF8050069462046FDF7FBFD202198
:104200002046FDF74EFE40212046FDF74AFE802164
:104210002046FDF746FE022003F080F8292003F037
:104220007DF8012003F07AF8032003F077F81CBD35
:1042300000040240FEE700007CB5134E4FF4005529
:1042400029463046FDF72BFE01208DF804000220A0
:104250006C008DF80500009469463046FDF7CAFDF4
:1042600021463046FDF71BFE022007F049F929469A
:104270003046FDF716FE022007F042F92946304687
:10428000FDF70DFE7CBD0000000402401CB50121BD
:10429000022002F0BBFE4FF4E040009001208DF8B8
:1042A000040002200A4C8DF8050069462046FDF7FF
:1042B000A1FDA1142046FDF7F2FD4FF40051204668
:1042C000FDF7EFFD4FF480412046FDF7EAFD1CBDF0
:1042D000000402407CB5134E4FF400552946304689
:1042E000FDF7DDFD01208DF8040002206C008DF843
:1042F0000500009469463046FDF77CFD21463046B6
:10430000FDF7CFFD022007F0FBF829463046FDF708
:10431000C8FD022007F0F4F829463046FDF7BFFD3E
:104320007CBD0000000402402DE9FC4700241B4E28
:1043300080464FF480478DF8044000978DF8074081
:1043400069463046FDF756FD0025B9467F103946CF
:104350003046FDF7A4FD022007F0D2F8394630467A
:10436000FDF79FFD6006040E49463046FDF790FDBF
:1043700008B1641CE4B2012007F0C2F86D1CEDB274
:10438000082DE4D3B8F1000F04D0FFF755FF204605
:10439000BDE8FC87FFF79EFFF9E70000000402403C
:1043A0002DE9FC47054601208DF8040002201A4E35
:1043B0004FF480478DF80500009769463046FDF7B9
:1043C00019FD4FF4005841463046FDF768FDB946E7
:1043D0000024474628064946304602D4FDF75FFDD3
:1043E00001E0FDF75EFD6806050E022007F088F883
:1043F00039463046FDF755FD022007F081F8394671
:104400003046FDF74CFD022007F07AF8641CE4B258
:10441000082CDFD3BDE8FC87000402407CB50120F6
:104420008DF804000220114D4FF480448DF80500F2
:10443000009469462846FDF7DDFC21462846FDF735
:1044400030FD661031462846FDF72BFD032007F0AE
:1044500057F821462846FDF722FD032007F050F8C3
:1044600031462846FDF71BFD7CBD000000040240DC
:104470007CB501208DF804000220114D4FF48044DA
:104480008DF80500009469462846FDF7B3FC6610D8
:1044900031462846FDF703FD21462846FDF7FFFC7F
:1044A000032007F02DF831462846FDF7FAFC214697
:1044B0002846FDF7F6FC032007F022F87CBD00003B
:1044C000000402402DE9FC410024184E4FF48045C1
:1044D0008DF8044000958DF8074069463046FDF799
:1044E00089FC29463046FDF7DCFC012007F008F87E
:1044F0006F1039463046FDF7D4FC012007F000F874
:1045000008E0641CE4B2FA2C04D9FFF7B1FF0120E3
:10451000BDE8FC8129463046FDF7BAFC0028F0D101
:1045200039463046FDF7BBFC0020F1E700040240AD
:1045300002494AF6AA200860704700000030004097
:104540002DE9F0479CB001215E4802F05FFD01219A
:104550004FF4E06002F07EFD4FF0806000905A481A
:1045600001900125594802A9002431C106A8EE0294
:104570006F034FF480784FF400390594A0E8D0031E
:10458000CDE90B45DFF848A10D94694650460E94DD
:10459000FDF758FA01215046FDF74AFA4D4802A9A5
:1045A000CDE900404948DFF828A1801C31C106A8A8
:1045B0000594A0E8D003CDE90B45AAF1180A0D94A3
:1045C000694650460E94FDF73DFA01215046FDF72D
:1045D0002FFA68060090404801903C4802A9001D4F
:1045E00031C106A80594A0E8D003394ECDE90B45AA
:1045F00018360D94694630460E94FDF723FA0121D2
:104600003046FDF715FA3F20032615908DF85860C7
:104610008DF85B4015A93148FDF7ECFB9220159011
:104620008DF858608DF85B4015A92D48FDF7E2FB29
:1046300017941894199417A81A94FCF773FE0F9402
:104640008DF84040119413941F4C8DF841504C3C10
:104650008DF850500FA92046FCF790FE1E4D0FA973
:104660004C3D2846FCF78AFE1A4E0FA94C3E3046B8
:10467000FCF784FE01212046FCF776FE0121284646
:10468000FCF772FE01213046FCF76EFE0121204648
:10469000FCF760FE01212846FCF75CFE0121304654
:1046A000FCF758FE01212046FCF732FE0121284686
:1046B000FCF72EFE01213046FCF72AFE1CB0BDE8B7
:1046C000F0870000050040004C220140120000204D
:1046D000286402404C2001404C2101400008024067
:1046E000000002401CB50121082002F08FFC4FF4AD
:1046F000FE40002400908DF8044069460848FDF70C
:1047000079FB0121102002F081FC4FF460700090D1
:104710008DF8044069460348FDF76CFB1CBD0000A2
:10472000000C0240001002404FF400410148FDF728
:10473000B6BB0000000C024010B54FF40041034826
:10474000FDF7AFFB02490620487310BD000C024084
:10475000000000202DE9F0470C46F9A1904699464B
:104760008CB091E82C00C968DDF850A0CDE9025169
:10477000F7A1CDE9002391E82C00C968CDE9042315
:10478000CDE90651F6A104AE91E82C00C96808AF46
:10479000CDE90A51611E6D46CDE9082340B10128DB
:1047A0007DD10F297CD8CCB2B8F1000F79D0D4E0FC
:1047B0000F2974D8CCB2B8F1000F11D1385D0121A6
:1047C00040F4E070FDF776F8285D012140F4E070D8
:1047D000FDF770F8305D012140F4E070FDF76AF8F4
:1047E000B9F1000F11D1385D022140F4E070FDF7FE
:1047F00061F8285D022140F4E070FDF75BF8305D60
:10480000022140F4E070FDF755F8BAF1000F11D124
:10481000385D032140F4E070FDF74CF8285D03217A
:1048200040F4E070FDF746F8305D032140F4E0709D
:10483000FDF740F8B8F1010F11D1305D012140F4CE
:10484000E070FDF737F8285D012140F4E070FDF7D6
:1048500031F8385D012140F4E070FDF72BF8B9F133
:10486000010F11D1305D022140F4E070FDF722F814
:10487000285D022140F4E070FDF71CF8385D02214C
:1048800040F4E070FDF716F8BAF1010F15D1305D74
:10489000032140F4E070FDF70DF8285D02E0B7E079
:1048A000C6E048E040F4E0700321FDF703F8385D0E
:1048B000032140F4E070FCF7FDFFB8F1020F11D1C5
:1048C000385D012140F4E070FCF7F4FF305D012118
:1048D00040F4E070FCF7EEFF285D012140F4E07049
:1048E000FCF7E8FFB9F1020F11D1385D022140F465
:1048F000E070FCF7DFFF305D022140F4E070FCF770
:10490000D9FF285D022140F4E070FCF7D3FFBAF133
:10491000020F7DD1385D032140F4E070FCF7CAFF3F
:10492000305D032140F4E070FCF7C4FF285D0321F3
:1049300040F4E070FCE0385D012140F4E070FCF7E9
:10494000B9FF285D012140F4E070FCF7B3FF305D52
:10495000012140F4E070FCF7ADFFB9F1000F11D177
:10496000385D022140F4E070FCF7A4FF285D0221CD
:1049700040F4E070FCF79EFF305D022140F4E070EF
:10498000FCF798FFB8F1010F11D1305D012140F41F
:10499000E070FCF78FFF285D012140F4E070FCF728
:1049A00089FF385D012140F4E070FCF783FFB9F125
:1049B000010F11D1305D022140F4E070FCF77AFF65
:1049C000285D022140F4E070FCF774FF385D02219D
:1049D00040F4E070FCF76EFFB8F1020F11D1385DC2
:1049E000012140F4E070FCF765FF305D012140F4E7
:1049F000E070FCF75FFF285D012140F4E070FCF7F8
:104A000059FFB9F1020F13D1385D40F4E07000E0B6
:104A10008FE00221FCF74EFF305D022140F4E07090
:104A2000FCF748FF285D022140F4E070FCF742FFEC
:104A3000113C0F2C7DD8E4B2B8F1000F11D1385DD4
:104A4000042140F4E070FCF735FF285D042140F4B8
:104A5000E070FCF72FFF305D042140F4E070FCF7BC
:104A600029FFB9F1000F11D1385D052140F4E07044
:104A7000FCF720FF285D052140F4E070FCF71AFFE9
:104A8000305D052140F4E070FCF714FFB8F1010F30
:104A900011D1305D042140F4E070FCF70BFF285D7C
:104AA000042140F4E070FCF705FF385D042140F478
:104AB000E070FCF7FFFEB9F1010F11D1305D052167
:104AC00040F4E070FCF7F6FE285D052140F4E0704C
:104AD000FCF7F0FE385D052140F4E070FCF7EAFEDB
:104AE000B8F1020F11D1385D042140F4E070FCF7F9
:104AF000E1FE305D042140F4E070FCF7DBFE285D50
:104B0000042140F4E070FCF7D5FEB9F1020F13D197
:104B1000385D052140F4E070FCF7CCFE305D0521E6
:104B200040F4E070FCF7C6FE285D052140F4E0701B
:104B300000E001E0FCF7BEFE0CB0BDE8F08700002D
:104B4000383B3033282B2023181B1013080B00038D
:104B5000393C3134292C2124191C1114090C01046D
:104B60003A3D32352A2D22251A1D12150A0D02054D
:104B70002DE9F0470C46F9A11746984691E82C001C
:104B80008EB0C968CDE90823CDE90A51F7A1DDF857
:104B9000589091E82C00C968CDE90023CDE9025175
:104BA000F6A10DF1200A91E82C00C96804AECDE908
:104BB0000651611E6D46CDE9042338B101287DD12F
:104BC0000F297CD8CCB2002F7AD0C5E00F2975D838
:104BD000CCB297B9305D012140F4E070FCF76AFE79
:104BE0001AF80400012140F4E070FCF763FE285D30
:104BF000012140F4C070FCF75DFEB8F1000F12D146
:104C0000305D022140F4E070FCF754FE1AF8040015
:104C1000022140F4E070FCF74DFE285D022140F4D3
:104C2000C070FCF747FEB9F1000F12D1305D0321CF
:104C300040F4E070FCF73EFE1AF80400032140F453
:104C4000E070FCF737FE285D032140F4C070FCF7EC
:104C500031FE012F12D1285D012140F4E070FCF7F4
:104C600029FE1AF80400012140F4E070FCF722FE4E
:104C7000305D012140F4C070FCF71CFEB8F1010F5B
:104C800012D1285D022140F4E070FCF713FE1AF8FF
:104C90000400022140F4E070FCF70CFE305D0221BC
:104CA00040F4C070FCF706FEB9F1010F16D1285D83
:104CB000032140F4E070FCF7FDFD02E0ACE0BEE053
:104CC00037E01AF80400032140F4E070FCF7F2FD2D
:104CD000305D032140F4C070FCF7ECFD022F0BD1D6
:104CE000305D012140F4C070FCF7E4FD285D012136
:104CF00040F4C070FCF7DEFDB8F1020F0BD1305D5F
:104D0000022140F4C070FCF7D5FD285D022140F47B
:104D1000C070FCF7CFFDB9F1020F7DD1305D0321EA
:104D200040F4C070FCF7C6FD285D032140F4C0705C
:104D30000EE1305D012140F4E070FCF7BBFD1AF894
:104D40000400012140F4E070FCF7B4FD285D01216E
:104D500040F4C070FCF7AEFDB8F1000F12D1305D29
:104D6000022140F4E070FCF7A5FD1AF804000221CE
:104D700040F4E070FCF79EFD285D022140F4C07015
:104D8000FCF798FD012F12D1285D012140F4E0705D
:104D9000FCF790FD1AF80400012140F4E070FCF7E4
:104DA00089FD305D012140F4C070FCF783FDB8F14E
:104DB000010F12D1285D022140F4E070FCF77AFD6A
:104DC0001AF80400022140F4E070FCF773FD305D36
:104DD000022140F4C070FCF76DFD022F0BD1305D55
:104DE000012140F4C070FCF765FD285D012140F40D
:104DF000C070FCF75FFDB8F1020F0BD1305D0221EE
:104E000040F4C070FCF756FD285D022140F4C070EC
:104E1000FCF750FD305D00E092E040F4E0700321CB
:104E2000FCF748FD1AF80400032140F4E070FCF799
:104E300041FD285D032140F4E070FCF73BFD113C8F
:104E40000F2C7DD8E4B297B9305D042140F4E070B6
:104E5000FCF730FD1AF80400042140F4E070FCF780
:104E600029FD285D042140F4C070FCF723FDB8F152
:104E7000000F12D1305D052140F4E070FCF71AFDFF
:104E80001AF80400052140F4E070FCF713FD285DDA
:104E9000052140F4C070FCF70DFD012F12D1285DF3
:104EA000042140F4E070FCF705FD1AF80400042129
:104EB00040F4E070FCF7FEFC305D042140F4C0706B
:104EC000FCF7F8FCB8F1010F12D1285D052140F480
:104ED000E070FCF7EFFC1AF80400052140F4E070E4
:104EE000FCF7E8FC305D052140F4C070FCF7E2FC03
:104EF000022F0BD1305D042140F4C070FCF7DAFCC6
:104F0000285D042140F4C070FCF7D4FCB8F1020F16
:104F10000BD1305D052140F4C070FCF7CBFC285D5F
:104F2000052140F4C070FCF7C5FC305D062140F45B
:104F3000E070FCF7BFFC1AF8040040F4E07000E0F9
:104F400008E00621FCF7B6FC285D062140F4E0707D
:104F5000FCF7B0FC0EB0BDE8F0870000383B303302
:104F6000282B2023181B1013080B0003393C313465
:104F7000292C2124191C1114090C01043A3D323545
:104F80002A2D22251A1D12150A0D0205FEE770476B
:104F90004FF4A06000F032B870B50F21C4780278E9
:104FA00001234FF0E026E4B1124C246804F4E064DD
:104FB000C4F5E064C4F30724C4F10405E140447877
:104FC000AC4085780D4025430B4C290111550078E4
:104FD00000F01F018B40400906EB8000C0F8003153
:104FE00070BD02F01F008340500906EB8000C0F83E
:104FF000803170BD0CED00E000E400E002490843A0
:1050000002490860704700000000FA050CED00E05E
:105010007047000070B505000E46144605D036B145
:105020000E48807828B112200DE004200BE00C20FF
:1050300009E02878012808D0022806D0032804D0E7
:10504000042802D00120107070BDFBF72DF96E61AD
:10505000FBF72EF90020207070BD000090000020AA
:1050600030B587B000F070F82A48002404638470DB
:10507000C4700472C471C460C461846144614470CA
:105080008471214600F134025454491CC9B20829E4
:10509000FAD3047144718462046201F049F801F0AA
:1050A0001BF800F0F3FF01F085F801F0A9F802AA5F
:1050B0000325202031C218494FF6FF70CDE90001C9
:1050C00001F17C023F230021144800F09FFA05AA59
:1050D00013A13F2000F0F8FA02AA402031C214497F
:1050E0004FF6FE70CDE9000101F1FC023E230021E4
:1050F000104800F08BFA05AA0FA13E2000F0E4FA58
:1051000000F090FC00F026F807B0BDE83040FFF753
:105110007FBF000090000020A4BA0020BD630008FB
:1051200075432F4F532D49492049646C6500000099
:10513000A4B90020D963000875432F4F532D494966
:1051400020537461740000000149002008807047FA
:105150008C000020704700000449C879012804D160
:105160008878FF2801D2401C88707047900000208A
:1051700070B5144DE879012822D1FBF795F8044663
:10518000A87820B1401E10F0FF00A87013D1E87875
:1051900088B901F079F80C48697950F82100A862C3
:1051A0002A79914207D0C16B491CC163E868401C51
:1051B000E860FBF795F82046BDE87040FBF778B84B
:1051C00070BD00009000002024BB002070B5054693
:1051D0000E48007808B1002070BDFBF765F8014665
:1051E0000B4804680CB1626802600846FBF760F87F
:1051F0004CB1012020700020208106A06560606114
:10520000204600F039FF204670BD000092000020CB
:10521000A00000203F0000002DE9F047050088466F
:10522000144604D02878012803D001200AE0042085
:1052300008E02C48007808B1022003E02A480078F2
:1052400020B10D2010700020BDE8F087FBF72CF88E
:105250006E68074600213EB1884638466960FBF714
:1052600027F884F800803AE0DFF880A08946DAF871
:10527000000010F8342F42F002020270417040F832
:10528000048C284600F0CAFE3846FBF711F800F0FF
:10529000D7FFFBF709F80746DAF8000090F8351059
:1052A00031B1022908D0294600F088FE0A2004E026
:1052B000466A84F8009001E00E202070DAF80010B1
:1052C000384601F11C0181F8189081F81990C1F855
:1052D0000090C1F80490C1F80890FAF7E9FF304651
:1052E000B2E700009200002093000020B0000020F0
:1052F00070B504000D4605D035B12078012805D0E1
:10530000012070BD042070BD032070BDFAF7CCFFF2
:105310000646A07A58B1002302222946204600F012
:1053200011FE3046FAF7C4FF00F08AFF0AE0606819
:1053300020B13046FAF7BCFF142070BD30466560DE
:10534000FAF7B6FF002070BD10B5094CE0790128CE
:105350000CD1FAF7A9FFA17821B9E178FF2901D290
:10536000491CE170BDE81040FAF7A2BF10BD000073
:105370009000002010B50D4CE079012814D1FAF707
:1053800093FFE17831B1491E11F0FF01E17001D1C5
:10539000A17819B1BDE81040FAF78ABFFAF788FF83
:1053A000BDE8104000F04CBF10BD00009000002090
:1053B00070B505460E48007808B1002070BDFAF7B8
:1053C00073FF01460B4804680CB16268026008462E
:1053D000FAF76EFF4CB10320207025810020606039
:1053E00005A06061204600F047FE204670BD000029
:1053F00092000020A00000203F0000002DE9F047AF
:1054000005008846144604D02878032803D00120DC
:105410000AE0042008E02648007808B1022003E0F2
:105420002448007818B10D201070BDE8F087FAF715
:105430003BFF06462889002730B1401E28813046B0
:10544000FAF736FF2770F0E7DFF86C90D9F8000024
:1054500010F8341F41F001010170477040F8048CCE
:10546000284600F0DBFD3046FAF722FF00F0E8FEA8
:10547000FAF71AFF0646D9F8000090F8351031B156
:10548000022906D0294600F099FD0A2002E0277083
:1054900001E00E202070D9F8000000F11C00077612
:1054A0004776076047603046BDE8F047FAF700BF2F
:1054B0009200002093000020B000002070B504008E
:1054C00004D02078032803D0012070BD042070BDD3
:1054D000FAF7EAFE0546A07A58B1002301221946E0
:1054E000204600F02FFD2846FAF7E2FE00F0A8FE65
:1054F00009E020894FF6FF71884206D2401C2081C6
:105500002846FAF7D5FE002070BD2846FAF7D0FEEF
:10551000332070BD10B5094CE07900280CD100F0A3
:10552000B3FE60790649207151F82000A062206224
:10553000BDE81040FAF7BFBE10BD0000900000208B
:1055400024BB002010B5022000F0C6F9FAF7ACFE2B
:10555000084C0021E161FAF7ABFE642000F0BCF9D1
:10556000FAF7A2FEE169616101216170BDE81040B6
:10557000FAF79EBE90000020FBF7A9BF2DE9FE437D
:1055800005460F4690461C463F2B02D92A20BDE80F
:10559000FE83FAF789FE1A49097819B1FAF788FEED
:1055A0003C20F4E7174E56F8241019B1FAF780FEA4
:1055B0002820ECE7012146F82410FAF779FE0023B1
:1055C00042463946284600F0FBF80027014600977E
:1055D00001973B463A462046029700F065FE0500DB
:1055E00007D0FAF761FE46F82470FAF761FE284604
:1055F000CDE7054800780128F9D100F021FEF6E753
:105600009200002024BB0020970000202DE9F04FDD
:1056100081462DED028B83B08A46DDE90F879DED33
:10562000118A129D93461C463F2B05D92A2003B0B0
:10563000BDEC028BBDE8F08FFAF736FE1D49097804
:1056400019B1FAF735FE3C20F1E71B4E56F824104D
:1056500019B1FAF72DFE2820E9E7012146F82410B8
:10566000FAF726FE2A463946404600F0FDFE2B4654
:105670005A465146484600F0A3F800978DED018A3E
:1056800001460295424620460E9B00F00DFE0500A5
:1056900008D0FAF709FE002146F82410FAF708FEB0
:1056A0002846C4E7054800780128F9D100F0C8FD74
:1056B000F6E700009200002024BB002097000020A5
:1056C000FBF752BFFBF752BF70B505460E461446B6
:1056D0003F2803D9FF2D01D02A2004E02EB1124823
:1056E000007820B11220107070BD0C20FBE7FAF793
:1056F000DBFD0146FF2D03D10C48006890F83650C1
:105700000B4850F82500432540B1012806D0066516
:105710000846FAF7CDFD0020207070BD0846FAF764
:10572000C7FD257070BD000092000020B000002071
:1057300024BB0020FCF784B82DE9F04104460D4657
:105740003F2804D9FF2C02D02A20BDE8F08145B1C2
:10575000002028606860FAF7A7FD0146FF2C02D000
:1057600005E00920F1E71448006890F83640134836
:1057700050F8240058B1012809D0028AD2070BD072
:10578000D0E9024700260846FAF792FD0AE00846EB
:10579000FAF78EFD4320D8E70846FAF789FD452041
:1057A000D3E7761C01CC0028FBD0B0002860B81BE2
:1057B000800068600020C8E7B000002024BB002003
:1057C0004FF080731360131F18606FF0010042F8F0
:1057D000080CA2F138004FF012334FF00332C0E949
:1057E0000A234FF0023242624FF00132C0E9071241
:1057F0004FF0113181614FF0103141614FF00931AB
:1058000001614FF00831C1604FF0073181604FF006
:10581000063141604FF0053140F804194FF0043172
:105820000160704770B5274D04463F2804D005D36A
:10583000FF280CD02A2070BD472070BDFAF734FD38
:105840000346286890F83600A04206D007E0FAF731
:105850002BFD0346286890F83640012500E000251E
:10586000194850F8240068B1012810D090F8382069
:10587000164C90F83960A15CF643F6B23140A15461
:105880000AD010E01846FAF713FD482070BD1846FC
:10589000FAF70EFD432070BD0D4A90F83A101478C7
:1058A00024EA0101117010F8341F41F00801017061
:1058B0001846FAF7FDFC012D01D100F0C1FC0020D3
:1058C00070BD0000B000002024BB0020C4000020F8
:1058D00096000020FBF7B5BF70B504461448007869
:1058E000002824D113480078002820D1002C1ED095
:1058F000FAF7DAFC03461048104D006890F83810AB
:1059000090F839606A5CF643F6B232406A5406D1C8
:105910000B4A90F83A10157825EA010111700463DA
:105920001846FAF7C5FCBDE8704000F089BC70BDB0
:105930009200002093000020B0000020C40000204E
:10594000960000202DE9F04100F052F8FAF7ACFC87
:10595000264D296B491C2963FAF7AAFCE87901282E
:1059600041D1687A0126002720B101283BD00228C6
:1059700002D06F72EC6A32E06E72FBE7FAF794FCC9
:10598000216B49B3491E216326D194F8341011F0DC
:10599000370F06D001F0C80184F8341084F8356060
:1059A00001E084F8357094F83410090714D404F138
:1059B0003804AA79A178DFF834C041EA0201A9715C
:1059C00021780CF1340C63781CF80120A4F1380420
:1059D00042EA03020CF801206469FAF769FC94F8C2
:1059E00036003F28CAD1BDE8F081000090000020B9
:1059F00010B5FBF75BFF07480188491C89B201809D
:105A0000642905D300210180BDE8104000F004B8EE
:105A100010BD00008C00002001480068FFF74EBD5B
:105A2000E400002070B588B04FF420712E4800F0DB
:105A3000B7FB40212D4800F0B3FB00202A49044663
:105A40006422431C00EB80001D4601EBC0009BB2AA
:105A500003EB8303027001EBC30380F82540C360AE
:105A600023A30362A8B20F28EBD300EB800001EB65
:105A7000C000027080F825401DA2C46002621D486B
:105A80001E4A04601C480480102010801C480160DD
:105A90000120FFF78DFC1B4D28600020FFF788FCDC
:105AA000194E05AA19A130602868FFF7B3FA05AAB4
:105AB0001BA13068FFF7AEFA402102910320CDE927
:105AC00003401C4A4FF6FD70CDE900023D23FC3235
:105AD00000211948FFF79AFD06AA18A13D20FFF7FB
